:020000041000EA
:1010000050090020191000109D1100109F110010B0
:1010100000000080000000800348854603488047A8
:101020000348804706E0000050090020E11100104D
:10103000C910001018481949194A002A0AD0042A70
:1010400000D20422920803680B60013A02D00430F7
:101050000431F8E713481449002909D0042900D2C3
:101060000421890800220260013901D00430FAE726
:101070000E480F490F4A920803680B60013A02D0EC
:1010800004300431F8E70C4880470C4885460020BE
:1010900000210B4A9746000008560010500F002010
:1010A0003C0E000050090020F8050000D05400104C
:1010B0000C00002038010000ED1100105009002044
:1010C000CD10001001207047C046704780B58AB02F
:1010D00002AF294B7B61294B3B61294B1868391DB5
:1010E000284A294B0090081C1D2100F0D9FD00233F
:1010F000FB6115E0224B1B68FA6953439B007A6938
:10110000D1181F4B1B68FA6953439B003A69D218E8
:101110001B4B1B68381D00F02BFDFB690133FB6185
:101120001A4B1B68FA699A42E4D31949134AA0235F
:101130005B00081C111C1A1C00F09AF8021C154BCD
:101140001A60144B1B68181C134901F0D1F9031CD9
:10115000002B04D03B1C1B33FA221A7003E03B1C0B
:101160001B3300221A703B1C1B331B785BB2002B15
:1011700000D0FEE7FEE7C046500F002050090020D7
:101180005019002040530010500E00205419002028
:1011900050140020400F002000000C43FEE7FEE743
:1011A000FEE7FEE7FEE7FEE7FEE7FEE7FEE7FEE717
:1011B000FEE7FEE7FEE7FEE7FEE7FEE7FEE7FEE707
:1011C000FEE7FEE7FEE7FEE7FEE7FEE7FEE7FEE7F7
:1011D000FEE7FEE7FEE7FEE7FEE7FEE7FEE7FEE7E7
:1011E00080B500AFFFF76EFFBD4680BD80B586B00D
:1011F00000AF1C4B1B683B613A69FF231B02134085
:101200001B0AFB603A69FF231340BB60FB68002B9D
:101210001FD0BB68002B06D11348F96801F0C8F84D
:10122000031C7B6117E0FB681A02BB68D3187B6064
:101230007B68FA221006191C01F0BAF8031C3B6007
:101240003B68FA22920053437B617B695B0A7B61B6
:1012500001E0054B7B61054B7A691A60BD4606B01B
:1012600080BDC046000301400048E801440F002053
:1012700090B58BB000AFF860B9607A6000237B62F4
:1012800000233B6100233B625FE03B6A9B00FA68FE
:10129000D318FB61FB691B68BB61BA69484B9A4272
:1012A00001D1002381E03B6A9B00BA68D318FB613F
:1012B000FB691B68BB61BA69414B9A4201D10023AB
:1012C00073E03B6A9B00FA68D3181A683B6A9B007C
:1012D000F968CB181B68101C191C01F0F9FC031CE1
:1012E000786A191C01F02CF9031C7B623B6A9B0095
:1012F000FA68D3181A683B6A9B00B968CB181B6858
:10130000101C191C01F014FE031C1C1C3B6A9B00E2
:10131000FA68D3181A683B6A9B00B968CB181B6837
:10132000101C191C01F004FE031C201C191C01F0E8
:10133000CFFC031C1A1C3B69101C191C01F000F99E
:10134000031C3B613B6A01333B623A6A7B689A4209
:101350009BD33B1C1033FB61FB691B68BB61BA6903
:10136000174B9A4201D100231FE03B69786A191C90
:1013700001F0BCFA031C181C03F034FE031C0C1C07
:10138000181C211C00F0A0FC031C0C1C181C211CA8
:101390000A4B094A02F0C4FF031C0C1C181C211C38
:1013A00003F074FE031C7B617B69181CBD460BB007
:1013B00090BDC046C046C04600000000000024406A
:1013C0000000C07FC046C04680B586B000AFF86060
:1013D000B9607A6000237B6112E07B695B00FA6888
:1013E000D3187A695200F9688A18128811B27A689B
:1013F000081C1041021C92B21A807B6901337B6188
:101400007A69BB689A42E8D3BD4606B080BDC04643
:10141000F0B5474680B486B000AFF860B9607A6036
:1014200000237B6158E07B699B00BA68D4187B6914
:101430009B00FA68D3181B68181C9321C90501F09A
:1014400047FC031C181C01F04DFF031C23607B6943
:101450009B00BA68D21890467B699B00BA68D31883
:101460001B68181C03F084FD051C0E1C7B699B0087
:10147000FA68D3181B68181C002101F04DF8031CF2
:10148000002B02D01B4C1A4B01E01B4B1B4C281CA1
:10149000311C1A1C231C01F099FF031C0C1C181C86
:1014A000211C03F031FD031C424613607B699B0045
:1014B000FA68D3181B68181CFE21890501F012F880
:1014C000031C002B05D07B699B00BA68D3180C4A1B
:1014D0001A607B6901337B617A697B689A42A2D387
:1014E000BD4606B004BC9046F0BDC046C046C046EE
:1014F000000000000000E03F000000000000E0BF2E
:10150000FFFF0F00C046C04680B588B000AFF8604E
:10151000B9607A6000237B610023BB610023FB611B
:101520001BE0FB695B00FA68D3181B881AB2FB69E1
:101530005B00B968CB181B881BB2D31A3B613B69AF
:10154000DA179B1853407B617A69BB699A4201D9CB
:101550007B69BB61FB690133FB61FA697B689A4275
:10156000DFD3BB69181CBD4608B080BD80B588B00C
:1015700000AFF860B9607A6000237B610023BB6133
:101580000023FB6119E0FB699B00FA68D3181A6815
:10159000FB699B00B968CB181B68D31A3B613B6998
:1015A000DA179B1853407B617A69BB699A4201D96B
:1015B0007B69BB61FB690133FB61FA697B689A4215
:1015C000E1D3BB69181CBD4608B080BD80B586B0AC
:1015D00000AFF860B9607A6000237B6110E07B693E
:1015E0009B00FA68D3187A699200F9688A18116822
:1015F0007A68081C1041021C1A607B6901337B6108
:101600007A69BB689A42EAD3BD4606B080BDC0463F
:1016100080B586B000AFF860B9607A6000237B6166
:1016200010E0FA687B69D318F9687A698A18127829
:1016300051B27A68081C1041021CD2B21A707B6940
:1016400001337B617A69BB689A42EAD3BD4606B032
:1016500080BDC04680B584B000AF78600123FB60D8
:101660000023BB607B68012B07D100230AE0FB68E5
:101670005B00FB60BB680133BB60FA687B689A4221
:10168000F5D3BB68181CBD4604B080BDB0B586B0AC
:1016900000AFF860B9607A6000237B611AE07B6973
:1016A0009B00FA68D4187B699B00FA68D3181D6800
:1016B0007B68181C00F016F8031C181C01F032FEA1
:1016C000031C281C191C01F003FB031C23607B690D
:1016D00001337B617A69BB689A42E0D3BD4606B0AC
:1016E000B0BDC04680B584B000AF78600123BB6058
:1016F0000023FB6005E0BB685B00BB60FB68013357
:10170000FB60FA687B689A42F5D3BB68181CBD463B
:1017100004B080BD00000000F0B5474680B486B03C
:1017200000AFF860B9607A6000237B615BE07B69A1
:101730005B00BA68D4187B699B00FA68D3181B68F1
:10174000181C8D21C90501F0C3FA031C181C01F0F7
:10175000C9FD031C9BB223807B695B00BA68D21869
:1017600090467B695B00BA68D3181B881BB2181CB3
:1017700003F0FEFB051C0E1C7B699B00FA68D31866
:101780001B68181C002100F0C7FE031C002B02D0B0
:101790001A4C194B01E01A4B1A4C281C311C1A1C0C
:1017A000231C01F013FE031C0C1C181C211C03F04D
:1017B000ABFB031C9BB2424613807B699B00FA681B
:1017C000D3181B68181C8021C90500F08BFE031C70
:1017D000002B05D07B695B00BA68D3180A4A1A80CF
:1017E0007B6901337B617A697B689A429FD3BD46EE
:1017F00006B004BC9046F0BD000000000000E03FD1
:10180000000000000000E0BFFF7F0000C046C046AF
:10181000F0B5474680B486B000AFF860B9607A6032
:1018200000237B6158E07B699B00BA68D4187B6910
:101830009B00FA68D3181B68181C9D21C90501F08C
:1018400047FA031C181C01F04DFD031C23607B6943
:101850009B00BA68D21890467B699B00BA68D3187F
:101860001B68181C03F084FB051C0E1C7B699B0085
:10187000FA68D3181B68181C002100F04DFE031CE9
:10188000002B02D01B4C1A4B01E01B4B1B4C281C9D
:10189000311C1A1C231C01F099FD031C0C1C181C84
:1018A000211C03F031FB031C424613607B699B0043
:1018B000FA68D3181B68181C8021C90500F012FEB5
:1018C000031C002B05D07B699B00BA68D3180C4A17
:1018D0001A607B6901337B617A697B689A42A2D383
:1018E000BD4606B004BC9046F0BDC046C046C046EA
:1018F000000000000000E03F000000000000E0BF2A
:10190000FFFFFF7FC046C046F0B5474680B486B0B3
:1019100000AFF860B9607A6000237B6158E07B69B2
:101920009B00BA68D4187B699B00FA68D3181B68BF
:10193000181C9C21C90501F0CBF9031C181C01F0EF
:10194000D1FC031C23607B699B00BA68D2189046C7
:101950007B699B00BA68D3181B68181C03F008FB4E
:10196000051C0E1C7B699B00FA68D3181B68181CA9
:10197000002100F0D1FD031C002B02D01B4C1A4BA0
:1019800001E01B4B1B4C281C311C1A1C231C01F0B2
:101990001DFD031C0C1C181C211C03F0B5FA031CB4
:1019A000424613607B699B00FA68D3181B68181CB9
:1019B0008121C90500F096FD031C002B05D07B6931
:1019C0009B00BA68D3180C4A1A607B6901337B61AB
:1019D0007A697B689A42A2D3BD4606B004BC9046A1
:1019E000F0BDC046C046C046000000000000E03F19
:1019F000000000000000E0BFFFFFFF7FC046C046C0
:101A0000F0B5474680B486B000AFF860B9607A6040
:101A100000237B6158E07B699B00BA68D4187B691E
:101A20009B00FA68D3181B68181C9B21C90501F09C
:101A30004FF9031C181C01F055FC031C23607B6943
:101A40009B00BA68D21890467B699B00BA68D3188D
:101A50001B68181C03F08CFA051C0E1C7B699B008C
:101A6000FA68D3181B68181C002100F055FD031CF0
:101A7000002B02D01B4C1A4B01E01B4B1B4C281CAB
:101A8000311C1A1C231C01F0A1FC031C0C1C181C8B
:101A9000211C03F039FA031C424613607B699B004A
:101AA000FA68D3181B68181C8221C90500F01AFDBA
:101AB000031C002B05D07B699B00BA68D3180C4A25
:101AC0001A607B6901337B617A697B689A42A2D391
:101AD000BD4606B004BC9046F0BDC046C046C046F8
:101AE000000000000000E03F000000000000E0BF38
:101AF000FFFFFF7FC046C04680B584B000AF78606E
:101B000039600023FB6029E0FB689B007A68D318EA
:101B10001B68181CFE21890500F0FEFC031C002B2D
:101B200007D0FB689B007A68D318FE2292051A60E2
:101B300011E0FB689B007A68D3181B68181C0B49DE
:101B400000F0D6FC031C002B05D0FB689B007A68D4
:101B5000D318064A1A60FB680133FB60FA683B68D9
:101B60009A42D1D3BD4604B080BDC046000080BFBC
:101B7000F0B55F4656464D464446F0B489B00793EB
:101B8000476883680192059704930088079E039035
:101B9000013884003D1906900095002E58D002911E
:101BA000B346BA460299009A80C9049C80C2554641
:101BB000029101CD02CC009201F08AF8011C0020B4
:101BC00000F0BEFC039E0127013E37408146002EF7
:101BD0002ED0002F0ED0049B01CD596801F078F86B
:101BE000011C484600F0ACFC039E8146023E0434D2
:101BF000002E1DD0B046261C2C1C371C02CF01CC59
:101C000001F066F8011C484600F09AFC71688146B4
:101C1000686801F05DF8011C484600F091FC8146BF
:101C20000220414288444246251D3E1D002AE3D140
:101C30000127019D7E424B46B34408C50424584603
:101C40000195A2440028ADD10799059D8A00AF18DF
:101C5000069B002B1CD01C1C012602CF059B013CBF
:101C6000301C204002C3002C12D0002805D010CF19
:101C700010C3069C023C002C0AD03E1C04CE1D1C46
:101C800004C57F68023C5F60371D2B1D002CF4D11A
:101C900009B03CBC90469946A246AB46F0BDC04652
:101CA00038B51D1C064B041C018082600498CA18BC
:101CB00011188A00281C002103F0AEFA656038BDB7
:101CC000FFFFFF3F00000000F0B5474680B48AB038
:101CD000041C0D1C00F07CF8394A0023061CD05669
:101CE0000F1C9046431C0DD0201C291C00F010F93D
:101CF000002807D0201C291C2C4B2B4A00F0C8FBC5
:101D0000002805D1301C391C0AB004BC9046F0BD37
:101D1000002647462B4908963E7801910294039588
:101D200004940595002E29D1214822490690079157
:101D3000201C291C1D4B1C4A00F09AFB00280ED0C9
:101D400002230093022E23D0684600F019F90028E0
:101D50001ED0089F002F20D1069E079FD2E70124A6
:101D60000094022E0FD0684600F00AF900280AD02D
:101D7000154800F009F906900791EAE70E4A0F4B63
:101D800006920793D4E703F041FA21250560EFE7B7
:101D900003F03CFA22210160DBE703F037FA089EEA
:101DA0000660D9E7C046C046000000000000000001
:101DB000000000E0FFFFEFC7000000000000F0FFA0
:101DC00058190020B4530010BC530010C046C04640
:101DD000F0B54F464646C0B4041C021C484883B0C8
:101DE0000D1C0B1E83421EDC4B005E0832435BD091
:101DF000201C00295FDB374B354A291C02F090FA82
:101E0000404A36270D1C0B1C041C794293420EDD00
:101E1000201C291C221C2B1C01F0D8FA03B00CBC7E
:101E200090469946F0BD374A00219342F0DC36488F
:101E30001A1512185118CA0F1B031B0B881890464D
:101E4000994603F095F8314B061C40461B1A1B05BA
:101E50004D461D430F1C201C291C00F09DF81E4AF6
:101E60001E4B041C0D1C301C391C02F059FA1C4A74
:101E70001C4B00900191301C391C02F051FA1A4A97
:101E80001A4B061C0F1C201C291C02F049FA021CCC
:101E90000B1C301C391C01F099FA021C0B1C009819
:101EA000019901F093FAB9E7114A124B124813490C
:101EB00001F03CFEB2E7221C2B1C291C02F0A2FC04
:101EC0000B4A0C4B01F032FEA8E7C046C046C046A4
:101ED000000000000000504300609F501344D33FB7
:101EE000362BF111F3FE593D0EE526157BCBDB3F7A
:101EF000000000000000000000000000000050C3CF
:101F0000FFFF0F00FFFFEF7F01FCFFFFFF0300005B
:101F10000B1C011C30B519430222002901D1101CF1
:101F200030BD80242506AB421ED0114A11499C18B1
:101F300004228C42F3D9104D5C198C42EFD90F4921
:101F400003228B42EBD9802215060C495C1903222F
:101F50008C42E4D9084A934203D0054D0022AB429B
:101F6000DDD142424241DAE70028D8D0EBE7C04653
:101F70000000F0FFFFFFDF7F0000F07FFFFF0F009A
:101F80000020704700000000024901487047C04629
:101F9000000000000000F87FF0B54E465746454669
:101FA000E0B4C14E88B0021C0B1C041CB34258DCC8
:101FB0005D0069080C4300D1EDE0002B00DAB2E1CE
:101FC000101C191C994B984A02F0AAF9021CB74838
:101FD00036240B1C6742814247DC0B15B44E0903C3
:101FE000B4480C0B9D19A046031C8026EF194344EE
:101FF0007503B1491D40694028150C43C719211CC0
:10200000101C8B4A8B4B02F0FDFB4246023213033D
:10201000B946061C0F1C1D0B022D30DC864A874B6F
:1020200000F026FA002800D1BCE04E46002E00D178
:1020300082E1484602F09CFF814A824B041C0D1C41
:1020400002F06EF9804A814B061C0F1C201C291CD3
:1020500002F066F9021C0B1C301C391C01F0B6F9A9
:1020600007E0924800278142B7DD101C191C01F0DF
:10207000ADF908B01CBC90469946A246F0BD744A22
:10208000744B01F0A3F9021C0B1C301C391C01F02D
:102090004DFD02900391484602F06AFF04900591BD
:1020A00002980399021C0B1C02F03AF9021C0B1C4B
:1020B0000090019102F034F9674A684B7F4C0D1C87
:1020C000A246041C02F02CF9654A664B01F07EF929
:1020D000221C2B1C02F024F9634A644B01F076F9B0
:1020E000221C2B1C02F01CF9614A624B01F06EF9B4
:1020F000009A019B02F014F95F4A604B0090019135
:10210000201C291C02F00CF95D4A5E4B01F05EF9BF
:10211000221C2B1C02F004F95B4A5C4B01F056F9BF
:10212000221C2B1C02F0FCF8021C0B1C00980199CD
:1021300001F04CF90D1C6249C244041C40460A1AC5
:1021400053461A43002A54DD514A524B301C391C65
:1021500002F0E6F8321C3B1C02F0E2F8009001911C
:102160004846002800D0ADE0221C2B1C00980199A5
:1021700001F02CF9029A039B02F0D2F8021C0B1C0E
:102180000098019902F03EFB021C0B1C301C391C0C
:1021900002F038FB6DE7284A284B3F483F4901F0E1
:1021A000C5FC66E7321C3B1C301C391C02F0B8F839
:1021B0003B4A3C4B041C0D1C301C391C02F0B0F88F
:1021C000021C0B1C3248334902F01CFB021C0B1C86
:1021D000201C291C02F0A4F84A46041C0D1C002AED
:1021E00000D0ACE0301C391C221C2B1C02F00AFB76
:1021F0003FE74946002900D1C3E0114A114B04983A
:10220000059902F08DF8221C009001912B1C301CC6
:10221000391C02F0F7FA029A039B02F081F8041CC1
:102220000D1C0498059997E0000000000000504341
:10223000000000000000F03F00000000000000006F
:102240000000E0FE422EE63F763C7935EF39EA3D6C
:10225000000000000000004044523EDF12F1C23F87
:10226000DE03CB966446C73F599322942449D23F5C
:10227000935555555555E53F9FC678D0099AC33FAC
:10228000AF788E1DC571CC3F04FA97999999D93FC3
:10229000000000000000E03F00000000000050C30C
:1022A000555555555555D53FFFFF0F00FFFFEF7FA3
:1022B00001FCFFFF645F09000000F03F86EBF9FFBF
:1022C00051B80600354B344A0498059902F028F8B5
:1022D000221C06900791009801992B1C01F076F8BA
:1022E000029A039B02F01CF82D4A2E4B041C0D1C75
:1022F0000498059902F014F8021C0B1C201C291CE0
:1023000001F064F8021C0B1C0098019902F07AFAA3
:10231000321C3B1C02F076FA021C0B1C0698079933
:1023200002F070FAA5E6101C191C02F06BFA1E4AA6
:102330001E4B01F0FBFB9CE61B481C4999E64846F6
:1023400002F016FE154B144A0290039101F0E8FFCB
:102350000090019102980399114A124B01F0E0FF9D
:10236000021C0B1C201C291C02F04CFA321C3B1CCA
:1023700002F048FA021C0B1C0098019902F042FA84
:1023800077E6221C2B1C301C391C02F03BFA029A07
:10239000039B01F0C5FFF7E60000E0FE422EE63F9A
:1023A000763C7935EF39EA3D00000000000000007E
:1023B000002934D00123002210B488422CD30124F8
:1023C0002407A14204D2814202D209011B01F8E78D
:1023D000E400A14204D2814202D249005B00F8E746
:1023E000884201D3401A1A434C08A04202D3001B72
:1023F0005C0822438C08A04202D3001B9C082243A5
:10240000CC08A04202D3001BDC082243002803D0E2
:102410001B0901D00909E3E7101C10BC7047002814
:1024200001D00020C04307B4024802A14018029026
:1024300003BDC046190000000029F0D003B5FFF726
:10244000B9FF0EBC4243891A1847C0467047C046C0
:102450008446101C62468C46191C634600E0C04648
:102460001FB501F0F1FE002801D40021C8421FBDB4
:1024700010B501F037FE4042013010BD10B501F03B
:10248000E3FE002801DB002010BD012010BDC04686
:1024900010B501F0D9FE002801DD002010BD01209B
:1024A00010BDC04610B501F05BFE002801DC002025
:1024B00010BD012010BDC04610B501F051FE00282E
:1024C00001DA002010BD012010BDC0468446081C62
:1024D0006146FFE71FB500F0B3FB002801D40021DF
:1024E000C8421FBD10B500F03BFB4042013010BD9B
:1024F00010B500F0A5FB002801DB002010BD012075
:1025000010BDC04610B500F09BFB002801DD002087
:1025100010BD012010BDC04610B500F049FB0028D9
:1025200001DC002010BD012010BDC04610B500F038
:102530003FFB002801DA002010BD012010BDC0467D
:10254000F8B5430242004F024C00C00F9B09120E27
:10255000061C9C46240EC90FBF09884257D0151B84
:10256000002D00DC7EE0002C41D1002F64D0013D25
:10257000002D00D0ABE0DB1B141C061C590144D518
:102580009A019509281C02F023FE053885408442F3
:1025900000DD79E0001B1F242B1C411C221ACB40BC
:1025A00095401F1C2B1C5D1EAB413B4301250024A5
:1025B0000F201840042800D004338021CF040122CA
:1025C0001F401640002F05D0FF2D5AD0B34C23409A
:1025D0002C1C0135EDB2DA08012D3BDD53025A0AFD
:1025E000E4B2E4052243F607101C3043F8BDFF2A8D
:1025F0002BD08021CC04274301231B2D49DD6746C6
:10260000FB1A141C061C5901BAD4651CD0E7151B13
:10261000002D4FDD002C13D0FF2A5AD08024E10476
:102620000F4301231B2D00DCB0E06344141C59014F
:1026300055D4651C061CBBE7551C141C061CB7E7CB
:10264000002F7CD1551C141CB2E7802763467D0007
:10265000FF24ADE7002AC3D0002C28D08020C1037E
:102660000A43BBE7002D47D1501CC3B2012B00DC4D
:1026700096E06446E51B680158D53D1B0E1C141CF2
:1026800080E7FF240022ACE7844B241A2B40651C12
:102690008EE73E1C2021EE404D1BAF403B1C5F1ED1
:1026A000BB4133436746FB1A141C061CABE75702B9
:1026B0007A0A96E7002D7FD1541CE1B2012953DD3F
:1026C000FF2C00D19BE0FB185B08951C70E7FF2AEC
:1026D00092D1061C802063464500FF2468E7671CF2
:1026E000FF2F3CD06D4A01261E4013405B08334348
:1026F000A51C061C3C1C5BE76842002A25D0FF2C69
:1027000070D08022D6041D1C3543AC4601261B2800
:1027100009DC62462025C2402B1A60469840061C00
:10272000701E86411643BB1B0E1C27E7141C002D90
:1027300000D027E700260125042300244AE7013DB5
:10274000002D08D1FB18141C71E7002B50D1651C1B
:102750003B1C0E1C2CE7FF2A00D062E7B9E7802360
:102760005D00FF24042335E7002A7CD1002B00D133
:10277000A1E0002F00D1AFE0FB18590100D4B0E078
:10278000464E022533400124061C11E73C1C202341
:10279000EC405D1BAF403B1C5F1EBB41234344E745
:1027A000002A12D16546002D41D1002FC2D03B1C1A
:1027B0000E1C01250024FBE66D42002A23D1002BCC
:1027C00066D1651C3B1C061CF2E66246002A38D125
:1027D000002F07D1802200265500314BFF24F9E657
:1027E000FF2C93D13B1C80270E1C7D00FF24DFE6CD
:1027F00001380028F4D16646BB1B0E1CBEE68027BC
:102800007D000423E6E6FF2C5CD08022D1040B433C
:102810009C4601231B2D08DC20216246EA406346CA
:102820004D1BAB40591E8B411343DB19FFE6002FB4
:1028300038D0EB1B5A014BD57B1B0E1C0125002405
:10284000B6E6002F00D100E78020D308C40323425E
:1028500004D0FF08274201D13B1C0E1C8021DB0065
:102860004D00FF24A4E6002B20D0002F00D1ECE681
:102870008022DE08D503311C2E4203D0F9082942FC
:1028800000D0311C061C8020CB004500FF248FE6C1
:10289000013D002D14D1FB18C9E6C046FFFFFFFB28
:1028A000FCFFFF0363460125002481E680246500C8
:1028B0003B1CFF247CE63B1C061C0125002477E61C
:1028C000FF2CA6D13B1C8027061C7D00FF246FE651
:1028D000002B00D12EE769E66346061C0125002483
:1028E00066E6061C0125002462E6C046F0B55F4698
:1028F00056464D464446F0B44502440083B00E1C93
:102900006D0A240EC70F002C07D1002D00D091E0D6
:10291000042101228846924609E0FF2C55D08023ED
:10292000180400210543ED007F3C88468A46331C8D
:1029300058007602D90F760A000E8B464CD1012240
:102940009446002E00D081E05B467B4062464146C3
:1029500001930A430F2A50D9201A69018146750153
:10296000A94200D3B3E00122534299441B2400261C
:102970000127621E381C10404B007600002900DA47
:10298000A9E09D4200D8A6E0013C002C00DCABE0B1
:1029900000280CD0191C76005B00002901DB9D4249
:1029A00001D85B1B3E43013C002C00DC9CE059003D
:1029B0007200002B01DB8D4201D8491B3A43013CD8
:1029C0004B0056000029EADAEBE7002D2DD1082054
:1029D000022180468A46AAE7FF2820D080221304DD
:1029E00000211E438C465B467B4062464146F60012
:1029F0007F3801930A430F2AAED8564992008A586D
:102A00009746019BFF260025F0052843DE0730434B
:102A100003B03CBC90469946A246AB46F0BD331C81
:102A20005A1E934102339C468EE70C2203239046A4
:102A30009A467CE7281C02F0CBFB7622441F5342C7
:102A4000A5401C1A00208046824670E7301C02F028
:102A5000BFFB7623411F8E405A420021101A8C463C
:102A600072E700233C4DFF26CEE75F46351C0197F9
:102A70006346022BC5D0032B63D0012B43D04946BC
:102A80007F31002935DD0F272F40042F00D004357A
:102A90002B0103D5314A494615408031FE29B0DC6F
:102AA000A801450ACEB2019BAEE700260025ABE7A0
:102AB0008020C1030D4211D00E420FD10E4373028C
:102AC0005D0AFF265B469FE701975346D1E7491B06
:102AD0001A2401264CE75B1B3E4355E70D436A026F
:102AE000550A3B1CFF268FE71D1C6B1E9D4135437D
:102AF000C5E77E2467424A46B91A1B2908DD019BB7
:102B00000026002580E7019D00262B4000257BE75D
:102B10004E469E36281CB5402B1C5D1EAB41C8405E
:102B200003430F251D40042D00D004335A0103D563
:102B3000019B0126002567E79C01650A019B002691
:102B400062E78027FC0325436E02750A019BFF267E
:102B50005AE7C046C0530010FFFF7F00FFFFFFF79A
:102B60004302420070B55C0AC60F130E48024A00C9
:102B7000450A120EC90FFF2B05D0FF2A08D00120ED
:102B800093420BD070BD0120002CFBD1FF2AF6D15F
:102B90000120002DF6D101209342F3D1AC42F1D1B6
:102BA0008E4203D0002BEDD1002CEBD10020E9E7C1
:102BB000F0B5430242004F00C60F48025C0A450AC6
:102BC000130EC90F3A0EFF2B26D0FF2A29D0002B57
:102BD0000CD1604260418446002A0AD0002816D1F8
:102BE0008E4221D0002E14D1012014E0002AF7D10A
:102BF00094466F426F416046002805D1002FEFD008
:102C00000120002E07D004E00020002F03D100296E
:102C1000EAD101214842F0BD002CD6D00222504218
:102C2000F9E7002DD3D0F9E79342DBDC04DBAC42BB
:102C3000D8D80020AC42EED2002EEAD00120EAE73C
:102C4000F0B5430242004F00C60F48025C0A450A35
:102C5000130EC90F3A0EFF2B26D0FF2A28D0002BC7
:102C60000FD0002A14D194466F426F41604600286D
:102C700014D00020002F03D100290DD1012148429A
:102C8000F0BD604260418446002AEDD00028F3D1B7
:102C90008E4211D0002EF1D10120F1E7002FF7D0A4
:102CA0000120002EECD0E9E70220002CE8D1D4E787
:102CB0000220002DE4D1D2E79342EBDC04DBAC42EE
:102CC000E8D80020AC42DBD2002ED7D00120D7E7D5
:102CD000F0B55F4656464D464446F0B445024600C0
:102CE00083B00F1C6D0A360EC40F002E06D1002DC6
:102CF00070D1042101228846924609E0FF2E43D07C
:102D00008023180400210543ED007F3E88468A4653
:102D1000381C43007F02C10F7F0A1B0E8B463AD13D
:102D20000121002F62D158466040424601900A437B
:102D30000F2A3FD92C04F018260C3B041A0C311C26
:102D400051433F0C2D0C7E436A438146080C3618D4
:102D50002C1CB3187C439A4200D99AE009041D0444
:102D6000080C2E18B5011B0C691E8D41B20EE71818
:102D70001543BC0125432B014BD5012028400121DF
:102D80006D088944054344E0002D1ED1082002212E
:102D900080468A46BCE7FF2B12D0802210040743EE
:102DA0005846002160404246FF007F3B01900A43A5
:102DB0000F2ABFD890005B4A844662441068874659
:102DC000391C4A1E91410231ADE70C220323904683
:102DD0009A469DE7281C02F0FBF97622461F5342D3
:102DE000B5401E1A00208046824691E7381C02F04A
:102DF000EFF97621431F4A429F400021131A92E7C0
:102E00000194514602292CD0032900D180E00129E8
:102E100048D04E467F36002E51DD0F242C40042C26
:102E200000D004352A0103D53F494E460D40803677
:102E3000FE2E3DDD019B01241C40FF210025C8051D
:102E4000E2072843104303B03CBC90469946A24693
:102E5000AB46F0BD0024354DFF21F0E75146022975
:102E6000D2D1019D01242C40FF210025E7E75E46D9
:102E70003D1C0196C6E73D1CC4E78026F3031D42B6
:102E80000BD01F4209D11F437A02550A5C46FF212D
:102E9000D5E780225702E41960E71D436F027D0ADF
:102EA000FF21CCE7019B00251940CCB20021C6E7E9
:102EB0000198AD0101246D0AF1B20440BFE77E26FE
:102EC00073424A469F1A1B2F05DD019D01242C40A9
:102ED00000210025B3E749469E312C1C8D402E1C55
:102EE000FC40751EAE4126430F203040042800D020
:102EF0000436700105D5019F01243C4001210025C5
:102F00009DE7019AB30101245D0A1440002196E770
:102F10008022D00305436C020199650A01240C400C
:102F2000FF218CE700540010FFFFFFF7FFFF7F0039
:102F3000F8B5430245004F024C00C20F9809844681
:102F40002D0E200EC90FBF09FF2854D00126714055
:102F50008A423BD02C1A002C00DC89E0002825D1C5
:102F6000002F4BD16E1C2C1C6346151C0F221A40DF
:102F7000042A00D004338027F904012219402A4092
:102F8000002906D0FF2E00D181E0B14D341C2B402A
:102F90000136F6B2DD08012E62DD6B025D0AE4B295
:102FA000E4052543281CD2071043F8BDFF2D51D05E
:102FB0008021CB041F4301261B2C70DD67462C1C8F
:102FC000BB1B151C580122D4661CCFE72E1A002EFD
:102FD00076DD002832D0FF2D3CD08024E1040F4361
:102FE00001231B2E00DCD1E063442C1C58017AD451
:102FF000661C151CBAE7002FAAD1A7E7013C002CDC
:103000006DD163462C1CDB1B151C5801DCD59A01C5
:103010009609301C02F0DCF805388640844239DC21
:10302000001B1F231A1A331C311C441C9340E1401F
:103030005E1EB3410B430126002497E7002F00D109
:1030400090E7013E002E03D164463B192C1CCDE7CE
:10305000FF2DC5D1151C802263465600FF2485E74D
:10306000002D9CD0002C28D08020C7033D4394E73E
:10307000002C45D16B1CD8B2012800DC90E06446DE
:10308000E61B730157D53E1B2C1C0D1CC1E7FF240A
:10309000002585E76E4B241A3340661C66E7381C12
:1030A0002021E0400C1BA7403E1C771EBE4106437A
:1030B00067462C1CBB1B151C84E769024D0A6FE791
:1030C000002E79D16C1CE0B201284BDDFF2C00D121
:1030D00098E061467F18AE1C7B08151C46E7FF2D63
:1030E00000D068E7B6E7671CFF2F36D058480121AB
:1030F000194003405B08A61C0B433C1C151C35E71C
:103100006642002D1ED0FF286FD080256246EB045A
:103110001A43944601251B2E09DC62462023F24007
:1031200064469E1BB440251C6C1EA54115437B1BA9
:10313000041C0D1C69E7002E0CD10022012604237B
:10314000002426E76446002C55D1461C3B1C041C79
:103150000D1C0BE72C1C151C5BE780235E00FF2475
:10316000042316E7002D00D08DE06546002D00D128
:10317000ADE0002F00D181E07B195C0100D47EE03E
:10318000334F151C3B4002260124EFE6381C202358
:10319000F0409E1BB7403B1C5F1EBB41034323E72F
:1031A000002D15D16546002D47D1002FC5D03B1C01
:1031B0000D1C01260024D9E67642002D26D1654655
:1031C000002D00D07DE0461C3B1C041C151CCDE6E8
:1031D0006546002D40D1002F07D1802100224E00EE
:1031E0001C4BFF24D5E6FF2894D180203B1C0D1CEE
:1031F0004600FF24BAE6013E002EF4D13B1B0D1C15
:10320000041C02E780256E000423C2E6FF2852D08A
:1032100080246146E30419438C4601231B2E09DCFC
:1032200020216446F44065468E1BB5402B1C591E78
:103230008B412343DB19041CD8E6002F1ED0EB1B67
:1032400058014BD57B1B01260D1C00248EE6C04681
:10325000FFFFFFFBFCFFFF03002F00D1FAE68020F9
:10326000EB08C403234237D0FF08274234D13B1C6C
:103270000D1C8022DB005600FF2477E66346151CF8
:103280000126002472E66446002C14D0002F00D1E1
:10329000E0E68023E608D803311C064203D0F90893
:1032A000014200D0311C151C8022CB005600FF24A7
:1032B0005CE6FF28B1D180203B1C151C4600FF2492
:1032C00054E6013E002EF4D17B19041C8EE63B1C13
:1032D000151C0126002449E6151CCAE7002B00D165
:1032E0002BE7CCE743024200590A130EC20F00201D
:1032F0007E2B0DDD9D2B0CDC802000040143952BE3
:103300000ADC9620C31AD9404842002A00D1081C82
:10331000704703495018FBE7963B9940F4E7C046D5
:10332000FFFFFF7F10B5041E34D001F051FF9E2334
:103330001B1A962B07DC083884406402610ADBB252
:10334000D805084310BD992B0ADD021C1B32211C35
:1033500091400A1C511E8A410521091ACC40144390
:1033600005281ADC184A0F2122400C40042C00D0FA
:103370000432510105D59F24231AFF2B21D0124876
:103380000240591CCCB2D208012C09DD5002410A7E
:10339000DBB2D5E700230021D2E7421F9440E1E7EA
:1033A000002A0BD0002B06D08021CC0322435202EE
:1033B000510ADBB2C4E75002410AC1E7DBB2002187
:1033C000BEE7FF230021BBE7FFFFFFFBF8B55F4629
:1033D00056464D464446F0B40C03460F640A344347
:1033E000A3465E001C03DB0F9C46630A98464D0013
:1033F000530F44461C436D0DC90F760DD2000F1CB0
:10340000C000A1469246AB1B614500D1A4E0002B51
:1034100000DCF5E0002E0CD1261C164300D1C2E0E2
:10342000013B002B00D046E15C464B46821AE71A6E
:1034300021E0D24EB54200D1CDE080244A46270497
:103440003A439146382B00DD0FE11F2B00DD50E1A0
:103450002026F61A4C4652465746B440B740DA404A
:1034600022433E1C4C46771EBE41DC403243261CA4
:103470005B46821A9F1B904280414642BB1B141C34
:103480002E1C0F1C180200D4AEE05D02690A8846AB
:103490004246002A00D1D9E0404601F099FE051CC1
:1034A000083D1F2D00DDDAE02822131A201C4146BA
:1034B000D840A940031C0B43AC40AE4200DD90E075
:1034C000AE1B711C1F2900DD00E11F20851B1A1C8B
:1034D000201CAA40C840AC401043661EB4410443BF
:1034E000CB40012200260F202040042864D0201D5C
:1034F000A042A441654280215B1901240D041D40B6
:103500002740002D07D09D4EB24200D19AE09C4941
:10351000161C0B4001325C07C00852050443DB084F
:10352000550D012D62DD1B0376051B0B760D00206A
:103530000021090D201C0A05924C134376057508DD
:103540001C402C436300FF07590839433CBC90469C
:103550009946A246AB46F8BD002B00DC91E0002E58
:1035600031D0864EB54200D1A9E080244E462204D7
:103570001643B146382B00DD18E11F2B00DD73E147
:103580002026F61A4A46B240904652464446DA4051
:1035900022435446B440261C741EA6414C46324376
:1035A000DC401218F6E0041C0F206A1C5B462E1C3F
:1035B0000F1C204004289AD180252D0401211D4094
:1035C0000F40201C9DE7144300D0DDE06A1C5B46E1
:1035D000041C2E1C87E780215B46041C0A012E1C5C
:1035E00081E7761B664D2B40721C7CE7211C19433A
:1035F00000D167E2002E41D080200203134392E7FE
:10360000002B00D088E0691C4E05740D012C00DCF5
:103610001AE15B46161C4C46821A191B90429B41CC
:103620005B42C91A88460B0200D49EE0371ABA459D
:1036300092415E46A41B5342E11A88463C1C2E1C54
:10364000674625E7161C0023002470E7201C01F0C4
:10365000BFFD2030051C083D1F2D00DC24E7031CA6
:10366000283B9C40231C002427E74A4653461A4324
:103670000026002A00D1FBE60122F9E61D032B0BF0
:1036800055E7002B00D004E16E1C7405630D012B7F
:1036900000DCAAE039498E4200D130E111188142A4
:1036A00080414B4642425B449B18DC0749080C436F
:1036B0005B08AA1C17E7314FBD4200D0C2E6041CCC
:1036C00080205B460F1C02012E1C0CE7301C1F38AB
:1036D0001A1CC240151C202900D182E03F218E1BFC
:1036E000B3401C43631E9C412C430122002300264F
:1036F000F9E61C1C203C4F46E7403E1C202B72D0B4
:103700004022D41A4B46A3401A1C57463A43531E34
:103710009A4132430026ABE65F42002D50D0174D50
:10372000AE4200D155E180245A4621040A43934613
:10373000382F00DDDAE01F2F00DD78E12021CC1BDF
:10374000051C5A46A240FD40A04015435B46421E60
:1037500090412843FB4057463C1AA24592414846B7
:10376000C11A55424B1B67468CE6081C104330D1EA
:1037700000270122002304200026CCE6FF070000DA
:10378000FFFF7FFFFFFF0F80013B002B24D153463B
:103790001A184C46824280415C444342E3182E1C76
:1037A000141C18023ED4721C0F1C9CE64A46534659
:1037B0001A430024002A00D1F3E601221218E9E797
:1037C0005B46034300D083E0231C721C54466746CB
:1037D00089E6141C2E1C5BE6CD4EB54200D0C9E62E
:1037E0006DE700237DE700228FE75E460643002D4C
:1037F00000D0F4E0002E00D14CE14B46134300D141
:103800007EE115184E46854280415E444242B3181F
:103810001E0200D482E1BF4F2C1C3B4002220F1C31
:10382000012660E6BA4D701CA8424BD0B94F012565
:10383000254062083B402C1CDF0714433C43B21C6C
:103840005B08061C0F1C4EE65E460643002D2CD17D
:10385000002E00D07DE04E46141C164388D04B4607
:103860006746012200263EE61E1C203E4C46F440E0
:10387000261C202B00D1D8E04022D41A4B46A3406E
:103880001A1C54462243531E9A41324300241218F4
:1038900080E75B42002D37D15C46044300D0D7E07F
:1038A000721C4B4654460F1C1DE6002E6ED14B4633
:1038B000141C134300D1DCE080254B4667462A01E7
:1038C000934E10E68021061C0A010023042022E604
:1038D000013F002F79D1171A5B46BA45AD414946E1
:1038E000CA1A68423C1C131A6746CBE55F46074379
:1038F00000230020002F00D12DE701202BE7802599
:103900002A010023042006E6814DAE4200D1D3E017
:1039100080245D4622041543AB46382B00DDB0E021
:103920001F2B00DDDBE02025ED1A021C5C46AC40BD
:10393000DA40A840451EA841224302435846D840D9
:10394000031C55465419544592414B4450421B1890
:1039500027E74A465646324300D185E0851B5B4641
:103960004C46A8429241191B56428B1B1E0200D4A2
:10397000ADE057463D1A5B46AA458941E41A4A42E2
:10398000A31A67462C1C01220026ACE54D46161CE6
:10399000154344D05C468021C0086207E3080D034C
:1039A00010432B4200D181E04C46E10829427DD1F1
:1039B000F70866073E430B1C6746700FDB0080224A
:1039C000F40003431201524E8DE5514DAE4200D03A
:1039D000AEE680204B4654466746020183E5002E42
:1039E0005ED04C4614431AD0C7088025584643077A
:1039F0002C03C0081F43204208D04E46F308234240
:103A000004D15246D5087707181C2F43C300FC0089
:103A1000780F0F1C802103430A013D4E63E5802689
:103A200032015B46041C3A4E5DE5002229E7391C51
:103A300020395C46CC40221C202F67D04023DF1B5E
:103A40005D46BD402843431E98411043002382E653
:103A5000013B002B2CD150445C469042AD414C447C
:103A60006A42A318041C9CE65B46041C0122002643
:103A700039E58024042100272201274B4842244EA7
:103A800049E55D46054300230022002D00D158E79B
:103A9000012256E7141C4B460F1C0122002622E58A
:103AA000141C80224B461201194E1CE5061C84E7AB
:103AB000174A964200D030E70F1C80214B465446EF
:103AC0000A0110E57405660D002300242FE5181C7B
:103AD000284300D14CE62C1C0122002603E51C1CC7
:103AE000203C5D46E5402C1C202B1CD04022D31AE4
:103AF0005A469A400243501E82412243002320E747
:103B00005B46041C0F1C01220026ECE4002599E70B
:103B1000FF070000FFFF7FFFFFFF7F002C1C0F1C33
:103B200001220026DFE40022E4E7C046F0B54D465E
:103B300044465F465646F0B41D1C4B00141C0E0351
:103B40005B0DCA0F87B0071C360B98469146002BB9
:103B50001DD1321C024300D181E1002E00D104E2CC
:103B6000301C01F035FB272800DDF8E12821031C7B
:103B7000083B0A1A391C9E40D1400E439F40C14B5E
:103B80000021181A002280468A4600920FE0BE48A3
:103B9000834231D080214B031E43BC487A0FF6008C
:103BA000002100231643FF0080448A460093291C0D
:103BB000201C251C4A000C03CB0F240B520D9B46E6
:103BC00025D1211C014300D150E1002C00D1C2E1DC
:103BD000201C01F0FDFA272800DDB6E1031C282295
:103BE000083B291C121A9C40D1400C439D40A54B18
:103BF0001A1A0020029019E0321C3A4300D029E141
:103C000008270223BA46002600270093CFE79E48E4
:103C1000824200D113E180214B031C439B49680F72
:103C2000E40000230443ED005218029348465B462B
:103C3000434002985146019301430F2900D8DFE029
:103C400043469A1A0492A64200D86EE171087B0896
:103C5000F6073343FA07894698460292280E240253
:103C600004432D022704390CAB46250C009148462D
:103C7000291CFEF79DFB009F061C4743291C484654
:103C8000FEF7DAFB434608041A0C1043874207D9B3
:103C90000019013E844203D8874201D9013E001930
:103CA000C11B8A46081C291CFEF782FB009B071CCF
:103CB0004343291C50469946FEF7BEFB424610047A
:103CC0000B04010C0B43994504D91B19013F9C427D
:103CD00000D864E136043E435F464A46390C8946C3
:103CE0009B1A59463204170C0A0449467943120CB0
:103CF00003928C460399300C7A4341434F467843F4
:103D00008C44170C6744B94202D9802149024018FB
:103D1000390C120440183F04110C7F18834200D262
:103D200027E100D141E102991B1ACF1BB942804122
:103D300041425A1A9046A24200D15FE1101C291C50
:103D4000FEF736FB009B02904343291C40469A46EF
:103D5000FEF772FB380C090401438A450AD9029A1E
:103D60000919013A02928C4204D88A4502D9013AD3
:103D7000029209195346C81A291C0590FEF718FB30
:103D8000009A291C4243804605989246FEF754FB50
:103D90003F040D043A0C2A43924509D901214B42B4
:103DA00012199844944203D8924501D998441219A3
:103DB000029D43462F041F435046111A3804030C3A
:103DC0004D465D430398AC46039D3A0C584355431A
:103DD0004B465A43AC44030C63449D4202D98025B0
:103DE0006D0252191D0C000452191B04050C5B19BD
:103DF000914200D2E6E000D13DE1012217435AE0B2
:103E0000890023488C46604401688F46019B1E4A06
:103E10000026002700200021381C0F0D3C051D4DF9
:103E200034431205254015436E00DB077108194322
:103E300007B03CBC90469946A246AB46F0BD211C5B
:103E400003202943029000D0F0E60223002400253D
:103E50000293EBE60C20032182460091A7E604279B
:103E60000123BA46002600270093A0E60121002482
:103E700000250291DAE601270023074E7F42024A1D
:103E8000C8E7C0460DFCFFFFFF07000001FCFFFF75
:103E900040540010FFFF0F80FFFF0F002F1C5A46F9
:103EA000029D261C0192022DB0D0032D00D101E10C
:103EB000012D00D19CE0049B82481A18002A00DCE6
:103EC0008CE00F243C40042C05D03B1DBB42BF417D
:103ED0007D4276191F1CF10105D57B4A049980208B
:103EE000C40016400A19794B9A4200DD8EE7750727
:103EF000FF08760251052F43360B4A0D019B89E7D7
:103F000000220026002785E7802001030E4216D0FC
:103F10000C4214D10C432603360B5B462F1C6C4A13
:103F200078E74C460194009DBDE7A64243D0049833
:103F3000B846013800270490B14602978EE60E433A
:103F400033031E0B624A4B4664E7041C283CA54021
:103F50002C1C00254BE601F03BF920303BE6061C0B
:103F6000283EB7403E1C002709E601F031F9203019
:103F7000F9E5029A013E111C5944594592415242B9
:103F80001219D3189C4204D298426BD816D01B1A2F
:103F9000CBE6A342FBD18B45F6D9231AC5E699455A
:103FA00000D897E6013F1B1994E6029ABA42E0D383
:103FB00002990023B9E6AF42B9D947E68F4251D8FA
:103FC0000023B2E60919013F58468C4219D99142A3
:103FD00000D012E7984200D00FE76CE73D4C049DFB
:103FE000631B382B1CDD019B00220026002711E7F4
:103FF000019B00222B40002600270BE701277F4270
:1040000059E78A4203D800D0F7E69842E2D25D46EB
:1040100068005845AD416D422C19013F0919D6E79A
:104020001F2B34DC049C2C4A381CA518311CAF40D3
:10403000D840A9403C1C0143671EBC410F1C2743CC
:10404000DE400F233B40042B05D03A1DBA42BF414E
:104050007D427619171C320211D5019B01220026E0
:104060000027D7E659445945924152421219D318B4
:10407000013E1B1A59E6002BA4D10020AAE77007C5
:10408000FF08710207430E0B019B0022C2E6134991
:10409000049C301C0A1BD040051C202B08D0104B60
:1040A000E1188E4037437B1E9F412F430026C8E70F
:1040B0000026F7E780221003064331030E0B019B15
:1040C000034AA7E6FF030000FFFFFFFEFE07000014
:1040D000FF07000002FCFFFF1E040000E2FBFFFFE1
:1040E0003E040000F0B5944647461A03061C5800EB
:1040F00080B4170B420D19480D034C00DB0F2D0B3C
:10410000640DC90F9846844208D0144882420DD0ED
:104110000120944212D004BC9046F0BD2B1C3343C6
:104120000120002BF7D10D488242F1D163463B4379
:104130000120002BEFD101209442ECD1BD42EAD105
:104140006645E8D1414506D0002CE4D1281C304317
:10415000451EA841DFE70020DDE7C046FF0700005D
:10416000F0B557464E464546E0B4041C4E000803E1
:10417000C90F8A46171C59001A03050B700D160B40
:104180004A0D3049DB0F9C46884232D02D498A4285
:1041900035D000280FD1291C21434B424B41984672
:1041A000002A0BD0002B1AD1E2452CD05546002D09
:1041B00018D1012018E0002AF6D19046311C39436D
:1041C0004B424B414146002906D1002BECD05646CC
:1041D0000120002E08D005E00020002B04D1674606
:1041E000002FE6D1012358421CBC90469946A246B6
:1041F000F0BD2B1C2343C9D002214842F4E7331CF5
:104200003B43C6D0F8E7904205DC09DA5246002A63
:10421000E8D00120E8E75446002CE3D10120E3E791
:10422000B542C3D807D00020B542DDD250460028A1
:10423000D8D00120D8E7BC42B8D80020BC42F5D382
:10424000D2E7C046FF070000F0B544465F46564639
:104250004D46F0B49446061C1A035800170B420D45
:104260002E480D034C00DB0F2D0B640DC90F984633
:10427000844233D02948824236D0002C19D0002AFB
:1042800020D1934663463B43584258415B468246A1
:10429000002B1DD051460020002904D14246002A9F
:1042A00014D1012460423CBC90469946A246AB46DC
:1042B000F0BD2B1C3343584243419B46002AE1D0BA
:1042C000002BEBD1414515D00029EAD10120EAE7C6
:1042D0000028F7D001200029E5D0E2E72B1C33436A
:1042E0000220002BDFD1C5E763463B430220002BB1
:1042F000D9D1C2E79442E7DC05DBBD42E4D806D061
:104300000020BD42CFD20029CBD00120CBE76645AB
:10431000DAD800206645F6D3C5E7C046FF0700009F
:10432000F0B5564644465F464D46F0B44F001D1C5E
:104330000B03141C1A0B7B0D87B0061C9246984683
:10434000CF0F002B21D1024300D149E15346002B6E
:1043500000D1E4E1504600F03BFF031E272B00DDB7
:10436000D8E1083B5146994028228846111A321C50
:10437000CA4041460A4392469E40D84B0022181A32
:10438000002180469146039111E0D54883423ED0FA
:10439000802153464A031A43D000710F0843D14A83
:1043A000824600230020F600904499460390291C81
:1043B000201C251C4A000C03CB0F240B520D9B46DE
:1043C00031D1211C014300D112E1002C00D19DE12B
:1043D000201C00F0FDFE272800DD91E1031C2822AF
:1043E000083B291C121A9C40D1400C439D40BB4BFA
:1043F00059461A1A794000204B46019103430F2B6E
:1044000026D89900B84B8C46634419688F46111C16
:10441000314300D0DFE0082600200221B146824669
:1044200000260391C3E7AE48824200D1C9E0802153
:104430004B031C43AB49680FE4000443ED005218E2
:104440000020594679404B46019103430F2BD8D9A0
:1044500042443304290404921A0C0F0C101C7843B4
:10446000360C331C80462D0C7B43301C6843111CDA
:1044700069439C4643468346180C081860448445AB
:1044800000D91FE1010C4346039119040B0C0004F1
:10449000C0182104240C0590101C6243090C0292E0
:1044A0004843321C66434A43029BB146060C904681
:1044B000B4461A1C62444244904502D980267302D5
:1044C0009944160CB046C14400044B46060C120435
:1044D0000293931956463204100C021C6A439C4600
:1044E000031C7B439146320C574398461B0C9A465B
:1044F000D144B94455434F4502D980277E02AD19B6
:104500004B461F0C4646ED191F0433041E0C031CBA
:104510004B436043514354431A0C8018B046401833
:1045200047449A46814202D980214E02A419039B36
:104530001A1C62445A44624589414E425146B34670
:1045400003040E049C460299330C6344CE18B04613
:10455000C246DA44D219BA42BF4151467B426F1873
:10456000F9189946DA459B415E42029BB34698454D
:10457000B64176425B461E43000C49459B41AF4223
:10458000AD4136186F4258423843361805983419F1
:1045900056020643CB0D6402701E8641D20D1643AF
:1045A00049021C430E43E0012FD50127049D3740EB
:1045B00073083E1CE00701351E430495064364085A
:1045C00023E0231C2B430320002B00D039E70024D9
:1045D0000025022035E70C22032391460393E6E6EB
:1045E000042600230120B1469A4600260390DEE609
:1045F00000240025012024E703985446022844D0D3
:10460000032800D1EAE0012860D0049A3749501805
:10461000002800DC95E00F273740042F05D0311D1E
:10462000B142B641754264190E1CE10105D530480E
:10463000049A8023DF000440D0192E49884224DCEC
:10464000019B6507F6086402420501272E43240BEF
:10465000520D1F4000200021090D0D052543264C59
:1046600012052C4014436300301C5E08FF07311C08
:10467000394307B03CBC90469946A246AB46F0BDD4
:104680005A462E1C01920228BAD1019E01273740BA
:10469000134A00240026DDE7544601970398ADE74E
:1046A00001260027154C76420D4AD3E72E1CA5E7BC
:1046B000802213035146194235D10B431D032C0BA5
:1046C000074AC7E780214B029B44DBE6019B00229F
:1046D0001840C7B200240026BCE7C0460DFCFFFF0F
:1046E000FF07000001FCFFFF80540010FF030000E3
:1046F000FFFFFFFEFE070000FFFF0F80FFFF0F0020
:10470000041C283CA5402C1C002570E600F060FD30
:10471000203060E6283B9E40B24600262DE600F0A1
:1047200057FD203019E61C4206D11C432603340BEA
:104730005F462E1C2E4A8DE70B431803040B2C4AB0
:1047400088E72C4F049D7B1B382B06DD019E01273B
:1047500037400022002400267CE71F2B21DC049A2E
:10476000254F351CD119201C8E40DD408840321C5D
:104770002843561EB241061C1643DC400F2333402B
:10478000042B05D0371DB742B641714264183E1C58
:10479000250217D5019B01271F4001220024002676
:1047A00058E71648049A211C871AF9400D1C202B43
:1047B00012D0134BD01884402643721E96412E43CC
:1047C0000024DBE7019A6507F6086002012717401D
:1047D0002E43040B00223DE70024EDE780210F0368
:1047E0003C43019824030127240B0740004A31E78A
:1047F000FF07000002FCFFFF1E040000E2FBFFFFBA
:104800003E040000F0B557464E464546E0B4071C4E
:104810000D034E00680ACC0F790F08438446111C23
:1048200018035A00FD00400ADF0F4B0F1843CA4B14
:10483000C900760D520D8A469A4200D1E0E001236C
:104840005F40B946BC4200D1A8E0B71A002F00DC97
:1048500010E1002A12D15246024300D1D4E0013FB8
:10486000002F00D060E151466F1ABD42AD41624653
:104870006B42101A3D1CC31A371C24E0B64A9642FC
:1048800000D1E3E080210B041843382F00DD23E141
:104890001F2F00DD66E12021C91B021C53468A4000
:1048A000FB401A4353468B40191C4B1E9941031C75
:1048B0000A43FB40AA1A67469542AD41F81A6B427B
:1048C000C31A151C371C1A0200D4C7E05E02710A15
:1048D00088464246002A00D1F0E0404600F078FCCD
:1048E000021C083A1F2A00DDF1E02823181A2E1CAA
:1048F0004146C6409140331C0B439540974200DD32
:10490000A9E0D01B411C1F2900DD12E11F273A1A24
:104910002E1C181CCE409040954030436A1E954195
:10492000CB400543012100270F262E40042E00D145
:1049300072E02E1DAE42AD41684280221B18012557
:10494000100418402C40002807D0834FB94200D1F2
:10495000B0E0824A0F1C13400131F20849055E079E
:104960003243DB08480D012800DC79E01B037805A1
:104970001E0B470D00200021090D7D050B05784F0A
:104980001E43101C37406A0817437E007108E40775
:1049900021431CBC90469946A246F0BDB31A002B99
:1049A00000DCA6E0002A3ED06B4A96424ED0802121
:1049B0000F043843382B00DC18E153461843002716
:1049C0000022002800D001225219AA42AD416744BA
:1049D0006B42FB18151C371C1E023FD55E487E1C1F
:1049E000864200D17BE15D4901222A400B406808E4
:1049F000151CD90705430D435B08B91C371C93E709
:104A0000014300D11BE71CE7711C371C0F266346CE
:104A10002E40042E00D08CE7802201261004344062
:104A200018402E1C8FE752460243EDD0013B002B6D
:104A300009D157467919A942924155426044431918
:104A4000371C0D1CC8E744498E42B3D18020634611
:104A50000101371C68E7BF1A404A1340791C63E71D
:104A6000151C1D4300D121E2002F3ED080263103CA
:104A70000B437BE7002F00D086E0721C51054B0DE5
:104A8000012B00DCF0E05746EA1B95429B4167464C
:104A9000391A5B42C91A88460B0200D49DE054467D
:104AA000651BAA459241C01B5742C31B9846371C41
:104AB0004C460EE70F1C002600225BE7281C00F086
:104AC00087FB2030021C083A1F2A00DC0DE728383B
:104AD00085402B1C002511E7574638430023002250
:104AE000002800D1E6E60122E4E61D032E0B002794
:104AF00040E7002B00D0D9E0771C79054A0D012A48
:104B000000DC95E0144B9F4200D1FEE0514649196C
:104B1000A942AD4162466B428018C2184908D507C8
:104B20000D435308B11CFFE60B498E4200D0ACE6A2
:104B30008CE7061C1F3E1F1CF7403E1C202973D02B
:104B40003F22101A83401D436B1E9D4135430121B6
:104B500000230027E8E6C046FF070000FFFF7FFFB5
:104B6000FFFF0F803B1C203B011CD9400B1C202F5A
:104B70005CD04022D71BB840021C50460243511E55
:104B80008A411A43002395E67F42002E40D0CA4C4A
:104B9000A24200D11FE1802166460B041E43B446A9
:104BA000382F00DDA9E01F2F00DD3DE12023DE1BB3
:104BB000291C6446B440F940B5406B1E9D41214319
:104BC00063460D43FB4057467D1BC01AAA459B41D7
:104BD0005F42C31B4C46171C75E60D1C154320D1C4
:104BE00000240121002304260027B6E61F2B4ADCFF
:104BF0002021C91A071C52468F40DA403A435746D3
:104C00008F40391C4F1EB941D8400A43071CDBE6D0
:104C100064462C4369D1511C031C5546171C4C4655
:104C200082E6151C371C54E600238CE70022A4E71B
:104C300067462F43002E00D0D4E0002F00D126E19C
:104C40005346034300D1E4E051464F19AF42AD4112
:104C500060446E4283191E0200D44EE197483D1C09
:104C60000340022101275FE661462943002E29D136
:104C7000002976D151460143B2D0031C55464C461B
:104C80000121002750E61F1C203F011CF9400F1C8A
:104C9000202B00D1C6E04022D31A9840021C504677
:104CA0000243531E9A413A4300278DE65B42002E91
:104CB00030D167462F4300D0C8E0511C031C554635
:104CC000171C31E6002965D15746074300D1C8E0DB
:104CD000031C802055464C460101774F24E6802373
:104CE000371C19010426002337E6013F002F6ED13F
:104CF00054466146651B401A68E767463D430023FA
:104D0000002D00D15FE701255DE7802631010023FA
:104D1000042622E668498A4200D1C1E0802766461F
:104D200039040E43B446382B00DDA2E01F2B00DD12
:104D3000D0E02021C91A2E1C67468F408D40DE40EE
:104D40003E43291C67464D1EA941DF40351C0D43DB
:104D50003E1C554455459B4130185E428319171C33
:104D60003AE65646064354D05746EA1B63469542F8
:104D7000B641191A7342CB1A1E0200D4A2E07D1B61
:104D80006446AA45BF41001B7A42831A4C46012162
:104D90000027C9E5564606433FD0624680215707A3
:104DA000ED08D3080A033D43134208D0C608164253
:104DB00005D15546EC0845072543331C4C46680F82
:104DC000DB0080260343ED0031013B4FACE53A495F
:104DD0008A4200D0E4E68026031C55464C46310149
:104DE000171CA1E5002F4CD05346034315D0624653
:104DF0008026ED085107D30837030D433B42DED030
:104E0000C2083A42DBD15546E9084507131C0D4359
:104E1000D5E763460121002786E5802739016346EF
:104E2000254F81E500223AE73C1C203C6646E640DF
:104E3000331C202F5FD04024E71B6646BE40311C48
:104E40000D43691E8D411D430023BCE6013B002B31
:104E500022D155445545BF417B426044C318171CBD
:104E6000BAE58021042200240901154B5642124F55
:104E700073E563461D430026002D00D169E7012537
:104E800067E78022031C554611010B4F4CE5031CBC
:104E900055460121002747E507498A4200D042E7ED
:104EA0008021031C55460901171C3DE57F057F0D38
:104EB000002600225EE5C046FF070000FFFF7FFFDF
:104EC000FFFF7F001D1C154300D189E6151C012141
:104ED000002729E51F1C203F6146F940202B10D0F8
:104EE0004026F31A67469F403B1C1D436B1E9D41A5
:104EF0000D4300262DE70021A2E73D1C01210027DC
:104F000012E50023F1E7C046134A0B0330B5051C38
:104F100048001C0BC90F430D0020934211DD0F48C0
:104F200083420FDC802250030D4A0443D01A1F280D
:104F30000BDD0C4DEB1ADC40221C5042002900D145
:104F4000101C30BD084C0819FBE7C54007482A1C57
:104F50001D18AC402243F0E7FE0300001D040000D2
:104F60003304000013040000FFFFFF7FEDFBFFFF91
:104F7000F8B5041E2DD0C50F00D04442201C00F00F
:104F800027F916490A1A0A2816DD0B3884405705F6
:104F900026037A0D360B002700200021381C0F0D48
:104FA0003B050F4C33431C401605344361004A084F
:104FB000ED07111C2943F8BD0B26011C301A1531D1
:104FC000231CC4408B40520521031F1C0E0B520DA5
:104FD000E2E70025002200260027DDE71E0400008E
:104FE000FFFF0F80410070B50E0E731C4202C50F0B
:104FF000D8B2540A012815DD6307E024A000120B83
:10500000341800200021181C0B0D1E051C4B3243C8
:1050100061054C08134023435A005608ED07311C24
:10502000294370BD002E16D1002C1ED0201C00F08C
:10503000CFF80A281DDC0B22111A021C231C153282
:10504000CB4094401E1C231C34030E4E220B301AFE
:1050500041054C0DD5E7002C03D06307120B0A4C19
:10506000CFE7094C00220023CBE7002400220023D5
:10507000C7E7011C0B398C40261C0023E4E7C0461F
:10508000FFFF0F8089030000FF070000F0B5041C3C
:105090004800400D0A03CD0F411C630F520A4F0513
:1050A0001A43E6007B0D012B3BDD42494318FE2BE2
:1050B0002CDC002B4EDDA401770FD200611E8C4149
:1050C0003D4E224380193A430F261640042E47D105
:1050D0008027FC0414401DD0FF2838D0374B1A40DD
:1050E000031C0130C6B2D208012E17DC002A06D0FC
:1050F000002B29D08027FC03224351024A0ADBB24D
:10510000DB051A43ED07101C2843F0BD8021480041
:105110000422FF23C6B2D208012EE7DD51024A0A5B
:10512000EDE7002806D132430120002A15D10422E0
:105130000023EFE71643E9D08024A004D2008026A4
:105140000243FF237000BFE75002420AD8E7FF2363
:105150000022D5E7173305DA012005220023D9E71D
:105160000432B5E78023164F19040A433C1A1F2C5A
:105170000DDC1449331C4718BE40301C461EB0419C
:10518000BA40E34002431A43012000239CE70E4B40
:10519000171C191ACF403B1C202C09D00B4C0019AE
:1051A00082403243561EB2411A43012000238BE74E
:1051B0000022F6E780FCFFFF81FCFFFFFFFFFFFB03
:1051C0009E03000082FCFFFF7E030000A2FCFFFFA5
:1051D0001C2101231B04984201D3000C10391B0A27
:1051E000984201D3000A08391B09984201D30009EB
:1051F000043902A2105C40187047C0460403020242
:10520000010101010000000000000000014B1868CE
:105210007047C046881D0020F0B5830700D181E0AB
:10522000541E002A7DD0CDB2031C0326E70711D5FA
:10523000431C0570334211D01D700133941E33425C
:105240000CD0621E002C6CD01D700133141C334234
:1052500004D0013C1D7001333342F2D1032C49D9F3
:10526000FF220A4017023A4315042A430F2C5CD947
:10527000261C103E370901373D015E19103DEF062F
:105280001A605A609A60DA601033FD0F9E4213D0A4
:10529000002D06D01A605A609A60DA6010339E4280
:1052A0000AD01A605A609A60DA601A615A619A618B
:1052B000DA6120339E42F4D10F231C40351C331C8D
:1052C000032C17D9261FB7080137BE00AB19043EBF
:1052D000770704C5FE0F9D420AD0002E02D004C5F8
:1052E0009D4205D02F1C04C76A603D1D9D42F9D127
:1052F00003221440002C14D01C19DD43C9B26619D6
:105300000127197001333E40A3420AD0002E03D07A
:1053100019700133A34204D0197059700233A342AB
:10532000FAD1F0BD031C141C98E71D1CCAE7C04647
:10533000E8BCFF7F01000000FCBCFF7F0100000013
:10534000B9E1EEBA1222D0BA00000000F755723B64
:10535000CF4E043C58C20B3C000000809E858EBCA2
:1053600088DC0BBD9CA308BD000000000A828A3DBA
:10537000F0DB1B3E5F46643E0641803E5F46643E76
:10538000F0DB1B3E0A828A3D000000009CA308BDA2
:1053900088DC0BBD9E858EBC0000008058C20B3C93
:1053A000CF4E043CF755723B000000001222D0BAE9
:1053B000B9E1EEBA6C6F6731300000000000000008
:1053C00058290010022A0010AA2A00106A2A001088
:1053D000AA2A0010622A0010AA2A00106A2A0010C5
:1053E000022A0010022A0010622A00106A2A001005
:1053F000C82A0010C82A0010C82A0010B02A0010BD
:10540000342D0010762E0010762E00106E2E001017
:105410005C2E00105C2E0010542E00106E2E00101A
:105420005C2E0010542E00105C2E00106E2E00100A
:10543000002E0010002E0010002E00107A2E0010FA
:10544000403C00100C3E0010003F00109C3E00103D
:10545000003F0010763E0010003F00109C3E001000
:105460000C3E00100C3E0010763E00109C3E0010DA
:10547000223F0010223F0010223F0010083F001082
:1054800050440010AC460010AC460010804600109E
:10549000F8450010F8450010A046001080460010A6
:1054A000F8450010A0460010F84500108046001096
:1054B000984600109846001098460010B04600101C
:0854C000430000006019002008
:1054D0002C4887460000000000000000000000008B
:1054E00000000000000000000000000000000000BC
:1054F000254887460000000000000000234887463A
:1055000023488746234887462348874623488746BB
:1055100023488746234887462348874623488746AB
:1055200023488746000000002248874622488746D5
:10553000224887462248874622488746224887468F
:10554000224887462248874622488746224887467F
:10555000224887462248874622488746224887466F
:10556000224887462248874622488746224887465F
:1055700022488746224887460000000000000000BD
:10558000204887469F110010A1110010A3110010A0
:10559000A5110010A7110010A9110010AB110010E7
:1055A000AD110010AF110010B1110010B3110010B7
:1055B000B5110010D3110010D5110010D711001033
:1055C000D9110010DB110010DD110010B71100100F
:1055D000B9110010BB110010BD110010BF11001057
:1055E000C1110010C3110010C5110010C711001027
:1055F000C9110010CB110010CD110010CF110010F7
:08560000D1110010DF110010B0
:1056080000000000D9AB173F1504C2BD15EF433E9B
:105618000000803F09B8D53EF304B53E72ADA03F07
:10562800D7B35D3F5E83EC3EB2E4A83F8D65973FFC
:105638000000003F8D65973FB2E4A83F5E83EC3ED3
:10564800D7B35D3F72ADA03FF304B53E09B8D53E70
:105658000000803F15EF433E1504C2BDD9AB173F8C
:1056680000000080D9AB17BF1504C23D15EF43BE3B
:10567800000080BF09B8D5BEF304B5BE72ADA0BFA7
:10568800D7B35DBF5E83ECBEB2E4A8BF8D6597BF9C
:10569800000000BF8D6597BFB2E4A8BF5E83ECBE73
:1056A800D7B35DBF72ADA0BFF304B5BE09B8D5BE10
:1056B800000080BF15EF43BE1504C23DD9AB17BF2C
:1056C80000000000D9AB173F1504C2BD15EF433EDB
:1056D8000000803F09B8D53EF304B53E72ADA03F47
:1056E800D7B35D3F5E83EC3EB2E4A83F8D65973F3C
:1056F8000000003F8D65973FB2E4A83F5E83EC3E13
:10570800D7B35D3F72ADA03FF304B53E09B8D53EAF
:105718000000803F15EF433E1504C2BDD9AB173FCB
:1057280000000000D9AB17BF1504C23D15EF43BEFA
:10573800000080BF09B8D5BEF304B5BE72ADA0BFE6
:10574800D7B35DBF5E83ECBEB2E4A8BF8D6597BFDB
:10575800000000BF8D6597BFB2E4A8BF5E83ECBEB2
:10576800D7B35DBF72ADA0BFF304B5BE09B8D5BE4F
:10577800000080BF15EF43BE1504C23DD9AB17BF6B
:1057880000000000D9AB173F1504C2BD15EF433E1A
:105798000000803F09B8D53EF304B53E72ADA03F86
:1057A800D7B35D3F5E83EC3EB2E4A83F8D65973F7B
:1057B8000000003F8D65973FB2E4A83F5E83EC3E52
:1057C800D7B35D3F72ADA03FF304B53E09B8D53EEF
:1057D8000000803F15EF433E1504C2BDD9AB173F0B
:1057E80000000000D9AB17BF1504C23D15EF43BE3A
:1057F800000080BF09B8D5BEF304B5BE72ADA0BF26
:10580800D7B35DBF5E83ECBEB2E4A8BF8D6597BF1A
:10581800000000BF8D6597BFB2E4A8BF5E83ECBEF1
:10582800D7B35DBF72ADA0BFF304B5BE09B8D5BE8E
:10583800000080BF15EF43BE1504C23DD9AB17BFAA
:1058480000000080D9AB173F1504C2BD15EF433ED9
:105858000000803F09B8D53EF304B53E72ADA03FC5
:10586800D7B35D3F5E83EC3EB2E4A83F8D65973FBA
:105878000000003F8D65973FB2E4A83F5E83EC3E91
:10588800D7B35D3F72ADA03FF304B53E09B8D53E2E
:105898000000803F15EF433E1504C2BDD9AB173F4A
:1058A80000000080D9AB17BF1504C23D15EF43BEF9
:1058B800000080BF09B8D5BEF304B5BE72ADA0BF65
:1058C800D7B35DBF5E83ECBEB2E4A8BF8D6597BF5A
:1058D800000000BF8D6597BFB2E4A8BF5E83ECBE31
:1058E800D7B35DBF72ADA0BFF304B5BE09B8D5BECE
:1058F800000080BF15EF43BE1504C23DD9AB17BFEA
:1059080000000000D9AB173F1504C2BD15EF433E98
:105918000000803F09B8D53EF304B53E72ADA03F04
:10592800D7B35D3F5E83EC3EB2E4A83F8D65973FF9
:105938000000003F8D65973FB2E4A83F5E83EC3ED0
:10594800D7B35D3F72ADA03FF304B53E09B8D53E6D
:105958000000803F15EF433E1504C2BDD9AB173F89
:1059680000000000D9AB17BF1504C23D15EF43BEB8
:10597800000080BF09B8D5BEF304B5BE72ADA0BFA4
:10598800D7B35DBF5E83ECBEB2E4A8BF8D6597BF99
:10599800000000BF8D6597BFB2E4A8BF5E83ECBE70
:1059A800D7B35DBF72ADA0BFF304B5BE09B8D5BE0D
:1059B800000080BF15EF43BE1504C23DD9AB17BF29
:1059C80000000080D9AB173F1504C2BD15EF433E58
:1059D8000000803F09B8D53EF304B53E72ADA03F44
:1059E800D7B35D3F5E83EC3EB2E4A83F8D65973F39
:1059F8000000003F8D65973FB2E4A83F5E83EC3E10
:105A0800D7B35D3F72ADA03FF304B53E09B8D53EAC
:105A18000000803F15EF433E1504C2BDD9AB173FC8
:105A280000000000D9AB17BF1504C23D15EF43BEF7
:105A3800000080BF09B8D5BEF304B5BE72ADA0BFE3
:105A4800D7B35DBF5E83ECBEB2E4A8BF8D6597BFD8
:105A5800000000BF8D6597BFB2E4A8BF5E83ECBEAF
:105A6800D7B35DBF72ADA0BFF304B5BE09B8D5BE4C
:105A7800000080BF15EF43BE1504C23DD9AB17BF68
:105A880000000080D9AB173F1504C2BD15EF433E97
:105A98000000803F09B8D53EF304B53E72ADA03F83
:105AA800D7B35D3F5E83EC3EB2E4A83F8D65973F78
:105AB8000000003F8D65973FB2E4A83F5E83EC3E4F
:105AC800D7B35D3F72ADA03FF304B53E09B8D53EEC
:105AD8000000803F15EF433E1504C2BDD9AB173F08
:105AE80000000000D9AB17BF1504C23D15EF43BE37
:105AF800000080BF09B8D5BEF304B5BE72ADA0BF23
:105B08000000000080878DBAE95C49BAEDEC4FB916
:105B18004A1F8738A9AB083B4AC6713BB6D3CF3A70
:105B2800E03B2CBBF5BBF8BB059C43BC57FE0DBC4A
:105B38006CC9113C5159303D3A92C73DB037323E9D
:105B4800DD49893E1EE2BF3E478AFA3EE6371A3FE4
:105B58002AB4343F5FFD4B3F89205F3F86836D3F0A
:105B680027DD773FE2537E3F7E27803F1D1A7E3F29
:105B7800EED8773FDAFA6C3FC32E5E3F75954B3F00
:105B88006660353F5E291C3F9453003F1152C43E66
:105B980092BB843E5C21063E000000805C2106BE6C
:105BA80092BB84BE1152C4BE945300BF5E291CBF71
:105BB800666035BF75954BBFC32E5EBFDAFA6CBF02
:105BC800EED877BFE0607EBFAA4080BFE0607EBFAE
:105BD800EED877BFDAFA6CBFC32E5EBF75954BBFA0
:105BE800666035BF5E291CBF945300BF1152C4BE06
:105BF80092BB84BE5C2106BE000000005C21063E0C
:105C080092BB843E1152C43E9453003F5E291C3F10
:105C18006660353F75954B3FC32E5E3FDAFA6C3FA1
:105C2800EED8773FE0607E3FAA40803FE0607E3F4D
:105C3800EED8773FDAFA6C3FC32E5E3F75954B3F3F
:105C48006660353F5E291C3F9453003F1152C43EA5
:105C580092BB843E5C21063E000000805C2106BEAB
:105C680092BB84BE1152C4BE945300BF5E291CBFB0
:105C7800666035BF75954BBFC32E5EBFDAFA6CBF41
:105C8800EED877BFE0607EBFAA4080BFE0607EBFED
:105C9800EED877BFDAFA6CBFC32E5EBF75954BBFDF
:105CA800666035BF5E291CBF945300BF1152C4BE45
:105CB80092BB84BE5C2106BE000000005C21063E4B
:105CC80092BB843E1152C43E9453003F5E291C3F50
:105CD8006660353F75954B3FC32E5E3FDAFA6C3FE1
:105CE800EED8773FE0607E3FAA40803FE0607E3F8D
:105CF800EED8773FDAFA6C3FC32E5E3F75954B3F7F
:105D08006660353F5E291C3F9453003F1152C43EE4
:105D180092BB843E5C21063E000000805C2106BEEA
:105D280092BB84BE1152C4BE945300BF5E291CBFEF
:105D3800666035BF75954BBFC32E5EBFDAFA6CBF80
:105D4800EED877BFE0607EBFAA4080BFE0607EBF2C
:105D5800EED877BFDAFA6CBFC32E5EBF75954BBF1E
:105D6800666035BF5E291CBF945300BF1152C4BE84
:105D780092BB84BE5C2106BE000000005C21063E8A
:105D880092BB843E1152C43E9453003F5E291C3F8F
:105D98006660353F75954B3FC32E5E3FDAFA6C3F20
:105DA800EED8773FE0607E3FAA40803FE0607E3FCC
:105DB800EED8773FDAFA6C3FC32E5E3F75954B3FBE
:105DC8006660353F5E291C3F9453003F1152C43E24
:105DD80092BB843E5C21063E000000005C2106BEAA
:105DE80092BB84BE1152C4BE945300BF5E291CBF2F
:105DF800666035BF75954BBFC32E5EBFDAFA6CBFC0
:105E0800EED877BFE0607EBFAA4080BFE0607EBF6B
:105E1800EED877BFDAFA6CBFC32E5EBF75954BBF5D
:105E2800666035BF5E291CBF945300BF1152C4BEC3
:105E380092BB84BE5C2106BE000000005C21063EC9
:105E480092BB843E1152C43E9453003F5E291C3FCE
:105E58006660353F75954B3FC32E5E3FDAFA6C3F5F
:105E6800EED8773FE0607E3FAA40803FE0607E3F0B
:105E7800EED8773FDAFA6C3FC32E5E3F75954B3FFD
:105E88006660353F5E291C3F9453003F1152C43E63
:105E980092BB843E5C21063E000000005C2106BEE9
:105EA80092BB84BE1152C4BE945300BF5E291CBF6E
:105EB800666035BF75954BBFC32E5EBFDAFA6CBFFF
:105EC800EED877BFE0607EBFAA4080BFE0607EBFAB
:105ED800EED877BFDAFA6CBFC32E5EBF75954BBF9D
:105EE800666035BF5E291CBF945300BF1152C4BE03
:105EF80092BB84BE5C2106BE000000805C21063E89
:105F080092BB843E1152C43E9453003F5E291C3F0D
:105F18006660353F75954B3FC32E5E3FDAFA6C3F9E
:105F2800EED8773FE0607E3FAA40803FE0607E3F4A
:105F3800EED8773FDAFA6C3FC32E5E3F75954B3F3C
:105F48006660353F5E291C3F9453003F1152C43EA2
:105F580092BB843E5C21063E000000005C2106BE28
:105F680092BB84BE1152C4BE945300BF5E291CBFAD
:105F7800666035BF75954BBFC32E5EBFDAFA6CBF3E
:105F8800EED877BFE0607EBFAA4080BFE0607EBFEA
:105F9800EED877BFDAFA6CBFC32E5EBF75954BBFDC
:105FA800666035BF5E291CBF945300BF1152C4BE42
:105FB80092BB84BE5C2106BE000000005C21063E48
:105FC80092BB843E1152C43E9453003F5E291C3F4D
:105FD8006660353F75954B3FC32E5E3FDAFA6C3FDE
:105FE800EED8773FE0607E3FAA40803FE0607E3F8A
:105FF800EED8773FDAFA6C3FC32E5E3F75954B3F7C
:10600800200000000A00000001000000000000005D
:10601800000000004C1C0020B41C00201C1D0020A7
:106028000000000000000000000000000000000068
:106038000000000000000000000000000000000058
:1060480000000000C0540010000000000000000024
:106058000000000000000000000000000000000038
:106068000000000000000000000000000000000028
:106078000000000000000000000000000000000018
:106088000000000000000000000000000000000008
:1060980000000000000000000000000000000000F8
:1060A80000000000000000000000000000000000E8
:1060B80000000000000000000100000000000000D7
:1060C8000E33CDAB34126DE6ECDE05000B0000009C
:1060D80000000000000000000000000000000000B8
:1060E80000000000000000000000000000000000A8
:1060F8000000000000000000000000000000000098
:106108000000000000000000000000000000000087
:0C643800000000000000000060190020BF
:0400000510001019BE
:00000001FF
