:020000040C00EE
:1000000000080020010200087F0400088F04000897
:100010009F040008AF040008BF04000800000000AF
:10002000000000000000000000000000CF040008F5
:10003000DF04000800000000EF040008FF040008CF
:100040000F0500081F0500082F0500083F050008E0
:100050004F0500085F0500086F0500087F050008D0
:100060008F050008000000000000000000000000F4
:100070009F05000800000000AF050008BF0500084C
:10008000CF050008DF050008EF050008FF050008A0
:100090000F0600081F0600082F0600083F0600088C
:1000A0004F0600085F0600086F0600087F0600087C
:1000B0008F0600089F060008AF060008BF0600086C
:1000C000CF060008DF060008EF060008FF0600085C
:1000D0000F0700081F0700082F0700083F07000848
:1000E0004F0700085F0700086F0700087F07000838
:1000F0008F0700089F070008AF070008BF07000828
:10010000CF070008DD070008EB070008F907000823
:10011000070800081508000823080008310800082F
:100120003F0800084D0800085B080008690800083F
:10013000770800088508000893080008A10800084F
:10014000AF080008BD080008CB080008D90800085F
:10015000E7080008F508000803090008110900086D
:10016000000000000000000000000000000000008F
:100170001F0900082D0900083B090008490900086B
:10018000570900086509000873090008810900087B
:100190008F0900089D090008AB090008B90900088B
:1001A000C7090008D5090008E3090008F10900089B
:1001B000FF0900080D0A00081B0A0008290A0008A8
:1001C000370A0008450A0008530A0008610A0008B7
:1001D0006F0A00087D0A00088B0A00080000000072
:1001E000990A0008A70A0008B50A0008C30A00080F
:1001F000D10A000800000000DF0A0008000000002B
:10020000DFF80CD0034880470348804700F006B869
:1002100000080020A90C0008C50200081E481F495C
:100220001F4A002A00F01280042A80F002804FF05A
:1002300004024FEA920203680B60013A00F0068064
:1002400000F1040001F10401FFF7F5BF154816495C
:10025000002900F01180042980F002804FF0040191
:100260004FEA91014FF000020260013900F0048072
:1002700000F10400FFF7F8BF0C480D4908600D4875
:1002800080470D488047DFF834D04FF000004FF032
:100290000001DFF82CF00000B024000C90090020D1
:1002A0008C000000000800208C0100000000000805
:1002B00008ED00E0450D0008E521000800080020D9
:1002C000C902000800BF704780B586B000AF4FF08C
:1002D0000003FB7540F61023C2F200031B684FF0C9
:1002E0007E5040F60C01C2F200011A4601F0AAF855
:1002F00040F61023C2F200031A6807F10C0340F61F
:100300009010C2F2000040F60C01C2F2000101F0B0
:10031000D7F840F61023C2F200031B68184601F01C
:1003200089FC02460B464FF000004FF00001C3F677
:10033000F07101F01FFE02460B461046194601F00F
:1003400001FF0346BB6007F10C0107F1080207F14A
:100350000C03084611461A464FF0010301F05EF9FE
:10036000FA6840F61023C2F200031B68104640F6FC
:100370008C01C2F200011A4601F064F840F6102325
:10038000C2F200031B6840F69010C2F2000040F673
:100390008C01C2F2000140F60C12C2F2000201F020
:1003A00021FA40F61023C2F200031B6840F60C103D
:1003B000C2F2000040F68C01C2F200011A4600F0C1
:1003C000CBFF40F61023C2F200031A6807F10403C2
:1003D00040F68C00C2F2000040F60C11C2F200019F
:1003E00001F06EF840F61023C2F200031B6803F11F
:1003F000FF33184601F01EFC02460B464FF000008A
:100400004FF00001C3F6F07101F0B4FD02460B4657
:100410001046194601F096FE0346BB6007F1040141
:1004200007F1080207F10403084611461A464FF087
:10043000010301F0F3F840F61423C2F2000393ED38
:10044000007AD7ED017A77EE677AF0EEE77AC7EDBA
:10045000047A97ED047ADFED087AB4EEE77AF1EEEC
:1004600010FA02DD4FF0FA03FB7597F91730002BF5
:1004700000D0FEE7FEE700BFBD378635FEE7DFF8B8
:10048000700600B581B0804701B000BDFEE7DFF81F
:10049000640600B581B0804701B000BDFEE7DFF81B
:1004A000580600B581B0804701B000BDFEE7DFF817
:1004B0004C0600B581B0804701B000BDFEE7DFF813
:1004C000400600B581B0804701B000BDFEE7DFF80F
:1004D000340600B581B0804701B000BDFEE7DFF80B
:1004E000280600B581B0804701B000BDFEE7DFF807
:1004F0001C0600B581B0804701B000BDFEE7DFF803
:10050000100600B581B0804701B000BDFEE7DFF8FE
:10051000040600B581B0804701B000BDFEE7DFF8FA
:10052000F80500B581B0804701B000BDFEE7DFF8F7
:10053000EC0500B581B0804701B000BDFEE7DFF8F3
:10054000E00500B581B0804701B000BDFEE7DFF8EF
:10055000D40500B581B0804701B000BDFEE7DFF8EB
:10056000C80500B581B0804701B000BDFEE7DFF8E7
:10057000BC0500B581B0804701B000BDFEE7DFF8E3
:10058000B00500B581B0804701B000BDFEE7DFF8DF
:10059000A40500B581B0804701B000BDFEE7DFF8DB
:1005A000980500B581B0804701B000BDFEE7DFF8D7
:1005B0008C0500B581B0804701B000BDFEE7DFF8D3
:1005C000800500B581B0804701B000BDFEE7DFF8CF
:1005D000740500B581B0804701B000BDFEE7DFF8CB
:1005E000680500B581B0804701B000BDFEE7DFF8C7
:1005F0005C0500B581B0804701B000BDFEE7DFF8C3
:10060000500500B581B0804701B000BDFEE7DFF8BE
:10061000440500B581B0804701B000BDFEE7DFF8BA
:10062000380500B581B0804701B000BDFEE7DFF8B6
:100630002C0500B581B0804701B000BDFEE7DFF8B2
:10064000200500B581B0804701B000BDFEE7DFF8AE
:10065000140500B581B0804701B000BDFEE7DFF8AA
:10066000080500B581B0804701B000BDFEE7DFF8A6
:10067000FC0400B581B0804701B000BDFEE7DFF8A3
:10068000F00400B581B0804701B000BDFEE7DFF89F
:10069000E40400B581B0804701B000BDFEE7DFF89B
:1006A000D80400B581B0804701B000BDFEE7DFF897
:1006B000CC0400B581B0804701B000BDFEE7DFF893
:1006C000C00400B581B0804701B000BDFEE7DFF88F
:1006D000B40400B581B0804701B000BDFEE7DFF88B
:1006E000A80400B581B0804701B000BDFEE7DFF887
:1006F0009C0400B581B0804701B000BDFEE7DFF883
:10070000900400B581B0804701B000BDFEE7DFF87E
:10071000840400B581B0804701B000BDFEE7DFF87A
:10072000780400B581B0804701B000BDFEE7DFF876
:100730006C0400B581B0804701B000BDFEE7DFF872
:10074000600400B581B0804701B000BDFEE7DFF86E
:10075000540400B581B0804701B000BDFEE7DFF86A
:10076000480400B581B0804701B000BDFEE7DFF866
:100770003C0400B581B0804701B000BDFEE7DFF862
:10078000300400B581B0804701B000BDFEE7DFF85E
:10079000240400B581B0804701B000BDFEE7DFF85A
:1007A000180400B581B0804701B000BDFEE7DFF856
:1007B0000C0400B581B0804701B000BDFEE7DFF852
:1007C000000400B581B0804701B000BDFEE7FD48E0
:1007D00000B581B0804701B000BDFEE7FA4800B522
:1007E00081B0804701B000BDFEE7F84800B581B098
:1007F000804701B000BDFEE7F54800B581B08047F5
:1008000001B000BDFEE7F34800B581B0804701B0FC
:1008100000BDFEE7F04800B581B0804701B000BDE3
:10082000FEE7EE4800B581B0804701B000BDFEE7AD
:10083000EB4800B581B0804701B000BDFEE7E94854
:1008400000B581B0804701B000BDFEE7E64800B5C5
:1008500081B0804701B000BDFEE7E44800B581B03B
:10086000804701B000BDFEE7E14800B581B0804798
:1008700001B000BDFEE7DF4800B581B0804701B0A0
:1008800000BDFEE7DC4800B581B0804701B000BD87
:10089000FEE7DA4800B581B0804701B000BDFEE751
:1008A000D74800B581B0804701B000BDFEE7D5480C
:1008B00000B581B0804701B000BDFEE7D24800B569
:1008C00081B0804701B000BDFEE7D04800B581B0DF
:1008D000804701B000BDFEE7CD4800B581B080473C
:1008E00001B000BDFEE7CB4800B581B0804701B044
:1008F00000BDFEE7C84800B581B0804701B000BD2B
:10090000FEE7C64800B581B0804701B000BDFEE7F4
:10091000C34800B581B0804701B000BDFEE7C148C3
:1009200000B581B0804701B000BDFEE7BE4800B50C
:1009300081B0804701B000BDFEE7BC4800B581B082
:10094000804701B000BDFEE7B94800B581B08047DF
:1009500001B000BDFEE7B74800B581B0804701B0E7
:1009600000BDFEE7B44800B581B0804701B000BDCE
:10097000FEE7B24800B581B0804701B000BDFEE798
:10098000AF4800B581B0804701B000BDFEE7AD487B
:1009900000B581B0804701B000BDFEE7AA4800B5B0
:1009A00081B0804701B000BDFEE7A84800B581B026
:1009B000804701B000BDFEE7A54800B581B0804783
:1009C00001B000BDFEE7A34800B581B0804701B08B
:1009D00000BDFEE7A04800B581B0804701B000BD72
:1009E000FEE79E4800B581B0804701B000BDFEE73C
:1009F0009B4800B581B0804701B000BDFEE7994833
:100A000000B581B0804701B000BDFEE7964800B553
:100A100081B0804701B000BDFEE7944800B581B0C9
:100A2000804701B000BDFEE7914800B581B0804726
:100A300001B000BDFEE78F4800B581B0804701B02E
:100A400000BDFEE78C4800B581B0804701B000BD15
:100A5000FEE78A4800B581B0804701B000BDFEE7DF
:100A6000874800B581B0804701B000BDFEE78548EA
:100A700000B581B0804701B000BDFEE7824800B5F7
:100A800081B0804701B000BDFEE7804800B581B06D
:100A9000804701B000BDFEE77D4800B581B08047CA
:100AA00001B000BDFEE77B4800B581B0804701B0D2
:100AB00000BDFEE7784800B581B0804701B000BDB9
:100AC000FEE7764800B581B0804701B000BDFEE783
:100AD000734800B581B0804701B000BDFEE77148A2
:100AE00000B581B0804701B000BD4FF001007047F4
:100AF0007D0400088D0400089D040008AD04000872
:100B0000BD040008CD040008DD040008ED04000861
:100B1000FD0400080D0500081D0500082D0500084E
:100B20003D0500084D0500085D0500086D0500083D
:100B30007D0500088D0500089D050008AD0500082D
:100B4000BD050008CD050008DD050008ED0500081D
:100B5000FD0500080D0600081D0600082D0600080A
:100B60003D0600084D0600085D0600086D060008F9
:100B70007D0600088D0600089D060008AD060008E9
:100B8000BD060008CD060008DD060008ED060008D9
:100B9000FD0600080D0700081D0700082D070008C6
:100BA0003D0700084D0700085D0700086D070008B5
:100BB0007D0700088D0700089D070008AD070008A5
:100BC000BD070008CD070008DB070008E90700089B
:100BD000F7070008050800081308000821080008A6
:100BE0002F0800083D0800084B08000859080008B5
:100BF00067080008750800088308000891080008C5
:100C00009F080008AD080008BB080008C9080008D4
:100C1000D7080008E5080008F308000801090008E3
:100C20000F0900081D0900082B09000839090008F0
:100C30004709000855090008630900087109000800
:100C40007F0900088D0900089B090008A909000810
:100C5000B7090008C5090008D3090008E109000820
:100C6000EF090008FD0900080B0A0008190A00082E
:100C7000270A0008350A0008430A0008510A00083C
:100C80005F0A00086D0A00087B0A0008890A00084C
:100C9000970A0008A50A0008B30A0008C10A00085C
:100CA000CF0A0008DD0A000880B582B000AF4FF41B
:100CB0006D43CEF200034FF46D42CEF20002D2F843
:100CC000882042F47002C3F888204FF46D43CEF2BE
:100CD00000034FF46D42CEF20002526922F0080286
:100CE0005A614FF40043C5F200034FF40042C5F2CD
:100CF0000002526822F001025A604FF48053C5F698
:100D0000000303F5805303F114031B687B607B68C9
:100D100023F00F037B607B6843F003037B604FF499
:100D20008053C5F600037A6803F5805303F114037A
:100D30001A6000F0ABF800F005F807F10807BD46AF
:100D400080BD00BF80B485B000AF4FF48C43C5F2C6
:100D50000003DB68B3F5803F40F0898044F21073F4
:100D6000C5F200031B6803F00403002B00F0888029
:100D700044F21073C5F200039B6803F070634FEAFE
:100D8000136303F10103FB6044F21073C5F2000327
:100D90009B6803F4FE434FEA132303F10103BB6096
:100DA00044F21073C5F200039B6803F4FE034FEA9C
:100DB000134303F101037B6044F21073C5F2000397
:100DC000DB6803F00103002B28D04FF45853C0F226
:100DD0006E13FA68B3FBF2F3BA6802FB03F33B60ED
:100DE0003A687B68B2FBF3F240F61823C2F20003C4
:100DF0001A6040F61823C2F200031A684FF48C43BD
:100E0000C5F20003DB68DBB203F10103B2FBF3F2CE
:100E100040F61823C2F200031A6031E04FF4D853B1
:100E2000C0F2B703FA68B3FBF2F3BA6802FB03F34C
:100E30003B603A687B68B2FBF3F240F61823C2F2DB
:100E400000031A6040F61823C2F200031A684FF438
:100E50008C43C5F20003DB68DBB203F10103B2FB94
:100E6000F3F240F61823C2F200031A6008E040F6DD
:100E70001823C2F200034FF45852C0F26E121A60E7
:100E800007F11407BD4680BC704700BF80B582B033
:100E900000AFFFF72AFE0346002B00F0558244F214
:100EA0001073C5F200035A684FF00203C0F2010349
:100EB0001340002B0DD044F21073C5F2000344F22E
:100EC0001072C5F20002526822F4803222F002024F
:100ED0005A604FF48E43C5F200035B6803F03003A1
:100EE000002B72D04FF48E43C5F200034FF48E42B4
:100EF000C5F20002526822F0F0025A604FF48E43AD
:100F0000C5F200034FF48E42C5F20002526842F46B
:100F100000325A6044F21073C5F2000344F21072BA
:100F2000C5F20002D26822F00102DA6044F21073C6
:100F3000C5F2000344F21072C5F20002526822F4B6
:100F400000325A604EF21003CEF2000344F6A33290
:100F5000C0F24C025A604EF21003CEF200034FF082
:100F600000029A604EF21003CEF200034FF0050229
:100F70001A6044F21073C5F200031B6803F4607337
:100F8000B3F5607F08D04EF21003CEF200039A68EA
:100F900040F2F3139A42ECD84EF21003CEF2000363
:100FA0004EF21002CEF20002126822F001021A6024
:100FB00044F21073C5F200031B6803F46073B3F5C9
:100FC000607F02D04FF00003C0E144F21073C5F21D
:100FD00000031B6803F00403002B40F0B5814FF4BD
:100FE0008C43C5F20003DB6803F48033002B0BD085
:100FF0004FF48C43C5F200034FF48C42C5F200025B
:10100000D26822F48032DA604FF46053C1F69C4318
:101010007B607A6849F68173C1F25E63A3FB0213B9
:101020004FEA535303F1FF333B6044F21073C5F2B0
:10103000000344F21072C5F20002526842F001024D
:101040005A6044F21073C5F2000344F21072C5F204
:101050000002526842F010025A6044F21072C5F267
:1010600000023B684FEA034144F60173C0F20013EB
:101070000B43936044F21073C5F2000344F2107204
:10108000C5F20002526842F040025A6044F2107306
:10109000C5F2000344F21072C5F20002526822F059
:1010A00010025A6044F21073C5F2000344F2107249
:1010B000C5F20002526842F480225A604EF21003D8
:1010C000CEF2000344F6A332C0F24C025A604EF254
:1010D0001003CEF200034FF000029A604EF21003AC
:1010E000CEF200034FF005021A6000BF44F2107305
:1010F000C5F200031B6803F00403002B08D14EF275
:101100001003CEF200039A6840F2F3139A42EDD82E
:101110004EF21003CEF200034EF21002CEF20002A5
:10112000126822F001021A6044F21073C5F2000343
:101130001B6803F00403002B4ED044F21073C5F279
:10114000000344F21072C5F20002526822F001025C
:101150005A604FF48C43C5F200034FF000021A614D
:101160004FF48C43C5F200034FF000025A614FF474
:101170008C43C5F200034FF000021A624FF48C4317
:10118000C5F200034FF48C42C5F20002D26842F46B
:101190008032DA6044F21073C5F2000344F2107238
:1011A000C5F20002526822F040025A604EF210036B
:1011B000CEF2000340F245525A604EF21003CEF2D6
:1011C00000034FF000029A604EF21003CEF20003CB
:1011D0004FF005021A6002E04FF00003B6E04EF255
:1011E0001003CEF200039B68632BF8D84EF2100375
:1011F000CEF200034EF21002CEF20002126822F08C
:1012000001021A604FF46053C1F69C437B607B6817
:101210004FEA132245F2C743C0F21E13A3FB021389
:101220004FEA932303F1FF333B6044F21072C5F29F
:1012300000023B684FEA034144F60173C0F2001319
:101240000B4393604EF21003CEF2000340F61B42B4
:101250005A604EF21003CEF200034FF000029A6083
:101260004EF21003CEF200034FF005021A6000BFE9
:101270004EF21003CEF200039B68632BF8D84EF2B7
:101280001003CEF200034EF21002CEF200021268FA
:1012900022F001021A604FF46053C1F69C437B6058
:1012A0007B684FEAD3124EF22F33C0F2BE03A3FB8A
:1012B00002134FEAD32303F1FF333B6044F2107271
:1012C000C5F200023B684FEA034144F60173C0F2E5
:1012D00000130B4393604EF21003CEF2000341F271
:1012E00023325A604EF21003CEF200034FF0000298
:1012F0009A604EF21003CEF200034FF005021A601E
:1013000000BF4EF21003CEF200039B68632BF8D8A7
:101310004EF21003CEF200034EF21002CEF20002A3
:10132000126822F001021A6044F21073C5F2000341
:1013300044F60172C0F203129A6044F26013C5F2DF
:1013400000034FF00502DA604FF00103184607F181
:101350000807BD4680BD00BF2DE9F0075FEA920A8D
:1013600050D0D0F80080D0F804C08668C568C1F8B5
:1013700000800AF1FF331F4603F0010900F1100459
:10138000C1F804C08E60CD6001F11003002F35D08C
:10139000B9F1000F0FD0D4F80080D4F804C0A668CB
:1013A000E568C3F80080C3F804C09E60DD601034B7
:1013B0001033013F22D0A668D4F80080D4F80490FE
:1013C000E5689E6004F11006DD60C3F80080C3F894
:1013D00004902469D6F80490D6F80880D6F80CC09A
:1013E0001C6103F11005C3F81490C3F81880C3F80A
:1013F0001CC02033023F06F11004DCD14FEA0A1A68
:101400005044514412F0030218D0013A04681346C4
:1014100041F8044B02F0010283B12AB150F8042FC5
:10142000013B41F8042B09D044680A4642F8044BBA
:10143000846808304C60111D023BF5D1BDE8F0070F
:10144000704700BF70B4960821D0731E1D4603F08C
:101450000104086048608860C86001F11003A5B10C
:1014600034B1186058609860D8601033013D0CD0DA
:1014700003F11004186058609860D86018615861D2
:101480009861D8612033023DF2D101EB061112F0D0
:10149000030212D0013A134641F8040B02F0010294
:1014A0005BB11AB1013B41F8040B06D00A4642F881
:1014B000040B4860111D023BF8D170BC704700BF9F
:1014C000F0B49708DFED547A77D0D0ED006A91ED53
:1014D000007A46EE877A90ED010AD1ED010A40EEDE
:1014E000207A90ED021AD1ED021A41EE217A7C1E8B
:1014F00090ED032AD1ED032A264604F0010C42EEBA
:10150000227A00F1100501F11004002E52D0BCF136
:10151000000F1BD095ED003AD4ED003A43EE237A4C
:1015200095ED014AD4ED014A44EE247A95ED025A34
:10153000D4ED025A45EE257A95ED036AD4ED036A9F
:1015400010351034013E46EE267A33D095ED000A70
:1015500094ED007A40EE077AD5ED010A94ED011A78
:1015600040EE817AD5ED021A94ED022A41EE827A9C
:10157000D5ED032A94ED033A42EE837AD5ED043A91
:1015800094ED044A43EE847AD5ED054A94ED055A6C
:1015900044EE857AD5ED065A94ED066A45EE867AD4
:1015A000D5ED076A94ED070A20352034023E46EE59
:1015B000807ACBD13F01C019C91912F0030226D09D
:1015C000541ED0ED000AB1EC017A224640EE877A33
:1015D00004F00104DAB14CB1043090ED001AF1ECE2
:1015E000011A013A044641EE217A10D00C4690EDE2
:1015F000012AF4EC012A42EE227A91ED013AD0ED73
:10160000023A211D0830023A43EE837AEED1C3ED4F
:10161000007AF0BC704700BF000000002DE9F00325
:101620005FEA930800F0A580D1ED007A90ED007A92
:1016300027EE270AD0ED025AD1ED020A90ED015AA9
:10164000D1ED016A90ED036A82ED000A91ED031A73
:1016500008F1FF3565EE261A25EEA02A66EE012A6E
:101660000646AC4605F001071036C2ED011A82EDC0
:10167000022AC2ED032A01F1100502F11004BCF1A7
:10168000000F71D037B3B146D5ED004AD9ED007ADD
:1016900027EEA40A96ED023AD6ED013A96ED034AFA
:1016A00095ED027AD5ED015A84ED000AD5ED030AD5
:1016B00023EEA55A63EE076A24EE206A103684ED05
:1016C000015AC4ED026A84ED036A10351034BCF18E
:1016D000010C49D095ED001AD6ED001A21EE812AB1
:1016E000D6ED022A95ED023AD6ED013A95ED014A82
:1016F000D6ED034A84ED002AD5ED037A23EE840A61
:1017000022EE837A64EEA75A84ED010A84ED027A10
:10171000C4ED035AD6ED040A95ED045A20EE851A5D
:10172000D6ED061A95ED062AD6ED052AD5ED056A01
:1017300096ED076A84ED041A95ED073A62EEA63A33
:1017400021EE824A66EE034A3746C4ED053A84ED3F
:10175000064AC4ED074A103720352034BCF1020C8C
:10176000B14606F12006B5D14FEA0814001909194F
:10177000121913F0030331D090ED000AD1ED007A75
:101780005C1E20EE277A2346A2EC017A04F00104C5
:1017900023B36CB104300431D0ED005AD1ED000A0E
:1017A00025EEA05A013B04460F46A2EC015A15D083
:1017B00090ED011AD1ED011A21EE212A1446A4EC74
:1017C000012AD0ED022AD1ED026A22EEA66A083083
:1017D00082ED016A0831221D023BE9D1BDE8F00328
:1017E000704700BF2DE9F0075FEA930A00F0A88078
:1017F000D0ED014AD1ED016A90ED025A91ED027AE5
:10180000D0ED035AD1ED037A90ED004A91ED006AD4
:101810000AF1FF3434EE460A74EEE60A35EE471A52
:1018200075EEE71A06460D46A14604F0010710368C
:10183000103582ED000AC2ED010A82ED021AC2EDF6
:10184000031A02F11004B9F1000F74D03FB3B0468F
:101850002F4696ED012AD5ED012A96ED023AD5EDF7
:10186000023A96ED035AD5ED035AD8ED004A97EDAA
:10187000007A72EE626A34EEC74A33EE636A75EE3E
:10188000657A1036103584ED004AC4ED016A84EDA6
:10189000026AC4ED037A1034B9F101094BD096ED18
:1018A000000AD5ED000A96ED011AD5ED011A96ED64
:1018B000022AD5ED022A96ED033AD5ED033A30EE31
:1018C000605A71EE615A72EE624A33EE637A84EDC9
:1018D000005AC4ED015AC4ED024A84ED037A96ED34
:1018E000044A95ED046A96ED050AD5ED056AD6ED34
:1018F000060A95ED061AD6ED071AD5ED077A34EEED
:10190000462A70EE662A30EEC13A71EEE73A2F466B
:1019100004F1100884ED042AC4ED052A84ED063A8A
:10192000C4ED073A10372034B9F1020906F1200658
:1019300005F12005B3D14FEA0A140019091912194B
:1019400013F0030331D090ED005AD1ED005A5C1E24
:1019500075EE654A2346E2EC014A04F0010423B324
:101960006CB10430043190ED007A91ED004A37EE0D
:10197000446A013B04460F46A2EC016A15D090ED83
:10198000010AD1ED016A70EE660A1446E4EC010A20
:1019900090ED021AD1ED021A71EE617A0830C2EDB3
:1019A000017A0831221D023BE9D1BDE8F0077047FA
:1019B00081F0004102E000BF83F0004330B54FEA00
:1019C00041044FEA430594EA050F08BF90EA020F6D
:1019D0001FBF54EA000C55EA020C7FEA645C7FEA00
:1019E000655C00F0E2804FEA5454D4EB5555B8BF23
:1019F0006D420CDD2C4480EA020281EA030382EA94
:101A0000000083EA010180EA020281EA0303362D25
:101A100088BF30BD11F0004F4FEA01314FF4801CF8
:101A20004CEA113102D0404261EB410113F0004F0A
:101A30004FEA03334CEA133302D0524263EB4303C1
:101A400094EA050F00F0A780A4F10104D5F1200E5F
:101A50000DDB02FA0EFC22FA05F2801841F10001BA
:101A600003FA0EF2801843FA05F359410EE0A5F18E
:101A700020050EF1200E012A03FA0EFC28BF4CF0BF
:101A8000020C43FA05F3C01851EBE37101F0004575
:101A900007D54FF0000EDCF1000C7EEB00006EEB82
:101AA0000101B1F5801F1BD3B1F5001F0CD349080C
:101AB0005FEA30004FEA3C0C04F101044FEA445263
:101AC00012F5800F80F09A80BCF1004F08BF5FEAEA
:101AD000500C50F1000041EB045141EA050130BDCA
:101AE0005FEA4C0C404141EB010111F4801FA4F16D
:101AF0000104E9D191F0000F04BF01460020B1FAC2
:101B000081F308BF2033A3F10B03B3F120020CDAF9
:101B10000C3208DD02F1140CC2F10C0201FA0CF0D7
:101B200021FA02F10CE002F11402D8BFC2F1200C3C
:101B300001FA02F120FA0CFCDCBF41EA0C019040F2
:101B4000E41AA2BF01EB0451294330BD6FEA04043B
:101B50001F3C1CDA0C340EDC04F11404C4F1200226
:101B600020FA04F001FA02F340EA030021FA04F338
:101B700045EA030130BDC4F10C04C4F1200220FA8F
:101B800002F001FA04F340EA0300294630BD21FACD
:101B900004F0294630BD94F0000F83F4801306BF93
:101BA00081F480110134013D4EE77FEA645C18BF87
:101BB0007FEA655C29D094EA050F08BF90EA020F1E
:101BC00005D054EA000C04BF1946104630BD91EA16
:101BD000030F1EBF0021002030BD5FEA545C05D119
:101BE0004000494128BF41F0004130BD14F5800458
:101BF0003CBF01F5801130BD01F0004545F0FE41CC
:101C000041F470014FF0000030BD7FEA645C1ABF00
:101C1000194610467FEA655C1CBF0B46024650EA37
:101C2000013406BF52EA033591EA030F41F4002163
:101C300030BD00BF90F0000F04BF0021704730B5E9
:101C40004FF4806404F132044FF000054FF00001BE
:101C500050E700BF90F0000F04BF0021704730B57F
:101C60004FF4806404F1320410F0004548BF404254
:101C70004FF000013EE700BF42004FEAE2014FEAA9
:101C800031014FEA02701FBF12F07F4393F07F4F84
:101C900081F06051704792F0000F14BF93F07F4FB6
:101CA000704730B54FF4607401F0004521F00041F9
:101CB00020E700BF50EA010208BF704730B54FF07F
:101CC00000050AE050EA010208BF704730B511F084
:101CD000004502D5404261EB41014FF4806404F1BC
:101CE00032045FEA915C3FF4DCAE4FF003025FEA3E
:101CF000DC0C18BF03325FEADC0C18BF033202EBC6
:101D0000DC02C2F1200300FA03FC20FA02F001FA1F
:101D100003FE40EA0E0021FA02F11444C1E600BFBE
:101D200070B54FF0FF0C4CF4E06C1CEA11541DBF71
:101D30001CEA135594EA0C0F95EA0C0F00F0DEF83C
:101D40002C4481EA030621EA4C5123EA4C5350EA21
:101D5000013518BF52EA033541F4801143F4801372
:101D600038D0A0FB02CE4FF00005E1FB02E506F003
:101D70000042E0FB03E54FF00006E1FB03569CF058
:101D8000000F18BF4EF0010EA4F1FF04B6F5007F5E
:101D900064F5407404D25FEA4E0E6D4146EB0606D0
:101DA00042EAC62141EA55514FEAC52040EA5E5059
:101DB0004FEACE2EB4F1FD0C88BFBCF5E06F1ED803
:101DC000BEF1004F08BF5FEA500E50F1000041EB3A
:101DD000045170BD06F0004646EA010140EA0200E7
:101DE00081EA0301B4EB5C04C2BFD4EB0C0541EA09
:101DF000045170BD41F480114FF0000E013C00F31E
:101E0000AB8014F1360FDEBF002001F0004170BD41
:101E1000C4F10004203C35DA0C341BDC04F114045A
:101E2000C4F1200500FA05F320FA04F001FA05F2E6
:101E300040EA020001F0004221F0004110EBD370B3
:101E400021FA04F642EB06015EEA430E08BF20EADF
:101E5000D37070BDC4F10C04C4F1200500FA04F382
:101E600020FA05F001FA04F240EA020001F0004114
:101E700010EBD37041F100015EEA430E08BF20EA87
:101E8000D37070BDC4F1200500FA05F24EEA020ECF
:101E900020FA04F301FA05F243EA020321FA04F0FE
:101EA00001F0004121FA04F220EA020000EBD370B5
:101EB0005EEA430E08BF20EAD37070BD94F0000FB5
:101EC0000FD101F00046400041EB010111F4801FE9
:101ED00008BF013CF7D041EA060195F0000F18BF9A
:101EE000704703F00046520043EB030313F4801FD6
:101EF00008BF013DF7D043EA0603704794EA0C0F90
:101F00000CEA135518BF95EA0C0F0CD050EA4106A5
:101F100018BF52EA4306D1D181EA030101F0004122
:101F20004FF0000070BD50EA410606BF104619464A
:101F300052EA430619D094EA0C0F02D150EA013656
:101F400013D195EA0C0F05D152EA03361CBF104697
:101F500019460AD181EA030101F0004141F0FE4136
:101F600041F470014FF0000070BD41F0FE4141F4BA
:101F7000780170BD70B54FF0FF0C4CF4E06C1CEABA
:101F800011541DBF1CEA135594EA0C0F95EA0C0F6F
:101F900000F0A7F8A4EB050481EA030E52EA03352A
:101FA0004FEA013100F088804FEA03334FF080554B
:101FB00045EA131343EA12634FEA022245EA111578
:101FC00045EA10654FEA00260EF000419D4208BF29
:101FD000964244F1FD0404F5407402D25B084FEAD6
:101FE0003202B61A65EB03055B084FEA32024FF482
:101FF00080104FF4002CB6EB020E75EB030E22BFDF
:10200000B61A754640EA0C005B084FEA3202B6EB9E
:10201000020E75EB030E22BFB61A754640EA5C004D
:102020005B084FEA3202B6EB020E75EB030E22BFDD
:10203000B61A754640EA9C005B084FEA3202B6EBDE
:10204000020E75EB030E22BFB61A754640EADC009D
:1020500055EA060E18D04FEA051545EA16754FEAFF
:1020600006164FEAC30343EA52734FEAC2025FEA1D
:102070001C1CC0D111F4801F0BD141EA00014FF0AC
:1020800000004FF0004CB6E711F4801F04BF01437D
:102090000020B4F1FD0C88BFBCF5E06F3FF6AFAE99
:1020A000B5EB030C04BFB6EB020C5FEA500C50F129
:1020B000000041EB045170BD0EF0004E4EEA1131AC
:1020C00014EB5C04C2BFD4EB0C0541EA045170BDB3
:1020D00041F480114FF0000E013C90E645EA060EF7
:1020E0008DE60CEA135594EA0C0F08BF95EA0C0F25
:1020F0003FF43BAF94EA0C0F0AD150EA01347FF46D
:1021000034AF95EA0C0F7FF425AF104619462CE743
:1021100095EA0C0F06D152EA03353FF4FDAE1046A6
:10212000194622E750EA410618BF52EA43067FF4F7
:10213000C5AE50EA41047FF40DAF52EA43057FF487
:10214000EBAE12E74FEA4102B2F1E04324BFB3F530
:10215000001CDCF1FE5C0DD901F0004C4FEAC0021E
:102160004CEA5070B2F1004F40EB830008BF20F002
:102170000100704711F0804F21D113F13872BCBFBC
:1021800001F00040704741F480114FEA5252C2F111
:102190001802C2F1200C10FA0CF320FA02F018BF5A
:1021A00040F001004FEAC1234FEAD32303FA0CFCAD
:1021B00040EA0C0023FA02F34FEA4303CCE77FEA3C
:1021C000625307D150EA01331EBF4FF0FE4040F486
:1021D0004000704701F0004040F0FE4040F4000035
:1021E000704700BFF8B5204F204C381B871017D020
:1021F0007A1E2368012502F001069847AF420FD0EE
:102200002EB154F8041F02258847AF4208D06068F9
:1022100080470235A268261D90470834AF42F6D1A8
:10222000134F144C00F028F93B1B9F1018D07D1E53
:10223000216805F0010601258847AF4211D02EB173
:1022400054F8040F02258047AF420BD062689047D4
:102250000235A368261D98470834AF42F6D1F8BD71
:10226000F8BDF8BDF8BD00BF9C2400089C24000800
:102270009C2400089C24000880B485B000AFF8605E
:10228000B9607A604FF0FF33184607F11407BD4676
:1022900080BC704780B485B000AFF860B9607A60E8
:1022A0004FF0FF33184607F11407BD4680BC704756
:1022B00080B485B000AFF860B9607A604FF0000379
:1022C000184607F11407BD4680BC704780B485B03E
:1022D00000AFF860B9607A604FF0FF33184607F13D
:1022E0001407BD4680BC704780B400AF4FF0FF3389
:1022F0001846BD4680BC704780B483B000AF78609C
:1023000039603B68002B02D04FF0FF3301E06FF0E3
:102310000103184607F10C07BD4680BC704700BF9B
:1023200080B483B000AF786039607A683B689A42C5
:1023300002D14FF0FF3301E06FF00103184607F1BF
:102340000C07BD4680BC704780B483B000AF786096
:102350004FF0FF33184607F10C07BD4680BC7047AD
:1023600080B487B000AF78604FF2E053C0F2000352
:102370007B6140F60403C2F200031B68002B14D1FA
:1023800040F60403C2F2000340F62022C2F200022B
:102390001A6040F60403C2F200031A687B69D2187F
:1023A00040F60803C2F200031A6040F60403C2F2CA
:1023B00000031B683B6140F60403C2F200031B6884
:1023C0001A467B68D31803F1070323F00703FB6069
:1023D00040F60803C2F200031B68FA689A4202D36F
:1023E0004FF0000306E040F60403C2F20003FA686F
:1023F0001A603B69184607F11C07BD4680BC704750
:1024000080B483B000AF78604FF0FF33184607F117
:102410000C07BD4680BC704780B483B000AF7860C5
:102420004FF0FF33184607F10C07BD4680BC7047DC
:1024300080B483B000AF786039604FF0FF33184646
:1024400007F10C07BD4680BC704700BF80B400AFE9
:102450004FF0FF331846BD4680BC704780B400AFD4
:102460004FF0FF331846BD4680BC704780B483B040
:1024700000AF7860FEE700BF80B400AFBD4680BC0F
:10248000704700BF80B483B000AF78604FF0FF3377
:0C249000184607F10C07BD4680BC7047E1
:10249C0064DDFF7F0100000078DDFF7F010000009C
:1024B0002379DDBEDE31D5BF1D57003E534A933E22
:1024C00093BF92BFEB6F983F8836983F5A251ABD4D
:1024D000DD92A73E9AD4323E89303FBE69CD393F66
:1024E000EA9B16BF51B90B405DAB0BBED254E93D20
:1024F000DC8B883F1ED1723D50E3C3BDDB1455BF5A
:1025000004BD963E0208ABBFF9DD363FE2D0CF3FB7
:10251000361831BFACA55B3F1E83A03F55FFCBBF34
:102520008671B8BFBB36123FCDBDCCBEABA3303F2A
:0C25300020000000BB68673F000E27077A
:0400000508000201EC
:00000001FF
