:020000040C00EE
:100000000008002001020008FB0300080B040008A0
:100010001B0400082B0400083B040008000000003B
:100020000000000000000000000000004B04000879
:100030005B040008000000006B0400087B0400085B
:100040008B0400089B040008AB040008BB040008F4
:10005000CB040008DB040008EB040008FB040008E4
:100060000B05000800000000000000000000000078
:100070001B050008000000002B0500083B050008D8
:100080004B0500085B0500086B0500087B050008B0
:100090008B0500089B050008AB050008BB050008A0
:1000A000CB050008DB050008EB050008FB05000890
:1000B0000B0600081B0600082B0600083B0600087C
:1000C0004B0600085B0600086B0600087B0600086C
:1000D0008B0600089B060008AB060008BB0600085C
:1000E000CB060008DB060008EB060008FB0600084C
:1000F0000B0700081B0700082B0700083B07000838
:100100004B07000859070008670700087507000833
:1001100083070008910700089F070008AD07000843
:10012000BB070008C9070008D7070008E507000853
:10013000F3070008010800080F0800081D08000860
:100140002B0800083908000847080008550800086F
:1001500063080008710800087F0800088D0800087F
:10016000000000000000000000000000000000008F
:100170009B080008A9080008B7080008C50800087F
:10018000D3080008E1080008EF080008FD0800088F
:100190000B0900081909000827090008350900089B
:1001A00043090008510900085F0900086D090008AB
:1001B0007B0900088909000897090008A5090008BB
:1001C000B3090008C1090008CF090008DD090008CB
:1001D000EB090008F9090008070A00080000000000
:1001E000150A0008230A0008310A00083F0A00081F
:1001F0004D0A0008000000005B0A00080000000033
:10020000DFF80CD0034880470348804700F006B869
:1002100000080020250C0008C50200081E481F49E0
:100220001F4A002A00F01280042A80F002804FF05A
:1002300004024FEA920203680B60013A00F0068064
:1002400000F1040001F10401FFF7F5BF154816495C
:10025000002900F01180042980F002804FF0040191
:100260004FEA91014FF000020260013900F0048072
:1002700000F10400FFF7F8BF0C480D4908600D4875
:1002800080470D488047DFF834D04FF000004FF032
:100290000001DFF82CF00000A023000C3008002043
:1002A00008000000000800202400000000000008F2
:1002B00008ED00E0C10C000831180008000800201B
:1002C000C902000800BF704780B582B000AF4FF090
:1002D00000037B6083E041F6F823C0F600037A68F0
:1002E0004FEA82029B181B68184600F0F3FF024693
:1002F00040F60C03C2F200031A6041F6F823C0F680
:1003000000037A684FEA82029B181B68184601F0C6
:1003100053F8024640F62003C2F200031A6040F68A
:100320000C00C2F2000040F60C01C2F2000140F6DF
:100330001002C2F200024FF0010301F095F940F6FD
:100340002000C2F2000040F62001C2F2000140F697
:100350001802C2F200024FF0010301F085F940F6E5
:100360001000C2F2000040F61801C2F2000140F68F
:100370001402C2F200024FF0010301F08FF841F6BF
:100380007833C0F6000393ED007A40F61403C2F20E
:100390000003D3ED007A77EE677AF0EEE77AC7EDE7
:1003A000007A97ED007ADFED137AB4EEE77AF1EE9A
:1003B00010FA06DD40F61C03C2F200034FF0FA0209
:1003C0001A7040F61C03C2F200031B785BB213F1F3
:1003D000060F00D1FEE77B6803F101037B6040F666
:1003E0003003C2F200031B687A689A42FFF473AFCD
:1003F000FEE700BFBD378635FEE7DFF8700600B5C3
:1004000081B0804701B000BDFEE7DFF8640600B5AB
:1004100081B0804701B000BDFEE7DFF8580600B5A7
:1004200081B0804701B000BDFEE7DFF84C0600B5A3
:1004300081B0804701B000BDFEE7DFF8400600B59F
:1004400081B0804701B000BDFEE7DFF8340600B59B
:1004500081B0804701B000BDFEE7DFF8280600B597
:1004600081B0804701B000BDFEE7DFF81C0600B593
:1004700081B0804701B000BDFEE7DFF8100600B58F
:1004800081B0804701B000BDFEE7DFF8040600B58B
:1004900081B0804701B000BDFEE7DFF8F80500B588
:1004A00081B0804701B000BDFEE7DFF8EC0500B584
:1004B00081B0804701B000BDFEE7DFF8E00500B580
:1004C00081B0804701B000BDFEE7DFF8D40500B57C
:1004D00081B0804701B000BDFEE7DFF8C80500B578
:1004E00081B0804701B000BDFEE7DFF8BC0500B574
:1004F00081B0804701B000BDFEE7DFF8B00500B570
:1005000081B0804701B000BDFEE7DFF8A40500B56B
:1005100081B0804701B000BDFEE7DFF8980500B567
:1005200081B0804701B000BDFEE7DFF88C0500B563
:1005300081B0804701B000BDFEE7DFF8800500B55F
:1005400081B0804701B000BDFEE7DFF8740500B55B
:1005500081B0804701B000BDFEE7DFF8680500B557
:1005600081B0804701B000BDFEE7DFF85C0500B553
:1005700081B0804701B000BDFEE7DFF8500500B54F
:1005800081B0804701B000BDFEE7DFF8440500B54B
:1005900081B0804701B000BDFEE7DFF8380500B547
:1005A00081B0804701B000BDFEE7DFF82C0500B543
:1005B00081B0804701B000BDFEE7DFF8200500B53F
:1005C00081B0804701B000BDFEE7DFF8140500B53B
:1005D00081B0804701B000BDFEE7DFF8080500B537
:1005E00081B0804701B000BDFEE7DFF8FC0400B534
:1005F00081B0804701B000BDFEE7DFF8F00400B530
:1006000081B0804701B000BDFEE7DFF8E40400B52B
:1006100081B0804701B000BDFEE7DFF8D80400B527
:1006200081B0804701B000BDFEE7DFF8CC0400B523
:1006300081B0804701B000BDFEE7DFF8C00400B51F
:1006400081B0804701B000BDFEE7DFF8B40400B51B
:1006500081B0804701B000BDFEE7DFF8A80400B517
:1006600081B0804701B000BDFEE7DFF89C0400B513
:1006700081B0804701B000BDFEE7DFF8900400B50F
:1006800081B0804701B000BDFEE7DFF8840400B50B
:1006900081B0804701B000BDFEE7DFF8780400B507
:1006A00081B0804701B000BDFEE7DFF86C0400B503
:1006B00081B0804701B000BDFEE7DFF8600400B5FF
:1006C00081B0804701B000BDFEE7DFF8540400B5FB
:1006D00081B0804701B000BDFEE7DFF8480400B5F7
:1006E00081B0804701B000BDFEE7DFF83C0400B5F3
:1006F00081B0804701B000BDFEE7DFF8300400B5EF
:1007000081B0804701B000BDFEE7DFF8240400B5EA
:1007100081B0804701B000BDFEE7DFF8180400B5E6
:1007200081B0804701B000BDFEE7DFF80C0400B5E2
:1007300081B0804701B000BDFEE7DFF8000400B5DE
:1007400081B0804701B000BDFEE7FD4800B581B033
:10075000804701B000BDFEE7FA4800B581B0804790
:1007600001B000BDFEE7F84800B581B0804701B098
:1007700000BDFEE7F54800B581B0804701B000BD7F
:10078000FEE7F34800B581B0804701B000BDFEE749
:10079000F04800B581B0804701B000BDFEE7EE48EB
:1007A00000B581B0804701B000BDFEE7EB4800B561
:1007B00081B0804701B000BDFEE7E94800B581B0D7
:1007C000804701B000BDFEE7E64800B581B0804734
:1007D00001B000BDFEE7E44800B581B0804701B03C
:1007E00000BDFEE7E14800B581B0804701B000BD23
:1007F000FEE7DF4800B581B0804701B000BDFEE7ED
:10080000DC4800B581B0804701B000BDFEE7DA48A2
:1008100000B581B0804701B000BDFEE7D74800B504
:1008200081B0804701B000BDFEE7D54800B581B07A
:10083000804701B000BDFEE7D24800B581B08047D7
:1008400001B000BDFEE7D04800B581B0804701B0DF
:1008500000BDFEE7CD4800B581B0804701B000BDC6
:10086000FEE7CB4800B581B0804701B000BDFEE790
:10087000C84800B581B0804701B000BDFEE7C6485A
:1008800000B581B0804701B000BDFEE7C34800B5A8
:1008900081B0804701B000BDFEE7C14800B581B01E
:1008A000804701B000BDFEE7BE4800B581B080477B
:1008B00001B000BDFEE7BC4800B581B0804701B083
:1008C00000BDFEE7B94800B581B0804701B000BD6A
:1008D000FEE7B74800B581B0804701B000BDFEE734
:1008E000B44800B581B0804701B000BDFEE7B24812
:1008F00000B581B0804701B000BDFEE7AF4800B54C
:1009000081B0804701B000BDFEE7AD4800B581B0C1
:10091000804701B000BDFEE7AA4800B581B080471E
:1009200001B000BDFEE7A84800B581B0804701B026
:1009300000BDFEE7A54800B581B0804701B000BD0D
:10094000FEE7A34800B581B0804701B000BDFEE7D7
:10095000A04800B581B0804701B000BDFEE79E48C9
:1009600000B581B0804701B000BDFEE79B4800B5EF
:1009700081B0804701B000BDFEE7994800B581B065
:10098000804701B000BDFEE7964800B581B08047C2
:1009900001B000BDFEE7944800B581B0804701B0CA
:1009A00000BDFEE7914800B581B0804701B000BDB1
:1009B000FEE78F4800B581B0804701B000BDFEE77B
:1009C0008C4800B581B0804701B000BDFEE78A4881
:1009D00000B581B0804701B000BDFEE7874800B593
:1009E00081B0804701B000BDFEE7854800B581B009
:1009F000804701B000BDFEE7824800B581B0804766
:100A000001B000BDFEE7804800B581B0804701B06D
:100A100000BDFEE77D4800B581B0804701B000BD54
:100A2000FEE77B4800B581B0804701B000BDFEE71E
:100A3000784800B581B0804701B000BDFEE7764838
:100A400000B581B0804701B000BDFEE7734800B536
:100A500081B0804701B000BDFEE7714800B581B0AC
:100A6000804701B000BD4FF001007047F903000856
:100A700009040008190400082904000839040008C2
:100A800049040008590400086904000879040008B2
:100A90008904000899040008A9040008B9040008A2
:100AA000C9040008D9040008E9040008F904000892
:100AB000090500081905000829050008390500087E
:100AC000490500085905000869050008790500086E
:100AD0008905000899050008A9050008B90500085E
:100AE000C9050008D9050008E9050008F90500084E
:100AF000090600081906000829060008390600083A
:100B00004906000859060008690600087906000829
:100B10008906000899060008A9060008B906000819
:100B2000C9060008D9060008E9060008F906000809
:100B300009070008190700082907000839070008F5
:100B400049070008570700086507000873070008F1
:100B5000810700088F0700089D070008AB07000801
:100B6000B9070008C7070008D5070008E307000811
:100B7000F1070008FF0700080D0800081B0800081F
:100B8000290800083708000845080008530800082D
:100B9000610800086F0800087D0800088B0800083D
:100BA00099080008A7080008B5080008C30800084D
:100BB000D1080008DF080008ED080008FB0800085D
:100BC0000909000817090008250900083309000869
:100BD000410900084F0900085D0900086B09000879
:100BE000790900088709000895090008A309000889
:100BF000B1090008BF090008CD090008DB09000899
:100C0000E9090008F7090008050A0008130A0008A6
:100C1000210A00082F0A00083D0A00084B0A0008B4
:100C2000590A000880B582B000AF4FF46D43CEF290
:100C300000034FF46D42CEF20002D2F8882042F455
:100C40007002C3F888204FF46D43CEF200034FF4D6
:100C50006D42CEF20002526922F008025A614FF44E
:100C60000043C5F200034FF40042C5F2000252688F
:100C700022F001025A604FF48053C5F6000303F5D9
:100C8000805303F114031B687B607B6823F00F0320
:100C90007B607B6843F003037B604FF48053C5F6B1
:100CA00000037A6803F5805303F114031A6000F01F
:100CB000ABF800F005F807F10807BD4680BD00BF9E
:100CC00080B485B000AF4FF48C43C5F20003DB68FD
:100CD000B3F5803F40F0898044F21073C5F2000301
:100CE0001B6803F00403002B00F0888044F21073AB
:100CF000C5F200039B6803F070634FEA136303F1CE
:100D00000103FB6044F21073C5F200039B6803F417
:100D1000FE434FEA132303F10103BB6044F2107357
:100D2000C5F200039B6803F4FE034FEA134303F18B
:100D300001037B6044F21073C5F20003DB6803F02B
:100D40000103002B28D04FF45853C0F26E13FA68F9
:100D5000B3FBF2F3BA6802FB03F33B603A687B68CB
:100D6000B2FBF3F240F63403C2F200031A6040F61D
:100D70003403C2F200031A684FF48C43C5F2000337
:100D8000DB68DBB203F10103B2FBF3F240F634039C
:100D9000C2F200031A6031E04FF4D853C0F2B70337
:100DA000FA68B3FBF2F3BA6802FB03F33B603A68FC
:100DB0007B68B2FBF3F240F63403C2F200031A6020
:100DC00040F63403C2F200031A684FF48C43C5F2B4
:100DD0000003DB68DBB203F10103B2FBF3F240F680
:100DE0003403C2F200031A6008E040F63403C2F292
:100DF00000034FF45852C0F26E121A6007F1140744
:100E0000BD4680BC704700BF80B582B000AFFFF721
:100E10002AFE0346002B00F0558244F21073C5F2FF
:100E200000035A684FF00203C0F201031340002B85
:100E30000DD044F21073C5F2000344F21072C5F2F3
:100E40000002526822F4803222F002025A604FF40B
:100E50008E43C5F200035B6803F03003002B72D0B1
:100E60004FF48E43C5F200034FF48E42C5F20002E8
:100E7000526822F0F0025A604FF48E43C5F200032C
:100E80004FF48E42C5F20002526842F400325A60BA
:100E900044F21073C5F2000344F21072C5F200026E
:100EA000D26822F00102DA6044F21073C5F2000346
:100EB00044F21072C5F20002526822F400325A6005
:100EC0004EF21003CEF2000344F6A332C0F24C02FD
:100ED0005A604EF21003CEF200034FF000029A6007
:100EE0004EF21003CEF200034FF005021A6044F2F6
:100EF0001073C5F200031B6803F46073B3F5607FE1
:100F000008D04EF21003CEF200039A6840F2F313B9
:100F10009A42ECD84EF21003CEF200034EF21002C9
:100F2000CEF20002126822F001021A6044F210733D
:100F3000C5F200031B6803F46073B3F5607F02D051
:100F40004FF00003C0E144F21073C5F200031B68C8
:100F500003F00403002B40F0B5814FF48C43C5F23D
:100F60000003DB6803F48033002B0BD04FF48C4379
:100F7000C5F200034FF48C42C5F20002D26822F49D
:100F80008032DA604FF46053C1F69C437B607A682C
:100F900049F68173C1F25E63A3FB02134FEA535318
:100FA00003F1FF333B6044F21073C5F2000344F2D7
:100FB0001072C5F20002526842F001025A6044F217
:100FC0001073C5F2000344F21072C5F200025268B9
:100FD00042F010025A6044F21072C5F200023B68FF
:100FE0004FEA034144F60173C0F200130B439360D0
:100FF00044F21073C5F2000344F21072C5F200020D
:10100000526842F040025A6044F21073C5F2000385
:1010100044F21072C5F20002526822F010025A60C7
:1010200044F21073C5F2000344F21072C5F20002DC
:10103000526842F480225A604EF21003CEF200034E
:1010400044F6A332C0F24C025A604EF21003CEF2C4
:1010500000034FF000029A604EF21003CEF200033C
:101060004FF005021A6000BF44F21073C5F200038E
:101070001B6803F00403002B08D14EF21003CEF2DC
:1010800000039A6840F2F3139A42EDD84EF210032F
:10109000CEF200034EF21002CEF20002126822F0ED
:1010A00001021A6044F21073C5F200031B6803F0DA
:1010B0000403002B4ED044F21073C5F2000344F237
:1010C0001072C5F20002526822F001025A604FF419
:1010D0008C43C5F200034FF000021A614FF48C43B9
:1010E000C5F200034FF000025A614FF48C43C5F281
:1010F00000034FF000021A624FF48C43C5F2000364
:101100004FF48C42C5F20002D26842F48032DA60B9
:1011100044F21073C5F2000344F21072C5F20002EB
:10112000526822F040025A604EF21003CEF20003E1
:1011300040F245525A604EF21003CEF200034FF0D7
:1011400000029A604EF21003CEF200034FF0050247
:101150001A6002E04FF00003B6E04EF21003CEF248
:1011600000039B68632BF8D84EF21003CEF2000305
:101170004EF21002CEF20002126822F001021A6052
:101180004FF46053C1F69C437B607B684FEA1322A7
:1011900045F2C743C0F21E13A3FB02134FEA932389
:1011A00003F1FF333B6044F21072C5F200023B686A
:1011B0004FEA034144F60173C0F200130B439360FE
:1011C0004EF21003CEF2000340F61B425A604EF27C
:1011D0001003CEF200034FF000029A604EF21003AB
:1011E000CEF200034FF005021A6000BF4EF210036A
:1011F000CEF200039B68632BF8D84EF21003CEF2B8
:1012000000034EF21002CEF20002126822F0010238
:101210001A604FF46053C1F69C437B607B684FEAD1
:10122000D3124EF22F33C0F2BE03A3FB02134FEAD8
:10123000D32303F1FF333B6044F21072C5F2000286
:101240003B684FEA034144F60173C0F200130B43BD
:1012500093604EF21003CEF2000341F223325A6043
:101260004EF21003CEF200034FF000029A604EF2ED
:101270001003CEF200034FF005021A6000BF4EF2D9
:101280001003CEF200039B68632BF8D84EF21003D4
:10129000CEF200034EF21002CEF20002126822F0EB
:1012A00001021A6044F21073C5F2000344F60172A1
:1012B000C0F203129A6044F26013C5F200034FF0CB
:1012C0000502DA604FF00103184607F10807BD4632
:1012D00080BD00BF06EE900A9FED327AF5EEC06A3F
:1012E00026EE870AF1EE10FAFDEEC07A54D4F8EE3D
:1012F000E70ADFED2D1A30EE601AB6EE004A21EE55
:10130000212A9FED2A5AFCEEC22A9FED296AB8EEE7
:10131000E23A12EE901A72EE433AB1F5807FA8BF1E
:101320004FF4807123EEA37A63EE844A27EE040A19
:1013300063EE856AF0EE405A43EEC65A24EE871AF1
:101340001C4A66EE871A21EAE173B7EE004A02EB07
:10135000830070EE237A31EE473A74EE643A90EDF2
:10136000002A75EEE14AD0ED032A31EEE60A90ED4F
:10137000015A77EEC15AD0ED020A33EE237A24EEF9
:10138000826A60EE226A07EE056A45EEA06A36EED2
:10139000261A11EE100A704717EE903A581E07EE03
:1013A000900AA4E783F9223E00008043ABAA2A3EBC
:1013B000ABAAAA3E7C1B000806EE900A9FED327A8B
:1013C000F5EEC06A26EE870AF1EE10FAFDEEC07A5D
:1013D00054D4F8EEE70ADFED2D1A30EE601AB6EEBF
:1013E000004A21EE212A9FED2A5AFCEEC22A9FEDE7
:1013F000296AB8EEE23A12EE901A72EE433AB1F56B
:10140000807FA8BF4FF4807123EEA37A63EE844AF5
:1014100027EE040A63EE856AF0EE405A43EEC65AA0
:1014200024EE871A1C4A66EE871A21EAE173B7EEAA
:10143000004A02EB830070EE237A31EE473A74EEF5
:10144000643A90ED002A75EEE14AD0ED032A31EEC0
:10145000E60A90ED015A77EEC15AD0ED020A33EE5A
:10146000237A24EE826A60EE226A07EE056A45EE70
:10147000A06A36EE261A11EE100A704717EE903A5F
:10148000581E07EE900AA4E783F9223E000080432D
:10149000ABAA2A3EABAAAA3E8C1F00082DE9F00792
:1014A0005FEA930A00F0A880D0ED014AD1ED016A0D
:1014B00090ED025A91ED027AD0ED035AD1ED037A04
:1014C00090ED004A91ED006A0AF1FF3434EE060A0D
:1014D00074EEA60A35EE071A75EEA71A06460D46F3
:1014E000A14604F001071036103582ED000AC2ED66
:1014F000010A82ED021AC2ED031A02F11004B9F1D9
:10150000000F74D03FB3B0462F4696ED012AD5EDBB
:10151000012A96ED023AD5ED023A96ED035AD5ED41
:10152000035AD8ED004A97ED007A72EE226A34EE43
:10153000874A33EE236A75EE257A1036103584ED2E
:10154000004AC4ED016A84ED026AC4ED037A1034E6
:10155000B9F101094BD096ED000AD5ED000A96EDE0
:10156000011AD5ED011A96ED022AD5ED022A96ED63
:10157000033AD5ED033A30EE205A71EE215A72EE5D
:10158000224A33EE237A84ED005AC4ED015AC4EDA9
:10159000024A84ED037A96ED044A95ED046A96EDCD
:1015A000050AD5ED056AD6ED060A95ED061AD6EDC3
:1015B000071AD5ED077A34EE062A70EE262A30EEA9
:1015C000813A71EEA73A2F4604F1100884ED042AFF
:1015D000C4ED052A84ED063AC4ED073A10372034ED
:1015E000B9F1020906F1200605F12005B3D14FEA51
:1015F0000A1400190919121913F0030331D090EDE0
:10160000005AD1ED005A5C1E75EE254A2346E2ECE5
:10161000014A04F0010423B36CB10430043190EDAD
:10162000007A91ED004A37EE046A013B04460F460A
:10163000A2EC016A15D090ED010AD1ED016A70EEBD
:10164000260A1446E4EC010A90ED021AD1ED021AC2
:1016500071EE217A0830C2ED017A0831221D023B79
:10166000E9D1BDE8F00770472DE9F0035FEA930880
:1016700000F0A580D1ED007A90ED007A27EE270AE0
:10168000D0ED025AD1ED020A90ED015AD1ED016A76
:1016900090ED036A82ED000A91ED031A08F1FF351F
:1016A00065EE261A25EEA02A66EE012A0646AC460D
:1016B00005F001071036C2ED011A82ED022AC2EDD3
:1016C000032A01F1100502F11004BCF1000F71D0E2
:1016D00037B3B146D5ED004AD9ED007A27EEA40A1A
:1016E00096ED023AD6ED013A96ED034A95ED027A6F
:1016F000D5ED015A84ED000AD5ED030A23EEA55A73
:1017000063EE076A24EE206A103684ED015AC4EDB8
:10171000026A84ED036A10351034BCF1010C49D023
:1017200095ED001AD6ED001A21EE812AD6ED022A97
:1017300095ED023AD6ED013A95ED014AD6ED034A10
:1017400084ED002AD5ED037A23EE840A22EE837A13
:1017500064EEA75A84ED010A84ED027AC4ED035ABF
:10176000D6ED040A95ED045A20EE851AD6ED061A38
:1017700095ED062AD6ED052AD5ED056A96ED076AA0
:1017800084ED041A95ED073A62EEA63A21EE824AFC
:1017900066EE034A3746C4ED053A84ED064AC4EDC9
:1017A000074A103720352034BCF1020CB14606F14F
:1017B0002006B5D14FEA081400190919121913F0BF
:1017C000030331D090ED000AD1ED007A5C1E20EECB
:1017D000277A2346A2EC017A04F0010423B36CB10A
:1017E00004300431D0ED005AD1ED000A25EEA05AA4
:1017F000013B04460F46A2EC015A15D090ED011AA8
:10180000D1ED011A21EE212A1446A4EC012AD0EDD3
:10181000022AD1ED026A22EEA66A083082ED016A40
:101820000831221D023BE9D1BDE8F003704700BF3B
:10183000F8B5204F204C381B871017D07A1E23682C
:10184000012502F001069847AF420FD02EB154F89F
:10185000041F02258847AF4208D0606880470235E0
:10186000A268261D90470834AF42F6D1134F144C9E
:1018700000F028F93B1B9F1018D07D1E216805F051
:10188000010601258847AF4211D02EB154F8040F4C
:1018900002258047AF420BD0626890470235A368AB
:1018A000261D98470834AF42F6D1F8BDF8BDF8BD03
:1018B000F8BD00BFE81A0008E81A0008E81A000896
:1018C000E81A000880B485B000AFF860B9607A60AB
:1018D0004FF0FF33184607F11407BD4680BC704730
:1018E00080B485B000AFF860B9607A604FF0FF3324
:1018F000184607F11407BD4680BC704780B485B018
:1019000000AFF860B9607A604FF00003184607F145
:101910001407BD4680BC704780B485B000AFF86046
:10192000B9607A604FF0FF33184607F11407BD46DF
:1019300080BC704780B400AF4FF0FF331846BD46FF
:1019400080BC704780B483B000AF786039603B687A
:10195000002B02D04FF0FF3301E06FF00103184677
:1019600007F10C07BD4680BC704700BF80B483B050
:1019700000AF786039607A683B689A4202D14FF0D4
:10198000FF3301E06FF00103184607F10C07BD4675
:1019900080BC704780B483B000AF78604FF0FF33F5
:1019A000184607F10C07BD4680BC704780B487B06D
:1019B00000AF78604FF2C873C0F200037B6140F65D
:1019C0000403C2F200031B68002B14D140F6040389
:1019D000C2F2000340F63802C2F200021A6040F67A
:1019E0000403C2F200031A687B69D21840F60803A8
:1019F000C2F200031A6040F60403C2F200031B683F
:101A00003B6140F60403C2F200031B681A467B6880
:101A1000D31803F1070323F00703FB6040F6080324
:101A2000C2F200031B68FA689A4202D34FF0000327
:101A300006E040F60403C2F20003FA681A603B694C
:101A4000184607F11C07BD4680BC704780B483B0C0
:101A500000AF78604FF0FF33184607F10C07BD4622
:101A600080BC704780B483B000AF78604FF0FF3324
:101A7000184607F10C07BD4680BC704780B483B0A0
:101A800000AF786039604FF0FF33184607F10C075C
:101A9000BD4680BC704700BF80B400AF4FF0FF333D
:101AA0001846BD4680BC704780B400AF4FF0FF338E
:101AB0001846BD4680BC704780B483B000AF7860E4
:101AC000FEE700BF80B400AFBD4680BC704700BFDA
:101AD00080B483B000AF78604FF0FF33184607F151
:081AE0000C07BD4680BC7047F5
:101AE80018E7FF7F010000002CE7FF7F01000000DE
:101AF80070599FBFA16499C054AEB83E32F3533FAA
:101B0800892B53C0355B5B40A1085B40ACD0DDBD81
:101B18003C23713F05AB003F768F09BF2FAF0540CF
:101B2800C0B9D8BFDB0FC940C6FBC8BE9BE1A73E02
:101B38004C7D4440C2B42E3EDBF08CBEC14F19C070
:101B480062E9583FF31C76C087920340E4859540CC
:101B580091D6FEBF19091E40E6F966408CC692C0B0
:101B6800E1B484C09F66D23F974F93BFDC2EFE3FFF
:101B78000000803F43EC7F3F0000803F43EC7F3F05
:101B88000FB17F3F6D4E7F3F6DC47E3F24137E3F74
:101B9800AC3A7D3F283B7C3FBE147B3F9DC7793FD5
:101BA800F853783F07BA763F0BFA743F4714733FF0
:101BB8000809713F9ED86E3F5E836C3FA7096A3F54
:101BC800D86B673F59AA643F98C5613F05BE5E3F21
:101BD8001A945B3F5348583F31DB543F3D4D513FCA
:101BE800029F4D3F12D1493F03E4453F70D8413F22
:101BF800F9AE3D3F4268393FF304353FBB85303F7E
:101C08004AEB2B3F5636273F9967223FD17F1D3F2E
:101C1800C07F183F2A68133FDA390E3F9BF5083F0B
:101C28003D9C033F275DFC3EEA5AF13E7533E63E94
:101C380080E8DA3ECA7BCF3E15EFC33E2A44B83E61
:101C4800D47CAC3EE59AA03E31A0943E938E883E6B
:101C5800CCCF783E135C603EC2C5473EA2102F3EF3
:101C68008340163E73B2FA3D36BDC83D05A9963D80
:101C780030FB483DB00AC93C0BA88C24B00AC9BC4B
:101C880030FB48BD05A996BD36BDC8BD73B2FABDC7
:101C9800834016BEA2102FBEC2C547BE135C60BEED
:101CA800CCCF78BE938E88BE31A094BEE59AA0BEF4
:101CB800D47CACBE2A44B8BE15EFC3BECA7BCFBE27
:101CC80080E8DABE7533E6BEEA5AF1BE275DFCBE8F
:101CD8003D9C03BF9BF508BFDA390EBF2A6813BFC6
:101CE800C07F18BFD17F1DBF996722BF563627BF57
:101CF8004AEB2BBFBB8530BFF30435BF426839BF01
:101D0800F9AE3DBF70D841BF03E445BF12D149BF0A
:101D1800029F4DBF3D4D51BF31DB54BF534858BFA3
:101D28001A945BBF05BE5EBF98C561BF59AA64BF60
:101D3800D86B67BFA7096ABF5E836CBF9ED86EBFAA
:101D4800080971BF471473BF0BFA74BF07BA76BF8F
:101D5800F85378BF9DC779BFBE147BBF283B7CBFB3
:101D6800AC3A7DBF24137EBF6DC47EBF6D4E7FBF6E
:101D78000FB17FBF43EC7FBF000080BF43EC7FBF44
:101D88000FB17FBF6D4E7FBF6DC47EBF24137EBF72
:101D9800AC3A7DBF283B7CBFBE147BBF9DC779BFD3
:101DA800F85378BF07BA76BF0BFA74BF471473BFEE
:101DB800080971BF9ED86EBF5E836CBFA7096ABF52
:101DC800D86B67BF59AA64BF98C561BF05BE5EBF1F
:101DD8001A945BBF534858BF31DB54BF3D4D51BFC8
:101DE800029F4DBF12D149BF03E445BF70D841BF20
:101DF800F9AE3DBF426839BFF30435BFBB8530BF7C
:101E08004AEB2BBF563627BF996722BFD17F1DBF2C
:101E1800C07F18BF2A6813BFDA390EBF9BF508BF09
:101E28003D9C03BF275DFCBEEA5AF1BE7533E6BE92
:101E380080E8DABECA7BCFBE15EFC3BE2A44B8BE5F
:101E4800D47CACBEE59AA0BE31A094BE938E88BE69
:101E5800CCCF78BE135C60BEC2C547BEA2102FBEF1
:101E6800834016BE73B2FABD36BDC8BD05A996BD7E
:101E780030FB48BDB00AC9BC372354A5B00AC93CD9
:101E880030FB483D05A9963D36BDC83D73B2FA3DC5
:101E98008340163EA2102F3EC2C5473E135C603EEB
:101EA800CCCF783E938E883E31A0943EE59AA03EF2
:101EB800D47CAC3E2A44B83E15EFC33ECA7BCF3E25
:101EC80080E8DA3E7533E63EEA5AF13E275DFC3E8D
:101ED8003D9C033F9BF5083FDA390E3F2A68133FC4
:101EE800C07F183FD17F1D3F9967223F5636273F55
:101EF8004AEB2B3FBB85303FF304353F4268393FFF
:101F0800F9AE3D3F70D8413F03E4453F12D1493F08
:101F1800029F4D3F3D4D513F31DB543F5348583FA1
:101F28001A945B3F05BE5E3F98C5613F59AA643F5E
:101F3800D86B673FA7096A3F5E836C3F9ED86E3FA8
:101F48000809713F4714733F0BFA743F07BA763F8D
:101F5800F853783F9DC7793FBE147B3F283B7C3FB1
:101F6800AC3A7D3F24137E3F6DC47E3F6D4E7F3F6C
:101F78000FB17F3F43EC7F3F0000803F43EC7F3F42
:101F88000FB17F3FB00AC9BC00000000B00AC93CCD
:101F980030FB483D05A9963D36BDC83D73B2FA3DB4
:101FA8008340163EA2102F3EC2C5473E135C603EDA
:101FB800CCCF783E938E883E31A0943EE59AA03EE1
:101FC800D47CAC3E2A44B83E15EFC33ECA7BCF3E14
:101FD80080E8DA3E7533E63EEA5AF13E275DFC3E7C
:101FE8003D9C033F9BF5083FDA390E3F2A68133FB3
:101FF800C07F183FD17F1D3F9967223F5636273F44
:102008004AEB2B3FBB85303FF304353F4268393FED
:10201800F9AE3D3F70D8413F03E4453F12D1493FF7
:10202800029F4D3F3D4D513F31DB543F5348583F90
:102038001A945B3F05BE5E3F98C5613F59AA643F4D
:10204800D86B673FA7096A3F5E836C3F9ED86E3F97
:102058000809713F4714733F0BFA743F07BA763F7C
:10206800F853783F9DC7793FBE147B3F283B7C3FA0
:10207800AC3A7D3F24137E3F6DC47E3F6D4E7F3F5B
:102088000FB17F3F43EC7F3F0000803F43EC7F3F31
:102098000FB17F3F6D4E7F3F6DC47E3F24137E3F5F
:1020A800AC3A7D3F283B7C3FBE147B3F9DC7793FC0
:1020B800F853783F07BA763F0BFA743F4714733FDB
:1020C8000809713F9ED86E3F5E836C3FA7096A3F3F
:1020D800D86B673F59AA643F98C5613F05BE5E3F0C
:1020E8001A945B3F5348583F31DB543F3D4D513FB5
:1020F800029F4D3F12D1493F03E4453F70D8413F0D
:10210800F9AE3D3F4268393FF304353FBB85303F68
:102118004AEB2B3F5636273F9967223FD17F1D3F19
:10212800C07F183F2A68133FDA390E3F9BF5083FF6
:102138003D9C033F275DFC3EEA5AF13E7533E63E7F
:1021480080E8DA3ECA7BCF3E15EFC33E2A44B83E4C
:10215800D47CAC3EE59AA03E31A0943E938E883E56
:10216800CCCF783E135C603EC2C5473EA2102F3EDE
:102178008340163E73B2FA3D36BDC83D05A9963D6B
:1021880030FB483DB00AC93C0BA80C25B00AC9BCB5
:1021980030FB48BD05A996BD36BDC8BD73B2FABDB2
:1021A800834016BEA2102FBEC2C547BE135C60BED8
:1021B800CCCF78BE938E88BE31A094BEE59AA0BEDF
:1021C800D47CACBE2A44B8BE15EFC3BECA7BCFBE12
:1021D80080E8DABE7533E6BEEA5AF1BE275DFCBE7A
:1021E8003D9C03BF9BF508BFDA390EBF2A6813BFB1
:1021F800C07F18BFD17F1DBF996722BF563627BF42
:102208004AEB2BBFBB8530BFF30435BF426839BFEB
:10221800F9AE3DBF70D841BF03E445BF12D149BFF5
:10222800029F4DBF3D4D51BF31DB54BF534858BF8E
:102238001A945BBF05BE5EBF98C561BF59AA64BF4B
:10224800D86B67BFA7096ABF5E836CBF9ED86EBF95
:10225800080971BF471473BF0BFA74BF07BA76BF7A
:10226800F85378BF9DC779BFBE147BBF283B7CBF9E
:10227800AC3A7DBF24137EBF6DC47EBF6D4E7FBF59
:102288000FB17FBF43EC7FBF000080BF43EC7FBF2F
:102298000FB17FBF6D4E7FBF6DC47EBF24137EBF5D
:1022A800AC3A7DBF283B7CBFBE147BBF9DC779BFBE
:1022B800F85378BF07BA76BF0BFA74BF471473BFD9
:1022C800080971BF9ED86EBF5E836CBFA7096ABF3D
:1022D800D86B67BF59AA64BF98C561BF05BE5EBF0A
:1022E8001A945BBF534858BF31DB54BF3D4D51BFB3
:1022F800029F4DBF12D149BF03E445BF70D841BF0B
:10230800F9AE3DBF426839BFF30435BFBB8530BF66
:102318004AEB2BBF563627BF996722BFD17F1DBF17
:10232800C07F18BF2A6813BFDA390EBF9BF508BFF4
:102338003D9C03BF275DFCBEEA5AF1BE7533E6BE7D
:1023480080E8DABECA7BCFBE15EFC3BE2A44B8BE4A
:10235800D47CACBEE59AA0BE31A094BE938E88BE54
:10236800CCCF78BE135C60BEC2C547BEA2102FBEDC
:10237800834016BE73B2FABD36BDC8BD05A996BD69
:1023880030FB48BDB00AC9BC9E3B8DA5B00AC93C0C
:0823A00020000000000E2707D9
:0400000508000201EC
:00000001FF
