:020000040C00EE
:100000000008002001020008C7050008D705000805
:10001000E7050008F70500080706000800000000D3
:1000200000000000000000000000000017060008AB
:1000300027060008000000003706000847060008F1
:1000400057060008670600087706000887060008BC
:1000500097060008A7060008B7060008C7060008AC
:10006000D7060008000000000000000000000000AB
:10007000E706000800000000F70600080707000870
:100080001707000827070008370700084707000878
:100090005707000867070008770700088707000868
:1000A00097070008A7070008B7070008C707000858
:1000B000D7070008E7070008F70700080708000847
:1000C0001708000827080008370800084708000834
:1000D0005708000867080008770800088708000824
:1000E00097080008A7080008B7080008C708000814
:1000F000D7080008E7080008F70800080709000803
:1001000017090008250900083309000841090008FB
:100110004F0900085D0900086B090008790900080B
:100120008709000895090008A3090008B10900081B
:10013000BF090008CD090008DB090008E90900082B
:10014000F7090008050A0008130A0008210A000838
:100150002F0A00083D0A00084B0A0008590A000847
:10016000000000000000000000000000000000008F
:10017000670A0008750A0008830A0008910A000847
:100180009F0A0008AD0A0008BB0A0008C90A000857
:10019000D70A0008E50A0008F30A0008010B000866
:1001A0000F0B00081D0B00082B0B0008390B000873
:1001B000470B0008550B0008630B0008710B000883
:1001C0007F0B00088D0B00089B0B0008A90B000893
:1001D000B70B0008C50B0008D30B00080000000097
:1001E000E10B0008EF0B0008FD0B00080B0C0008EA
:1001F000190C000800000000270C00080000000097
:10020000DFF80CD0034880470348804700F006B869
:1002100000080020F10D0008C50200081E481F4913
:100220001F4A002A00F01280042A80F002804FF05A
:1002300004024FEA920203680B60013A00F0068064
:1002400000F1040001F10401FFF7F5BF154816495C
:10025000002900F01180042980F002804FF0040191
:100260004FEA91014FF000020260013900F0048072
:1002700000F10400FFF7F8BF0C480D4908600D4875
:1002800080470D488047DFF834D04FF000004FF032
:100290000001DFF82CF00000D056000CF00E00201A
:1002A0004C0E000000080020F006000000000008CE
:1002B00008ED00E08D0E0008F14300080008002062
:1002C000C902000800BF704780B59AB002AF41F282
:1002D000F033C2F200037B6540F60003C2F2000374
:1002E0003B6541F6F003C2F200031A6813464FEA79
:1002F00083039B184FEA430303F15A034FEA830237
:1003000044F2E473C0F60003D31807F140024FF043
:100310000201009110464FF002011A4640F60053C8
:10032000C2F2000301F09EFF41F6F003C2F20003A7
:100330005A6813464FEA83039B184FEA430303F5B9
:100340008C734FEA830244F2E473C0F60003D318BF
:1003500007F130024FF00201009110464FF0020108
:100360001A4640F64053C2F2000301F07BFF41F60B
:10037000F003C2F200039A6813464FEA83039B1806
:100380004FEA430303F5EB734FEA830244F2E4734D
:10039000C0F60003D31807F120024FF002010091CC
:1003A00010464FF002011A4640F68053C2F2000395
:1003B00002F00EFB41F6F003C2F20003DA681346C6
:1003C0004FEA83039B184FEA430303F525734FEA73
:1003D000830244F2E473C0F60003D31807F110025D
:1003E0004FF00201009110464FF002011A4640F60C
:1003F000A053C2F2000302F0EBFA41F6F003C2F29E
:1004000000031A6913464FEA83039B184FEA43031C
:1004100003F252334FEA830244F2E473C0F600035E
:10042000D3183A464FF00201009110464FF00201F6
:100430001A4640F6C053C2F2000302F0C9FA4FF068
:100440000003FB658CE0FB6D4FEAC3137A6DD31894
:10045000184640F6EC51C2F200014FF0200201F0C4
:10046000BDFC4FF02003009340F6EC50C2F20000B8
:100470006FF000416FF0020240F6EC53C2F200034D
:1004800002F0F2FC07F14003184640F6EC51C2F2CC
:10049000000140F66C62C2F200024FF0200301F04E
:1004A000F1FE07F13003184640F66C61C2F200011C
:1004B00040F66C62C2F200024FF0200301F0E2FE4F
:1004C00007F12003184640F66C61C2F2000140F6C5
:1004D0006C62C2F200024FF0200302F089FA07F1C9
:1004E0001003184640F66C61C2F2000140F66C62DF
:1004F000C2F200024FF0200302F07AFA3B4618469F
:1005000040F66C61C2F2000140F66C62C2F2000279
:100510004FF0200302F06CFAFB6D4FEAC3133A6D03
:10052000D31840F66C60C2F2000019464FF020026A
:1005300001F0BCFDFB6D4FEAC3133A6DD218FB6DA1
:100540004FEAC313396DCB1810464FF082411A465B
:100550004FF0200302F0DAFBFB6D03F10103FB65B2
:10056000FB6D092B7FF76FAF40F6F060C2F2000021
:1005700040F60001C2F200014FF4A07200F090FFBB
:10058000024640F6EC63C2F200031A6040F6EC63E8
:10059000C2F2000393ED007ADFED097AB4EEE77A58
:1005A000F1EE10FA03D56FF00503BB6502E04FF0E2
:1005B0000003BB65BB6D002B00D0FEE7FEE700BF6C
:1005C0000000C442FEE7DFF8700600B581B0804746
:1005D00001B000BDFEE7DFF8640600B581B08047DA
:1005E00001B000BDFEE7DFF8580600B581B08047D6
:1005F00001B000BDFEE7DFF84C0600B581B08047D2
:1006000001B000BDFEE7DFF8400600B581B08047CD
:1006100001B000BDFEE7DFF8340600B581B08047C9
:1006200001B000BDFEE7DFF8280600B581B08047C5
:1006300001B000BDFEE7DFF81C0600B581B08047C1
:1006400001B000BDFEE7DFF8100600B581B08047BD
:1006500001B000BDFEE7DFF8040600B581B08047B9
:1006600001B000BDFEE7DFF8F80500B581B08047B6
:1006700001B000BDFEE7DFF8EC0500B581B08047B2
:1006800001B000BDFEE7DFF8E00500B581B08047AE
:1006900001B000BDFEE7DFF8D40500B581B08047AA
:1006A00001B000BDFEE7DFF8C80500B581B08047A6
:1006B00001B000BDFEE7DFF8BC0500B581B08047A2
:1006C00001B000BDFEE7DFF8B00500B581B080479E
:1006D00001B000BDFEE7DFF8A40500B581B080479A
:1006E00001B000BDFEE7DFF8980500B581B0804796
:1006F00001B000BDFEE7DFF88C0500B581B0804792
:1007000001B000BDFEE7DFF8800500B581B080478D
:1007100001B000BDFEE7DFF8740500B581B0804789
:1007200001B000BDFEE7DFF8680500B581B0804785
:1007300001B000BDFEE7DFF85C0500B581B0804781
:1007400001B000BDFEE7DFF8500500B581B080477D
:1007500001B000BDFEE7DFF8440500B581B0804779
:1007600001B000BDFEE7DFF8380500B581B0804775
:1007700001B000BDFEE7DFF82C0500B581B0804771
:1007800001B000BDFEE7DFF8200500B581B080476D
:1007900001B000BDFEE7DFF8140500B581B0804769
:1007A00001B000BDFEE7DFF8080500B581B0804765
:1007B00001B000BDFEE7DFF8FC0400B581B0804762
:1007C00001B000BDFEE7DFF8F00400B581B080475E
:1007D00001B000BDFEE7DFF8E40400B581B080475A
:1007E00001B000BDFEE7DFF8D80400B581B0804756
:1007F00001B000BDFEE7DFF8CC0400B581B0804752
:1008000001B000BDFEE7DFF8C00400B581B080474D
:1008100001B000BDFEE7DFF8B40400B581B0804749
:1008200001B000BDFEE7DFF8A80400B581B0804745
:1008300001B000BDFEE7DFF89C0400B581B0804741
:1008400001B000BDFEE7DFF8900400B581B080473D
:1008500001B000BDFEE7DFF8840400B581B0804739
:1008600001B000BDFEE7DFF8780400B581B0804735
:1008700001B000BDFEE7DFF86C0400B581B0804731
:1008800001B000BDFEE7DFF8600400B581B080472D
:1008900001B000BDFEE7DFF8540400B581B0804729
:1008A00001B000BDFEE7DFF8480400B581B0804725
:1008B00001B000BDFEE7DFF83C0400B581B0804721
:1008C00001B000BDFEE7DFF8300400B581B080471D
:1008D00001B000BDFEE7DFF8240400B581B0804719
:1008E00001B000BDFEE7DFF8180400B581B0804715
:1008F00001B000BDFEE7DFF80C0400B581B0804711
:1009000001B000BDFEE7DFF8000400B581B080470C
:1009100001B000BDFEE7FD4800B581B0804701B0E1
:1009200000BDFEE7FA4800B581B0804701B000BDC8
:10093000FEE7F84800B581B0804701B000BDFEE792
:10094000F54800B581B0804701B000BDFEE7F3482F
:1009500000B581B0804701B000BDFEE7F04800B5AA
:1009600081B0804701B000BDFEE7EE4800B581B020
:10097000804701B000BDFEE7EB4800B581B080477D
:1009800001B000BDFEE7E94800B581B0804701B085
:1009900000BDFEE7E64800B581B0804701B000BD6C
:1009A000FEE7E44800B581B0804701B000BDFEE736
:1009B000E14800B581B0804701B000BDFEE7DF48E7
:1009C00000B581B0804701B000BDFEE7DC4800B54E
:1009D00081B0804701B000BDFEE7DA4800B581B0C4
:1009E000804701B000BDFEE7D74800B581B0804721
:1009F00001B000BDFEE7D54800B581B0804701B029
:100A000000BDFEE7D24800B581B0804701B000BD0F
:100A1000FEE7D04800B581B0804701B000BDFEE7D9
:100A2000CD4800B581B0804701B000BDFEE7CB489E
:100A300000B581B0804701B000BDFEE7C84800B5F1
:100A400081B0804701B000BDFEE7C64800B581B067
:100A5000804701B000BDFEE7C34800B581B08047C4
:100A600001B000BDFEE7C14800B581B0804701B0CC
:100A700000BDFEE7BE4800B581B0804701B000BDB3
:100A8000FEE7BC4800B581B0804701B000BDFEE77D
:100A9000B94800B581B0804701B000BDFEE7B74856
:100AA00000B581B0804701B000BDFEE7B44800B595
:100AB00081B0804701B000BDFEE7B24800B581B00B
:100AC000804701B000BDFEE7AF4800B581B0804768
:100AD00001B000BDFEE7AD4800B581B0804701B070
:100AE00000BDFEE7AA4800B581B0804701B000BD57
:100AF000FEE7A84800B581B0804701B000BDFEE721
:100B0000A54800B581B0804701B000BDFEE7A3480D
:100B100000B581B0804701B000BDFEE7A04800B538
:100B200081B0804701B000BDFEE79E4800B581B0AE
:100B3000804701B000BDFEE79B4800B581B080470B
:100B400001B000BDFEE7994800B581B0804701B013
:100B500000BDFEE7964800B581B0804701B000BDFA
:100B6000FEE7944800B581B0804701B000BDFEE7C4
:100B7000914800B581B0804701B000BDFEE78F48C5
:100B800000B581B0804701B000BDFEE78C4800B5DC
:100B900081B0804701B000BDFEE78A4800B581B052
:100BA000804701B000BDFEE7874800B581B08047AF
:100BB00001B000BDFEE7854800B581B0804701B0B7
:100BC00000BDFEE7824800B581B0804701B000BD9E
:100BD000FEE7804800B581B0804701B000BDFEE768
:100BE0007D4800B581B0804701B000BDFEE77B487D
:100BF00000B581B0804701B000BDFEE7784800B580
:100C000081B0804701B000BDFEE7764800B581B0F5
:100C1000804701B000BDFEE7734800B581B0804752
:100C200001B000BDFEE7714800B581B0804701B05A
:100C300000BD4FF001007047C5050008D50500084C
:100C4000E5050008F505000805060008150600087A
:100C50002506000835060008450600085506000868
:100C60006506000875060008850600089506000858
:100C7000A5060008B5060008C5060008D506000848
:100C8000E5060008F5060008050700081507000836
:100C90002507000835070008450700085507000824
:100CA0006507000875070008850700089507000814
:100CB000A5070008B5070008C5070008D507000804
:100CC000E5070008F50700080508000815080008F2
:100CD00025080008350800084508000855080008E0
:100CE00065080008750800088508000895080008D0
:100CF000A5080008B5080008C5080008D5080008C0
:100D0000E5080008F50800080509000815090008AD
:100D100023090008310900083F0900084D090008AF
:100D20005B090008690900087709000885090008BF
:100D300093090008A1090008AF090008BD090008CF
:100D4000CB090008D9090008E7090008F5090008DF
:100D5000030A0008110A00081F0A00082D0A0008EB
:100D60003B0A0008490A0008570A0008650A0008FB
:100D7000730A0008810A00088F0A00089D0A00080B
:100D8000AB0A0008B90A0008C70A0008D50A00081B
:100D9000E30A0008F10A0008FF0A00080D0B00082A
:100DA0001B0B0008290B0008370B0008450B000837
:100DB000530B0008610B00086F0B00087D0B000847
:100DC0008B0B0008990B0008A70B0008B50B000857
:100DD000C30B0008D10B0008DF0B0008ED0B000867
:100DE000FB0B0008090C0008170C0008250C000874
:100DF00080B582B000AF4FF46D43CEF200034FF4E4
:100E00006D42CEF20002D2F8882042F47002C3F89C
:100E100088204FF46D43CEF200034FF46D42CEF2C2
:100E20000002526922F008025A614FF40043C5F2F1
:100E300000034FF40042C5F20002526822F00102A2
:100E40005A604FF48053C5F6000303F5805303F155
:100E500014031B687B607B6823F00F037B607B6857
:100E600043F003037B604FF48053C5F600037A68B8
:100E700003F5805303F114031A6000F0ABF800F09F
:100E800005F807F10807BD4680BD00BF80B485B0F6
:100E900000AF4FF48C43C5F20003DB68B3F5803F2D
:100EA00040F0898044F21073C5F200031B6803F020
:100EB0000403002B00F0888044F21073C5F2000395
:100EC0009B6803F070634FEA136303F10103FB6057
:100ED00044F21073C5F200039B6803F4FE434FEA2B
:100EE000132303F10103BB6044F21073C5F2000346
:100EF0009B6803F4FE034FEA134303F101037B6095
:100F000044F21073C5F20003DB6803F00103002B09
:100F100028D04FF45853C0F26E13FA68B3FBF2F3C3
:100F2000BA6802FB03F33B603A687B68B2FBF3F2FA
:100F300041F60413C2F200031A6041F60413C2F230
:100F400000031A684FF48C43C5F20003DB68DBB280
:100F500003F10103B2FBF3F241F60413C2F2000302
:100F60001A6031E04FF4D853C0F2B703FA68B3FB0C
:100F7000F2F3BA6802FB03F33B603A687B68B2FBAA
:100F8000F3F241F60413C2F200031A6041F60413AF
:100F9000C2F200031A684FF48C43C5F20003DB6809
:100FA000DBB203F10103B2FBF3F241F60413C2F228
:100FB00000031A6008E041F60413C2F200034FF484
:100FC0005852C0F26E121A6007F11407BD4680BC79
:100FD000704700BF80B582B000AFFFF72AFE03461E
:100FE000002B00F0558244F21073C5F200035A68DA
:100FF0004FF00203C0F201031340002B0DD044F266
:101000001073C5F2000344F21072C5F20002526878
:1010100022F4803222F002025A604FF48E43C5F26D
:1010200000035B6803F03003002B72D04FF48E4353
:10103000C5F200034FF48E42C5F20002526822F05E
:10104000F0025A604FF48E43C5F200034FF48E4213
:10105000C5F20002526842F400325A6044F2107342
:10106000C5F2000344F21072C5F20002D26822F009
:101070000102DA6044F21073C5F2000344F2107208
:10108000C5F20002526822F400325A604EF2100398
:10109000CEF2000344F6A332C0F24C025A604EF284
:1010A0001003CEF200034FF000029A604EF21003DC
:1010B000CEF200034FF005021A6044F21073C5F23D
:1010C00000031B6803F46073B3F5607F08D04EF231
:1010D0001003CEF200039A6840F2F3139A42ECD860
:1010E0004EF21003CEF200034EF21002CEF20002D6
:1010F000126822F001021A6044F21073C5F2000374
:101100001B6803F46073B3F5607F02D04FF00003F7
:10111000C0E144F21073C5F200031B6803F004033E
:10112000002B40F0B5814FF48C43C5F20003DB681F
:1011300003F48033002B0BD04FF48C43C5F2000333
:101140004FF48C42C5F20002D26822F48032DA6099
:101150004FF46053C1F69C437B607A6849F6817313
:10116000C1F25E63A3FB02134FEA535303F1FF3353
:101170003B6044F21073C5F2000344F21072C5F2F2
:101180000002526842F001025A6044F21073C5F244
:10119000000344F21072C5F20002526842F01002DD
:1011A0005A6044F21072C5F200023B684FEA0341F4
:1011B00044F60173C0F200130B43936044F21073C2
:1011C000C5F2000344F21072C5F20002526842F008
:1011D00040025A6044F21073C5F2000344F21072E8
:1011E000C5F20002526822F010025A6044F21073F5
:1011F000C5F2000344F21072C5F20002526842F4D4
:1012000080225A604EF21003CEF2000344F6A3325D
:10121000C0F24C025A604EF21003CEF200034FF0BF
:1012200000029A604EF21003CEF200034FF0050266
:101230001A6000BF44F21073C5F200031B6803F08C
:101240000403002B08D14EF21003CEF200039A687B
:1012500040F2F3139A42EDD84EF21003CEF200039F
:101260004EF21002CEF20002126822F001021A6061
:1012700044F21073C5F200031B6803F00403002B53
:101280004ED044F21073C5F2000344F21072C5F25E
:101290000002526822F001025A604FF48C43C5F2FA
:1012A00000034FF000021A614FF48C43C5F20003B3
:1012B0004FF000025A614FF48C43C5F200034FF027
:1012C00000021A624FF48C43C5F200034FF48C42C3
:1012D000C5F20002D26842F48032DA6044F2107340
:1012E000C5F2000344F21072C5F20002526822F007
:1012F00040025A604EF21003CEF2000340F2455213
:101300005A604EF21003CEF200034FF000029A60D2
:101310004EF21003CEF200034FF005021A6002E015
:101320004FF00003B6E04EF21003CEF200039B68CC
:10133000632BF8D84EF21003CEF200034EF21002E7
:10134000CEF20002126822F001021A604FF46053DC
:10135000C1F69C437B607B684FEA132245F2C7438A
:10136000C0F21E13A3FB02134FEA932303F1FF33D2
:101370003B6044F21072C5F200023B684FEA034141
:1013800044F60173C0F200130B4393604EF2100356
:10139000CEF2000340F61B425A604EF21003CEF22A
:1013A00000034FF000029A604EF21003CEF20003E9
:1013B0004FF005021A6000BF4EF21003CEF2000398
:1013C0009B68632BF8D84EF21003CEF200034EF266
:1013D0001002CEF20002126822F001021A604FF4ED
:1013E0006053C1F69C437B607B684FEAD3124EF298
:1013F0002F33C0F2BE03A3FB02134FEAD32303F142
:10140000FF333B6044F21072C5F200023B684FEAC2
:10141000034144F60173C0F200130B4393604EF294
:101420001003CEF2000341F223325A604EF2100351
:10143000CEF200034FF000029A604EF21003CEF29B
:1014400000034FF005021A6000BF4EF21003CEF207
:1014500000039B68632BF8D84EF21003CEF2000312
:101460004EF21002CEF20002126822F001021A605F
:1014700044F21073C5F2000344F60172C0F2031285
:101480009A6044F26013C5F200034FF00502DA607F
:101490004FF00103184607F10807BD4680BD00BFA5
:1014A00080B58AB000AFF860B9607A604FF0000391
:1014B0007B624FF000033B614FF000033B6267E04B
:1014C0003B6A4FEA8303FA68D318FB61FB691B6828
:1014D000BB61BA694FF00003C7F6C0739A4202D1EC
:1014E0004FF000038DE03B6A4FEA8303BA68D318DC
:1014F000FB61FB691B68BB61BA694FF00003C7F66B
:10150000C0739A4202D14FF000037AE03B6A4FEA7F
:101510008303FA68D31893ED007A3B6A4FEA83039A
:10152000FA68D318D3ED007A67EE277A97ED097A37
:1015300077EE277AC7ED097A3B6A4FEA8303FA68A8
:10154000D31893ED007A3B6A4FEA8303BA68D31845
:10155000D3ED007A37EE677A3B6A4FEA8303FA6885
:10156000D318D3ED006A3B6A4FEA8303BA68D318F5
:10157000D3ED007A76EEE77A27EE277AD7ED047A74
:1015800077EE277AC7ED047A3B6A03F101033B62E9
:101590003A6A7B689A4293D307F11003FB61FB69B7
:1015A0001B68BB61BA694FF00003C7F6C0739A426B
:1015B00002D14FF0000324E0D7ED047A97ED097AC9
:1015C000C7EE277A17EE900A02F0D6FA02460B46CB
:1015D0001046194601F02CFE02460B4610461946ED
:1015E0004FF000024FF00003C4F2240302F018FB96
:1015F00002460B461046194602F0D4FD03467B61B5
:101600007B69184607F12807BD4680BD80B487B0C6
:1016100000AFF860B9607A604FF000037B6114E0BE
:101620007B694FEA4303FA68D3187A694FEA4202AA
:10163000F9688A18128811B27A6841FA02F292B2F5
:101640001A807B6903F101037B617A69BB689A4266
:10165000E6D307F11C07BD4680BC704790B587B044
:1016600000AFF860B9607A604FF000037B6160E022
:101670007B694FEA8303BA68D3187A694FEA82021A
:10168000F9688A1892ED007ADFED2E7A67EE277AF4
:10169000FDEEE77AC3ED007A7B694FEA8303BA680F
:1016A000D4187B694FEA8303BA68D3181B681846BD
:1016B00002F050FA7B694FEA8303FA68D318D3ED3E
:1016C000007AF5EEC07AF1EE10FA06DD4FF0000276
:1016D0004FF00003C3F6E07305E04FF000024FF057
:1016E0000003CBF6E07302F0E9F802460B46104621
:1016F000194602F02FFD034623607B694FEA8303FE
:10170000FA68D31893ED007AF7EE007AB4EE677AB0
:10171000F1EE10FA09D17B694FEA8303BA68D21857
:101720004FF6FF73C0F20F0313607B6903F10103EF
:101730007B617A697B689A429AD307F11C07BD46A0
:1017400090BD00BF0000804980B489B000AFF86050
:10175000B9607A604FF000037B614FF00003BB611A
:101760004FF00003FB611EE0FB694FEA4303FA6898
:10177000D3181B881AB2FB694FEA4303B968CB1828
:101780001B881BB2D31A3B613B69002BB8BF5B427D
:101790007B617A69BB699A4201D97B69BB61FB694C
:1017A00003F10103FB61FA697B689A42DCD3BB69F0
:1017B000184607F12407BD4680BC704780B489B045
:1017C00000AFF860B9607A604FF000037B614FF0C2
:1017D0000003BB614FF00003FB611CE0FB694FEAB3
:1017E0008303FA68D3181A68FB694FEA8303B96860
:1017F000CB181B68D31A3B613B69002BB8BF5B4217
:101800007B617A69BB699A4201D97B69BB61FB69DB
:1018100003F10103FB61FA697B689A42DED3BB697D
:10182000184607F12407BD4680BC704780B487B0D6
:1018300000AFF860B9607A604FF000037B6112E09E
:101840007B694FEA8303FA68D3187A694FEA820208
:10185000F9688A1811687A6841FA02F21A607B699D
:1018600003F101037B617A69BB689A42E8D307F10F
:101870001C07BD4680BC704780B487B000AFF860DD
:10188000B9607A604FF000037B6110E0FA687B6911
:10189000D318F9687A698A18127851B27A6841FACD
:1018A00002F2D2B21A707B6903F101037B617A699B
:1018B000BB689A42EAD307F11C07BD4680BC70475B
:1018C00080B485B000AF78604FF00103FB604FF04B
:1018D0000003BB607B68012B0AD14FF000030CE0D2
:1018E000FB684FEA4303FB60BB6803F10103BB6085
:1018F000FA687B689A42F3D3BB68184607F114076D
:10190000BD4680BC704700BF90B52DED028B87B0FF
:1019100000AFF860B9607A604FF000037B611BE0B4
:101920007B694FEA8303FA68D4187B694FEA830323
:10193000FA68D31893ED008A786800F017F8034628
:1019400007EE103AF8EE477A68EE277AC4ED007A8F
:101950007B6903F101037B617A69BB689A42DFD33B
:1019600007F11C07BD46BDEC028B90BD80B485B06D
:1019700000AF78604FF00103BB604FF00003FB60E5
:1019800007E0BB684FEA4303BB60FB6803F1010358
:10199000FB60FA687B689A42F3D3BB68184607F18C
:1019A0001407BD4680BC704790B587B000AFF860A3
:1019B000B9607A604FF000037B6162E07B694FEAB7
:1019C0004303BA68D3187A694FEA8202F9688A1821
:1019D00092ED007ADFED2F7A67EE277AFDEEE77A57
:1019E00017EE902A92B21A807B694FEA4303BA68D5
:1019F000D4187B694FEA4303BA68D3181B881BB21B
:101A0000184602F0A7F87B694FEA8303FA68D318F7
:101A1000D3ED007AF5EEC07AF1EE10FA06DD4FF064
:101A200000024FF00003C3F6E07305E04FF0000240
:101A30004FF00003CBF6E07301F040FF02460B4687
:101A40001046194602F086FB03469BB223807B6951
:101A50004FEA8303FA68D31893ED007AF0EE007A28
:101A6000B4EE677AF1EE10FA07D17B694FEA4303CF
:101A7000BA68D31847F6FF721A807B6903F1010335
:101A80007B617A697B689A4298D307F11C07BD464F
:101A900090BD00BF0000804690B587B000AFF860F1
:101AA000B9607A604FF000037B615EE07B694FEACA
:101AB0008303BA68D3187A694FEA8202F9688A18F0
:101AC00092ED007ADFED2D7A67EE277AFDEEE77A68
:101AD000C3ED007A7B694FEA8303BA68D4187B6947
:101AE0004FEA8303BA68D3181B68184602F032F82D
:101AF0007B694FEA8303FA68D318D3ED007AF5EED9
:101B0000C07AF1EE10FA06DD4FF000024FF000034C
:101B1000C3F6E07305E04FF000024FF00003CBF690
:101B2000E07301F0CBFE02460B461046194602F068
:101B300011FB034623607B694FEA8303FA68D318DD
:101B400093ED007AF0EE007AB4EE677AF1EE10FAD7
:101B500007D17B694FEA8303BA68D3186FF000425C
:101B60001A607B6903F101037B617A697B689A42A1
:101B70009CD307F11C07BD4690BD00BF0000804EFE
:101B800090B587B000AFF860B9607A604FF000039D
:101B90007B615EE07B694FEA8303BA68D3187A6998
:101BA0004FEA8202F9688A1892ED007ADFED2D7A09
:101BB00067EE277AFDEEE77AC3ED007A7B694FEA9C
:101BC0008303BA68D4187B694FEA8303BA68D318D1
:101BD0001B68184601F0BEFF7B694FEA8303FA6871
:101BE000D318D3ED007AF5EEC07AF1EE10FA06DDE7
:101BF0004FF000024FF00003C3F6E07305E04FF032
:101C000000024FF00003CBF6E07301F057FE0246EE
:101C10000B461046194602F09DFA034623607B6985
:101C20004FEA8303FA68D31893ED007AF1EE007A55
:101C3000B4EE677AF1EE10FA07D17B694FEA8303BD
:101C4000BA68D3186FF000421A607B6903F1010390
:101C50007B617A697B689A429CD307F11C07BD4679
:101C600090BD00BF0000004E90B587B000AFF86097
:101C7000B9607A604FF000037B615EE07B694FEAF8
:101C80008303BA68D3187A694FEA8202F9688A181E
:101C900092ED007ADFED2D7A67EE277AFDEEE77A96
:101CA000C3ED007A7B694FEA8303BA68D4187B6975
:101CB0004FEA8303BA68D3181B68184601F04AFF3D
:101CC0007B694FEA8303FA68D318D3ED007AF5EE07
:101CD000C07AF1EE10FA06DD4FF000024FF000037B
:101CE000C3F6E07305E04FF000024FF00003CBF6BF
:101CF000E07301F0E3FD02460B461046194602F080
:101D000029FA034623607B694FEA8303FA68D318F4
:101D100093ED007AF2EE007AB4EE677AF1EE10FA03
:101D200007D17B694FEA8303BA68D3186FF000428A
:101D30001A607B6903F101037B617A697B689A42CF
:101D40009CD307F11C07BD4690BD00BF0000804D2D
:101D500080B485B000AF786039604FF00003FB605D
:101D600032E0FB684FEA83037A68D31893ED007A78
:101D7000F7EE007AB4EEE77AF1EE10FA08DDFB68D0
:101D80004FEA83037A68D3184FF07E521A6017E047
:101D9000FB684FEA83037A68D31893ED007AFFEE6D
:101DA000007AB4EEE77AF1EE10FA09D5FB684FEA53
:101DB00083037A68D3184FF00002CBF680721A6062
:101DC000FB6803F10103FB60FA683B689A42C8D3E1
:101DD00007F11407BD4680BC704700BF2DE9F04FE6
:101DE0002DED028B8BB00692920808900791099214
:101DF00000F057819FEDAC8A0592814688466FF0CE
:101E000000440025D9ED008A68EE888A18EE900A11
:101E100001F0B2FEF5EEC08AF1EE10FA4FF00003C9
:101E2000CCBFC3F6E073CBF6E0734FF0000201F0D5
:101E300045FD02F0B7F902F005FA99ED010ACE1757
:101E400060EE088AB1EBE07F86EA040108BF014634
:101E5000C8F8001018EE900A01F08EFEF5EEC08A68
:101E6000F1EE10FA4FF00003CCBFC3F6E073CBF6EF
:101E7000E0734FF0000201F021FD02F093F902F04F
:101E8000E1F9CB1700930193DDE90023D9ED020AB4
:101E9000B1EBE07F60EE888A82EA040208BF024666
:101EA000C8F8042018EE900A01F066FEF5EEC08A2C
:101EB000F1EE10FA4FF00003CCBFC3F6E073CBF69F
:101EC000E0734FF0000201F0F9FC02F06BF902F050
:101ED000B9F999ED031A4FEAE17A61EE088AB1EB9C
:101EE000E07F8AEA040108BF0146C8F8081018EE2E
:101EF000900A01F041FEF5EEC08AF1EE10FA4FF0C3
:101F00000003CCBFC3F6E073CBF6E0734FF00002E2
:101F100001F0D4FC02F046F902F094F9CB170293D9
:101F20000393DDE90223B1EBE07F82EA040208BFFC
:101F300002460598C8F80C20411E3746D34609F1E1
:101F4000100908F1100805917FF45CAF099B07990F
:101F5000089A18010B1802EB00080793069810F076
:101F6000030900F09480DFED508AB8EC018A28EE76
:101F7000288A09F1FF3A18EE100A01F0FDFDB5EECE
:101F8000C08A0027F1EE10FA0AF0010A6FF000464D
:101F900000F3828000230022CBF6E07301F08EFC78
:101FA00002F000F902F04EF9CC1784EA0602B1EB18
:101FB000E07FDDF81CB008BF0246B9F101092546F3
:101FC0004BF8042B63D0BAF1000F28D0F8EC011ABB
:101FD00021EEA88A18EE100A01F0CEFDB5EEC08AF7
:101FE000F1EE10FA4FF000024FF000034CDD01E07B
:101FF00000220023C3F6E07301F060FC02F0D2F887
:1020000002F020F9CC1784EA0603B1EBE07F08BFA9
:102010000346B9F1010925464BF8043B37D0B8EC2B
:10202000012A22EE288A09F1FF3918EE100A01F080
:10203000A3FDB5EEC08AF1EE10FA4FF00003CCBF5D
:10204000C3F6E073CBF6E0734FF0000201F036FC0C
:1020500002F0A8F802F0F6F8F8EC012ACC1722EE0C
:10206000A88AB1EBE07F84EA060508BF05464BF875
:10207000045B18EE100A01F07FFDB5EEC08AF1EEA8
:1020800010FAB5DC00220023CBF6E073B4E70BB006
:10209000BDEC028BBDE8F08F00230022C3F6E07395
:1020A0007CE780465AE700BF0000004F5FEA920CD1
:1020B000F0B400F09E8090ED003A90ED015A90ED62
:1020C000027A90ED030ADFED667AF8EEC35AB8EEB5
:1020D000C56AF8EEC76AF8EEC00A0CF1FF3325EEC8
:1020E000A71A66EE271A26EEA72A60EEA72A1F4631
:1020F00003F0010581ED001AC1ED011A81ED022AFC
:10210000C1ED032A01F1100300F11004002F6CD07F
:102110001DB3D4ED003AD4ED014A94ED023AD4ED6A
:10212000035AB8EEE34AB8EEE45AF8EEC36AB8EEE2
:10213000E57A24EE270A25EE276A66EEA70A27EE3F
:10214000271A83ED000A83ED016AC3ED020A83EDCD
:10215000031A10341033013F47D0D4ED001A94ED28
:10216000012AD4ED022A94ED035A94ED043AD4EDF9
:10217000056A94ED067A94ED071AF8EEE13AB8EEA6
:10218000C24AF8EEE24AB8EEC50AF8EEC35AB8EE13
:10219000E66AF8EEC70AF8EEC11A23EEA72A64EE43
:1021A000272A24EEA73A20EE275A65EEA73A26EE14
:1021B000274A60EEA74A21EEA70A04F1100603F1B0
:1021C000100583ED002AC3ED012A83ED023A83ED69
:1021D000035AC3ED043A203483ED054AC3ED064AA1
:1021E00083ED070A2033023FB7D14FEA0C13C91819
:1021F000C01812F0030230D0D0ED005ADFED187A8B
:10220000F8EEE56A013A26EEA76A1346A1EC016AE8
:1022100002F001020BB35AB150F8042F07EE102A56
:10222000F8EEC70A013B20EEA71AA1EC011A14D060
:10223000D0ED011A90ED023AB8EEE12AB8EEC35A99
:1022400062EE272A0A46E2EC012A65EE273A0830B8
:10225000C1ED013A111D023BEAD1F0BC704700BF4D
:102260000000003038B504461D469DF810308260ED
:102270000A462170037300212846520102F002F938
:10228000656038BD2DE9F00FC8B08668047B4568ED
:10229000439200783E96DDF80CA140909E083001F4
:1022A000621C0AEB000BC4F11F0805F1200903F0C2
:1022B00003030835CDF81CB11F3CC2F1200B449636
:1022C0003C924690CDF880804593CDF8FC903D95AA
:1022D0003B911594CDF884B03E993E9D0C683E9A92
:1022E0003E9B6E6890681D943E9CD96825691E9639
:1022F0001F903F9E3D9841913E9956F8202C0368CF
:1023000042953D9C3D9D1C9214310C933E91D4E925
:102310000223D5E90401449ECDE90A23CDE9080151
:10232000002E00F04E833746DDF808C1419EDDF8EF
:102330002480439C3B9D3897F3174FEAEC714FEA9A
:10234000E8793C9FDDF830B00E9314911B941A95F8
:10235000CDF84890DDE90A0100234FF0FF3210402C
:102360001940CDE90601DDE908011A9D0E9CDDF852
:102370001C8010402A681940069B22920B9A03FB8E
:1023800004FAA3FB0645CDE90445149B0C9206FB19
:1023900008A44FEAE27ACDF8E4A004EB050AA0FB1A
:1023A0000C45CDE9104500FB03F30C9D0E98DDF8BC
:1023B00044801D9CCDF814A005FB00F0229DCDF8B3
:1023C00090A00CFB0131DDF8E4A0099A01EB0803B1
:1023D00085FB04890C9D149C0AFB0600239002FBDC
:1023E00004FAA5FB06011C9C1E9DC5FB0489129CDA
:1023F000239D04FB0CA4DDF814A04FEAEA7ACDF883
:1024000094A0691811931F9D2693C5FB0B89DDE9E4
:1024100024AB10EB0A0041EB0B01DDF844B04FEAAE
:10242000EB7ACDF89CA0A2FB0C23E318DDE926454E
:1024300018EB000849EB0109121943EB050418EBEE
:102440000208219DDDF854B0209A49EB040928FACE
:1024500005F109FA07F041EA000408FA0BF32146F6
:1024600011EA2B0138BF194608FA07F5179116959E
:10247000DDE916AB28FA02F509FA07F44FF0FF3050
:10248000DDF86C901A9ADDF838800AEA000A44EA0E
:102490000500C9F800000C46AAFB0601CDE90401BD
:1024A000149D0699506801FB05F51A9923908A68D6
:1024B00000230BEA030B0AFB08F3DDF818801092E7
:1024C000E117059A3A9106FB0B33A8FB0C019B1808
:1024D000CDE91201079A0E99139804FB01F90CFB40
:1024E000025522991E9A05EB000881FB0201CDE9F5
:1024F0000601A4FB0601CDE90201059328930C997E
:102500003A9B149DCDF84C8003FB069201FB05F924
:10251000DDE90601239B1D9DCDF8A880C5FB0301C5
:10252000CDE906010599039B139DC8173999299098
:102530000C9801FB0C98D218CDF8E480A0FB0C8914
:10254000DDE9060103921F9B1C9AC3FB0201CDE942
:102550000601DDE90223DDE928011218399843EB71
:102560000103E9172B918144DDE90601851841EB50
:102570000301DDE92A2318EB020849EB030215EBFE
:10258000080041EB0201CDE90601219B069A159D49
:10259000DA40B940069B42EA0109AB40C84618EA56
:1025A000250838BF9846B840CDF864801890DDE91A
:1025B000188900224FF0FF3008EA000809EA0209F2
:1025C000CDE90C890E9B0C99149A4546A1FB060196
:1025D00005FB03F3CDE9040106FB0930DDF8648057
:1025E0004318AAFB0C01CDE912010E99109805932E
:1025F0004FEAE879CDF8709008FB01F91D992C930A
:102600000AFB02F50CFB0B5580FB01AB14982399D8
:10261000139A1C9B04FB00F039901E98C0FB01AB81
:102620000599AD18C81713952E9539993A9D2D9097
:1026300003FB0699A8FB062322984B4405FB0C19C3
:102640001F99C1FB00ABDDE92C011218139843EB75
:102650000103C1172F911AEB020A4BEB030BDDE9C3
:102660002E23A4FB0C454D44A41845EB03021AEBA2
:10267000040A219B159D4BEB02002AFA03F100FA94
:1026800007F441EA04000AFA05F2034613EA2503B7
:1026900038BF13460AFA07F10993A1460891209D15
:1026A0000699209C07981A9AE9402AFA04F3DDE972
:1026B0000845B84008434FF0FF3A49EA0301DDF806
:1026C0006C900E9BC9F8040004EA0A04C9F80810CB
:1026D0004FF0000BA4FB0601CDE90401D2F80CA0D9
:1026E0000C99099A05EA0B0504FB03F3149C06FBFD
:1026F0000533059D01FB04F9D4175B19A1FB0C01FF
:1027000012940E9D0593CDE9060130930D98129B0E
:1027100002FB05FB03FB06BB0CFB00998944CDF8CB
:1027200030B01D99DDF850B0109808FB0BFB8AFB08
:1027300001451E99CDF888B0DDF814B0C1FB004505
:102740000C98A2FB06234FEAEB7BCDF8C4B0C3186C
:10275000CDF81C90CDF8C8902298DDF870902399A0
:10276000CDF870A009FB0C0B1F98C0FB0145DDE9FB
:102770003001121843EB01030799C8173390A418CE
:1027800045EB0305DDE93223A8FB0C89D94418EB9E
:10279000020849EB0302DDF884B01A9814EB080430
:1027A00045EB020124FA0BF301FA07F943EA0902A7
:1027B000DDF854B00B922099DDF82C80109B04FAC0
:1027C0000BF524FA01F218EA2B0838BFA84649EAAB
:1027D0000205DDF86C90CDF82C8004FA07FBC9F8EF
:1027E0000C504C46389DCDF828B01030103451466E
:1027F000DA171A901B94C8176C1E9B4638947FF406
:10280000A9AD3B9EDDF818C10C93054647981446C8
:1028100006EB0C023B921A90459E002E00F0CE80F3
:10282000DDF808A1DDF804C114964FEAEC734FEA15
:10283000EA7710971B931C9FCDF818A09B4605E0E4
:10284000DDF86CB0CDF828A00B903746DDE90A45DD
:102850004FF0FF3804EA08044FF00009DDE90801F1
:1028600004FB0BFA05EA0905A4FB0C230CFB05A2EB
:10287000D518069BDDF8ECB0109C5BF8046B349522
:1028800000EA0800A0FB0323CDE90E23069ADDF839
:102890002C80CDF8ECB000FB04FA01EA090102FB40
:1028A00001A1099CDDF86CB0C9181D9B0F91E217BE
:1028B00008FB0BF086FB03AB2B460892DB17109A44
:1028C00035933691069B08991E9D4FEAE87909FBDE
:1028D0000C0004FB02F2A8FB0C8901FB03218144DC
:1028E0001F9A0C98C5FB07ABC2FB00ABA4FB0345CA
:1028F000DDE9342318EB020849EB03090F9BD817D5
:1029000037901AEB080A4BEB090BDDE936894D19B4
:1029100014EB080445EB0901DDF8F080DDF8549074
:10292000219B209D1AEB040A4BEB010B0AFA09F4D8
:102930000BFA08F2DDE90A892AFA03F0CDE90889E1
:10294000DDF854900C9710432AFA05F510EA290097
:1029500038BF20461A9C2A4344F8042B3C9D149A05
:102960001A940AFA05FAFC17F517013A3B46314664
:1029700014927FF465AF52460646DDF8FCC04CF871
:102980001C5C3D9D4CF8201CDDE908894399AA6038
:1029900085E81800409A3F9B3B9128462033203021
:1029A000511EEE60AA46C5E904893F933D904091CF
:1029B0007FF492AC48B0BDE8F00F70470A9A0B9EC6
:1029C000DBE71C990C9B439ACD17DC171A9223E77F
:1029D00038B504461D469DF9103082600A462160D4
:1029E000037300212846120101F04CFD656038BDDB
:1029F0002DE9F00F4568047B8668006898B09F0851
:102A00000C95C4F11F0504950D960E910C9E04992A
:102A100014924FEA07181036013402EB080C03F049
:102A20000303203DC1F120020694119015971296E0
:102A3000CDF8588013930F96CDF85CC010950B928B
:102A400034460D9854F8103C0D9C0D9D0C9E076863
:102A5000159903971434D6F804C0B268D5F804A0C9
:102A6000D5F80890D5F80CB02F69F6680D940029B8
:102A700000F048810793149D0E9C05916346CDF8A4
:102A80000890D446BA461F4620680399079B0890D1
:102A900080FB01890298CCFB0389C0FB0789CBFB33
:102AA0000289CAFB0689069F049E09FA07F328FAE1
:102AB00006F843EA08002860D4F80490079B89FBD5
:102AC00001670899CCFB01670299C1FB0367CBFB47
:102AD0000067CAFB0267049B069A089907FA02F787
:102AE00026FA03F647EA0608C5F80480A768039E9D
:102AF00087FB0623029ECCFB0923C6FB0123CBFBED
:102B00000823CAFB00230499069822FA01F203FA6B
:102B100000F343EA0206AE60E368039A079383FB7F
:102B20000201029ACCFB0701C2FB0901CBFB0601A3
:102B3000069ACAFB080101FA02F1049A20FA02F08F
:102B400041EA00020598EA6010341035411E0591F3
:102B50009AD13D460E9C1698DDF80890079B574683
:102B6000E246AC46179D21180E910595139C002C4A
:102B700000F0C68004F1FF3818F0010F029440F015
:102B80008380CDF81CA0CDF82090CDF824B00A9712
:102B90000193DDF838A0DDF814B0DDF840901C4654
:102BA0002FE0DAF804600399079B059686FB010184
:102BB000C3FB0501089E019BC6FB0301099B0A9EFE
:102BC000C3FB0401C6FB02010B9A049E01FA02F347
:102BD00020FA06F041FA09F143EA000208F1040A7A
:102BE0000CF1FF38AC46059DCDF8088012EA2902A9
:102BF00038BF0A46CBF80420264607F1040B01959E
:102C00002C46D046039858F8045B079B85FB0001CF
:102C1000C3FB0401089C099BC4FB0C010A9CDDF862
:102C20002CC0C3FB0201049BC4FB060101FA0CF695
:102C300020FA03F046EA000402985F4641FA09F1DF
:102C400014EA290438BF0C46B0F1010C47F8044BD4
:102C50001646A6D1019A2B469446149D0F990E95BF
:102C60000C9D41F8103C119BEE60129EC5F804C00B
:102C70001031581EAC600F910C9611903CD0374625
:102C8000103712970F9CDCE60E98039950F8045BFE
:102C9000CDF81CA00E9085FB0101CAFB0301C9FB06
:102CA0000C01CBFB0201C7FB0601DDF810C00B9E37
:102CB000CDF8209001FA06F420FA0CF6DDF840C0B9
:102CC000CDF824B041FA0CF044EA0601059CCDF899
:102CD000088011EA2C0138BF014644F8041B16464F
:102CE0000594A3469C460A460A970195DDF838A04C
:102CF000DDF840902C4684E718B0BDE8F00F70472F
:102D00001446AAE71498059030E700BF5FEA930CD9
:102D1000F0B407EE901A7BD0D0ED005A90ED016A26
:102D2000D0ED026A90ED037A0CF1FF3125EEA70A8F
:102D300066EE270A26EEA71A67EE271A0F4601F05D
:102D4000010582ED000AC2ED010A82ED021AC2ED10
:102D5000031A00F1100402F11001002F54D0DDB16C
:102D600094ED002AD4ED012A94ED023AD4ED033A11
:102D700022EE274A62EEA74A23EE275A63EEA75AAD
:102D800081ED004AC1ED014A81ED025AC1ED035ABD
:102D900010341031013F37D094ED000A94ED016AF0
:102DA000D4ED026A94ED037A60EE270A26EE271A24
:102DB00066EEA71A27EE272AC1ED000A81ED011A57
:102DC000C1ED021A81ED032AD4ED042A94ED053AEF
:102DD000D4ED063A94ED074A62EEA74A23EE275A4D
:102DE00063EEA75A24EE270A04F1100601F110053C
:102DF000C1ED044A203481ED055AC1ED065A81ED3A
:102E0000070A2031023FC7D14FEA0C11401852186F
:102E100013F0030325D090ED006A591E66EE276A71
:102E20000B46E2EC016A01F00101D3B141B104307B
:102E300090ED007A67EE270A013BE2EC010A10D020
:102E400090ED011A61EE271A1146E1EC011A90ED9E
:102E5000022A62EE272A0830C2ED012A0A1D023B2F
:102E6000EED1F0BC704700BF2DE9F00F92B00132F7
:102E7000D6B20E901A98109606F080028B4656B283
:102E800081080F931191002E00F0E580002900F0D9
:102E9000A980DDF83890109DD9F80030119FDDF839
:102EA0003C8009F1040415CC4FFA85FACAF1000AF6
:102EB00007F1FF3C80FB0B0183FB0B6784FB0B4599
:102EC00082FB0B2341FA0AF647FA0AF243FA0AF1A7
:102ED000444645FA0AF36746CDF81CC00CF00100E1
:102EE000C8F80020C8F80460C8F80810C8F80C300A
:102EF00009F110091034002F66D000B399E80F00D3
:102F000080FB0B67CDE90467DDF814C082FB0B671B
:102F100081FB0B0183FB0B2347FA0AF0079FA0609C
:102F20004CFA0AF241FA0AF143FA0AF322606160AC
:102F3000E36010347E1E09F11009079644D099E829
:102F40004400D9F8085085FB0B01CDE9040182FB50
:102F50000B23D9F80C2043FA0AF5059B256082FB68
:102F60000B0186FB0B6747FA0AF743FA0AF641FAA8
:102F70000AF16760E160A66009F1100045C8D9F860
:102F80001C5009F1100C82FB0B8985FB0B23CDE94A
:102F90000423CDE90089019B059D079A80FB0B0165
:102FA00086FB0B8941FA0AF743FA0AF649FA0AF155
:102FB00045FA0AF027616661A161E0612034971E3D
:102FC0000CF110090797BAD1119FDDF83890DDF8A0
:102FD0003CC03B0109EB03080CEB0309CDF838803A
:102FE000CDF83C901A9E16F0030630D00E98109C37
:102FF00050F8041B65B2013E6C4281FB0B230F9914
:1030000043FA04F3354641F8043B06F00106F5B1F6
:103010004EB150F8042B82FB0B2343FA04F3013D1D
:1030200041F8043B13D007460E4657F8043B83FB98
:103030000B2343FA04F346F8043B406880FB0B2360
:1030400043FA04F34B60381D311D023DEBD112B041
:10305000BDE8F00F7047002900F08680109CDDF875
:103060003C80DDF838C007914FFA84F9DA46DCF885
:103070000050DCF80410DCF80830DCF80C2085FB8C
:103080000A6781FB0A4583FB0A010091009C3E46CA
:1030900082FB0A231F46E21706FA09FBDC1705FA32
:1030A00009F3CDF810B00893DDF800B007FA09F382
:1030B000099384F00043049C0BFA09FBCDF80CB093
:1030C000F01744FA09F40A9480F00040039CDDF8FC
:1030D00020B0C043069044FA09F0099C0C904BFACA
:1030E00009FB44FA09F0CDF82CB00D900A9C069823
:1030F000DDF810B0E917A64218BF83465E460B986C
:10310000DDF820B0039CC8F8006081F00041C9439D
:10311000854208BF594682F00042009DDDF830B07C
:103120000998C8F80410D2435D4508BF22460D9C9B
:10313000C8F80820DB43A74208BF0346C8F80C3094
:10314000079F7D1E0CF1100C08F1100807958ED119
:1031500011990E9BDDF83CC00A019E180CEB020889
:10316000D3460E96CDF83C801A9F17F003063FF425
:103170006EAF0E9CDDF8408054F8045B85FB0B239A
:103180004FFA88F1D81703FA01F51A4680F0004388
:10319000013E45FA01F7DB430F98BA4208BF2B46C0
:1031A000354640F8043B06F00106002D3FF44FAFD2
:1031B000A6B154F8047B87FB0B231A46DB1702FAEF
:1031C00001F683F00043DB4346FA01F7BA4208BF39
:1031D0003346013D40F8043B3FF439AF27460646ED
:1031E00057F8042B82FB0B231A46DB1702FA01FC6B
:1031F00083F000434CFA01F8DB43424508BF6346C5
:1032000046F8043B646884FB0B231A46DB1702FA7A
:1032100001F483F0004344FA01FCDB43624508BF3C
:10322000234643603C1D301D023DD7D10FE700BF50
:103230002DE9F041DFF8D8808AB004460D4600F051
:103240006BF898F90030013306460F460BD0204644
:10325000294600F0F5F830B1204629460022002327
:1032600000F05AFF20B9304639460AB0BDE8F08177
:10327000254898F80060019000210891CDE90245A9
:10328000CDE904454EBB4FF6FF734FF06042CCF2E0
:10329000EF73CDE90623204629460022002300F0E3
:1032A00027FF60B102239E42009322D0684600F0BF
:1032B000FBF8F0B1089808BBDDE90667D3E7012207
:1032C000022E009210D0684600F0EEF860B10F4870
:1032D00000F0ECF8CDE90601ECE700230022CFF680
:1032E000F073CDE90623D6E701F07CF821270760CB
:1032F000EDE701F077F822260660DBE701F072F8CF
:1033000008990160D8E700BFBC560008C456000801
:103310000819002000000000B1F5801F2DE9F843D6
:103320000A4606460F4604460D461EDA21F00042C4
:10333000024363D000296BDB00230022C4F2503328
:1033400000F06EFC4FF6FF730A46C7F6EF739A4221
:103350000F4606466FF035010EDD304639463246DF
:103360003B4600F0ABFABDE8F8834FF6FF73C7F6B3
:10337000EF7300219A42F0DC1315A3F2FF335818C3
:103380004FEAD07822F07F42404422F47009C8F519
:103390007F7800F0DFFB08F1030849EA085704468C
:1033A0000D463046394600F087F81FA3D3E90023C5
:1033B000804689462046294600F032FC1CA3D3E90A
:1033C000002306460F462046294600F029FC1AA392
:1033D000D3E9002304460D464046494600F020FC50
:1033E00002460B462046294600F068FA02460B4684
:1033F0003046394600F062FABDE8F883002100202B
:1034000000220023CCF2503100F034FDBDE8F883F7
:1034100002460B4600F050FA0022002300F02AFD7D
:10342000BDE8F883AFF3008000609F501344D33FA2
:10343000362BF111F3FE593D0EE526157BCBDB3F14
:103440000B4661B1B1F1004F09D04FF6FF72A3F501
:103450008011C7F6DF72914205D80420704700281A
:10346000F3D10220704703F1FF4101F5E0019142E1
:10347000F3D94FF6FF72C0F20F02934201D8032036
:10348000704703F100419142F9D90022C7F6F0726A
:10349000934204D013F5801F01D000207047D0F173
:1034A000010038BF00207047002070470021002035
:1034B000C7F6F871704700BF2DE9F04FB1F5801FD6
:1034C00087B002460B4604460D460E4664DA21F0EC
:1034D0000045054300F000810029C0F27F810023F0
:1034E0000022C4F2503300F09BFB02464FF6FF70FF
:1034F0000D46C7F6EF7085420B466FF0350752DC7C
:1035000025F07F4626F4700606F5152404F664734C
:1035100003F4801484F07F5181F4401040EA0603E4
:10352000194600231046C3F6F073002200F0C4F9D8
:103530004FEA2558B21CA8F2FF3A22F470030AEBB6
:10354000070B0022022B0BEB145882468B4631DC12
:10355000002300F0CDFD002800F0C780B8F1000F77
:1035600000F04381404600F0F5FAA1A3D3E900231F
:1035700006460F4600F054FB9FA3D3E90023044600
:103580000D463046394600F04BFB02460B462046BE
:10359000294600F093F90AE04FF6FF70C7F6EF7086
:1035A00000278542ACDD1046194600F087F907B0C8
:1035B000BDE8F08F4FF0804300F080F902460B46E3
:1035C0005046594600F056FCCDE90201404600F055
:1035D000C1FACDE90401DDE9020102460B4600F023
:1035E0001FFB02460B46CDE9000100F019FB84A346
:1035F000D3E9002304460D4600F012FB82A3D3E971
:10360000002300F05BF922462B4600F009FB80A363
:10361000D3E9002300F052F922462B4600F000FBCC
:103620007DA3D3E9002300F049F9DDE9002300F090
:10363000F7FA7BA3D3E90023CDE900012046294610
:1036400000F0EEFA78A3D3E9002300F037F9224620
:103650002B4600F0E5FA76A3D3E9002300F02EF91B
:1036600022462B4600F0DCFAA6F5C22702460B469E
:10367000C6F5D726DDE9000100F020F95136A7F2A2
:103680007A473743002F04460D4658DD00230022B9
:10369000C3F6E0735046594600F0C2FA52465B4604
:1036A00000F0BEFA06460F46B8F1000F63D122467D
:1036B0002B4600F003F9DDE9022300F0B1FA0246DF
:1036C0000B463046394600F0F7F802460B465046A6
:1036D000594600F0F1F86AE700210020002200239B
:1036E000CCF2503100F0C6FB61E752465B465046D3
:1036F000594600F095FA50A3D3E9002304460D463D
:103700005046594600F08CFA0B4600210246C3F69B
:10371000E071002000F0D0F802460B462046294612
:1037200000F07EFA04460D46B8F1000F40F08880A4
:103730005046594622462B4600F0BEF837E7B8F10E
:10374000000F00F0A1802AA3D3E90023DDE90401E2
:1037500000F066FA22462B4606460F46504659466A
:1037600000F0AAF8DDE9022300F05AFA04460D46FB
:10377000DDE9040172E01EA3D3E90023DDE90401C1
:1037800000F04EFA2246804689462B46304639469E
:1037900000F094F8DDE9022300F042FA16A3D3E921
:1037A000002304460D46DDE9040100F039FA024623
:1037B0000B462046294600F081F802460B4630466B
:1037C000394600F079F852465B4600F075F802463B
:1037D0000B464046494600F06FF8E8E600F06CF80A
:1037E0000022002300F046FBE1E600200021DEE697
:1037F0000000E0FE422EE63F763C7935EF39EA3DA7
:1038000044523EDF12F1C23FDE03CB966446C73F0F
:10381000599322942449D23F935555555555E53F28
:103820009FC678D0099AC33FAF788E1DC571CC3F33
:1038300004FA97999999D93F555555555555D53FFE
:10384000404600F087F916A3D3E900238046894655
:1038500000F0E6F906460F464046494612A3D3E972
:10386000002300F0DDF902460B462046294600F011
:1038700023F852465B4600F01FF802460B463046DE
:10388000394600F019F892E622462B465046594632
:1038900000F012F8DDE9022300F0C2F915E700BFDD
:1038A0000000E0FE422EE63F763C7935EF39EA3DF6
:1038B00081F0004102E000BF83F0004330B54FEAE1
:1038C00041044FEA430594EA050F08BF90EA020F4E
:1038D0001FBF54EA000C55EA020C7FEA645C7FEAE1
:1038E000655C00F0E2804FEA5454D4EB5555B8BF04
:1038F0006D420CDD2C4480EA020281EA030382EA75
:10390000000083EA010180EA020281EA0303362D06
:1039100088BF30BD11F0004F4FEA01314FF4801CD9
:103920004CEA113102D0404261EB410113F0004FEB
:103930004FEA03334CEA133302D0524263EB4303A2
:1039400094EA050F00F0A780A4F10104D5F1200E40
:103950000DDB02FA0EFC22FA05F2801841F100019B
:1039600003FA0EF2801843FA05F359410EE0A5F16F
:1039700020050EF1200E012A03FA0EFC28BF4CF0A0
:10398000020C43FA05F3C01851EBE37101F0004556
:1039900007D54FF0000EDCF1000C7EEB00006EEB63
:1039A0000101B1F5801F1BD3B1F5001F0CD34908ED
:1039B0005FEA30004FEA3C0C04F101044FEA445244
:1039C00012F5800F80F09A80BCF1004F08BF5FEACB
:1039D000500C50F1000041EB045141EA050130BDAB
:1039E0005FEA4C0C404141EB010111F4801FA4F14E
:1039F0000104E9D191F0000F04BF01460020B1FAA3
:103A000081F308BF2033A3F10B03B3F120020CDADA
:103A10000C3208DD02F1140CC2F10C0201FA0CF0B8
:103A200021FA02F10CE002F11402D8BFC2F1200C1D
:103A300001FA02F120FA0CFCDCBF41EA0C019040D3
:103A4000E41AA2BF01EB0451294330BD6FEA04041C
:103A50001F3C1CDA0C340EDC04F11404C4F1200207
:103A600020FA04F001FA02F340EA030021FA04F319
:103A700045EA030130BDC4F10C04C4F1200220FA70
:103A800002F001FA04F340EA0300294630BD21FAAE
:103A900004F0294630BD94F0000F83F4801306BF74
:103AA00081F480110134013D4EE77FEA645C18BF68
:103AB0007FEA655C29D094EA050F08BF90EA020FFF
:103AC00005D054EA000C04BF1946104630BD91EAF7
:103AD000030F1EBF0021002030BD5FEA545C05D1FA
:103AE0004000494128BF41F0004130BD14F5800439
:103AF0003CBF01F5801130BD01F0004545F0FE41AD
:103B000041F470014FF0000030BD7FEA645C1ABFE1
:103B1000194610467FEA655C1CBF0B46024650EA18
:103B2000013406BF52EA033591EA030F41F4002144
:103B300030BD00BF90F0000F04BF0021704730B5CA
:103B40004FF4806404F132044FF000054FF000019F
:103B500050E700BF90F0000F04BF0021704730B560
:103B60004FF4806404F1320410F0004548BF404235
:103B70004FF000013EE700BF42004FEAE2014FEA8A
:103B800031014FEA02701FBF12F07F4393F07F4F65
:103B900081F06051704792F0000F14BF93F07F4F97
:103BA000704730B54FF4607401F0004521F00041DA
:103BB00020E700BF50EA010208BF704730B54FF060
:103BC00000050AE050EA010208BF704730B511F065
:103BD000004502D5404261EB41014FF4806404F19D
:103BE00032045FEA915C3FF4DCAE4FF003025FEA1F
:103BF000DC0C18BF03325FEADC0C18BF033202EBA7
:103C0000DC02C2F1200300FA03FC20FA02F001FA00
:103C100003FE40EA0E0021FA02F11444C1E600BF9F
:103C200070B54FF0FF0C4CF4E06C1CEA11541DBF52
:103C30001CEA135594EA0C0F95EA0C0F00F0DEF81D
:103C40002C4481EA030621EA4C5123EA4C5350EA02
:103C5000013518BF52EA033541F4801143F4801353
:103C600038D0A0FB02CE4FF00005E1FB02E506F0E4
:103C70000042E0FB03E54FF00006E1FB03569CF039
:103C8000000F18BF4EF0010EA4F1FF04B6F5007F3F
:103C900064F5407404D25FEA4E0E6D4146EB0606B1
:103CA00042EAC62141EA55514FEAC52040EA5E503A
:103CB0004FEACE2EB4F1FD0C88BFBCF5E06F1ED8E4
:103CC000BEF1004F08BF5FEA500E50F1000041EB1B
:103CD000045170BD06F0004646EA010140EA0200C8
:103CE00081EA0301B4EB5C04C2BFD4EB0C0541EAEA
:103CF000045170BD41F480114FF0000E013C00F3FF
:103D0000AB8014F1360FDEBF002001F0004170BD22
:103D1000C4F10004203C35DA0C341BDC04F114043B
:103D2000C4F1200500FA05F320FA04F001FA05F2C7
:103D300040EA020001F0004221F0004110EBD37094
:103D400021FA04F642EB06015EEA430E08BF20EAC0
:103D5000D37070BDC4F10C04C4F1200500FA04F363
:103D600020FA05F001FA04F240EA020001F00041F5
:103D700010EBD37041F100015EEA430E08BF20EA68
:103D8000D37070BDC4F1200500FA05F24EEA020EB0
:103D900020FA04F301FA05F243EA020321FA04F0DF
:103DA00001F0004121FA04F220EA020000EBD37096
:103DB0005EEA430E08BF20EAD37070BD94F0000F96
:103DC0000FD101F00046400041EB010111F4801FCA
:103DD00008BF013CF7D041EA060195F0000F18BF7B
:103DE000704703F00046520043EB030313F4801FB7
:103DF00008BF013DF7D043EA0603704794EA0C0F71
:103E00000CEA135518BF95EA0C0F0CD050EA410686
:103E100018BF52EA4306D1D181EA030101F0004103
:103E20004FF0000070BD50EA410606BF104619462B
:103E300052EA430619D094EA0C0F02D150EA013637
:103E400013D195EA0C0F05D152EA03361CBF104678
:103E500019460AD181EA030101F0004141F0FE4117
:103E600041F470014FF0000070BD41F0FE4141F49B
:103E7000780170BD70B54FF0FF0C4CF4E06C1CEA9B
:103E800011541DBF1CEA135594EA0C0F95EA0C0F50
:103E900000F0A7F8A4EB050481EA030E52EA03350B
:103EA0004FEA013100F088804FEA03334FF080552C
:103EB00045EA131343EA12634FEA022245EA111559
:103EC00045EA10654FEA00260EF000419D4208BF0A
:103ED000964244F1FD0404F5407402D25B084FEAB7
:103EE0003202B61A65EB03055B084FEA32024FF463
:103EF00080104FF4002CB6EB020E75EB030E22BFC0
:103F0000B61A754640EA0C005B084FEA3202B6EB7F
:103F1000020E75EB030E22BFB61A754640EA5C002E
:103F20005B084FEA3202B6EB020E75EB030E22BFBE
:103F3000B61A754640EA9C005B084FEA3202B6EBBF
:103F4000020E75EB030E22BFB61A754640EADC007E
:103F500055EA060E18D04FEA051545EA16754FEAE0
:103F600006164FEAC30343EA52734FEAC2025FEAFE
:103F70001C1CC0D111F4801F0BD141EA00014FF08D
:103F800000004FF0004CB6E711F4801F04BF01435E
:103F90000020B4F1FD0C88BFBCF5E06F3FF6AFAE7A
:103FA000B5EB030C04BFB6EB020C5FEA500C50F10A
:103FB000000041EB045170BD0EF0004E4EEA11318D
:103FC00014EB5C04C2BFD4EB0C0541EA045170BD94
:103FD00041F480114FF0000E013C90E645EA060ED8
:103FE0008DE60CEA135594EA0C0F08BF95EA0C0F06
:103FF0003FF43BAF94EA0C0F0AD150EA01347FF44E
:1040000034AF95EA0C0F7FF425AF104619462CE724
:1040100095EA0C0F06D152EA03353FF4FDAE104687
:10402000194622E750EA410618BF52EA43067FF4D8
:10403000C5AE50EA41047FF40DAF52EA43057FF468
:10404000EBAE12E74FF0FF3C06E000BF4FF0010C73
:1040500002E000BF4FF0010C4DF804CD4FEA410CD7
:104060007FEA6C5C4FEA430C18BF7FEA6C5C1BD0A4
:1040700001B050EA410C0CBF52EA430C91EA030F25
:1040800002BF90EA020F0020704710F1000F91EA82
:10409000030F58BF994208BF90422CBFD8176FEA50
:1040A000E37040F0010070474FEA410C7FEA6C5C1E
:1040B00002D150EA013C07D14FEA430C7FEA6C5C25
:1040C000D6D152EA033CD3D05DF8040B704700BF51
:1040D0008446104662468C461946634600E000BF9F
:1040E00001B5FFF7B7FF002848BF10F1000F01BD71
:1040F0004DF808EDFFF7F4FF0CBF012000205DF83C
:1041000008FB00BF4DF808EDFFF7EAFF34BF0120C0
:1041100000205DF808FB00BF4DF808EDFFF7E0FF59
:1041200094BF012000205DF808FB00BF4DF808EDAA
:10413000FFF7CEFF94BF012000205DF808FB00BF11
:104140004DF808EDFFF7C4FF34BF012000205DF8F3
:1041500008FB00BF4FEA410212F5001215D211D53B
:104160006FF47873B3EB625212D94FEAC12343F074
:10417000004343EA505311F0004F23FA02F018BFF6
:10418000404270474FF00000704750EA013005D1BF
:1041900011F0004008BF6FF0004070474FF0000082
:1041A000704700BF4FEA4102B2F1E04324BFB3F5CC
:1041B000001CDCF1FE5C0DD901F0004C4FEAC0029E
:1041C0004CEA5070B2F1004F40EB830008BF20F082
:1041D0000100704711F0804F21D113F13872BCBF3C
:1041E00001F00040704741F480114FEA5252C2F191
:1041F0001802C2F1200C10FA0CF320FA02F018BFDA
:1042000040F001004FEAC1234FEAD32303FA0CFC2C
:1042100040EA0C0023FA02F34FEA4303CCE77FEABB
:10422000625307D150EA01331EBF4FF0FE4040F405
:104230004000704701F0004040F0FE4040F40000B4
:10424000704700BF10B50021044600F0A3F820B964
:104250002046BDE8104000F00BB804F1004000F02B
:1042600007F8424261EB41031046194610BD00BFFA
:1042700070B5FFF781FC00230022C3F6F05304461B
:104280000D46FFF7CDFC00F017F80646FFF752FC8D
:1042900000230022C4F2F013FFF7C2FC02460B46D3
:1042A00020462946FFF708FB00F006F800220243EB
:1042B0001046314670BD00BF4A0011D212F50012FF
:1042C00011D20DD56FF47873B3EB62520ED44FEA6E
:1042D000C12343F0004343EA505323FA02F07047EE
:1042E0004FF00000704750EA013002D14FF0FF302C
:1042F00070474FF0000070474FF0FF3C06E000BFF2
:104300004FF0010C02E000BF4FF0010C4DF804CD5E
:104310004FEA40024FEA41037FEA226C18BF7FEA6E
:10432000236C11D001B052EA530C18BF90EA010F70
:1043300058BFB2EB030088BFC81738BF6FEAE170FF
:1043400018BF40F0010070477FEA226C02D15FEA9B
:10435000402C05D17FEA236CE4D15FEA412CE1D007
:104360005DF8040B704700BF844608466146FFE7CE
:104370000FB5FFF7C9FF002848BF10F1000F0FBDB0
:104380004DF808EDFFF7F4FF0CBF012000205DF8A9
:1043900008FB00BF4DF808EDFFF7EAFF34BF01202E
:1043A00000205DF808FB00BF4DF808EDFFF7E0FFC7
:1043B00094BF012000205DF808FB00BF4DF808ED18
:1043C000FFF7D2FF94BF012000205DF808FB00BF7B
:1043D0004DF808EDFFF7C8FF34BF012000205DF85D
:1043E00008FB00BF41F63853C2F20003186870475B
:1043F000F8B5204F204C381B871017D07A1E236841
:10440000012502F001069847AF420FD02EB154F8B3
:10441000041F02258847AF4208D0606880470235F4
:10442000A268261D90470834AF42F6D1134F144CB2
:1044300000F0BEF93B1B9F1018D07D1E216805F0CF
:10444000010601258847AF4211D02EB154F8040F60
:1044500002258047AF420BD0626890470235A368BF
:10446000261D98470834AF42F6D1F8BDF8BDF8BD17
:10447000F8BD00BFD4470008D4470008D44700085F
:10448000D4470008F0B48407034600F08E80541E21
:10449000002A00F08880E507CEB211D41A46671EC4
:1044A00002F8016B1346154692070FD0002C7AD004
:1044B00003F8016B9A073C461D4607D0013CEDE727
:1044C000034603F8016B9A071D46F7D1032C52D916
:1044D000CEB246EA06270F2C47EA07432DD9A4F1AE
:1044E000100217460F2FC2F300162B606B60AB60F3
:1044F000EB6005F1100216D93EB1103F1360536016
:104500009360D36010320F2F0DD9203F02F11006B7
:10451000136053609360D360136153619361D361FF
:1045200020320F2FF1D8A4F1100222F00F0204F074
:104530000F041032032C15441DD9271F3E462A466E
:10454000032E42F8043BC7F380070DD927B1043E80
:10455000032E42F8043B07D91746083E47F8043BB0
:1045600053603A1D032EF7D8231F23F00302131DB7
:1045700004F00304ED18B4B12B46C9B203F8011BD3
:104580002C19ED436219A34202F001050BD01DB1B5
:1045900003F8011BA34206D01A4602F8011B59700A
:1045A000531CA342F8D1F0BC7047054614468DE772
:1045B00080B485B000AFF860B9607A604FF0FF3327
:1045C000184607F11407BD4680BC704780B485B01B
:1045D00000AFF860B9607A604FF0FF33184607F11A
:1045E0001407BD4680BC704780B485B000AFF8604A
:1045F000B9607A604FF00003184607F11407BD4612
:1046000080BC704780B485B000AFF860B9607A6054
:104610004FF0FF33184607F11407BD4680BC7047C2
:1046200080B400AF4FF0FF331846BD4680BC7047E2
:1046300080B483B000AF786039603B68002B02D053
:104640004FF0FF3301E06FF00103184607F10C074C
:10465000BD4680BC704700BF80B483B000AF7860B7
:1046600039607A683B689A4202D14FF0FF3301E02B
:104670006FF00103184607F10C07BD4680BC704778
:1046800080B483B000AF78604FF0FF33184607F175
:104690000C07BD4680BC704780B487B000AF78601F
:1046A0004EF2C023C0F200037B6140F6E453C2F235
:1046B00000031B68002B14D140F6E453C2F2000340
:1046C00041F64052C2F200021A6040F6E453C2F2D0
:1046D00000031A687B69D21840F6E853C2F200035F
:1046E0001A6040F6E453C2F200031B683B6140F6D7
:1046F000E453C2F200031B681A467B68D31803F127
:10470000070323F00703FB6040F6E853C2F20003FF
:104710001B68FA689A4202D34FF0000306E040F6A5
:10472000E453C2F20003FA681A603B69184607F1C5
:104730001C07BD4680BC704780B483B000AF786072
:104740004FF0FF33184607F10C07BD4680BC704799
:1047500080B483B000AF78604FF0FF33184607F1A4
:104760000C07BD4680BC704780B483B000AF786052
:1047700039604FF0FF33184607F10C07BD4680BC87
:10478000704700BF80B400AF4FF0FF331846BD46FE
:1047900080BC704780B400AF4FF0FF331846BD4671
:1047A00080BC704780B483B000AF7860FEE700BF84
:1047B00080B400AFBD4680BC704700BF80B483B0FA
:1047C00000AF78604FF0FF33184607F10C07BD4685
:0447D00080BC7047F2
:1047D4002CBAFF7F0100000040BAFF7F01000000F7
:1047E4008241EC1FFD7C27C08241EC1F0000004089
:1047F400000000E08241EC1F523F9CC03153781FFF
:104804000E853B3FDB26C2E0DA7CEE1F4D0623C05B
:10481400DA7CEE1F00000040000000E0DA7CEE1FAE
:10482400CD399BC0F129771FF217413F1EB5BCE07B
:10483400B1B4F01F9E961EC0B1B4F01F000000403A
:10484400000000E0B1B4F01F35559AC004E4751FB0
:104854005E82463F026AB7E07DE9F21F052D1AC069
:104864007DE9F21F00000040000000E07DE9F21F36
:10487400629199C02781741F79C54B3F7C44B2E093
:10488400B51BF51F97C815C0B51BF51F00000040E8
:10489400000000E0B51BF51F34EE98C00F01731F34
:1048A4005EE2503F8743ADE0CC4BF71F696811C00F
:1048B400CC4BF71F00000040000000E0CC4BF71F7A
:1048C400916B98C07063711F23DA553F2466A8E08A
:1048D400377AF91F920B0DC0377AF91F0000004098
:1048E400000000E0377AF91F670998C0F2A76F1F2C
:1048F400D6AD5A3F5CABA3E06BA7FB1F29B108C040
:104904006BA7FB1F00000040000000E06BA7FB1F2B
:10491400A9C797C03DCE6D1F7D5E5F3F3F129FE0EC
:10492400DDD3FD1F465804C0DDD3FD1F0000004049
:10493400000000E0DDD3FD1F54A697C0EFD56B1F28
:1049440016ED633FE1999AE000000020000000C0EA
:104954000000002000000040000000E000000020F3
:1049640069A597C0A1BE691F975A683F5F4196E049
:10497400492C02206EA7FBBF492C022000000040F6
:10498400000000E0492C0220F2C497C0E887671FAA
:10499400F2A76C3FD80792E02C590420A84DF7BF2A
:1049A4002C59042000000040000000E02C59042091
:1049B400FF0498C04F31651F0FD6703F75EC8DE032
:1049C4001E870620C5F1F2BF1E87062000000040A6
:1049D400000000E01E870620A86598C05EBA621F2A
:1049E400D1E5743F62EE89E093B60820DA92EEBF17
:1049F40093B6082000000040000000E093B60820B1
:104A04000BE798C09522601F15D8783FD20C86E03A
:104A140002E80A20FD2FEABF02E80A200000004055
:104A2400000000E002E80A204E8999C06E695D1F0B
:104A3400B0AD7C3FFD4682E0DF1B0D2042C8E5BFE0
:104A4400DF1B0D2000000040000000E0DF1B0D20F4
:104A54009E4C9AC05C8E5A1F7367803F1F9C7EE0F9
:104A6400A2520F20BC5AE1BFA2520F200000004006
:104A7400000000E0A2520F2030319BC0CC90571FA1
:104A84002806843F7B0B7BE0C18C11207EE6DCBFD3
:104A9400C18C112000000040000000E0C18C1120F6
:104AA4003F379CC02570541F948A873F599477E000
:104AB400B5CA1320976AD8BFB5CA132000000040B6
:104AC400000000E0B5CA13200E5F9DC0C52B511F26
:104AD40074F58A3F053674E01065B21F246216C16E
:104AE40087AC391FBB1F8D3F2FB071E01065B21F1B
:104AF4000266FDC1AE5B631EDCE4533DD99584E2DE
:104B04000422BB1F828805C1D0B5411F04A38B3F7B
:104B1400CB1D73E00422BB1FD258F9C1E84E5F1EBF
:104B24001D9B6B3D56B16EE2A0D3C31F2FA9F4C0E9
:104B340026D0491F523D8A3FE27374E0A0D3C31FBD
:104B440083EAF5C101B95A1EDE99823D3E6859E2F5
:104B5400967BCC1FA2BFE3C068FE511F67F0883F5D
:104B6400B7B075E0967BCC1F1F1CF3C1FE97551E92
:104B7400D8E3983D63B944E2991BD51F74C7D2C0EA
:104B840052435A1FE6BD873FAAD276E0991BD51F30
:104B9400ACEEF0C1F5E94F1EC47BAE3D89A330E213
:104BA4005CB5DD1F64BCC1C079A1621F4CA7863F00
:104BB40044D877E05CB5DD1F2263EFC118AD491E10
:104BC4006164C33D5B251DE2944AE61F5F9AB0C051
:104BD400481B6B1FECAD853F37C078E0944AE61F55
:104BE400697AEEC1B5DF421E7CA0D73D693D0AE279
:104BF400F3DCEE1F7E5D9FC0F7B2731FE7D2843FE4
:104C0400698979E0F3DCEE1F5635EEC13E803B1E28
:104C1400F732EB3D20EAF7E12F6EF71F11028EC049
:104C24008C6A7C1F2917843FF4327AE02F6EF71FB9
:104C3400A294EEC1488D331ECB1EFE3DC429E6E18D
:104C4400000000209B847CC0D543851F657B833F87
:104C54002BBC7AE000000020EE98EFC191052B1EDA
:104C64001267103E6FFAD4E11D940820D6E16AC0A1
:104C740067408E1F1700833F9E247BE01D9408200D
:104C8400BE42F1C104E8211E010F223E0C5AC4E1C8
:104C9400402C1120B51659C09E61971F7BA5823FF9
:104CA400146C7BE0402C11207892F3C1B233181EAF
:104CB400F219333E5846B4E125CA1920602047C092
:104CC4009CA8A01F966B823F92927BE025CA192074
:104CD4006788F6C1D8E70D1E5D8B433EE3BCA4E1B3
:104CE4008A6F222035FC34C04F16AA1F3552823FEA
:104CF40055987BE08A6F2220BB24FAC1DA03031E95
:104D0400DB66533E0EBB95E1321E2B20C0A722C0AA
:104D14006DABB31FEE58823FCE7D7BE0321E2B205D
:104D24009167FEC13D87F71D23B0623E0E3E87E1C9
:104D3400E0D73320BD2010C07E68BD1F257F823F91
:104D4400A0437BE0E0D73320F15003C2A871EB1DF0
:104D5400066B713EF44279E15D9E3C200965FDBF1E
:104D6400E14DC71F13C4823F9DEA7AE05D9E3C205B
:104D7400DAE008C2DBC2DE1D6B9B7F3EACC66BE192
:104D840073734520A472EABFD05BD11FC626833F4C
:104D9400BC737AE07373452046170FC2A77AD11DFE
:104DA4004C458D3E03C65EE1F1584E20A447D7BF63
:104DB4006992DB1F2AA6833F1AE079E0F1584E205E
:104DC40030F415C2EC98C31DB06C9A3EAC3D52E170
:104DD40035D8ED1EF2E446C49DD6021D59F6D23DE7
:104DE400317A0EE235D8ED1E4AB69FC7E3149B1AFA
:104DF400D303C93565CB1DE8954D0C1F3C4A0FC440
:104E040066B31A1D7E3FCE3D11D711E2954D0C1F9E
:104E1400C9B195C7160A8F1A19CA1D36222ADDE7A9
:104E240099B72A1FEE74D7C3E0D1321DF407CA3DE7
:104E340035AD14E299B72A1F69D48DC7FE5B811A78
:104E4400FAF16F36E7019EE71B1B491FF9549FC314
:104E5400B03D4B1D0F53C63DCFF916E21B1B491F36
:104E64006F2988C72D03721ABA84BF36C35860E706
:104E7400067D671F2FDA66C38E02641D3823C33D87
:104E840005BB18E2067D671F6CBC84C770F8601A06
:104E94005F8C0C37973324E757E2851F59F42DC3F1
:104EA4002F2C7D1DE579C03DF5EF19E257E2851FF2
:104EB400359983C7EA344E1AB61357370996E9E68B
:104EC4001F50A41F4793F4C237C6961D9F57BE3D7B
:104ED400AF981AE21F50A41FCFCB84C729B2391A46
:104EE4004D269F378082B0E682CBC21FE6A6BAC2A7
:104EF40023DCB01D05BCBC3D2DB61AE282CBC21F1B
:104F0400626088C73B6A231A6ED0E4372AFA78E6CF
:104F1400B459E11F551F80C23279CB1DD7A5BB3DC3
:104F24004B4A1AE2B459E11F21638EC7CB570B1ABF
:104F34000E1F2838FEFC42E600000020F9EC44C2B3
:104F44004EA8E61D0713BB3DB25719E2000000202E
:104F54003CE096C73776F119C41F6938C9890EE653
:104F6400C3C31E20950009C2F673021EC900BB3DCF
:104F7400C6E117E2C3C31E20C9E3A1C7AAC1D5195C
:104F8400AFE0A7383F9EDBE570AA3D20614BCCC162
:104F940023E61E1EA36BBB3D95EC15E270AA3D20D3
:104FA400B179AFC73037B8196870E4380B37AAE560
:104FB4008EB95C201FBF8EC135083C1E8B4FBC3D93
:104FC400BC7C13E28EB95C209EADBFC7CDD49819CA
:104FD400E9DD1E39E54F7AE5B8F67B202B4E50C14A
:104FE400DDE2591EF1A7BD3D539710E2B8F67B20D0
:104FF400EA8AD2C78C99771978385739A9E34BE5EF
:10500400A3679B2090EB10C1097E781EE16FBF3D22
:10501400D7410DE2A3679B20911CE8C791855419E1
:10502400908F8D396EEC1EE51612BB20128BD0C00A
:10503400D5E0971E0EA2C13D118209E21612BB20D3
:10504400256D00C8219A2F19C9F2C1399E63F3E472
:10505400F3FBDA2038218FC08111B81EEC38C43D2F
:10506400055E05E2F3FBDA20C9861BC8A7D9081937
:10507400CC71F4390F42C9E4332BFB2050A34CC04C
:105084006915D91EC22EC73DE0DB00E2332BFB209D
:105094002F7339C8B147E018361C253A1980A0E4AB
:1050A400E8A51B216C0709C005F1FA1EB97DCA3DAC
:1050B400E001FCE1E8A51B21983B5AC8F0E8B518CB
:1050C4008C01543AAC1579E4B11F731D745240CD70
:1050D400D1681518CFFC7037E812C0E6B11F731DF4
:1050E40044F0D7D796653C143F0B7D21EA2F28F076
:1050F400C6C3B91D4BFFC9CCC5063C1808A5623709
:105104005E88BDE6C6C3B91DE6A3DED7A94B281445
:10511400584232222235C6EF38CD001EA27152CC3D
:10512400E01B6318E9B155370070B9E638CD001EAD
:10513400BDF5E9D7E08A111425D2E2228CEA64EFA6
:105144003844481ED18AD9CB86C08A18431E4A37B0
:10515400F9D4B3E63844481EF60CFAD7D91AF81332
:10516400E8C18E231F7604EF4E31901EC12A5FCB17
:10517400720EB31816E33F3720C4ACE64E31901ECE
:10518400FA110FD85DF4DB13A01B3624ADFAA4EE9C
:10519400569DD81EF82FE3CAB220DC18CEF7363756
:1051A400C24BA4E6569DD81E632E29D88E11BD137A
:1051B400CAEBD824E39746EE8391211FA17765CAF1
:1051C4009B13061971522F375D7B9AE68391211F39
:1051D400F58C48D8186E9B1318417725446AE9ED7D
:1051E40060176B1F9BDDE5C9C6043119DFE728375B
:1051F40062638FE660176B1F92596DD86907771346
:105204002F2C11263E8B8DEDCB38B51F8B3C64C9FA
:10521400F9125D1903AC2337011583E6CB38B51FAA
:1052240023C197D8E6DC4F1364BFA626401133EDA3
:1052340000000020F76DE0C8165E8A1909921F3736
:10524400EAA175E60000002085F1C7D82CF02513EB
:105254007B0E3827D40FDAEC8F774B205F4A5AC87D
:105264000007B9198E8C1C371F1C67E68F774B20FB
:105274006319FED84D45F9126C2EC527C69782ECEA
:1052840063AA972067A9D1C7762FE919CA8D1A375F
:10529400C99557E663AA972018683AD912E3C91248
:1052A40025354E2848B72CECC2A3E420FC6146C740
:1052B400ECF91A1ABB8719370B2147E6C2A3E4207D
:1052C4007E0D7DD938D397125E39D328217AD8EB55
:1052D4004D6F3221864AB8C65C894E1A496C19371B
:1052E400DFCF35E64D6F3221BF39C6D9B7226312FD
:1052F40062525429D3E985EB001981211B3927C651
:105304001201841A632D1A37FCB323E60019812194
:10531400191D16DAFAE12B12EA97D129CB0D35EBD8
:1053240037ADD021BE0393C56784BB1A1CBD1B37A0
:10533400BADE10E637ADD021A4E76CDA1E25F211EF
:10534400F3214B2A8AEBE5EAAB3821229C80FBC48B
:105354008636F51AC20D1E37FE60FDE5AB382122F4
:1053640009C9CADA2104B6119E08C12AD18698EA6D
:1053740073C872224B8660C4213A311BEE11213767
:10538400274BE9E573C8722240F02FDB139B77119A
:105394001564332BCAE14CEA0C6AC52214ECC1C370
:1053A40022B16F1B97BC243704ADD4E50C6AC52227
:1053B400458B9CDB310A37116D4CA22B2FFD02EA81
:1053C40027F116172B21C9E19AF6BC0B38181332B2
:1053D400B2054EEB27F11617D5DE361E9AF6BC0B36
:1053E400C8E7ECCDB2054EEBE2D0F017461D46E01F
:1053F40073D9580CF33FB2316C8F8BEBE2D0F017BA
:10540400BAE2B91F73D9580C0DC04DCE6C8F8BEB1B
:10541400A3DDD2187991B2DE19EEFC0C0A244F31C7
:1054240009A2C9EBA3DDD218876E4D2119EEFC0C3D
:10543400F6DBB0CE09A2C9EB9D62BD1953E90DDDBF
:105444007E82A90D5CBEE930CC3008EC9D62BD19AA
:10545400AD16F2227E82A90DA44116CFCC3008EC01
:105464005FADB01A7E8B57DBC9E65E0E5B098230F6
:10547400D82D47EC5FADB01A8274A824C9E65E0E3D
:10548400A5F67DCFD82D47ECDF0DAD1BA3D98ED962
:10549400756D1D0F260018301B8A86ECDF0DAD1BC1
:1054A4005D267126756D1D0FDAFFE7CF1B8A86EC2A
:1054B40089D6B21C4330B3D7636BE50F999EAB2FEB
:1054C4004135C6EC89D6B21CBDCF4C28636BE50FC1
:1054D400676154D04135C6EC525CC21DA0E6C3D509
:1054E400F137B71065E13C2FA81D06ED525CC21DD3
:1054F40060193C2AF137B7109B1EC3D0A81D06EDD6
:10550400C0F6DB1E9B4EC0D30C2D931121C6CB2EAF
:105514004B3046EDC0F6DB1E65B13F2C0C2D9311CC
:10552400DF3934D14B3046ED0000002098B4A7D1C8
:1055340046A77912684B582EBA5886ED0000002011
:10554400684B582E46A7791298B4A7D1BA5886ED5D
:10555400EED42E215F5F79CFE8056B13EE70E22D58
:105564000981C6EDEED42E21A1A08630E8056B1387
:10557400128F1DD20981C6ED2AD56822FC8F34CD45
:1055840006AB6714A1376A2DC09106EE2AD56822AE
:105594000470CB3206AB67145FC895D2C09106EE97
:1055A4002663AE23A681D8CA91FB6F15BEA1EF2C4A
:1055B400D27146EE2663AE235A7E273591FB6F15D2
:1055C400425E10D3D27146EE35E4FF24996964C873
:1055D400675F8416F9B2722C910686EE35E4FF24D7
:1055E40067969B37675F8416074D8DD3910686EEC9
:1055F4009DC05D26FF76D7C56741A5179370F32B31
:10560400A333C5EE9DC05D260189283A6741A517DD
:105614006D8F0CD4A333C5EEA663C827C9D230C39B
:10562400840FD31884E1712BFCDA03EFA663C82737
:10563400372DCF3C840FD3187C1E8ED4FCDA03EFB5
:10564400AE3B4029949F6FC0D33A0E1A970EEE2AB0
:10565400DADC41EFAE3B40296C60903FD33A0E1A3E
:1056640069F111D5DADC41EF38BAC52A85F992BD62
:10567400A037571B9002682AC5177FEF38BAC52A8E
:105684007B066D42A037571B70FD97D5C5177FEF7A
:10569400FE53592C28F699BA7D7DAE1C4ECADF29DB
:1056A4008F68BBEFFE53592CD80966457D7DAE1C2F
:1056B400B23520D68F68BBEF6C6F673130000000C5
:0C56C4000000000043000000101900204E
:1056D00000000000A0D3F83AC0218A3BC888F33B01
:1056E0003461333C3031763C96379D3C5E1FC13C83
:1056F00052B7E43CB635043D2CB7153D6ED7263D78
:10570000527F373DC784473DEAF1563D339E653DA4
:1057100093A3733DBE76803D2CCD863DDCD38C3D7E
:105720006797923DFF1A983DD4669D3D797FA23DD3
:10573000F469A73D682BAC3DB4C7B03D5844B53DB6
:1057400034A5B93DB6EFBD3DE127C23DA052C63DEF
:10575000D273CA3DA28FCE3D8CA9D23DE9C4D63DBD
:10576000A4E4DA3D470BDF3D063BE33DA575E73D8D
:105770009ABCEB3DF810F03D9573F43D03E5F83D20
:10578000AE65FD3DEDFA003EE04A033EC6A2053E91
:10579000B602083ECB6A0A3E22DB0C3EDF530F3EC8
:1057A00028D5113E285F143E08F2163EF68D193EAC
:1057B00014331C3E88E11E3E6699213EC05A243EA9
:1057C0009B25273EECF9293EA2D72C3E99BE2F3EC1
:1057D000A7AE323E93A7353E1CA9383EF9B23B3EF8
:1057E000D6C43E3E5FDE413E35FF443EFE26483E87
:1057F00059554B3EE6894E3E47C4513E1F04553E27
:105800001449583ECE925B3EFBE05E3E4B33623E17
:105810007289653E2BE3683E34406C3E4FA06F3E7C
:105820004303733EDE68763EEFD0793E4C3B7D3ECF
:10583000E653803E280B823E5CC3833E747C853EEB
:105840006536873E26F1883EAEAC8A3EF8688C3ECF
:10585000FE258E3EBDE38F3E32A2913E5E61933EB9
:105860003F21953ED8E1963E2BA3983E3A659A3E5D
:105870000B289C3EA2EB9D3E04B09F3E3675A13E98
:10588000403BA33E2802A53EF5C9A63EAF92A83EE6
:105890005C5CAA3E0627AC3EB2F2AD3E6ABFAF3EAC
:1058A000348DB13E185CB33E1C2CB53E48FDB63E6F
:1058B000A2CFB83E2EA3BA3EF677BC3EFA4DBE3E0E
:1058C0004425C03ED3FDC13EAED7C33ED6B2C53E91
:1058D000508FC73E1B6DC93E3A4CCB3EAE2CCD3EE1
:1058E000760ECF3E94F1D03E04D6D23EC7BBD43E16
:1058F000DAA2D63E3B8BD83EE774DA3EDB5FDC3E75
:10590000124CDE3E8A39E03E3E28E23E2718E43E55
:105910004209E63E8AFBE73EF6EEE93E84E3EB3ED3
:105920002AD9ED3EE4CFEF3EAAC7F13E75C0F33E63
:105930003EBAF53EFEB4F73EAFB0F93E48ADFB3E91
:10594000C2AAFD3E15A9FF3E1DD4003F15D4013F5C
:105950006FD4023F26D5033F36D6043F9DD7053F7F
:1059600055D9063F5CDB073FAEDD083F47E0093F06
:1059700023E30A3F3EE60B3F96E90C3F25ED0D3F42
:10598000E9F00E3FDEF40F3F00F9103F4CFD113FF0
:10599000BE01133F5306143F070B153FD70F163FA9
:1059A000BE14173FBB19183FC91E193FE4231A3F05
:1059B0000A291B3F372E1C3F67331D3F97381E3F78
:1059C000C33D1F3FE842203F0248213F0E4D223F8A
:1059D0000752233FEB56243FB65B253F6460263FCA
:1059E000F164273F5969283F996D293FAD712A3FDE
:1059F00090752B3F40792C3FB77C2D3FF27F2E3F97
:105A0000EC822F3FA285303F0F88313F2E8A323FF4
:105A1000FC8B333F748D343F928E353F508F363F31
:105A2000AB8F373F9D8F383F238F393F368E3A3FBC
:105A3000D28C3B3FF38A3C3F93883D3FAD853E3F50
:105A40003C823F3F3B7E403FA479413F7374423FDD
:105A5000A26E433F2B68443F0861453F3659463F9D
:105A6000AD50473F6847483F623D493F93324A3F08
:105A7000F8264B3F891A4C3F410D4D3F1AFF4D3FD1
:105A80000DF04E3F15E04F3F2BCF503F49BD513FEA
:105A900068AA523F8496533F9481543F926B553F7E
:105AA0007954563F403C573FE322583F5A08593FEC
:105AB0009EEC593FA8CF5A3F72B15B3FF5915C3FD6
:105AC0002A715D3F094F5E3F8D2B5F3FAD06603F02
