:020000041000EA
:1010000050090020191000106D1100106F11001010
:1010100000000080000000800348854603488047A8
:101020000348804706E0000050090020B11100107D
:10103000C910001018481949194A002A0AD0042A70
:1010400000D20422920803680B60013A02D00430F7
:101050000431F8E713481449002909D0042900D2C3
:101060000421890800220260013901D00430FAE726
:101070000E480F490F4A920803680B60013A02D0EC
:1010800004300431F8E70C4880470C4885460020BE
:1010900000210B4A9746000078AC0210601900202E
:1010A0003C240000500900200C10000040AB02104E
:1010B0000C00002038010000BD1100105009002074
:1010C000CD10001001207047C046704790B589B020
:1010D00000AF3B1C1F3300221A701D4B1B6899B2D6
:1010E0001C4B1B68DAB21C4B1B68DBB23C1C1F3468
:1010F000381C083000F03CFE031C23703A1C0832F8
:10110000164B101C191C00F00FFE114B1B681349E5
:10111000134A081C111C1A1C00F00EFF0C4B196816
:101120000F483A1D0F4B00F081FE0E4B1A680E4B14
:101130001B689A4203D03B1C1F33FA221A703B1CD7
:101140001F331B785BB2002B00D0FEE7FEE7C046E2
:1011500060390020501900206439002060190020F7
:10116000500900205419002068390020FEE7FEE7EE
:10117000FEE7FEE7FEE7FEE7FEE7FEE7FEE7FEE747
:10118000FEE7FEE7FEE7FEE7FEE7FEE7FEE7FEE737
:10119000FEE7FEE7FEE7FEE7FEE7FEE7FEE7FEE727
:1011A000FEE7FEE7FEE7FEE7FEE7FEE7FEE7FEE717
:1011B00080B500AFFFF786FFBD4680BD80B586B025
:1011C00000AF1C4B1B683B613A69FF231B021340B5
:1011D0001B0AFB603A69FF231340BB60FB68002BCE
:1011E0001FD0BB68002B06D11348F96801F034FA10
:1011F000031C7B6117E0FB681A02BB68D3187B6095
:101200007B68FA221006191C01F026FA031C3B60C9
:101210003B68FA22920053437B617B695B0A7B61E6
:1012200001E0054B7B61054B7A691A60BD4606B04B
:1012300080BDC046000301400048E8015819002065
:10124000F0B55F4656464D464446F0B4A5B01793F8
:10125000209214918A0817991692179ECC0016991D
:1012600077001B0113921194BA19CC0016990F93B1
:10127000D300169A071912944C006618051C109397
:101280001301209A04351597F700039722900993CC
:10129000079208920692041C2F1C2068129B83461A
:1012A000E1583D68129E0998BA59894601950399FB
:1012B00025580398099BAA46029262583D58514608
:1012C0005846FE58904601F051FA41460A90484669
:1012D00001F04CFA311C0B90019801F047FA291CDF
:1012E0000C90029801F042FA069B069A19680D903C
:1012F0005068049105905146584601F02FFF414631
:101300008246484601F02AFF311C8046019801F0D0
:1013100025FF291C061C029801F020FF0B99051CD3
:101320000A9801F023FA20600D990C9801F01EFA3A
:10133000291C3860504601F019FA41460190301CD2
:1013400001F00CFF0B9902900A9801F007FF0D992C
:1013500081460C9801F002FF291C8346504601F09B
:10136000FDFE311C0A90404601F000FA089B0B90EC
:101370000798089A196843680668019855689A465C
:10138000884601F0BBFD41460C90029801F0B6FD85
:1013900004990D90484601F0B1FD04990E9058460D
:1013A00001F0ACFD311C80460A9801F0A7FD311C0C
:1013B00004900B9801F0A2FD0599061C584601F017
:1013C0009DFD011C0E9801F0D1F91299605005990C
:1013D000484601F093FD011C404601F0BFFE129A01
:1013E000291CB850029801F089FD011C0C9801F0ED
:1013F000BDF9099B291CE050019801F07FFD011CFB
:101400000D9801F0ABFE099D514678510B9801F003
:1014100075FD011C049801F0A9F90399605051462B
:101420000A9801F06BFD011C301C01F097FE039E31
:101430000F9AB8510698089D119983180798109A29
:101440006E18159D0693083483180837089607937D
:10145000AC4200D021E7179C16AE3088A700B9B285
:101460001F9123902190042800D829E1139A1F9EF0
:1014700093081F9D1E9370008219EC001F9F1E9DF4
:101480001E9E3901013B1E9F1A947000EC001D93B3
:101490000794D300209C8219229D1B911C93390133
:1014A000D300002706910893199518941794169461
:1014B000159716991698179B0E6842681D68179C19
:1014C00018991898199B67680C960D920E950E68DE
:1014D0004268159D0433199C0F9710961192099537
:1014E0001F1C216807988B463E6806992258039670
:1014F0000698665808999146079B089AB2463E5846
:101500007858FD58A358514601905846984601F026
:1015100025FE41460290484601F020FE311C049011
:10152000039801F01BFE01990590281C01F016FE9E
:1015300051460A90584601F019F9414682464846FC
:1015400001F014F9311C8046039801F00FF901995C
:10155000061C281C01F00AF90A99051C029801F0E2
:1015600005F904990390059801F0F8FD414681467C
:10157000504601F0F3FD291C0190301C01F0EEFDF6
:101580000A990B90029801F0E9FD059983460498A9
:1015900001F0ECF841460290504601F0E7F8291CB2
:1015A0002060301C01F0E2F80C993860039801F0DB
:1015B000A5FC0C998046484601F0A0FC0E99061C3B
:1015C000019801F09BFC0E9904900B9801F096FC99
:1015D00010998246584601F091FC1099051C02981A
:1015E00001F08CFC0F9905900B9801F087FC011C11
:1015F000049801F0BBF8079A0F99A050019801F0E8
:101600007DFC011C504601F0A9FD079BF8500D9987
:10161000484601F073FC011C404601F0A7F806990A
:1016200060500D99039801F069FC011C301C01F019
:1016300095FD069E1199B851029801F05FFC011CBE
:10164000281C01F093F8089D11996051584601F04B
:1016500055FC011C059801F081FD089A139BB850B8
:101660000998129EC1180991149D099AA419BF19CD
:10167000954200D935E71598169B1A99179C0130A9
:101680001B9F5E181590199918981C9AE5191696C3
:101690001D9C159E83180831179518931991A64221
:1016A00000D806E71F9F219ABD001E99A8B2930893
:1016B0001F9021931391042B02D9CF001297D5E6E6
:1016C000229C239F6568A0682668AB4681462569F1
:1016D000A169E069E268636988460790291C301CAB
:1016E0009A46069201F042F8291C0890301C01F03D
:1016F00035FD5146051C584601F038F85146061C88
:10170000584601F02BFD41460990484601F02EF85D
:1017100007998246069801F029F8414683464846D3
:1017200001F01CFD07998046069801F017FD51460F
:101730008146089801F01AF859462060301C01F0E3
:1017400015F851466060089801F008FD5946A06000
:10175000301C01F003FD4946E060281C01F006F84A
:1017600041462061099801F0F9FC49466061281C56
:1017700001F0F4FC0999A061404600F0F7FF013F39
:10178000E0612034002F9DD125B03CBC90469946A5
:10179000A246AB46F0BDC046F0B55F4656464D4644
:1017A0004446F0B4A5B01793209214918A08179973
:1017B0001692179ECC00169977001B011392109475
:1017C000BA19CC0016991193D300169A07191294DE
:1017D0004C006618051C0F931301209A04351597C9
:1017E000F700029722900993079206920892041C30
:1017F0002F1C099B2068129AE1583D688346A05827
:101800008A4601950299129D814602987B59625839
:101810003D58514658469046039300F0A7FF414675
:101820000A90484600F0A2FF099E0B90BE5901980D
:10183000311C00F09BFF291C0C90039800F096FFD0
:10184000089B089A19680D905068049105905146BC
:10185000584601F083FC41468246484601F07EFC32
:10186000311C8046019801F079FC291C061C039864
:1018700001F074FC0B99051C0A9800F077FF2060BA
:101880000D990C9800F072FF291C3860504601F049
:1018900065FC41460190301C00F068FF0B990390F5
:1018A0000A9801F05BFC0D9981460C9801F056FCFA
:1018B000291C8346504600F059FF41460A90301CCF
:1018C00001F04CFC069B0B900798069A1968436838
:1018D0000668019855689A46884601F00FFB414614
:1018E0000C90039801F00AFB04990D90484601F012
:1018F00005FB04990E90584601F000FB311C804610
:101900000A9801F0FBFA311C04900B9801F0F6FAEA
:101910000599061C584601F0F1FA011C0E9801F0D9
:101920001DFC129960500599484601F0E7FA011C28
:10193000404600F01BFF129A291CB850039801F092
:10194000DDFA011C0C9801F009FC099B291CE050F0
:10195000019801F0D3FA011C0D9800F007FF099DD2
:10196000514678510B9801F0C9FA011C049801F016
:10197000F5FB0299605051460A9801F0BFFA011C2C
:10198000301C00F0F3FE029E119AB8510898069D93
:101990001099831807980F9A6E18159D08930834AC
:1019A0008318083706960793AC4200D021E7179CAE
:1019B00016AE3088A700B9B21F9123902190042859
:1019C00000D829E1139A1F9E93081F9D1E93700053
:1019D0008219EC001F9F1E9D1E9E3901013B1E9F18
:1019E0001A947000EC001D930794D300209C821978
:1019F000229D1B911C933901D30000270691089367
:101A00001995189417941694159716991698179B6C
:101A10000E6842681D68179C18991898199B67688A
:101A20000C960D920E950E684268159D0433199C14
:101A30000F971096119209951F1C216807988B46E5
:101A40003E6806992258029606986658089991466B
:101A5000079B089AB2463E587858FD58A3585146FD
:101A600001905846984601F079FB4146039048465C
:101A700001F074FB311C0490029801F06FFB019996
:101A80000590281C01F06AFB51460A90584600F068
:101A90006DFE41468246484600F068FE311C804695
:101AA000029800F063FE0199061C281C00F05EFEFF
:101AB0000A99051C039801F051FB049902900598BE
:101AC00000F054FE41468146504601F047FB291C78
:101AD0000190301C01F042FB0A990B90039800F032
:101AE00045FE04998346059801F038FB4146039072
:101AF000504600F03BFE291C2060301C00F036FEF2
:101B00000C993860029801F0F9F90C998046484622
:101B100001F0F4F90E99061C019801F0EFF90E9905
:101B200004900B9801F0EAF910998246584601F0AA
:101B3000E5F91099051C039801F0E0F90F9905905B
:101B40000B9801F0DBF9011C049801F007FB079AE0
:101B50000F99A050019801F0D1F9011C504600F0F6
:101B600005FE079BF8500D99484601F0C7F9011C86
:101B7000404601F0F3FA069960500D99029801F081
:101B8000BDF9011C301C00F0F1FD069E1199B85101
:101B9000039801F0B3F9011C281C01F0DFFA089D3D
:101BA00011996051584601F0A9F9011C059800F0FF
:101BB000DDFD089A139BB8500998129EC11809912F
:101BC000149D099AA419BF19954200D935E71598B3
:101BD000169B1A99179C01301B9F5E181590199936
:101BE00018981C9AE51916961D9C159E83180831A5
:101BF000179518931991A64200D806E71F9F219ABE
:101C0000BD001E99A8B293081F9021931391042B35
:101C100002D9CD001295D5E6239E229C2E9DB34677
:101C20006068276823698146A169E069E268BA466D
:101C300007910890191C50469846069200F096FDB0
:101C400041460990504601F089FA67698046391C7F
:101C5000484600F08BFD391C8246484601F07EFA6A
:101C6000A66807990290301C00F080FD0899019049
:101C7000069800F07BFD07998146301C01F06EFA52
:101C80000899061C069801F069FA0199071C099841
:101C900000F06CFD291C01F031F9494620605046E6
:101CA00000F064FD291C01F029F901996060099890
:101CB00001F054FA291C01F021F94946A060504670
:101CC00001F04CFA291C01F019F9391CE06040467A
:101CD00001F044FA291C01F011F9311C206102982D
:101CE00000F044FD291C01F009F9391C60614046EF
:101CF00000F03CFD291C01F001F9311CA0610298A3
:101D000001F02CFA291C01F0F9F8012253429B44FE
:101D10005946E0612034002982D125B03CBC904670
:101D20009946A246AB46F0BD30B583780D1C83B012
:101D3000041C0188012B09D083896268281CFFF7E5
:101D40007FFAE07801280BD003B030BD02698389A7
:101D50000092281C6268FFF71FFDE0780128F3D18C
:101D60002188E289A368281C00F07CF9ECE7C046D2
:101D700010B5234CC37080238270018044605A00E8
:101D8000914233D00AD98024E30099421CD08022AA
:101D90005401A1420FD0FF2040B210BD10291CD029
:101DA0004029F8D11749184CF2239A05C160846084
:101DB00002610020F0E71549154BE6229405C16049
:101DC000836004610020E7E71249134BEA2294057F
:101DD000C160836004610020DEE71049104CF623E7
:101DE0009A05C160846002610020D5E70D490E4B61
:101DF000EE229405C160836004610020CCE7C046F8
:101E0000E4A2011040004000E2A202100100010023
:101E100064A20210040004006AA202100001000182
:101E200062A402101000100082A20210F0B54D460C
:101E30005F4656464446F0B4051C85B0894602927A
:101E4000039380CD012900D172E010CD01204A46D4
:101E50000240391C201C019200F074FC261C002852
:101E60005BD0201C391C00F06DFC0224431E9841FD
:101E7000B34682468046371C4C4541D00199002923
:101E800015D080CD311C381C00F05CFC0197002877
:101E90004CD0019B381C311C9B4600F053FC221C8B
:101EA00000283CD001349046019F4C4528D001CDFC
:101EB000391C834600F046FC5E46002800D13E1CDB
:101EC0005846391C00F03EFCA246002800D1C2460C
:101ED00002CD01348846081C311C00F033FC474613
:101EE000002800D1371C4046311C00F02BFCBB46BB
:101EF000231C002800D15346013498464C45D6D1C6
:101F0000029C03985D4642462560026005B03CBCD9
:101F100090469946A246AB46F0BD3E1CA1E752460C
:101F200001349046019F4C45C1D1E9E70196B0E7E5
:101F30000023BB469846E3E7F0B54E464546574674
:101F4000E0B40D1C161E7CD0511E01270F40016805
:101F500042680023041C081C9146984600F0CEFFFE
:101F600049468246484600F0C9FF011C504600F031
:101F7000FDFB41460834814600F0E4FB00286BD0AD
:101F8000484600F069FA2860013E0435002E58D01A
:101F9000002F1CD021686768081C00F0AFFF391CB7
:101FA0008246381C00F0AAFF011C504600F0DEFB00
:101FB00000210834071C00F0C5FB00284FD0381C56
:101FC00000F04AFA2860013E0435002E39D021681D
:101FD0006768081C00F092FF391C8146381C00F02D
:101FE0008DFF011C484600F0C1FB00210834071C8E
:101FF00000F0A8FB002829D0381C00F02DFA28603A
:1020000021682A1D081C914600F078FF6768824607
:10201000391C381C00F072FF011C504600F0A6FB72
:102020000021013E0834071C00F08CFB002810D072
:10203000381C00F011FA68604D46013E0435002E50
:10204000C5D11CBC90469946A246F0BD41462960C8
:10205000D6E740466860EFE74046286094E743468D
:102060002B60B0E7F0B556464D4644465F46F0B4A7
:10207000022501246E4249088846A246520085B0D6
:10208000B1460392C244C1440022002400256F1CC3
:10209000F900461835684444E400AC4605192F6839
:1020A00004313760043466462E60041941180D6807
:1020B0002768039E023292B20F6025601C88151CAF
:1020C0009B194A4535D89442E1D9D1000E1837689A
:1020D0000291E100BB4647180191396831605E46C4
:1020E0003E60029F0437C619019F316804378C4651
:1020F000C1190F683760664657460E60D119CE0089
:102100000296361831683F198B46F900471801913D
:10211000396831605E463E60029F0437C619019FF0
:10212000316804378C46C1190F68376066460E6007
:10213000ADE705B03CBC90469946A246AB46F0BD23
:10214000F0B54D465F4656464446F0B4490885B062
:102150004C1C5200CD0003948E1E9446041C1C356A
:102160000022B1460834451902920027B60700D56F
:1021700094E0019176E097422BD9F9008A46804697
:10218000D04441460968A668A16041460E60E668F1
:1021900051460431B34646183168E1605946316012
:1021A0002E1F3168B246039E8B46B919CE003118F6
:1021B00002960E68884651460E605E4641460E60A5
:1021C00002992E680431B24646183168296051469A
:1021D00031601021491988462169261C8A460199D7
:1021E00010367F18F9000F1802913968BB4621613B
:1021F000029957465C46043127604718396874686D
:1022000071603C601F8802326344974225D9B468EC
:10221000F90002910918A2460C68B46054460C609B
:10222000029CF168043404198B462168F160594618
:102230002160EC680399A3467C18E1000C18029118
:102240002168E96059462160029C29690434041917
:102250008B46216829615D462560341C45460199FD
:102260001034103526687918CF00B346C619316886
:102270000437216059463160C719396866680232EF
:1022800061603E601F8863444A4500D873E705B02B
:102290003CBC90469946A246AB46F0BD2768CA00B2
:1022A0008618B84637680432276047463760821878
:1022B000666817686760166002261F880296634486
:1022C0004E45E4D8022297422BD9FE00B3468246FF
:1022D000DA4456463668A268A660564632605E46C4
:1022E000E2680436861990463268E26042463260FF
:1022F0002E1F3268B246039E9346BA19D600321892
:10230000019616689046524616605E464246166032
:10231000019A2E680432B246861832682A60524604
:102320003260103410350191029A9BE7F0B55646A1
:102330004D465F464446F0B4490883B00191019D83
:102340008A46022601997742A946B94452000331D0
:1023500001248D0094464A46A2444619041D0027D4
:102360000025910761D5019F2568B90042181768BB
:102370002760022715601D8863444F4563D8BD421E
:1023800011D96168AA00884681180A6862604246CD
:102390000A60316852468B46A9188A0081180A687B
:1023A00032605A460A60083408363EE0BD4211D910
:1023B0006368AA00821898461368636043461360F6
:1023C000326853469346EA189300C2181368336084
:1023D0005B46136008239B199846A368221C9B4602
:1023E000019B0237ED18AB00C5182B680832A360BB
:1023F0005C462C600D886346CB18BD4211D95168EC
:10240000AC0004198B462168516059462160B468BC
:102410005146A3466C18A10044182168B1605E467D
:102420002660141C464608340836019A2168AD1807
:10243000AA0085182A6802372260296061461D8833
:1024400059184F45B2D903B03CBC90469946A246B4
:10245000AB46F0BD0000000070B58AB0041C00F06F
:1024600053F8274E0023051CF056431C0AD0201CAD
:1024700000F0C0F8002805D0201C002100F04EF923
:10248000002802D1281C0AB070BD1E4A0121201C60
:10249000002500910192089501F016FB3478049014
:1024A000059102900391002C11D1144C124B06930C
:1024B0000794684600F09CF8002812D0089800287D
:1024C00014D10698079901F053FB051CDAE70B4974
:1024D0000948021C0B1C01F01BF806900791022C06
:1024E000E7D101F005FC21260660E7E701F000FCDA
:1024F00008990160E5E7C046000000000000000008
:102500006C39002064AA02103749420070B5031CE0
:10251000041C5008884249D8002845D0002C56DBBE
:10252000E615324CA0420BD880252804034257D12F
:1025300000245B0001340342FBD001210A1BB618C2
:102540005D028022680A14047F3E0443F20700D52E
:102550006400802570106300002600216A049A42FE
:102560002EDD80255B002A0418248D189D4202DC94
:10257000A9185B1BB61852088D185B00013C9D42E0
:1025800002DCA9185B1BB618013C5B005208002C4A
:10259000EBD1002B02D0012434403619FC217510F8
:1025A0008E05AB19C005C418201C70BD211C201C51
:1025B00000F0A4FC011C201C00F0D8F8041CF3E778
:1025C000FF263406802189041B19161CC9E7211C2B
:1025D000201C00F0C3FD011C00F09EFA041CE3E780
:1025E0000122B618ACE7C046FFFF7F7FFFFF7F00E8
:1025F00000207047031C10B50220002B00D110BD35
:10260000802211068B42FAD00F48104A1C18042071
:102610009442F4D9FF21CC0519199142EFD90C4A03
:102620005C1E03209442EAD90A495C189442E6D918
:10263000FF20C205934205D080210C041B1958428B
:102640005841DCE70120DAE7000080FFFFFFFF7E52
:10265000FEFF7F00FFFFFF7F002934D0012300220F
:1026600010B488422CD301242407A14204D2814211
:1026700002D209011B01F8E7E400A14204D2814221
:1026800002D249005B00F8E7884201D3401A1A439E
:102690004C08A04202D3001B5C0822438C08A042D5
:1026A00002D3001B9C082243CC08A04202D3001B8B
:1026B000DC082243002803D01B0901D00909E3E705
:1026C000101C10BC7047002801D00020C04307B484
:1026D000024802A14018029003BDC0461900000044
:1026E0000029F0D003B5FFF7B9FF0EBC4243891AA9
:1026F0001847C0467047C0468446081C6146FFE73D
:102700001FB500F0B3FB002801D40021C8421FBD53
:1027100010B500F03BFB4042013010BD10B500F099
:10272000A5FB002801DB002010BD012010BDC04624
:1027300010B500F09BFB002801DD002010BD01203A
:1027400010BDC04610B500F049FB002801DC002098
:1027500010BD012010BDC04610B500F03FFB0028A1
:1027600001DA002010BD012010BDC046F8B54302BB
:1027700042004F024C00C00F9B09120E061C9C46E3
:10278000240EC90FBF09884257D0151B002D00DC4D
:102790007EE0002C41D1002F64D0013D002D00D0FF
:1027A000ABE0DB1B141C061C590144D59A019509AA
:1027B000281C01F07FFA05388540844200DD79E06D
:1027C000001B1F242B1C411C221ACB4095401F1CB0
:1027D0002B1C5D1EAB413B43012500240F201840FC
:1027E000042800D004338021CF0401221F4016406A
:1027F000002F05D0FF2D5AD0B34C23402C1C01359F
:10280000EDB2DA08012D3BDD53025A0AE4B2E405C9
:102810002243F607101C3043F8BDFF2A2BD080213D
:10282000CC04274301231B2D49DD6746FB1A141CEA
:10283000061C5901BAD4651CD0E7151B002D4FDDCD
:10284000002C13D0FF2A5AD08024E1040F43012327
:102850001B2D00DCB0E06344141C590155D4651CE9
:10286000061CBBE7551C141C061CB7E7002F7CD1C7
:10287000551C141CB2E7802763467D00FF24ADE79A
:10288000002AC3D0002C28D08020C1030A43BBE714
:10289000002D47D1501CC3B2012B00DC96E06446EA
:1028A000E51B680158D53D1B0E1C141C80E7FF2456
:1028B0000022ACE7844B241A2B40651C8EE73E1C9B
:1028C0002021EE404D1BAF403B1C5F1EBB413343FC
:1028D0006746FB1A141C061CABE757027A0A96E7F8
:1028E000002D7FD1541CE1B2012953DDFF2C00D112
:1028F0009BE0FB185B08951C70E7FF2A92D1061C31
:10290000802063464500FF2468E7671CFF2F3CD00A
:102910006D4A01261E4013405B083343A51C061C6C
:102920003C1C5BE76842002A25D0FF2C70D0802237
:10293000D6041D1C3543AC4601261B2809DC624623
:102940002025C2402B1A60469840061C701E864106
:102950001643BB1B0E1C27E7141C002D00D027E7D5
:1029600000260125042300244AE7013D002D08D15B
:10297000FB18141C71E7002B50D1651C3B1C0E1C6E
:102980002CE7FF2A00D062E7B9E780235D00FF242F
:10299000042335E7002A7CD1002B00D1A1E0002FD1
:1029A00000D1AFE0FB18590100D4B0E0464E02253B
:1029B00033400124061C11E73C1C2023EC405D1B26
:1029C000AF403B1C5F1EBB41234344E7002A12D1AA
:1029D0006546002D41D1002FC2D03B1C0E1C0125A5
:1029E0000024FBE66D42002A23D1002B66D1651C32
:1029F0003B1C061CF2E66246002A38D1002F07D1A4
:102A0000802200265500314BFF24F9E6FF2C93D19C
:102A10003B1C80270E1C7D00FF24DFE601380028C8
:102A2000F4D16646BB1B0E1CBEE680277D00042346
:102A3000E6E6FF2C5CD08022D1040B439C460123A8
:102A40001B2D08DC20216246EA4063464D1BAB404B
:102A5000591E8B411343DB19FFE6002F38D0EB1BC7
:102A60005A014BD57B1B0E1C01250024B6E6002F16
:102A700000D100E78020D308C403234204D0FF081C
:102A8000274201D13B1C0E1C8021DB004D00FF249E
:102A9000A4E6002B20D0002F00D1ECE68022DE0837
:102AA000D503311C2E4203D0F908294200D0311C35
:102AB000061C8020CB004500FF248FE6013D002D41
:102AC00014D1FB18C9E6C046FFFFFFFBFCFFFF0364
:102AD00063460125002481E6802465003B1CFF2419
:102AE0007CE63B1C061C0125002477E6FF2CA6D1C2
:102AF0003B1C8027061C7D00FF246FE6002B00D1C5
:102B00002EE769E66346061C0125002466E6061CDE
:102B10000125002462E6C046F0B55F4656464D46A4
:102B20004446F0B44502440083B00E1C6D0A240EE6
:102B3000C70F002C07D1002D00D091E00421012205
:102B40008846924609E0FF2C55D0802318040021C6
:102B50000543ED007F3C88468A46331C58007602C8
:102B6000D90F760A000E8B464CD101229446002ED6
:102B700000D081E05B467B406246414601930A43B8
:102B80000F2A50D9201A690181467501A94200D344
:102B9000B3E00122534299441B2400260127621E00
:102BA000381C10404B007600002900DAA9E09D4255
:102BB00000D8A6E0013C002C00DCABE000280CD0E3
:102BC000191C76005B00002901DB9D4201D85B1BCC
:102BD0003E43013C002C00DC9CE059007200002BBD
:102BE00001DB8D4201D8491B3A43013C4B005600A2
:102BF0000029EADAEBE7002D2DD1082002218046DA
:102C00008A46AAE7FF2820D08022130400211E4311
:102C10008C465B467B4062464146F6007F38019316
:102C20000A430F2AAED8564992008A589746019B0C
:102C3000FF260025F0052843DE07304303B03CBCE7
:102C400090469946A246AB46F0BD331C5A1E9341AE
:102C500002339C468EE70C22032390469A467CE77B
:102C6000281C01F027F87622441F5342A5401C1A65
:102C700000208046824670E7301C01F01BF8762366
:102C8000411F8E405A420021101A8C4672E70023E1
:102C90003C4DFF26CEE75F46351C01976346022B6D
:102CA000C5D0032B63D0012B43D049467F31002987
:102CB00035DD0F272F40042F00D004352B0103D51D
:102CC000314A494615408031FE29B0DCA801450A49
:102CD000CEB2019BAEE700260025ABE78020C10302
:102CE0000D4211D00E420FD10E4373025D0AFF2632
:102CF0005B469FE701975346D1E7491B1A240126FB
:102D00004CE75B1B3E4355E70D436A02550A3B1CEB
:102D1000FF268FE71D1C6B1E9D413543C5E77E24B2
:102D200067424A46B91A1B2908DD019B0026002587
:102D300080E7019D00262B4000257BE74E469E360E
:102D4000281CB5402B1C5D1EAB41C84003430F251A
:102D50001D40042D00D004335A0103D5019B0126E8
:102D6000002567E79C01650A019B002662E7802732
:102D7000FC0325436E02750A019BFF265AE7C046F5
:102D80006CAA0210FFFF7F00FFFFFFF74302420023
:102D900070B55C0AC60F130E48024A00450A120EAF
:102DA000C90FFF2B05D0FF2A08D0012093420BD07A
:102DB00070BD0120002CFBD1FF2AF6D10120002D8F
:102DC000F6D101209342F3D1AC42F1D18E4203D02F
:102DD000002BEDD1002CEBD10020E9E7F0B5430248
:102DE00042004F00C60F48025C0A450A130EC90F85
:102DF0003A0EFF2B26D0FF2A29D0002B0CD160429F
:102E000060418446002A0AD0002816D18E4221D083
:102E1000002E14D1012014E0002AF7D194466F420D
:102E20006F416046002805D1002FEFD00120002E11
:102E300007D004E00020002F03D10029EAD10121AE
:102E40004842F0BD002CD6D002225042F9E7002DB6
:102E5000D3D0F9E79342DBDC04DBAC42D8D80020C6
:102E6000AC42EED2002EEAD00120EAE7F0B54302F0
:102E700042004F00C60F48025C0A450A130EC90FF4
:102E80003A0EFF2B26D0FF2A28D0002B0FD0002A85
:102E900014D194466F426F416046002814D0002040
:102EA000002F03D100290DD101214842F0BD60421D
:102EB00060418446002AEDD00028F3D18E4211D023
:102EC000002EF1D10120F1E7002FF7D00120002ED4
:102ED000ECD0E9E70220002CE8D1D4E70220002D55
:102EE000E4D1D2E79342EBDC04DBAC42E8D800202B
:102EF000AC42DBD2002ED7D00120D7E7F0B55F4639
:102F000056464D464446F0B44502460083B00F1C79
:102F10006D0A360EC40F002E06D1002D70D104218B
:102F200001228846924609E0FF2E43D080231804F0
:102F300000210543ED007F3E88468A46381C430049
:102F40007F02C10F7F0A1B0E8B463AD10121002F51
:102F500062D158466040424601900A430F2A3FD949
:102F60002C04F018260C3B041A0C311C51433F0C66
:102F70002D0C7E436A438146080C36182C1CB3186E
:102F80007C439A4200D99AE009041D04080C2E18CB
:102F9000B5011B0C691E8D41B20EE7181543BC012B
:102FA00025432B014BD50120284001216D08894480
:102FB000054344E0002D1ED10820022180468A46A8
:102FC000BCE7FF2B12D08022100407435846002193
:102FD00060404246FF007F3B01900A430F2ABFD862
:102FE00090005B4A8446624410688746391C4A1E3A
:102FF00091410231ADE70C22032390469A469DE7AA
:10300000281C00F057FE7622461F5342B5401E1A78
:1030100000208046824691E7381C00F04BFE762166
:10302000431F4A429F400021131A92E701945146E0
:1030300002292CD0032900D180E0012948D04E4636
:103040007F36002E51DD0F242C40042C00D0043597
:103050002A0103D53F494E460D408036FE2E3DDD08
:10306000019B01241C40FF210025C805E2072843DD
:10307000104303B03CBC90469946A246AB46F0BD17
:103080000024354DFF21F0E751460229D2D1019DA0
:1030900001242C40FF210025E7E75E463D1C0196F8
:1030A000C6E73D1CC4E78026F3031D420BD01F4238
:1030B00009D11F437A02550A5C46FF21D5E78022D9
:1030C0005702E41960E71D436F027D0AFF21CCE738
:1030D000019B00251940CCB20021C6E70198AD0143
:1030E00001246D0AF1B20440BFE77E2673424A46CE
:1030F0009F1A1B2F05DD019D01242C400021002576
:10310000B3E749469E312C1C8D402E1CFC40751E99
:10311000AE4126430F203040042800D00436700111
:1031200005D5019F01243C40012100259DE7019A1E
:10313000B30101245D0A1440002196E78022D003E8
:1031400005436C020199650A01240C40FF218CE7BC
:10315000ACAA0210FFFFFFF7FFFF7F00F8B54302A4
:1031600045004F024C00C20F980984462D0E200ED8
:10317000C90FBF09FF2854D0012671408A423BD0B5
:103180002C1A002C00DC89E0002825D1002F4BD11F
:103190006E1C2C1C6346151C0F221A40042A00D0FA
:1031A00004338027F904012219402A40002906D05F
:1031B000FF2E00D181E0B14D341C2B400136F6B218
:1031C000DD08012E62DD6B025D0AE4B2E4052543F1
:1031D000281CD2071043F8BDFF2D51D08021CB040D
:1031E0001F4301261B2C70DD67462C1CBB1B151CC6
:1031F000580122D4661CCFE72E1A002E76DD002857
:1032000032D0FF2D3CD08024E1040F4301231B2E3C
:1032100000DCD1E063442C1C58017AD4661C151CD8
:10322000BAE7002FAAD1A7E7013C002C6DD1634675
:103230002C1CDB1B151C5801DCD59A019609301C8F
:1032400000F038FD05388640844239DC001B1F231E
:103250001A1A331C311C441C9340E1405E1EB341DA
:103260000B430126002497E7002F00D190E7013E91
:10327000002E03D164463B192C1CCDE7FF2DC5D190
:10328000151C802263465600FF2485E7002D9CD044
:10329000002C28D08020C7033D4394E7002C45D163
:1032A0006B1CD8B2012800DC90E06446E61B730179
:1032B00057D53E1B2C1C0D1CC1E7FF24002585E7BC
:1032C0006E4B241A3340661C66E7381C2021E04010
:1032D0000C1BA7403E1C771EBE41064367462C1CB4
:1032E000BB1B151C84E769024D0A6FE7002E79D1DC
:1032F0006C1CE0B201284BDDFF2C00D198E0614648
:103300007F18AE1C7B08151C46E7FF2D00D068E730
:10331000B6E7671CFF2F36D05848012119400340FB
:103320005B08A61C0B433C1C151C35E76642002DB0
:103330001ED0FF286FD080256246EB041A439446C6
:1033400001251B2E09DC62462023F24064469E1BA9
:10335000B440251C6C1EA54115437B1B041C0D1C91
:1033600069E7002E0CD1002201260423002426E761
:103370006446002C55D1461C3B1C041C0D1C0BE75D
:103380002C1C151C5BE780235E00FF24042316E73A
:10339000002D00D08DE06546002D00D1ADE0002F5E
:1033A00000D181E07B195C0100D47EE0334F151C15
:1033B0003B4002260124EFE6381C2023F0409E1BF0
:1033C000B7403B1C5F1EBB41034323E7002D15D1D3
:1033D0006546002D47D1002FC5D03B1C0D1C012692
:1033E0000024D9E67642002D26D16546002D00D076
:1033F0007DE0461C3B1C041C151CCDE66546002DDB
:1034000040D1002F07D1802100224E001C4BFF2409
:10341000D5E6FF2894D180203B1C0D1C4600FF24DC
:10342000BAE6013E002EF4D13B1B0D1C041C02E742
:1034300080256E000423C2E6FF2852D08024614616
:10344000E30419438C4601231B2E09DC202164462A
:10345000F44065468E1BB5402B1C591E8B412343FF
:10346000DB19041CD8E6002F1ED0EB1B58014BD5EE
:103470007B1B01260D1C00248EE6C046FFFFFFFBD0
:10348000FCFFFF03002F00D1FAE68020EB08C40305
:10349000234237D0FF08274234D13B1C0D1C802229
:1034A000DB005600FF2477E66346151C0126002446
:1034B00072E66446002C14D0002F00D1E0E6802391
:1034C000E608D803311C064203D0F908014200D0B7
:1034D000311C151C8022CB005600FF245CE6FF281F
:1034E000B1D180203B1C151C4600FF2454E6013E50
:1034F000002EF4D17B19041C8EE63B1C151C012602
:10350000002449E6151CCAE7002B00D12BE7CCE7C5
:10351000F0B54D4644465F465646F0B41D1C4B0080
:10352000141C0E035B0DCA0F87B0071C360B9846A0
:103530009146002B1DD1321C024300D181E1002EA7
:1035400000D104E2301C00F0B5FB272800DDF8E1D3
:103550002821031C083B0A1A391C9E40D1400E4307
:103560009F40C14B0021181A002280468A460092D3
:103570000FE0BE48834231D080214B031E43BC483C
:103580007A0FF600002100231643FF0080448A468C
:103590000093291C201C251C4A000C03CB0F240B74
:1035A000520D9B4625D1211C014300D150E1002C36
:1035B00000D1C2E1201C00F07DFB272800DDB6E130
:1035C000031C2822083B291C121A9C40D1400C43A2
:1035D0009D40A54B1A1A0020029019E0321C3A4374
:1035E00000D029E108270223BA46002600270093CD
:1035F000CFE79E48824200D113E180214B031C4358
:103600009B49680FE40000230443ED005218029325
:1036100048465B46434002985146019301430F29B7
:1036200000D8DFE043469A1A0492A64200D86EE121
:1036300071087B08F6073343FA07894698460292D9
:10364000280E240204432D022704390CAB46250C16
:1036500000914846291CFEF7FFFF009F061C4743C8
:10366000291C4846FFF73CF8434608041A0C10434F
:10367000874207D90019013E844203D8874201D905
:10368000013E0019C11B8A46081C291CFEF7E4FFF5
:10369000009B071C4343291C50469946FFF720F81E
:1036A000424610040B04010C0B43994504D91B1925
:1036B000013F9C4200D864E136043E435F464A46DF
:1036C000390C89469B1A59463204170C0A0449469C
:1036D0007943120C03928C460399300C7A43414390
:1036E0004F4678438C44170C6744B94202D9802175
:1036F00049024018390C120440183F04110C7F187D
:10370000834200D227E100D141E102991B1ACF1B6D
:10371000B942804141425A1A9046A24200D15FE12B
:10372000101C291CFEF798FF009B02904343291CA4
:1037300040469A46FEF7D4FF380C090401438A45F7
:103740000AD9029A0919013A02928C4204D88A4590
:1037500002D9013A029209195346C81A291C059048
:10376000FEF77AFF009A291C42438046059892464C
:10377000FEF7B6FF3F040D043A0C2A43924509D9DF
:1037800001214B4212199844944203D8924501D921
:1037900098441219029D43462F041F435046111AA4
:1037A0003804030C4D465D430398AC46039D3A0C28
:1037B000584355434B465A43AC44030C63449D4223
:1037C00002D980256D0252191D0C000452191B04E8
:1037D000050C5B19914200D2E6E000D13DE10122E7
:1037E00017435AE0890023488C46604401688F469D
:1037F000019B1E4A0026002700200021381C0F0DC7
:103800003C051D4D34431205254015436E00DB0772
:103810007108194307B03CBC90469946A246AB4696
:10382000F0BD211C03202943029000D0F0E60223C2
:10383000002400250293EBE60C2003218246009130
:10384000A7E604270123BA46002600270093A0E636
:103850000121002400250291DAE601270023074E0A
:103860007F42024AC8E7C0460DFCFFFFFF07000089
:1038700001FCFFFFECAA0210FFFF0F80FFFF0F000B
:103880002F1C5A46029D261C0192022DB0D0032DFA
:1038900000D101E1012D00D19CE0049B82481A185F
:1038A000002A00DC8CE00F243C40042C05D03B1D9A
:1038B000BB42BF417D4276191F1CF10105D57B4AF1
:1038C00004998020C40016400A19794B9A4200DD01
:1038D0008EE77507FF08760251052F43360B4A0D18
:1038E000019B89E700220026002785E7802001034D
:1038F0000E4216D00C4214D10C432603360B5B4605
:103900002F1C6C4A78E74C460194009DBDE7A64207
:1039100043D00498B846013800270490B146029776
:103920008EE60E4333031E0B624A4B4664E7041CCB
:10393000283CA5402C1C00254BE600F0BBF92030AC
:103940003BE6061C283EB7403E1C002709E600F077
:10395000B1F92030F9E5029A013E111C594459454C
:10396000924152421219D3189C4204D298426BD809
:1039700016D01B1ACBE6A342FBD18B45F6D9231AEE
:10398000C5E6994500D897E6013F1B1994E6029ACF
:10399000BA42E0D302990023B9E6AF42B9D947E66B
:1039A0008F4251D80023B2E60919013F58468C4294
:1039B00019D9914200D012E7984200D00FE76CE786
:1039C0003D4C049D631B382B1CDD019B002200260F
:1039D000002711E7019B00222B40002600270BE760
:1039E00001277F4259E78A4203D800D0F7E6984280
:1039F000E2D25D4668005845AD416D422C19013F49
:103A00000919D6E71F2B34DC049C2C4A381CA51856
:103A1000311CAF40D840A9403C1C0143671EBC414B
:103A20000F1C2743DE400F233B40042B05D03A1DDB
:103A3000BA42BF417D427619171C320211D5019B53
:103A4000012200260027D7E65944594592415242A7
:103A50001219D318013E1B1A59E6002BA4D10020DD
:103A6000AAE77007FF08710207430E0B019B0022B3
:103A7000C2E61349049C301C0A1BD040051C202BB5
:103A800008D0104BE1188E4037437B1E9F412F43D7
:103A90000026C8E70026F7E780221003064331031B
:103AA0000E0B019B034AA7E6FF030000FFFFFFFE8A
:103AB000FE070000FF07000002FCFFFF1E040000DD
:103AC000E2FBFFFF3E040000410070B50E0E731CC8
:103AD0004202C50FD8B2540A012815DD6307E0245D
:103AE000A000120B341800200021181C0B0D1E051D
:103AF0001C4B324361054C08134023435A005608BF
:103B0000ED07311C294370BD002E16D1002C1ED0AC
:103B1000201C00F0CFF80A281DDC0B22111A021C11
:103B2000231C1532CB4094401E1C231C34030E4E24
:103B3000220B301A41054C0DD5E7002C03D063074A
:103B4000120B0A4CCFE7094C00220023CBE70024DC
:103B500000220023C7E7011C0B398C40261C0023E0
:103B6000E4E7C046FFFF0F8089030000FF07000065
:103B7000F0B5041C4800400D0A03CD0F411C630F33
:103B8000520A4F051A43E6007B0D012B3BDD4249EB
:103B90004318FE2B2CDC002B4EDDA401770FD20046
:103BA000611E8C413D4E224380193A430F26164038
:103BB000042E47D18027FC0414401DD0FF2838D0A4
:103BC000374B1A40031C0130C6B2D208012E17DC55
:103BD000002A06D0002B29D08027FC032243510263
:103BE0004A0ADBB2DB051A43ED07101C2843F0BD7F
:103BF000802148000422FF23C6B2D208012EE7DD4F
:103C000051024A0AEDE7002806D132430120002A7A
:103C100015D104220023EFE71643E9D08024A00445
:103C2000D20080260243FF237000BFE75002420A01
:103C3000D8E7FF230022D5E7173305DA0120052254
:103C40000023D9E70432B5E78023164F19040A434D
:103C50003C1A1F2C0DDC1449331C4718BE40301C85
:103C6000461EB041BA40E34002431A4301200023FC
:103C70009CE70E4B171C191ACF403B1C202C09D077
:103C80000B4C001982403243561EB2411A430120A8
:103C900000238BE70022F6E780FCFFFF81FCFFFF9B
:103CA000FFFFFFFB9E03000082FCFFFF7E0300007E
:103CB000A2FCFFFF1C2101231B04984201D3000C2E
:103CC00010391B0A984201D3000A08391B0998428F
:103CD00001D30009043902A2105C40187047C046A5
:103CE00004030202010101010000000000000000C5
:0C3CF000014B18687047C046983D00204A
:103CFC001CD3FF7F0100000030D3FF7F01000000C8
:103D0C00000000000000803FD40FC93AECFF7F3F59
:103D1C00C70F493BB1FF7F3FC1CB963B4EFF7F3F67
:103D2C00890FC93BC4FE7F3F3053FB3B13FE7F3FE3
:103D3C0059CB163C39FD7F3F02ED2F3C39FC7F3FC0
:103D4C00900E493C11FB7F3F0030623CC1F97F3F34
:103D5C004B517B3C4AF87F3F38398A3CACF67F3F6D
:103D6C00B6C9963CE6F47F3F1C5AA33CF8F27F3F61
:103D7C0069EAAF3CE3F07F3F9B7ABC3CA7EE7F3F08
:103D8C00B00AC93C43EC7F3FA69AD53CB8E97F3FCB
:103D9C007B2AE23C05E77F3F2DBAEE3C2BE47F3FCC
:103DAC00B949FB3C29E17F3F90EC033D00DE7F3FAE
:103DBC002F340A3DAFDA7F3FB87B103D37D77F3FBA
:103DCC002CC3163D98D37F3F880A1D3DD1CF7F3F32
:103DDC00CC51233DE2CB7F3FF698293DCCC77F3FAA
:103DEC0007E02F3D8FC37F3FFC26363D2ABF7F3F28
:103DFC00D56D3C3D9EBA7F3F91B4423DEAB57F3FC5
:103E0C002FFB483D0FB17F3FAF414F3D0DAC7F3F86
:103E1C000E88553DE3A67F3F4CCE5B3D91A17F3F85
:103E2C006814623D189C7F3F625A683D78967F3FCC
:103E3C0038A06E3DB1907F3FE9E5743DC28A7F3F6B
:103E4C00742B7B3DAB847F3F6CB8803D6D7E7F3F98
:103E5C000ADB833D08787F3F94FD863D7B717F3F75
:103E6C000A208A3DC76A7F3F6A428D3DEC637F3FE3
:103E7C00B464903DE95C7F3FE786933DBF557F3F3F
:103E8C0005A9963D6D4E7F3F0ACB993DF4467F3F89
:103E9C00F9EC9C3D543F7F3FCF0EA03D8D377F3FCB
:103EAC008C30A33D9D2F7F3F3052A63D87277F3F0F
:103EBC00BA73A93D491F7F3F2B95AC3DE4167F3F5C
:103ECC0080B6AF3D580E7F3FBBD7B23DA4057F3FB8
:103EDC00DAF8B53DC9FC7E3FDD19B93DC7F37E3F2D
:103EEC00C33ABC3D9DEA7E3F8D5BBF3D4CE17E3FBE
:103EFC00397CC23DD4D77E3FC69CC53D34CE7E3F77
:103F0C0036BDC83D6DC47E3F86DDCB3D7FBA7E3F5E
:103F1C00B7FDCE3D69B07E3FC81DD23D2DA67E3F7C
:103F2C00B93DD53DC99B7E3F895DD83D3D917E3FD6
:103F3C00377DDB3D8B867E3FC49CDE3DB17B7E3F77
:103F4C002EBCE13DB0707E3F76DBE43D88657E3F64
:103F5C009AFAE73D385A7E3F9A19EB3DC14E7E3FA7
:103F6C007638EE3D23437E3F2E57F13D5E377E3F44
:103F7C00C075F43D722B7E3F2C94F73D5E1F7E3F47
:103F8C0073B2FA3D24137E3F92D0FD3DC2067E3FB4
:103F9C004577003E38FA7D3F2E06023E88ED7D3F88
:103FAC000295033EB1E07D3FC223053EB2D37D3F77
:103FBC006EB2063E8CC67D3F0541083E40B97D3F42
:103FCC0086CF093ECCAB7D3FF35D0B3E309E7D3FF3
:103FDC004AEC0C3E6E907D3F8B7A0E3E85827D3F87
:103FEC00B708103E74747D3FCC96113E3D667D3F04
:103FFC00CA24133EDE577D3FB2B2143E59497D3F71
:10400C008340163EAC3A7D3F3DCE173ED82B7D3FCC
:10401C00E05B193EDD1C7D3F6BE91A3EBC0D7D3F1C
:10402C00DE761C3E73FE7C3F38041E3E03EF7C3F65
:10403C007B911F3E6CDF7C3FA51E213EAECF7C3FAB
:10404C00B6AB223EC9BF7C3FAD38243EBDAF7C3FF2
:10405C008CC5253E8A9F7C3F5152273E318F7C3F39
:10406C00FCDE283EB07E7C3F8D6B2A3E086E7C3F8A
:10407C0004F82B3E3A5D7C3F61842D3E444C7C3FE2
:10408C00A2102F3E283B7C3FC99C303EE5297C3F4B
:10409C00D428323E7A187C3FC4B4333EE9067C3FC8
:1040AC009840353E31F57B3F50CC363E53E37B3F59
:1040BC00EC57383E4DD17B3F6CE3393E20BF7B3F04
:1040CC00CF6E3B3ECDAC7B3F15FA3C3E539A7B3FCB
:1040DC003E853E3EB2877B3F4910403EEA747B3FB3
:1040EC00379B413EFC617B3F0726433EE74E7B3FBF
:1040FC00B9B0443EAB3B7B3F4D3B463E48287B3FF3
:10410C00C2C5473EBE147B3F1850493E0E017B3F53
:10411C004FDA4A3E37ED7A3F67644C3E3AD97A3FE4
:10412C0060EE4D3E16C57A3F38784F3ECBB07A3FA5
:10413C00F101513E599C7A3F898B523EC1877A3F9F
:10414C000115543E02737A3F589E553E1C5E7A3FD1
:10415C008F27573E10497A3FA4B0583EDD337A3F43
:10416C0097395A3E841E7A3F6AC25B3E04097A3FF5
:10417C001A4B5D3E5EF3793FA8D35E3E91DD793FED
:10418C00135C603E9DC7793F5CE4613E83B1793F2F
:10419C00836C633E439B793F86F4643EDC84793FB9
:1041AC00667C663E4E6E793F2204683E9A57793F94
:1041BC00BA8B693EC040793F2F136B3EBF29793FC4
:1041CC007F9A6C3E9812793FAB216E3E4AFB783F4A
:1041DC00B2A86F3ED6E3783F942F713E3BCC783F2C
:1041EC0051B6723E7BB4783FE83C743E939C783F6A
:1041FC005AC3753E8684783FA649773E526C783F09
:10420C00CCCF783EF853783FCB557A3E773B783F0E
:10421C00A4DB7B3ED122783F56617D3E040A783F79
:10422C00E1E67E3E10F1773F2236803EF7D7773FAE
:10423C00C0F8803EB7BE773F4ABB813E51A5773F61
:10424C00C07D823EC58B773F2240833E1372773F01
:10425C007002843E3A58773FAAC4843E3C3E773F76
:10426C00CE86853E1724773FDF48863ECC09773FC4
:10427C00DA0A873E5BEF763FC1CC873EC4D4763FEB
:10428C00938E883E07BA763F5050893E249F763FE6
:10429C00F8118A3E1B84763F8AD38A3EEC68763FBF
:1042AC0007958B3E974D763F6E568C3E1B32763F74
:1042BC00C0178D3E7A16763FFCD88D3EB3FA753F0B
:1042CC00229A8E3EC6DE753F325B8F3EB3C2753F7F
:1042DC002C1C903E7BA6753F10DD903E1C8A753FD2
:1042EC00DD9D913E976D753F945E923EED50753F0E
:1042FC00351F933E1D34753FBFDF933E2717753F27
:10430C0031A0943E0BFA743F8D60953EC9DC743F2E
:10431C00D220963E62BF743F00E1963ED5A1743F19
:10432C0017A1973E2284743F1661983E4966743FEC
:10433C00FE20993E4B48743FCEE0993E272A743FAD
:10434C0086A09A3EDD0B743F27609B3E6EED733F5B
:10435C00AF1F9C3ED9CE733F20DF9C3E1FB0733FF6
:10436C00789E9D3E3F91733FB85D9E3E3972733F80
:10437C00DF1C9F3E0E53733FEEDB9F3EBE33733FFD
:10438C00E59AA03E4714733FC259A13EACF4723F6C
:10439C008718A23EEBD4723F33D7A23E04B5723FCE
:1043AC00C595A33EF894723F3F54A43EC774723F28
:1043BC009F12A53E7054723FE5D0A53EF433723F78
:1043CC00128FA63E5213723F254DA73E8CF2713FC1
:1043DC001F0BA83E9FD1713FFEC8A83E8EB0713F07
:1043EC00C486A93E578F713F6F44AA3EFB6D713F47
:1043FC000102AB3E7A4C713F77BFAB3ED42A713F82
:10440C00D47CAC3E0809713F153AAD3E17E7703FBE
:10441C003CF7AD3E02C5703F49B4AE3EC6A2703FFC
:10442C003A71AF3E6680703F102EB03EE15D703F3A
:10443C00CBEAB03E373B703F6BA7B13E6718703F7D
:10444C00EF63B23E73F56F3F5820B33E5AD26F3FC5
:10445C00A5DCB33E1BAF6F3FD698B43EB88B6F3F15
:10446C00EC54B53E30686F3FE610B63E83446F3F68
:10447C00C3CCB63EB0206F3F8488B73EBAFC6E3FCB
:10448C002A44B83E9ED86E3FB2FFB83E5DB46E3F34
:10449C001EBBB93EF88F6E3F6E76BA3E6D6B6E3FAB
:1044AC00A031BB3EBE466E3FB6ECBB3EEB216E3F31
:1044BC00AFA7BC3EF2FC6D3F8B62BD3ED5D76D3FC6
:1044CC004A1DBE3E93B26D3FEBD7BE3E2D8D6D3F68
:1044DC006F92BF3EA1676D3FD54CC03EF2416D3F20
:1044EC001E07C13E1D1C6D3F48C1C13E24F66C3FEA
:1044FC00557BC23E07D06C3F4435C33EC5A96C3FCB
:10450C0015EFC33E5E836C3FC8A8C43ED45C6C3FC1
:10451C005C62C53E24366C3FD21BC63E500F6C3FCE
:10452C0029D5C63E58E86B3F628EC73E3BC16B3FF8
:10453C007C47C83EFB996B3F7700C93E95726B3F39
:10454C0053B9C93E0C4B6B3F1072CA3E5E236B3F96
:10455C00AE2ACB3E8CFB6A3F2CE3CB3E95D36A3F15
:10456C008B9BCC3E7BAB6A3FCA53CD3E3C836A3FB0
:10457C00EA0BCE3ED95A6A3FEAC3CE3E52326A3F6C
:10458C00CA7BCF3EA7096A3F8A33D03ED7E0693F4A
:10459C002AEBD03EE4B7693FAAA2D13ECC8E693F4C
:1045AC00095AD23E9165693F4811D33E323C693F6E
:1045BC0067C8D33EAE12693F647FD43E07E9683FBB
:1045CC004136D53E3CBF683FFDECD53E4C95683F2F
:1045DC0099A3D63E396B683F135AD73E0341683FC7
:1045EC006B10D83EA816683FA3C6D83E2AEC673F8E
:1045FC00B97CD93E87C1673FAD32DA3EC196673F81
:10460C0080E8DA3ED86B673F319EDB3ECA40673F9D
:10461C00C153DC3E9915673F2E09DD3E45EA663FE6
:10462C0079BEDD3ECCBE663FA273DE3E3093663F64
:10463C00A928DF3E7167663F8DDDDF3E8E3B663F0E
:10464C004F92E03E880F663FEE46E13E5EE3653FEB
:10465C006AFBE13E10B7653FC4AFE23EA08A653FFE
:10466C00FA63E33E0B5E653F0E18E43E5431653F42
:10467C00FECBE43E7904653FCB7FE53E7BD7643FC0
:10468C007533E63E59AA643FFBE6E63E147D643F73
:10469C005D9AE73EAC4F643F9C4DE83E2122643F5F
:1046AC00B700E93E73F4633FAEB3E93EA1C6633F86
:1046BC008166EA3EAC98633F3019EB3E956A633FE6
:1046CC00BBCBEB3E5A3C633F217EEC3EFC0D633F83
:1046DC006330ED3E7BDF623F80E2ED3ED7B0623F60
:1046EC007994EE3E1082623F4C46EF3E2653623F79
:1046FC00FBF7EF3E1A24623F85A9F03EEAF4613FD6
:10470C00EA5AF13E98C5613F290CF23E2296613F70
:10471C0043BDF23E8A66613F386EF33ED036613F50
:10472C00071FF43EF206613FB1CFF43EF2D6603F74
:10473C003580F53ECFA6603F9330F63E8976603FDC
:10474C00CBE0F63E2146603FDC90F73E9615603F8D
:10475C00C840F83EE9E45F3F8EF0F83E19B45F3F85
:10476C002DA0F93E27835F3FA54FFA3E12525F3FC3
:10477C00F7FEFA3EDB205F3F22AEFB3E81EF5E3F51
:10478C00275DFC3E05BE5E3F040CFD3E678C5E3F24
:10479C00BBBAFD3EA65A5E3F4A69FE3EC3285E3F49
:1047AC00B217FF3EBEF65D3FF3C5FF3E97C45D3FBB
:1047BC00063A003F4D925D3FFF90003FE15F5D3F49
:1047CC00E4E7003F532D5D3FB53E013FA3FA5C3F4C
:1047DC007395013FD1C75C3F1CEC013FDD945C3FFE
:1047EC00B142023FC7615C3F3299023F8E2E5C3F63
:1047FC009FEF023F34FB5B3FF845033FB8C75B3F7D
:10480C003D9C033F1A945B3F6DF2033F5A605B3F44
:10481C008948043F792C5B3F919E043F75F85A3FC1
:10482C0084F4043F50C45A3F624A053F09905A3FF2
:10483C002CA0053FA05B5A3FE2F5053F16275A3FD7
:10484C00824B063F6AF2593F0EA1063F9CBD593F71
:10485C0086F6063FAD88593FE84B073F9C53593FBE
:10486C0036A1073F6A1E593F6FF6073F17E9583FBD
:10487C00924B083FA1B3583FA1A0083F0B7E583F75
:10488C009BF5083F5348583F7F4A093F7912583FE0
:10489C004E9F093F7FDC573F09F4093F63A6573F02
:1048AC00AD480A3F2670573F3D9D0A3FC739573FD9
:1048BC00B7F10A3F4803573F1C460B3FA7CC563F66
:1048CC006B9A0B3FE595563FA5EE0B3F025F563FAB
:1048DC00C9420C3FFE27563FD7960C3FD9F0553FA7
:1048EC00D0EA0C3F93B9553FB33E0D3F2C82553F58
:1048FC0081920D3FA44A553F38E60D3FFB12553FC0
:10490C00DA390E3F31DB543F658D0E3F47A3543FE0
:10491C00DBE00E3F3B6B543F3B340F3F0F33543FB8
:10492C0084870F3FC3FA533FB8DA0F3F55C2533F4A
:10493C00D52D103FC789533FDC80103F1851533F92
:10494C00CDD3103F4918533FA726113F59DF523F93
:10495C006B79113F49A6523F19CC113F186D523F4C
:10496C00B01E123FC633523F3071123F54FA513FC2
:10497C009AC3123FC2C0513FEE15133F1087513FEF
:10498C002A68133F3D4D513F50BA133F4A13513FD4
:10499C005F0C143F37D9503F585E143F039F503F74
:1049AC0039B0143FAF64503F0402153F3B2A503FCF
:1049BC00B753153FA8EF4F3F54A5153FF4B44F3FE5
:1049CC00D9F6153F1F7A4F3F4748163F2B3F4F3FB5
:1049DC009F99163F17044F3FDFEA163FE4C84E3F3E
:1049EC00073C173F908D4E3F188D173F1C524E3F82
:1049FC0012DE173F89164E3FF52E183FD5DA4D3F84
:104A0C00C07F183F029F4D3F73D0183F10634D3F3E
:104A1C000F21193FFD264D3F9471193FCBEA4C3FB6
:104A2C0000C2193F79AE4C3F55121A3F08724C3FE9
:104A3C0093621A3F78354C3FB8B21A3FC7F84B3FD8
:104A4C00C6021B3FF8BB4B3FBB521B3F097F4B3F82
:104A5C0099A21B3FFA414B3F5FF21B3FCC044B3FEB
:104A6C000C421C3F7FC74A3FA2911C3F138A4A3F0E
:104A7C001FE11C3F874C4A3F84301D3FDC0E4A3FF0
:104A8C00D17F1D3F12D1493F06CF1D3F2993493F8E
:104A9C00221E1E3F2155493F266D1E3FFA16493FE7
:104AAC0012BC1E3FB3D8483FE50A1F3F4E9A483F01
:104ABC009F591F3FCA5B483F41A81F3F271D483FD6
:104ACC00CBF61F3F65DE473F3B45203F849F473F6A
:104ADC009393203F8560473FD2E1203F6721473FBA
:104AEC00F92F213F2AE2463F067E213FCEA2463FC8
:104AFC00FBCB213F5463463FD719223FBB23463F94
:104B0C009967223F03E4453F43B5223F2DA4453F1F
:104B1C00D302233F3964453F4B50233F2624453F66
:104B2C00A99D233FF5E3443FEEEA233FA5A3443F71
:104B3C001A38243F3763443F2C85243FAB22443F33
:104B4C0025D2243F00E2433F041F253F38A1433FB9
:104B5C00CB6B253F5160433F77B8253F4C1F433FFC
:104B6C000A05263F29DE423F8451263FE89C423FFE
:104B7C00E39D263F895B423F2AEA263F0B1A423FC0
:104B8C005636273F70D8413F6882273FB796413F42
:104B9C0061CE273FE154413F401A283FEC12413F80
:104BAC000566283FDAD0403FB0B1283FA98E403F80
:104BBC0041FD283F5C4C403FB848293FF009403F3D
:104BCC001594293F67C73F3F57DF293FC0843F3FBC
:104BDC00802A2A3FFC413F3F8E752A3F1BFF3E3FF8
:104BEC0082C02A3F1BBC3E3F5B0B2B3FFF783E3FF6
:104BFC001B562B3FC5353E3FBFA02B3F6EF23D3FB2
:104C0C004AEB2B3FF9AE3D3FB9352C3F676B3D3F2F
:104C1C000F802C3FB8273D3F49CA2C3FECE33C3F6B
:104C2C0069142D3F03A03C3F6F5E2D3FFC5B3C3F66
:104C3C0059A82D3FD9173C3F29F22D3F98D33B3F24
:104C4C00DE3B2E3F3B8F3B3F78852E3FC14A3B3F9F
:104C5C00F7CE2E3F29063B3F5B182F3F75C13A3FDD
:104C6C00A5612F3FA47C3A3FD3AA2F3FB7373A3FD9
:104C7C00E6F32F3FACF2393FDE3C303F85AD393F98
:104C8C00BB85303F4268393F7CCE303FE122393F13
:104C9C002217313F65DD383FAD5F313FCB97383F51
:104CAC001DA8313F1652383F71F0313F430C383F4D
:104CBC00AA38323F55C6373FC780323F4A80373F0C
:104CCC00C9C8323F233A373FAF10333FDFF3363F8B
:104CDC007A58333F7FAD363F29A0333F0467363FC8
:104CEC00BCE7333F6C20363F342F343FB8D9353FC7
:104CFC008F76343FE792353FCFBD343FFB4B353F8A
:104D0C00F304353FF304353FFB4B353FCFBD343F08
:104D1C00E792353F8F76343FB8D9353F342F343F47
:104D2C006C20363FBCE7333F0467363F29A0333F46
:104D3C007FAD363F7A58333FDFF3363FAF10333F0A
:104D4C00233A373FC9C8323F4A80373FC780323F8A
:104D5C0055C6373FAA38323F430C383F71F0313FCC
:104D6C001652383F1DA8313FCB97383FAD5F313FCE
:104D7C0065DD383F2217313FE122393F7CCE303F91
:104D8C004268393FBB85303F85AD393FDE3C303F13
:104D9C00ACF2393FE6F32F3FB7373A3FD3AA2F3F58
:104DAC00A47C3A3FA5612F3F75C13A3F5B182F3F5A
:104DBC0029063B3FF7CE2E3FC14A3B3F78852E3F1D
:104DCC003B8F3B3FDE3B2E3F98D33B3F29F22D3FA1
:104DDC00D9173C3F59A82D3FFC5B3C3F6F5E2D3FE4
:104DEC0003A03C3F69142D3FECE33C3F49CA2C3FE8
:104DFC00B8273D3F0F802C3F676B3D3FB9352C3FAB
:104E0C00F9AE3D3F4AEB2B3F6EF23D3FBFA02B3F2F
:104E1C00C5353E3F1B562B3FFF783E3F5B0B2B3F70
:104E2C001BBC3E3F82C02A3F1BFF3E3F8E752A3F74
:104E3C00FC413F3F802A2A3FC0843F3F57DF293F38
:104E4C0067C73F3F1594293FF009403FB848293FB9
:104E5C005C4C403F41FD283FA98E403FB0B1283FFC
:104E6C00DAD0403F0566283FEC12413F401A283FFC
:104E7C00E154413F61CE273FB796413F6882273FBF
:104E8C0070D8413F5636273F0B1A423F2AEA263F3D
:104E9C00895B423FE39D263FE89C423F8451263F7D
:104EAC0029DE423F0A05263F4C1F433F77B8253F7A
:104EBC005160433FCB6B253F38A1433F041F253F37
:104ECC0000E2433F25D2243FAB22443F2C85243FB4
:104EDC003763443F1A38243FA5A3443FEEEA233FEF
:104EEC00F5E3443FA99D233F2624453F4B50233FE8
:104EFC003964453FD302233F2DA4453F43B5223FA0
:104F0C0003E4453F9967223FBB23463FD719223F15
:104F1C005463463FFBCB213FCEA2463F067E213F4A
:104F2C002AE2463FF92F213F6721473FD2E1203F3C
:104F3C008560473F9393203F849F473F3B45203FED
:104F4C0065DE473FCBF61F3F271D483F41A81F3F5B
:104F5C00CA5B483F9F591F3F4E9A483FE50A1F3F87
:104F6C00B3D8483F12BC1E3FFA16493F266D1E3F70
:104F7C002155493F221E1E3F2993493F06CF1D3F15
:104F8C0012D1493FD17F1D3FDC0E4A3F84301D3F7B
:104F9C00874C4A3F1FE11C3F138A4A3FA2911C3F9A
:104FAC007FC74A3F0C421C3FCC044B3F5FF21B3F78
:104FBC00FA414B3F99A21B3F097F4B3FBB521B3F12
:104FCC00F8BB4B3FC6021B3FC7F84B3FB8B21A3F6A
:104FDC0078354C3F93621A3F08724C3F55121A3F7A
:104FEC0079AE4C3F00C2193FCBEA4C3F9471193F4C
:104FFC00FD264D3F0F21193F10634D3F73D0183FD5
:10500C00029F4D3FC07F183FD5DA4D3FF52E183F1C
:10501C0089164E3F12DE173F1C524E3F188D173F1C
:10502C00908D4E3F073C173FE4C84E3FDFEA163FDA
:10503C0017044F3F9F99163F2B3F4F3F4748163F52
:10504C001F7A4F3FD9F6153FF4B44F3F54A5153F87
:10505C00A8EF4F3FB753153F3B2A503F0402153F73
:10506C00AF64503F39B0143F039F503F585E143F1C
:10507C0037D9503F5F0C143F4A13513F50BA133F7E
:10508C003D4D513F2A68133F1087513FEE15133F9A
:10509C00C2C0513F9AC3123F54FA513F3071123F74
:1050AC00C633523FB01E123F186D523F19CC113F00
:1050BC0049A6523F6B79113F59DF523FA726113F4A
:1050CC004918533FCDD3103F1851533FDC80103F4C
:1050DC00C789533FD52D103F55C2533FB8DA0F3F08
:1050EC00C3FA533F84870F3F0F33543F3B340F3F7A
:1050FC003B6B543FDBE00E3F47A3543F658D0E3FA7
:10510C0031DB543FDA390E3FFB12553F38E60D3F89
:10511C00A44A553F81920D3F2C82553FB33E0D3F23
:10512C0093B9553FD0EA0C3FD9F0553FD7960C3F79
:10513C00FE27563FC9420C3F025F563FA5EE0B3F80
:10514C00E595563F6B9A0B3FA7CC563F1C460B3F41
:10515C004803573FB7F10A3FC739573F3D9D0A3FB8
:10516C002670573FAD480A3F63A6573F09F4093FE5
:10517C007FDC573F4E9F093F7912583F7F4A093FCA
:10518C005348583F9BF5083F0B7E583FA1A0083F62
:10519C00A1B3583F924B083F17E9583F6FF6073FB2
:1051AC006A1E593F36A1073F9C53593FE84B073FB6
:1051BC00AD88593F86F6063F9CBD593F0EA1063F70
:1051CC006AF2593F824B063F16275A3FE2F5053FDC
:1051DC00A05B5A3F2CA0053F09905A3F624A053FFD
:1051EC0050C45A3F84F4043F75F85A3F919E043FD3
:1051FC00792C5B3F8948043F5A605B3F6DF2033F5B
:10520C001A945B3F3D9C033FB8C75B3FF845033F97
:10521C0034FB5B3F9FEF023F8E2E5C3F3299023F87
:10522C00C7615C3FB142023FDD945C3F1CEC013F27
:10523C00D1C75C3F7395013FA3FA5C3FB53E013F7C
:10524C00532D5D3FE4E7003FE15F5D3FFF90003F82
:10525C004D925D3F063A003F97C45D3FF3C5FF3E5C
:10526C00BEF65D3FB217FF3EC3285E3F4A69FE3E65
:10527C00A65A5E3FBBBAFD3E678C5E3F040CFD3EFA
:10528C0005BE5E3F275DFC3E81EF5E3F22AEFB3EDE
:10529C00DB205F3FF7FEFA3E12525F3FA54FFA3E0E
:1052AC0027835F3F2DA0F93E19B45F3F8EF0F83E87
:1052BC00E9E45F3FC840F83E9615603FDC90F73E4E
:1052CC002146603FCBE0F63E8976603F9330F63E58
:1052DC00CFA6603F3580F53EF2D6603FB1CFF43EAD
:1052EC00F206613F071FF43ED036613F386EF33E45
:1052FC008A66613F43BDF23E2296613F290CF23E25
:10530C0098C5613FEA5AF13EEAF4613F85A9F03E47
:10531C001A24623FFBF7EF3E2653623F4C46EF3EAA
:10532C001082623F7994EE3ED7B0623F80E2ED3E50
:10533C007BDF623F6330ED3EFC0D633F217EEC3E34
:10534C005A3C633FBBCBEB3E956A633F3019EB3E57
:10535C00AC98633F8166EA3EA1C6633FAEB3E93EBB
:10536C0073F4633FB700E93E2122643F9C4DE83E55
:10537C00AC4F643F5D9AE73E147D643FFBE6E63E2E
:10538C0059AA643F7533E63E7BD7643FCB7FE53E3D
:10539C007904653FFECBE43E5431653F0E18E43E84
:1053AC000B5E653FFA63E33EA08A653FC4AFE23E05
:1053BC0010B7653F6AFBE13E5EE3653FEE46E13EBA
:1053CC00880F663F4F92E03E8E3B663F8DDDDF3EA1
:1053DC007167663FA928DF3E3093663FA273DE3EBD
:1053EC00CCBE663F79BEDD3E45EA663F2E09DD3E0A
:1053FC009915673FC153DC3ECA40673F319EDB3E87
:10540C00D86B673F80E8DA3EC196673FAD32DA3E33
:10541C0087C1673FB97CD93E2AEC673FA3C6D83E0B
:10542C00A816683F6B10D83E0341683F135AD73E0D
:10543C00396B683F99A3D63E4C95683FFDECD53E41
:10544C003CBF683F4136D53E07E9683F647FD43E98
:10545C00AE12693F67C8D33E323C693F4811D33E18
:10546C009165693F095AD23ECC8E693FAAA2D13EC2
:10547C00E4B7693F2AEBD03ED7E0693F8A33D03E90
:10548C00A7096A3FCA7BCF3E52326A3FEAC3CE3E7F
:10549C00D95A6A3FEA0BCE3E3C836A3FCA53CD3E93
:1054AC007BAB6A3F8B9BCC3E95D36A3F2CE3CB3EC8
:1054BC008CFB6A3FAE2ACB3E5E236B3F1072CA3E1A
:1054CC000C4B6B3F53B9C93E95726B3F7700C93E8D
:1054DC00FB996B3F7C47C83E3BC16B3F628EC73E1E
:1054EC0058E86B3F29D5C63E500F6C3FD21BC63EC9
:1054FC0024366C3F5C62C53ED45C6C3FC8A8C43E8D
:10550C005E836C3F15EFC33EC5A96C3F4435C33E6B
:10551C0007D06C3F557BC23E24F66C3F48C1C13E60
:10552C001D1C6D3F1E07C13EF2416D3FD54CC03E68
:10553C00A1676D3F6F92BF3E2D8D6D3FEBD7BE3E89
:10554C0093B26D3F4A1DBE3ED5D76D3F8B62BD3EBB
:10555C00F2FC6D3FAFA7BC3EEB216E3FB6ECBB3E01
:10556C00BE466E3FA031BB3E6D6B6E3F6E76BA3E53
:10557C00F88F6E3F1EBBB93E5DB46E3FB2FFB83EB6
:10558C009ED86E3F2A44B83EBAFC6E3F8488B73E24
:10559C00B0206F3FC3CCB63E83446F3FE610B63E9F
:1055AC0030686F3FEC54B53EB88B6F3FD698B43E25
:1055BC001BAF6F3FA5DCB33E5AD26F3F5820B33EB2
:1055CC0073F56F3FEF63B23E6718703F6BA7B13E48
:1055DC00373B703FCBEAB03EE15D703F102EB03EE2
:1055EC006680703F3A71AF3EC6A2703F49B4AE3E82
:1055FC0002C5703F3CF7AD3E17E7703F153AAD3E24
:10560C000809713FD47CAC3ED42A713F77BFAB3EC6
:10561C007A4C713F0102AB3EFB6D713F6F44AA3E69
:10562C00578F713FC486A93E8EB0713FFEC8A83E0D
:10563C009FD1713F1F0BA83E8CF2713F254DA73EA9
:10564C005213723F128FA63EF433723FE5D0A53E43
:10565C007054723F9F12A53EC774723F3F54A43ED4
:10566C00F894723FC595A33E04B5723F33D7A23E62
:10567C00EBD4723F8718A23EACF4723FC259A13EE4
:10568C004714733FE59AA03EBE33733FEEDB9F3E5B
:10569C000E53733FDF1C9F3E3972733FB85D9E3EC5
:1056AC003F91733F789E9D3E1FB0733F20DF9C3E21
:1056BC00D9CE733FAF1F9C3E6EED733F27609B3E70
:1056CC00DD0B743F86A09A3E272A743FCEE0993EAC
:1056DC004B48743FFE20993E4966743F1661983ED4
:1056EC002284743F17A1973ED5A1743F00E1963EEA
:1056FC0062BF743FD220963EC9DC743F8D60953EEC
:10570C000BFA743F31A0943E2717753FBFDF933ED1
:10571C001D34753F351F933EED50753F945E923EA0
:10572C00976D753FDD9D913E1C8A753F10DD903E57
:10573C007BA6753F2C1C903EB3C2753F325B8F3EEF
:10574C00C6DE753F229A8E3EB3FA753FFCD88D3E6D
:10575C007A16763FC0178D3E1B32763F6E568C3EC6
:10576C00974D763F07958B3EEC68763F8AD38A3E01
:10577C001B84763FF8118A3E249F763F5050893E19
:10578C0007BA763F938E883EC4D4763FC1CC873E11
:10579C005BEF763FDA0A873ECC09773FDF48863EDF
:1057AC001724773FCE86853E3C3E773FAAC4843E85
:1057BC003A58773F7002843E1372773F2240833E03
:1057CC00C58B773FC07D823E51A5773F4ABB813E5A
:1057DC00B7BE773FC0F8803EF7D7773F2236803E82
:1057EC0010F1773FE1E67E3E040A783F56617D3E3C
:1057FC00D122783FA4DB7B3E773B783FCB557A3E7A
:10580C00F853783FCCCF783E526C783FA649773E20
:10581C008684783F5AC3753E939C783FE83C743E2F
:10582C007BB4783F51B6723E3BCC783F942F713E9F
:10583C00D6E3783FB2A86F3E4AFB783FAB216E3E71
:10584C009812793F7F9A6C3EBF29793F2F136B3E9C
:10585C00C040793FBA8B693E9A57793F2204683E23
:10586C004E6E793F667C663EDC84793F86F4643EFE
:10587C00439B793F836C633E83B1793F5CE4613E2B
:10588C009DC7793F135C603E91DD793FA8D35E3EA6
:10589C005EF3793F1A4B5D3E04097A3F6AC25B3E68
:1058AC00841E7A3F97395A3EDD337A3FA4B0583E76
:1058BC0010497A3F8F27573E1C5E7A3F589E553EC3
:1058CC0002737A3F0115543EC1877A3F898B523E51
:1058DC00599C7A3FF101513ECBB07A3F38784F3E1C
:1058EC0016C57A3F60EE4D3E3AD97A3F67644C3E1E
:1058FC0037ED7A3F4FDA4A3E0E017B3F1850493E56
:10590C00BE147B3FC2C5473E48287B3F4D3B463EBD
:10591C00AB3B7B3FB9B0443EE74E7B3F0726433E53
:10592C00FC617B3F379B413EEA747B3F4910403E14
:10593C00B2877B3F3E853E3E539A7B3F15FA3C3EF9
:10594C00CDAC7B3FCF6E3B3E20BF7B3F6CE3393E03
:10595C004DD17B3FEC57383E53E37B3F50CC363E2A
:10596C0031F57B3F9840353EE9067C3FC4B4333E6D
:10597C007A187C3FD428323EE5297C3FC99C303EC6
:10598C00283B7C3FA2102F3E444C7C3F61842D3E33
:10599C003A5D7C3F04F82B3E086E7C3F8D6B2A3EB3
:1059AC00B07E7C3FFCDE283E318F7C3F5152273E3F
:1059BC008A9F7C3F8CC5253EBDAF7C3FAD38243ED5
:1059CC00C9BF7C3FB6AB223EAECF7C3FA51E213E6D
:1059DC006CDF7C3F7B911F3E03EF7C3F38041E3E07
:1059EC0073FE7C3FDE761C3EBC0D7D3F6BE91A3EA0
:1059FC00DD1C7D3FE05B193ED82B7D3F3DCE173E35
:105A0C00AC3A7D3F8340163E59497D3FB2B2143EBD
:105A1C00DE577D3FCA24133E3D667D3FCC96113E3A
:105A2C0074747D3FB708103E85827D3F8B7A0E3EA5
:105A3C006E907D3F4AEC0C3E309E7D3FF35D0B3EFD
:105A4C00CCAB7D3F86CF093E40B97D3F0541083E3A
:105A5C008CC67D3F6EB2063EB2D37D3FC223053E5F
:105A6C00B1E07D3F0295033E88ED7D3F2E06023E60
:105A7C0038FA7D3F4577003EC2067E3F92D0FD3D11
:105A8C0024137E3F73B2FA3D5E1F7E3F2C94F73D8C
:105A9C00722B7E3FC075F43D5E377E3F2E57F13D35
:105AAC0023437E3F7638EE3DC14E7E3F9A19EB3D47
:105ABC00385A7E3F9AFAE73D88657E3F76DBE43DB7
:105ACC00B0707E3F2EBCE13DB17B7E3FC49CDE3D81
:105ADC008B867E3F377DDB3D3D917E3F895DD83D9A
:105AEC00C99B7E3FB93DD53D2DA67E3FC81DD23DFD
:105AFC0069B07E3FB7FDCE3D7FBA7E3F86DDCB3DA4
:105B0C006DC47E3F36BDC83D34CE7E3FC69CC53D80
:105B1C00D4D77E3F397CC23D4CE17E3F8D5BBF3D8F
:105B2C009DEA7E3FC33ABC3DC7F37E3FDD19B93DCC
:105B3C00C9FC7E3FDAF8B53DA4057F3FBBD7B23D2B
:105B4C00580E7F3F80B6AF3DE4167F3F2B95AC3DA2
:105B5C00491F7F3FBA73A93D87277F3F3052A63D2F
:105B6C009D2F7F3F8C30A33D8D377F3FCF0EA03DC7
:105B7C00543F7F3FF9EC9C3DF4467F3F0ACB993D67
:105B8C006D4E7F3F05A9963DBF557F3FE786933D00
:105B9C00E95C7F3FB464903DEC637F3F6A428D3D8E
:105BAC00C76A7F3F0A208A3D7B717F3F94FD863D0B
:105BBC0008787F3F0ADB833D6D7E7F3F6CB8803D6C
:105BCC00AB847F3F742B7B3DC28A7F3FE9E5743DFC
:105BDC00B1907F3F38A06E3D78967F3F625A683D0A
:105BEC00189C7F3F6814623D91A17F3F4CCE5B3D7A
:105BFC00E3A67F3F0E88553D0DAC7F3FAF414F3D37
:105C0C000FB17F3F2FFB483DEAB57F3F91B4423D3A
:105C1C009EBA7F3FD56D3C3D2ABF7F3FFC26363D6B
:105C2C008FC37F3F07E02F3DCCC77F3FF698293DC0
:105C3C00E2CB7F3FCC51233DD1CF7F3F880A1D3D26
:105C4C0098D37F3F2CC3163D37D77F3FB87B103D91
:105C5C00AFDA7F3F2F340A3D00DE7F3F90EC033DEF
:105C6C0029E17F3FB949FB3C2BE47F3F2DBAEE3C49
:105C7C0005E77F3F7B2AE23CB8E97F3FA69AD53CFB
:105C8C0043EC7F3FB00AC93CA7EE7F3F9B7ABC3CFC
:105C9C00E3F07F3F69EAAF3CF8F27F3F1C5AA33C2C
:105CAC00E6F47F3FB6C9963CACF67F3F38398A3C68
:105CBC004AF87F3F4B517B3CC1F97F3F0030623C3F
:105CCC0011FB7F3F900E493C39FC7F3F02ED2F3C8E
:105CDC0039FD7F3F59CB163C13FE7F3F3053FB3BC6
:105CEC00C4FE7F3F890FC93B4EFF7F3FC1CB963B24
:105CFC00B1FF7F3FC70F493BECFF7F3FD40FC93A41
:105D0C000000803F00000000ECFF7F3FD40FC9BAB9
:105D1C00B1FF7F3FC70F49BB4EFF7F3FC1CB96BB47
:105D2C00C4FE7F3F890FC9BB13FE7F3F3053FBBBC3
:105D3C0039FD7F3F59CB16BC39FC7F3F02ED2FBCA0
:105D4C0011FB7F3F900E49BCC1F97F3F003062BC14
:105D5C004AF87F3F4B517BBCACF67F3F38398ABC4D
:105D6C00E6F47F3FB6C996BCF8F27F3F1C5AA3BC41
:105D7C00E3F07F3F69EAAFBCA7EE7F3F9B7ABCBCE8
:105D8C0043EC7F3FB00AC9BCB8E97F3FA69AD5BCAB
:105D9C0005E77F3F7B2AE2BC2BE47F3F2DBAEEBCAC
:105DAC0029E17F3FB949FBBC00DE7F3F90EC03BD8E
:105DBC00AFDA7F3F2F340ABD37D77F3FB87B10BD9A
:105DCC0098D37F3F2CC316BDD1CF7F3F880A1DBD12
:105DDC00E2CB7F3FCC5123BDCCC77F3FF69829BD8A
:105DEC008FC37F3F07E02FBD2ABF7F3FFC2636BD08
:105DFC009EBA7F3FD56D3CBDEAB57F3F91B442BDA5
:105E0C000FB17F3F2FFB48BD0DAC7F3FAF414FBD66
:105E1C00E3A67F3F0E8855BD91A17F3F4CCE5BBD65
:105E2C00189C7F3F681462BD78967F3F625A68BDAC
:105E3C00B1907F3F38A06EBDC28A7F3FE9E574BD4B
:105E4C00AB847F3F742B7BBD6D7E7F3F6CB880BD78
:105E5C0008787F3F0ADB83BD7B717F3F94FD86BD55
:105E6C00C76A7F3F0A208ABDEC637F3F6A428DBDC3
:105E7C00E95C7F3FB46490BDBF557F3FE78693BD1F
:105E8C006D4E7F3F05A996BDF4467F3F0ACB99BD69
:105E9C00543F7F3FF9EC9CBD8D377F3FCF0EA0BDAB
:105EAC009D2F7F3F8C30A3BD87277F3F3052A6BDEF
:105EBC00491F7F3FBA73A9BDE4167F3F2B95ACBD3C
:105ECC00580E7F3F80B6AFBDA4057F3FBBD7B2BD98
:105EDC00C9FC7E3FDAF8B5BDC7F37E3FDD19B9BD0D
:105EEC009DEA7E3FC33ABCBD4CE17E3F8D5BBFBD9E
:105EFC00D4D77E3F397CC2BD34CE7E3FC69CC5BD57
:105F0C006DC47E3F36BDC8BD7FBA7E3F86DDCBBD3E
:105F1C0069B07E3FB7FDCEBD2DA67E3FC81DD2BD5C
:105F2C00C99B7E3FB93DD5BD3D917E3F895DD8BDB6
:105F3C008B867E3F377DDBBDB17B7E3FC49CDEBD57
:105F4C00B0707E3F2EBCE1BD88657E3F76DBE4BD44
:105F5C00385A7E3F9AFAE7BDC14E7E3F9A19EBBD87
:105F6C0023437E3F7638EEBD5E377E3F2E57F1BD24
:105F7C00722B7E3FC075F4BD5E1F7E3F2C94F7BD27
:105F8C0024137E3F73B2FABDC2067E3F92D0FDBD94
:105F9C0038FA7D3F457700BE88ED7D3F2E0602BE68
:105FAC00B1E07D3F029503BEB2D37D3FC22305BE57
:105FBC008CC67D3F6EB206BE40B97D3F054108BE22
:105FCC00CCAB7D3F86CF09BE309E7D3FF35D0BBED3
:105FDC006E907D3F4AEC0CBE85827D3F8B7A0EBE67
:105FEC0074747D3FB70810BE3D667D3FCC9611BEE4
:105FFC00DE577D3FCA2413BE59497D3FB2B214BE51
:10600C00AC3A7D3F834016BED82B7D3F3DCE17BEAC
:10601C00DD1C7D3FE05B19BEBC0D7D3F6BE91ABEFC
:10602C0073FE7C3FDE761CBE03EF7C3F38041EBE45
:10603C006CDF7C3F7B911FBEAECF7C3FA51E21BE8B
:10604C00C9BF7C3FB6AB22BEBDAF7C3FAD3824BED2
:10605C008A9F7C3F8CC525BE318F7C3F515227BE19
:10606C00B07E7C3FFCDE28BE086E7C3F8D6B2ABE6A
:10607C003A5D7C3F04F82BBE444C7C3F61842DBEC2
:10608C00283B7C3FA2102FBEE5297C3FC99C30BE2B
:10609C007A187C3FD42832BEE9067C3FC4B433BEA8
:1060AC0031F57B3F984035BE53E37B3F50CC36BE39
:1060BC004DD17B3FEC5738BE20BF7B3F6CE339BEE4
:1060CC00CDAC7B3FCF6E3BBE539A7B3F15FA3CBEAB
:1060DC00B2877B3F3E853EBEEA747B3F491040BE93
:1060EC00FC617B3F379B41BEE74E7B3F072643BE9F
:1060FC00AB3B7B3FB9B044BE48287B3F4D3B46BED3
:10610C00BE147B3FC2C547BE0E017B3F185049BE33
:10611C0037ED7A3F4FDA4ABE3AD97A3F67644CBEC4
:10612C0016C57A3F60EE4DBECBB07A3F38784FBE85
:10613C00599C7A3FF10151BEC1877A3F898B52BE7F
:10614C0002737A3F011554BE1C5E7A3F589E55BEB1
:10615C0010497A3F8F2757BEDD337A3FA4B058BE23
:10616C00841E7A3F97395ABE04097A3F6AC25BBED5
:10617C005EF3793F1A4B5DBE91DD793FA8D35EBECD
:10618C009DC7793F135C60BE83B1793F5CE461BE0F
:10619C00439B793F836C63BEDC84793F86F464BE99
:1061AC004E6E793F667C66BE9A57793F220468BE74
:1061BC00C040793FBA8B69BEBF29793F2F136BBEA4
:1061CC009812793F7F9A6CBE4AFB783FAB216EBE2A
:1061DC00D6E3783FB2A86FBE3BCC783F942F71BE0C
:1061EC007BB4783F51B672BE939C783FE83C74BE4A
:1061FC008684783F5AC375BE526C783FA64977BEE9
:10620C00F853783FCCCF78BE773B783FCB557ABEEE
:10621C00D122783FA4DB7BBE040A783F56617DBE59
:10622C0010F1773FE1E67EBEF7D7773F223680BE8E
:10623C00B7BE773FC0F880BE51A5773F4ABB81BE41
:10624C00C58B773FC07D82BE1372773F224083BEE1
:10625C003A58773F700284BE3C3E773FAAC484BE56
:10626C001724773FCE8685BECC09773FDF4886BEA4
:10627C005BEF763FDA0A87BEC4D4763FC1CC87BECB
:10628C0007BA763F938E88BE249F763F505089BEC6
:10629C001B84763FF8118ABEEC68763F8AD38ABE9F
:1062AC00974D763F07958BBE1B32763F6E568CBE54
:1062BC007A16763FC0178DBEB3FA753FFCD88DBEEB
:1062CC00C6DE753F229A8EBEB3C2753F325B8FBE5F
:1062DC007BA6753F2C1C90BE1C8A753F10DD90BEB2
:1062EC00976D753FDD9D91BEED50753F945E92BEEE
:1062FC001D34753F351F93BE2717753FBFDF93BE07
:10630C000BFA743F31A094BEC9DC743F8D6095BE0E
:10631C0062BF743FD22096BED5A1743F00E196BEF9
:10632C002284743F17A197BE4966743F166198BECC
:10633C004B48743FFE2099BE272A743FCEE099BE8D
:10634C00DD0B743F86A09ABE6EED733F27609BBE3B
:10635C00D9CE733FAF1F9CBE1FB0733F20DF9CBED6
:10636C003F91733F789E9DBE3972733FB85D9EBE60
:10637C000E53733FDF1C9FBEBE33733FEEDB9FBEDD
:10638C004714733FE59AA0BEACF4723FC259A1BE4C
:10639C00EBD4723F8718A2BE04B5723F33D7A2BEAE
:1063AC00F894723FC595A3BEC774723F3F54A4BE08
:1063BC007054723F9F12A5BEF433723FE5D0A5BE58
:1063CC005213723F128FA6BE8CF2713F254DA7BEA1
:1063DC009FD1713F1F0BA8BE8EB0713FFEC8A8BEE7
:1063EC00578F713FC486A9BEFB6D713F6F44AABE27
:1063FC007A4C713F0102ABBED42A713F77BFABBE62
:10640C000809713FD47CACBE17E7703F153AADBE9E
:10641C0002C5703F3CF7ADBEC6A2703F49B4AEBEDC
:10642C006680703F3A71AFBEE15D703F102EB0BE1A
:10643C00373B703FCBEAB0BE6718703F6BA7B1BE5D
:10644C0073F56F3FEF63B2BE5AD26F3F5820B3BEA5
:10645C001BAF6F3FA5DCB3BEB88B6F3FD698B4BEF5
:10646C0030686F3FEC54B5BE83446F3FE610B6BE48
:10647C00B0206F3FC3CCB6BEBAFC6E3F8488B7BEAB
:10648C009ED86E3F2A44B8BE5DB46E3FB2FFB8BE14
:10649C00F88F6E3F1EBBB9BE6D6B6E3F6E76BABE8B
:1064AC00BE466E3FA031BBBEEB216E3FB6ECBBBE11
:1064BC00F2FC6D3FAFA7BCBED5D76D3F8B62BDBEA6
:1064CC0093B26D3F4A1DBEBE2D8D6D3FEBD7BEBE48
:1064DC00A1676D3F6F92BFBEF2416D3FD54CC0BE00
:1064EC001D1C6D3F1E07C1BE24F66C3F48C1C1BECA
:1064FC0007D06C3F557BC2BEC5A96C3F4435C3BEAB
:10650C005E836C3F15EFC3BED45C6C3FC8A8C4BEA1
:10651C0024366C3F5C62C5BE500F6C3FD21BC6BEAE
:10652C0058E86B3F29D5C6BE3BC16B3F628EC7BED8
:10653C00FB996B3F7C47C8BE95726B3F7700C9BE19
:10654C000C4B6B3F53B9C9BE5E236B3F1072CABE76
:10655C008CFB6A3FAE2ACBBE95D36A3F2CE3CBBEF5
:10656C007BAB6A3F8B9BCCBE3C836A3FCA53CDBE90
:10657C00D95A6A3FEA0BCEBE52326A3FEAC3CEBE4C
:10658C00A7096A3FCA7BCFBED7E0693F8A33D0BE2A
:10659C00E4B7693F2AEBD0BECC8E693FAAA2D1BE2C
:1065AC009165693F095AD2BE323C693F4811D3BE4E
:1065BC00AE12693F67C8D3BE07E9683F647FD4BE9B
:1065CC003CBF683F4136D5BE4C95683FFDECD5BE0F
:1065DC00396B683F99A3D6BE0341683F135AD7BEA7
:1065EC00A816683F6B10D8BE2AEC673FA3C6D8BE6E
:1065FC0087C1673FB97CD9BEC196673FAD32DABE61
:10660C00D86B673F80E8DABECA40673F319EDBBE7D
:10661C009915673FC153DCBE45EA663F2E09DDBEC6
:10662C00CCBE663F79BEDDBE3093663FA273DEBE44
:10663C007167663FA928DFBE8E3B663F8DDDDFBEEE
:10664C00880F663F4F92E0BE5EE3653FEE46E1BECB
:10665C0010B7653F6AFBE1BEA08A653FC4AFE2BEDE
:10666C000B5E653FFA63E3BE5431653F0E18E4BE22
:10667C007904653FFECBE4BE7BD7643FCB7FE5BEA0
:10668C0059AA643F7533E6BE147D643FFBE6E6BE53
:10669C00AC4F643F5D9AE7BE2122643F9C4DE8BE3F
:1066AC0073F4633FB700E9BEA1C6633FAEB3E9BE66
:1066BC00AC98633F8166EABE956A633F3019EBBEC6
:1066CC005A3C633FBBCBEBBEFC0D633F217EECBE63
:1066DC007BDF623F6330EDBED7B0623F80E2EDBE40
:1066EC001082623F7994EEBE2653623F4C46EFBE59
:1066FC001A24623FFBF7EFBEEAF4613F85A9F0BEB6
:10670C0098C5613FEA5AF1BE2296613F290CF2BE50
:10671C008A66613F43BDF2BED036613F386EF3BE30
:10672C00F206613F071FF4BEF2D6603FB1CFF4BE54
:10673C00CFA6603F3580F5BE8976603F9330F6BEBC
:10674C002146603FCBE0F6BE9615603FDC90F7BE6D
:10675C00E9E45F3FC840F8BE19B45F3F8EF0F8BE65
:10676C0027835F3F2DA0F9BE12525F3FA54FFABEA3
:10677C00DB205F3FF7FEFABE81EF5E3F22AEFBBE31
:10678C0005BE5E3F275DFCBE678C5E3F040CFDBE04
:10679C00A65A5E3FBBBAFDBEC3285E3F4A69FEBE29
:1067AC00BEF65D3FB217FFBE97C45D3FF3C5FFBE9B
:1067BC004D925D3F063A00BFE15F5D3FFF9000BF29
:1067CC00532D5D3FE4E700BFA3FA5C3FB53E01BF2C
:1067DC00D1C75C3F739501BFDD945C3F1CEC01BFDE
:1067EC00C7615C3FB14202BF8E2E5C3F329902BF43
:1067FC0034FB5B3F9FEF02BFB8C75B3FF84503BF5D
:10680C001A945B3F3D9C03BF5A605B3F6DF203BF24
:10681C00792C5B3F894804BF75F85A3F919E04BFA1
:10682C0050C45A3F84F404BF09905A3F624A05BFD2
:10683C00A05B5A3F2CA005BF16275A3FE2F505BFB7
:10684C006AF2593F824B06BF9CBD593F0EA106BF51
:10685C00AD88593F86F606BF9C53593FE84B07BF9E
:10686C006A1E593F36A107BF17E9583F6FF607BF9D
:10687C00A1B3583F924B08BF0B7E583FA1A008BF55
:10688C005348583F9BF508BF7912583F7F4A09BFC0
:10689C007FDC573F4E9F09BF63A6573F09F409BFE2
:1068AC002670573FAD480ABFC739573F3D9D0ABFB9
:1068BC004803573FB7F10ABFA7CC563F1C460BBF46
:1068CC00E595563F6B9A0BBF025F563FA5EE0BBF8B
:1068DC00FE27563FC9420CBFD9F0553FD7960CBF87
:1068EC0093B9553FD0EA0CBF2C82553FB33E0DBF38
:1068FC00A44A553F81920DBFFB12553F38E60DBFA0
:10690C0031DB543FDA390EBF47A3543F658D0EBFC0
:10691C003B6B543FDBE00EBF0F33543F3B340FBF98
:10692C00C3FA533F84870FBF55C2533FB8DA0FBF2A
:10693C00C789533FD52D10BF1851533FDC8010BF72
:10694C004918533FCDD310BF59DF523FA72611BF73
:10695C0049A6523F6B7911BF186D523F19CC11BF2C
:10696C00C633523FB01E12BF54FA513F307112BFA2
:10697C00C2C0513F9AC312BF1087513FEE1513BFCF
:10698C003D4D513F2A6813BF4A13513F50BA13BFB4
:10699C0037D9503F5F0C14BF039F503F585E14BF54
:1069AC00AF64503F39B014BF3B2A503F040215BFAF
:1069BC00A8EF4F3FB75315BFF4B44F3F54A515BFC5
:1069CC001F7A4F3FD9F615BF2B3F4F3F474816BF95
:1069DC0017044F3F9F9916BFE4C84E3FDFEA16BF1E
:1069EC00908D4E3F073C17BF1C524E3F188D17BF62
:1069FC0089164E3F12DE17BFD5DA4D3FF52E18BF64
:106A0C00029F4D3FC07F18BF10634D3F73D018BF1E
:106A1C00FD264D3F0F2119BFCBEA4C3F947119BF96
:106A2C0079AE4C3F00C219BF08724C3F55121ABFC9
:106A3C0078354C3F93621ABFC7F84B3FB8B21ABFB8
:106A4C00F8BB4B3FC6021BBF097F4B3FBB521BBF62
:106A5C00FA414B3F99A21BBFCC044B3F5FF21BBFCB
:106A6C007FC74A3F0C421CBF138A4A3FA2911CBFEE
:106A7C00874C4A3F1FE11CBFDC0E4A3F84301DBFD0
:106A8C0012D1493FD17F1DBF2993493F06CF1DBF6E
:106A9C002155493F221E1EBFFA16493F266D1EBFC7
:106AAC00B3D8483F12BC1EBF4E9A483FE50A1FBFE1
:106ABC00CA5B483F9F591FBF271D483F41A81FBFB6
:106ACC0065DE473FCBF61FBF849F473F3B4520BF4A
