:020000040C00EE
:100000000008002001020008D3030008E3030008F1
:10001000F3030008030400081304000800000000B4
:1000200000000000000000000000000023040008A1
:1000300033040008000000004304000853040008D3
:100040006304000873040008830400089304000894
:10005000A3040008B3040008C3040008D304000884
:10006000E3040008000000000000000000000000A1
:10007000F304000800000000030500081305000851
:100080002305000833050008430500085305000850
:100090006305000873050008830500089305000840
:1000A000A3050008B3050008C3050008D305000830
:1000B000E3050008F305000803060008130600081E
:1000C000230600083306000843060008530600080C
:1000D00063060008730600088306000893060008FC
:1000E000A3060008B3060008C3060008D3060008EC
:1000F000E3060008F30600080307000813070008DA
:1001000023070008310700083F0700084D070008D3
:100110005B070008690700087707000885070008E3
:1001200093070008A1070008AF070008BD070008F3
:10013000CB070008D9070008E7070008F507000803
:1001400003080008110800081F0800082D0800080F
:100150003B0800084908000857080008650800081F
:10016000000000000000000000000000000000008F
:1001700073080008810800088F0800089D0800081F
:10018000AB080008B9080008C7080008D50800082F
:10019000E3080008F1080008FF0800080D0900083E
:1001A0001B0900082909000837090008450900084B
:1001B00053090008610900086F0900087D0900085B
:1001C0008B09000899090008A7090008B50900086B
:1001D000C3090008D1090008DF0900080000000079
:1001E000ED090008FB090008090A0008170A0008C1
:1001F000250A000800000000330A00080000000083
:10020000DFF80CD0034880470348804700F006B869
:1002100000080020FD0B0008C50200081E481F4909
:100220001F4A002A00F01280042A80F002804FF05A
:1002300004024FEA920203680B60013A00F0068064
:1002400000F1040001F10401FFF7F5BF154816495C
:10025000002900F01180042980F002804FF0040191
:100260004FEA91014FF000020260013900F0048072
:1002700000F10400FFF7F8BF0C480D4908600D4875
:1002800080470D488047DFF834D04FF000004FF032
:100290000001DFF82CF000003032000C7009002063
:1002A0003C04000000080020640100000000000879
:1002B00008ED00E0990C0008ED2D00080008002072
:1002C000C902000800BF704780B586B000AF43F296
:1002D0000423C0F6000307F1100293E8030082E84C
:1002E000030043F20C23C0F6000307F1080293E871
:1002F000030082E8030043F21423C0F600033A46E9
:1003000093E8030082E8030007F1100107F10802F7
:100310003B46084611461A4601F05CFC40F6701355
:10032000C2F200031B6840F60000C2F2000019464A
:1003300040F65412C2F2000240F64C13C2F200031F
:1003400000F0B4FF40F67013C2F200031B6840F6E1
:100350000000C2F20000194640F66012C2F200022C
:1003600040F64C13C2F2000301F062F940F670133C
:10037000C2F200031B6840F60000C2F200001946FA
:1003800040F65812C2F2000201F0CEF840F67013A7
:10039000C2F200031B6840F60000C2F200001946DA
:1003A00040F65012C2F2000201F080FA40F67013DB
:1003B000C2F200031B6840F60000C2F200001946BA
:1003C00040F65C12C2F2000201F046FBFEE700BFFD
:1003D000FEE7DFF8700600B581B0804701B000BDD0
:1003E000FEE7DFF8640600B581B0804701B000BDCC
:1003F000FEE7DFF8580600B581B0804701B000BDC8
:10040000FEE7DFF84C0600B581B0804701B000BDC3
:10041000FEE7DFF8400600B581B0804701B000BDBF
:10042000FEE7DFF8340600B581B0804701B000BDBB
:10043000FEE7DFF8280600B581B0804701B000BDB7
:10044000FEE7DFF81C0600B581B0804701B000BDB3
:10045000FEE7DFF8100600B581B0804701B000BDAF
:10046000FEE7DFF8040600B581B0804701B000BDAB
:10047000FEE7DFF8F80500B581B0804701B000BDA8
:10048000FEE7DFF8EC0500B581B0804701B000BDA4
:10049000FEE7DFF8E00500B581B0804701B000BDA0
:1004A000FEE7DFF8D40500B581B0804701B000BD9C
:1004B000FEE7DFF8C80500B581B0804701B000BD98
:1004C000FEE7DFF8BC0500B581B0804701B000BD94
:1004D000FEE7DFF8B00500B581B0804701B000BD90
:1004E000FEE7DFF8A40500B581B0804701B000BD8C
:1004F000FEE7DFF8980500B581B0804701B000BD88
:10050000FEE7DFF88C0500B581B0804701B000BD83
:10051000FEE7DFF8800500B581B0804701B000BD7F
:10052000FEE7DFF8740500B581B0804701B000BD7B
:10053000FEE7DFF8680500B581B0804701B000BD77
:10054000FEE7DFF85C0500B581B0804701B000BD73
:10055000FEE7DFF8500500B581B0804701B000BD6F
:10056000FEE7DFF8440500B581B0804701B000BD6B
:10057000FEE7DFF8380500B581B0804701B000BD67
:10058000FEE7DFF82C0500B581B0804701B000BD63
:10059000FEE7DFF8200500B581B0804701B000BD5F
:1005A000FEE7DFF8140500B581B0804701B000BD5B
:1005B000FEE7DFF8080500B581B0804701B000BD57
:1005C000FEE7DFF8FC0400B581B0804701B000BD54
:1005D000FEE7DFF8F00400B581B0804701B000BD50
:1005E000FEE7DFF8E40400B581B0804701B000BD4C
:1005F000FEE7DFF8D80400B581B0804701B000BD48
:10060000FEE7DFF8CC0400B581B0804701B000BD43
:10061000FEE7DFF8C00400B581B0804701B000BD3F
:10062000FEE7DFF8B40400B581B0804701B000BD3B
:10063000FEE7DFF8A80400B581B0804701B000BD37
:10064000FEE7DFF89C0400B581B0804701B000BD33
:10065000FEE7DFF8900400B581B0804701B000BD2F
:10066000FEE7DFF8840400B581B0804701B000BD2B
:10067000FEE7DFF8780400B581B0804701B000BD27
:10068000FEE7DFF86C0400B581B0804701B000BD23
:10069000FEE7DFF8600400B581B0804701B000BD1F
:1006A000FEE7DFF8540400B581B0804701B000BD1B
:1006B000FEE7DFF8480400B581B0804701B000BD17
:1006C000FEE7DFF83C0400B581B0804701B000BD13
:1006D000FEE7DFF8300400B581B0804701B000BD0F
:1006E000FEE7DFF8240400B581B0804701B000BD0B
:1006F000FEE7DFF8180400B581B0804701B000BD07
:10070000FEE7DFF80C0400B581B0804701B000BD02
:10071000FEE7DFF8000400B581B0804701B000BDFE
:10072000FEE7FD4800B581B0804701B000BDFEE79F
:10073000FA4800B581B0804701B000BDFEE7F84837
:1007400000B581B0804701B000BDFEE7F54800B5B7
:1007500081B0804701B000BDFEE7F34800B581B02D
:10076000804701B000BDFEE7F04800B581B080478A
:1007700001B000BDFEE7EE4800B581B0804701B092
:1007800000BDFEE7EB4800B581B0804701B000BD79
:10079000FEE7E94800B581B0804701B000BDFEE743
:1007A000E64800B581B0804701B000BDFEE7E448EF
:1007B00000B581B0804701B000BDFEE7E14800B55B
:1007C00081B0804701B000BDFEE7DF4800B581B0D1
:1007D000804701B000BDFEE7DC4800B581B080472E
:1007E00001B000BDFEE7DA4800B581B0804701B036
:1007F00000BDFEE7D74800B581B0804701B000BD1D
:10080000FEE7D54800B581B0804701B000BDFEE7E6
:10081000D24800B581B0804701B000BDFEE7D048A6
:1008200000B581B0804701B000BDFEE7CD4800B5FE
:1008300081B0804701B000BDFEE7CB4800B581B074
:10084000804701B000BDFEE7C84800B581B08047D1
:1008500001B000BDFEE7C64800B581B0804701B0D9
:1008600000BDFEE7C34800B581B0804701B000BDC0
:10087000FEE7C14800B581B0804701B000BDFEE78A
:10088000BE4800B581B0804701B000BDFEE7BC485E
:1008900000B581B0804701B000BDFEE7B94800B5A2
:1008A00081B0804701B000BDFEE7B74800B581B018
:1008B000804701B000BDFEE7B44800B581B0804775
:1008C00001B000BDFEE7B24800B581B0804701B07D
:1008D00000BDFEE7AF4800B581B0804701B000BD64
:1008E000FEE7AD4800B581B0804701B000BDFEE72E
:1008F000AA4800B581B0804701B000BDFEE7A84816
:1009000000B581B0804701B000BDFEE7A54800B545
:1009100081B0804701B000BDFEE7A34800B581B0BB
:10092000804701B000BDFEE7A04800B581B0804718
:1009300001B000BDFEE79E4800B581B0804701B020
:1009400000BDFEE79B4800B581B0804701B000BD07
:10095000FEE7994800B581B0804701B000BDFEE7D1
:10096000964800B581B0804701B000BDFEE79448CD
:1009700000B581B0804701B000BDFEE7914800B5E9
:1009800081B0804701B000BDFEE78F4800B581B05F
:10099000804701B000BDFEE78C4800B581B08047BC
:1009A00001B000BDFEE78A4800B581B0804701B0C4
:1009B00000BDFEE7874800B581B0804701B000BDAB
:1009C000FEE7854800B581B0804701B000BDFEE775
:1009D000824800B581B0804701B000BDFEE7804885
:1009E00000B581B0804701B000BDFEE77D4800B58D
:1009F00081B0804701B000BDFEE77B4800B581B003
:100A0000804701B000BDFEE7784800B581B080475F
:100A100001B000BDFEE7764800B581B0804701B067
:100A200000BDFEE7734800B581B0804701B000BD4E
:100A3000FEE7714800B581B0804701B000BD4FF0BE
:100A400001007047D1030008E1030008F10300082A
:100A50000104000811040008210400083104000802
:100A600041040008510400086104000871040008F2
:100A70008104000891040008A1040008B1040008E2
:100A8000C1040008D1040008E1040008F1040008D2
:100A900001050008110500082105000831050008BE
:100AA00041050008510500086105000871050008AE
:100AB0008105000891050008A1050008B10500089E
:100AC000C1050008D1050008E1050008F10500088E
:100AD000010600081106000821060008310600087A
:100AE000410600085106000861060008710600086A
:100AF0008106000891060008A1060008B10600085A
:100B0000C1060008D1060008E1060008F106000849
:100B10000107000811070008210700082F07000837
:100B20003D0700084B070008590700086707000841
:100B30007507000883070008910700089F07000851
:100B4000AD070008BB070008C9070008D707000861
:100B5000E5070008F3070008010800080F0800086F
:100B60001D0800082B08000839080008470800087D
:100B70005508000863080008710800087F0800088D
:100B80008D0800089B080008A9080008B70800089D
:100B9000C5080008D3080008E1080008EF080008AD
:100BA000FD0800080B0900081909000827090008BA
:100BB0003509000843090008510900085F090008C9
:100BC0006D0900087B0900088909000897090008D9
:100BD000A5090008B3090008C1090008CF090008E9
:100BE000DD090008EB090008F9090008070A0008F8
:100BF000150A0008230A0008310A000880B582B0EF
:100C000000AF4FF46D43CEF200034FF46D42CEF2CD
:100C10000002D2F8882042F47002C3F888204FF412
:100C20006D43CEF200034FF46D42CEF200025269E2
:100C300022F008025A614FF40043C5F200034FF45A
:100C40000042C5F20002526822F001025A604FF4DD
:100C50008053C5F6000303F5805303F114031B68AA
:100C60007B607B6823F00F037B607B6843F00303AA
:100C70007B604FF48053C5F600037A6803F5805318
:100C800003F114031A6000F0ABF800F005F807F167
:100C90000807BD4680BD00BF80B485B000AF4FF4EB
:100CA0008C43C5F20003DB68B3F5803F40F08980D8
:100CB00044F21073C5F200031B6803F00403002B19
:100CC00000F0888044F21073C5F200039B6803F0C3
:100CD00070634FEA136303F10103FB6044F2107386
:100CE000C5F200039B6803F4FE434FEA132303F1AC
:100CF0000103BB6044F21073C5F200039B6803F468
:100D0000FE034FEA134303F101037B6044F21073C7
:100D1000C5F20003DB6803F00103002B28D04FF479
:100D20005853C0F26E13FA68B3FBF2F3BA6802FBD1
:100D300003F33B603A687B68B2FBF3F240F678134A
:100D4000C2F200031A6040F67813C2F200031A6878
:100D50004FF48C43C5F20003DB68DBB203F10103FF
:100D6000B2FBF3F240F67813C2F200031A6031E0EE
:100D70004FF4D853C0F2B703FA68B3FBF2F3BA6882
:100D800002FB03F33B603A687B68B2FBF3F240F688
:100D90007813C2F200031A6040F67813C2F200031F
:100DA0001A684FF48C43C5F20003DB68DBB203F131
:100DB0000103B2FBF3F240F67813C2F200031A60AB
:100DC00008E040F67813C2F200034FF45852C0F224
:100DD0006E121A6007F11407BD4680BC704700BF51
:100DE00080B582B000AFFFF72AFE0346002B00F06B
:100DF000558244F21073C5F200035A684FF00203A3
:100E0000C0F201031340002B0DD044F21073C5F261
:100E1000000344F21072C5F20002526822F48032DC
:100E200022F002025A604FF48E43C5F200035B6861
:100E300003F03003002B72D04FF48E43C5F2000351
:100E40004FF48E42C5F20002526822F0F0025A605E
:100E50004FF48E43C5F200034FF48E42C5F20002F8
:100E6000526842F400325A6044F21073C5F2000333
:100E700044F21072C5F20002D26822F00102DA6078
:100E800044F21073C5F2000344F21072C5F200027E
:100E9000526822F400325A604EF21003CEF2000380
:100EA00044F6A332C0F24C025A604EF21003CEF266
:100EB00000034FF000029A604EF21003CEF20003DE
:100EC0004FF005021A6044F21073C5F200031B686C
:100ED00003F46073B3F5607F08D04EF21003CEF2D6
:100EE00000039A6840F2F3139A42ECD84EF21003D2
:100EF000CEF200034EF21002CEF20002126822F08F
:100F000001021A6044F21073C5F200031B6803F477
:100F10006073B3F5607F02D04FF00003C0E144F28C
:100F20001073C5F200031B6803F00403002B40F0AC
:100F3000B5814FF48C43C5F20003DB6803F48033C2
:100F4000002B0BD04FF48C43C5F200034FF48C42BE
:100F5000C5F20002D26822F48032DA604FF46053A6
:100F6000C1F69C437B607A6849F68173C1F25E6387
:100F7000A3FB02134FEA535303F1FF333B6044F2E8
:100F80001073C5F2000344F21072C5F200025268F9
:100F900042F001025A6044F21073C5F2000344F2B9
:100FA0001072C5F20002526842F010025A6044F218
:100FB0001072C5F200023B684FEA034144F6017328
:100FC000C0F200130B43936044F21073C5F20003A8
:100FD00044F21072C5F20002526842F040025A60B8
:100FE00044F21073C5F2000344F21072C5F200021D
:100FF000526822F010025A6044F21073C5F20003E6
:1010000044F21072C5F20002526842F480225A6023
:101010004EF21003CEF2000344F6A332C0F24C02AB
:101020005A604EF21003CEF200034FF000029A60B5
:101030004EF21003CEF200034FF005021A6000BF1B
:1010400044F21073C5F200031B6803F00403002B85
:1010500008D14EF21003CEF200039A6840F2F31367
:101060009A42EDD84EF21003CEF200034EF2100277
:10107000CEF20002126822F001021A6044F21073EC
:10108000C5F200031B6803F00403002B4ED044F2AA
:101090001073C5F2000344F21072C5F200025268E8
:1010A00022F001025A604FF48C43C5F200034FF066
:1010B00000021A614FF48C43C5F200034FF00002A6
:1010C0005A614FF48C43C5F200034FF000021A62DC
:1010D0004FF48C43C5F200034FF48C42C5F200027A
:1010E000D26842F48032DA6044F21073C5F2000331
:1010F00044F21072C5F20002526822F040025A60B7
:101100004EF21003CEF2000340F245525A604EF206
:101110001003CEF200034FF000029A604EF210036B
:10112000CEF200034FF005021A6002E04FF0000318
:10113000B6E04EF21003CEF200039B68632BF8D8A2
:101140004EF21003CEF200034EF21002CEF2000275
:10115000126822F001021A604FF46053C1F69C43FA
:101160007B607B684FEA132245F2C743C0F21E132F
:10117000A3FB02134FEA932303F1FF333B6044F2D6
:101180001072C5F200023B684FEA034144F6017356
:10119000C0F200130B4393604EF21003CEF2000333
:1011A00040F61B425A604EF21003CEF200034FF09D
:1011B00000029A604EF21003CEF200034FF00502D7
:1011C0001A6000BF4EF21003CEF200039B68632B3F
:1011D000F8D84EF21003CEF200034EF21002CEF217
:1011E0000002126822F001021A604FF46053C1F647
:1011F0009C437B607B684FEAD3124EF22F33C0F2E0
:10120000BE03A3FB02134FEAD32303F1FF333B607A
:1012100044F21072C5F200023B684FEA034144F603
:101220000173C0F200130B4393604EF21003CEF231
:10123000000341F223325A604EF21003CEF2000353
:101240004FF000029A604EF21003CEF200034FF00E
:1012500005021A6000BF4EF21003CEF200039B6835
:10126000632BF8D84EF21003CEF200034EF21002B8
:10127000CEF20002126822F001021A6044F21073EA
:10128000C5F2000344F60172C0F203129A6044F200
:101290006013C5F200034FF00502DA604FF001035E
:1012A000184607F10807BD4680BD00BF2DE9F007CD
:1012B00001F1FF3884465FEA9809FCEC017A00F0FE
:1012C0003081DCED006AF4EEE76AF1EE10FA9CED95
:1012D000017AC8BFF0EE667AF4EEC77AD4BF002672
:1012E00001269CED020AF1EE10FA48BFF0EE477AB3
:1012F000F4EEC07A48BF0226DCED030AF1EE10FAE4
:1013000048BFF0EE407A09F1FF34F4EEE07A48BFCE
:1013100003262746F1EE10FA04F0010A48BFF0EE6A
:10132000607A48BF042600F114050824002F00F05D
:101330009F80BAF1000F30D095ED001AB4EEE71A95
:10134000F1EE10FAD5ED011AC8BFF0EE417AF4EED5
:10135000E17A95ED022AC8BF0526F1EE10FA48BFE2
:10136000F0EE617AF4EEC27AD5ED032A48BF062684
:10137000F1EE10FA48BFF0EE427AF4EEE27A48BF9E
:101380000726F1EE10FA48BFF0EE627A48BF082651
:101390000C24013F00F124056AD095ED003AB4EE2B
:1013A000E73AF1EE10FAD5ED013AC8BFF0EE437A14
:1013B000A4F10300F4EEE37AC8BF064695ED024AB5
:1013C000F1EE10FA48BFF0EE637AA4F10200F4EEF9
:1013D000C47AD5ED034A48BF0646F1EE10FA48BF7D
:1013E000F0EE447A04F1FF30F4EEE47A95ED045A1D
:1013F00048BF0646F1EE10FA48BFF0EE647AB4EE4C
:10140000E75A48BF2646D5ED055AF1EE10FAC8BF97
:10141000F0EE457A04F10100F4EEE57AC8BF064625
:1014200095ED066AF1EE10FA48BFF0EE657A04F128
:101430000200F4EEC67A48BF0646D5ED076AF1EE23
:1014400010FA48BFF0EE467A04F10300F4EEE67AB3
:1014500004F1040448BF0646F1EE10FA48BFF0EE6E
:10146000667A48BF26460434023F05F1200594D130
:101470000CEB091C18F0030550D06046B0EC017A63
:10148000B4EEE77AF1EE10FAC5EB0101C8BFF0EE59
:10149000477ACCBF0F463746012405F1FF3CAC42EA
:1014A0000CEA040CB0EE670A3E46F0EE670A2FD055
:1014B000BCF1000F0FD0B0EC010AB4EEE70AF1EE78
:1014C00010FAD8BFB0EE670AF0EE400A1CDC013417
:1014D000AC423E461CD0B0EC011AB4EEE01AF1EE7C
:1014E00010FAF0EC011AC8BFF0EE410AF4EEE01A6F
:1014F000C8BF0E19F1EE10FAC8BFF0EE610A04F190
:101500000104B0EE600A00DD0E190134AC42E2D1F4
:1015100082ED000A1E60BDE8F0077047B0EE670A72
:10152000F6E74E46A6E700BF70B48D087AD0D0ED3E
:10153000007ADFED3E6A90ED017A36EEA70AD0ED33
:10154000020A30EE071A6B1ED0ED031A31EE202A84
:101550001C4603F0010632EE216A00F11003B4B319
:1015600096B1D3ED002A93ED013A76EE223A93ED4F
:10157000024A73EE834A93ED035A74EE845A103391
:10158000013C35EE856A22D0D3ED007A93ED017AE5
:1015900036EE270AD3ED026A70EE070A93ED031ABE
:1015A00070EEA61A93ED042A71EE812A93ED053AA6
:1015B00072EE823A93ED064A73EE834A93ED075A30
:1015C00074EE845A2033023C35EE856ADCD100EBA0
:1015D000051011F003041BD0013CF0EC017A234606
:1015E00036EE276A04F0010493B12CB1B0EC017A15
:1015F000013B36EE076A0BD00446B4EC010AD0ED8D
:10160000016A36EE006A201D023B36EE266AF3D1EF
:1016100000EE901AB8EE601AC6EE011AC2ED001A7A
:1016200070BC70479FED016AD3E700BF0000000067
:101630002DE9F00701F1FF3884465FEA9809FCECD8
:10164000017A00F03081DCED006AF4EEE76AF1EE39
:1016500010FA9CED017A48BFF0EE667AF4EEC77A94
:1016600054BF002601269CED020AF1EE10FAC8BF15
:10167000F0EE477AF4EEC07AC8BF0226DCED030A2A
:10168000F1EE10FAC8BFF0EE407A09F1FF34F4EE43
:10169000E07AC8BF03262746F1EE10FA04F0010AEB
:1016A000C8BFF0EE607AC8BF042600F11405082414
:1016B000002F00F09F80BAF1000F30D095ED001A96
:1016C000B4EEE71AF1EE10FAD5ED011A48BFF0EECC
:1016D000417AF4EEE17A95ED022A48BF0526F1EE53
:1016E00010FAC8BFF0EE617AF4EEC27AD5ED032AA3
:1016F000C8BF0626F1EE10FAC8BFF0EE427AF4EE4B
:10170000E27AC8BF0726F1EE10FAC8BFF0EE627A9F
:10171000C8BF08260C24013F00F124056AD095EDCE
:10172000003AB4EEE73AF1EE10FAD5ED013A48BFCF
:10173000F0EE437AA4F10300F4EEE37A48BF0646E4
:1017400095ED024AF1EE10FAC8BFF0EE637AA4F10B
:101750000200F4EEC47AD5ED034AC8BF0646F1EEA6
:1017600010FAC8BFF0EE447A04F1FF30F4EEE47AE8
:1017700095ED045AC8BF0646F1EE10FAC8BFF0EE68
:10178000647AB4EEE75AC8BF2646D5ED055AF1EEA5
:1017900010FA48BFF0EE457A04F10100F4EEE57A64
:1017A00048BF064695ED066AF1EE10FAC8BFF0EEA6
:1017B000657A04F10200F4EEC67AC8BF0646D5ED9C
:1017C000076AF1EE10FAC8BFF0EE467A04F10300A2
:1017D000F4EEE67A04F10404C8BF0646F1EE10FA0E
:1017E000C8BFF0EE667AC8BF26460434023F05F152
:1017F000200594D10CEB091C18F0030550D060466D
:10180000B0EC017AB4EEE77AF1EE10FAC5EB010123
:1018100048BFF0EE477A4CBF0F463746012405F12A
:10182000FF3CAC420CEA040CB0EE670A3E46F0EE18
:10183000670A2FD0BCF1000F0FD0B0EC010AB4EE54
:10184000E70AF1EE10FA58BFB0EE670AF0EE400A70
:101850001CD40134AC423E461CD0B0EC011AB4EEAC
:10186000E01AF1EE10FAF0EC011A48BFF0EE410A6E
:10187000F4EEE01A48BF0E19F1EE10FA48BFF0EE90
:10188000610A04F10104B0EE600A00D50E190134BA
:10189000AC42E2D182ED000A1E60BDE8F00770475D
:1018A000B0EE670AF6E74E46A6E700BF70B58D08B2
:1018B00082B000F0BE809FED676AD0ED006AF0EE66
:1018C000467A46EEA67A90ED017A36EE260A47EE83
:1018D000077AD0ED020A30EE071A40EEA07A6B1EAE
:1018E000D0ED031A31EE202A1C4603F0010632EE39
:1018F000217A00F1100341EEA17A002C4ED0D6B12E
:10190000D3ED002A42EEA27A93ED013A77EE223A25
:1019100043EE037A93ED024A73EE834A44EE047A6F
:1019200093ED035A74EE845A1033013C35EE857AF8
:1019300045EE057A32D093ED000A40EE007A93ED41
:10194000016A46EE067AD3ED026A46EEA67AD3ED38
:10195000030A37EE001A40EEA07A71EE061A93EDF4
:10196000042A71EEA62A42EE027A93ED053A72EE4F
:10197000A03A43EE037A33EE824AD3ED064A34EEC0
:10198000035A44EEA47AD3ED075A35EE247A203375
:10199000023C37EE257A45EEA57ACCD100EB051056
:1019A00011F0030423D0013CB0EC010A234637EECA
:1019B000007A04F0010440EE007AC3B13CB1B0EC0F
:1019C000016A013B37EE067A46EE067A0FD00446EE
:1019D000F4EC010A40EEA07AD0ED016A37EE201A4D
:1019E000201D023B31EE267A46EEA67AEFD101EEBB
:1019F000901AB8EE612AF7EE002A32EE623AC7EE8C
:101A0000023A82EE034AC7EE834A23EEA35A45EE1A
:101A1000444AF5EEC04AF1EE10FA0FDDF1EEE45A59
:101A2000F4EE655AF1EE10FA0BD1C2ED005A02B095
:101A300070BDDFED087AB0EE677AB1E70020106084
:101A4000F5E714EE900A019200F0F6F9019A05EE1E
:101A5000900AEAE70000000070B48D0800F0B28040
:101A60009FED5B6AD0ED006AF0EE467A46EEA67A0C
:101A700090ED017A36EE260A47EE077AD0ED020A9B
:101A800030EE071A40EEA07A6B1ED0ED031A31EE4D
:101A9000202A1C4603F0010632EE217A00F11003E1
:101AA00041EEA17A002C4ED0D6B1D3ED002A42EE01
:101AB000A27A93ED013A77EE223A43EE037A93ED60
:101AC000024A73EE834A44EE047A93ED035A74EEAD
:101AD000845A1033013C35EE857A45EE057A32D0D2
:101AE00093ED000A40EE007A93ED016A46EE067A25
:101AF000D3ED026A46EEA67AD3ED030A37EE001A5A
:101B000040EEA07A71EE061A93ED042A71EEA62A31
:101B100042EE027A93ED053A72EEA03A43EE037A72
:101B200033EE824AD3ED064A34EE035A44EEA47AE9
:101B3000D3ED075A35EE247A2033023C37EE257A6E
:101B400045EEA57ACCD100EB051011F0030423D0AB
:101B5000013CB0EC010A234637EE007A04F00104A0
:101B600040EE007AC3B13CB1B0EC016A013B37EE04
:101B7000067A46EE067A0FD00446F4EC010A40EEEF
:101B8000A07AD0ED016A37EE201A201D023B31EE1B
:101B9000267A46EEA67AEFD101EE901AB8EE612AC7
:101BA000F7EE002A32EE623AC7EE023A82EE034ABC
:101BB000C7EE834A23EEA35A45EE444AC2ED004ADB
:101BC00070BC7047DFED027AB0EE677ABDE700BF08
:101BD000000000002DE9F00F536844880F88D0F80A
:101BE00004908CB0A742099303884888049040F081
:101BF0001F8114889C4240F01B815288824240F031
:101C00001781BD08496801956E1EB2B28500039127
:101C1000C00007F003011301BF0000EB450602916D
:101C200004990A9702FB0662002710339FED816A30
:101C30004FEA011A0692079408970B930B9A099B97
:101C4000089909EB02070597039F03EB81084FF002
:101C5000000C019B002B00F0E780D7ED007A99ED96
:101C6000007AF0EE466A47EE276A7A19D2ED000A4A
:101C700099ED010AF0EE667A391840EE207AD1ED3E
:101C8000001A99ED021A1C4641EE217A131804F14C
:101C9000FF3BD3ED002A99ED032A1FFA8BF407EBE3
:101CA0000A010BF0010B42EE227A09F1100392199E
:101CB000002C66D0BBF1000F22D093ED003AD1ED9D
:101CC000003A43EE237A93ED014AD2ED004A01EB4C
:101CD000000B44EE247A93ED025ADBED005A02EB3E
:101CE000000B45EE257AD3ED036A9BED007A013CAB
:101CF000A4B2514446EE877A10339219002C40D09A
:101D000093ED000AD1ED000A40EE207A93ED011A1E
:101D1000D2ED001A01EB000B41EE217A93ED022A7D
:101D2000DBED002A02EB000B42EE227A93ED033A40
:101D3000DBED003A514443EE237A93ED044AD1EDB2
:101D4000004A921944EE247A93ED055AD2ED005AD6
:101D500001EB000B45EE257AD3ED066A9BED007A88
:101D600002EB000B46EE877A93ED070ADBED000AE3
:101D7000023CA4B2514440EE207A20339219002C48
:101D8000BED1069BFF18059B029951B30139D7EDCF
:101D9000001AB3EC011A8AB241EE217A01F0010176
:101DA0007F19F2B149B197ED002AF3EC012A013A0B
:101DB00092B242EE827A7F199AB11946B1EC013A99
:101DC000D7ED003A7F1943EE237A93ED014AD7ED20
:101DD000004A931E9AB244EE247A0B1D7F19002A02
:101DE000EBD10CF1010C0499039A1FFA8CFC8C4581
:101DF000E8EC017A02EB8C077FF42BAF079B089A83
:101E0000591E8BB2079394440A99079A1FFA8CFCC7
:101E1000CDF820C08944002A7FF410AF104640B2AC
:101E20000CB0BDE8F00F7047DFED027A4B46ABE730
:101E3000FD20F4E70000000070B5244C8AB0054690
:101E400000F048F894F900300133064608D02846DF
:101E500000F0ACF820B12846002100F099FF10B93D
:101E600030460AB070BD1A4A01212846002600916A
:101E70000192089600F02AFA2478CDE90401CDE910
:101E800002017CB900220023CDE90623684600F058
:101E90008BF888B10898A0B9DDE9060100F07CFC58
:101EA0000646DDE70020002102460B4600F08CFBD1
:101EB000022CCDE90601E9D100F092FF2123036055
:101EC000E8E700F08DFF08990160E5E77C09002054
:101ED0001C32000820F00042B2F1FF4FF8B5044672
:101EE000034646D2002A42D0002852DBC415B2F580
:101EF000000F09D210F4000553D15B00013519021F
:101F0000FBD5C5F10100241823F07F417F3C21F46B
:101F10000006E20746F4000048BF400043004FF0CF
:101F20008072002760109A423C462CDD5B004FF423
:101F300000021825A61851089E4205F1FF3502DC63
:101F4000B4189B1BBF185B0062189A4202DC9B1AF4
:101F500054187F185B004A08013DEBD113B107F01C
:101F600001017F187C1004F17C5303EBC054204620
:101F7000F8BD014600F06EFD0146204600F062FC0F
:101F800004462046F8BD4FF0007403F17F43174626
:101F9000CCE7014600F054FC014600F00FFE044679
:101FA000E5E70120AFE700BF0020704708B9022035
:101FB0007047B0F1004FFAD0A0F500026FF0014376
:101FC0009A4201D80420704700F1FF419942F9D9A3
:101FD0004FF6FE73421EC0F27F039A4201D80320DF
:101FE000704700F100414A1E9A42F8D9B0F1FF4F04
:101FF00005D010F5000F14BF00200120704701200C
:10200000704700BF81F0004102E000BF83F0004351
:1020100030B54FEA41044FEA430594EA050F08BF83
:1020200090EA020F1FBF54EA000C55EA020C7FEA47
:10203000645C7FEA655C00F0E2804FEA5454D4EBC4
:102040005555B8BF6D420CDD2C4480EA020281EA8E
:10205000030382EA000083EA010180EA020281EAC6
:102060000303362D88BF30BD11F0004F4FEA013118
:102070004FF4801C4CEA113102D0404261EB410127
:1020800013F0004F4FEA03334CEA133302D05242AD
:1020900063EB430394EA050F00F0A780A4F1010469
:1020A000D5F1200E0DDB02FA0EFC22FA05F28018A3
:1020B00041F1000103FA0EF2801843FA05F3594189
:1020C0000EE0A5F120050EF1200E012A03FA0EFC08
:1020D00028BF4CF0020C43FA05F3C01851EBE37132
:1020E00001F0004507D54FF0000EDCF1000C7EEB4F
:1020F00000006EEB0101B1F5801F1BD3B1F5001F8D
:102100000CD349085FEA30004FEA3C0C04F10104AB
:102110004FEA445212F5800F80F09A80BCF1004FD4
:1021200008BF5FEA500C50F1000041EB045141EA56
:10213000050130BD5FEA4C0C404141EB010111F457
:10214000801FA4F10104E9D191F0000F04BF014602
:102150000020B1FA81F308BF2033A3F10B03B3F1E0
:1021600020020CDA0C3208DD02F1140CC2F10C0270
:1021700001FA0CF021FA02F10CE002F11402D8BFCE
:10218000C2F1200C01FA02F120FA0CFCDCBF41EA9A
:102190000C019040E41AA2BF01EB0451294330BD69
:1021A0006FEA04041F3C1CDA0C340EDC04F1140446
:1021B000C4F1200220FA04F001FA02F340EA03001D
:1021C00021FA04F345EA030130BDC4F10C04C4F163
:1021D000200220FA02F001FA04F340EA0300294643
:1021E00030BD21FA04F0294630BD94F0000F83F48D
:1021F000801306BF81F480110134013D4EE77FEA70
:10220000645C18BF7FEA655C29D094EA050F08BFBB
:1022100090EA020F05D054EA000C04BF194610469C
:1022200030BD91EA030F1EBF0021002030BD5FEAE0
:10223000545C05D14000494128BF41F0004130BD08
:1022400014F580043CBF01F5801130BD01F000455C
:1022500045F0FE4141F470014FF0000030BD7FEACF
:10226000645C1ABF194610467FEA655C1CBF0B46CA
:10227000024650EA013406BF52EA033591EA030FE1
:1022800041F4002130BD00BF90F0000F04BF0021D9
:10229000704730B54FF4806404F132044FF000050C
:1022A0004FF0000150E700BF90F0000F04BF002185
:1022B000704730B54FF4806404F1320410F00045EB
:1022C00048BF40424FF000013EE700BF42004FEAE6
:1022D000E2014FEA31014FEA02701FBF12F07F4363
:1022E00093F07F4F81F06051704792F0000F14BF60
:1022F00093F07F4F704730B54FF4607401F00045A4
:1023000021F0004120E700BF50EA010208BF7047FA
:1023100030B54FF000050AE050EA010208BF7047EF
:1023200030B511F0004502D5404261EB41014FF458
:10233000806404F132045FEA915C3FF4DCAE4FF05C
:1023400003025FEADC0C18BF03325FEADC0C18BF43
:10235000033202EBDC02C2F1200300FA03FC20FA94
:1023600002F001FA03FE40EA0E0021FA02F11444E1
:10237000C1E600BF70B54FF0FF0C4CF4E06C1CEAF6
:1023800011541DBF1CEA135594EA0C0F95EA0C0F6B
:1023900000F0DEF82C4481EA030621EA4C5123EADE
:1023A0004C5350EA013518BF52EA033541F480110D
:1023B00043F4801338D0A0FB02CE4FF00005E1FBC0
:1023C00002E506F00042E0FB03E54FF00006E1FB0A
:1023D00003569CF0000F18BF4EF0010EA4F1FF044D
:1023E000B6F5007F64F5407404D25FEA4E0E6D418D
:1023F00046EB060642EAC62141EA55514FEAC5209E
:1024000040EA5E504FEACE2EB4F1FD0C88BFBCF519
:10241000E06F1ED8BEF1004F08BF5FEA500E50F1CA
:10242000000041EB045170BD06F0004646EA010190
:1024300040EA020081EA0301B4EB5C04C2BFD4EBC2
:102440000C0541EA045170BD41F480114FF0000EBB
:10245000013C00F3AB8014F1360FDEBF002001F029
:10246000004170BDC4F10004203C35DA0C341BDCA3
:1024700004F11404C4F1200500FA05F320FA04F075
:1024800001FA05F240EA020001F0004221F00041A9
:1024900010EBD37021FA04F642EB06015EEA430E1C
:1024A00008BF20EAD37070BDC4F10C04C4F120054C
:1024B00000FA04F320FA05F001FA04F240EA0200FF
:1024C00001F0004110EBD37041F100015EEA430ED0
:1024D00008BF20EAD37070BDC4F1200500FA05F2F0
:1024E0004EEA020E20FA04F301FA05F243EA02036F
:1024F00021FA04F001F0004121FA04F220EA02007E
:1025000000EBD3705EEA430E08BF20EAD37070BDC3
:1025100094F0000F0FD101F00046400041EB0101A3
:1025200011F4801F08BF013CF7D041EA060195F085
:10253000000F18BF704703F00046520043EB03033F
:1025400013F4801F08BF013DF7D043EA060370472C
:1025500094EA0C0F0CEA135518BF95EA0C0F0CD037
:1025600050EA410618BF52EA4306D1D181EA03017D
:1025700001F000414FF0000070BD50EA410606BF77
:102580001046194652EA430619D094EA0C0F02D1BC
:1025900050EA013613D195EA0C0F05D152EA033601
:1025A0001CBF104619460AD181EA030101F000411F
:1025B00041F0FE4141F470014FF0000070BD41F068
:1025C000FE4141F4780170BD70B54FF0FF0C4CF442
:1025D000E06C1CEA11541DBF1CEA135594EA0C0F61
:1025E00095EA0C0F00F0A7F8A4EB050481EA030EAE
:1025F00052EA03354FEA013100F088804FEA033395
:102600004FF0805545EA131343EA12634FEA022262
:1026100045EA111545EA10654FEA00260EF0004123
:102620009D4208BF964244F1FD0404F5407402D275
:102630005B084FEA3202B61A65EB03055B084FEA06
:1026400032024FF480104FF4002CB6EB020E75EB03
:10265000030E22BFB61A754640EA0C005B084FEA2B
:102660003202B6EB020E75EB030E22BFB61A7546A8
:1026700040EA5C005B084FEA3202B6EB020E75EBF3
:10268000030E22BFB61A754640EA9C005B084FEA6B
:102690003202B6EB020E75EB030E22BFB61A754678
:1026A00040EADC0055EA060E18D04FEA051545EA67
:1026B00016754FEA06164FEAC30343EA52734FEA10
:1026C000C2025FEA1C1CC0D111F4801F0BD141EA89
:1026D00000014FF000004FF0004CB6E711F4801FEE
:1026E00004BF01430020B4F1FD0C88BFBCF5E06FCE
:1026F0003FF6AFAEB5EB030C04BFB6EB020C5FEADE
:10270000500C50F1000041EB045170BD0EF0004E32
:102710004EEA113114EB5C04C2BFD4EB0C0541EA64
:10272000045170BD41F480114FF0000E013C90E661
:1027300045EA060E8DE60CEA135594EA0C0F08BF25
:1027400095EA0C0F3FF43BAF94EA0C0F0AD150EA24
:1027500001347FF434AF95EA0C0F7FF425AF1046B7
:1027600019462CE795EA0C0F06D152EA03353FF4DF
:10277000FDAE1046194622E750EA410618BF52EA5C
:1027800043067FF4C5AE50EA41047FF40DAF52EA30
:1027900043057FF4EBAE12E74FEA4102B2F1E043AA
:1027A00024BFB3F5001CDCF1FE5C0DD901F0004C38
:1027B0004FEAC0024CEA5070B2F1004F40EB830088
:1027C00008BF20F00100704711F0804F21D113F1B4
:1027D0003872BCBF01F00040704741F480114FEAED
:1027E0005252C2F11802C2F1200C10FA0CF320FA76
:1027F00002F018BF40F001004FEAC1234FEAD32393
:1028000003FA0CFC40EA0C0023FA02F34FEA4303FC
:10281000CCE77FEA625307D150EA01331EBF4FF085
:10282000FE4040F44000704701F0004040F0FE40A0
:1028300040F40000704700BF80F0004002E000BF9D
:1028400081F0004142001FBF5FEA410392EA030F9B
:102850007FEA226C7FEA236C6AD04FEA1262D2EBE5
:102860001363C1BFD218414048404140B8BF5B42EA
:10287000192B88BF704710F0004F40F4000020F083
:102880007F4018BF404211F0004F41F4000121F099
:102890007F4118BF494292EA030F3FD0A2F10102E3
:1028A00041FA03FC10EB0C00C3F1200301FA03F121
:1028B00000F0004302D5494260EB4000B0F5000F44
:1028C00013D3B0F1807F06D340084FEA310102F103
:1028D0000102FE2A51D2B1F1004F40EBC25008BFB5
:1028E00020F0010040EA03007047490040EB00007F
:1028F00010F4000FA2F10102EDD1B0FA80FCACF1AE
:10290000080CB2EB0C0200FA0CF0AABF00EBC250AC
:1029100052421843BCBFD0401843704792F0000F9A
:1029200081F4000106BF80F400000132013BB5E7ED
:102930004FEA41037FEA226C18BF7FEA236C21D063
:1029400092EA030F04D092F0000F08BF08467047C8
:1029500090EA010F1CBF0020704712F07F4F04D196
:10296000400028BF40F00040704712F100723CBFA9
:1029700000F50000704700F0004343F0FE4040F4D3
:10298000000070477FEA226216BF08467FEA236391
:102990000146420206BF5FEA412390EA010F40F47C
:1029A000800070474FF0000304E000BF10F00043C8
:1029B00048BF40425FEA000C08BF704743F09643AF
:1029C00001464FF000001CE050EA010208BF7047CA
:1029D0004FF000030AE000BF50EA010208BF704751
:1029E00011F0004302D5404261EB41015FEA010C66
:1029F00002BF84460146002043F0B64308BFA3F15E
:102A00008053A3F50003BCFA8CF2083AA3EBC2533F
:102A100010DB01FA02FC634400FA02FCC2F120025E
:102A2000BCF1004F20FA02F243EB020008BF20F095
:102A30000100704702F1200201FA02FCC2F12002FB
:102A400050EA4C0021FA02F243EB020008BF20EAF0
:102A5000DC7070474FF0FF0C1CEAD0521EBF1CEA1E
:102A6000D15392EA0C0F93EA0C0F6FD01A4480EA0C
:102A7000010C400218BF5FEA41211ED04FF00063F5
:102A800043EA501043EA5111A0FB01310CF0004021
:102A9000B1F5000F3EBF490041EAD3715B0040EA47
:102AA000010062F17F02FD2A1DD8B3F1004F40EB17
:102AB000C25008BF20F00100704790F0000F0CF0EA
:102AC000004C08BF49024CEA502040EA51207F3AAE
:102AD000C2BFD2F1FF0340EAC250704740F4000089
:102AE0004FF00003013A5DDC12F1190FDCBF00F07A
:102AF00000407047C2F10002410021FA02F1C2F128
:102B0000200200FA02FC5FEA310040F1000053EAC3
:102B10004C0308BF20EADC70704792F0000F00F011
:102B2000004C02BF400010F4000F013AF9D040EA17
:102B30000C0093F0000F01F0004C02BF490011F4AB
:102B4000000F013BF9D041EA0C018FE70CEAD153A9
:102B500092EA0C0F18BF93EA0C0F0AD030F0004C29
:102B600018BF31F0004CD8D180EA010000F00040DD
:102B7000704790F0000F17BF90F0004F084691F09B
:102B8000000F91F0004F14D092EA0C0F01D14202D5
:102B90000FD193EA0C0F03D14B0218BF084608D19E
:102BA00080EA010000F0004040F0FE4040F40000E8
:102BB000704740F0FE4040F4400070474FF0FF0C7B
:102BC0001CEAD0521EBF1CEAD15392EA0C0F93EAC2
:102BD0000C0F69D0A2EB030280EA010C49024FEA14
:102BE000402037D04FF0805343EA111143EA1013CD
:102BF0000CF000408B4238BF5B0042F17D024FF485
:102C0000000C8B4224BF5B1A40EA0C00B3EB510F5F
:102C100024BFA3EB510340EA5C00B3EB910F24BF48
:102C2000A3EB910340EA9C00B3EBD10F24BFA3EBCD
:102C3000D10340EADC001B0118BF5FEA1C1CE0D195
:102C4000FD2A3FF650AF8B4240EBC25008BF20F048
:102C5000010070470CF0004C4CEA50207F32C2BF9C
:102C6000D2F1FF0340EAC250704740F400004FF039
:102C70000003013A37E792F0000F00F0004C02BF6A
:102C8000400010F4000F013AF9D040EA0C0093F034
:102C9000000F01F0004C02BF490011F4000F013B8E
:102CA000F9D041EA0C0195E70CEAD15392EA0C0FF6
:102CB00008D142027FF47DAF93EA0C0F7FF470AF2E
:102CC000084676E793EA0C0F04D14B023FF44CAF71
:102CD00008466EE730F0004C18BF31F0004CCAD106
:102CE00030F000427FF45CAF31F000437FF43CAF42
:102CF0005FE700BF4FF0FF3C06E000BF4FF0010C64
:102D000002E000BF4FF0010C4DF804CD4FEA400245
:102D10004FEA41037FEA226C18BF7FEA236C11D08F
:102D200001B052EA530C18BF90EA010F58BFB2EB42
:102D3000030088BFC81738BF6FEAE17018BF40F0C2
:102D4000010070477FEA226C02D15FEA402C05D176
:102D50007FEA236CE4D15FEA412CE1D05DF8040BFB
:102D6000704700BF844608466146FFE70FB5FFF78E
:102D7000C9FF002848BF10F1000F0FBD4DF808ED46
:102D8000FFF7F4FF0CBF012000205DF808FB00BF37
:102D90004DF808EDFFF7EAFF34BF012000205DF891
:102DA00008FB00BF4DF808EDFFF7E0FF94BF0120DE
:102DB00000205DF808FB00BF4DF808EDFFF7D2FFDB
:102DC00094BF012000205DF808FB00BF4DF808ED1E
:102DD000FFF7C8FF34BF012000205DF808FB00BFEB
:102DE00040F6A853C2F2000318687047F8B5204FA8
:102DF000204C381B871017D07A1E2368012502F05B
:102E000001069847AF420FD02EB154F8041F022597
:102E10008847AF4208D0606880470235A268261D07
:102E200090470834AF42F6D1134F144C00F028F904
:102E30003B1B9F1018D07D1E216805F0010601255F
:102E40008847AF4211D02EB154F8040F02258047B5
:102E5000AF420BD0626890470235A368261D9847A1
:102E60000834AF42F6D1F8BDF8BDF8BDF8BD00BFDB
:102E7000A4300008A4300008A4300008A4300008E2
:102E800080B485B000AFF860B9607A604FF0FF336E
:102E9000184607F11407BD4680BC704780B485B062
:102EA00000AFF860B9607A604FF0FF33184607F161
:102EB0001407BD4680BC704780B485B000AFF86091
:102EC000B9607A604FF00003184607F11407BD4659
:102ED00080BC704780B485B000AFF860B9607A609C
:102EE0004FF0FF33184607F11407BD4680BC70470A
:102EF00080B400AF4FF0FF331846BD4680BC70472A
:102F000080B483B000AF786039603B68002B02D09A
:102F10004FF0FF3301E06FF00103184607F10C0793
:102F2000BD4680BC704700BF80B483B000AF7860FE
:102F300039607A683B689A4202D14FF0FF3301E072
:102F40006FF00103184607F10C07BD4680BC7047BF
:102F500080B483B000AF78604FF0FF33184607F1BC
:102F60000C07BD4680BC704780B487B000AF786066
:102F70004FF25023C0F200037B6140F64413C2F2CB
:102F800000031B68002B14D140F64413C2F2000367
:102F900040F6B052C2F200021A6040F64413C2F288
:102FA00000031A687B69D21840F64813C2F2000386
:102FB0001A6040F64413C2F200031B683B6140F6FE
:102FC0004413C2F200031B681A467B68D31803F14E
:102FD000070323F00703FB6040F64813C2F2000327
:102FE0001B68FA689A4202D34FF0000306E040F6ED
:102FF0004413C2F20003FA681A603B69184607F1ED
:103000001C07BD4680BC704780B483B000AF7860B9
:103010004FF0FF33184607F10C07BD4680BC7047E0
:1030200080B483B000AF78604FF0FF33184607F1EB
:103030000C07BD4680BC704780B483B000AF786099
:1030400039604FF0FF33184607F10C07BD4680BCCE
:10305000704700BF80B400AF4FF0FF331846BD4645
:1030600080BC704780B400AF4FF0FF331846BD46B8
:1030700080BC704780B483B000AF7860FEE700BFCB
:1030800080B400AFBD4680BC704700BF80B483B041
:1030900000AF78604FF0FF33184607F10C07BD46CC
:0430A00080BC704739
:1030A4005CD1FF7F0100000070D1FF7F01000000B0
:1030B40000002842000014420000A2420000E04147
:1030C4000000A64200009042000010420000184296
:1030D4000000004200004C4200007C42000080429C
:1030E4000000C2420000A4420000BE420000B442FC
:1030F4000000844200004C42000058420000284274
:103104000000864200006042000034420000644235
:103114000000864200008A4200000C420000504237
:103124000000E8410000A2420000684200003C4266
:1031340000001842000098420000C8420000E84124
:103144000000044200003C420000E8410000484204
:10315400000008420000244200007442000038428B
:10316400000050420000484200004042000010426B
:1031740000003C4200005C4200003042000020425B
:103184000000C8420000BC420000A84200001442F3
:103194000000004200008E4200003C4200009A42BF
:1031A4000000F841000048420000444200000C4284
:1031B40000007C4200008642000020420000F841EA
:1031C4000000E841000088420000744200001842F8
:1031D4000000F8410000E0410000E0410000984296
:1031E40000005C42000004420000E84100001C4270
:1031F4000000803F0000803F0000803F0000803FCF
:1032040014000400B430000804000100F431000884
:10321400140001000008002073717274660000003D
:083224004300000080090020B6
:103230001400000004000000000E27070100000039
:10324000000000006C0C0020D40C00203C0D00207D
:10325000000000000000000000000000000000006E
:10326000000000000000000000000000000000005E
:1032700000000000243200080000000000000000F0
:10328000000000000000000000000000000000003E
:10329000000000000000000000000000000000002E
:1032A000000000000000000000000000000000001E
:1032B000000000000000000000000000000000000E
:1032C00000000000000000000000000000000000FE
:1032D00000000000000000000000000000000000EE
:1032E00000000000000000000100000000000000DD
:1032F0000E33CDAB34126DE6ECDE05000B000000A2
:1033000000000000000000000000000000000000BD
:1033100000000000000000000000000000000000AD
:10332000000000000000000000000000000000009D
:10333000000000000000000000000000000000008D
:0C366000000000000000000080090020B5
:0400000508000201EC
:00000001FF
