:020000040C00EE
:100000000008002001020008CF030008DF030008F9
:10001000EF030008FF0300080F04000800000000C1
:100020000000000000000000000000001F040008A5
:100030002F040008000000003F0400084F040008DF
:100040005F0400086F0400087F0400088F040008A4
:100050009F040008AF040008BF040008CF04000894
:10006000DF040008000000000000000000000000A5
:10007000EF04000800000000FF0400080F0500085E
:100080001F0500082F0500083F0500084F05000860
:100090005F0500086F0500087F0500088F05000850
:1000A0009F050008AF050008BF050008CF05000840
:1000B000DF050008EF050008FF0500080F0600082F
:1000C0001F0600082F0600083F0600084F0600081C
:1000D0005F0600086F0600087F0600088F0600080C
:1000E0009F060008AF060008BF060008CF060008FC
:1000F000DF060008EF060008FF0600080F070008EB
:100100001F0700082D0700083B07000849070008E3
:1001100057070008650700087307000881070008F3
:100120008F0700089D070008AB070008B907000803
:10013000C7070008D5070008E3070008F107000813
:10014000FF0700080D0800081B0800082908000820
:10015000370800084508000853080008610800082F
:10016000000000000000000000000000000000008F
:100170006F0800087D0800088B080008990800082F
:10018000A7080008B5080008C3080008D10800083F
:10019000DF080008ED080008FB080008090900084E
:1001A000170900082509000833090008410900085B
:1001B0004F0900085D0900086B090008790900086B
:1001C0008709000895090008A3090008B10900087B
:1001D000BF090008CD090008DB0900080000000085
:1001E000E9090008F7090008050A0008130A0008D1
:1001F000210A0008000000002F0A0008000000008B
:10020000DFF80CD0034880470348804700F006B869
:1002100000080020F90B0008C50200081E481F490D
:100220001F4A002A00F01280042A80F002804FF05A
:1002300004024FEA920203680B60013A00F0068064
:1002400000F1040001F10401FFF7F5BF154816495C
:10025000002900F01180042980F002804FF0040191
:100260004FEA91014FF000020260013900F0048072
:1002700000F10400FFF7F8BF0C480D4908600D4875
:1002800080470D488047DFF834D04FF000004FF032
:100290000001DFF82CF00000C035000C000E00203B
:1002A0003C0E0000000800200006000000000008CE
:1002B00008ED00E0950C0008393100080008002026
:1002C000C902000800BF704780B58AB002AF40F68F
:1002D0000063C2F200037B6140F60003C2F2000338
:1002E0003B6141F60003C2F200031A6807F1040300
:1002F000009218464FF01D0143F22C52C0F6000246
:1003000040F60053C2F2000301F0F6FE4FF0000386
:10031000FB6124E041F60003C2F200031B68FA69A6
:1003200002FB03F34FEA83037A69D11841F6000315
:10033000C2F200031B68FA6902FB03F34FEA83036E
:100340003A69D21841F60003C2F200031B6807F1B4
:10035000040001F047FCFB6903F10103FB6141F676
:100360000403C2F200031B68FA699A42D2D341F235
:100370000030C2F2000040F60001C2F200014FF46A
:10038000A07200F091FF024640F6FC53C2F2000357
:100390001A6040F6FC53C2F2000393ED007ADFEDE1
:1003A0000A7AB4EEE77AF1EE10FA03D54FF0FA03C9
:1003B000FB7602E04FF00003FB7697F91B30002B31
:1003C00000D0FEE7FEE700BF00000C43FEE7DFF8C9
:1003D000700600B581B0804701B000BDFEE7DFF8D0
:1003E000640600B581B0804701B000BDFEE7DFF8CC
:1003F000580600B581B0804701B000BDFEE7DFF8C8
:100400004C0600B581B0804701B000BDFEE7DFF8C3
:10041000400600B581B0804701B000BDFEE7DFF8BF
:10042000340600B581B0804701B000BDFEE7DFF8BB
:10043000280600B581B0804701B000BDFEE7DFF8B7
:100440001C0600B581B0804701B000BDFEE7DFF8B3
:10045000100600B581B0804701B000BDFEE7DFF8AF
:10046000040600B581B0804701B000BDFEE7DFF8AB
:10047000F80500B581B0804701B000BDFEE7DFF8A8
:10048000EC0500B581B0804701B000BDFEE7DFF8A4
:10049000E00500B581B0804701B000BDFEE7DFF8A0
:1004A000D40500B581B0804701B000BDFEE7DFF89C
:1004B000C80500B581B0804701B000BDFEE7DFF898
:1004C000BC0500B581B0804701B000BDFEE7DFF894
:1004D000B00500B581B0804701B000BDFEE7DFF890
:1004E000A40500B581B0804701B000BDFEE7DFF88C
:1004F000980500B581B0804701B000BDFEE7DFF888
:100500008C0500B581B0804701B000BDFEE7DFF883
:10051000800500B581B0804701B000BDFEE7DFF87F
:10052000740500B581B0804701B000BDFEE7DFF87B
:10053000680500B581B0804701B000BDFEE7DFF877
:100540005C0500B581B0804701B000BDFEE7DFF873
:10055000500500B581B0804701B000BDFEE7DFF86F
:10056000440500B581B0804701B000BDFEE7DFF86B
:10057000380500B581B0804701B000BDFEE7DFF867
:100580002C0500B581B0804701B000BDFEE7DFF863
:10059000200500B581B0804701B000BDFEE7DFF85F
:1005A000140500B581B0804701B000BDFEE7DFF85B
:1005B000080500B581B0804701B000BDFEE7DFF857
:1005C000FC0400B581B0804701B000BDFEE7DFF854
:1005D000F00400B581B0804701B000BDFEE7DFF850
:1005E000E40400B581B0804701B000BDFEE7DFF84C
:1005F000D80400B581B0804701B000BDFEE7DFF848
:10060000CC0400B581B0804701B000BDFEE7DFF843
:10061000C00400B581B0804701B000BDFEE7DFF83F
:10062000B40400B581B0804701B000BDFEE7DFF83B
:10063000A80400B581B0804701B000BDFEE7DFF837
:100640009C0400B581B0804701B000BDFEE7DFF833
:10065000900400B581B0804701B000BDFEE7DFF82F
:10066000840400B581B0804701B000BDFEE7DFF82B
:10067000780400B581B0804701B000BDFEE7DFF827
:100680006C0400B581B0804701B000BDFEE7DFF823
:10069000600400B581B0804701B000BDFEE7DFF81F
:1006A000540400B581B0804701B000BDFEE7DFF81B
:1006B000480400B581B0804701B000BDFEE7DFF817
:1006C0003C0400B581B0804701B000BDFEE7DFF813
:1006D000300400B581B0804701B000BDFEE7DFF80F
:1006E000240400B581B0804701B000BDFEE7DFF80B
:1006F000180400B581B0804701B000BDFEE7DFF807
:100700000C0400B581B0804701B000BDFEE7DFF802
:10071000000400B581B0804701B000BDFEE7FD4890
:1007200000B581B0804701B000BDFEE7FA4800B5D2
:1007300081B0804701B000BDFEE7F84800B581B048
:10074000804701B000BDFEE7F54800B581B08047A5
:1007500001B000BDFEE7F34800B581B0804701B0AD
:1007600000BDFEE7F04800B581B0804701B000BD94
:10077000FEE7EE4800B581B0804701B000BDFEE75E
:10078000EB4800B581B0804701B000BDFEE7E94805
:1007900000B581B0804701B000BDFEE7E64800B576
:1007A00081B0804701B000BDFEE7E44800B581B0EC
:1007B000804701B000BDFEE7E14800B581B0804749
:1007C00001B000BDFEE7DF4800B581B0804701B051
:1007D00000BDFEE7DC4800B581B0804701B000BD38
:1007E000FEE7DA4800B581B0804701B000BDFEE702
:1007F000D74800B581B0804701B000BDFEE7D548BD
:1008000000B581B0804701B000BDFEE7D24800B519
:1008100081B0804701B000BDFEE7D04800B581B08F
:10082000804701B000BDFEE7CD4800B581B08047EC
:1008300001B000BDFEE7CB4800B581B0804701B0F4
:1008400000BDFEE7C84800B581B0804701B000BDDB
:10085000FEE7C64800B581B0804701B000BDFEE7A5
:10086000C34800B581B0804701B000BDFEE7C14874
:1008700000B581B0804701B000BDFEE7BE4800B5BD
:1008800081B0804701B000BDFEE7BC4800B581B033
:10089000804701B000BDFEE7B94800B581B0804790
:1008A00001B000BDFEE7B74800B581B0804701B098
:1008B00000BDFEE7B44800B581B0804701B000BD7F
:1008C000FEE7B24800B581B0804701B000BDFEE749
:1008D000AF4800B581B0804701B000BDFEE7AD482C
:1008E00000B581B0804701B000BDFEE7AA4800B561
:1008F00081B0804701B000BDFEE7A84800B581B0D7
:10090000804701B000BDFEE7A54800B581B0804733
:1009100001B000BDFEE7A34800B581B0804701B03B
:1009200000BDFEE7A04800B581B0804701B000BD22
:10093000FEE79E4800B581B0804701B000BDFEE7EC
:100940009B4800B581B0804701B000BDFEE79948E3
:1009500000B581B0804701B000BDFEE7964800B504
:1009600081B0804701B000BDFEE7944800B581B07A
:10097000804701B000BDFEE7914800B581B08047D7
:1009800001B000BDFEE78F4800B581B0804701B0DF
:1009900000BDFEE78C4800B581B0804701B000BDC6
:1009A000FEE78A4800B581B0804701B000BDFEE790
:1009B000874800B581B0804701B000BDFEE785489B
:1009C00000B581B0804701B000BDFEE7824800B5A8
:1009D00081B0804701B000BDFEE7804800B581B01E
:1009E000804701B000BDFEE77D4800B581B080477B
:1009F00001B000BDFEE77B4800B581B0804701B083
:100A000000BDFEE7784800B581B0804701B000BD69
:100A1000FEE7764800B581B0804701B000BDFEE733
:100A2000734800B581B0804701B000BDFEE7714852
:100A300000B581B0804701B000BD4FF001007047A4
:100A4000CD030008DD030008ED030008FD030008E6
:100A50000D0400081D0400082D0400083D040008D2
:100A60004D0400085D0400086D0400087D040008C2
:100A70008D0400089D040008AD040008BD040008B2
:100A8000CD040008DD040008ED040008FD040008A2
:100A90000D0500081D0500082D0500083D0500088E
:100AA0004D0500085D0500086D0500087D0500087E
:100AB0008D0500089D050008AD050008BD0500086E
:100AC000CD050008DD050008ED050008FD0500085E
:100AD0000D0600081D0600082D0600083D0600084A
:100AE0004D0600085D0600086D0600087D0600083A
:100AF0008D0600089D060008AD060008BD0600082A
:100B0000CD060008DD060008ED060008FD06000819
:100B10000D0700081D0700082B070008390700080B
:100B20004707000855070008630700087107000819
:100B30007F0700088D0700089B070008A907000829
:100B4000B7070008C5070008D3070008E107000839
:100B5000EF070008FD0700080B0800081908000847
:100B60002708000835080008430800085108000855
:100B70005F0800086D0800087B0800088908000865
:100B800097080008A5080008B3080008C108000875
:100B9000CF080008DD080008EB080008F908000885
:100BA0000709000815090008230900083109000891
:100BB0003F0900084D0900085B09000869090008A1
:100BC000770900088509000893090008A1090008B1
:100BD000AF090008BD090008CB090008D9090008C1
:100BE000E7090008F5090008030A0008110A0008CF
:100BF0001F0A00082D0A000880B582B000AF4FF42C
:100C00006D43CEF200034FF46D42CEF20002D2F8F3
:100C1000882042F47002C3F888204FF46D43CEF26E
:100C200000034FF46D42CEF20002526922F0080236
:100C30005A614FF40043C5F200034FF40042C5F27D
:100C40000002526822F001025A604FF48053C5F648
:100C5000000303F5805303F114031B687B607B687A
:100C600023F00F037B607B6843F003037B604FF44A
:100C70008053C5F600037A6803F5805303F114032B
:100C80001A6000F0ABF800F005F807F10807BD4660
:100C900080BD00BF80B485B000AF4FF48C43C5F277
:100CA0000003DB68B3F5803F40F0898044F21073A5
:100CB000C5F200031B6803F00403002B00F08880DA
:100CC00044F21073C5F200039B6803F070634FEAAF
:100CD000136303F10103FB6044F21073C5F20003D8
:100CE0009B6803F4FE434FEA132303F10103BB6047
:100CF00044F21073C5F200039B6803F4FE034FEA4D
:100D0000134303F101037B6044F21073C5F2000347
:100D1000DB6803F00103002B28D04FF45853C0F2D6
:100D20006E13FA68B3FBF2F3BA6802FB03F33B609D
:100D30003A687B68B2FBF3F241F60803C2F20003A3
:100D40001A6041F60803C2F200031A684FF48C439C
:100D5000C5F20003DB68DBB203F10103B2FBF3F27F
:100D600041F60803C2F200031A6031E04FF4D85391
:100D7000C0F2B703FA68B3FBF2F3BA6802FB03F3FD
:100D80003B603A687B68B2FBF3F241F60803C2F2BB
:100D900000031A6041F60803C2F200031A684FF418
:100DA0008C43C5F20003DB68DBB203F10103B2FB45
:100DB000F3F241F60803C2F200031A6008E041F6BC
:100DC0000803C2F200034FF45852C0F26E121A60C8
:100DD00007F11407BD4680BC704700BF80B582B0E4
:100DE00000AFFFF72AFE0346002B00F0558244F2C5
:100DF0001073C5F200035A684FF00203C0F20103FA
:100E00001340002B0DD044F21073C5F2000344F2DE
:100E10001072C5F20002526822F4803222F00202FF
:100E20005A604FF48E43C5F200035B6803F0300351
:100E3000002B72D04FF48E43C5F200034FF48E4264
:100E4000C5F20002526822F0F0025A604FF48E435D
:100E5000C5F200034FF48E42C5F20002526842F41C
:100E600000325A6044F21073C5F2000344F210726B
:100E7000C5F20002D26822F00102DA6044F2107377
:100E8000C5F2000344F21072C5F20002526822F467
:100E900000325A604EF21003CEF2000344F6A33241
:100EA000C0F24C025A604EF21003CEF200034FF033
:100EB00000029A604EF21003CEF200034FF00502DA
:100EC0001A6044F21073C5F200031B6803F46073E8
:100ED000B3F5607F08D04EF21003CEF200039A689B
:100EE00040F2F3139A42ECD84EF21003CEF2000314
:100EF0004EF21002CEF20002126822F001021A60D5
:100F000044F21073C5F200031B6803F46073B3F579
:100F1000607F02D04FF00003C0E144F21073C5F2CD
:100F200000031B6803F00403002B40F0B5814FF46D
:100F30008C43C5F20003DB6803F48033002B0BD035
:100F40004FF48C43C5F200034FF48C42C5F200020B
:100F5000D26822F48032DA604FF46053C1F69C43C9
:100F60007B607A6849F68173C1F25E63A3FB02136A
:100F70004FEA535303F1FF333B6044F21073C5F261
:100F8000000344F21072C5F20002526842F00102FE
:100F90005A6044F21073C5F2000344F21072C5F2B5
:100FA0000002526842F010025A6044F21072C5F218
:100FB00000023B684FEA034144F60173C0F200139C
:100FC0000B43936044F21073C5F2000344F21072B5
:100FD000C5F20002526842F040025A6044F21073B7
:100FE000C5F2000344F21072C5F20002526822F00A
:100FF00010025A6044F21073C5F2000344F21072FA
:10100000C5F20002526842F480225A604EF2100388
:10101000CEF2000344F6A332C0F24C025A604EF204
:101020001003CEF200034FF000029A604EF210035C
:10103000CEF200034FF005021A6000BF44F21073B5
:10104000C5F200031B6803F00403002B08D14EF225
:101050001003CEF200039A6840F2F3139A42EDD8DF
:101060004EF21003CEF200034EF21002CEF2000256
:10107000126822F001021A6044F21073C5F20003F4
:101080001B6803F00403002B4ED044F21073C5F22A
:10109000000344F21072C5F20002526822F001020D
:1010A0005A604FF48C43C5F200034FF000021A61FE
:1010B0004FF48C43C5F200034FF000025A614FF425
:1010C0008C43C5F200034FF000021A624FF48C43C8
:1010D000C5F200034FF48C42C5F20002D26842F41C
:1010E0008032DA6044F21073C5F2000344F21072E9
:1010F000C5F20002526822F040025A604EF210031C
:10110000CEF2000340F245525A604EF21003CEF286
:1011100000034FF000029A604EF21003CEF200037B
:101120004FF005021A6002E04FF00003B6E04EF205
:101130001003CEF200039B68632BF8D84EF2100325
:10114000CEF200034EF21002CEF20002126822F03C
:1011500001021A604FF46053C1F69C437B607B68C8
:101160004FEA132245F2C743C0F21E13A3FB02133A
:101170004FEA932303F1FF333B6044F21072C5F250
:1011800000023B684FEA034144F60173C0F20013CA
:101190000B4393604EF21003CEF2000340F61B4265
:1011A0005A604EF21003CEF200034FF000029A6034
:1011B0004EF21003CEF200034FF005021A6000BF9A
:1011C0004EF21003CEF200039B68632BF8D84EF268
:1011D0001003CEF200034EF21002CEF200021268AB
:1011E00022F001021A604FF46053C1F69C437B6009
:1011F0007B684FEAD3124EF22F33C0F2BE03A3FB3B
:1012000002134FEAD32303F1FF333B6044F2107221
:10121000C5F200023B684FEA034144F60173C0F295
:1012200000130B4393604EF21003CEF2000341F221
:1012300023325A604EF21003CEF200034FF0000248
:101240009A604EF21003CEF200034FF005021A60CE
:1012500000BF4EF21003CEF200039B68632BF8D858
:101260004EF21003CEF200034EF21002CEF2000254
:10127000126822F001021A6044F21073C5F20003F2
:1012800044F60172C0F203129A6044F26013C5F290
:1012900000034FF00502DA604FF00103184607F132
:1012A0000807BD4680BD00BF80B58AB000AFF860BA
:1012B000B9607A604FF000037B624FF000033B613E
:1012C0004FF000033B6267E03B6A4FEA8303FA6832
:1012D000D318FB61FB691B68BB61BA694FF000035F
:1012E000C7F6C0739A4202D14FF000038DE03B6A0B
:1012F0004FEA8303BA68D318FB61FB691B68BB61C3
:10130000BA694FF00003C7F6C0739A4202D14FF09A
:1013100000037AE03B6A4FEA8303FA68D31893ED3F
:10132000007A3B6A4FEA8303FA68D318D3ED007A58
:1013300067EE277A97ED097A77EE277AC7ED097A73
:101340003B6A4FEA8303FA68D31893ED007A3B6A4D
:101350004FEA8303BA68D318D3ED007A37EE677A81
:101360003B6A4FEA8303FA68D318D3ED006A3B6AFD
:101370004FEA8303BA68D318D3ED007A76EEE77AA2
:1013800027EE277AD7ED047A77EE277AC7ED047A2D
:101390003B6A03F101033B623A6A7B689A4293D34A
:1013A00007F11003FB61FB691B68BB61BA694FF071
:1013B0000003C7F6C0739A4202D14FF0000324E045
:1013C000D7ED047A97ED097AC7EE277A17EE900ADF
:1013D00001F046FB02460B461046194600F09EFE01
:1013E00002460B46104619464FF000024FF000032C
:1013F000C4F2240301F088FB02460B46104619464E
:1014000001F044FE03467B617B69184607F128071B
:10141000BD4680BD80B487B000AFF860B9607A6027
:101420004FF000037B6114E07B694FEA4303FA68E5
:10143000D3187A694FEA4202F9688A18128811B201
:101440007A6841FA02F292B21A807B6903F10103D1
:101450007B617A69BB689A42E6D307F11C07BD46F7
:1014600080BC704790B587B000AFF860B9607A6013
:101470004FF000037B6160E07B694FEA8303BA6849
:10148000D3187A694FEA8202F9688A1892ED007AD5
:10149000DFED2E7A67EE277AFDEEE77AC3ED007A6C
:1014A0007B694FEA8303BA68D4187B694FEA8303E8
:1014B000BA68D3181B68184601F0C0FA7B694FEA76
:1014C0008303FA68D318D3ED007AF5EEC07AF1EE13
:1014D00010FA06DD4FF000024FF00003C3F6E07390
:1014E00005E04FF000024FF00003CBF6E07301F08F
:1014F00059F902460B461046194601F09FFD034676
:1015000023607B694FEA8303FA68D31893ED007A6E
:10151000F7EE007AB4EE677AF1EE10FA09D17B6942
:101520004FEA8303BA68D2184FF6FF73C0F20F0375
:1015300013607B6903F101037B617A697B689A42DE
:101540009AD307F11C07BD4690BD00BF000080493B
:1015500080B489B000AFF860B9607A604FF00003E2
:101560007B614FF00003BB614FF00003FB611EE0A5
:10157000FB694FEA4303FA68D3181B881AB2FB6968
:101580004FEA4303B968CB181B881BB2D31A3B61DF
:101590003B69002BB8BF5B427B617A69BB699A42A9
:1015A00001D97B69BB61FB6903F10103FB61FA6946
:1015B0007B689A42DCD3BB69184607F12407BD4615
:1015C00080BC704780B489B000AFF860B9607A60C1
:1015D0004FF000037B614FF00003BB614FF000034D
:1015E000FB611CE0FB694FEA8303FA68D3181A68B1
:1015F000FB694FEA8303B968CB181B68D31A3B61B8
:101600003B69002BB8BF5B427B617A69BB699A4238
:1016100001D97B69BB61FB6903F10103FB61FA69D5
:101620007B689A42DED3BB69184607F12407BD46A2
:1016300080BC704780B487B000AFF860B9607A6052
:101640004FF000037B6112E07B694FEA8303FA6885
:10165000D3187A694FEA8202F9688A1811687A68A1
:1016600041FA02F21A607B6903F101037B617A6936
:10167000BB689A42E8D307F11C07BD4680BC70479F
:1016800080B487B000AFF860B9607A604FF00003B3
:101690007B6110E0FA687B69D318F9687A698A1867
:1016A000127851B27A6841FA02F2D2B21A707B69AA
:1016B00003F101037B617A69BB689A42EAD307F1BF
:1016C0001C07BD4680BC704780B485B000AF786011
:1016D0004FF00103FB604FF00003BB607B68012B00
:1016E0000AD14FF000030CE0FB684FEA4303FB60B4
:1016F000BB6803F10103BB60FA687B689A42F3D3CD
:10170000BB68184607F11407BD4680BC704700BF90
:1017100090B52DED028B87B000AFF860B9607A60AC
:101720004FF000037B611BE07B694FEA8303FA689B
:10173000D4187B694FEA8303FA68D31893ED008AC3
:10174000786800F017F8034607EE103AF8EE477A8B
:1017500068EE277AC4ED007A7B6903F101037B61AF
:101760007A69BB689A42DFD307F11C07BD46BDEC1E
:10177000028B90BD80B485B000AF78604FF001035C
:10178000BB604FF00003FB6007E0BB684FEA430318
:10179000BB60FB6803F10103FB60FA687B689A4257
:1017A000F3D3BB68184607F11407BD4680BC7047E9
:1017B00090B587B000AFF860B9607A604FF0000371
:1017C0007B6162E07B694FEA4303BA68D3187A69A8
:1017D0004FEA8202F9688A1892ED007ADFED2F7ADB
:1017E00067EE277AFDEEE77A17EE902A92B21A801A
:1017F0007B694FEA4303BA68D4187B694FEA430315
:10180000BA68D3181B881BB2184601F017F97B6918
:101810004FEA8303FA68D318D3ED007AF5EEC07A65
:10182000F1EE10FA06DD4FF000024FF00003C3F6B0
:10183000E07305E04FF000024FF00003CBF6E073D9
:1018400000F0B0FF02460B461046194601F0F6FBC9
:1018500003469BB223807B694FEA8303FA68D3185F
:1018600093ED007AF0EE007AB4EE677AF1EE10FABA
:1018700007D17B694FEA4303BA68D31847F6FF7272
:101880001A807B6903F101037B617A697B689A4264
:1018900098D307F11C07BD4690BD00BF00008046ED
:1018A00090B587B000AFF860B9607A604FF0000380
:1018B0007B615EE07B694FEA8303BA68D3187A697B
:1018C0004FEA8202F9688A1892ED007ADFED2D7AEC
:1018D00067EE277AFDEEE77AC3ED007A7B694FEA7F
:1018E0008303BA68D4187B694FEA8303BA68D318B4
:1018F0001B68184601F0A2F87B694FEA8303FA6877
:10190000D318D3ED007AF5EEC07AF1EE10FA06DDC9
:101910004FF000024FF00003C3F6E07305E04FF014
:1019200000024FF00003CBF6E07300F03BFF0246ED
:101930000B461046194601F081FB034623607B6984
:101940004FEA8303FA68D31893ED007AF0EE007A39
:10195000B4EE677AF1EE10FA07D17B694FEA8303A0
:10196000BA68D3186FF000421A607B6903F1010373
:101970007B617A697B689A429CD307F11C07BD465C
:1019800090BD00BF0000804E90B587B000AFF860FA
:10199000B9607A604FF000037B615EE07B694FEADB
:1019A0008303BA68D3187A694FEA8202F9688A1801
:1019B00092ED007ADFED2D7A67EE277AFDEEE77A79
:1019C000C3ED007A7B694FEA8303BA68D4187B6958
:1019D0004FEA8303BA68D3181B68184601F02EF843
:1019E0007B694FEA8303FA68D318D3ED007AF5EEEA
:1019F000C07AF1EE10FA06DD4FF000024FF000035E
:101A0000C3F6E07305E04FF000024FF00003CBF6A1
:101A1000E07300F0C7FE02460B461046194601F07F
:101A20000DFB034623607B694FEA8303FA68D318F2
:101A300093ED007AF1EE007AB4EE677AF1EE10FAE7
:101A400007D17B694FEA8303BA68D3186FF000426D
:101A50001A607B6903F101037B617A697B689A42B2
:101A60009CD307F11C07BD4690BD00BF0000004E8F
:101A700090B587B000AFF860B9607A604FF00003AE
:101A80007B615EE07B694FEA8303BA68D3187A69A9
:101A90004FEA8202F9688A1892ED007ADFED2D7A1A
:101AA00067EE277AFDEEE77AC3ED007A7B694FEAAD
:101AB0008303BA68D4187B694FEA8303BA68D318E2
:101AC0001B68184600F0BAFF7B694FEA8303FA6887
:101AD000D318D3ED007AF5EEC07AF1EE10FA06DDF8
:101AE0004FF000024FF00003C3F6E07305E04FF043
:101AF00000024FF00003CBF6E07300F053FE024605
:101B00000B461046194601F099FA034623607B699B
:101B10004FEA8303FA68D31893ED007AF2EE007A65
:101B2000B4EE677AF1EE10FA07D17B694FEA8303CE
:101B3000BA68D3186FF000421A607B6903F10103A1
:101B40007B617A697B689A429CD307F11C07BD468A
:101B500090BD00BF0000804D80B485B000AF7860BC
:101B600039604FF00003FB6032E0FB684FEA83030B
:101B70007A68D31893ED007AF7EE007AB4EEE77A3C
:101B8000F1EE10FA08DDFB684FEA83037A68D31898
:101B90004FF07E521A6017E0FB684FEA83037A68C1
:101BA000D31893ED007AFFEE007AB4EEE77AF1EE07
:101BB00010FA09D5FB684FEA83037A68D3184FF00F
:101BC0000002CBF680721A60FB6803F10103FB6030
:101BD000FA683B689A42C8D307F11407BD4680BC37
:101BE000704700BF2DE9F00F2DED068B8AB04568D8
:101BF0000693038805910493DDF810900699D0F8B8
:101C000008A0029509F1FF38C808CDF80C8005EB53
:101C1000880B079000F06B82049CDDF810C0DDF8A3
:101C20001C90CDF820B0E40863010AEB030700978D
:101C30001C33059F01932E46D8460CF007050992E8
:101C400094463A68C8F800207968C8F80410B86863
:101C5000C8F80800FB68C8F80C303A69C8F81020CA
:101C60007969C8F81410B869C8F81800FB69DFED85
:101C7000E37AC8F81C30203708F1200896ED001AE6
:101C8000D6ED011A96ED022AD6ED032A96ED043A16
:101C9000D6ED053A96ED064A06F11C03F0EE674ACA
:101CA000B0EE675AF0EE675AB0EE676AF0EE676A18
:101CB000B0EE677AB0EE678A002C00F016822146FB
:101CC000504690ED009A93ED000A01EE897A42EEBB
:101CD000096A02EE896A43EE095A03EE895A44EE14
:101CE000094A40EE097AD0ED018A61EE090A93EDC6
:101CF000011A02EE287A42EEA86A03EE286A43EE41
:101D0000A85A04EE285A40EE284A41EE287A90ED6F
:101D1000029A61EEA8AAD3ED021A02EE897A43EE86
:101D2000096A03EE896A44EE095A00EE095A41EE47
:101D3000094A41EE897A90ED03AA62EE099A93ED81
:101D4000032A38EE208A03EE0A7A43EE8A6A04EE0A
:101D50000A6A40EE0A5A01EE0A5A41EE8A4A42EEF7
:101D60000A7AD0ED040A22EE8AAA78EE2A8AD3ED06
:101D7000042A03EEA07A44EE206A78EEA98A00EEE7
:101D8000206A41EE205A01EEA05A42EE204A42EE6D
:101D9000A07A90ED058A63EE209A93ED053A78EEED
:101DA0008A8A04EE087A40EE086A01EE086A41EE7B
:101DB000885A02EE085A42EE884A43EE087AD0ED7D
:101DC000060A23EE888A78EEA98AD3ED063A64EEF5
:101DD000209A00EE207A41EE206A01EEA06A42EEDF
:101DE000205A02EEA05A43EE204A43EEA07A38EE83
:101DF000888AD0ED070A93ED074A38EE298A203009
:101E00002033013900EE208A01EE207A41EEA06AEB
:101E100002EE206A42EEA05A03EE205A43EEA04A98
:101E200044EE207A7FF44DAF019B009AF318002D09
:101E30007BD0B2EC010A681EF3EC010A014601EE08
:101E4000008A00F0010001EE807A42EE006A02EEA4
:101E5000806A43EE005A03EE805A44EE004A40EE98
:101E6000807A002961D018B3B2EC011AB3EC010AF0
:101E7000013901EE818A02EE017A42EE816A03EEB7
:101E8000016A43EE815A04EE015A40EE814AF0EEB7
:101E9000421A40EE017AB0EE622AF0EE432AB0EE2A
:101EA000633AF0EE443AB0EE604AF0EE400A3CD0BD
:101EB00093461846FBEC018AB0EC010A01EEA88AB1
:101EC00002EE287A42EEA86A03EE286A43EEA85A88
:101ED00004EE285A40EEA84A40EE287A92ED011A04
:101EE000D3ED018A031D023902EE018A02EE817AE6
:101EF00043EE016A03EE816A44EE015A00EE815A14
:101F0000F0EE621AB0EE432AF0EE632AB0EE443AE5
:101F1000F0EE603A0BF1040240EE014A48EE817A9D
:101F2000B0EE404AF0EE680AC2D12036B9F101099C
:101F30008CED008A8CED017ACCED026A8CED036A9F
:101F4000CCED045A8CED055ACCED064ACCED077A5F
:101F50000CF1200C7FF475AEDDF81CB00599DDF8AE
:101F60002080099A02984FEA4B13CD1808EB030B17
:101F7000059500EB030CD218069B13F0070846D01A
:101F8000059E049C9FED1D4A371FACF10405464693
:101F900057F8041F4BF8041B5346D5ED011AB3EC58
:101FA000012AF0EE442A41EE822A601E014600F02A
:101FB0000109F0EE620A281D11B3B9F1000F09D032
:101FC000043090ED003ADAED013A0433013943EE82
:101FD000230A15D09946D0ED014AB9EC015A44EED6
:101FE000850AD3ED015A90ED026A0830023946EEB7
:101FF000250A09F10403EDD102E000BF0000000052
:102000000435013EE2EC010AC2D10CEB880C039AC4
:1020100095086ED0DCF80000DDF80890C9F80000E3
:10202000DCF80410C9F80410DCF80820C9F808200E
:102030006B1EDCF80C20184603F001014B46C9F872
:102040000C2010330CF1100218B359B1116819604B
:102050005168596091689960D1681032D960103325
:10206000013816D014681C605168596094689C60EF
:10207000D168D96014691C6154695C6103F1100175
:1020800093698B60D4692032023801F11003CC606F
:10209000E8D1029A2D015319AC44DDF80C9019F0E7
:1020A00003001CD0411EDCF800000A4643F8040B74
:1020B00001F001019AB129B15CF8040F013A43F82B
:1020C000040B0CD0DCF80400194641F8040BDCF8D2
:1020D000080058600B1D023A0CF1080CF2D10AB04E
:1020E000BDEC068BBDE8F00F704752469FE6AC464C
:1020F00042E7029BD1E700BF70B501F180451E4663
:10210000049B0446681EC518A26021803046002149
:10211000AA0001F05BF8666070BD00BF2DE9F041D8
:10212000DFF8D8808AB004460D4600F069F898F9C7
:102130000030013306460F460BD02046294600F0FA
:10214000F3F830B1204629460022002300F058FF62
:1021500020B9304639460AB0BDE8F081254898F8E4
:102160000060019000210891CDE90245CDE90445C8
:102170004EBB4FF6FF734FF06042CCF2EF73CDE9E8
:102180000623204629460022002300F025FF60B1E7
:1021900002239E42009322D0684600F0F9F8F0B185
:1021A000089808BBDDE90667D3E70122022E0092FA
:1021B00010D0684600F0ECF860B10F4800F0EAF883
:1021C000CDE90601ECE700230022CFF6F073CDE95C
:1021D0000623D6E700F0AAFF21270760EDE700F00D
:1021E000A5FF22260660DBE700F0A0FF089901604A
:1021F000D8E700BFA0350008A83500080C1800205B
:10220000B1F5801F2DE9F8430A4606460F460446FD
:102210000D461EDA21F00042024363D000296BDB39
:1022200000230022C4F2503300F06EFC4FF6FF731F
:102230000A46C7F6EF739A420F4606466FF035011D
:102240000EDD3046394632463B4600F0ABFABDE87B
:10225000F8834FF6FF73C7F6EF7300219A42F0DC64
:102260001315A3F2FF3358184FEAD07822F07F42BB
:10227000404422F47009C8F57F7800F0DFFB08F1D4
:10228000030849EA085704460D463046394600F02F
:1022900087F81FA3D3E900238046894620462946B4
:1022A00000F032FC1CA3D3E9002306460F4620466B
:1022B000294600F029FC1AA3D3E9002304460D4661
:1022C0004046494600F020FC02460B46204629467F
:1022D00000F068FA02460B463046394600F062FAD2
:1022E000BDE8F8830021002000220023CCF2503109
:1022F00000F034FDBDE8F88302460B4600F050FACA
:102300000022002300F02AFDBDE8F883AFF300802F
:1023100000609F501344D33F362BF111F3FE593D1B
:102320000EE526157BCBDB3F0B4661B1B1F1004FCB
:1023300009D04FF6FF72A3F58011C7F6DF72914204
:1023400005D8042070470028F3D10220704703F11C
:10235000FF4101F5E0019142F3D94FF6FF72C0F25F
:102360000F02934201D80320704703F100419142CC
:10237000F9D90022C7F6F072934204D013F5801FFA
:1023800001D000207047D0F1010038BF0020704715
:102390000020704700210020C7F6F871704700BF89
:1023A0002DE9F04FB1F5801F87B002460B46044679
:1023B0000D460E4664DA21F00045054300F0008129
:1023C0000029C0F27F8100230022C4F2503300F0C4
:1023D0009BFB02464FF6FF700D46C7F6EF70854235
:1023E0000B466FF0350752DC25F07F4626F4700669
:1023F00006F5152404F6647303F4801484F07F5109
:1024000081F4401040EA0603194600231046C3F643
:10241000F073002200F0C4F94FEA2558B21CA8F26C
:10242000FF3A22F470030AEB070B0022022B0BEB9E
:10243000145882468B4631DC002300F0CDFD002885
:1024400000F0C780B8F1000F00F04381404600F073
:10245000F5FAA1A3D3E9002306460F4600F054FB8A
:102460009FA3D3E9002304460D463046394600F0C9
:102470004BFB02460B462046294600F093F90AE042
:102480004FF6FF70C7F6EF7000278542ACDD1046AF
:10249000194600F087F907B0BDE8F08F4FF0804390
:1024A00000F080F902460B465046594600F056FCB3
:1024B000CDE90201404600F0C1FACDE90401DDE9B1
:1024C000020102460B4600F01FFB02460B46CDE917
:1024D000000100F019FB84A3D3E9002304460D4654
:1024E00000F012FB82A3D3E9002300F05BF922463F
:1024F0002B4600F009FB80A3D3E9002300F052F93A
:1025000022462B4600F000FB7DA3D3E9002300F018
:1025100049F9DDE9002300F0F7FA7BA3D3E90023B2
:10252000CDE900012046294600F0EEFA78A3D3E970
:10253000002300F037F922462B4600F0E5FA76A397
:10254000D3E9002300F02EF922462B4600F0DCFAF6
:10255000A6F5C22702460B46C6F5D726DDE90001DF
:1025600000F020F95136A7F27A473743002F04468E
:102570000D4658DD00230022C3F6E073504659464D
:1025800000F0C2FA52465B4600F0BEFA06460F461D
:10259000B8F1000F63D122462B4600F003F9DDE9C4
:1025A000022300F0B1FA02460B463046394600F0ED
:1025B000F7F802460B465046594600F0F1F86AE734
:1025C0000021002000220023CCF2503100F0C6FB95
:1025D00061E752465B465046594600F095FA50A3D3
:1025E000D3E9002304460D465046594600F08CFAC4
:1025F0000B4600210246C3F6E071002000F0D0F83F
:1026000002460B462046294600F07EFA04460D4657
:10261000B8F1000F40F088805046594622462B46BC
:1026200000F0BEF837E7B8F1000F00F0A1802AA350
:10263000D3E90023DDE9040100F066FA22462B46C7
:1026400006460F465046594600F0AAF8DDE9022337
:1026500000F05AFA04460D46DDE9040172E01EA3BB
:10266000D3E90023DDE9040100F04EFA224680465A
:1026700089462B463046394600F094F8DDE90223BE
:1026800000F042FA16A3D3E9002304460D46DDE923
:10269000040100F039FA02460B462046294600F0B4
:1026A00081F802460B463046394600F079F852462A
:1026B0005B4600F075F802460B464046494600F07E
:1026C0006FF8E8E600F06CF80022002300F046FB0B
:1026D000E1E600200021DEE60000E0FE422EE63FBB
:1026E000763C7935EF39EA3D44523EDF12F1C23F84
:1026F000DE03CB966446C73F599322942449D23FC8
:10270000935555555555E53F9FC678D0099AC33F17
:10271000AF788E1DC571CC3F04FA97999999D93F2E
:10272000555555555555D53F404600F087F916A3E8
:10273000D3E900238046894600F0E6F906460F46B5
:102740004046494612A3D3E9002300F0DDF90246D2
:102750000B462046294600F023F852465B4600F01F
:102760001FF802460B463046394600F019F892E64B
:1027700022462B465046594600F012F8DDE9022366
:1027800000F0C2F915E700BF0000E0FE422EE63F70
:10279000763C7935EF39EA3D81F0004102E000BF37
:1027A00083F0004330B54FEA41044FEA430594EA11
:1027B000050F08BF90EA020F1FBF54EA000C55EA4C
:1027C000020C7FEA645C7FEA655C00F0E2804FEA1D
:1027D0005454D4EB5555B8BF6D420CDD2C4480EAFF
:1027E000020281EA030382EA000083EA010180EA2F
:1027F000020281EA0303362D88BF30BD11F0004F7D
:102800004FEA01314FF4801C4CEA113102D04042B2
:1028100061EB410113F0004F4FEA03334CEA1333ED
:1028200002D0524263EB430394EA050F00F0A78005
:10283000A4F10104D5F1200E0DDB02FA0EFC22FA00
:1028400005F2801841F1000103FA0EF2801843FAF4
:1028500005F359410EE0A5F120050EF1200E012AE5
:1028600003FA0EFC28BF4CF0020C43FA05F3C01823
:1028700051EBE37101F0004507D54FF0000EDCF19C
:10288000000C7EEB00006EEB0101B1F5801F1BD345
:10289000B1F5001F0CD349085FEA30004FEA3C0C49
:1028A00004F101044FEA445212F5800F80F09A803F
:1028B000BCF1004F08BF5FEA500C50F1000041EB43
:1028C000045141EA050130BD5FEA4C0C404141EB47
:1028D000010111F4801FA4F10104E9D191F0000F6E
:1028E00004BF01460020B1FA81F308BF2033A3F1F1
:1028F0000B03B3F120020CDA0C3208DD02F1140CE8
:10290000C2F10C0201FA0CF021FA02F10CE002F122
:102910001402D8BFC2F1200C01FA02F120FA0CFC1B
:10292000DCBF41EA0C019040E41AA2BF01EB045164
:10293000294330BD6FEA04041F3C1CDA0C340EDC62
:1029400004F11404C4F1200220FA04F001FA02F3A5
:1029500040EA030021FA04F345EA030130BDC4F163
:102960000C04C4F1200220FA02F001FA04F340EA58
:102970000300294630BD21FA04F0294630BD94F009
:10298000000F83F4801306BF81F480110134013DF0
:102990004EE77FEA645C18BF7FEA655C29D094EA61
:1029A000050F08BF90EA020F05D054EA000C04BFDF
:1029B0001946104630BD91EA030F1EBF00210020CA
:1029C00030BD5FEA545C05D14000494128BF41F069
:1029D000004130BD14F580043CBF01F5801130BDCD
:1029E00001F0004545F0FE4141F470014FF0000058
:1029F00030BD7FEA645C1ABF194610467FEA655C09
:102A00001CBF0B46024650EA013406BF52EA0335AA
:102A100091EA030F41F4002130BD00BF90F0000F98
:102A200004BF0021704730B54FF4806404F13204D4
:102A30004FF000054FF0000150E700BF90F0000F8D
:102A400004BF0021704730B54FF4806404F13204B4
:102A500010F0004548BF40424FF000013EE700BF84
:102A600042004FEAE2014FEA31014FEA02701FBF14
:102A700012F07F4393F07F4F81F06051704792F0E6
:102A8000000F14BF93F07F4F704730B54FF4607460
:102A900001F0004521F0004120E700BF50EA0102AB
:102AA00008BF704730B54FF000050AE050EA010258
:102AB00008BF704730B511F0004502D5404261EBC8
:102AC00041014FF4806404F132045FEA915C3FF409
:102AD000DCAE4FF003025FEADC0C18BF03325FEAA2
:102AE000DC0C18BF033202EBDC02C2F1200300FA57
:102AF00003FC20FA02F001FA03FE40EA0E0021FA7C
:102B000002F11444C1E600BF70B54FF0FF0C4CF465
:102B1000E06C1CEA11541DBF1CEA135594EA0C0F1B
:102B200095EA0C0F00F0DEF82C4481EA030621EA56
:102B30004C5123EA4C5350EA013518BF52EA033591
:102B400041F4801143F4801338D0A0FB02CE4FF043
:102B50000005E1FB02E506F00042E0FB03E54FF073
:102B60000006E1FB03569CF0000F18BF4EF0010E6B
:102B7000A4F1FF04B6F5007F64F5407404D25FEA67
:102B80004E0E6D4146EB060642EAC62141EA55511A
:102B90004FEAC52040EA5E504FEACE2EB4F1FD0C5C
:102BA00088BFBCF5E06F1ED8BEF1004F08BF5FEADA
:102BB000500E50F1000041EB045170BD06F000468C
:102BC00046EA010140EA020081EA0301B4EB5C0439
:102BD000C2BFD4EB0C0541EA045170BD41F4801131
:102BE0004FF0000E013C00F3AB8014F1360FDEBF56
:102BF000002001F0004170BDC4F10004203C35DA32
:102C00000C341BDC04F11404C4F1200500FA05F3B4
:102C100020FA04F001FA05F240EA020001F0004255
:102C200021F0004110EBD37021FA04F642EB0601CB
:102C30005EEA430E08BF20EAD37070BDC4F10C04F5
:102C4000C4F1200500FA04F320FA05F001FA04F2B9
:102C500040EA020001F0004110EBD37041F10001A5
:102C60005EEA430E08BF20EAD37070BDC4F12005B0
:102C700000FA05F24EEA020E20FA04F301FA05F218
:102C800043EA020321FA04F001F0004121FA04F2C0
:102C900020EA020000EBD3705EEA430E08BF20EA90
:102CA000D37070BD94F0000F0FD101F000464000CA
:102CB00041EB010111F4801F08BF013CF7D041EA4C
:102CC000060195F0000F18BF704703F00046520050
:102CD00043EB030313F4801F08BF013DF7D043EA21
:102CE0000603704794EA0C0F0CEA135518BF95EAD7
:102CF0000C0F0CD050EA410618BF52EA4306D1D15E
:102D000081EA030101F000414FF0000070BD50EA7C
:102D1000410606BF1046194652EA430619D094EA06
:102D20000C0F02D150EA013613D195EA0C0F05D1F0
:102D300052EA03361CBF104619460AD181EA030144
:102D400001F0004141F0FE4141F470014FF00000FC
:102D500070BD41F0FE4141F4780170BD70B54FF097
:102D6000FF0C4CF4E06C1CEA11541DBF1CEA135517
:102D700094EA0C0F95EA0C0F00F0A7F8A4EB0504F9
:102D800081EA030E52EA03354FEA013100F08880F0
:102D90004FEA03334FF0805545EA131343EA1263B9
:102DA0004FEA022245EA111545EA10654FEA00266E
:102DB0000EF000419D4208BF964244F1FD0404F527
:102DC000407402D25B084FEA3202B61A65EB030583
:102DD0005B084FEA32024FF480104FF4002CB6EB40
:102DE000020E75EB030E22BFB61A754640EA0C00C0
:102DF0005B084FEA3202B6EB020E75EB030E22BF00
:102E0000B61A754640EA5C005B084FEA3202B6EB40
:102E1000020E75EB030E22BFB61A754640EA9C00FF
:102E20005B084FEA3202B6EB020E75EB030E22BFCF
:102E3000B61A754640EADC0055EA060E18D04FEA8D
:102E4000051545EA16754FEA06164FEAC30343EA2D
:102E500052734FEAC2025FEA1C1CC0D111F4801FFA
:102E60000BD141EA00014FF000004FF0004CB6E7F3
:102E700011F4801F04BF01430020B4F1FD0C88BF92
:102E8000BCF5E06F3FF6AFAEB5EB030C04BFB6EB9D
:102E9000020C5FEA500C50F1000041EB045170BD90
:102EA0000EF0004E4EEA113114EB5C04C2BFD4EBBD
:102EB0000C0541EA045170BD41F480114FF0000E41
:102EC000013C90E645EA060E8DE60CEA135594EABD
:102ED0000C0F08BF95EA0C0F3FF43BAF94EA0C0FC0
:102EE0000AD150EA01347FF434AF95EA0C0F7FF435
:102EF00025AF104619462CE795EA0C0F06D152EA89
:102F000003353FF4FDAE1046194622E750EA41066C
:102F100018BF52EA43067FF4C5AE50EA41047FF47D
:102F20000DAF52EA43057FF4EBAE12E74FF0FF3CE2
:102F300006E000BF4FF0010C02E000BF4FF0010CB3
:102F40004DF804CD4FEA410C7FEA6C5C4FEA430C2C
:102F500018BF7FEA6C5C1BD001B050EA410C0CBF7B
:102F600052EA430C91EA030F02BF90EA020F0020DD
:102F7000704710F1000F91EA030F58BF994208BF44
:102F800090422CBFD8176FEAE37040F00100704701
:102F90004FEA410C7FEA6C5C02D150EA013C07D158
:102FA0004FEA430C7FEA6C5CD6D152EA033CD3D0A3
:102FB0005DF8040B704700BF8446104662468C469D
:102FC0001946634600E000BF01B5FFF7B7FF0028D0
:102FD00048BF10F1000F01BD4DF808EDFFF7F4FFF9
:102FE0000CBF012000205DF808FB00BF4DF808ED84
:102FF000FFF7EAFF34BF012000205DF808FB00BFA7
:103000004DF808EDFFF7E0FF94BF012000205DF8C8
:1030100008FB00BF4DF808EDFFF7CEFF94BF01207D
:1030200000205DF808FB00BF4DF808EDFFF7C4FF76
:1030300034BF012000205DF808FB00BF4FEA4102C9
:1030400012F5001215D211D56FF47873B3EB6252FA
:1030500012D94FEAC12343F0004343EA505311F021
:10306000004F23FA02F018BF404270474FF00000B3
:10307000704750EA013005D111F0004008BF6FF0F1
:10308000004070474FF00000704700BF4FEA410218
:10309000B2F1E04324BFB3F5001CDCF1FE5C0DD9B6
:1030A00001F0004C4FEAC0024CEA5070B2F1004F00
:1030B00040EB830008BF20F00100704711F0804F03
:1030C00021D113F13872BCBF01F00040704741F4C8
:1030D00080114FEA5252C2F11802C2F1200C10FACC
:1030E0000CF320FA02F018BF40F001004FEAC123B0
:1030F0004FEAD32303FA0CFC40EA0C0023FA02F354
:103100004FEA4303CCE77FEA625307D150EA013329
:103110001EBF4FF0FE4040F44000704701F00040F9
:1031200040F0FE4040F40000704700BF41F63843D5
:10313000C2F2000318687047F8B5204F204C381BC6
:10314000871017D07A1E2368012502F001069847E0
:10315000AF420FD02EB154F8041F02258847AF426A
:1031600008D0606880470235A268261D9047083461
:10317000AF42F6D1134F144C00F0BEF93B1B9F1029
:1031800018D07D1E216805F0010601258847AF4251
:1031900011D02EB154F8040F02258047AF420BD056
:1031A000626890470235A368261D98470834AF42ED
:1031B000F6D1F8BDF8BDF8BDF8BD00BF1C3500085C
:1031C0001C3500081C3500081C350008F0B48407C5
:1031D000034600F08E80541E002A00F08880E50728
:1031E000CEB211D41A46671E02F8016B134615467B
:1031F00092070FD0002C7AD003F8016B9A073C4657
:103200001D4607D0013CEDE7034603F8016B9A0722
:103210001D46F7D1032C52D9CEB246EA06270F2C11
:1032200047EA07432DD9A4F1100217460F2FC2F326
:1032300000162B606B60AB60EB6005F1100216D9D5
:103240003EB1103F136053609360D36010320F2F74
:103250000DD9203F02F11006136053609360D360D4
:10326000136153619361D36120320F2FF1D8A4F120
:10327000100222F00F0204F00F041032032C154448
:103280001DD9271F3E462A46032E42F8043BC7F3AA
:1032900080070DD927B1043E032E42F8043B07D91D
:1032A0001746083E47F8043B53603A1D032EF7D8F3
:1032B000231F23F00302131D04F00304ED18B4B11F
:1032C0002B46C9B203F8011B2C19ED436219A34226
:1032D00002F001050BD01DB103F8011BA34206D07B
:1032E0001A4602F8011B5970531CA342F8D1F0BCD6
:1032F0007047054614468DE780B485B000AFF8608E
:10330000B9607A604FF0FF33184607F11407BD46E5
:1033100080BC704780B485B000AFF860B9607A6057
:103320004FF0FF33184607F11407BD4680BC7047C5
:1033300080B485B000AFF860B9607A604FF00003E8
:10334000184607F11407BD4680BC704780B485B0AD
:1033500000AFF860B9607A604FF0FF33184607F1AC
:103360001407BD4680BC704780B400AF4FF0FF33F8
:103370001846BD4680BC704780B483B000AF78600B
:1033800039603B68002B02D04FF0FF3301E06FF053
:103390000103184607F10C07BD4680BC704700BF0B
:1033A00080B483B000AF786039607A683B689A4235
:1033B00002D14FF0FF3301E06FF00103184607F12F
:1033C0000C07BD4680BC704780B483B000AF786006
:1033D0004FF0FF33184607F10C07BD4680BC70471D
:1033E00080B487B000AF78604EF2C033C0F2000303
:1033F0007B6140F6F453C2F200031B68002B14D12A
:1034000040F6F453C2F2000341F64042C2F2000219
:103410001A6040F6F453C2F200031A687B69D218AE
:1034200040F6F853C2F200031A6040F6F453C2F2B9
:1034300000031B683B6140F6F453C2F200031B68B3
:103440001A467B68D31803F1070323F00703FB60D8
:1034500040F6F853C2F200031B68FA689A4202D39E
:103460004FF0000306E040F6F453C2F20003FA689E
:103470001A603B69184607F11C07BD4680BC7047BF
:1034800080B483B000AF78604FF0FF33184607F187
:103490000C07BD4680BC704780B483B000AF786035
:1034A0004FF0FF33184607F10C07BD4680BC70474C
:1034B00080B483B000AF786039604FF0FF331846B6
:1034C00007F10C07BD4680BC704700BF80B400AF59
:1034D0004FF0FF331846BD4680BC704780B400AF44
:1034E0004FF0FF331846BD4680BC704780B483B0B0
:1034F00000AF7860FEE700BF80B400AFBD4680BC7F
:10350000704700BF80B483B000AF78604FF0FF33E6
:0C351000184607F10C07BD4680BC704750
:10351C00E4CCFF7F01000000F8CCFF7F010000002D
:10352C00B9E1EEBA1222D0BA00000000F755723B96
:10353C00CF4E043C58C20B3C000000809E858EBCD4
:10354C0088DC0BBD9CA308BD000000000A828A3DEC
:10355C00F0DB1B3E5F46643E0641803E5F46643EA8
:10356C00F0DB1B3E0A828A3D000000009CA308BDD4
:10357C0088DC0BBD9E858EBC0000008058C20B3CC5
:10358C00CF4E043CF755723B000000001222D0BA1B
:10359C00B9E1EEBA6C6F673130000000000000003A
:0835AC0043000000101800208C
:1035C00000000000D9AB173F1504C2BD15EF433E04
:1035D0000000803F09B8D53EF304B53E72ADA03F70
:1035E000D7B35D3F5E83EC3EB2E4A83F8D65973F65
:1035F0000000003F8D65973FB2E4A83F5E83EC3E3C
:10360000D7B35D3F72ADA03FF304B53E09B8D53ED8
:103610000000803F15EF433E1504C2BDD9AB173FF4
:1036200000000080D9AB17BF1504C23D15EF43BEA3
:10363000000080BF09B8D5BEF304B5BE72ADA0BF0F
:10364000D7B35DBF5E83ECBEB2E4A8BF8D6597BF04
:10365000000000BF8D6597BFB2E4A8BF5E83ECBEDB
:10366000D7B35DBF72ADA0BFF304B5BE09B8D5BE78
:10367000000080BF15EF43BE1504C23DD9AB17BF94
:1036800000000000D9AB173F1504C2BD15EF433E43
:103690000000803F09B8D53EF304B53E72ADA03FAF
:1036A000D7B35D3F5E83EC3EB2E4A83F8D65973FA4
:1036B0000000003F8D65973FB2E4A83F5E83EC3E7B
:1036C000D7B35D3F72ADA03FF304B53E09B8D53E18
:1036D0000000803F15EF433E1504C2BDD9AB173F34
:1036E00000000000D9AB17BF1504C23D15EF43BE63
:1036F000000080BF09B8D5BEF304B5BE72ADA0BF4F
:10370000D7B35DBF5E83ECBEB2E4A8BF8D6597BF43
:10371000000000BF8D6597BFB2E4A8BF5E83ECBE1A
:10372000D7B35DBF72ADA0BFF304B5BE09B8D5BEB7
:10373000000080BF15EF43BE1504C23DD9AB17BFD3
:1037400000000000D9AB173F1504C2BD15EF433E82
:103750000000803F09B8D53EF304B53E72ADA03FEE
:10376000D7B35D3F5E83EC3EB2E4A83F8D65973FE3
:103770000000003F8D65973FB2E4A83F5E83EC3EBA
:10378000D7B35D3F72ADA03FF304B53E09B8D53E57
:103790000000803F15EF433E1504C2BDD9AB173F73
:1037A00000000000D9AB17BF1504C23D15EF43BEA2
:1037B000000080BF09B8D5BEF304B5BE72ADA0BF8E
:1037C000D7B35DBF5E83ECBEB2E4A8BF8D6597BF83
:1037D000000000BF8D6597BFB2E4A8BF5E83ECBE5A
:1037E000D7B35DBF72ADA0BFF304B5BE09B8D5BEF7
:1037F000000080BF15EF43BE1504C23DD9AB17BF13
:1038000000000080D9AB173F1504C2BD15EF433E41
:103810000000803F09B8D53EF304B53E72ADA03F2D
:10382000D7B35D3F5E83EC3EB2E4A83F8D65973F22
:103830000000003F8D65973FB2E4A83F5E83EC3EF9
:10384000D7B35D3F72ADA03FF304B53E09B8D53E96
:103850000000803F15EF433E1504C2BDD9AB173FB2
:1038600000000080D9AB17BF1504C23D15EF43BE61
:10387000000080BF09B8D5BEF304B5BE72ADA0BFCD
:10388000D7B35DBF5E83ECBEB2E4A8BF8D6597BFC2
:10389000000000BF8D6597BFB2E4A8BF5E83ECBE99
:1038A000D7B35DBF72ADA0BFF304B5BE09B8D5BE36
:1038B000000080BF15EF43BE1504C23DD9AB17BF52
:1038C00000000000D9AB173F1504C2BD15EF433E01
:1038D0000000803F09B8D53EF304B53E72ADA03F6D
:1038E000D7B35D3F5E83EC3EB2E4A83F8D65973F62
:1038F0000000003F8D65973FB2E4A83F5E83EC3E39
:10390000D7B35D3F72ADA03FF304B53E09B8D53ED5
:103910000000803F15EF433E1504C2BDD9AB173FF1
:1039200000000000D9AB17BF1504C23D15EF43BE20
:10393000000080BF09B8D5BEF304B5BE72ADA0BF0C
:10394000D7B35DBF5E83ECBEB2E4A8BF8D6597BF01
:10395000000000BF8D6597BFB2E4A8BF5E83ECBED8
:10396000D7B35DBF72ADA0BFF304B5BE09B8D5BE75
:10397000000080BF15EF43BE1504C23DD9AB17BF91
:1039800000000080D9AB173F1504C2BD15EF433EC0
:103990000000803F09B8D53EF304B53E72ADA03FAC
:1039A000D7B35D3F5E83EC3EB2E4A83F8D65973FA1
:1039B0000000003F8D65973FB2E4A83F5E83EC3E78
:1039C000D7B35D3F72ADA03FF304B53E09B8D53E15
:1039D0000000803F15EF433E1504C2BDD9AB173F31
:1039E00000000000D9AB17BF1504C23D15EF43BE60
:1039F000000080BF09B8D5BEF304B5BE72ADA0BF4C
:103A0000D7B35DBF5E83ECBEB2E4A8BF8D6597BF40
:103A1000000000BF8D6597BFB2E4A8BF5E83ECBE17
:103A2000D7B35DBF72ADA0BFF304B5BE09B8D5BEB4
:103A3000000080BF15EF43BE1504C23DD9AB17BFD0
:103A400000000080D9AB173F1504C2BD15EF433EFF
:103A50000000803F09B8D53EF304B53E72ADA03FEB
:103A6000D7B35D3F5E83EC3EB2E4A83F8D65973FE0
:103A70000000003F8D65973FB2E4A83F5E83EC3EB7
:103A8000D7B35D3F72ADA03FF304B53E09B8D53E54
:103A90000000803F15EF433E1504C2BDD9AB173F70
:103AA00000000000D9AB17BF1504C23D15EF43BE9F
:103AB000000080BF09B8D5BEF304B5BE72ADA0BF8B
:103AC0000000000080878DBAE95C49BAEDEC4FB97F
:103AD0004A1F8738A9AB083B4AC6713BB6D3CF3AD9
:103AE000E03B2CBBF5BBF8BB059C43BC57FE0DBCB3
:103AF0006CC9113C5159303D3A92C73DB037323E06
:103B0000DD49893E1EE2BF3E478AFA3EE6371A3F4C
:103B10002AB4343F5FFD4B3F89205F3F86836D3F72
:103B200027DD773FE2537E3F7E27803F1D1A7E3F91
:103B3000EED8773FDAFA6C3FC32E5E3F75954B3F68
:103B40006660353F5E291C3F9453003F1152C43ECE
:103B500092BB843E5C21063E000000805C2106BED4
:103B600092BB84BE1152C4BE945300BF5E291CBFD9
:103B7000666035BF75954BBFC32E5EBFDAFA6CBF6A
:103B8000EED877BFE0607EBFAA4080BFE0607EBF16
:103B9000EED877BFDAFA6CBFC32E5EBF75954BBF08
:103BA000666035BF5E291CBF945300BF1152C4BE6E
:103BB00092BB84BE5C2106BE000000005C21063E74
:103BC00092BB843E1152C43E9453003F5E291C3F79
:103BD0006660353F75954B3FC32E5E3FDAFA6C3F0A
:103BE000EED8773FE0607E3FAA40803FE0607E3FB6
:103BF000EED8773FDAFA6C3FC32E5E3F75954B3FA8
:103C00006660353F5E291C3F9453003F1152C43E0D
:103C100092BB843E5C21063E000000805C2106BE13
:103C200092BB84BE1152C4BE945300BF5E291CBF18
:103C3000666035BF75954BBFC32E5EBFDAFA6CBFA9
:103C4000EED877BFE0607EBFAA4080BFE0607EBF55
:103C5000EED877BFDAFA6CBFC32E5EBF75954BBF47
:103C6000666035BF5E291CBF945300BF1152C4BEAD
:103C700092BB84BE5C2106BE000000005C21063EB3
:103C800092BB843E1152C43E9453003F5E291C3FB8
:103C90006660353F75954B3FC32E5E3FDAFA6C3F49
:103CA000EED8773FE0607E3FAA40803FE0607E3FF5
:103CB000EED8773FDAFA6C3FC32E5E3F75954B3FE7
:103CC0006660353F5E291C3F9453003F1152C43E4D
:103CD00092BB843E5C21063E000000805C2106BE53
:103CE00092BB84BE1152C4BE945300BF5E291CBF58
:103CF000666035BF75954BBFC32E5EBFDAFA6CBFE9
:103D0000EED877BFE0607EBFAA4080BFE0607EBF94
:103D1000EED877BFDAFA6CBFC32E5EBF75954BBF86
:103D2000666035BF5E291CBF945300BF1152C4BEEC
:103D300092BB84BE5C2106BE000000005C21063EF2
:103D400092BB843E1152C43E9453003F5E291C3FF7
:103D50006660353F75954B3FC32E5E3FDAFA6C3F88
:103D6000EED8773FE0607E3FAA40803FE0607E3F34
:103D7000EED8773FDAFA6C3FC32E5E3F75954B3F26
:103D80006660353F5E291C3F9453003F1152C43E8C
:103D900092BB843E5C21063E000000005C2106BE12
:103DA00092BB84BE1152C4BE945300BF5E291CBF97
:103DB000666035BF75954BBFC32E5EBFDAFA6CBF28
:103DC000EED877BFE0607EBFAA4080BFE0607EBFD4
:103DD000EED877BFDAFA6CBFC32E5EBF75954BBFC6
:103DE000666035BF5E291CBF945300BF1152C4BE2C
:103DF00092BB84BE5C2106BE000000005C21063E32
:103E000092BB843E1152C43E9453003F5E291C3F36
:103E10006660353F75954B3FC32E5E3FDAFA6C3FC7
:103E2000EED8773FE0607E3FAA40803FE0607E3F73
:103E3000EED8773FDAFA6C3FC32E5E3F75954B3F65
:103E40006660353F5E291C3F9453003F1152C43ECB
:103E500092BB843E5C21063E000000005C2106BE51
:103E600092BB84BE1152C4BE945300BF5E291CBFD6
:103E7000666035BF75954BBFC32E5EBFDAFA6CBF67
:103E8000EED877BFE0607EBFAA4080BFE0607EBF13
:103E9000EED877BFDAFA6CBFC32E5EBF75954BBF05
:103EA000666035BF5E291CBF945300BF1152C4BE6B
:103EB00092BB84BE5C2106BE000000805C21063EF1
:103EC00092BB843E1152C43E9453003F5E291C3F76
:103ED0006660353F75954B3FC32E5E3FDAFA6C3F07
:103EE000EED8773FE0607E3FAA40803FE0607E3FB3
:103EF000EED8773FDAFA6C3FC32E5E3F75954B3FA5
:103F00006660353F5E291C3F9453003F1152C43E0A
:103F100092BB843E5C21063E000000005C2106BE90
:103F200092BB84BE1152C4BE945300BF5E291CBF15
:103F3000666035BF75954BBFC32E5EBFDAFA6CBFA6
:103F4000EED877BFE0607EBFAA4080BFE0607EBF52
:103F5000EED877BFDAFA6CBFC32E5EBF75954BBF44
:103F6000666035BF5E291CBF945300BF1152C4BEAA
:103F700092BB84BE5C2106BE000000005C21063EB0
:103F800092BB843E1152C43E9453003F5E291C3FB5
:103F90006660353F75954B3FC32E5E3FDAFA6C3F46
:103FA000EED8773FE0607E3FAA40803FE0607E3FF2
:103FB000EED8773FDAFA6C3FC32E5E3F75954B3FE4
:103FC000200000000A000000000E2707010000008A
:103FD00000000000FC1A0020641B0020CC1B002005
:103FE00000000000000000000000000000000000D1
:103FF00000000000000000000000000000000000C1
:1040000000000000AC3500080000000000000000C7
:1040100000000000000000000000000000000000A0
:104020000000000000000000000000000000000090
:104030000000000000000000000000000000000080
:104040000000000000000000000000000000000070
:104050000000000000000000000000000000000060
:104060000000000000000000000000000000000050
:10407000000000000000000001000000000000003F
:104080000E33CDAB34126DE6ECDE05000B00000004
:104090000000000000000000000000000000000020
:1040A0000000000000000000000000000000000010
:1040B0000000000000000000000000000000000000
:1040C00000000000000000000000000000000000F0
:0C43F00000000000000000001018002079
:0400000508000201EC
:00000001FF
