:020000041000EA
:101000005009002019100010291200102B12001096
:1010100000000080000000800348854603488047A8
:101020000348804706E00000500900206D120010C0
:10103000C910001018481949194A002A0AD0042A70
:1010400000D20422920803680B60013A02D00430F7
:101050000431F8E713481449002909D0042900D2C3
:101060000421890800220260013901D00430FAE726
:101070000E480F490F4A920803680B60013A02D0EC
:1010800004300431F8E70C4880470C4885460020BE
:1010900000210B4A97460000C82A0010E00A0020F1
:1010A00088000000500900208401000090290010F1
:1010B0000C000020380100007912001050090020B7
:1010C000D110001001207047C0467047000000009A
:1010D00090B587B000AF3B1C173300221A704A4B03
:1010E0001B68FE218905494A081C111C1A1C00F0C6
:1010F00023F9454B1A68464844493B1C0C3300F021
:1011000033F9414B1B68181C01F004FB031C0C1C39
:101110003C493B481A1C231C01F020F8031C0C1C02
:10112000181C211C01F028FB031CBB60391C0C316E
:101130003A1C08323B1C0C33081C111C1A1C0123DE
:1011400000F066F9F968304B1B68324A081C111C24
:101150001A1C00F0F1F82C4B1B682D482D492E4A23
:1011600000F098F9284B1B682B492A4A081C111CCF
:101170001A1C00F0C3F8244B1A68264826493B1D68
:1011800000F0F2F8204B1B68013B181C01F0C2FA7A
:10119000031C0C1C1B491A481A1C231C00F0DEFF00
:1011A000031C0C1C181C211C01F0E6FA031CBB607C
:1011B000391D3A1C08323B1D081C111C1A1C012346
:1011C00000F026F9154B1A687B68101C191C00F0FA
:1011D000EBFD031C5B005B083B613869104900F0C4
:1011E00011FA031C002B03D03B1C1733FA221A7090
:1011F0003B1C17331B785BB2002B00D0FEE7FEE7E9
:10120000000000000000F03F600B002050090020AB
:10121000E00A0020D0090020500A0020640B0020C2
:10122000BD378635C046C046FEE7FEE7FEE7FEE76F
:10123000FEE7FEE7FEE7FEE7FEE7FEE7FEE7FEE786
:10124000FEE7FEE7FEE7FEE7FEE7FEE7FEE7FEE776
:10125000FEE7FEE7FEE7FEE7FEE7FEE7FEE7FEE766
:10126000FEE7FEE7FEE7FEE7FEE7FEE780B500AF3C
:10127000FFF728FFBD4680BD80B586B000AF1C4B90
:101280001B683B613A69FF231B0213401B0AFB608A
:101290003A69FF231340BB60FB68002B1FD0BB687B
:1012A000002B06D11348F96800F036F9031C7B6166
:1012B00017E0FB681A02BB68D3187B607B68FA22D0
:1012C0001006191C00F028F9031C3B603B68FA2249
:1012D000920053437B617B695B0A7B6101E0054BB4
:1012E0007B61054B7A691A60BD4606B080BDC04679
:1012F000000301400048E801D00A002030B5002A70
:1013000019D001231D1C08C8541E254008C1002CFB
:1013100011D0002D04D010C810C1941E002C0AD08A
:10132000021C20CA0B1C20C34068023C4860101DF0
:10133000191D002CF4D130BD10B5002A12D0541E56
:101340000123234001C1002C0CD0002B03D0941E9C
:1013500001C1002C06D00A1C01C2023C4860111DCC
:10136000002CF8D110BDC046F8B556465F464D4634
:101370004446F0B49A46161E46D0571E0123051C5B
:101380000C1C3B4002CC01CD9B4600F0DDFB011C58
:10139000002000F04BF9B8468146002F2BD058466C
:1013A00000280CD002CC01CD00F0CEFB011C484639
:1013B00000F03CF9023E8146B046002E1BD02F1CA7
:1013C000261C02CE01CF00F0BFFB011C484600F0F6
:1013D0002DF961688346686800F0B6FB011C584629
:1013E00000F024F902214A42904443463D1D8146C3
:1013F000341D002BE3D14D46544625603CBC90463D
:101400009946A246AB46F8BD00229146F3E7C04696
:10141000F0B557464E464546E0B4141C1F1E34D066
:101420005A1E061C01230D1C924601CE1A4002CD05
:10143000904600F089FB01C45046002825D0414663
:10144000002908D001CE02CD00F07EFB023F01C48E
:10145000BA46002F19D0371C2A1C04370432043A2C
:10146000043F02CA01CF00F06FFB271C01C7696867
:10147000706800F069FB0223606058428244514664
:10148000083608353C1D0029E5D11CBC904699461C
:10149000A246F0BDF0B557464E464546E0B4141C92
:1014A0001F1E34D05A1E061C01230D1C924601CE6D
:1014B0001A4002CD904600F077FC01C45046002847
:1014C00025D04146002908D001CE02CD00F06CFCA9
:1014D000023F01C4BA46002F19D0371C2A1C04371A
:1014E0000432043A043F02CA01CF00F05DFC271C1D
:1014F00001C76968706800F057FC022360605842B9
:1015000082445146083608353C1D0029E5D11CBCF3
:1015100090469946A246F0BD002934D0012300220E
:1015200010B488422CD301242407A14204D2814262
:1015300002D209011B01F8E7E400A14204D2814272
:1015400002D249005B00F8E7884201D3401A1A43EF
:101550004C08A04202D3001B5C0822438C08A04226
:1015600002D3001B9C082243CC08A04202D3001BDC
:10157000DC082243002803D01B0901D00909E3E756
:10158000101C10BC7047002801D00020C04307B4D5
:10159000024802A14018029003BDC0461900000095
:1015A0000029F0D003B5FFF7B9FF0EBC4243891AFA
:1015B0001847C0467047C0468446081C6146FFE78E
:1015C0001FB500F079FA002801D40021C8421FBDE0
:1015D00010B500F001FA4042013010BD10B500F026
:1015E0006BFA002801DB002010BD012010BDC046B1
:1015F00010B500F061FA002801DD002010BD0120C7
:1016000010BDC04610B500F00FFA002801DC002024
:1016100010BD012010BDC04610B500F005FA00282D
:1016200001DA002010BD012010BDC046F8B543020C
:1016300042004F024C00C00F9B09120E061C9C4634
:10164000240EC90FBF09884257D0151B002D00DC9E
:101650007EE0002C41D1002F64D0013D002D00D050
:10166000ABE0DB1B141C061C590144D59A019509FB
:10167000281C01F023F905388540844200DD79E01B
:10168000001B1F242B1C411C221ACB4095401F1C01
:101690002B1C5D1EAB413B43012500240F2018404D
:1016A000042800D004338021CF0401221F401640BB
:1016B000002F05D0FF2D5AD0B34C23402C1C0135F0
:1016C000EDB2DA08012D3BDD53025A0AE4B2E4051B
:1016D0002243F607101C3043F8BDFF2A2BD080218F
:1016E000CC04274301231B2D49DD6746FB1A141C3C
:1016F000061C5901BAD4651CD0E7151B002D4FDD1F
:10170000002C13D0FF2A5AD08024E1040F43012378
:101710001B2D00DCB0E06344141C590155D4651C3A
:10172000061CBBE7551C141C061CB7E7002F7CD118
:10173000551C141CB2E7802763467D00FF24ADE7EB
:10174000002AC3D0002C28D08020C1030A43BBE765
:10175000002D47D1501CC3B2012B00DC96E064463B
:10176000E51B680158D53D1B0E1C141C80E7FF24A7
:101770000022ACE7844B241A2B40651C8EE73E1CEC
:101780002021EE404D1BAF403B1C5F1EBB4133434D
:101790006746FB1A141C061CABE757027A0A96E749
:1017A000002D7FD1541CE1B2012953DDFF2C00D163
:1017B0009BE0FB185B08951C70E7FF2A92D1061C82
:1017C000802063464500FF2468E7671CFF2F3CD05C
:1017D0006D4A01261E4013405B083343A51C061CBE
:1017E0003C1C5BE76842002A25D0FF2C70D0802289
:1017F000D6041D1C3543AC4601261B2809DC624675
:101800002025C2402B1A60469840061C701E864157
:101810001643BB1B0E1C27E7141C002D00D027E726
:1018200000260125042300244AE7013D002D08D1AC
:10183000FB18141C71E7002B50D1651C3B1C0E1CBF
:101840002CE7FF2A00D062E7B9E780235D00FF2480
:10185000042335E7002A7CD1002B00D1A1E0002F22
:1018600000D1AFE0FB18590100D4B0E0464E02258C
:1018700033400124061C11E73C1C2023EC405D1B77
:10188000AF403B1C5F1EBB41234344E7002A12D1FB
:101890006546002D41D1002FC2D03B1C0E1C0125F6
:1018A0000024FBE66D42002A23D1002B66D1651C83
:1018B0003B1C061CF2E66246002A38D1002F07D1F5
:1018C000802200265500314BFF24F9E6FF2C93D1EE
:1018D0003B1C80270E1C7D00FF24DFE6013800281A
:1018E000F4D16646BB1B0E1CBEE680277D00042398
:1018F000E6E6FF2C5CD08022D1040B439C460123FA
:101900001B2D08DC20216246EA4063464D1BAB409C
:10191000591E8B411343DB19FFE6002F38D0EB1B18
:101920005A014BD57B1B0E1C01250024B6E6002F67
:1019300000D100E78020D308C403234204D0FF086D
:10194000274201D13B1C0E1C8021DB004D00FF24EF
:10195000A4E6002B20D0002F00D1ECE68022DE0888
:10196000D503311C2E4203D0F908294200D0311C86
:10197000061C8020CB004500FF248FE6013D002D92
:1019800014D1FB18C9E6C046FFFFFFFBFCFFFF03B5
:1019900063460125002481E6802465003B1CFF246A
:1019A0007CE63B1C061C0125002477E6FF2CA6D113
:1019B0003B1C8027061C7D00FF246FE6002B00D116
:1019C0002EE769E66346061C0125002466E6061C30
:1019D0000125002462E6C0464302420070B55C0A5D
:1019E000C60F130E48024A00450A120EC90FFF2BFC
:1019F00005D0FF2A08D0012093420BD070BD0120F2
:101A0000002CFBD1FF2AF6D10120002DF6D10120B8
:101A10009342F3D1AC42F1D18E4203D0002BEDD1F1
:101A2000002CEBD10020E9E7F0B5430242004F0063
:101A3000C60F48025C0A450A130EC90F3A0EFF2B67
:101A400026D0FF2A29D0002B0CD160426041844669
:101A5000002A0AD0002816D18E4221D0002E14D19F
:101A6000012014E0002AF7D194466F426F4160468E
:101A7000002805D1002FEFD00120002E07D004E070
:101A80000020002F03D10029EAD101214842F0BDF6
:101A9000002CD6D002225042F9E7002DD3D0F9E72E
:101AA0009342DBDC04DBAC42D8D80020AC42EED25F
:101AB000002EEAD00120EAE7F0B5430242004F00D1
:101AC000C60F48025C0A450A130EC90F3A0EFF2BD7
:101AD00026D0FF2A28D0002B0FD0002A14D19446FC
:101AE0006F426F416046002814D00020002F03D1C0
:101AF00000290DD101214842F0BD60426041844679
:101B0000002AEDD00028F3D18E4211D0002EF1D161
:101B10000120F1E7002FF7D00120002EECD0E9E7FB
:101B20000220002CE8D1D4E70220002DE4D1D2E736
:101B30009342EBDC04DBAC42E8D80020AC42DBD2C1
:101B4000002ED7D00120D7E7F0B55F4656464D4668
:101B50004446F0B44502460083B00F1C6D0A360EB1
:101B6000C40F002E06D1002D70D104210122884619
:101B7000924609E0FF2E43D080231804002105433C
:101B8000ED007F3E88468A46381C43007F02C10F25
:101B90007F0A1B0E8B463AD10121002F62D1584695
:101BA0006040424601900A430F2A3FD92C04F018A6
:101BB000260C3B041A0C311C51433F0C2D0C7E4368
:101BC0006A438146080C36182C1CB3187C439A4291
:101BD00000D99AE009041D04080C2E18B5011B0C4D
:101BE000691E8D41B20EE7181543BC0125432B0138
:101BF0004BD50120284001216D088944054344E06C
:101C0000002D1ED10820022180468A46BCE7FF2B0A
:101C100012D08022100407435846002160404246FB
:101C2000FF007F3B01900A430F2ABFD890005B4A18
:101C30008446624410688746391C4A1E914102312D
:101C4000ADE70C22032390469A469DE7281C00F03E
:101C500035FE7622461F5342B5401E1A00208046AC
:101C6000824691E7381C00F029FE7621431F4A4244
:101C70009F400021131A92E70194514602292CD06B
:101C8000032900D180E0012948D04E467F36002E3E
:101C900051DD0F242C40042C00D004352A0103D53B
:101CA0003F494E460D408036FE2E3DDD019B01240E
:101CB0001C40FF210025C805E2072843104303B05C
:101CC0003CBC90469946A246AB46F0BD0024354D3B
:101CD000FF21F0E751460229D2D1019D01242C4079
:101CE000FF210025E7E75E463D1C0196C6E73D1C47
:101CF000C4E78026F3031D420BD01F4209D11F43C6
:101D00007A02550A5C46FF21D5E780225702E41982
:101D100060E71D436F027D0AFF21CCE7019B002590
:101D20001940CCB20021C6E70198AD0101246D0A2B
:101D3000F1B20440BFE77E2673424A469F1A1B2F2A
:101D400005DD019D01242C4000210025B3E7494613
:101D50009E312C1C8D402E1CFC40751EAE4126432E
:101D60000F203040042800D00436700105D5019FB3
:101D700001243C40012100259DE7019AB301012483
:101D80005D0A1440002196E78022D00305436C02CF
:101D90000199650A01240C40FF218CE708290010F5
:101DA000FFFFFFF7FFFF7F00F8B5430245004F023A
:101DB0004C00C20F980984462D0E200EC90FBF0992
:101DC000FF2854D0012671408A423BD02C1A002CA7
:101DD00000DC89E0002825D1002F4BD16E1C2C1C83
:101DE0006346151C0F221A40042A00D004338027B2
:101DF000F904012219402A40002906D0FF2E00D103
:101E000081E0B14D341C2B400136F6B2DD08012EC5
:101E100062DD6B025D0AE4B2E4052543281CD207AB
:101E20001043F8BDFF2D51D08021CB041F43012664
:101E30001B2C70DD67462C1CBB1B151C580122D4C3
:101E4000661CCFE72E1A002E76DD002832D0FF2D3B
:101E50003CD08024E1040F4301231B2E00DCD1E0A1
:101E600063442C1C58017AD4661C151CBAE7002F59
:101E7000AAD1A7E7013C002C6DD163462C1CDB1BCB
:101E8000151C5801DCD59A019609301C00F016FD8E
:101E900005388640844239DC001B1F231A1A331C84
:101EA000311C441C9340E1405E1EB3410B430126AC
:101EB000002497E7002F00D190E7013E002E03D1C8
:101EC00064463B192C1CCDE7FF2DC5D1151C802283
:101ED00063465600FF2485E7002D9CD0002C28D0B7
:101EE0008020C7033D4394E7002C45D16B1CD8B23A
:101EF000012800DC90E06446E61B730157D53E1BC9
:101F00002C1C0D1CC1E7FF24002585E76E4B241A0D
:101F10003340661C66E7381C2021E0400C1BA740BC
:101F20003E1C771EBE41064367462C1CBB1B151C7E
:101F300084E769024D0A6FE7002E79D16C1CE0B28C
:101F400001284BDDFF2C00D198E061467F18AE1CC4
:101F50007B08151C46E7FF2D00D068E7B6E7671C35
:101F6000FF2F36D058480121194003405B08A61CBA
:101F70000B433C1C151C35E76642002D1ED0FF2884
:101F80006FD080256246EB041A43944601251B2E30
:101F900009DC62462023F24064469E1BB440251CA7
:101FA0006C1EA54115437B1B041C0D1C69E7002E0C
:101FB0000CD1002201260423002426E76446002CCD
:101FC00055D1461C3B1C041C0D1C0BE72C1C151C7E
:101FD0005BE780235E00FF24042316E7002D00D07A
:101FE0008DE06546002D00D1ADE0002F00D181E0ED
:101FF0007B195C0100D47EE0334F151C3B40022668
:102000000124EFE6381C2023F0409E1BB7403B1C08
:102010005F1EBB41034323E7002D15D16546002D0C
:1020200047D1002FC5D03B1C0D1C01260024D9E64A
:102030007642002D26D16546002D00D07DE0461C5D
:102040003B1C041C151CCDE66546002D40D1002F1D
:1020500007D1802100224E001C4BFF24D5E6FF282B
:1020600094D180203B1C0D1C4600FF24BAE6013EA3
:10207000002EF4D13B1B0D1C041C02E780256E00D2
:102080000423C2E6FF2852D080246146E3041943AA
:102090008C4601231B2E09DC20216446F440654652
:1020A0008E1BB5402B1C591E8B412343DB19041C8E
:1020B000D8E6002F1ED0EB1B58014BD57B1B012609
:1020C0000D1C00248EE6C046FFFFFFFBFCFFFF0354
:1020D000002F00D1FAE68020EB08C403234237D05A
:1020E000FF08274234D13B1C0D1C8022DB00560028
:1020F000FF2477E66346151C0126002472E6644639
:10210000002C14D0002F00D1E0E68023E608D8038D
:10211000311C064203D0F908014200D0311C151CC5
:102120008022CB005600FF245CE6FF28B1D180203E
:102130003B1C151C4600FF2454E6013E002EF4D142
:102140007B19041C8EE63B1C151C0126002449E665
:10215000151CCAE7002B00D12BE7CCE7F0B54D46A4
:1021600044465F465646F0B41D1C4B00141C0E033B
:102170005B0DCA0F87B0071C360B98469146002BA3
:102180001DD1321C024300D181E1002E00D104E2B6
:10219000301C00F093FB272800DDF8E12821031C08
:1021A000083B0A1A391C9E40D1400E439F40C14B48
:1021B0000021181A002280468A4600920FE0BE488D
:1021C000834231D080214B031E43BC487A0FF60076
:1021D000002100231643FF0080448A460093291CF7
:1021E000201C251C4A000C03CB0F240B520D9B46D0
:1021F00025D1211C014300D150E1002C00D1C2E1C6
:10220000201C00F05BFB272800DDB6E1031C282220
:10221000083B291C121A9C40D1400C439D40A54B01
:102220001A1A0020029019E0321C3A4300D029E12A
:1022300008270223BA46002600270093CFE79E48CE
:10224000824200D113E180214B031C439B49680F5C
:10225000E40000230443ED005218029348465B4615
:10226000434002985146019301430F2900D8DFE013
:1022700043469A1A0492A64200D86EE171087B0880
:10228000F6073343FA07894698460292280E24023D
:1022900004432D022704390CAB46250C0091484617
:1022A000291CFFF739F9009F061C4743291C4846A3
:1022B000FFF776F9434608041A0C1043874207D902
:1022C0000019013E844203D8874201D9013E00191A
:1022D000C11B8A46081C291CFFF71EF9009B071C1E
:1022E0004343291C50469946FFF75AF942461004C9
:1022F0000B04010C0B43994504D91B19013F9C4267
:1023000000D864E136043E435F464A46390C8946AC
:102310009B1A59463204170C0A0449467943120C99
:1023200003928C460399300C7A4341434F467843DD
:102330008C44170C6744B94202D9802149024018E5
:10234000390C120440183F04110C7F18834200D24C
:1023500027E100D141E102991B1ACF1BB94280410C
:1023600041425A1A9046A24200D15FE1101C291C3A
:10237000FFF7D2F8009B02904343291C40469A463F
:10238000FFF70EF9380C090401438A450AD9029A6D
:102390000919013A02928C4204D88A4502D9013ABD
:1023A000029209195346C81A291C0590FFF7B4F880
:1023B000009A291C4243804605989246FFF7F0F8A0
:1023C0003F040D043A0C2A43924509D901214B429E
:1023D00012199844944203D8924501D9984412198D
:1023E000029D43462F041F435046111A3804030C24
:1023F0004D465D430398AC46039D3A0C5843554304
:102400004B465A43AC44030C63449D4202D9802599
:102410006D0252191D0C000452191B04050C5B19A6
:10242000914200D2E6E000D13DE1012217435AE09B
:10243000890023488C46604401688F46019B1E4AF0
:102440000026002700200021381C0F0D3C051D4DE3
:1024500034431205254015436E00DB07710819430C
:1024600007B03CBC90469946A246AB46F0BD211C45
:1024700003202943029000D0F0E602230024002527
:102480000293EBE60C20032182460091A7E6042785
:102490000123BA46002600270093A0E6012100246C
:1024A00000250291DAE601270023074E7F42024A07
:1024B000C8E7C0460DFCFFFFFF07000001FCFFFF5F
:1024C00048290010FFFF0F80FFFF0F002F1C5A4606
:1024D000029D261C0192022DB0D0032D00D101E1F6
:1024E000012D00D19CE0049B82481A18002A00DCD0
:1024F0008CE00F243C40042C05D03B1DBB42BF4167
:102500007D4276191F1CF10105D57B4A0499802074
:10251000C40016400A19794B9A4200DD8EE7750710
:10252000FF08760251052F43360B4A0D019B89E7C0
:1025300000220026002785E7802001030E4216D0E6
:102540000C4214D10C432603360B5B462F1C6C4AFD
:1025500078E74C460194009DBDE7A64243D004981D
:10256000B846013800270490B14602978EE60E4324
:1025700033031E0B624A4B4664E7041C283CA5400B
:102580002C1C00254BE600F099F920303BE6061C98
:10259000283EB7403E1C002709E600F08FF92030A6
:1025A000F9E5029A013E111C5944594592415242A3
:1025B0001219D3189C4204D298426BD816D01B1A19
:1025C000CBE6A342FBD18B45F6D9231AC5E6994544
:1025D00000D897E6013F1B1994E6029ABA42E0D36D
:1025E00002990023B9E6AF42B9D947E68F4251D8E4
:1025F0000023B2E60919013F58468C4219D991428D
:1026000000D012E7984200D00FE76CE73D4C049DE4
:10261000631B382B1CDD019B00220026002711E7DD
:10262000019B00222B40002600270BE701277F4259
:1026300059E78A4203D800D0F7E69842E2D25D46D5
:1026400068005845AD416D422C19013F0919D6E784
:102650001F2B34DC049C2C4A381CA518311CAF40BD
:10266000D840A9403C1C0143671EBC410F1C2743B6
:10267000DE400F233B40042B05D03A1DBA42BF4138
:102680007D427619171C320211D5019B01220026CA
:102690000027D7E659445945924152421219D3189E
:1026A000013E1B1A59E6002BA4D10020AAE77007AF
:1026B000FF08710207430E0B019B0022C2E613497B
:1026C000049C301C0A1BD040051C202B08D0104B4A
:1026D000E1188E4037437B1E9F412F430026C8E7F9
:1026E0000026F7E780221003064331030E0B019BFF
:1026F000034AA7E6FF030000FFFFFFFEFE070000FE
:10270000FF07000002FCFFFF1E040000E2FBFFFFCA
:102710003E04000070B5041E26D000F0CFF8144926
:102720000A1A0A2813DD0B38844056052403720D5B
:10273000250B002600200021301C0E0D33050D4C0A
:102740002B4311051C400C436500690870BD0B2329
:10275000051C181A1535211CC440A9405205250333
:102760000E1C2D0B520DE5E7002200250026E1E7A7
:102770001E040000FFFF0F80F0B5041C4800400D50
:102780000A03CD0F411C630F520A4F051A43E6009E
:102790007B0D012B3BDD42494318FE2B2CDC002B2B
:1027A0004EDDA401770FD200611E8C413D4E2243C5
:1027B00080193A430F261640042E47D18027FC0487
:1027C00014401DD0FF2838D0374B1A40031C01306D
:1027D000C6B2D208012E17DC002A06D0002B29D061
:1027E0008027FC03224351024A0ADBB2DB051A436D
:1027F000ED07101C2843F0BD802148000422FF2370
:10280000C6B2D208012EE7DD51024A0AEDE70028E0
:1028100006D132430120002A15D104220023EFE71C
:102820001643E9D08024A004D20080260243FF236F
:102830007000BFE75002420AD8E7FF230022D5E725
:10284000173305DA012005220023D9E70432B5E762
:102850008023164F19040A433C1A1F2C0DDC14491F
:10286000331C4718BE40301C461EB041BA40E340FE
:1028700002431A43012000239CE70E4B171C191A30
:10288000CF403B1C202C09D00B4C00198240324316
:10289000561EB2411A43012000238BE70022F6E7BF
:1028A00080FCFFFF81FCFFFFFFFFFFFB9E0300009A
:1028B00082FCFFFF7E030000A2FCFFFF1C2101231E
:1028C0001B04984201D3000C10391B0A984201D313
:1028D000000A08391B09984201D30009043902A2F1
:1028E000105C40187047C046040302020101010158
:0828F0000000000000000000E0
:1028F80020E7FF7F0100000034E7FF7F01000000B0
:10290800AC1B0010EE1C0010EE1C0010E61C0010A2
:10291800D41C0010D41C0010CC1C0010E61C0010A5
:10292800D41C0010CC1C0010D41C0010E61C001095
:10293800781C0010781C0010781C0010F21C001085
:10294800702200103C24001030250010CC24001008
:1029580030250010A624001030250010CC240010CB
:102968003C2400103C240010A6240010CC240010A5
:10297800522500105225001052250010382500104D
:102990002C488746000000000000000000000000F6
:1029A0000000000000000000000000000000000027
:1029B00025488746000000000000000023488746A5
:1029C0002348874623488746234887462348874627
:1029D0002348874623488746234887462348874617
:1029E0002348874600000000224887462248874641
:1029F00022488746224887462248874622488746FB
:102A000022488746224887462248874622488746EA
:102A100022488746224887462248874622488746DA
:102A200022488746224887462248874622488746CA
:102A30002248874622488746000000000000000028
:102A4000204887462B1200102D1200102F12001064
:102A5000311200103312001035120010371200101E
:102A6000391200103B1200103D1200103F120010EE
:102A7000411200105F12001061120010631200106A
:102A80006512001067120010691200104312001046
:102A90004512001047120010491200104B1200108E
:102AA0004D1200104F12001051120010531200105E
:102AB0005512001057120010591200105B1200102E
:082AC0005D1200106B12001002
:102AC8002379DDBEDE31D5BF1D57003E534A933E04
:102AD80093BF92BFEB6F983F8836983F5A251ABD2F
:102AE800DD92A73E9AD4323E89303FBE69CD393F48
:102AF800EA9B16BF51B90B405DAB0BBED254E93D02
:102B0800DC8B883F1ED1723D50E3C3BDDB1455BF3B
:102B180004BD963E0208ABBFF9DD363FE2D0CF3F99
:102B2800361831BFACA55B3F1E83A03F55FFCBBF16
:102B38008671B8BFBB36123FCDBDCCBEABA3303F0C
:082B480020000000BB68673F9C
:0400000510001019BE
:00000001FF
