:020000041000EA
:101000005009002019100010A9110010AB11001098
:1010100000000080000000800348854603488047A8
:101020000348804706E0000050090020ED11001041
:10103000C910001018481949194A002A0AD0042A70
:1010400000D20422920803680B60013A02D00430F7
:101050000431F8E713481449002909D0042900D2C3
:101060000421890800220260013901D00430FAE726
:101070000E480F490F4A920803680B60013A02D0EC
:1010800004300431F8E70C4880470C4885460020BE
:1010900000210B4A97460000F82D0010700900202F
:1010A00004000000500900201C000000C02C0010AB
:1010B0000C00002038010000F91100105009002038
:1010C000CD10001001207047C046704780B582B037
:1010D00000AF00237B604DE0294B7A689200D35823
:1010E000181C00F0CBF8021C264B1A60244B7A68BF
:1010F0009200D358181C00F06BF9021C224B1A60A6
:101100002049204A214B081C111C1A1C012300F005
:101110004BFA1D491C4A1E4B081C111C1A1C0123AA
:1011200000F042FA19491A4A1A4B081C111C1A1CE1
:10113000012300F0F7F9184B1A68164B1B68101CB6
:10114000191C00F0D3FE031C5B005B083B60386891
:10115000124900F0E1FA031C002B02D0104BFA22D6
:101160001A700F4B1B785BB2063300D1FEE77B6829
:1011700001337B600B4B1B687A689A42ACD3FEE765
:10118000D4230010500900206409002054090020D5
:101190005C0900205809002054240010BD37863512
:1011A0006009002070090020FEE7FEE7FEE7FEE789
:1011B000FEE7FEE7FEE7FEE7FEE7FEE7FEE7FEE707
:1011C000FEE7FEE7FEE7FEE7FEE7FEE7FEE7FEE7F7
:1011D000FEE7FEE7FEE7FEE7FEE7FEE7FEE7FEE7E7
:1011E000FEE7FEE7FEE7FEE7FEE7FEE780B500AFBD
:1011F000FFF768FFBD4680BD80B586B000AF1C4BD1
:101200001B683B613A69FF231B0213401B0AFB600A
:101210003A69FF231340BB60FB68002B1FD0BB68FB
:10122000002B06D11348F96800F000FA031C7B611B
:1012300017E0FB681A02BB68D3187B607B68FA2250
:101240001006191C00F0F2F9031C3B603B68FA22FF
:10125000920053437B617B695B0A7B6101E0054B34
:101260007B61054B7A691A60BD4606B080BDC046F9
:10127000000301400048E80168090020F0B55F461E
:1012800056464D464446F0B44D4983B0051C00F027
:10129000FDFC041C01F004F80021061C281C00F0D1
:1012A00027FA431E9841301A01F01AF8011C201C3D
:1012B00000F01CFE8721C90500F0E8FC071C00F0C7
:1012C0003FFA051C01F00CF8011C381C00F00EFE62
:1012D0008023041C580085426EDD051C394FA9008F
:1012E0007E180091201C211C00F0D0FCFC239905E5
:1012F000051C201C00F0CAFC33498246201C00F06B
:10130000C5FCFC2291058346281C00F0BFFC291C6B
:101310008146504600F0BAFC291C8046584600F031
:10132000B5FC211C071C484600F022FA291C01903C
:10133000404600F0DBFD051CFE205146800500F014
:10134000D5FD011C281C00F013FA716800F09EFC0A
:101350001E49051C201C00F099FC011C484600F0A9
:10136000C5FD391C00F0C2FD009C1649615800F013
:101370008DFC011C281C00F0FBF94146041C01985F
:1013800000F0B4FDB16800F081FC5946051C381C22
:1013900000F0ACFDF16800F079FC011C281C00F0A5
:1013A000E7F9011C201C00F0E3F903B03CBC9046B7
:1013B0009946A246AB46F0BDEA43D61735408DE7C5
:1013C00083F9223E58240010ABAA2A3EABAAAA3EBB
:1013D000F0B55F4656464D464446F0B44D4983B09D
:1013E000051C00F053FC041C00F05AFF0021061CF1
:1013F000281C00F07DF9431E9841301A00F070FF60
:10140000011C201C00F072FD8721C90500F03EFC84
:10141000071C00F095F9051C00F062FF011C381C48
:1014200000F064FD8023041C580085426EDD051C1D
:10143000394FA9007E180091201C211C00F026FCC9
:10144000FC239905051C201C00F020FC3349824632
:10145000201C00F01BFCFC2291058346281C00F098
:1014600015FC291C8146504600F010FC291C8046C2
:10147000584600F00BFC211C071C484600F078F988
:10148000291C0190404600F031FD051CFE2051460C
:10149000800500F02BFD011C281C00F069F9716823
:1014A00000F0F4FB1E49051C201C00F0EFFB011CA2
:1014B000484600F01BFD391C00F018FD009C164941
:1014C000615800F0E3FB011C281C00F051F9414673
:1014D000041C019800F00AFDB16800F0D7FB5946E2
:1014E000051C381C00F002FDF16800F0CFFB011C68
:1014F000281C00F03DF9011C201C00F039F903B054
:101500003CBC90469946A246AB46F0BDEA43D6178E
:1015100035408DE783F9223E68280010ABAA2A3EA9
:10152000ABAAAA3EF0B557464E464546E0B4141C59
:101530001F1E34D05A1E061C01230D1C924601CEDC
:101540001A4002CD904600F013F901C4504600281D
:1015500025D04146002908D001CE02CD00F008F97F
:10156000023F01C4BA46002F19D0371C2A1C043789
:101570000432043A043F02CA01CF00F0F9F8271CF4
:1015800001C76968706800F0F3F802236060584290
:1015900082445146083608353C1D0029E5D11CBC63
:1015A00090469946A246F0BDF0B557464E46454690
:1015B000E0B4141C1F1E34D05A1E061C01230D1C3F
:1015C000924601CE1A4002CD904600F05FFB01C466
:1015D0005046002825D04146002908D001CE02CD32
:1015E00000F054FB023F01C4BA46002F19D0371C4B
:1015F0002A1C04370432043A043F02CA01CF00F027
:1016000045FB271C01C76968706800F03FFB022397
:101610006060584282445146083608353C1D002916
:10162000E5D11CBC90469946A246F0BD002934D0B5
:101630000123002210B488422CD301242407A142A4
:1016400004D2814202D209011B01F8E7E400A14261
:1016500004D2814202D249005B00F8E7884201D3FC
:10166000401A1A434C08A04202D3001B5C082243D4
:101670008C08A04202D3001B9C082243CC08A04245
:1016800002D3001BDC082243002803D01B0901D031
:101690000909E3E7101C10BC7047002801D00020A6
:1016A000C04307B4024802A14018029003BDC046DF
:1016B000190000000029F0D003B5FFF7B9FF0EBCF8
:1016C0004243891A1847C0467047C0468446081CE2
:1016D0006146FFE71FB500F091FA002801D4002110
:1016E000C8421FBD10B500F019FA4042013010BDCC
:1016F00010B500F083FA002801DB002010BD0120A6
:1017000010BDC04610B500F079FA002801DD0020B8
:1017100010BD012010BDC04610B500F027FA00280A
:1017200001DC002010BD012010BDC04610B500F046
:101730001DFA002801DA002010BD012010BDC046AE
:101740009E2110B5C905041CFFF7F0FF002803D146
:10175000201C00F0A5FD10BD9E22201CD10500F02C
:10176000C5FB00F09DFD80231C060019F3E7C04671
:10177000F8B5430242004F024C00C00F9B09120E05
:10178000061C9C46240EC90FBF09884257D0151B62
:10179000002D00DC7EE0002C41D1002F64D0013D03
:1017A000002D00D0ABE0DB1B141C061C590144D5F6
:1017B0009A019509281C00F0E7FD05388540844210
:1017C00000DD79E0001B1F242B1C411C221ACB409A
:1017D00095401F1C2B1C5D1EAB413B430125002483
:1017E0000F201840042800D004338021CF040122A8
:1017F0001F401640002F05D0FF2D5AD0B34C234078
:101800002C1C0135EDB2DA08012D3BDD53025A0ADA
:10181000E4B2E4052243F607101C3043F8BDFF2A6A
:101820002BD08021CC04274301231B2D49DD6746A3
:10183000FB1A141C061C5901BAD4651CD0E7151BF1
:10184000002D4FDD002C13D0FF2A5AD08024E10454
:101850000F4301231B2D00DCB0E06344141C59012D
:1018600055D4651C061CBBE7551C141C061CB7E7A9
:10187000002F7CD1551C141CB2E7802763467D00E5
:10188000FF24ADE7002AC3D0002C28D08020C1035C
:101890000A43BBE7002D47D1501CC3B2012B00DC2B
:1018A00096E06446E51B680158D53D1B0E1C141CD0
:1018B00080E7FF240022ACE7844B241A2B40651CF0
:1018C0008EE73E1C2021EE404D1BAF403B1C5F1EAF
:1018D000BB4133436746FB1A141C061CABE7570297
:1018E0007A0A96E7002D7FD1541CE1B2012953DD1D
:1018F000FF2C00D19BE0FB185B08951C70E7FF2ACA
:1019000092D1061C802063464500FF2468E7671CCF
:10191000FF2F3CD06D4A01261E4013405B08334325
:10192000A51C061C3C1C5BE76842002A25D0FF2C46
:1019300070D08022D6041D1C3543AC4601261B28DE
:1019400009DC62462025C2402B1A60469840061CDE
:10195000701E86411643BB1B0E1C27E7141C002D6E
:1019600000D027E700260125042300244AE7013D93
:10197000002D08D1FB18141C71E7002B50D1651CF9
:101980003B1C0E1C2CE7FF2A00D062E7B9E780233E
:101990005D00FF24042335E7002A7CD1002B00D111
:1019A000A1E0002F00D1AFE0FB18590100D4B0E056
:1019B000464E022533400124061C11E73C1C20231F
:1019C000EC405D1BAF403B1C5F1EBB41234344E723
:1019D000002A12D16546002D41D1002FC2D03B1CF8
:1019E0000E1C01250024FBE66D42002A23D1002BAA
:1019F00066D1651C3B1C061CF2E66246002A38D103
:101A0000002F07D1802200265500314BFF24F9E634
:101A1000FF2C93D13B1C80270E1C7D00FF24DFE6AA
:101A200001380028F4D16646BB1B0E1CBEE6802799
:101A30007D000423E6E6FF2C5CD08022D1040B431A
:101A40009C4601231B2D08DC20216246EA406346A8
:101A50004D1BAB40591E8B411343DB19FFE6002F92
:101A600038D0EB1B5A014BD57B1B0E1C01250024E3
:101A7000B6E6002F00D100E78020D308C40323423C
:101A800004D0FF08274201D13B1C0E1C8021DB0043
:101A90004D00FF24A4E6002B20D0002F00D1ECE65F
:101AA0008022DE08D503311C2E4203D0F9082942DA
:101AB00000D0311C061C8020CB004500FF248FE69F
:101AC000013D002D14D1FB18C9E6C046FFFFFFFB06
:101AD000FCFFFF0363460125002481E680246500A6
:101AE0003B1CFF247CE63B1C061C0125002477E6FA
:101AF000FF2CA6D13B1C8027061C7D00FF246FE62F
:101B0000002B00D12EE769E66346061C0125002460
:101B100066E6061C0125002462E6C0464302420038
:101B200070B55C0AC60F130E48024A00450A120E31
:101B3000C90FFF2B05D0FF2A08D0012093420BD0FC
:101B400070BD0120002CFBD1FF2AF6D10120002D11
:101B5000F6D101209342F3D1AC42F1D18E4203D0B1
:101B6000002BEDD1002CEBD10020E9E7F0B54302CA
:101B700042004F00C60F48025C0A450A130EC90F07
:101B80003A0EFF2B26D0FF2A29D0002B0CD1604221
:101B900060418446002A0AD0002816D18E4221D006
:101BA000002E14D1012014E0002AF7D194466F4290
:101BB0006F416046002805D1002FEFD00120002E94
:101BC00007D004E00020002F03D10029EAD1012131
:101BD0004842F0BD002CD6D002225042F9E7002D39
:101BE000D3D0F9E79342DBDC04DBAC42D8D8002049
:101BF000AC42EED2002EEAD00120EAE7F0B5430273
:101C000042004F00C60F48025C0A450A130EC90F76
:101C10003A0EFF2B26D0FF2A28D0002B0FD0002A07
:101C200014D194466F426F416046002814D00020C2
:101C3000002F03D100290DD101214842F0BD60429F
:101C400060418446002AEDD00028F3D18E4211D0A5
:101C5000002EF1D10120F1E7002FF7D00120002E56
:101C6000ECD0E9E70220002CE8D1D4E70220002DD7
:101C7000E4D1D2E79342EBDC04DBAC42E8D80020AD
:101C8000AC42DBD2002ED7D00120D7E7F0B55F46BB
:101C900056464D464446F0B44502460083B00F1CFC
:101CA0006D0A360EC40F002E06D1002D70D104210E
:101CB00001228846924609E0FF2E43D08023180473
:101CC00000210543ED007F3E88468A46381C4300CC
:101CD0007F02C10F7F0A1B0E8B463AD10121002FD4
:101CE00062D158466040424601900A430F2A3FD9CC
:101CF0002C04F018260C3B041A0C311C51433F0CE9
:101D00002D0C7E436A438146080C36182C1CB318F0
:101D10007C439A4200D99AE009041D04080C2E184D
:101D2000B5011B0C691E8D41B20EE7181543BC01AD
:101D300025432B014BD50120284001216D08894402
:101D4000054344E0002D1ED10820022180468A462A
:101D5000BCE7FF2B12D08022100407435846002115
:101D600060404246FF007F3B01900A430F2ABFD8E4
:101D700090005B4A8446624410688746391C4A1EBC
:101D800091410231ADE70C22032390469A469DE72C
:101D9000281C00F0F9FA7622461F5342B5401E1A5D
:101DA00000208046824691E7381C00F0EDFA76214B
:101DB000431F4A429F400021131A92E70194514663
:101DC00002292CD0032900D180E0012948D04E46B9
:101DD0007F36002E51DD0F242C40042C00D004351A
:101DE0002A0103D53F494E460D408036FE2E3DDD8B
:101DF000019B01241C40FF210025C805E207284360
:101E0000104303B03CBC90469946A246AB46F0BD99
:101E10000024354DFF21F0E751460229D2D1019D22
:101E200001242C40FF210025E7E75E463D1C01967A
:101E3000C6E73D1CC4E78026F3031D420BD01F42BA
:101E400009D11F437A02550A5C46FF21D5E780225B
:101E50005702E41960E71D436F027D0AFF21CCE7BA
:101E6000019B00251940CCB20021C6E70198AD01C5
:101E700001246D0AF1B20440BFE77E2673424A4650
:101E80009F1A1B2F05DD019D01242C4000210025F8
:101E9000B3E749469E312C1C8D402E1CFC40751E1C
:101EA000AE4126430F203040042800D00436700194
:101EB00005D5019F01243C40012100259DE7019AA1
:101EC000B30101245D0A1440002196E78022D0036B
:101ED00005436C020199650A01240C40FF218CE73F
:101EE000742C0010FFFFFFF7FFFF7F00F8B54302DF
:101EF00045004F024C00C20F980984462D0E200E5B
:101F0000C90FBF09FF2854D0012671408A423BD037
:101F10002C1A002C00DC89E0002825D1002F4BD1A1
:101F20006E1C2C1C6346151C0F221A40042A00D07C
:101F300004338027F904012219402A40002906D0E1
:101F4000FF2E00D181E0B14D341C2B400136F6B29A
:101F5000DD08012E62DD6B025D0AE4B2E405254373
:101F6000281CD2071043F8BDFF2D51D08021CB048F
:101F70001F4301261B2C70DD67462C1CBB1B151C48
:101F8000580122D4661CCFE72E1A002E76DD0028D9
:101F900032D0FF2D3CD08024E1040F4301231B2EBF
:101FA00000DCD1E063442C1C58017AD4661C151C5B
:101FB000BAE7002FAAD1A7E7013C002C6DD16346F8
:101FC0002C1CDB1B151C5801DCD59A019609301C12
:101FD00000F0DAF905388640844239DC001B1F2303
:101FE0001A1A331C311C441C9340E1405E1EB3415D
:101FF0000B430126002497E7002F00D190E7013E14
:10200000002E03D164463B192C1CCDE7FF2DC5D112
:10201000151C802263465600FF2485E7002D9CD0C6
:10202000002C28D08020C7033D4394E7002C45D1E5
:102030006B1CD8B2012800DC90E06446E61B7301FB
:1020400057D53E1B2C1C0D1CC1E7FF24002585E73E
:102050006E4B241A3340661C66E7381C2021E04092
:102060000C1BA7403E1C771EBE41064367462C1C36
:10207000BB1B151C84E769024D0A6FE7002E79D15E
:102080006C1CE0B201284BDDFF2C00D198E06146CA
:102090007F18AE1C7B08151C46E7FF2D00D068E7B3
:1020A000B6E7671CFF2F36D058480121194003407E
:1020B0005B08A61C0B433C1C151C35E76642002D33
:1020C0001ED0FF286FD080256246EB041A43944649
:1020D00001251B2E09DC62462023F24064469E1B2C
:1020E000B440251C6C1EA54115437B1B041C0D1C14
:1020F00069E7002E0CD1002201260423002426E7E4
:102100006446002C55D1461C3B1C041C0D1C0BE7DF
:102110002C1C151C5BE780235E00FF24042316E7BC
:10212000002D00D08DE06546002D00D1ADE0002FE0
:1021300000D181E07B195C0100D47EE0334F151C97
:102140003B4002260124EFE6381C2023F0409E1B72
:10215000B7403B1C5F1EBB41034323E7002D15D155
:102160006546002D47D1002FC5D03B1C0D1C012614
:102170000024D9E67642002D26D16546002D00D0F8
:102180007DE0461C3B1C041C151CCDE66546002D5D
:1021900040D1002F07D1802100224E001C4BFF248C
:1021A000D5E6FF2894D180203B1C0D1C4600FF245F
:1021B000BAE6013E002EF4D13B1B0D1C041C02E7C5
:1021C00080256E000423C2E6FF2852D08024614699
:1021D000E30419438C4601231B2E09DC20216446AD
:1021E000F44065468E1BB5402B1C591E8B41234382
:1021F000DB19041CD8E6002F1ED0EB1B58014BD571
:102200007B1B01260D1C00248EE6C046FFFFFFFB52
:10221000FCFFFF03002F00D1FAE68020EB08C40387
:10222000234237D0FF08274234D13B1C0D1C8022AB
:10223000DB005600FF2477E66346151C01260024C8
:1022400072E66446002C14D0002F00D1E0E6802313
:10225000E608D803311C064203D0F908014200D039
:10226000311C151C8022CB005600FF245CE6FF28A1
:10227000B1D180203B1C151C4600FF2454E6013ED2
:10228000002EF4D17B19041C8EE63B1C151C012684
:10229000002449E6151CCAE7002B00D12BE7CCE748
:1022A00043024200590A130EC20F00207E2B0DDD9F
:1022B0009D2B0CDC802000040143952B0ADC96202A
:1022C000C31AD9404842002A00D1081C704703496C
:1022D0005018FBE7963B9940F4E7C046FFFFFF7FAD
:1022E00070B5041E3CD0C50F00D04442201C00F045
:1022F0004BF89E21261C0B1A962B0ADC08388440CA
:1023000061024C0ADBB2DB051C43ED07201C2843AD
:1023100070BD992B0ADD0522141A311CE140041C02
:102320001B34A6400A1C711E8E41164305281BDC77
:10233000144C0F2234401640042E00D004346201A5
:1023400005D59F231B1AFF2B0CD00E4804405E1CA2
:10235000F1B2E40801290ADD6402640ADBB2D2E7C3
:10236000002500230024CEE7411F8E40E0E7002C2B
:10237000F4D0002B03D08022D0030443ECE76602A4
:10238000740AC0E7FFFFFFFB1C2101231B049842D6
:1023900001D3000C10391B0A984201D3000A0839F6
:1023A0001B09984201D30009043902A2105C4018AD
:1023B0007047C04604030202010101010000000051
:0423C0000000000019
:1023C40054ECFF7F0100000068ECFF7F0100000077
:1023D40070599FBFA16499C054AEB83E32F3533FC5
:1023E400892B53C0355B5B40A1085B40ACD0DDBD9D
:1023F4003C23713F05AB003F768F09BF2FAF0540EB
:10240400C0B9D8BFDB0FC940C6FBC8BE9BE1A73E1D
:102414004C7D4440C2B42E3EDBF08CBEC14F19C08B
:1024240062E9583FF31C76C087920340E4859540E7
:1024340091D6FEBF19091E40E6F966408CC692C0CB
:10244400E1B484C09F66D23F974F93BFDC2EFE3F1A
:102454000000803F43EC7F3F0000803F43EC7F3F20
:102464000FB17F3F6D4E7F3F6DC47E3F24137E3F8F
:10247400AC3A7D3F283B7C3FBE147B3F9DC7793FF0
:10248400F853783F07BA763F0BFA743F4714733F0B
:102494000809713F9ED86E3F5E836C3FA7096A3F6F
:1024A400D86B673F59AA643F98C5613F05BE5E3F3C
:1024B4001A945B3F5348583F31DB543F3D4D513FE5
:1024C400029F4D3F12D1493F03E4453F70D8413F3D
:1024D400F9AE3D3F4268393FF304353FBB85303F99
:1024E4004AEB2B3F5636273F9967223FD17F1D3F4A
:1024F400C07F183F2A68133FDA390E3F9BF5083F27
:102504003D9C033F275DFC3EEA5AF13E7533E63EAF
:1025140080E8DA3ECA7BCF3E15EFC33E2A44B83E7C
:10252400D47CAC3EE59AA03E31A0943E938E883E86
:10253400CCCF783E135C603EC2C5473EA2102F3E0E
:102544008340163E73B2FA3D36BDC83D05A9963D9B
:1025540030FB483DB00AC93C0BA88C24B00AC9BC66
:1025640030FB48BD05A996BD36BDC8BD73B2FABDE2
:10257400834016BEA2102FBEC2C547BE135C60BE08
:10258400CCCF78BE938E88BE31A094BEE59AA0BE0F
:10259400D47CACBE2A44B8BE15EFC3BECA7BCFBE42
:1025A40080E8DABE7533E6BEEA5AF1BE275DFCBEAA
:1025B4003D9C03BF9BF508BFDA390EBF2A6813BFE1
:1025C400C07F18BFD17F1DBF996722BF563627BF72
:1025D4004AEB2BBFBB8530BFF30435BF426839BF1C
:1025E400F9AE3DBF70D841BF03E445BF12D149BF26
:1025F400029F4DBF3D4D51BF31DB54BF534858BFBF
:102604001A945BBF05BE5EBF98C561BF59AA64BF7B
:10261400D86B67BFA7096ABF5E836CBF9ED86EBFC5
:10262400080971BF471473BF0BFA74BF07BA76BFAA
:10263400F85378BF9DC779BFBE147BBF283B7CBFCE
:10264400AC3A7DBF24137EBF6DC47EBF6D4E7FBF89
:102654000FB17FBF43EC7FBF000080BF43EC7FBF5F
:102664000FB17FBF6D4E7FBF6DC47EBF24137EBF8D
:10267400AC3A7DBF283B7CBFBE147BBF9DC779BFEE
:10268400F85378BF07BA76BF0BFA74BF471473BF09
:10269400080971BF9ED86EBF5E836CBFA7096ABF6D
:1026A400D86B67BF59AA64BF98C561BF05BE5EBF3A
:1026B4001A945BBF534858BF31DB54BF3D4D51BFE3
:1026C400029F4DBF12D149BF03E445BF70D841BF3B
:1026D400F9AE3DBF426839BFF30435BFBB8530BF97
:1026E4004AEB2BBF563627BF996722BFD17F1DBF48
:1026F400C07F18BF2A6813BFDA390EBF9BF508BF25
:102704003D9C03BF275DFCBEEA5AF1BE7533E6BEAD
:1027140080E8DABECA7BCFBE15EFC3BE2A44B8BE7A
:10272400D47CACBEE59AA0BE31A094BE938E88BE84
:10273400CCCF78BE135C60BEC2C547BEA2102FBE0C
:10274400834016BE73B2FABD36BDC8BD05A996BD99
:1027540030FB48BDB00AC9BC372354A5B00AC93CF4
:1027640030FB483D05A9963D36BDC83D73B2FA3DE0
:102774008340163EA2102F3EC2C5473E135C603E06
:10278400CCCF783E938E883E31A0943EE59AA03E0D
:10279400D47CAC3E2A44B83E15EFC33ECA7BCF3E40
:1027A40080E8DA3E7533E63EEA5AF13E275DFC3EA8
:1027B4003D9C033F9BF5083FDA390E3F2A68133FDF
:1027C400C07F183FD17F1D3F9967223F5636273F70
:1027D4004AEB2B3FBB85303FF304353F4268393F1A
:1027E400F9AE3D3F70D8413F03E4453F12D1493F24
:1027F400029F4D3F3D4D513F31DB543F5348583FBD
:102804001A945B3F05BE5E3F98C5613F59AA643F79
:10281400D86B673FA7096A3F5E836C3F9ED86E3FC3
:102824000809713F4714733F0BFA743F07BA763FA8
:10283400F853783F9DC7793FBE147B3F283B7C3FCC
:10284400AC3A7D3F24137E3F6DC47E3F6D4E7F3F87
:102854000FB17F3F43EC7F3F0000803F43EC7F3F5D
:102864000FB17F3FB00AC9BC00000000B00AC93CE8
:1028740030FB483D05A9963D36BDC83D73B2FA3DCF
:102884008340163EA2102F3EC2C5473E135C603EF5
:10289400CCCF783E938E883E31A0943EE59AA03EFC
:1028A400D47CAC3E2A44B83E15EFC33ECA7BCF3E2F
:1028B40080E8DA3E7533E63EEA5AF13E275DFC3E97
:1028C4003D9C033F9BF5083FDA390E3F2A68133FCE
:1028D400C07F183FD17F1D3F9967223F5636273F5F
:1028E4004AEB2B3FBB85303FF304353F4268393F09
:1028F400F9AE3D3F70D8413F03E4453F12D1493F13
:10290400029F4D3F3D4D513F31DB543F5348583FAB
:102914001A945B3F05BE5E3F98C5613F59AA643F68
:10292400D86B673FA7096A3F5E836C3F9ED86E3FB2
:102934000809713F4714733F0BFA743F07BA763F97
:10294400F853783F9DC7793FBE147B3F283B7C3FBB
:10295400AC3A7D3F24137E3F6DC47E3F6D4E7F3F76
:102964000FB17F3F43EC7F3F0000803F43EC7F3F4C
:102974000FB17F3F6D4E7F3F6DC47E3F24137E3F7A
:10298400AC3A7D3F283B7C3FBE147B3F9DC7793FDB
:10299400F853783F07BA763F0BFA743F4714733FF6
:1029A4000809713F9ED86E3F5E836C3FA7096A3F5A
:1029B400D86B673F59AA643F98C5613F05BE5E3F27
:1029C4001A945B3F5348583F31DB543F3D4D513FD0
:1029D400029F4D3F12D1493F03E4453F70D8413F28
:1029E400F9AE3D3F4268393FF304353FBB85303F84
:1029F4004AEB2B3F5636273F9967223FD17F1D3F35
:102A0400C07F183F2A68133FDA390E3F9BF5083F11
:102A14003D9C033F275DFC3EEA5AF13E7533E63E9A
:102A240080E8DA3ECA7BCF3E15EFC33E2A44B83E67
:102A3400D47CAC3EE59AA03E31A0943E938E883E71
:102A4400CCCF783E135C603EC2C5473EA2102F3EF9
:102A54008340163E73B2FA3D36BDC83D05A9963D86
:102A640030FB483DB00AC93C0BA80C25B00AC9BCD0
:102A740030FB48BD05A996BD36BDC8BD73B2FABDCD
:102A8400834016BEA2102FBEC2C547BE135C60BEF3
:102A9400CCCF78BE938E88BE31A094BEE59AA0BEFA
:102AA400D47CACBE2A44B8BE15EFC3BECA7BCFBE2D
:102AB40080E8DABE7533E6BEEA5AF1BE275DFCBE95
:102AC4003D9C03BF9BF508BFDA390EBF2A6813BFCC
:102AD400C07F18BFD17F1DBF996722BF563627BF5D
:102AE4004AEB2BBFBB8530BFF30435BF426839BF07
:102AF400F9AE3DBF70D841BF03E445BF12D149BF11
:102B0400029F4DBF3D4D51BF31DB54BF534858BFA9
:102B14001A945BBF05BE5EBF98C561BF59AA64BF66
:102B2400D86B67BFA7096ABF5E836CBF9ED86EBFB0
:102B3400080971BF471473BF0BFA74BF07BA76BF95
:102B4400F85378BF9DC779BFBE147BBF283B7CBFB9
:102B5400AC3A7DBF24137EBF6DC47EBF6D4E7FBF74
:102B64000FB17FBF43EC7FBF000080BF43EC7FBF4A
:102B74000FB17FBF6D4E7FBF6DC47EBF24137EBF78
:102B8400AC3A7DBF283B7CBFBE147BBF9DC779BFD9
:102B9400F85378BF07BA76BF0BFA74BF471473BFF4
:102BA400080971BF9ED86EBF5E836CBFA7096ABF58
:102BB400D86B67BF59AA64BF98C561BF05BE5EBF25
:102BC4001A945BBF534858BF31DB54BF3D4D51BFCE
:102BD400029F4DBF12D149BF03E445BF70D841BF26
:102BE400F9AE3DBF426839BFF30435BFBB8530BF82
:102BF4004AEB2BBF563627BF996722BFD17F1DBF33
:102C0400C07F18BF2A6813BFDA390EBF9BF508BF0F
:102C14003D9C03BF275DFCBEEA5AF1BE7533E6BE98
:102C240080E8DABECA7BCFBE15EFC3BE2A44B8BE65
:102C3400D47CACBEE59AA0BE31A094BE938E88BE6F
:102C4400CCCF78BE135C60BEC2C547BEA2102FBEF7
:102C5400834016BE73B2FABD36BDC8BD05A996BD84
:102C640030FB48BDB00AC9BC9E3B8DA5B00AC93C27
:102C7400F01C0010321E0010321E00102A1E00101C
:102C8400181E0010181E0010101E00102A1E00101E
:102C9400181E0010101E0010181E00102A1E00100E
:102CA400BC1D0010BC1D0010BC1D0010361E001001
:102CC0002C488746000000000000000000000000C3
:102CD00000000000000000000000000000000000F4
:102CE0002548874600000000000000002348874672
:102CF00023488746234887462348874623488746F4
:102D000023488746234887462348874623488746E3
:102D1000234887460000000022488746224887460D
:102D200022488746224887462248874622488746C7
:102D300022488746224887462248874622488746B7
:102D400022488746224887462248874622488746A7
:102D50002248874622488746224887462248874697
:102D600022488746224887460000000000000000F5
:102D700020488746AB110010AD110010AF110010B4
:102D8000B1110010B3110010B5110010B7110010EF
:102D9000B9110010BB110010BD110010BF110010BF
:102DA000C1110010DF110010E1110010E31100103B
:102DB000E5110010E7110010E9110010C311001017
:102DC000C5110010C7110010C9110010CB1100105F
:102DD000CD110010CF110010D1110010D31100102F
:102DE000D5110010D7110010D9110010DB110010FF
:082DF000DD110010EB110010D1
:042DF80020000000B7
:0400000510001019BE
:00000001FF
