:020000041000EA
:101000005009002019100010651100106711001020
:1010100000000080000000800348854603488047A8
:101020000348804706E0000050090020A911001085
:10103000C910001018481949194A002A0AD0042A70
:1010400000D20422920803680B60013A02D00430F7
:101050000431F8E713481449002909D0042900D2C3
:101060000421890800220260013901D00430FAE726
:101070000E480F490F4A920803680B60013A02D0EC
:1010800004300431F8E70C4880470C4885460020BE
:1010900000210B4A9746000048210010E00900207B
:1010A00004010000500900208C00000010200010F6
:1010B0000C00002038010000B5110010500900207C
:1010C000CD10001001207047C046704780B582B037
:1010D00000AF1D491D4A1E4B081C111C1A1C202361
:1010E00000F0ECF800237B600EE07B689A00184B60
:1010F000D2181849174B081C111C1A1C012300F0A8
:101100009BF87B6801337B607B681F2BEDD9124B0A
:101110001A68104B1B68101C191C00F059FD031CA9
:101120005B005B083B6038680C4900F07FF9031CEA
:10113000002B02D00A4BFA221A70094B1B785BB2C3
:10114000063300D1FEE7FEE7E0090020600A002038
:1011500050090020D0090020E00A0020BD37863564
:10116000D4090020FEE7FEE7FEE7FEE7FEE7FEE724
:10117000FEE7FEE7FEE7FEE7FEE7FEE7FEE7FEE747
:10118000FEE7FEE7FEE7FEE7FEE7FEE7FEE7FEE737
:10119000FEE7FEE7FEE7FEE7FEE7FEE7FEE7FEE727
:1011A000FEE7FEE7FEE7FEE780B500AFFFF78AFF48
:1011B000BD4680BD80B586B000AF1C4B1B683B614F
:1011C0003A69FF231B0213401B0AFB603A69FF23A5
:1011D0001340BB60FB68002B1FD0BB68002B06D1FF
:1011E0001348F96800F0ACF8031C7B6117E0FB685A
:1011F0001A02BB68D3187B607B68FA221006191CA0
:1012000000F09EF8031C3B603B68FA2292005343B7
:101210007B617B695B0A7B6101E0054B7B61054B70
:101220007A691A60BD4606B080BDC0460003014021
:101230000048E801D8090020F0B557464E4645461B
:10124000E0B4141C1F1E34D05A1E061C01230D1CB2
:10125000924601CE1A4002CD904600F0FBF801C440
:101260005046002825D04146002908D001CE02CDA5
:1012700000F0F0F8023F01C4BA46002F19D0371C25
:101280002A1C04370432043A043F02CA01CF00F09A
:10129000E1F8271C01C76968706800F0DBF80223D9
:1012A0006060584282445146083608353C1D00298A
:1012B000E5D11CBC90469946A246F0BDF0B5574614
:1012C0004E464546E0B4141C1F1E34D05A1E061C60
:1012D00001230D1C924601CE1A4002CD904600F02B
:1012E00047FB01C45046002825D04146002908D0BC
:1012F00001CE02CD00F03CFB023F01C4BA46002FF4
:1013000019D0371C2A1C04370432043A043F02CA9D
:1013100001CF00F02DFB271C01C76968706800F041
:1013200027FB022360605842824451460836083544
:101330003C1D0029E5D11CBC90469946A246F0BD53
:10134000002934D00123002210B488422CD3012478
:101350002407A14204D2814202D209011B01F8E70D
:10136000E400A14204D2814202D249005B00F8E7C6
:10137000884201D3401A1A434C08A04202D3001BF2
:101380005C0822438C08A04202D3001B9C08224325
:10139000CC08A04202D3001BDC082243002803D063
:1013A0001B0901D00909E3E7101C10BC7047002895
:1013B00001D00020C04307B4024802A140180290A7
:1013C00003BDC046190000000029F0D003B5FFF7A7
:1013D000B9FF0EBC4243891A1847C0467047C04641
:1013E0008446081C6146FFE71FB500F079FA002823
:1013F00001D40021C8421FBD10B500F001FA4042DF
:10140000013010BD10B500F06BFA002801DB0020A0
:1014100010BD012010BDC04610B500F061FA0028D3
:1014200001DD002010BD012010BDC04610B500F048
:101430000FFA002801DC002010BD012010BDC046BD
:1014400010B500F005FA002801DA002010BD0120D7
:1014500010BDC046F8B5430242004F024C00C00F19
:101460009B09120E061C9C46240EC90FBF09884218
:1014700057D0151B002D00DC7EE0002C41D1002F41
:1014800064D0013D002D00D0ABE0DB1B141C061C1A
:10149000590144D59A019509281C00F073FD0538BF
:1014A0008540844200DD79E0001B1F242B1C411C79
:1014B000221ACB4095401F1C2B1C5D1EAB413B43A9
:1014C000012500240F201840042800D00433802177
:1014D000CF0401221F401640002F05D0FF2D5AD007
:1014E000B34C23402C1C0135EDB2DA08012D3BDD55
:1014F00053025A0AE4B2E4052243F607101C3043B3
:10150000F8BDFF2A2BD08021CC04274301231B2DBB
:1015100049DD6746FB1A141C061C5901BAD4651C28
:10152000D0E7151B002D4FDD002C13D0FF2A5AD019
:101530008024E1040F4301231B2D00DCB0E0634451
:10154000141C590155D4651C061CBBE7551C141C02
:10155000061CB7E7002F7CD1551C141CB2E780276E
:1015600063467D00FF24ADE7002AC3D0002C28D0BD
:101570008020C1030A43BBE7002D47D1501CC3B2F2
:10158000012B00DC96E06446E51B680158D53D1B45
:101590000E1C141C80E7FF240022ACE7844B241AA5
:1015A0002B40651C8EE73E1C2021EE404D1BAF40BA
:1015B0003B1C5F1EBB4133436746FB1A141C061CD1
:1015C000ABE757027A0A96E7002D7FD1541CE1B2AF
:1015D000012953DDFF2C00D19BE0FB185B08951C13
:1015E00070E7FF2A92D1061C802063464500FF2445
:1015F00068E7671CFF2F3CD06D4A01261E40134050
:101600005B083343A51C061C3C1C5BE76842002AB0
:1016100025D0FF2C70D08022D6041D1C3543AC464B
:1016200001261B2809DC62462025C2402B1A604691
:101630009840061C701E86411643BB1B0E1C27E7F4
:10164000141C002D00D027E70026012504230024C8
:101650004AE7013D002D08D1FB18141C71E7002B4F
:1016600050D1651C3B1C0E1C2CE7FF2A00D062E702
:10167000B9E780235D00FF24042335E7002A7CD1ED
:10168000002B00D1A1E0002F00D1AFE0FB185901E1
:1016900000D4B0E0464E022533400124061C11E779
:1016A0003C1C2023EC405D1BAF403B1C5F1EBB413C
:1016B000234344E7002A12D16546002D41D1002F73
:1016C000C2D03B1C0E1C01250024FBE66D42002A03
:1016D00023D1002B66D1651C3B1C061CF2E662463A
:1016E000002A38D1002F07D1802200265500314B27
:1016F000FF24F9E6FF2C93D13B1C80270E1C7D00B4
:10170000FF24DFE601380028F4D16646BB1B0E1C1F
:10171000BEE680277D000423E6E6FF2C5CD0802215
:10172000D1040B439C4601231B2D08DC202162467B
:10173000EA4063464D1BAB40591E8B411343DB19F6
:10174000FFE6002F38D0EB1B5A014BD57B1B0E1C3C
:1017500001250024B6E6002F00D100E78020D30841
:10176000C403234204D0FF08274201D13B1C0E1CB6
:101770008021DB004D00FF24A4E6002B20D0002FA9
:1017800000D1ECE68022DE08D503311C2E4203D0C6
:10179000F908294200D0311C061C8020CB004500EE
:1017A000FF248FE6013D002D14D1FB18C9E6C04689
:1017B000FFFFFFFBFCFFFF0363460125002481E6DA
:1017C000802465003B1CFF247CE63B1C061C012595
:1017D000002477E6FF2CA6D13B1C8027061C7D0049
:1017E000FF246FE6002B00D12EE769E66346061C56
:1017F0000125002466E6061C0125002462E6C04699
:101800004302420070B55C0AC60F130E48024A003C
:10181000450A120EC90FFF2B05D0FF2A08D0012060
:1018200093420BD070BD0120002CFBD1FF2AF6D1D2
:101830000120002DF6D101209342F3D1AC42F1D129
:101840008E4203D0002BEDD1002CEBD10020E9E734
:10185000F0B5430242004F00C60F48025C0A450A39
:10186000130EC90F3A0EFF2B26D0FF2A29D0002BCA
:101870000CD1604260418446002A0AD0002816D16B
:101880008E4221D0002E14D1012014E0002AF7D17D
:1018900094466F426F416046002805D1002FEFD07B
:1018A0000120002E07D004E00020002F03D10029E2
:1018B000EAD101214842F0BD002CD6D0022250428C
:1018C000F9E7002DD3D0F9E79342DBDC04DBAC422F
:1018D000D8D80020AC42EED2002EEAD00120EAE7B0
:1018E000F0B5430242004F00C60F48025C0A450AA9
:1018F000130EC90F3A0EFF2B26D0FF2A28D0002B3B
:101900000FD0002A14D194466F426F4160460028E0
:1019100014D00020002F03D100290DD1012148420D
:10192000F0BD604260418446002AEDD00028F3D12A
:101930008E4211D0002EF1D10120F1E7002FF7D017
:101940000120002EECD0E9E70220002CE8D1D4E7FA
:101950000220002DE4D1D2E79342EBDC04DBAC4261
:10196000E8D80020AC42DBD2002ED7D00120D7E748
:10197000F0B55F4656464D464446F0B44502460033
:1019800083B00F1C6D0A360EC40F002E06D1002D39
:1019900070D1042101228846924609E0FF2E43D0EF
:1019A0008023180400210543ED007F3E88468A46C7
:1019B000381C43007F02C10F7F0A1B0E8B463AD1B1
:1019C0000121002F62D158466040424601900A43EF
:1019D0000F2A3FD92C04F018260C3B041A0C311C9A
:1019E00051433F0C2D0C7E436A438146080C361848
:1019F0002C1CB3187C439A4200D99AE009041D04B8
:101A0000080C2E18B5011B0C691E8D41B20EE7188B
:101A10001543BC0125432B014BD501202840012152
:101A20006D088944054344E0002D1ED108200221A1
:101A300080468A46BCE7FF2B12D080221004074361
:101A40005846002160404246FF007F3B01900A4318
:101A50000F2ABFD890005B4A8446624410688746CC
:101A6000391C4A1E91410231ADE70C2203239046F6
:101A70009A469DE7281C00F085FA7622461F5342BD
:101A8000B5401E1A00208046824691E7381C00F0BF
:101A900079FA7621431F4A429F400021131A92E7A8
:101AA0000194514602292CD0032900D180E001295C
:101AB00048D04E467F36002E51DD0F242C40042C9A
:101AC00000D004352A0103D53F494E460D408036EB
:101AD000FE2E3DDD019B01241C40FF210025C80591
:101AE000E2072843104303B03CBC90469946A24607
:101AF000AB46F0BD0024354DFF21F0E751460229E9
:101B0000D2D1019D01242C40FF210025E7E75E464C
:101B10003D1C0196C6E73D1CC4E78026F3031D4229
:101B20000BD01F4209D11F437A02550A5C46FF21A0
:101B3000D5E780225702E41960E71D436F027D0A52
:101B4000FF21CCE7019B00251940CCB20021C6E75C
:101B50000198AD0101246D0AF1B20440BFE77E2671
:101B600073424A469F1A1B2F05DD019D01242C401C
:101B700000210025B3E749469E312C1C8D402E1CC8
:101B8000FC40751EAE4126430F203040042800D093
:101B90000436700105D5019F01243C400121002538
:101BA0009DE7019AB30101245D0A1440002196E7E4
:101BB0008022D00305436C020199650A01240C4080
:101BC000FF218CE7D01F0010FFFFFFF7FFFF7F0012
:101BD000F8B5430245004F024C00C20F98098446F5
:101BE0002D0E200EC90FBF09FF2854D001267140C9
:101BF0008A423BD02C1A002C00DC89E0002825D139
:101C0000002F4BD16E1C2C1C6346151C0F221A4052
:101C1000042A00D004338027F904012219402A4005
:101C2000002906D0FF2E00D181E0B14D341C2B409D
:101C30000136F6B2DD08012E62DD6B025D0AE4B208
:101C4000E4052543281CD2071043F8BDFF2D51D0D1
:101C50008021CB041F4301261B2C70DD67462C1C02
:101C6000BB1B151C580122D4661CCFE72E1A002E70
:101C700076DD002832D0FF2D3CD08024E1040F43D4
:101C800001231B2E00DCD1E063442C1C58017AD4C4
:101C9000661C151CBAE7002FAAD1A7E7013C002C4F
:101CA0006DD163462C1CDB1B151C5801DCD59A0139
:101CB0009609301C00F066F905388640844239DC0C
:101CC000001B1F231A1A331C311C441C9340E14093
:101CD0005E1EB3410B430126002497E7002F00D17D
:101CE00090E7013E002E03D164463B192C1CCDE742
:101CF000FF2DC5D1151C802263465600FF2485E7C1
:101D0000002D9CD0002C28D08020C7033D4394E7B1
:101D1000002C45D16B1CD8B2012800DC90E0644651
:101D2000E61B730157D53E1B2C1C0D1CC1E7FF247D
:101D3000002585E76E4B241A3340661C66E7381C85
:101D40002021E0400C1BA7403E1C771EBE410643ED
:101D500067462C1CBB1B151C84E769024D0A6FE704
:101D6000002E79D16C1CE0B201284BDDFF2C00D194
:101D700098E061467F18AE1C7B08151C46E7FF2DD6
:101D800000D068E7B6E7671CFF2F36D0584801211E
:101D9000194003405B08A61C0B433C1C151C35E78F
:101DA0006642002D1ED0FF286FD080256246EB04CE
:101DB0001A43944601251B2E09DC62462023F2407B
:101DC00064469E1BB440251C6C1EA54115437B1B1D
:101DD000041C0D1C69E7002E0CD1002201260423EF
:101DE000002426E76446002C55D1461C3B1C041CED
:101DF0000D1C0BE72C1C151C5BE780235E00FF24E9
:101E0000042316E7002D00D08DE06546002D00D19B
:101E1000ADE0002F00D181E07B195C0100D47EE0B1
:101E2000334F151C3B4002260124EFE6381C2023CB
:101E3000F0409E1BB7403B1C5F1EBB41034323E7A2
:101E4000002D15D16546002D47D1002FC5D03B1C74
:101E50000D1C01260024D9E67642002D26D16546C8
:101E6000002D00D07DE0461C3B1C041C151CCDE65B
:101E70006546002D40D1002F07D1802100224E0061
:101E80001C4BFF24D5E6FF2894D180203B1C0D1C61
:101E90004600FF24BAE6013E002EF4D13B1B0D1C88
:101EA000041C02E780256E000423C2E6FF2852D0FE
:101EB00080246146E30419438C4601231B2E09DC70
:101EC00020216446F44065468E1BB5402B1C591EEC
:101ED0008B412343DB19041CD8E6002F1ED0EB1BDB
:101EE00058014BD57B1B01260D1C00248EE6C046F5
:101EF000FFFFFFFBFCFFFF03002F00D1FAE680206D
:101F0000EB08C403234237D0FF08274234D13B1CDF
:101F10000D1C8022DB005600FF2477E66346151C6B
:101F20000126002472E66446002C14D0002F00D154
:101F3000E0E68023E608D803311C064203D0F90806
:101F4000014200D0311C151C8022CB005600FF241A
:101F50005CE6FF28B1D180203B1C151C4600FF2405
:101F600054E6013E002EF4D17B19041C8EE63B1C86
:101F7000151C0126002449E6151CCAE7002B00D1D8
:101F80002BE7CCE71C2101231B04984201D3000C52
:101F900010391B0A984201D3000A08391B099842DC
:101FA00001D30009043902A2105C40187047C046F2
:101FB0000403020201010101000000000000000012
:101FC00058F0FF7F010000006CF0FF7F010000006F
:101FD000D4190010161B0010161B00100E1B001049
:101FE000FC1A0010FC1A0010F41A00100E1B00104E
:101FF000FC1A0010F41A0010FC1A00100E1B00103E
:10200000A01A0010A01A0010A01A00101A1B00102D
:102010002C4887460000000000000000000000007F
:1020200000000000000000000000000000000000B0
:10203000254887460000000000000000234887462E
:1020400023488746234887462348874623488746B0
:1020500023488746234887462348874623488746A0
:1020600023488746000000002248874622488746CA
:102070002248874622488746224887462248874684
:102080002248874622488746224887462248874674
:102090002248874622488746224887462248874664
:1020A0002248874622488746224887462248874654
:1020B00022488746224887460000000000000000B2
:1020C0002048874667110010691100106B1100103D
:1020D0006D1100106F1100107111001073110010BC
:1020E0007511001077110010791100107B1100108C
:1020F0007D1100109B1100109D1100109F11001008
:10210000A1110010A3110010A51100107F110010E3
:10211000811100108311001085110010871100102B
:10212000891100108B1100108D1100108F110010FB
:1021300091110010931100109511001097110010CB
:0821400099110010A711001015
:102148002379DDBEDE31D5BF1D57003E534A933E8D
:1021580093BF92BFEB6F983F8836983F5A251ABDB8
:10216800DD92A73E9AD4323E89303FBE69CD393FD1
:10217800EA9B16BF51B90B405DAB0BBED254E93D8B
:10218800DC8B883F1ED1723D50E3C3BDDB1455BFC5
:1021980004BD963E0208ABBFF9DD363FE2D0CF3F23
:1021A800361831BFACA55B3F1E83A03F55FFCBBFA0
:1021B8008671B8BFBB36123FCDBDCCBEABA3303F96
:1021C800D3E3DF3FD4C7073E4F84A63E13374BBF48
:1021D800AB3DA13E33FB06BF07A96E3FB913953F40
:1021E8003FEC02C09FF524BF3EDBDE3FB639F93E27
:1021F8000640863FA289BE3FCB9FA23F7A95EDBF9E
:10220800B7980840D4C9B73F53D46ABFEF938DBF7E
:1022180092814F3FB8D3323F419CCDBE7066A23FFA
:102228008E9A48BF88625A3EB7B3493FF38C653FE0
:102238003F673FBEF0AF813FC3657E3EDF27743DF9
:04224800F8ACBD40F1
:0400000510001019BE
:00000001FF
