:020000040C00EE
:100000000008002001020008AF040008BF04000837
:10001000CF040008DF040008EF040008000000001F
:10002000000000000000000000000000FF040008C5
:100030000F050008000000001F0500082F0500083C
:100040003F0500084F0500085F0500086F05000820
:100050007F0500088F0500089F050008AF05000810
:10006000BF050008000000000000000000000000C4
:10007000CF05000800000000DF050008EF050008BC
:10008000FF0500080F0600081F0600082F060008DD
:100090003F0600084F0600085F0600086F060008CC
:1000A0007F0600088F0600089F060008AF060008BC
:1000B000BF060008CF060008DF060008EF060008AC
:1000C000FF0600080F0700081F0700082F07000899
:1000D0003F0700084F0700085F0700086F07000888
:1000E0007F0700088F0700089F070008AF07000878
:1000F000BF070008CF070008DF070008EF07000868
:10010000FF0700080D0800081B0800082908000860
:10011000370800084508000853080008610800086F
:100120006F0800087D0800088B080008990800087F
:10013000A7080008B5080008C3080008D10800088F
:10014000DF080008ED080008FB080008090900089E
:1001500017090008250900083309000841090008AB
:10016000000000000000000000000000000000008F
:100170004F0900085D0900086B09000879090008AB
:100180008709000895090008A3090008B1090008BB
:10019000BF090008CD090008DB090008E9090008CB
:1001A000F7090008050A0008130A0008210A0008D8
:1001B0002F0A00083D0A00084B0A0008590A0008E7
:1001C000670A0008750A0008830A0008910A0008F7
:1001D0009F0A0008AD0A0008BB0A000800000000E2
:1001E000C90A0008D70A0008E50A0008F30A00084F
:1001F000010B0008000000000F0B000800000000C9
:10020000DFF80CD0034880470348804700F006B869
:1002100000080020D90C0008C50200081E481F492C
:100220001F4A002A00F01280042A80F002804FF05A
:1002300004024FEA920203680B60013A00F0068064
:1002400000F1040001F10401FFF7F5BF154816495C
:10025000002900F01180042980F002804FF0040191
:100260004FEA91014FF000020260013900F0048072
:1002700000F10400FFF7F8BF0C480D4908600D4875
:1002800080470D488047DFF834D04FF000004FF032
:100290000001DFF82CF000004039000CE0080020DD
:1002A0003404000000080020E00000000000000806
:1002B00008ED00E0750D0008013600080008002078
:1002C000C902000800BF704780B590B000AF4FF082
:1002D0000403BB634FF004037B63BB6B9AB27B6B7D
:1002E0009BB207F12C01084611461A4643F6D80383
:1002F000C0F6000301F0E6FC4FF00403BB634FF0CF
:1003000004037B63BB6B9AB27B6B9BB207F1240146
:10031000084611461A4640F60C03C2F2000301F0EB
:10032000D1FC07F12C0207F124031046194602F014
:100330007DF8034687F83F304FF00403BB634FF06E
:1003400004037B63BB6B9AB27B6B9BB207F11C010E
:10035000084611461A4640F6A003C2F2000301F017
:10036000B1FC07F1240107F12C0207F11C03084638
:1003700011461A4601F028FF034687F83F304FF038
:100380000403BB634FF004037B63BB6B9AB27B6BCC
:100390009BB207F11401084611461A4640F65C0369
:1003A000C2F2000301F08EFC07F11C0207F11403F6
:1003B0001046194601F090FC034687F83F3007F1DC
:1003C000140107F1240207F11C03084611461A46DE
:1003D00001F0FAFE034687F83F304FF00403BB6399
:1003E0004FF001037B63BB6B9AB27B6B9BB207F14F
:1003F0000C01084611461A4643F6C803C0F600032E
:1004000001F060FC4FF00403BB634FF001037B631A
:10041000BB6B9AB27B6B9BB207F104010846114695
:100420001A4640F64C03C2F2000301F04BFC07F100
:100430001C0107F10C0207F10403084611461A4695
:1004400001F0C2FE034687F83F3043F61810C0F6AD
:10045000000040F64C01C2F200014FF0040200F02F
:1004600093FF024640F69C03C2F200031A6040F676
:100470009C03C2F2000393ED007ADFED0B7AB4EE39
:10048000E77AF1EE10FA04DD4FF0000387F83F3011
:1004900003E04FF0FA0387F83F3097F93F30002B25
:1004A00000D0FEE7FEE700BF0000B442FEE7DFF841
:1004B000700600B581B0804701B000BDFEE7DFF8EF
:1004C000640600B581B0804701B000BDFEE7DFF8EB
:1004D000580600B581B0804701B000BDFEE7DFF8E7
:1004E0004C0600B581B0804701B000BDFEE7DFF8E3
:1004F000400600B581B0804701B000BDFEE7DFF8DF
:10050000340600B581B0804701B000BDFEE7DFF8DA
:10051000280600B581B0804701B000BDFEE7DFF8D6
:100520001C0600B581B0804701B000BDFEE7DFF8D2
:10053000100600B581B0804701B000BDFEE7DFF8CE
:10054000040600B581B0804701B000BDFEE7DFF8CA
:10055000F80500B581B0804701B000BDFEE7DFF8C7
:10056000EC0500B581B0804701B000BDFEE7DFF8C3
:10057000E00500B581B0804701B000BDFEE7DFF8BF
:10058000D40500B581B0804701B000BDFEE7DFF8BB
:10059000C80500B581B0804701B000BDFEE7DFF8B7
:1005A000BC0500B581B0804701B000BDFEE7DFF8B3
:1005B000B00500B581B0804701B000BDFEE7DFF8AF
:1005C000A40500B581B0804701B000BDFEE7DFF8AB
:1005D000980500B581B0804701B000BDFEE7DFF8A7
:1005E0008C0500B581B0804701B000BDFEE7DFF8A3
:1005F000800500B581B0804701B000BDFEE7DFF89F
:10060000740500B581B0804701B000BDFEE7DFF89A
:10061000680500B581B0804701B000BDFEE7DFF896
:100620005C0500B581B0804701B000BDFEE7DFF892
:10063000500500B581B0804701B000BDFEE7DFF88E
:10064000440500B581B0804701B000BDFEE7DFF88A
:10065000380500B581B0804701B000BDFEE7DFF886
:100660002C0500B581B0804701B000BDFEE7DFF882
:10067000200500B581B0804701B000BDFEE7DFF87E
:10068000140500B581B0804701B000BDFEE7DFF87A
:10069000080500B581B0804701B000BDFEE7DFF876
:1006A000FC0400B581B0804701B000BDFEE7DFF873
:1006B000F00400B581B0804701B000BDFEE7DFF86F
:1006C000E40400B581B0804701B000BDFEE7DFF86B
:1006D000D80400B581B0804701B000BDFEE7DFF867
:1006E000CC0400B581B0804701B000BDFEE7DFF863
:1006F000C00400B581B0804701B000BDFEE7DFF85F
:10070000B40400B581B0804701B000BDFEE7DFF85A
:10071000A80400B581B0804701B000BDFEE7DFF856
:100720009C0400B581B0804701B000BDFEE7DFF852
:10073000900400B581B0804701B000BDFEE7DFF84E
:10074000840400B581B0804701B000BDFEE7DFF84A
:10075000780400B581B0804701B000BDFEE7DFF846
:100760006C0400B581B0804701B000BDFEE7DFF842
:10077000600400B581B0804701B000BDFEE7DFF83E
:10078000540400B581B0804701B000BDFEE7DFF83A
:10079000480400B581B0804701B000BDFEE7DFF836
:1007A0003C0400B581B0804701B000BDFEE7DFF832
:1007B000300400B581B0804701B000BDFEE7DFF82E
:1007C000240400B581B0804701B000BDFEE7DFF82A
:1007D000180400B581B0804701B000BDFEE7DFF826
:1007E0000C0400B581B0804701B000BDFEE7DFF822
:1007F000000400B581B0804701B000BDFEE7FD48B0
:1008000000B581B0804701B000BDFEE7FA4800B5F1
:1008100081B0804701B000BDFEE7F84800B581B067
:10082000804701B000BDFEE7F54800B581B08047C4
:1008300001B000BDFEE7F34800B581B0804701B0CC
:1008400000BDFEE7F04800B581B0804701B000BDB3
:10085000FEE7EE4800B581B0804701B000BDFEE77D
:10086000EB4800B581B0804701B000BDFEE7E94824
:1008700000B581B0804701B000BDFEE7E64800B595
:1008800081B0804701B000BDFEE7E44800B581B00B
:10089000804701B000BDFEE7E14800B581B0804768
:1008A00001B000BDFEE7DF4800B581B0804701B070
:1008B00000BDFEE7DC4800B581B0804701B000BD57
:1008C000FEE7DA4800B581B0804701B000BDFEE721
:1008D000D74800B581B0804701B000BDFEE7D548DC
:1008E00000B581B0804701B000BDFEE7D24800B539
:1008F00081B0804701B000BDFEE7D04800B581B0AF
:10090000804701B000BDFEE7CD4800B581B080470B
:1009100001B000BDFEE7CB4800B581B0804701B013
:1009200000BDFEE7C84800B581B0804701B000BDFA
:10093000FEE7C64800B581B0804701B000BDFEE7C4
:10094000C34800B581B0804701B000BDFEE7C14893
:1009500000B581B0804701B000BDFEE7BE4800B5DC
:1009600081B0804701B000BDFEE7BC4800B581B052
:10097000804701B000BDFEE7B94800B581B08047AF
:1009800001B000BDFEE7B74800B581B0804701B0B7
:1009900000BDFEE7B44800B581B0804701B000BD9E
:1009A000FEE7B24800B581B0804701B000BDFEE768
:1009B000AF4800B581B0804701B000BDFEE7AD484B
:1009C00000B581B0804701B000BDFEE7AA4800B580
:1009D00081B0804701B000BDFEE7A84800B581B0F6
:1009E000804701B000BDFEE7A54800B581B0804753
:1009F00001B000BDFEE7A34800B581B0804701B05B
:100A000000BDFEE7A04800B581B0804701B000BD41
:100A1000FEE79E4800B581B0804701B000BDFEE70B
:100A20009B4800B581B0804701B000BDFEE7994802
:100A300000B581B0804701B000BDFEE7964800B523
:100A400081B0804701B000BDFEE7944800B581B099
:100A5000804701B000BDFEE7914800B581B08047F6
:100A600001B000BDFEE78F4800B581B0804701B0FE
:100A700000BDFEE78C4800B581B0804701B000BDE5
:100A8000FEE78A4800B581B0804701B000BDFEE7AF
:100A9000874800B581B0804701B000BDFEE78548BA
:100AA00000B581B0804701B000BDFEE7824800B5C7
:100AB00081B0804701B000BDFEE7804800B581B03D
:100AC000804701B000BDFEE77D4800B581B080479A
:100AD00001B000BDFEE77B4800B581B0804701B0A2
:100AE00000BDFEE7784800B581B0804701B000BD89
:100AF000FEE7764800B581B0804701B000BDFEE753
:100B0000734800B581B0804701B000BDFEE7714871
:100B100000B581B0804701B000BD4FF001007047C3
:100B2000AD040008BD040008CD040008DD04000881
:100B3000ED040008FD0400080D0500081D0500086F
:100B40002D0500083D0500084D0500085D0500085D
:100B50006D0500087D0500088D0500089D0500084D
:100B6000AD050008BD050008CD050008DD0500083D
:100B7000ED050008FD0500080D0600081D0600082B
:100B80002D0600083D0600084D0600085D06000819
:100B90006D0600087D0600088D0600089D06000809
:100BA000AD060008BD060008CD060008DD060008F9
:100BB000ED060008FD0600080D0700081D070008E7
:100BC0002D0700083D0700084D0700085D070008D5
:100BD0006D0700087D0700088D0700089D070008C5
:100BE000AD070008BD070008CD070008DD070008B5
:100BF000ED070008FD0700080B08000819080008A9
:100C000027080008350800084308000851080008B4
:100C10005F0800086D0800087B08000889080008C4
:100C200097080008A5080008B3080008C1080008D4
:100C3000CF080008DD080008EB080008F9080008E4
:100C400007090008150900082309000831090008F0
:100C50003F0900084D0900085B0900086909000800
:100C6000770900088509000893090008A109000810
:100C7000AF090008BD090008CB090008D909000820
:100C8000E7090008F5090008030A0008110A00082E
:100C90001F0A00082D0A00083B0A0008490A00083C
:100CA000570A0008650A0008730A0008810A00084C
:100CB0008F0A00089D0A0008AB0A0008B90A00085C
:100CC000C70A0008D50A0008E30A0008F10A00086C
:100CD000FF0A00080D0B000880B582B000AF4FF48A
:100CE0006D43CEF200034FF46D42CEF20002D2F813
:100CF000882042F47002C3F888204FF46D43CEF28E
:100D000000034FF46D42CEF20002526922F0080255
:100D10005A614FF40043C5F200034FF40042C5F29C
:100D20000002526822F001025A604FF48053C5F667
:100D3000000303F5805303F114031B687B607B6899
:100D400023F00F037B607B6843F003037B604FF469
:100D50008053C5F600037A6803F5805303F114034A
:100D60001A6000F0ABF800F005F807F10807BD467F
:100D700080BD00BF80B485B000AF4FF48C43C5F296
:100D80000003DB68B3F5803F40F0898044F21073C4
:100D9000C5F200031B6803F00403002B00F08880F9
:100DA00044F21073C5F200039B6803F070634FEACE
:100DB000136303F10103FB6044F21073C5F20003F7
:100DC0009B6803F4FE434FEA132303F10103BB6066
:100DD00044F21073C5F200039B6803F4FE034FEA6C
:100DE000134303F101037B6044F21073C5F2000367
:100DF000DB6803F00103002B28D04FF45853C0F2F6
:100E00006E13FA68B3FBF2F3BA6802FB03F33B60BC
:100E10003A687B68B2FBF3F240F6E003C2F20003EB
:100E20001A6040F6E003C2F200031A684FF48C43E4
:100E3000C5F20003DB68DBB203F10103B2FBF3F29E
:100E400040F6E003C2F200031A6031E04FF4D853D9
:100E5000C0F2B703FA68B3FBF2F3BA6802FB03F31C
:100E60003B603A687B68B2FBF3F240F6E003C2F203
:100E700000031A6040F6E003C2F200031A684FF460
:100E80008C43C5F20003DB68DBB203F10103B2FB64
:100E9000F3F240F6E003C2F200031A6008E040F605
:100EA000E003C2F200034FF45852C0F26E121A600F
:100EB00007F11407BD4680BC704700BF80B582B003
:100EC00000AFFFF72AFE0346002B00F0558244F2E4
:100ED0001073C5F200035A684FF00203C0F2010319
:100EE0001340002B0DD044F21073C5F2000344F2FE
:100EF0001072C5F20002526822F4803222F002021F
:100F00005A604FF48E43C5F200035B6803F0300370
:100F1000002B72D04FF48E43C5F200034FF48E4283
:100F2000C5F20002526822F0F0025A604FF48E437C
:100F3000C5F200034FF48E42C5F20002526842F43B
:100F400000325A6044F21073C5F2000344F210728A
:100F5000C5F20002D26822F00102DA6044F2107396
:100F6000C5F2000344F21072C5F20002526822F486
:100F700000325A604EF21003CEF2000344F6A33260
:100F8000C0F24C025A604EF21003CEF200034FF052
:100F900000029A604EF21003CEF200034FF00502F9
:100FA0001A6044F21073C5F200031B6803F4607307
:100FB000B3F5607F08D04EF21003CEF200039A68BA
:100FC00040F2F3139A42ECD84EF21003CEF2000333
:100FD0004EF21002CEF20002126822F001021A60F4
:100FE00044F21073C5F200031B6803F46073B3F599
:100FF000607F02D04FF00003C0E144F21073C5F2ED
:1010000000031B6803F00403002B40F0B5814FF48C
:101010008C43C5F20003DB6803F48033002B0BD054
:101020004FF48C43C5F200034FF48C42C5F200022A
:10103000D26822F48032DA604FF46053C1F69C43E8
:101040007B607A6849F68173C1F25E63A3FB021389
:101050004FEA535303F1FF333B6044F21073C5F280
:10106000000344F21072C5F20002526842F001021D
:101070005A6044F21073C5F2000344F21072C5F2D4
:101080000002526842F010025A6044F21072C5F237
:1010900000023B684FEA034144F60173C0F20013BB
:1010A0000B43936044F21073C5F2000344F21072D4
:1010B000C5F20002526842F040025A6044F21073D6
:1010C000C5F2000344F21072C5F20002526822F029
:1010D00010025A6044F21073C5F2000344F2107219
:1010E000C5F20002526842F480225A604EF21003A8
:1010F000CEF2000344F6A332C0F24C025A604EF224
:101100001003CEF200034FF000029A604EF210037B
:10111000CEF200034FF005021A6000BF44F21073D4
:10112000C5F200031B6803F00403002B08D14EF244
:101130001003CEF200039A6840F2F3139A42EDD8FE
:101140004EF21003CEF200034EF21002CEF2000275
:10115000126822F001021A6044F21073C5F2000313
:101160001B6803F00403002B4ED044F21073C5F249
:10117000000344F21072C5F20002526822F001022C
:101180005A604FF48C43C5F200034FF000021A611D
:101190004FF48C43C5F200034FF000025A614FF444
:1011A0008C43C5F200034FF000021A624FF48C43E7
:1011B000C5F200034FF48C42C5F20002D26842F43B
:1011C0008032DA6044F21073C5F2000344F2107208
:1011D000C5F20002526822F040025A604EF210033B
:1011E000CEF2000340F245525A604EF21003CEF2A6
:1011F00000034FF000029A604EF21003CEF200039B
:101200004FF005021A6002E04FF00003B6E04EF224
:101210001003CEF200039B68632BF8D84EF2100344
:10122000CEF200034EF21002CEF20002126822F05B
:1012300001021A604FF46053C1F69C437B607B68E7
:101240004FEA132245F2C743C0F21E13A3FB021359
:101250004FEA932303F1FF333B6044F21072C5F26F
:1012600000023B684FEA034144F60173C0F20013E9
:101270000B4393604EF21003CEF2000340F61B4284
:101280005A604EF21003CEF200034FF000029A6053
:101290004EF21003CEF200034FF005021A6000BFB9
:1012A0004EF21003CEF200039B68632BF8D84EF287
:1012B0001003CEF200034EF21002CEF200021268CA
:1012C00022F001021A604FF46053C1F69C437B6028
:1012D0007B684FEAD3124EF22F33C0F2BE03A3FB5A
:1012E00002134FEAD32303F1FF333B6044F2107241
:1012F000C5F200023B684FEA034144F60173C0F2B5
:1013000000130B4393604EF21003CEF2000341F240
:1013100023325A604EF21003CEF200034FF0000267
:101320009A604EF21003CEF200034FF005021A60ED
:1013300000BF4EF21003CEF200039B68632BF8D877
:101340004EF21003CEF200034EF21002CEF2000273
:10135000126822F001021A6044F21073C5F2000311
:1013600044F60172C0F203129A6044F26013C5F2AF
:1013700000034FF00502DA604FF00103184607F151
:101380000807BD4680BD00BF80B58AB000AFF860D9
:10139000B9607A604FF000037B624FF000033B615D
:1013A0004FF000033B6267E03B6A4FEA8303FA6851
:1013B000D318FB61FB691B68BB61BA694FF000037E
:1013C000C7F6C0739A4202D14FF000038DE03B6A2A
:1013D0004FEA8303BA68D318FB61FB691B68BB61E2
:1013E000BA694FF00003C7F6C0739A4202D14FF0BA
:1013F00000037AE03B6A4FEA8303FA68D31893ED5F
:10140000007A3B6A4FEA8303FA68D318D3ED007A77
:1014100067EE277A97ED097A77EE277AC7ED097A92
:101420003B6A4FEA8303FA68D31893ED007A3B6A6C
:101430004FEA8303BA68D318D3ED007A37EE677AA0
:101440003B6A4FEA8303FA68D318D3ED006A3B6A1C
:101450004FEA8303BA68D318D3ED007A76EEE77AC1
:1014600027EE277AD7ED047A77EE277AC7ED047A4C
:101470003B6A03F101033B623A6A7B689A4293D369
:1014800007F11003FB61FB691B68BB61BA694FF090
:101490000003C7F6C0739A4202D14FF0000324E064
:1014A000D7ED047A97ED097AC7EE277A17EE900AFE
:1014B00001F03AFD02460B461046194601F092F83B
:1014C00002460B46104619464FF000024FF000034B
:1014D000C4F2240301F07CFD02460B461046194677
:1014E00002F038F803467B617B69184607F128074C
:1014F000BD4680BD80B487B000AFF860B9607A6047
:101500004FF000037B6114E07B694FEA4303FA6804
:10151000D3187A694FEA4202F9688A18128811B220
:101520007A6841FA02F292B21A807B6903F10103F0
:101530007B617A69BB689A42E6D307F11C07BD4616
:1015400080BC704790B587B000AFF860B9607A6032
:101550004FF000037B6160E07B694FEA8303BA6868
:10156000D3187A694FEA8202F9688A1892ED007AF4
:10157000DFED2E7A67EE277AFDEEE77AC3ED007A8B
:101580007B694FEA8303BA68D4187B694FEA830307
:10159000BA68D3181B68184601F0B4FC7B694FEA9F
:1015A0008303FA68D318D3ED007AF5EEC07AF1EE32
:1015B00010FA06DD4FF000024FF00003C3F6E073AF
:1015C00005E04FF000024FF00003CBF6E07301F0AE
:1015D0004DFB02460B461046194601F093FF0346A9
:1015E00023607B694FEA8303FA68D31893ED007A8E
:1015F000F7EE007AB4EE677AF1EE10FA09D17B6962
:101600004FEA8303BA68D2184FF6FF73C0F20F0394
:1016100013607B6903F101037B617A697B689A42FD
:101620009AD307F11C07BD4690BD00BF000080495A
:1016300080B489B000AFF860B9607A604FF0000301
:101640007B614FF00003BB614FF00003FB611EE0C4
:10165000FB694FEA4303FA68D3181B881AB2FB6987
:101660004FEA4303B968CB181B881BB2D31A3B61FE
:101670003B69002BB8BF5B427B617A69BB699A42C8
:1016800001D97B69BB61FB6903F10103FB61FA6965
:101690007B689A42DCD3BB69184607F12407BD4634
:1016A00080BC704780B489B000AFF860B9607A60E0
:1016B0004FF000037B614FF00003BB614FF000036C
:1016C000FB611CE0FB694FEA8303FA68D3181A68D0
:1016D000FB694FEA8303B968CB181B68D31A3B61D7
:1016E0003B69002BB8BF5B427B617A69BB699A4258
:1016F00001D97B69BB61FB6903F10103FB61FA69F5
:101700007B689A42DED3BB69184607F12407BD46C1
:1017100080BC704780B487B000AFF860B9607A6071
:101720004FF000037B6112E07B694FEA8303FA68A4
:10173000D3187A694FEA8202F9688A1811687A68C0
:1017400041FA02F21A607B6903F101037B617A6955
:10175000BB689A42E8D307F11C07BD4680BC7047BE
:1017600080B487B000AFF860B9607A604FF00003D2
:101770007B6110E0FA687B69D318F9687A698A1886
:10178000127851B27A6841FA02F2D2B21A707B69C9
:1017900003F101037B617A69BB689A42EAD307F1DE
:1017A0001C07BD4680BC704780B485B000AF786030
:1017B0004FF00103FB604FF00003BB607B68012B1F
:1017C0000AD14FF000030CE0FB684FEA4303FB60D3
:1017D000BB6803F10103BB60FA687B689A42F3D3EC
:1017E000BB68184607F11407BD4680BC704700BFB0
:1017F00090B52DED028B87B000AFF860B9607A60CC
:101800004FF000037B611BE07B694FEA8303FA68BA
:10181000D4187B694FEA8303FA68D31893ED008AE2
:10182000786800F017F8034607EE103AF8EE477AAA
:1018300068EE277AC4ED007A7B6903F101037B61CE
:101840007A69BB689A42DFD307F11C07BD46BDEC3D
:10185000028B90BD80B485B000AF78604FF001037B
:10186000BB604FF00003FB6007E0BB684FEA430337
:10187000BB60FB6803F10103FB60FA687B689A4276
:10188000F3D3BB68184607F11407BD4680BC704708
:1018900090B587B000AFF860B9607A604FF0000390
:1018A0007B6162E07B694FEA4303BA68D3187A69C7
:1018B0004FEA8202F9688A1892ED007ADFED2F7AFA
:1018C00067EE277AFDEEE77A17EE902A92B21A8039
:1018D0007B694FEA4303BA68D4187B694FEA430334
:1018E000BA68D3181B881BB2184601F00BFB7B6942
:1018F0004FEA8303FA68D318D3ED007AF5EEC07A85
:10190000F1EE10FA06DD4FF000024FF00003C3F6CF
:10191000E07305E04FF000024FF00003CBF6E073F8
:1019200001F0A4F902460B461046194601F0EAFD03
:1019300003469BB223807B694FEA8303FA68D3187E
:1019400093ED007AF0EE007AB4EE677AF1EE10FAD9
:1019500007D17B694FEA4303BA68D31847F6FF7291
:101960001A807B6903F101037B617A697B689A4283
:1019700098D307F11C07BD4690BD00BF000080460C
:1019800090B587B000AFF860B9607A604FF000039F
:101990007B615EE07B694FEA8303BA68D3187A699A
:1019A0004FEA8202F9688A1892ED007ADFED2D7A0B
:1019B00067EE277AFDEEE77AC3ED007A7B694FEA9E
:1019C0008303BA68D4187B694FEA8303BA68D318D3
:1019D0001B68184601F096FA7B694FEA8303FA68A0
:1019E000D318D3ED007AF5EEC07AF1EE10FA06DDE9
:1019F0004FF000024FF00003C3F6E07305E04FF034
:101A000000024FF00003CBF6E07301F02FF902461D
:101A10000B461046194601F075FD034623607B69AD
:101A20004FEA8303FA68D31893ED007AF0EE007A58
:101A3000B4EE677AF1EE10FA07D17B694FEA8303BF
:101A4000BA68D3186FF000421A607B6903F1010392
:101A50007B617A697B689A429CD307F11C07BD467B
:101A600090BD00BF0000804E90B587B000AFF86019
:101A7000B9607A604FF000037B615EE07B694FEAFA
:101A80008303BA68D3187A694FEA8202F9688A1820
:101A900092ED007ADFED2D7A67EE277AFDEEE77A98
:101AA000C3ED007A7B694FEA8303BA68D4187B6977
:101AB0004FEA8303BA68D3181B68184601F022FA6C
:101AC0007B694FEA8303FA68D318D3ED007AF5EE09
:101AD000C07AF1EE10FA06DD4FF000024FF000037D
:101AE000C3F6E07305E04FF000024FF00003CBF6C1
:101AF000E07301F0BBF802460B461046194601F0B0
:101B000001FD034623607B694FEA8303FA68D3181B
:101B100093ED007AF1EE007AB4EE677AF1EE10FA06
:101B200007D17B694FEA8303BA68D3186FF000428C
:101B30001A607B6903F101037B617A697B689A42D1
:101B40009CD307F11C07BD4690BD00BF0000004EAE
:101B500090B587B000AFF860B9607A604FF00003CD
:101B60007B615EE07B694FEA8303BA68D3187A69C8
:101B70004FEA8202F9688A1892ED007ADFED2D7A39
:101B800067EE277AFDEEE77AC3ED007A7B694FEACC
:101B90008303BA68D4187B694FEA8303BA68D31801
:101BA0001B68184601F0AEF97B694FEA8303FA68B7
:101BB000D318D3ED007AF5EEC07AF1EE10FA06DD17
:101BC0004FF000024FF00003C3F6E07305E04FF062
:101BD00000024FF00003CBF6E07301F047F8024635
:101BE0000B461046194601F08DFC034623607B69C5
:101BF0004FEA8303FA68D31893ED007AF2EE007A85
:101C0000B4EE677AF1EE10FA07D17B694FEA8303ED
:101C1000BA68D3186FF000421A607B6903F10103C0
:101C20007B617A697B689A429CD307F11C07BD46A9
:101C300090BD00BF0000804D80B485B000AF7860DB
:101C400039604FF00003FB6032E0FB684FEA83032A
:101C50007A68D31893ED007AF7EE007AB4EEE77A5B
:101C6000F1EE10FA08DDFB684FEA83037A68D318B7
:101C70004FF07E521A6017E0FB684FEA83037A68E0
:101C8000D31893ED007AFFEE007AB4EEE77AF1EE26
:101C900010FA09D5FB684FEA83037A68D3184FF02E
:101CA0000002CBF680721A60FB6803F10103FB604F
:101CB000FA683B689A42C8D307F11407BD4680BC56
:101CC000704700BF10B4002461F30F0462F31F4497
:101CD0000460436010BC70472DE9F00F438807880B
:101CE0004A6840688CB0BB420390089240F06A8218
:101CF00008884988814240F065828F4240F06282C4
:101D0000002F00F05D82DDF820807A1EC1464FF082
:101D10007E5A15464FEA820C0126002349F804AB8F
:101D2000002D37D06C1E204604F00101C8F80430A5
:101D300009F1040460B121B104340138C9F8043058
:101D400006D0214641F8043B63600C1D0238F8D1EF
:101D500009EB0C08AEB1711E40460C4640F8043B3E
:101D600001F001015CB119B1013C40F8043B06D01F
:101D7000014641F8043B4360081D023CF8D108EBE2
:101D80008608C146013D0136ACF1040C49F804ABAC
:101D9000002DC7D14FEA870C07FB07F60CFB07F0B5
:101DA000A0EB86000795039E0592FB000CF104054D
:101DB000079A0995191D089D0B903318D6ED007AE6
:101DC0000A910493B046CDF808C0B9460192D8ED07
:101DD000006A9FEDBE7AF4EEC76A781EF1EE10FA43
:101DE00000F0010140F36881F5EE406AF1EE10FA6F
:101DF000C8BFB0EE667A01239F4208EB0C0238D9C7
:101E000089B1D2ED006AF5EEC06AF1EE10FA23DD79
:101E1000F4EE476AF1EE10FAC8BFB0EE667A01330D
:101E20009F42624425D992ED002AB5EEC02AF1EE18
:101E300010FA6244D8BFB1EE422AD2ED006AB4EE85
:101E4000472AF1EE10FAF5EEC06AC8BFB0EE427A4A
:101E50000133F1EE10FADBDCF1EE666AF4EE476A6C
:101E6000F1EE10FAC8BFB0EE667A01339F426244C9
:101E7000D9D8B5EE407AF1EE10FA00F08F81F5EE88
:101E8000C07AF1EE10FAD4BFF1EE676AF0EE676A3D
:101E9000B4EE667AF1EE10FA13D0059888B1049981
:101EA00091ED000AB5EEC00AF1EE10FAB1EE406A0B
:101EB000C8BFB0EE406AB4EE467AF1EE10FA00F018
:101EC0000781079B012B00F07781F5EE407AF1EE58
:101ED00010FA00F07581002405EB0C0007940690C1
:101EE000B9F1000F25D0D6ED000A80EEA71A09F14E
:101EF000FF3133460A4601F00104A3EC011AC1B1D7
:101F00003CB1D3ED001A81EEA72A4A1EA3EC012AA8
:101F10000FD0D3ED002A82EEA73A1846023AA0EC81
:101F2000013AD3ED013A83EEA74A0346A3EC014AF6
:101F3000EFD1D5ED004A84EEA75A791E2B460A460A
:101F400001F00104A3EC015AC1B13CB1D3ED005A38
:101F500085EEA77A4A1EA3EC017A0FD0D3ED006A72
:101F600086EEA70A1846023AA0EC010A93ED016A30
:101F7000C6EE270A0346E3EC010AEFD10199089C5B
:101F80004FEA810803990020019B984200F090805D
:101F9000D1ED007AB9F1000F36D096ED001AF0EECF
:101FA000671A47EEC11A09F1FF3A0B465246B3468B
:101FB0000AF0010AE3EC011A22B3BAF1000F0BD0C8
:101FC000D3ED002A96ED013A47EEC32A013A06F115
:101FD000040BE3EC012A15D0D3ED003A9BED014A46
:101FE00047EEC43A9A46EAEC013A9BED025AD3ED29
:101FF000014A47EEC54A5346023AE3EC014A0BF167
:10200000080BE9D1029BC918D4ED005A95ED007A6E
:1020100047EEC75A07F1FF3B23465A460BF0010A29
:10202000E3EC015AAB4622B3BAF1000F0BD093EDAB
:10203000000AD5ED016A07EEE60A013A05F1040B44
:10204000A3EC010A15D093ED006ADBED010A07EE5F
:10205000E06A9A46AAEC016ADBED021A93ED011AD6
:1020600007EEE11A5346023AA3EC011A0BF1080BF2
:10207000E9D1644401308742414485D1039D019BED
:1020800009992A1D581C03920A9B049A01907618FC
:10209000D0180599029B04904A1E181FB9F1010936
:1020A000069D0592029079D0B046D6ED007A8EE674
:1020B000029B6444C918DDE7F1EE666AF5EE406AFA
:1020C000F1EE10FAC8BFB0EE667A94E600000000A8
:1020D000B9F1000F2ED00B9C049B311909F1FF3090
:1020E000D1F800A00A46044643F804AB00F0010012
:1020F000A2EC010AF4B138B118684968013C43F810
:10210000041B42F8040B15D0D3F800A0D2F800B09D
:102110001846114640F804BB41F804ABD3F804B0AC
:10212000D2F804A003460A46023C43F804AB42F846
:1021300004BBE9D105EB0C02781E1468D5F800A0A9
:1021400006922B46014642F804AB00F0010043F82A
:10215000044BF1B138B110681C68013942F8044BE6
:1021600043F8040B15D0D2F800A0D3F800B0144601
:10217000184644F804BB40F804ABD2F804A0D3F8E6
:1021800004B022460346023942F804BB43F804ABCC
:10219000E9D10122D8ED007A0792A1E60799012939
:1021A00004D0F5EE407AF1EE10FA09D0002250B2D8
:1021B0000CB0BDE8F00F704705EB0C0106918FE6FF
:1021C000FB22F4E7FD22F2E72DE9F00F5368448883
:1021D0000F88D0F804908CB0A742099303884888F0
:1021E000049040F01F8114889C4240F01B8152886B
:1021F000824240F01781BD08496801956E1EB2B257
:1022000085000391C00007F003011301BF0000EB3C
:102210004506029104990A9702FB066200271033D3
:102220009FED816A4FEA011A0692079408970B9373
:102230000B9A099B089909EB02070597039F03EB8B
:1022400081084FF0000C019B002B00F0E780D7EDD8
:10225000007A99ED007AF0EE466A47EE276A7A191D
:10226000D2ED000A99ED010AF0EE667A391840EED7
:10227000207AD1ED001A99ED021A1C4641EE217A1E
:10228000131804F1FF3BD3ED002A99ED032A1FFA3E
:102290008BF407EB0A010BF0010B42EE227A09F1F5
:1022A00010039219002C66D0BBF1000F22D093EDE1
:1022B000003AD1ED003A43EE237A93ED014AD2ED94
:1022C000004A01EB000B44EE247A93ED025ADBED59
:1022D000005A02EB000B45EE257AD3ED036A9BED25
:1022E000007A013CA4B2514446EE877A1033921929
:1022F000002C40D093ED000AD1ED000A40EE207A88
:1023000093ED011AD2ED001A01EB000B41EE217A98
:1023100093ED022ADBED002A02EB000B42EE227A5B
:1023200093ED033ADBED003A514443EE237A93ED0B
:10233000044AD1ED004A921944EE247A93ED055AED
:10234000D2ED005A01EB000B45EE257AD3ED066A7B
:102350009BED007A02EB000B46EE877A93ED070ABD
:10236000DBED000A023CA4B2514440EE207A203357
:102370009219002CBED1069BFF18059B029951B300
:102380000139D7ED001AB3EC011A8AB241EE217A75
:1023900001F001017F19F2B149B197ED002AF3EC88
:1023A000012A013A92B242EE827A7F199AB1194615
:1023B000B1EC013AD7ED003A7F1943EE237A93ED61
:1023C000014AD7ED004A931E9AB244EE247A0B1DBF
:1023D0007F19002AEBD10CF1010C0499039A1FFA22
:1023E0008CFC8C45E8EC017A02EB8C077FF42BAF78
:1023F000079B089A591E8BB2079394440A99079A2F
:102400001FFA8CFCCDF820C08944002A7FF410AF5D
:10241000104640B20CB0BDE8F00F7047DFED027A15
:102420004B46ABE7FD20F4E7000000002DE9F00F7C
:1024300002884B88D0F804C088B003924A6804929E
:1024400042880398834240F0CB800988914240F053
:10245000C78001F0030501954FEA910A019FCDF86D
:1024600008A00AF1FF367A1E8500B3B2C00091B20F
:10247000013300EB45064A1C039F190106FB03F3D9
:10248000079393003F01069105934FF00009049ACA
:10249000029902EB890800296DD0DCF80040C8F8E9
:1024A0000040DCF80430029C08EB050A08EB000150
:1024B000CAF80030DCF808200A600AEB000304F1D7
:1024C000FF3BDCF80C201FFA8BF41A600BF0010BB9
:1024D0000CF1100308EB0702B244002C47D0BBF10B
:1024E000000F16D019681160D3F804B0CAF800B014
:1024F000D3ED027A1118C1ED007A013C93ED030A85
:102500000AEB0001A4B281ED000A1033D219B244E3
:102510006CB3D3F800B0C2F800B05968CAF8001024
:10252000D3ED020A1118C1ED000A93ED031A0AEB6C
:10253000000181ED001AD219D3F810B0C2F800B032
:10254000D3F814B0B2441118CAF800B0D3ED061A8B
:10255000C1ED001A023C93ED072A0AEB0001A4B278
:1025600081ED002A2033D219B244002CD1D1069B30
:10257000079A9C449044019921B36346013953F86A
:10258000044B8AB2C8F8004001F00101A844BAB176
:1025900039B153F8041B013A92B2C8F80010A844AC
:1025A00072B11946023A51F8044BC8F800405B6812
:1025B000A84492B2C8F800300B1DA844002AF0D1FC
:1025C00005998C4409F10109039A1FFA89F991458B
:1025D0007FF45DAF002040B208B0BDE8F00F704757
:1025E000FD20F8E72DE9F041DFF8D8808AB00446F5
:1025F0000D4600F069F898F90030013306460F46A1
:102600000BD02046294600F0F3F830B12046294689
:102610000022002300F058FF20B9304639460AB0A6
:10262000BDE8F081254898F80060019000210891EC
:10263000CDE90245CDE904454EBB4FF6FF734FF09F
:102640006042CCF2EF73CDE90623204629460022F2
:10265000002300F025FF60B102239E42009322D0A8
:10266000684600F0F9F8F0B1089808BBDDE90667A4
:10267000D3E70122022E009210D0684600F0ECF859
:1026800060B10F4800F0EAF8CDE90601ECE700235D
:102690000022CFF6F073CDE90623D6E700F0AAFFBB
:1026A00021270760EDE700F0A5FF22260660DBE7A3
:1026B00000F0A0FF08990160D8E700BF28390008A2
:1026C00030390008E4080020B1F5801F2DE9F843F7
:1026D0000A4606460F4604460D461EDA21F0004221
:1026E000024363D000296BDB00230022C4F2503385
:1026F00000F06EFC4FF6FF730A46C7F6EF739A427E
:102700000F4606466FF035010EDD3046394632463B
:102710003B4600F0ABFABDE8F8834FF6FF73C7F60F
:10272000EF7300219A42F0DC1315A3F2FF3358181F
:102730004FEAD07822F07F42404422F47009C8F575
:102740007F7800F0DFFB08F1030849EA08570446E8
:102750000D463046394600F087F81FA3D3E9002321
:10276000804689462046294600F032FC1CA3D3E966
:10277000002306460F462046294600F029FC1AA3EE
:10278000D3E9002304460D464046494600F020FCAC
:1027900002460B462046294600F068FA02460B46E0
:1027A0003046394600F062FABDE8F8830021002087
:1027B00000220023CCF2503100F034FDBDE8F88354
:1027C00002460B4600F050FA0022002300F02AFDDA
:1027D000BDE8F883AFF3008000609F501344D33FFF
:1027E000362BF111F3FE593D0EE526157BCBDB3F71
:1027F0000B4661B1B1F1004F09D04FF6FF72A3F55E
:102800008011C7F6DF72914205D804207047002876
:10281000F3D10220704703F1FF4101F5E00191423D
:10282000F3D94FF6FF72C0F20F02934201D8032092
:10283000704703F100419142F9D90022C7F6F072C6
:10284000934204D013F5801F01D000207047D0F1CF
:10285000010038BF00207047002070470021002091
:10286000C7F6F871704700BF2DE9F04FB1F5801F32
:1028700087B002460B4604460D460E4664DA21F048
:102880000045054300F000810029C0F27F8100234C
:102890000022C4F2503300F09BFB02464FF6FF705B
:1028A0000D46C7F6EF7085420B466FF0350752DCD8
:1028B00025F07F4626F4700606F5152404F66473A9
:1028C00003F4801484F07F5181F4401040EA060341
:1028D000194600231046C3F6F073002200F0C4F935
:1028E0004FEA2558B21CA8F2FF3A22F470030AEB13
:1028F000070B0022022B0BEB145882468B4631DC6F
:10290000002300F0CDFD002800F0C780B8F1000FD3
:1029100000F04381404600F0F5FAA1A3D3E900237B
:1029200006460F4600F054FB9FA3D3E9002304465C
:102930000D463046394600F04BFB02460B4620461A
:10294000294600F093F90AE04FF6FF70C7F6EF70E2
:1029500000278542ACDD1046194600F087F907B024
:10296000BDE8F08F4FF0804300F080F902460B463F
:102970005046594600F056FCCDE90201404600F0B1
:10298000C1FACDE90401DDE9020102460B4600F07F
:102990001FFB02460B46CDE9000100F019FB84A3A2
:1029A000D3E9002304460D4600F012FB82A3D3E9CD
:1029B000002300F05BF922462B4600F009FB80A3C0
:1029C000D3E9002300F052F922462B4600F000FB29
:1029D0007DA3D3E9002300F049F9DDE9002300F0ED
:1029E000F7FA7BA3D3E90023CDE90001204629466D
:1029F00000F0EEFA78A3D3E9002300F037F922467D
:102A00002B4600F0E5FA76A3D3E9002300F02EF977
:102A100022462B4600F0DCFAA6F5C22702460B46FA
:102A2000C6F5D726DDE9000100F020F95136A7F2FE
:102A30007A473743002F04460D4658DD0023002215
:102A4000C3F6E0735046594600F0C2FA52465B4660
:102A500000F0BEFA06460F46B8F1000F63D12246D9
:102A60002B4600F003F9DDE9022300F0B1FA02463B
:102A70000B463046394600F0F7F802460B46504602
:102A8000594600F0F1F86AE70021002000220023F7
:102A9000CCF2503100F0C6FB61E752465B4650462F
:102AA000594600F095FA50A3D3E9002304460D4699
:102AB0005046594600F08CFA0B4600210246C3F6F8
:102AC000E071002000F0D0F802460B46204629466F
:102AD00000F07EFA04460D46B8F1000F40F0888001
:102AE0005046594622462B4600F0BEF837E7B8F16B
:102AF000000F00F0A1802AA3D3E90023DDE904013F
:102B000000F066FA22462B4606460F4650465946C6
:102B100000F0AAF8DDE9022300F05AFA04460D4657
:102B2000DDE9040172E01EA3D3E90023DDE904011D
:102B300000F04EFA2246804689462B4630463946FA
:102B400000F094F8DDE9022300F042FA16A3D3E97D
:102B5000002304460D46DDE9040100F039FA02467F
:102B60000B462046294600F081F802460B463046C7
:102B7000394600F079F852465B4600F075F8024697
:102B80000B464046494600F06FF8E8E600F06CF866
:102B90000022002300F046FBE1E600200021DEE6F3
:102BA0000000E0FE422EE63F763C7935EF39EA3D03
:102BB00044523EDF12F1C23FDE03CB966446C73F6C
:102BC000599322942449D23F935555555555E53F85
:102BD0009FC678D0099AC33FAF788E1DC571CC3F90
:102BE00004FA97999999D93F555555555555D53F5B
:102BF000404600F087F916A3D3E9002380468946B2
:102C000000F0E6F906460F464046494612A3D3E9CE
:102C1000002300F0DDF902460B462046294600F06D
:102C200023F852465B4600F01FF802460B4630463A
:102C3000394600F019F892E622462B46504659468E
:102C400000F012F8DDE9022300F0C2F915E700BF39
:102C50000000E0FE422EE63F763C7935EF39EA3D52
:102C600081F0004102E000BF83F0004330B54FEA3D
:102C700041044FEA430594EA050F08BF90EA020FAA
:102C80001FBF54EA000C55EA020C7FEA645C7FEA3D
:102C9000655C00F0E2804FEA5454D4EB5555B8BF60
:102CA0006D420CDD2C4480EA020281EA030382EAD1
:102CB000000083EA010180EA020281EA0303362D63
:102CC00088BF30BD11F0004F4FEA01314FF4801C36
:102CD0004CEA113102D0404261EB410113F0004F48
:102CE0004FEA03334CEA133302D0524263EB4303FF
:102CF00094EA050F00F0A780A4F10104D5F1200E9D
:102D00000DDB02FA0EFC22FA05F2801841F10001F7
:102D100003FA0EF2801843FA05F359410EE0A5F1CB
:102D200020050EF1200E012A03FA0EFC28BF4CF0FC
:102D3000020C43FA05F3C01851EBE37101F00045B2
:102D400007D54FF0000EDCF1000C7EEB00006EEBBF
:102D50000101B1F5801F1BD3B1F5001F0CD3490849
:102D60005FEA30004FEA3C0C04F101044FEA4452A0
:102D700012F5800F80F09A80BCF1004F08BF5FEA27
:102D8000500C50F1000041EB045141EA050130BD07
:102D90005FEA4C0C404141EB010111F4801FA4F1AA
:102DA0000104E9D191F0000F04BF01460020B1FAFF
:102DB00081F308BF2033A3F10B03B3F120020CDA37
:102DC0000C3208DD02F1140CC2F10C0201FA0CF015
:102DD00021FA02F10CE002F11402D8BFC2F1200C7A
:102DE00001FA02F120FA0CFCDCBF41EA0C01904030
:102DF000E41AA2BF01EB0451294330BD6FEA040479
:102E00001F3C1CDA0C340EDC04F11404C4F1200263
:102E100020FA04F001FA02F340EA030021FA04F375
:102E200045EA030130BDC4F10C04C4F1200220FACC
:102E300002F001FA04F340EA0300294630BD21FA0A
:102E400004F0294630BD94F0000F83F4801306BFD0
:102E500081F480110134013D4EE77FEA645C18BFC4
:102E60007FEA655C29D094EA050F08BF90EA020F5B
:102E700005D054EA000C04BF1946104630BD91EA53
:102E8000030F1EBF0021002030BD5FEA545C05D156
:102E90004000494128BF41F0004130BD14F5800495
:102EA0003CBF01F5801130BD01F0004545F0FE4109
:102EB00041F470014FF0000030BD7FEA645C1ABF3E
:102EC000194610467FEA655C1CBF0B46024650EA75
:102ED000013406BF52EA033591EA030F41F40021A1
:102EE00030BD00BF90F0000F04BF0021704730B527
:102EF0004FF4806404F132044FF000054FF00001FC
:102F000050E700BF90F0000F04BF0021704730B5BC
:102F10004FF4806404F1320410F0004548BF404291
:102F20004FF000013EE700BF42004FEAE2014FEAE6
:102F300031014FEA02701FBF12F07F4393F07F4FC1
:102F400081F06051704792F0000F14BF93F07F4FF3
:102F5000704730B54FF4607401F0004521F0004136
:102F600020E700BF50EA010208BF704730B54FF0BC
:102F700000050AE050EA010208BF704730B511F0C1
:102F8000004502D5404261EB41014FF4806404F1F9
:102F900032045FEA915C3FF4DCAE4FF003025FEA7B
:102FA000DC0C18BF03325FEADC0C18BF033202EB03
:102FB000DC02C2F1200300FA03FC20FA02F001FA5D
:102FC00003FE40EA0E0021FA02F11444C1E600BFFC
:102FD00070B54FF0FF0C4CF4E06C1CEA11541DBFAF
:102FE0001CEA135594EA0C0F95EA0C0F00F0DEF87A
:102FF0002C4481EA030621EA4C5123EA4C5350EA5F
:10300000013518BF52EA033541F4801143F48013AF
:1030100038D0A0FB02CE4FF00005E1FB02E506F040
:103020000042E0FB03E54FF00006E1FB03569CF095
:10303000000F18BF4EF0010EA4F1FF04B6F5007F9B
:1030400064F5407404D25FEA4E0E6D4146EB06060D
:1030500042EAC62141EA55514FEAC52040EA5E5096
:103060004FEACE2EB4F1FD0C88BFBCF5E06F1ED840
:10307000BEF1004F08BF5FEA500E50F1000041EB77
:10308000045170BD06F0004646EA010140EA020024
:1030900081EA0301B4EB5C04C2BFD4EB0C0541EA46
:1030A000045170BD41F480114FF0000E013C00F35B
:1030B000AB8014F1360FDEBF002001F0004170BD7F
:1030C000C4F10004203C35DA0C341BDC04F1140498
:1030D000C4F1200500FA05F320FA04F001FA05F224
:1030E00040EA020001F0004221F0004110EBD370F1
:1030F00021FA04F642EB06015EEA430E08BF20EA1D
:10310000D37070BDC4F10C04C4F1200500FA04F3BF
:1031100020FA05F001FA04F240EA020001F0004151
:1031200010EBD37041F100015EEA430E08BF20EAC4
:10313000D37070BDC4F1200500FA05F24EEA020E0C
:1031400020FA04F301FA05F243EA020321FA04F03B
:1031500001F0004121FA04F220EA020000EBD370F2
:103160005EEA430E08BF20EAD37070BD94F0000FF2
:103170000FD101F00046400041EB010111F4801F26
:1031800008BF013CF7D041EA060195F0000F18BFD7
:10319000704703F00046520043EB030313F4801F13
:1031A00008BF013DF7D043EA0603704794EA0C0FCD
:1031B0000CEA135518BF95EA0C0F0CD050EA4106E3
:1031C00018BF52EA4306D1D181EA030101F0004160
:1031D0004FF0000070BD50EA410606BF1046194688
:1031E00052EA430619D094EA0C0F02D150EA013694
:1031F00013D195EA0C0F05D152EA03361CBF1046D5
:1032000019460AD181EA030101F0004141F0FE4173
:1032100041F470014FF0000070BD41F0FE4141F4F7
:10322000780170BD70B54FF0FF0C4CF4E06C1CEAF7
:1032300011541DBF1CEA135594EA0C0F95EA0C0FAC
:1032400000F0A7F8A4EB050481EA030E52EA033567
:103250004FEA013100F088804FEA03334FF0805588
:1032600045EA131343EA12634FEA022245EA1115B5
:1032700045EA10654FEA00260EF000419D4208BF66
:10328000964244F1FD0404F5407402D25B084FEA13
:103290003202B61A65EB03055B084FEA32024FF4BF
:1032A00080104FF4002CB6EB020E75EB030E22BF1C
:1032B000B61A754640EA0C005B084FEA3202B6EBDC
:1032C000020E75EB030E22BFB61A754640EA5C008B
:1032D0005B084FEA3202B6EB020E75EB030E22BF1B
:1032E000B61A754640EA9C005B084FEA3202B6EB1C
:1032F000020E75EB030E22BFB61A754640EADC00DB
:1033000055EA060E18D04FEA051545EA16754FEA3C
:1033100006164FEAC30343EA52734FEAC2025FEA5A
:103320001C1CC0D111F4801F0BD141EA00014FF0E9
:1033300000004FF0004CB6E711F4801F04BF0143BA
:103340000020B4F1FD0C88BFBCF5E06F3FF6AFAED6
:10335000B5EB030C04BFB6EB020C5FEA500C50F166
:10336000000041EB045170BD0EF0004E4EEA1131E9
:1033700014EB5C04C2BFD4EB0C0541EA045170BDF0
:1033800041F480114FF0000E013C90E645EA060E34
:103390008DE60CEA135594EA0C0F08BF95EA0C0F62
:1033A0003FF43BAF94EA0C0F0AD150EA01347FF4AA
:1033B00034AF95EA0C0F7FF425AF104619462CE781
:1033C00095EA0C0F06D152EA03353FF4FDAE1046E4
:1033D000194622E750EA410618BF52EA43067FF435
:1033E000C5AE50EA41047FF40DAF52EA43057FF4C5
:1033F000EBAE12E74FF0FF3C06E000BF4FF0010CD0
:1034000002E000BF4FF0010C4DF804CD4FEA410C33
:103410007FEA6C5C4FEA430C18BF7FEA6C5C1BD000
:1034200001B050EA410C0CBF52EA430C91EA030F81
:1034300002BF90EA020F0020704710F1000F91EADE
:10344000030F58BF994208BF90422CBFD8176FEAAC
:10345000E37040F0010070474FEA410C7FEA6C5C7A
:1034600002D150EA013C07D14FEA430C7FEA6C5C81
:10347000D6D152EA033CD3D05DF8040B704700BFAD
:103480008446104662468C461946634600E000BFFB
:1034900001B5FFF7B7FF002848BF10F1000F01BDCD
:1034A0004DF808EDFFF7F4FF0CBF012000205DF898
:1034B00008FB00BF4DF808EDFFF7EAFF34BF01201D
:1034C00000205DF808FB00BF4DF808EDFFF7E0FFB6
:1034D00094BF012000205DF808FB00BF4DF808ED07
:1034E000FFF7CEFF94BF012000205DF808FB00BF6E
:1034F0004DF808EDFFF7C4FF34BF012000205DF850
:1035000008FB00BF4FEA410212F5001215D211D597
:103510006FF47873B3EB625212D94FEAC12343F0D0
:10352000004343EA505311F0004F23FA02F018BF52
:10353000404270474FF00000704750EA013005D11B
:1035400011F0004008BF6FF0004070474FF00000DE
:10355000704700BF4FEA4102B2F1E04324BFB3F528
:10356000001CDCF1FE5C0DD901F0004C4FEAC002FA
:103570004CEA5070B2F1004F40EB830008BF20F0DE
:103580000100704711F0804F21D113F13872BCBF98
:1035900001F00040704741F480114FEA5252C2F1ED
:1035A0001802C2F1200C10FA0CF320FA02F018BF36
:1035B00040F001004FEAC1234FEAD32303FA0CFC89
:1035C00040EA0C0023FA02F34FEA4303CCE77FEA18
:1035D000625307D150EA01331EBF4FF0FE4040F462
:1035E0004000704701F0004040F0FE4040F4000011
:1035F000704700BF40F61053C2F2000318687047CE
:10360000F8B5204F204C381B871017D07A1E23683E
:10361000012502F001069847AF420FD02EB154F8B1
:10362000041F02258847AF4208D0606880470235F2
:10363000A268261D90470834AF42F6D1134F144CB0
:1036400000F028F93B1B9F1018D07D1E216805F063
:10365000010601258847AF4211D02EB154F8040F5E
:1036600002258047AF420BD0626890470235A368BD
:10367000261D98470834AF42F6D1F8BDF8BDF8BD15
:10368000F8BD00BFB8380008B8380008B8380008DE
:10369000B838000880B485B000AFF860B9607A60CF
:1036A0004FF0FF33184607F11407BD4680BC704742
:1036B00080B485B000AFF860B9607A604FF0FF3336
:1036C000184607F11407BD4680BC704780B485B02A
:1036D00000AFF860B9607A604FF00003184607F158
:1036E0001407BD4680BC704780B485B000AFF86059
:1036F000B9607A604FF0FF33184607F11407BD46F2
:1037000080BC704780B400AF4FF0FF331846BD4611
:1037100080BC704780B483B000AF786039603B688C
:10372000002B02D04FF0FF3301E06FF00103184689
:1037300007F10C07BD4680BC704700BF80B483B062
:1037400000AF786039607A683B689A4202D14FF0E6
:10375000FF3301E06FF00103184607F10C07BD4687
:1037600080BC704780B483B000AF78604FF0FF3307
:10377000184607F10C07BD4680BC704780B487B07F
:1037800000AF78604FF2E823C0F200037B6140F69F
:103790000403C2F200031B68002B14D140F604039B
:1037A000C2F2000340F61852C2F200021A6040F65C
:1037B0000403C2F200031A687B69D21840F60803BA
:1037C000C2F200031A6040F60403C2F200031B6851
:1037D0003B6140F60403C2F200031B681A467B6893
:1037E000D31803F1070323F00703FB6040F6080337
:1037F000C2F200031B68FA689A4202D34FF000033A
:1038000006E040F60403C2F20003FA681A603B695E
:10381000184607F11C07BD4680BC704780B483B0D2
:1038200000AF78604FF0FF33184607F10C07BD4634
:1038300080BC704780B483B000AF78604FF0FF3336
:10384000184607F10C07BD4680BC704780B483B0B2
:1038500000AF786039604FF0FF33184607F10C076E
:10386000BD4680BC704700BF80B400AF4FF0FF334F
:103870001846BD4680BC704780B400AF4FF0FF33A0
:103880001846BD4680BC704780B483B000AF7860F6
:10389000FEE700BF80B400AFBD4680BC704700BFEC
:1038A00080B483B000AF78604FF0FF33184607F163
:0838B0000C07BD4680BC704707
:1038B80048C9FF7F010000005CC9FF7F01000000CC
:1038C8000080434400C8EC450000EB4300C88C4529
:1038D8000000803F000000420000804000000043DC
:1038E8000000803F000000420000804200000045C8
:1038F8000000803F000080410000804000008042BE
:103908000000803F000080410000804200008044A9
:1039180000009242000000410000AA410000384027
:103928006C6F6731300000000000000043000000A9
:04393800E80800207B
:10394000000E27070100000000000000D40B00203B
:103950003C0C0020A40C002000000000000000002F
:103960000000000000000000000000000000000057
:1039700000000000000000000000000034390008D2
:103980000000000000000000000000000000000037
:103990000000000000000000000000000000000027
:1039A0000000000000000000000000000000000017
:1039B0000000000000000000000000000000000007
:1039C00000000000000000000000000000000000F7
:1039D00000000000000000000000000000000000E7
:1039E00000000000000000000000000000000000D7
:1039F00001000000000000000E33CDAB34126DE674
:103A0000ECDE05000B0000000000000000000000DC
:103A100000000000000000000000000000000000A6
:103A20000000000000000000000000000000000096
:103A30000000000000000000000000000000000086
:103A40000000000000000000000000000000000076
:043D7000E80800203F
:0400000508000201EC
:00000001FF
