:020000040C00EE
:10000000000800200102000897040008A704000867
:10001000B7040008C7040008D70400080000000067
:10002000000000000000000000000000E7040008DD
:10003000F704000800000000070500081705000885
:100040002705000837050008470500085705000880
:100050006705000877050008870500089705000870
:10006000A7050008000000000000000000000000DC
:10007000B705000800000000C7050008D705000804
:10008000E7050008F705000807060008170600083E
:10009000270600083706000847060008570600082C
:1000A000670600087706000887060008970600081C
:1000B000A7060008B7060008C7060008D70600080C
:1000C000E7060008F70600080707000817070008FA
:1000D00027070008370700084707000857070008E8
:1000E00067070008770700088707000897070008D8
:1000F000A7070008B7070008C7070008D7070008C8
:10010000E7070008F50700080308000811080008C1
:100110001F0800082D0800083B08000849080008CF
:1001200057080008650800087308000881080008DF
:100130008F0800089D080008AB080008B9080008EF
:10014000C7080008D5080008E3080008F1080008FF
:10015000FF0800080D0900081B090008290900080C
:10016000000000000000000000000000000000008F
:10017000370900084509000853090008610900080B
:100180006F0900087D0900088B090008990900081B
:10019000A7090008B5090008C3090008D10900082B
:1001A000DF090008ED090008FB090008090A00083A
:1001B000170A0008250A0008330A0008410A000847
:1001C0004F0A00085D0A00086B0A0008790A000857
:1001D000870A0008950A0008A30A0008000000002A
:1001E000B10A0008BF0A0008CD0A0008DB0A0008AF
:1001F000E90A000800000000F70A000800000000FB
:10020000DFF80CD0034880470348804700F006B869
:1002100000080020C10C0008C50200081E481F4944
:100220001F4A002A00F01280042A80F002804FF05A
:1002300004024FEA920203680B60013A00F0068064
:1002400000F1040001F10401FFF7F5BF154816495C
:10025000002900F01180042980F002804FF0040191
:100260004FEA91014FF000020260013900F0048072
:1002700000F10400FFF7F8BF0C480D4908600D4875
:1002800080470D488047DFF834D04FF000004FF032
:100290000001DFF82CF000004043000C3024002067
:1002A000B41C000000080020301C00000000000802
:1002B00008ED00E05D0D0008B93E000800080020D0
:1002C000C902000800BF704780B586B002AF4FF08A
:1002D0007C5300934FF02003019342F29830C2F216
:1002E00000004FF0200143F63042C2F2000240F617
:1002F0000C13C2F2000302F079FB4FF020030093CD
:1003000042F28C30C2F200004FF0200144F2AC22E5
:10031000C0F6000240F68C23C2F2000302F004F99A
:100320004FF00003FB604EE0FB684FEAC31242F25D
:100330003043C2F20003D318184640F60C01C2F253
:1003400000014FF0200201F0B1FC42F28C30C2F209
:10035000000040F60C01C2F2000140F60C22C2F28D
:1003600000024FF0200301F055FE40F68C03C2F26C
:10037000000300934FF02003019342F29830C2F241
:10038000000040F60C01C2F2000140F60C22C2F25D
:10039000000242F2B033C2F2000302F0D7F842F298
:1003A000B030C2F200004FF00001C4F2A00142F2EE
:1003B000B032C2F200024FF0200302F0D9FBFB681A
:1003C00003F10103FB60FB682F2BADD94FF0000355
:1003D000FB7240F68C00C2F2000040F68C01C2F2C3
:1003E00000014FF0200202F017FB3A4607F1040328
:1003F00040F68C00C2F200004FF0200101F0CCFC6E
:1004000097ED007ADFED217AB4EEE77AF1EE10FA9B
:1004100002DD4FF0FA03FB7244F2AC20C0F600009C
:1004200043F63041C2F2000143F63042C2F200020C
:100430004FF0200302F04AFC43F63040C2F20000C5
:1004400043F63041C2F200014FF0200202F0E4FA1C
:100450003A4607F1040343F63040C2F200004FF081
:10046000200101F099FC97ED007ADFED097AB4EEF6
:10047000E77AF1EE10FA02DD4FF0FA03FB7297F91A
:100480000B30002B00D0FEE7FEE700BFBD378635FE
:1004900017B7D138FEE7DFF8700600B581B08047A6
:1004A00001B000BDFEE7DFF8640600B581B080470B
:1004B00001B000BDFEE7DFF8580600B581B0804707
:1004C00001B000BDFEE7DFF84C0600B581B0804703
:1004D00001B000BDFEE7DFF8400600B581B08047FF
:1004E00001B000BDFEE7DFF8340600B581B08047FB
:1004F00001B000BDFEE7DFF8280600B581B08047F7
:1005000001B000BDFEE7DFF81C0600B581B08047F2
:1005100001B000BDFEE7DFF8100600B581B08047EE
:1005200001B000BDFEE7DFF8040600B581B08047EA
:1005300001B000BDFEE7DFF8F80500B581B08047E7
:1005400001B000BDFEE7DFF8EC0500B581B08047E3
:1005500001B000BDFEE7DFF8E00500B581B08047DF
:1005600001B000BDFEE7DFF8D40500B581B08047DB
:1005700001B000BDFEE7DFF8C80500B581B08047D7
:1005800001B000BDFEE7DFF8BC0500B581B08047D3
:1005900001B000BDFEE7DFF8B00500B581B08047CF
:1005A00001B000BDFEE7DFF8A40500B581B08047CB
:1005B00001B000BDFEE7DFF8980500B581B08047C7
:1005C00001B000BDFEE7DFF88C0500B581B08047C3
:1005D00001B000BDFEE7DFF8800500B581B08047BF
:1005E00001B000BDFEE7DFF8740500B581B08047BB
:1005F00001B000BDFEE7DFF8680500B581B08047B7
:1006000001B000BDFEE7DFF85C0500B581B08047B2
:1006100001B000BDFEE7DFF8500500B581B08047AE
:1006200001B000BDFEE7DFF8440500B581B08047AA
:1006300001B000BDFEE7DFF8380500B581B08047A6
:1006400001B000BDFEE7DFF82C0500B581B08047A2
:1006500001B000BDFEE7DFF8200500B581B080479E
:1006600001B000BDFEE7DFF8140500B581B080479A
:1006700001B000BDFEE7DFF8080500B581B0804796
:1006800001B000BDFEE7DFF8FC0400B581B0804793
:1006900001B000BDFEE7DFF8F00400B581B080478F
:1006A00001B000BDFEE7DFF8E40400B581B080478B
:1006B00001B000BDFEE7DFF8D80400B581B0804787
:1006C00001B000BDFEE7DFF8CC0400B581B0804783
:1006D00001B000BDFEE7DFF8C00400B581B080477F
:1006E00001B000BDFEE7DFF8B40400B581B080477B
:1006F00001B000BDFEE7DFF8A80400B581B0804777
:1007000001B000BDFEE7DFF89C0400B581B0804772
:1007100001B000BDFEE7DFF8900400B581B080476E
:1007200001B000BDFEE7DFF8840400B581B080476A
:1007300001B000BDFEE7DFF8780400B581B0804766
:1007400001B000BDFEE7DFF86C0400B581B0804762
:1007500001B000BDFEE7DFF8600400B581B080475E
:1007600001B000BDFEE7DFF8540400B581B080475A
:1007700001B000BDFEE7DFF8480400B581B0804756
:1007800001B000BDFEE7DFF83C0400B581B0804752
:1007900001B000BDFEE7DFF8300400B581B080474E
:1007A00001B000BDFEE7DFF8240400B581B080474A
:1007B00001B000BDFEE7DFF8180400B581B0804746
:1007C00001B000BDFEE7DFF80C0400B581B0804742
:1007D00001B000BDFEE7DFF8000400B581B080473E
:1007E00001B000BDFEE7FD4800B581B0804701B013
:1007F00000BDFEE7FA4800B581B0804701B000BDFA
:10080000FEE7F84800B581B0804701B000BDFEE7C3
:10081000F54800B581B0804701B000BDFEE7F34860
:1008200000B581B0804701B000BDFEE7F04800B5DB
:1008300081B0804701B000BDFEE7EE4800B581B051
:10084000804701B000BDFEE7EB4800B581B08047AE
:1008500001B000BDFEE7E94800B581B0804701B0B6
:1008600000BDFEE7E64800B581B0804701B000BD9D
:10087000FEE7E44800B581B0804701B000BDFEE767
:10088000E14800B581B0804701B000BDFEE7DF4818
:1008900000B581B0804701B000BDFEE7DC4800B57F
:1008A00081B0804701B000BDFEE7DA4800B581B0F5
:1008B000804701B000BDFEE7D74800B581B0804752
:1008C00001B000BDFEE7D54800B581B0804701B05A
:1008D00000BDFEE7D24800B581B0804701B000BD41
:1008E000FEE7D04800B581B0804701B000BDFEE70B
:1008F000CD4800B581B0804701B000BDFEE7CB48D0
:1009000000B581B0804701B000BDFEE7C84800B522
:1009100081B0804701B000BDFEE7C64800B581B098
:10092000804701B000BDFEE7C34800B581B08047F5
:1009300001B000BDFEE7C14800B581B0804701B0FD
:1009400000BDFEE7BE4800B581B0804701B000BDE4
:10095000FEE7BC4800B581B0804701B000BDFEE7AE
:10096000B94800B581B0804701B000BDFEE7B74887
:1009700000B581B0804701B000BDFEE7B44800B5C6
:1009800081B0804701B000BDFEE7B24800B581B03C
:10099000804701B000BDFEE7AF4800B581B0804799
:1009A00001B000BDFEE7AD4800B581B0804701B0A1
:1009B00000BDFEE7AA4800B581B0804701B000BD88
:1009C000FEE7A84800B581B0804701B000BDFEE752
:1009D000A54800B581B0804701B000BDFEE7A3483F
:1009E00000B581B0804701B000BDFEE7A04800B56A
:1009F00081B0804701B000BDFEE79E4800B581B0E0
:100A0000804701B000BDFEE79B4800B581B080473C
:100A100001B000BDFEE7994800B581B0804701B044
:100A200000BDFEE7964800B581B0804701B000BD2B
:100A3000FEE7944800B581B0804701B000BDFEE7F5
:100A4000914800B581B0804701B000BDFEE78F48F6
:100A500000B581B0804701B000BDFEE78C4800B50D
:100A600081B0804701B000BDFEE78A4800B581B083
:100A7000804701B000BDFEE7874800B581B08047E0
:100A800001B000BDFEE7854800B581B0804701B0E8
:100A900000BDFEE7824800B581B0804701B000BDCF
:100AA000FEE7804800B581B0804701B000BDFEE799
:100AB0007D4800B581B0804701B000BDFEE77B48AE
:100AC00000B581B0804701B000BDFEE7784800B5B1
:100AD00081B0804701B000BDFEE7764800B581B027
:100AE000804701B000BDFEE7734800B581B0804784
:100AF00001B000BDFEE7714800B581B0804701B08C
:100B000000BD4FF00100704795040008A5040008DF
:100B1000B5040008C5040008D5040008E504000871
:100B2000F50400080505000815050008250500085E
:100B3000350500084505000855050008650500084D
:100B4000750500088505000895050008A50500083D
:100B5000B5050008C5050008D5050008E50500082D
:100B6000F50500080506000815060008250600081A
:100B70003506000845060008550600086506000809
:100B8000750600088506000895060008A5060008F9
:100B9000B5060008C5060008D5060008E5060008E9
:100BA000F5060008050700081507000825070008D6
:100BB00035070008450700085507000865070008C5
:100BC000750700088507000895070008A5070008B5
:100BD000B5070008C5070008D5070008E5070008A5
:100BE000F3070008010800080F0800081D080008A6
:100BF0002B080008390800084708000855080008B5
:100C000063080008710800087F0800088D080008C4
:100C10009B080008A9080008B7080008C5080008D4
:100C2000D3080008E1080008EF080008FD080008E4
:100C30000B090008190900082709000835090008F0
:100C400043090008510900085F0900086D09000800
:100C50007B0900088909000897090008A509000810
:100C6000B3090008C1090008CF090008DD09000820
:100C7000EB090008F9090008070A0008150A00082E
:100C8000230A0008310A00083F0A00084D0A00083C
:100C90005B0A0008690A0008770A0008850A00084C
:100CA000930A0008A10A0008AF0A0008BD0A00085C
:100CB000CB0A0008D90A0008E70A0008F50A00086C
:100CC00080B582B000AF4FF46D43CEF200034FF415
:100CD0006D42CEF20002D2F8882042F47002C3F8CE
:100CE00088204FF46D43CEF200034FF46D42CEF2F4
:100CF0000002526922F008025A614FF40043C5F223
:100D000000034FF40042C5F20002526822F00102D3
:100D10005A604FF48053C5F6000303F5805303F186
:100D200014031B687B607B6823F00F037B607B6888
:100D300043F003037B604FF48053C5F600037A68E9
:100D400003F5805303F114031A6000F0ABF800F0D0
:100D500005F807F10807BD4680BD00BF80B485B027
:100D600000AF4FF48C43C5F20003DB68B3F5803F5E
:100D700040F0898044F21073C5F200031B6803F051
:100D80000403002B00F0888044F21073C5F20003C6
:100D90009B6803F070634FEA136303F10103FB6088
:100DA00044F21073C5F200039B6803F4FE434FEA5C
:100DB000132303F10103BB6044F21073C5F2000377
:100DC0009B6803F4FE034FEA134303F101037B60C6
:100DD00044F21073C5F20003DB6803F00103002B3B
:100DE00028D04FF45853C0F26E13FA68B3FBF2F3F5
:100DF000BA6802FB03F33B603A687B68B2FBF3F22C
:100E000043F6B043C2F200031A6043F6B043C2F2A5
:100E100000031A684FF48C43C5F20003DB68DBB2B1
:100E200003F10103B2FBF3F243F6B043C2F2000355
:100E30001A6031E04FF4D853C0F2B703FA68B3FB3D
:100E4000F2F3BA6802FB03F33B603A687B68B2FBDB
:100E5000F3F243F6B043C2F200031A6043F6B04324
:100E6000C2F200031A684FF48C43C5F20003DB683A
:100E7000DBB203F10103B2FBF3F243F6B043C2F27B
:100E800000031A6008E043F6B043C2F200034FF4D7
:100E90005852C0F26E121A6007F11407BD4680BCAA
:100EA000704700BF80B582B000AFFFF72AFE03464F
:100EB000002B00F0558244F21073C5F200035A680B
:100EC0004FF00203C0F201031340002B0DD044F297
:100ED0001073C5F2000344F21072C5F200025268AA
:100EE00022F4803222F002025A604FF48E43C5F29F
:100EF00000035B6803F03003002B72D04FF48E4385
:100F0000C5F200034FF48E42C5F20002526822F08F
:100F1000F0025A604FF48E43C5F200034FF48E4244
:100F2000C5F20002526842F400325A6044F2107373
:100F3000C5F2000344F21072C5F20002D26822F03A
:100F40000102DA6044F21073C5F2000344F2107239
:100F5000C5F20002526822F400325A604EF21003C9
:100F6000CEF2000344F6A332C0F24C025A604EF2B5
:100F70001003CEF200034FF000029A604EF210030D
:100F8000CEF200034FF005021A6044F21073C5F26E
:100F900000031B6803F46073B3F5607F08D04EF262
:100FA0001003CEF200039A6840F2F3139A42ECD891
:100FB0004EF21003CEF200034EF21002CEF2000207
:100FC000126822F001021A6044F21073C5F20003A5
:100FD0001B6803F46073B3F5607F02D04FF0000329
:100FE000C0E144F21073C5F200031B6803F0040370
:100FF000002B40F0B5814FF48C43C5F20003DB6851
:1010000003F48033002B0BD04FF48C43C5F2000364
:101010004FF48C42C5F20002D26822F48032DA60CA
:101020004FF46053C1F69C437B607A6849F6817344
:10103000C1F25E63A3FB02134FEA535303F1FF3384
:101040003B6044F21073C5F2000344F21072C5F223
:101050000002526842F001025A6044F21073C5F275
:10106000000344F21072C5F20002526842F010020E
:101070005A6044F21072C5F200023B684FEA034125
:1010800044F60173C0F200130B43936044F21073F3
:10109000C5F2000344F21072C5F20002526842F039
:1010A00040025A6044F21073C5F2000344F2107219
:1010B000C5F20002526822F010025A6044F2107326
:1010C000C5F2000344F21072C5F20002526842F405
:1010D00080225A604EF21003CEF2000344F6A3328F
:1010E000C0F24C025A604EF21003CEF200034FF0F1
:1010F00000029A604EF21003CEF200034FF0050298
:101100001A6000BF44F21073C5F200031B6803F0BD
:101110000403002B08D14EF21003CEF200039A68AC
:1011200040F2F3139A42EDD84EF21003CEF20003D0
:101130004EF21002CEF20002126822F001021A6092
:1011400044F21073C5F200031B6803F00403002B84
:101150004ED044F21073C5F2000344F21072C5F28F
:101160000002526822F001025A604FF48C43C5F22B
:1011700000034FF000021A614FF48C43C5F20003E4
:101180004FF000025A614FF48C43C5F200034FF058
:1011900000021A624FF48C43C5F200034FF48C42F4
:1011A000C5F20002D26842F48032DA6044F2107371
:1011B000C5F2000344F21072C5F20002526822F038
:1011C00040025A604EF21003CEF2000340F2455244
:1011D0005A604EF21003CEF200034FF000029A6004
:1011E0004EF21003CEF200034FF005021A6002E047
:1011F0004FF00003B6E04EF21003CEF200039B68FE
:10120000632BF8D84EF21003CEF200034EF2100218
:10121000CEF20002126822F001021A604FF460530D
:10122000C1F69C437B607B684FEA132245F2C743BB
:10123000C0F21E13A3FB02134FEA932303F1FF3303
:101240003B6044F21072C5F200023B684FEA034172
:1012500044F60173C0F200130B4393604EF2100387
:10126000CEF2000340F61B425A604EF21003CEF25B
:1012700000034FF000029A604EF21003CEF200031A
:101280004FF005021A6000BF4EF21003CEF20003C9
:101290009B68632BF8D84EF21003CEF200034EF297
:1012A0001002CEF20002126822F001021A604FF41E
:1012B0006053C1F69C437B607B684FEAD3124EF2C9
:1012C0002F33C0F2BE03A3FB02134FEAD32303F173
:1012D000FF333B6044F21072C5F200023B684FEAF4
:1012E000034144F60173C0F200130B4393604EF2C6
:1012F0001003CEF2000341F223325A604EF2100383
:10130000CEF200034FF000029A604EF21003CEF2CC
:1013100000034FF005021A6000BF4EF21003CEF238
:1013200000039B68632BF8D84EF21003CEF2000343
:101330004EF21002CEF20002126822F001021A6090
:1013400044F21073C5F2000344F60172C0F20312B6
:101350009A6044F26013C5F200034FF00502DA60B0
:101360004FF00103184607F10807BD4680BD00BFD6
:1013700080B58AB000AFF860B9607A604FF00003C2
:101380007B624FF000033B614FF000033B6267E07C
:101390003B6A4FEA8303FA68D318FB61FB691B6859
:1013A000BB61BA694FF00003C7F6C0739A4202D11D
:1013B0004FF000038DE03B6A4FEA8303BA68D3180D
:1013C000FB61FB691B68BB61BA694FF00003C7F69C
:1013D000C0739A4202D14FF000037AE03B6A4FEAB1
:1013E0008303FA68D31893ED007A3B6A4FEA8303CC
:1013F000FA68D318D3ED007A67EE277A97ED097A69
:1014000077EE277AC7ED097A3B6A4FEA8303FA68D9
:10141000D31893ED007A3B6A4FEA8303BA68D31876
:10142000D3ED007A37EE677A3B6A4FEA8303FA68B6
:10143000D318D3ED006A3B6A4FEA8303BA68D31826
:10144000D3ED007A76EEE77A27EE277AD7ED047AA5
:1014500077EE277AC7ED047A3B6A03F101033B621A
:101460003A6A7B689A4293D307F11003FB61FB69E8
:101470001B68BB61BA694FF00003C7F6C0739A429C
:1014800002D14FF0000324E0D7ED047A97ED097AFA
:10149000C7EE277A17EE900A02F0A2F902460B4631
:1014A0001046194601F0F8FC02460B461046194654
:1014B0004FF000024FF00003C4F2240302F0E4F9FD
:1014C00002460B461046194602F0A0FC03467B611B
:1014D0007B69184607F12807BD4680BD80B487B0F8
:1014E00000AFF860B9607A604FF000037B6114E0F0
:1014F0007B694FEA4303FA68D3187A694FEA4202DC
:10150000F9688A18128811B27A6841FA02F292B226
:101510001A807B6903F101037B617A69BB689A4297
:10152000E6D307F11C07BD4680BC704790B587B075
:1015300000AFF860B9607A604FF000037B6160E053
:101540007B694FEA8303BA68D3187A694FEA82024B
:10155000F9688A1892ED007ADFED2E7A67EE277A25
:10156000FDEEE77AC3ED007A7B694FEA8303BA6840
:10157000D4187B694FEA8303BA68D3181B681846EE
:1015800002F01CF97B694FEA8303FA68D318D3EDA4
:10159000007AF5EEC07AF1EE10FA06DD4FF00002A7
:1015A0004FF00003C3F6E07305E04FF000024FF088
:1015B0000003CBF6E07301F0B5FF02460B46104680
:1015C000194602F0FBFB034623607B694FEA830365
:1015D000FA68D31893ED007AF7EE007AB4EE677AE2
:1015E000F1EE10FA09D17B694FEA8303BA68D21889
:1015F0004FF6FF73C0F20F0313607B6903F1010321
:101600007B617A697B689A429AD307F11C07BD46D1
:1016100090BD00BF0000804980B489B000AFF86081
:10162000B9607A604FF000037B614FF00003BB614B
:101630004FF00003FB611EE0FB694FEA4303FA68C9
:10164000D3181B881AB2FB694FEA4303B968CB1859
:101650001B881BB2D31A3B613B69002BB8BF5B42AE
:101660007B617A69BB699A4201D97B69BB61FB697D
:1016700003F10103FB61FA697B689A42DCD3BB6921
:10168000184607F12407BD4680BC704780B489B076
:1016900000AFF860B9607A604FF000037B614FF0F3
:1016A0000003BB614FF00003FB611CE0FB694FEAE4
:1016B0008303FA68D3181A68FB694FEA8303B96891
:1016C000CB181B68D31A3B613B69002BB8BF5B4248
:1016D0007B617A69BB699A4201D97B69BB61FB690D
:1016E00003F10103FB61FA697B689A42DED3BB69AF
:1016F000184607F12407BD4680BC704780B487B008
:1017000000AFF860B9607A604FF000037B6112E0CF
:101710007B694FEA8303FA68D3187A694FEA820239
:10172000F9688A1811687A6841FA02F21A607B69CE
:1017300003F101037B617A69BB689A42E8D307F140
:101740001C07BD4680BC704780B487B000AFF8600E
:10175000B9607A604FF000037B6110E0FA687B6942
:10176000D318F9687A698A18127851B27A6841FAFE
:1017700002F2D2B21A707B6903F101037B617A69CC
:10178000BB689A42EAD307F11C07BD4680BC70478C
:1017900080B485B000AF78604FF00103FB604FF07C
:1017A0000003BB607B68012B0AD14FF000030CE003
:1017B000FB684FEA4303FB60BB6803F10103BB60B6
:1017C000FA687B689A42F3D3BB68184607F114079E
:1017D000BD4680BC704700BF90B52DED028B87B031
:1017E00000AFF860B9607A604FF000037B611BE0E6
:1017F0007B694FEA8303FA68D4187B694FEA830355
:10180000FA68D31893ED008A786800F017F8034659
:1018100007EE103AF8EE477A68EE277AC4ED007AC0
:101820007B6903F101037B617A69BB689A42DFD36C
:1018300007F11C07BD46BDEC028B90BD80B485B09E
:1018400000AF78604FF00103BB604FF00003FB6016
:1018500007E0BB684FEA4303BB60FB6803F1010389
:10186000FB60FA687B689A42F3D3BB68184607F1BD
:101870001407BD4680BC704790B587B000AFF860D4
:10188000B9607A604FF000037B6162E07B694FEAE8
:101890004303BA68D3187A694FEA8202F9688A1852
:1018A00092ED007ADFED2F7A67EE277AFDEEE77A88
:1018B00017EE902A92B21A807B694FEA4303BA6806
:1018C000D4187B694FEA4303BA68D3181B881BB24C
:1018D000184601F073FF7B694FEA8303FA68D31857
:1018E000D3ED007AF5EEC07AF1EE10FA06DD4FF096
:1018F00000024FF00003C3F6E07305E04FF0000272
:101900004FF00003CBF6E07301F00CFE02460B46ED
:101910001046194602F052FA03469BB223807B69B7
:101920004FEA8303FA68D31893ED007AF0EE007A59
:10193000B4EE677AF1EE10FA07D17B694FEA430300
:10194000BA68D31847F6FF721A807B6903F1010366
:101950007B617A697B689A4298D307F11C07BD4680
:1019600090BD00BF0000804690B587B000AFF86022
:10197000B9607A604FF000037B615EE07B694FEAFB
:101980008303BA68D3187A694FEA8202F9688A1821
:1019900092ED007ADFED2D7A67EE277AFDEEE77A99
:1019A000C3ED007A7B694FEA8303BA68D4187B6978
:1019B0004FEA8303BA68D3181B68184601F0FEFE8D
:1019C0007B694FEA8303FA68D318D3ED007AF5EE0A
:1019D000C07AF1EE10FA06DD4FF000024FF000037E
:1019E000C3F6E07305E04FF000024FF00003CBF6C2
:1019F000E07301F097FD02460B461046194602F0CF
:101A0000DDF9034623607B694FEA8303FA68D31844
:101A100093ED007AF0EE007AB4EE677AF1EE10FA08
:101A200007D17B694FEA8303BA68D3186FF000428D
:101A30001A607B6903F101037B617A697B689A42D2
:101A40009CD307F11C07BD4690BD00BF0000804E2F
:101A500090B587B000AFF860B9607A604FF00003CE
:101A60007B615EE07B694FEA8303BA68D3187A69C9
:101A70004FEA8202F9688A1892ED007ADFED2D7A3A
:101A800067EE277AFDEEE77AC3ED007A7B694FEACD
:101A90008303BA68D4187B694FEA8303BA68D31802
:101AA0001B68184601F08AFE7B694FEA8303FA68D7
:101AB000D318D3ED007AF5EEC07AF1EE10FA06DD18
:101AC0004FF000024FF00003C3F6E07305E04FF063
:101AD00000024FF00003CBF6E07301F023FD024655
:101AE0000B461046194602F069F9034623607B69EC
:101AF0004FEA8303FA68D31893ED007AF1EE007A87
:101B0000B4EE677AF1EE10FA07D17B694FEA8303EE
:101B1000BA68D3186FF000421A607B6903F10103C1
:101B20007B617A697B689A429CD307F11C07BD46AA
:101B300090BD00BF0000004E90B587B000AFF860C8
:101B4000B9607A604FF000037B615EE07B694FEA29
:101B50008303BA68D3187A694FEA8202F9688A184F
:101B600092ED007ADFED2D7A67EE277AFDEEE77AC7
:101B7000C3ED007A7B694FEA8303BA68D4187B69A6
:101B80004FEA8303BA68D3181B68184601F016FEA3
:101B90007B694FEA8303FA68D318D3ED007AF5EE38
:101BA000C07AF1EE10FA06DD4FF000024FF00003AC
:101BB000C3F6E07305E04FF000024FF00003CBF6F0
:101BC000E07301F0AFFC02460B461046194602F0E6
:101BD000F5F8034623607B694FEA8303FA68D3185C
:101BE00093ED007AF2EE007AB4EE677AF1EE10FA35
:101BF00007D17B694FEA8303BA68D3186FF00042BC
:101C00001A607B6903F101037B617A697B689A4200
:101C10009CD307F11C07BD4690BD00BF0000804D5E
:101C200080B485B000AF786039604FF00003FB608E
:101C300032E0FB684FEA83037A68D31893ED007AA9
:101C4000F7EE007AB4EEE77AF1EE10FA08DDFB6801
:101C50004FEA83037A68D3184FF07E521A6017E078
:101C6000FB684FEA83037A68D31893ED007AFFEE9E
:101C7000007AB4EEE77AF1EE10FA09D5FB684FEA84
:101C800083037A68D3184FF00002CBF680721A6093
:101C9000FB6803F10103FB60FA683B689A42C8D312
:101CA00007F11407BD4680BC704700BF2DE9F0075F
:101CB0005FEA920A50D0D0F80080D0F804C086685D
:101CC000C568C1F800800AF1FF331F4603F001091F
:101CD00000F11004C1F804C08E60CD6001F1100362
:101CE000002F35D0B9F1000F0FD0D4F80080D4F810
:101CF00004C0A668E568C3F80080C3F804C09E600D
:101D0000DD6010341033013F22D0A668D4F8008083
:101D1000D4F80490E5689E6004F11006DD60C3F815
:101D20000080C3F804902469D6F80490D6F808809F
:101D3000D6F80CC01C6103F11005C3F81490C3F869
:101D40001880C3F81CC02033023F06F11004DCD118
:101D50004FEA0A1A5044514412F0030218D0013AD3
:101D60000468134641F8044B02F0010283B12AB122
:101D700050F8042F013B41F8042B09D044680A466F
:101D800042F8044B846808304C60111D023BF5D1C9
:101D9000BDE8F007704700BF2DE9F00701F1FF38FB
:101DA00084465FEA9809FCEC017A00F03081DCEDB2
:101DB000006AF4EEE76AF1EE10FA9CED017A48BF92
:101DC000F0EE667AF4EEC77A54BF002601269CED49
:101DD000020AF1EE10FAC8BFF0EE477AF4EEC07ACC
:101DE000C8BF0226DCED030AF1EE10FAC8BFF0EE20
:101DF000407A09F1FF34F4EEE07AC8BF03262746A3
:101E0000F1EE10FA04F0010AC8BFF0EE607AC8BF24
:101E1000042600F114050824002F00F09F80BAF179
:101E2000000F30D095ED001AB4EEE71AF1EE10FA7B
:101E3000D5ED011A48BFF0EE417AF4EEE17A95ED66
:101E4000022A48BF0526F1EE10FAC8BFF0EE617A0B
:101E5000F4EEC27AD5ED032AC8BF0626F1EE10FAD9
:101E6000C8BFF0EE427AF4EEE27AC8BF0726F1EE80
:101E700010FAC8BFF0EE627AC8BF08260C24013FF2
:101E800000F124056AD095ED003AB4EEE73AF1EEA0
:101E900010FAD5ED013A48BFF0EE437AA4F1030001
:101EA000F4EEE37A48BF064695ED024AF1EE10FAE9
:101EB000C8BFF0EE637AA4F10200F4EEC47AD5ED67
:101EC000034AC8BF0646F1EE10FAC8BFF0EE447AE6
:101ED00004F1FF30F4EEE47A95ED045AC8BF0646EB
:101EE000F1EE10FAC8BFF0EE647AB4EEE75AC8BF5C
:101EF0002646D5ED055AF1EE10FA48BFF0EE457AC8
:101F000004F10100F4EEE57A48BF064695ED066A55
:101F1000F1EE10FAC8BFF0EE657A04F10200F4EEBB
:101F2000C67AC8BF0646D5ED076AF1EE10FAC8BFFB
:101F3000F0EE467A04F10300F4EEE67A04F10404CC
:101F4000C8BF0646F1EE10FAC8BFF0EE667AC8BF09
:101F500026460434023F05F1200594D10CEB091C00
:101F600018F0030550D06046B0EC017AB4EEE77A81
:101F7000F1EE10FAC5EB010148BFF0EE477A4CBF15
:101F80000F463746012405F1FF3CAC420CEA040C35
:101F9000B0EE670A3E46F0EE670A2FD0BCF1000FA4
:101FA0000FD0B0EC010AB4EEE70AF1EE10FA58BF18
:101FB000B0EE670AF0EE400A1CD40134AC423E4653
:101FC0001CD0B0EC011AB4EEE01AF1EE10FAF0EC0D
:101FD000011A48BFF0EE410AF4EEE01A48BF0E19AC
:101FE000F1EE10FA48BFF0EE610A04F10104B0EE20
:101FF000600A00D50E190134AC42E2D182ED000A2C
:102000001E60BDE8F0077047B0EE670AF6E74E467F
:10201000A6E700BF2DE9F00F2DED068B8AB04568CD
:102020000693038805910493DDF810900699D0F883
:1020300008A0029509F1FF38C808CDF80C8005EB1F
:10204000880B079000F06B82049CDDF810C0DDF86F
:102050001C90CDF820B0E40863010AEB0307009759
:102060001C33059F01932E46D8460CF007050992B4
:1020700094463A68C8F800207968C8F80410B8682F
:10208000C8F80800FB68C8F80C303A69C8F8102096
:102090007969C8F81410B869C8F81800FB69DFED51
:1020A000E37AC8F81C30203708F1200896ED001AB2
:1020B000D6ED011A96ED022AD6ED032A96ED043AE2
:1020C000D6ED053A96ED064A06F11C03F0EE674A96
:1020D000B0EE675AF0EE675AB0EE676AF0EE676AE4
:1020E000B0EE677AB0EE678A002C00F016822146C7
:1020F000504690ED009A93ED000A01EE897A42EE87
:10210000096A02EE896A43EE095A03EE895A44EEDF
:10211000094A40EE097AD0ED018A61EE090A93ED91
:10212000011A02EE287A42EEA86A03EE286A43EE0C
:10213000A85A04EE285A40EE284A41EE287A90ED3B
:10214000029A61EEA8AAD3ED021A02EE897A43EE52
:10215000096A03EE896A44EE095A00EE095A41EE13
:10216000094A41EE897A90ED03AA62EE099A93ED4D
:10217000032A38EE208A03EE0A7A43EE8A6A04EED6
:102180000A6A40EE0A5A01EE0A5A41EE8A4A42EEC3
:102190000A7AD0ED040A22EE8AAA78EE2A8AD3EDD2
:1021A000042A03EEA07A44EE206A78EEA98A00EEB3
:1021B000206A41EE205A01EEA05A42EE204A42EE39
:1021C000A07A90ED058A63EE209A93ED053A78EEB9
:1021D0008A8A04EE087A40EE086A01EE086A41EE47
:1021E000885A02EE085A42EE884A43EE087AD0ED49
:1021F000060A23EE888A78EEA98AD3ED063A64EEC1
:10220000209A00EE207A41EE206A01EEA06A42EEAA
:10221000205A02EEA05A43EE204A43EEA07A38EE4E
:10222000888AD0ED070A93ED074A38EE298A2030D4
:102230002033013900EE208A01EE207A41EEA06AB7
:1022400002EE206A42EEA05A03EE205A43EEA04A64
:1022500044EE207A7FF44DAF019B009AF318002DD5
:102260007BD0B2EC010A681EF3EC010A014601EED4
:10227000008A00F0010001EE807A42EE006A02EE70
:10228000806A43EE005A03EE805A44EE004A40EE64
:10229000807A002961D018B3B2EC011AB3EC010ABC
:1022A000013901EE818A02EE017A42EE816A03EE83
:1022B000016A43EE815A04EE015A40EE814AF0EE83
:1022C000421A40EE017AB0EE622AF0EE432AB0EEF6
:1022D000633AF0EE443AB0EE604AF0EE400A3CD089
:1022E00093461846FBEC018AB0EC010A01EEA88A7D
:1022F00002EE287A42EEA86A03EE286A43EEA85A54
:1023000004EE285A40EEA84A40EE287A92ED011ACF
:10231000D3ED018A031D023902EE018A02EE817AB1
:1023200043EE016A03EE816A44EE015A00EE815ADF
:10233000F0EE621AB0EE432AF0EE632AB0EE443AB1
:10234000F0EE603A0BF1040240EE014A48EE817A69
:10235000B0EE404AF0EE680AC2D12036B9F1010968
:102360008CED008A8CED017ACCED026A8CED036A6B
:10237000CCED045A8CED055ACCED064ACCED077A2B
:102380000CF1200C7FF475AEDDF81CB00599DDF87A
:102390002080099A02984FEA4B13CD1808EB030BE3
:1023A000059500EB030CD218069B13F0070846D0E6
:1023B000059E049C9FED1D4A371FACF1040546465F
:1023C00057F8041F4BF8041B5346D5ED011AB3EC24
:1023D000012AF0EE442A41EE822A601E014600F0F6
:1023E0000109F0EE620A281D11B3B9F1000F09D0FE
:1023F000043090ED003ADAED013A0433013943EE4E
:10240000230A15D09946D0ED014AB9EC015A44EEA1
:10241000850AD3ED015A90ED026A0830023946EE82
:10242000250A09F10403EDD102E000BF000000001D
:102430000435013EE2EC010AC2D10CEB880C039A90
:1024400095086ED0DCF80000DDF80890C9F80000AF
:10245000DCF80410C9F80410DCF80820C9F80820DA
:102460006B1EDCF80C20184603F001014B46C9F83E
:102470000C2010330CF1100218B359B11168196017
:102480005168596091689960D1681032D9601033F1
:10249000013816D014681C605168596094689C60BB
:1024A000D168D96014691C6154695C6103F1100141
:1024B00093698B60D4692032023801F11003CC603B
:1024C000E8D1029A2D015319AC44DDF80C9019F0B3
:1024D00003001CD0411EDCF800000A4643F8040B40
:1024E00001F001019AB129B15CF8040F013A43F8F7
:1024F000040B0CD0DCF80400194641F8040BDCF89E
:10250000080058600B1D023A0CF1080CF2D10AB019
:10251000BDEC068BBDE8F00F704752469FE6AC4617
:1025200042E7029BD1E700BF70B501F180451E462E
:10253000049B0446681EC518A26021803046002115
:10254000AA0001F003FD666070BD00BF2DE9F00F29
:1025500088B0B0F800A006904068069D05900AF18A
:10256000FF3607969B460798059B0392119E069A95
:10257000AF6803EB800592ED035A92ED046AD2ED49
:10258000057A0295002E00F02C824FEA9A031C0176
:1025900001F1040811980599DDF814C001900AF0C2
:1025A000030A3A19DFEDD04ADFEDCE5A01EB0409F8
:1025B00004925646029C58F8045C44F8045B07EE0B
:1025C000E76A58ED017A029407EEA76A002B00F043
:1025D00003829CED007A97ED000AF0EE646A47EE04
:1025E000006ADCED010A97ED011AF0EE667A40EE22
:1025F000817ADCED021A97ED022A41EE827ADCED57
:10260000032A97ED033A591E084601F0010542EEF0
:10261000837A0CF1100407F11002002950D0DDB1CB
:10262000D4ED003A97ED044A43EE847A94ED010A22
:1026300092ED017A40EE077AD4ED026AD2ED020AF9
:1026400046EEA07A94ED031AD2ED031A103410323C
:10265000481E41EE217A33D094ED002AD2ED002AB3
:1026600042EE227A94ED013AD2ED013A43EE237A1A
:1026700094ED024A92ED020A44EE007AD4ED036A28
:1026800092ED037A46EE877AD4ED040A92ED041AAD
:1026900040EE817AD4ED051A92ED052A41EE827A58
:1026A000D4ED062A92ED063A42EE837AD4ED073A4B
:1026B00092ED074A20342032023843EE847ACBD19F
:1026C000049A4C462EB394ED000AF2EC016A751E92
:1026D000294605F0010040EE267AD5B140B1043418
:1026E000D4ED000AB2EC017A013940EE877A10D0BD
:1026F000104694ED011AF0EC011A41EE217A92EDA8
:10270000012AD4ED022A021D0834023942EE827AEF
:10271000EED1EBEC017A039A109CB2EC013A73EE25
:10272000673A36EE254A23EE850AE4EC013A039235
:102730001094C0EE047A002B00F04B81DCED006AAF
:10274000D7ED000A47EEA60A3C46103444ED040AD1
:1027500097ED017A9CED011A07EE817A97ED022A36
:1027600087ED017ADCED021A07EEA12AD7ED032AE4
:1027700087ED022A9CED033A47EE832A581E8246D3
:1027800000F00105C7ED032A0CF11001103407F128
:102790001402002873D035B3D1ED003A14ED044A89
:1027A00007EEA34A04ED044AD7ED056A91ED010A4C
:1027B00047EE806A1034C7ED056AD1ED020A92ED4A
:1027C000011A07EEA01A92ED027A82ED011AD1EDFC
:1027D000031A07EEA17A1031B0F1010A82ED027AF4
:1027E00007F124024BD091ED002A54ED042A47EE64
:1027F000822A254644ED042A91ED013AD2ED003AB1
:1028000047EE833A92ED014AC2ED003A91ED020A99
:1028100007EE804AD2ED020A82ED014AD1ED036A49
:1028200047EEA60A2846C2ED020A91ED041A90ED81
:10283000007A07EE817A103505ED047A91ED052ACC
:10284000D2ED041A47EE821A01F11004C2ED041A07
:1028500092ED053AD4ED022A07EEA23AD2ED063AFD
:1028600082ED053A94ED034A47EE843A2031C2EDF9
:10287000063A2032BAF1020A05F11004B3D1049DE0
:102880004C469EB395ED000AD4ED000A07EEA00A6F
:10289000721E114602F00100A5EC010A32B350B1DC
:1028A000043495ED001AD4ED006A07EEA61A01393A
:1028B000A5EC011A1AD095ED007AD4ED011A07EEB5
:1028C000A17A2846A0EC017AD4ED022A95ED012ADE
:1028D00007EEA22A054608340239A5EC012AEAD1FE
:1028E00004E000BF0000003400000000019D6A1EEB
:1028F000FCEC017A08F1040809F1040901927FF463
:1029000059AE059B119903EB8105069E079886ED4C
:10291000046AC6ED057A860865D02A6805990A60BA
:1029200068684860AB688B60EA68059B711E084662
:10293000DA6001F00101103305F1100218B359B14A
:10294000116819605168596091689960D1681032B6
:10295000D9601033013816D014681C605168596072
:1029600094689C60D168D96014691C6154695C6189
:1029700003F1100193698B60D4692032023801F1B0
:102980001003CC60E8D1059A36019319AD19079868
:1029900010F0030119D001392C680A46284601F0CD
:1029A000010143F8044B82B129B150F8041F013AE8
:1029B00043F8041B09D04468194641F8044B846865
:1029C00008305C600B1D023AF5D108B0BDE8F00F8D
:1029D00070473D46644654E75FED3D7A3A466446AB
:1029E00070E6059D91E7059BD1E700BF70B501F149
:1029F00080451E46059B0446681EC518A2602180BE
:102A0000AA000021304601F0A1FA049A6660002174
:102A1000E2602161616170BD5FEA920CF0B47BD02D
:102A200090ED006AD0ED016A90ED027AD0ED037A64
:102A30000CF1FF33B0EEC60AF0EEE60AB0EEC71AAC
:102A4000F0EEE71A1F4603F0010581ED000AC1ED23
:102A5000010A81ED021AC1ED031A00F1100401F11F
:102A60001003002F54D0DDB194ED002AD4ED012ADB
:102A700094ED023AD4ED033AB0EEC24AF0EEE24AE7
:102A8000B0EEC35AF0EEE35A83ED004AC3ED014ABB
:102A900083ED025AC3ED035A10341033013F37D08F
:102AA00094ED006AD4ED016A94ED027AD4ED037AD4
:102AB000B0EEC60AF0EEE60AB0EEC71AF0EEE71A7C
:102AC00083ED000AC3ED010A83ED021AC3ED031A78
:102AD00094ED042AD4ED052A94ED063AD4ED073A94
:102AE000B0EEC24AF0EEE24AB0EEC35AF0EEE35A5C
:102AF00004F1100603F1100583ED044A2034C3ED00
:102B0000054A83ED065AC3ED075A2033023FC7D169
:102B10004FEA0C13C018C91812F0030225D090ED2B
:102B2000006A013AF0EEC66A1346E1EC016A02F06F
:102B30000102D3B142B1043090ED007A013BF0EED6
:102B4000C77AE1EC017A10D090ED010A0A46F0EE66
:102B5000C00AE2EC010A90ED021AF0EEC11AC1EDD2
:102B6000011A0830111D023BEED1F0BC704700BFC6
:102B70005FEA930CF0B407EE901A7BD0D0ED005AC8
:102B800090ED016AD0ED026A90ED037A0CF1FF310D
:102B900025EEA70A66EE270A26EEA71A67EE271A81
:102BA0000F4601F0010582ED000AC2ED010A82ED37
:102BB000021AC2ED031A00F1100402F11001002FF5
:102BC00054D0DDB194ED002AD4ED012A94ED023AFF
:102BD000D4ED033A22EE274A62EEA74A23EE275AA3
:102BE00063EEA75A81ED004AC1ED014A81ED025A18
:102BF000C1ED035A10341031013F37D094ED000A73
:102C000094ED016AD4ED026A94ED037A60EE270A2E
:102C100026EE271A66EEA71A27EE272AC1ED000A2C
:102C200081ED011AC1ED021A81ED032AD4ED042AC7
:102C300094ED053AD4ED063A94ED074A62EEA74AC0
:102C400023EE275A63EEA75A24EE270A04F1100652
:102C500001F11005C1ED044A203481ED055AC1EDA2
:102C6000065A81ED070A2031023FC7D14FEA0C1105
:102C70004018521813F0030325D090ED006A591E36
:102C800066EE276A0B46E2EC016A01F00101D3B15E
:102C900041B1043090ED007A67EE270A013BE2EC87
:102CA000010A10D090ED011A61EE271A1146E1ECED
:102CB000011A90ED022A62EE272A0830C2ED012A9D
:102CC0000A1D023BEED1F0BC704700BF2DE9F007B2
:102CD0005FEA930A00F0A880D0ED014AD1ED016AC5
:102CE00090ED025A91ED027AD0ED035AD1ED037ABC
:102CF00090ED004A91ED006A0AF1FF3434EE460A85
:102D000074EEE60A35EE471A75EEE71A06460D46EA
:102D1000A14604F001071036103582ED000AC2ED1D
:102D2000010A82ED021AC2ED031A02F11004B9F190
:102D3000000F74D03FB3B0462F4696ED012AD5ED73
:102D4000012A96ED023AD5ED023A96ED035AD5EDF9
:102D5000035AD8ED004A97ED007A72EE626A34EEBB
:102D6000C74A33EE636A75EE657A1036103584ED26
:102D7000004AC4ED016A84ED026AC4ED037A10349E
:102D8000B9F101094BD096ED000AD5ED000A96ED98
:102D9000011AD5ED011A96ED022AD5ED022A96ED1B
:102DA000033AD5ED033A30EE605A71EE615A72EE95
:102DB000624A33EE637A84ED005AC4ED015AC4EDE1
:102DC000024A84ED037A96ED044A95ED046A96ED85
:102DD000050AD5ED056AD6ED060A95ED061AD6ED7B
:102DE000071AD5ED077A34EE462A70EE662A30EEE1
:102DF000C13A71EEE73A2F4604F1100884ED042A37
:102E0000C4ED052A84ED063AC4ED073A10372034A4
:102E1000B9F1020906F1200605F12005B3D14FEA08
:102E20000A1400190919121913F0030331D090ED97
:102E3000005AD1ED005A5C1E75EE654A2346E2EC5D
:102E4000014A04F0010423B36CB10430043190ED65
:102E5000007A91ED004A37EE446A013B04460F4682
:102E6000A2EC016A15D090ED010AD1ED016A70EE75
:102E7000660A1446E4EC010A90ED021AD1ED021A3A
:102E800071EE617A0830C2ED017A0831221D023BF1
:102E9000E9D1BDE8F00770472DE9F041DFF8D880AF
:102EA0008AB004460D4600F06BF898F90030013303
:102EB00006460F460BD02046294600F0F5F830B103
:102EC000204629460022002300F05AFF20B9304650
:102ED00039460AB0BDE8F081254898F800600190B5
:102EE00000210891CDE90245CDE904454EBB4FF6DE
:102EF000FF734FF06042CCF2EF73CDE9062320461A
:102F000029460022002300F027FF60B102239E42E1
:102F1000009322D0684600F0FBF8F0B1089808BB97
:102F2000DDE90667D3E70122022E009210D0684641
:102F300000F0EEF860B10F4800F0ECF8CDE90601C2
:102F4000ECE700230022CFF6F073CDE90623D6E7A5
:102F500000F0ACFF21270760EDE700F0A7FF222675
:102F60000660DBE700F0A2FF08990160D8E700BF28
:102F70002C43000834430008B43C0020000000004B
:102F8000B1F5801F2DE9F8430A4606460F46044670
:102F90000D461EDA21F00042024363D000296BDBAC
:102FA00000230022C4F2503300F06EFC4FF6FF7392
:102FB0000A46C7F6EF739A420F4606466FF0350190
:102FC0000EDD3046394632463B4600F0ABFABDE8EE
:102FD000F8834FF6FF73C7F6EF7300219A42F0DCD7
:102FE0001315A3F2FF3358184FEAD07822F07F422E
:102FF000404422F47009C8F57F7800F0DFFB08F147
:10300000030849EA085704460D463046394600F0A1
:1030100087F81FA3D3E90023804689462046294626
:1030200000F032FC1CA3D3E9002306460F462046DD
:10303000294600F029FC1AA3D3E9002304460D46D3
:103040004046494600F020FC02460B4620462946F1
:1030500000F068FA02460B463046394600F062FA44
:10306000BDE8F8830021002000220023CCF250317B
:1030700000F034FDBDE8F88302460B4600F050FA3C
:103080000022002300F02AFDBDE8F883AFF30080A2
:1030900000609F501344D33F362BF111F3FE593D8E
:1030A0000EE526157BCBDB3F0B4661B1B1F1004F3E
:1030B00009D04FF6FF72A3F58011C7F6DF72914277
:1030C00005D8042070470028F3D10220704703F18F
:1030D000FF4101F5E0019142F3D94FF6FF72C0F2D2
:1030E0000F02934201D80320704703F1004191423F
:1030F000F9D90022C7F6F072934204D013F5801F6D
:1031000001D000207047D0F1010038BF0020704787
:103110000020704700210020C7F6F871704700BFFB
:103120002DE9F04FB1F5801F87B002460B460446EB
:103130000D460E4664DA21F00045054300F000819B
:103140000029C0F27F8100230022C4F2503300F036
:103150009BFB02464FF6FF700D46C7F6EF708542A7
:103160000B466FF0350752DC25F07F4626F47006DB
:1031700006F5152404F6647303F4801484F07F517B
:1031800081F4401040EA0603194600231046C3F6B6
:10319000F073002200F0C4F94FEA2558B21CA8F2DF
:1031A000FF3A22F470030AEB070B0022022B0BEB11
:1031B000145882468B4631DC002300F0CDFD0028F8
:1031C00000F0C780B8F1000F00F04381404600F0E6
:1031D000F5FAA1A3D3E9002306460F4600F054FBFD
:1031E0009FA3D3E9002304460D463046394600F03C
:1031F0004BFB02460B462046294600F093F90AE0B5
:103200004FF6FF70C7F6EF7000278542ACDD104621
:10321000194600F087F907B0BDE8F08F4FF0804302
:1032200000F080F902460B465046594600F056FC25
:10323000CDE90201404600F0C1FACDE90401DDE923
:10324000020102460B4600F01FFB02460B46CDE989
:10325000000100F019FB84A3D3E9002304460D46C6
:1032600000F012FB82A3D3E9002300F05BF92246B1
:103270002B4600F009FB80A3D3E9002300F052F9AC
:1032800022462B4600F000FB7DA3D3E9002300F08B
:1032900049F9DDE9002300F0F7FA7BA3D3E9002325
:1032A000CDE900012046294600F0EEFA78A3D3E9E3
:1032B000002300F037F922462B4600F0E5FA76A30A
:1032C000D3E9002300F02EF922462B4600F0DCFA69
:1032D000A6F5C22702460B46C6F5D726DDE9000152
:1032E00000F020F95136A7F27A473743002F044601
:1032F0000D4658DD00230022C3F6E07350465946C0
:1033000000F0C2FA52465B4600F0BEFA06460F468F
:10331000B8F1000F63D122462B4600F003F9DDE936
:10332000022300F0B1FA02460B463046394600F05F
:10333000F7F802460B465046594600F0F1F86AE7A6
:103340000021002000220023CCF2503100F0C6FB07
:1033500061E752465B465046594600F095FA50A345
:10336000D3E9002304460D465046594600F08CFA36
:103370000B4600210246C3F6E071002000F0D0F8B1
:1033800002460B462046294600F07EFA04460D46CA
:10339000B8F1000F40F088805046594622462B462F
:1033A00000F0BEF837E7B8F1000F00F0A1802AA3C3
:1033B000D3E90023DDE9040100F066FA22462B463A
:1033C00006460F465046594600F0AAF8DDE90223AA
:1033D00000F05AFA04460D46DDE9040172E01EA32E
:1033E000D3E90023DDE9040100F04EFA22468046CD
:1033F00089462B463046394600F094F8DDE9022331
:1034000000F042FA16A3D3E9002304460D46DDE995
:10341000040100F039FA02460B462046294600F026
:1034200081F802460B463046394600F079F852469C
:103430005B4600F075F802460B464046494600F0F0
:103440006FF8E8E600F06CF80022002300F046FB7D
:10345000E1E600200021DEE60000E0FE422EE63F2D
:10346000763C7935EF39EA3D44523EDF12F1C23FF6
:10347000DE03CB966446C73F599322942449D23F3A
:10348000935555555555E53F9FC678D0099AC33F8A
:10349000AF788E1DC571CC3F04FA97999999D93FA1
:1034A000555555555555D53F404600F087F916A35B
:1034B000D3E900238046894600F0E6F906460F4628
:1034C0004046494612A3D3E9002300F0DDF9024645
:1034D0000B462046294600F023F852465B4600F092
:1034E0001FF802460B463046394600F019F892E6BE
:1034F00022462B465046594600F012F8DDE90223D9
:1035000000F0C2F915E700BF0000E0FE422EE63FE2
:10351000763C7935EF39EA3D81F0004102E000BFA9
:1035200083F0004330B54FEA41044FEA430594EA83
:10353000050F08BF90EA020F1FBF54EA000C55EABE
:10354000020C7FEA645C7FEA655C00F0E2804FEA8F
:103550005454D4EB5555B8BF6D420CDD2C4480EA71
:10356000020281EA030382EA000083EA010180EAA1
:10357000020281EA0303362D88BF30BD11F0004FEF
:103580004FEA01314FF4801C4CEA113102D0404225
:1035900061EB410113F0004F4FEA03334CEA133360
:1035A00002D0524263EB430394EA050F00F0A78078
:1035B000A4F10104D5F1200E0DDB02FA0EFC22FA73
:1035C00005F2801841F1000103FA0EF2801843FA67
:1035D00005F359410EE0A5F120050EF1200E012A58
:1035E00003FA0EFC28BF4CF0020C43FA05F3C01896
:1035F00051EBE37101F0004507D54FF0000EDCF10F
:10360000000C7EEB00006EEB0101B1F5801F1BD3B7
:10361000B1F5001F0CD349085FEA30004FEA3C0CBB
:1036200004F101044FEA445212F5800F80F09A80B1
:10363000BCF1004F08BF5FEA500C50F1000041EBB5
:10364000045141EA050130BD5FEA4C0C404141EBB9
:10365000010111F4801FA4F10104E9D191F0000FE0
:1036600004BF01460020B1FA81F308BF2033A3F163
:103670000B03B3F120020CDA0C3208DD02F1140C5A
:10368000C2F10C0201FA0CF021FA02F10CE002F195
:103690001402D8BFC2F1200C01FA02F120FA0CFC8E
:1036A000DCBF41EA0C019040E41AA2BF01EB0451D7
:1036B000294330BD6FEA04041F3C1CDA0C340EDCD5
:1036C00004F11404C4F1200220FA04F001FA02F318
:1036D00040EA030021FA04F345EA030130BDC4F1D6
:1036E0000C04C4F1200220FA02F001FA04F340EACB
:1036F0000300294630BD21FA04F0294630BD94F07C
:10370000000F83F4801306BF81F480110134013D62
:103710004EE77FEA645C18BF7FEA655C29D094EAD3
:10372000050F08BF90EA020F05D054EA000C04BF51
:103730001946104630BD91EA030F1EBF002100203C
:1037400030BD5FEA545C05D14000494128BF41F0DB
:10375000004130BD14F580043CBF01F5801130BD3F
:1037600001F0004545F0FE4141F470014FF00000CA
:1037700030BD7FEA645C1ABF194610467FEA655C7B
:103780001CBF0B46024650EA013406BF52EA03351D
:1037900091EA030F41F4002130BD00BF90F0000F0B
:1037A00004BF0021704730B54FF4806404F1320447
:1037B0004FF000054FF0000150E700BF90F0000F00
:1037C00004BF0021704730B54FF4806404F1320427
:1037D00010F0004548BF40424FF000013EE700BFF7
:1037E00042004FEAE2014FEA31014FEA02701FBF87
:1037F00012F07F4393F07F4F81F06051704792F059
:10380000000F14BF93F07F4F704730B54FF46074D2
:1038100001F0004521F0004120E700BF50EA01021D
:1038200008BF704730B54FF000050AE050EA0102CA
:1038300008BF704730B511F0004502D5404261EB3A
:1038400041014FF4806404F132045FEA915C3FF47B
:10385000DCAE4FF003025FEADC0C18BF03325FEA14
:10386000DC0C18BF033202EBDC02C2F1200300FAC9
:1038700003FC20FA02F001FA03FE40EA0E0021FAEE
:1038800002F11444C1E600BF70B54FF0FF0C4CF4D8
:10389000E06C1CEA11541DBF1CEA135594EA0C0F8E
:1038A00095EA0C0F00F0DEF82C4481EA030621EAC9
:1038B0004C5123EA4C5350EA013518BF52EA033504
:1038C00041F4801143F4801338D0A0FB02CE4FF0B6
:1038D0000005E1FB02E506F00042E0FB03E54FF0E6
:1038E0000006E1FB03569CF0000F18BF4EF0010EDE
:1038F000A4F1FF04B6F5007F64F5407404D25FEADA
:103900004E0E6D4146EB060642EAC62141EA55518C
:103910004FEAC52040EA5E504FEACE2EB4F1FD0CCE
:1039200088BFBCF5E06F1ED8BEF1004F08BF5FEA4C
:10393000500E50F1000041EB045170BD06F00046FE
:1039400046EA010140EA020081EA0301B4EB5C04AB
:10395000C2BFD4EB0C0541EA045170BD41F48011A3
:103960004FF0000E013C00F3AB8014F1360FDEBFC8
:10397000002001F0004170BDC4F10004203C35DAA4
:103980000C341BDC04F11404C4F1200500FA05F327
:1039900020FA04F001FA05F240EA020001F00042C8
:1039A00021F0004110EBD37021FA04F642EB06013E
:1039B0005EEA430E08BF20EAD37070BDC4F10C0468
:1039C000C4F1200500FA04F320FA05F001FA04F22C
:1039D00040EA020001F0004110EBD37041F1000118
:1039E0005EEA430E08BF20EAD37070BDC4F1200523
:1039F00000FA05F24EEA020E20FA04F301FA05F28B
:103A000043EA020321FA04F001F0004121FA04F232
:103A100020EA020000EBD3705EEA430E08BF20EA02
:103A2000D37070BD94F0000F0FD101F0004640003C
:103A300041EB010111F4801F08BF013CF7D041EABE
:103A4000060195F0000F18BF704703F000465200C2
:103A500043EB030313F4801F08BF013DF7D043EA93
:103A60000603704794EA0C0F0CEA135518BF95EA49
:103A70000C0F0CD050EA410618BF52EA4306D1D1D0
:103A800081EA030101F000414FF0000070BD50EAEF
:103A9000410606BF1046194652EA430619D094EA79
:103AA0000C0F02D150EA013613D195EA0C0F05D163
:103AB00052EA03361CBF104619460AD181EA0301B7
:103AC00001F0004141F0FE4141F470014FF000006F
:103AD00070BD41F0FE4141F4780170BD70B54FF00A
:103AE000FF0C4CF4E06C1CEA11541DBF1CEA13558A
:103AF00094EA0C0F95EA0C0F00F0A7F8A4EB05046C
:103B000081EA030E52EA03354FEA013100F0888062
:103B10004FEA03334FF0805545EA131343EA12632B
:103B20004FEA022245EA111545EA10654FEA0026E0
:103B30000EF000419D4208BF964244F1FD0404F599
:103B4000407402D25B084FEA3202B61A65EB0305F5
:103B50005B084FEA32024FF480104FF4002CB6EBB2
:103B6000020E75EB030E22BFB61A754640EA0C0032
:103B70005B084FEA3202B6EB020E75EB030E22BF72
:103B8000B61A754640EA5C005B084FEA3202B6EBB3
:103B9000020E75EB030E22BFB61A754640EA9C0072
:103BA0005B084FEA3202B6EB020E75EB030E22BF42
:103BB000B61A754640EADC0055EA060E18D04FEA00
:103BC000051545EA16754FEA06164FEAC30343EAA0
:103BD00052734FEAC2025FEA1C1CC0D111F4801F6D
:103BE0000BD141EA00014FF000004FF0004CB6E766
:103BF00011F4801F04BF01430020B4F1FD0C88BF05
:103C0000BCF5E06F3FF6AFAEB5EB030C04BFB6EB0F
:103C1000020C5FEA500C50F1000041EB045170BD02
:103C20000EF0004E4EEA113114EB5C04C2BFD4EB2F
:103C30000C0541EA045170BD41F480114FF0000EB3
:103C4000013C90E645EA060E8DE60CEA135594EA2F
:103C50000C0F08BF95EA0C0F3FF43BAF94EA0C0F32
:103C60000AD150EA01347FF434AF95EA0C0F7FF4A7
:103C700025AF104619462CE795EA0C0F06D152EAFB
:103C800003353FF4FDAE1046194622E750EA4106DF
:103C900018BF52EA43067FF4C5AE50EA41047FF4F0
:103CA0000DAF52EA43057FF4EBAE12E74FF0FF3C55
:103CB00006E000BF4FF0010C02E000BF4FF0010C26
:103CC0004DF804CD4FEA410C7FEA6C5C4FEA430C9F
:103CD00018BF7FEA6C5C1BD001B050EA410C0CBFEE
:103CE00052EA430C91EA030F02BF90EA020F002050
:103CF000704710F1000F91EA030F58BF994208BFB7
:103D000090422CBFD8176FEAE37040F00100704773
:103D10004FEA410C7FEA6C5C02D150EA013C07D1CA
:103D20004FEA430C7FEA6C5CD6D152EA033CD3D015
:103D30005DF8040B704700BF8446104662468C460F
:103D40001946634600E000BF01B5FFF7B7FF002842
:103D500048BF10F1000F01BD4DF808EDFFF7F4FF6B
:103D60000CBF012000205DF808FB00BF4DF808EDF6
:103D7000FFF7EAFF34BF012000205DF808FB00BF19
:103D80004DF808EDFFF7E0FF94BF012000205DF83B
:103D900008FB00BF4DF808EDFFF7CEFF94BF0120F0
:103DA00000205DF808FB00BF4DF808EDFFF7C4FFE9
:103DB00034BF012000205DF808FB00BF4FEA41023C
:103DC00012F5001215D211D56FF47873B3EB62526D
:103DD00012D94FEAC12343F0004343EA505311F094
:103DE000004F23FA02F018BF404270474FF0000026
:103DF000704750EA013005D111F0004008BF6FF064
:103E0000004070474FF00000704700BF4FEA41028A
:103E1000B2F1E04324BFB3F5001CDCF1FE5C0DD928
:103E200001F0004C4FEAC0024CEA5070B2F1004F72
:103E300040EB830008BF20F00100704711F0804F75
:103E400021D113F13872BCBF01F00040704741F43A
:103E500080114FEA5252C2F11802C2F1200C10FA3E
:103E60000CF320FA02F018BF40F001004FEAC12322
:103E70004FEAD32303FA0CFC40EA0C0023FA02F3C6
:103E80004FEA4303CCE77FEA625307D150EA01339C
:103E90001EBF4FF0FE4040F44000704701F000406C
:103EA00040F0FE4040F40000704700BF44F2E003E1
:103EB000C2F2000318687047F8B5204F204C381B39
:103EC000871017D07A1E2368012502F00106984753
:103ED000AF420FD02EB154F8041F02258847AF42DD
:103EE00008D0606880470235A268261D90470834D4
:103EF000AF42F6D1134F144C00F0BEF93B1B9F109C
:103F000018D07D1E216805F0010601258847AF42C3
:103F100011D02EB154F8040F02258047AF420BD0C8
:103F2000626890470235A368261D98470834AF425F
:103F3000F6D1F8BDF8BDF8BDF8BD00BF9C42000841
:103F40009C4200089C4200089C420008F0B4840790
:103F5000034600F08E80541E002A00F08880E5079A
:103F6000CEB211D41A46671E02F8016B13461546ED
:103F700092070FD0002C7AD003F8016B9A073C46C9
:103F80001D4607D0013CEDE7034603F8016B9A0795
:103F90001D46F7D1032C52D9CEB246EA06270F2C84
:103FA00047EA07432DD9A4F1100217460F2FC2F399
:103FB00000162B606B60AB60EB6005F1100216D948
:103FC0003EB1103F136053609360D36010320F2FE7
:103FD0000DD9203F02F11006136053609360D36047
:103FE000136153619361D36120320F2FF1D8A4F193
:103FF000100222F00F0204F00F041032032C1544BB
:104000001DD9271F3E462A46032E42F8043BC7F31C
:1040100080070DD927B1043E032E42F8043B07D98F
:104020001746083E47F8043B53603A1D032EF7D865
:10403000231F23F00302131D04F00304ED18B4B191
:104040002B46C9B203F8011B2C19ED436219A34298
:1040500002F001050BD01DB103F8011BA34206D0ED
:104060001A4602F8011B5970531CA342F8D1F0BC48
:104070007047054614468DE780B485B000AFF86000
:10408000B9607A604FF0FF33184607F11407BD4658
:1040900080BC704780B485B000AFF860B9607A60CA
:1040A0004FF0FF33184607F11407BD4680BC704738
:1040B00080B485B000AFF860B9607A604FF000035B
:1040C000184607F11407BD4680BC704780B485B020
:1040D00000AFF860B9607A604FF0FF33184607F11F
:1040E0001407BD4680BC704780B400AF4FF0FF336B
:1040F0001846BD4680BC704780B483B000AF78607E
:1041000039603B68002B02D04FF0FF3301E06FF0C5
:104110000103184607F10C07BD4680BC704700BF7D
:1041200080B483B000AF786039607A683B689A42A7
:1041300002D14FF0FF3301E06FF00103184607F1A1
:104140000C07BD4680BC704780B483B000AF786078
:104150004FF0FF33184607F10C07BD4680BC70478F
:1041600080B487B000AF78604BF61873C0F20003DC
:104170007B6140F60403C2F200031B68002B14D1DC
:1041800040F60403C2F2000344F2E802C2F2000265
:104190001A6040F60403C2F200031A687B69D21861
:1041A00040F60803C2F200031A6040F60403C2F2AC
:1041B00000031B683B6140F60403C2F200031B6866
:1041C0001A467B68D31803F1070323F00703FB604B
:1041D00040F60803C2F200031B68FA689A4202D351
:1041E0004FF0000306E040F60403C2F20003FA6851
:1041F0001A603B69184607F11C07BD4680BC704732
:1042000080B483B000AF78604FF0FF33184607F1F9
:104210000C07BD4680BC704780B483B000AF7860A7
:104220004FF0FF33184607F10C07BD4680BC7047BE
:1042300080B483B000AF786039604FF0FF33184628
:1042400007F10C07BD4680BC704700BF80B400AFCB
:104250004FF0FF331846BD4680BC704780B400AFB6
:104260004FF0FF331846BD4680BC704780B483B022
:1042700000AF7860FEE700BF80B400AFBD4680BCF1
:10428000704700BF80B483B000AF78604FF0FF3359
:0C429000184607F10C07BD4680BC7047C3
:10429C0064BFFF7F0100000078BFFF7F01000000BA
:1042AC008385933BCC43A63B65C6DB3BE949193C74
:1042BC00EFE4533C05BF8D3C4CAAB63CC30EE33C2B
:1042CC006D8D083D10751F3DE047353DFC1A493D8D
:1042DC0055155A3D7880673D7EC7703DB284753D5B
:1042EC00B284753D7EC7703D7880673D55155A3D4B
:1042FC00FC1A493DE047353D10751F3D6D8D083D5D
:10430C00C30EE33C4CAAB63C05BF8D3CEFE4533CDA
:10431C00E949193C65C6DB3BCC43A63B8385933B03
:10432C006C6F67313000000000000000430000009B
:04433C00B83C002069
:104340002979DDBEDB31D5BF0857003E454A933E93
:1043500090BF92BFE76F983F8736983F10251ABDF0
:10436000D192A73E91D4323EA5303FBE70CD393FA9
:10437000F19B16BF52B90B4065AB0BBEA854E93D8B
:10438000DB8B883FA2D0723D19E3C3BDD31455BF68
:104390000ABD963E0308ABBF01DE363FE1D0CF3FFA
:1043A0003B1831BFB1A55B3F1B83A03F58FFCBBF7C
:1043B0008271B8BFC136123FDCBDCCBEA5A3303F71
:1043C0009ACC503F9A3F363FE926A53F6F292B3FB5
:1043D000616D983F1CEA99BFA31EA2BC6C7A20BEF7
:1043E000B152CDBF5ABD833E823A87BF5723B53FF6
:1043F000611A4EBFB45B073FAF95603EC5016CBF0D
:1044000053EC0AC01E6F72BD745C81BF724D1D3FBC
:1044100050FB013F8CA1D83F535E173FA4C224BF7D
:1044200088BBC23EB72A81BF88D59FBC628345BD89
:10443000E65A34386ABEA2BE17298C3FE8DEEFBFC9
:10444000CD3ADB3E8848653FFF1F3B3F70EE133F90
:104450004B20253DB4552D3F6EA3113FE7E382BEAF
:104460009E43C1BE807E97BE39D1BCBFBF9E6FBE8A
:104470004B93F23DA52EA13EDFC4B83FFFB2B3BEC1
:10448000438C1F3F7A8E4C3F2BDE703FBEF97DBFC1
:10449000B41F593E5797733E61FE80BFA9F63DBFDA
:1044A000A4888A3FF0A706BE5A9EC73E8732B43D15
:1044B000D6AD22BF2D400FBF7C26E33EE92C73BF53
:1044C0008BFB473F6EA7113FD95B52BFA4FD87BE50
:1044D000140998BFD4F20CC095807C3F43C504BF3B
:1044E000C79CA73EA3AC6F3E77D9AF3C3D8180BF50
:1044F000297872BF28B5BFBE1DCB97BFD42787BF11
:104500003A7ABC3FD253643D0BD19BBFA5DD28BD99
:10451000946D90BF24B5ACBF29AF85BE4816743FDB
:1045200041BB033E490E283F187B95BF6BD4EBBEC1
:10453000895E86BE91489BBF50E3A8BF4E646E3F24
:10454000F33C383C4A2825BF41444E3F5E2F6D3E28
:10455000E9607DBF8E77AB3F9B39943E274DBD3FD1
:10456000E7AA913FBC232FBF295EA5BF3A5A95BD4C
:104570004644A9BE01F857BFB6DBFE3ED786BE3F14
:10458000DAE50BBF22C558BFC43F7CBEF1BB293F53
:10459000A8AC5ABFB1C499BFE17DF5BDDCB885BDFB
:1045A000B878F83E197218BF914219BED097DEBE96
:1045B000C477A2BDDC7FC43F78421BBF6476ACBF2A
:1045C000F852F03E2B5067BFE8F6123DDFA520BF42
:1045D000D80F093FCE890D3F1D9450BE107A03C0FD
:1045E00012BE073E7EE5CB3F535B823F9D4ACABF6A
:1045F0008B19A1BD13812EBF8D2483BF47FF9DBFA3
:1046000083DE933E9ACDDBBE978F643DFB59BCBEE3
:10461000F110EEBE9AEEBD3EC1703A3FA12D0740AB
:10462000F1BBADBFE2E482BFBFD7843FDE93C7BE1C
:1046300053CDB0BFDA8EA13EABD0C63F8B38353FED
:10464000978BFA3FAA29013FE3A8EE3FD7FBADBE07
:1046500047E491BFA13058BEF359983FF0DF8EBFB9
:1046600051A1223F23F619BF761A0D3F8FC78CBF89
:104670000D1CB03DC34A00C00876FCBE8E91EC3ED6
:10468000C45AA4BE78479E3F919B21BF42D014C01C
:1046900048A69DBF791F873FFCE1E7BDA629C23E22
:1046A00017B7713F13B507C0AF0925BF234D34BFFE
:1046B000505282BFB4733ABE8EB0C23F36721DBD37
:1046C000041D9D3F7E3A32BFE38BF63BAD6B48BF86
:1046D000A241163F349E80BE63D4F53E350C2B3F7D
:1046E000C366A0BDD7A0633F5CCB1340BE4E063F60
:1046F000431E41BC9CC3693F6422653D78B48DBFB5
:104700003293F83EFC00A4BB726C8DBEC762A33F1F
:10471000ED83EE3F6DC605BFF6CFD33D16C24EBF4B
:1047200040312E3F715517C02D787D3F0F27603ED9
:1047300090F8853E22529B3F27A18CBE475408BE6D
:10474000BE9FA2BF0BF1D4BF1D1C34BF81CF8F3ED3
:10475000AC8C0ABF25B1AABFC64D893F344B36BFCA
:10476000EAE838BCF12B56BA276C7FBEE10BCB3E92
:10477000B62C87BE50FED4BF74B583BFE5ED783E3E
:10478000F1D7A0BFF8C1B1BEC1FD70BFFB5796BF46
:10479000C8B482BF4CA7CDBE80D5313E46CFEDBD5B
:1047A0000D35883F78467BBEB83EC2BF5B7B1F3C61
:1047B000022C923D0211A23E32E9FF3E4298A33FF5
:1047C000AB3D0CBFA088853E58E457BC2E8C14BF6F
:1047D00045B9084060E683BE6A6BB4BFAB92E23F66
:1047E000F7ADA63EB43C8FBF42CF1E3F3788A23FF5
:1047F000136365BF516B0A3E80600EBE21EA94BF11
:104800002384973F1CCE7CBCA645093FE46737BF95
:10481000B7D227BF30F4A03E4CC1DA3D5892EC3FEE
:10482000B2DA8CBE7C9A0D406117C13F59F8F8BFCF
:10483000081CD7BF20D312BFD0463EBEE95F123C52
:104840005B42563FC1E638BF92B338BF64024EBEEA
:104850001EA4A7BCACCA8E3E3676873FF6251F3F06
:104860002714E0BF6685323F8CBD4F3F82E7223F71
:10487000B4B0A73F6479A73E45492CBF2DE918BEC7
:10488000B6BC1CC08B52F23E6281EF3D975217BFFF
:10489000F29A27BF22538ABF958143BD8239C23E17
:1048A0001425A9BEA1F2FFBEB75E13BD49F432BE06
:1048B000520F75BF3672A53FF5BEE13EE0F5A33F4E
:1048C00077D6FEBE1E328FBF27C24E3F55C1283D50
:1048D000EA9641BF4489B6BD009100C0D3BD8A3F6E
:1048E000552F7BBFD14030BF0C74AB3F26C468BF8F
:1048F0002062D3BEE69301BFE753CF3F6CAFA53D27
:104900000B608ABF35F08FBFA22ADE3FA8FEF73FBB
:10491000E949D13FA4C2A0BFB5A95ABED5B44BBE88
:1049200082709D3EE48312BF24477ABF26C4E4BE52
:10493000FE818A3F77D9174079CA6A3ECF8288BE06
:10494000C7A0333F65A5F9BEBF65EE3F4BAD8D3FB8
:10495000E2209DBF957D2BBF90A3AB3FD1B2C63E59
:10496000073FC93EEC89DABFDF53693EA5852F3F7B
:10497000AB0423BF655580BF6E133EBE8EEA86BF73
:104980000A8392BD0AF38E3E7AC7AF3F3D28383E78
:10499000A0C10ABF2C2DD13F4A41533F9D4C6C3ED4
:1049A00035F02B3F661102BFE2395B3F3A79893E11
:1049B0005DFE1F3F2C0F86BFD690C43F166DDE3EB6
:1049C000B664F5BFFA9BF03EEF1DA33F7D77233F12
:1049D00077BDB03F9EF0A83F57D068BF088F13C087
:1049E0001BF5E43FAD16C83E847EA63C38DCCFBE46
:1049F0007077C4BF9BAF623EEEEEAFBF73DB56BFB6
:104A000083A655BE8483413F3560C03E7E36ACBF31
:104A10001DAEBD3F2F16063D016BEF3F38C09ABF5C
:104A2000925A48BFB56D44BFAC8BDBBD68207ABFDE
:104A3000EBC776BF5B4418C07D9356BFDBC2833E95
:104A4000FB3E3CBE44A32BBEEE97EFBD1E882C3E22
:104A5000094F00BFDC7F34BF1A17023F1783D7BE50
:104A6000D7A16A3E98A175BF4C8C15BE0B9A3E3FEC
:104A70008CF763BF45660E3EBCCF71BE408A9ABDBF
:104A8000C096B7BEF9F704C0B9FD12BEFF58B23FD9
:104A9000A0DC263FB517C1BE545429BFD9EE7E3ED7
:104AA000365CC4BE774A07BF87DE623D817BA03F8C
:104AB000BF4721C01FB9153F3E0881BFA9BC713F48
:104AC0001D221BC0F43365BECFDA6D3D0267D9BE2F
:104AD000BCC94FBE82ACC1BF4D2C90BFF9A350BF23
:104AE000D5B4BB3E1C0B16BFD1C9C43F096F0F3EE6
:104AF000266FEEBFFC8BE8BE52EE26BF6398D33D17
:104B00005BED61BEB9DE8EBE46D13BBF672A84BD78
:104B100020D5B8BF50C21C3F8C68A9BF1C5D29BFFF
:104B20002C9F15BEFF097E3EC3F19CBD5B7CDE3F22
:104B3000C79CCF3F1C5E203FFA08BC3D55BF4EBF0F
:104B40005D34ECBECBF6B3BF65C2BFBE3F1BF1BE4A
:104B5000782AE03F5BD3403FF418853D2AE595BEB7
:104B60001B9FA93D1825443F8D280F40BC5DA73EE3
:104B70007E015D3F4EEC2D3F9F040E3F6935803F27
:104B8000DF32A13FAED7343DB2D6A0BE2426683E68
:104B900035277F3F01A39B3F85EE0ABFC687693F4C
:104BA000BB4530BE4B02ACBEE49E0A3FD49E6E3F76
:104BB0001AFC11BF4AD2BFBF9B374EBD0C930D3FAD
:104BC0000001AB3D4EECC93F365BA9BE478F4B3F62
:104BD000A7E848BFF3ADA1BFE7A92A3FC441B2BFD0
:104BE000D178A6BFB9E21ABF4C89BEBFADFC0E3F5B
:104BF00058018EBE7897A5BF7A7063BF938C7CBF37
:104C000075AC92BDA9881AC0DBC031BF0919B2BF0B
:104C10009FC7A83E2E3A193F0BB5163E40BFCFBDE9
:104C200087A328C068CFE53CDA5560BF9AEC87BE01
:104C30004EB8A7BE704194BF5A7E143F9982753E0C
:104C400033A7B3BE8960643FB405CA3FA5D88DBF02
:104C5000406DD4BC0F298EBFA836403FF20A003FFA
:104C6000386B04BF52280FBFECDC40BF15026D3F0C
:104C7000077C7EBE596E19BEBE13A1BFBB0FA03EFE
:104C8000802D2C400953943E691EB6BF78B57C3EFA
:104C900069C7B7BF8523183E9EB6D8BFB41C383F3E
:104CA0009E25923FD7A5C63FCA1AB13F511242BFB7
:104CB000BAA4E23EB83D693FA67B89BFB39A4E3E97
:104CC000FD4A433F50E3A4BF51F573BF7A36473FD7
:104CD0004774CFBBC844063F77A0AE3FD1CDF63E68
:104CE000287D49BF0283403FB0E42ABE51F450BF43
:104CF000290506404227A43D91F26FBFCBBF223F5A
:104D0000B24CD73F66F8173F78474A3F698FD73D87
:104D1000896222BEC3F35E3FE76E47BE1D929A3D95
:104D20008DD106BFE17B2FBF276A89BEB91B98BF13
:104D30007E8B7E3E5BD2D13DF5F627BD62D80FC09B
:104D400037C202BF8F397F3E6407BD3E6B7F373E5F
:104D50000FB618BD4339CDBF2BC2AD3E414806BE8C
:104D6000D36AF83EBF47193F0531B0BDAC8CA63EB3
:104D7000DD97ABBE0918A5BE86C6C3BE1F1074BFA3
:104D80008C2E6F3E821C9E3FAC1A14BFBB6400BFCA
:104D90009D0D393FA8C8213DA148C53F1BBCD9BFC7
:104DA000A05184BF5E8243BF904A0B4040FCDC3E72
:104DB0002B35E3BE2CBAF53CA19FA1BE1E547A3F11
:104DC00065DF953C0666513F9FCC333F4ED26CBEAB
:104DD0004DD6E8BDF702033E22A64CBFB45674BEC2
:104DE0006138B7BD51FA82BF7E02703F2BDC90BFA5
:104DF00091F035BF35B295BF3D60883F4D2E2EBF37
:104E000021E6DCBFE02D503F198FB83F051A2C3F3B
:104E100033FE0D3E6C0A5CBF869340BF06649D3F27
:104E2000E84B933F87A71BBF5F604E3F1D585E3E18
:104E30004836BFBEEBFF54BF1AE0923E74D1E8BFC4
:104E4000BC59C9BFAC0001404C6B93BD0C4028401D
:104E5000172879BE446F313E4B576C3F99D636BE0A
:104E6000758E05BF884AB73FFDBF5EBF13BB4E3F7F
:104E7000FAB802BFEF563E3FD80F593F647454BF93
:104E80004B72083F5D34843FB9A886BF0267B93EC4
:104E9000F7AD16BD2D239DBFC7D98CBE134924BEC7
:104EA00096B28ABFA723FABF24D468BF0BD0B6BB83
:104EB000529BDCBF82ACA13FFAB519BF591704C0A1
:104EC0004E25E33D236ABE3FA018593D59DE253EDD
:104ED000402FDCBCE8BD313EC3D5613F47AB3A3E15
:104EE000035B413F950E023F8D0B073ECB698F3E22
:104EF000ED9B7BBFB0AF71BF39F155BCB56CB53E12
:104F0000A60B65BF82E64F3FEF54E03D41D32E40F4
:104F1000F278D23E4147A7BF3882C43EFDBEFF3E75
:104F2000DFC202BF658F703E0F0B19BFF227AA3C8C
:104F30003CC1D63E1976983F486E453FEF3A29C0AE
:104F4000E223923ED57A533F231205BC98C25B3FC1
:104F50008258463F3529A73FE4A19D3F7364753FC2
:104F60003BC8D3BF988A7DBFA06B2F3F159179BFF7
:104F700065521BBFBBD12F3FCD3DA43CA22A883F29
:104F800087A7ABBF5682F53E0F26D1BF3FA9B8BF5A
:104F9000776A963E95BB0FBE04AF90BF8AC795BE99
:104FA000142115BF107765BF43917E3E47ADBEBF4C
:104FB0004084A03EFA9A01C0E36B073F6EDBAF3E30
:104FC000F018423FFB2231BF36202E3F064989BFF1
:104FD0007557663FBDE007C0C5C5913E0EBB3BBFE0
:104FE000F8FB45BF787C1B3EB076ACBECB83783FE8
:104FF0008C9EDBBD1BBA813FAF60F3BE9C348D3D00
:105000004014CC3EC5E38E3FE0D51E3F024A93BE1E
:105010004296AFBF0C952FBF9ED2A93EB66A7FBF06
:10502000BD34953EBBB48D3F88D67A3E78EF283E9E
:1050300082FDCF3E44A59B3FF565B93FB03783BFA6
:105040001959523EF9C0163F272E87BE4AB31F405A
:10505000681F5B3F1FD859BF4DD74F3F0F43333FAA
:105060004C8B423F9A40DBBF1BBDC43F770FCEBF86
:10507000F3048E3FC80A8EBF315CC53E6119773F8D
:10508000EA7B513FB1C0173D1F0F6DBFCA35E5BD6B
:1050900060934DBFEB1ED5BF37C266BF1B9E163F48
:1050A0005DDD0D3F8E91D4BEC11C7D3D8734EA3E4F
:1050B00053CA4B3EA4DE833EAE2A054040BE11C01B
:1050C0004B94AD3EFD6C943EF089293F3EB314BF36
:1050D000B743633FF4FE2F3E554C593F91B9763F9D
:1050E0009C34A93F50C783BD3195A83F4A7D693E96
:1050F00058FEB6BF384B19BE954501BF7E54DDBF83
:10510000E4BED5BE9C6E1DBFD784383F1EC1AD3EE8
:105110002102623F9088913EB30815BE5298B7BDF8
:10512000E90C943E2F19953F41444E3FB685ADBFE3
:10513000C096F73DA18263BE075D123FF3AB99BEF7
:10514000FD2F913F19A937BEDAC8BBBFB39AB23F52
:1051500042B5E13E01BD103F479131BF7078553FE8
:1051600033310FC0997F8C3F84F1D3BA54AACEBF9C
:10517000ED469DBFFA61543E9F3E623E00C780BF30
:1051800066F8E7BE4721B33F8C86ECBE3601063D8C
:105190000B7D4C3FBC95653F8F330D3E2D40CFBFFF
:1051A000FCC3D2BF7C7FDB3E2CBB3CBFFE9E103FCE
:1051B000622CB1BF3FA8EB3E4F1F213F4E7BC23E4A
:1051C000CCB481BFD6C9B1BE4A42E23EFC8CCBBF53
:1051D000119033BFD4EE89BFBF48803FA25FDD3F4F
:1051E0001F83353F2E763FBFCD5A6A3E66DC64BED4
:1051F0003B705ABF06F6B03EF3CBE03D6C0791BF63
:1052000037E12EBF24438EBE51A0273F60CB9FBF06
:1052100051F818BF32B0F6BE44BE7B3F2E8DE13F41
:105220001CB5B63F4D69693F5855A73E68948E3D01
:105230003CF8BFBF5321D6BEC955ACBC3EE8693E61
:10524000910C81BFAB242ABFB0E40E3F252298BF4A
:10525000EC8546BF04C68A3E187AC43F36B186BF85
:10526000A224203F38314CBFF585A0BE6F2A1ABF5B
:10527000E128A13F9CC55B3F1BBD06C0BCCCB8BEAE
:10528000E9B50D3F9737C7BF40A053BE0DE4D9BE67
:1052900078D0FC3ED4F35EBFDD7CA33DD38805BF50
:1052A00066F9B4BF0DC2C4BEC174EABEB03B95BEC0
:1052B000083A9ABE0C57CBBF99118C3F4E7EA93F3E
:1052C000F98301BEC8B63CBF27D95A3E2312CDBED2
:1052D00037FE843D0306E1BF5CE7D73FF9A0A73E58
:1052E0009D49373F7FA0CC3FB72404C0AB5E3EBF93
:1052F000D769343E7520073F6F9B0DBF28B8983E95
:1053000075019DBF6D3A42BE207A9ABE12FB743F72
:10531000AD8A08BF4FAD66BF4A7E64BFFFB38E3E05
:1053200035ED3EBF4F3ECD3F5C03133FE42CA43E22
:1053300025041BBE8FABA13E76FEAB3FA4380FC049
:10534000F27DA53F61C5C1BE5D37253BD577623F84
:10535000711B153F8C9FCEBF2178C0BF88D6123FEE
:10536000F41869BFAFCDD0BFF0E0B7BE5394CBBE49
:10537000B5A594BF2C0F8EBFF6D2943EB682F4BF73
:10538000514AA83F59522A3FE0DB8CBEA298BCBCD0
:105390001D7168BF8D9685BF7D3DBF3ECDCA663FFE
:1053A0002AA7A33FF88903BED6E11C3F2F6FFA3F1F
:1053B0007C0B11408E77BFBE083C0F40F16823BEC6
:1053C000390A34BF0740103F2E034EBD9EF0943F74
:1053D000A4A7283F5169C6BF12DD41C052630A3FEE
:1053E000D92681BFC575683FE888CA3F83A57ABFC3
:1053F000EF02813F774B223ED94016BF857BC93FE4
:105400001C4304BF8D289D3F73BCCA3F5BB105C0E0
:1054100058C53C408195AD3FA168863F416544BF7A
:1054200018EB83BE9E98AFBF8D42A2BF501B65BFD5
:1054300089CE163F44DBEB3F2F8AAC3F8385FBBE12
:10544000465D0BC021B0723EE5433CBF00C4E3BFE4
:105450003064E53E71CA143F994A5B3FA05388BE51
:10546000A1BED5BECFBE52BEBA8132BE81CC5E3E99
:10547000FB96D73F19CBF43D1D92263FB81F054040
:10548000E6AEADBEB0E83A3F1B83963E355F59BFEE
:10549000BB2A22C0924018C0164BB1BE5E661CBF2C
:1054A0008BFED0BEBE32B5BFAB92683E23F7543EF2
:1054B000703F38BFB1FC413F3F52D2BFA64587BFC6
:1054C000D7D980BE5133A6BF4DDB9D3FDF4FBF3FD5
:1054D000BB99713E09C2B3BF87A6283F8C9F23C0EA
:1054E00028F208BF2BF64C408FDEE03EF52F93BF2D
:1054F0000803633FF81791BEE485843F4AD1BABEE2
:105500003BC6AB3FB822813FC9015B3E223999BE01
:10551000A4FE823EE46743BE36EAA1BD6F29333F55
:105520000CEA4BBFF3204DBF0801F9BB38103ABF5E
:10553000E0D5BEBF46CE5E3F8E0688BE7689C8BF28
:10554000BB0DCABEBA4E13BE4E6415C0D7C3ADBFA5
:105550007F68E8BFC6E08D3F988611BED26E8E3F51
:10556000ED2B0F3FEAECF43E2DEC2DBF32E7913EE0
:105570009D9DAABFC15639BFB1E129BFA4344B3E9E
:105580003CBEE5BF459FB1BFB2834A3EF112BC3F6E
:10559000F8A4BB3E68B3E2BEFFE946BDE5259F3DEA
:1055A000CB9CFA3F553195BDDA55703F8509A3BDB7
:1055B000A60B4DBFD36C9E3E3CA2863FDE04D5BFFA
:1055C000129F8BBF225544BEE542ED3EE6946CBF70
:1055D000EC4F26BFEA751F3FC9E4AABFAC1A863F4D
:1055E00000035D3F0C7524BF6AF6283F98A5A53FD0
:1055F0008010A13EFA0C5C3F12C2033E9DB9873C6D
:10560000B11895BD1A8B7EBFDB523FBFA46DFCBCA9
:10561000D5047D3F2E5919BFAC02BD3F435550BF45
:105620005721253F6DABA7BF910F5EBFABCEF2BE3A
:1056300048C1633E8387EF3F3448E13D4A9BD2BE79
:10564000C1E0023FAA7C99BFEA58C5BD2042E43EB2
:10565000607697BE25072CBE1FDA373EC79CD73E23
:1056600027BED63F069CFF3F3C6C323F9BE5AEBF5A
:1056700009E1B93ECC2911BFD7A685BFB477323F27
:1056800042D2F73EAA6646BEAB95C1BE68E962BF8C
:10569000938BEBBFB268D0BFB83E96BFC0B0D4BE4C
:1056A000454A333E7CF06A3E73D59EBF7633333F26
:1056B0009F8FDA3EFC36BA3F8D9B02BFF722DABBE2
:1056C000E88606BF0EBB373FD74F8B3F2D24003FE8
:1056D000026531400B2824BEFBE5DB3EA9C0FBBFC1
:1056E000E7C70BBFEDB6F1BFF015DDBD6877A8BF0A
:1056F0009C312CBF650167BF5E831EBE747E723F06
:10570000B072C63F22ABDB3E43900FBF789B373E63
:105710009D8145BF028271BF392BB4BF1AFCF3BF14
:1057200056B885BDF5112C3F3318533E871A05BC7A
:105730001F2FA43C62F60EBF096BF13F204161BEF2
:10574000E50AB5BF0B0A9BBE9ACF11BF5FD2F8BD69
:105750007EC4C7BE312358BFD26EDEBF7C27E6BEF3
:10576000AB22C6BF3526C4BDF25F683F8FA7174086
:10577000840F053F5530D23E1BBB863F9489DB3EEC
:1057800072C5A53FAD843EBEDFDE053E3E5A28BF52
:10579000525F42BF105D18BF72F94F3F836B8E3D61
:1057A00041B6EABF08E7E93F7671273FFEBAC5BFB9
:1057B000490EC0BE2AAC543E58FF43BFA6D0D9BD47
:1057C0002173AD3E7348843F35D1B3BFB8E983BF81
:1057D00007B424BFCAE22E3EAF23AC3FCBD7F73F7E
:1057E00032C83D3FECDD4F3F433C12BE5A82CCBD38
:1057F00063D54CBF228BFC3ED3689E3FB9E1A53FE9
:10580000B56F8EBE8A565E3E6477213FB56D0CBF84
:10581000A7246B3E53EBB53EDE72053F47B01DBF7C
:105820004643AC3F7D94793F123018C01CD18BBFEA
:1058300076C3A6BE58C800C015A9C83FE5EF6E3EA6
:10584000C87B253F939090BF54C4493E0933D93F4C
:105850005DDD393FFCE24A3F9B751A3F153A6FBD4B
:10586000C4E88DBF0C3B09403D29ADBFA8FEE93E11
:105870001748C83E3FAC0440F089A5BEC0EBBB3F13
:10588000399D00BF8C9F563E933A413F84BC72BF06
:10589000DBF71C3F2A58E13FDAC8B53DD21D264050
:1058A0009AEB2CBFFF5A3240C7D889BCD7158B3E24
:1058B00097026ABF86C6F9BF9D84A2BEFE9C163FB2
:1058C0001539543F8461D6BFB20DF6BF2992DFBEB1
:1058D000A836383DB9A91A402AAA9EBEC215403E34
:1058E000679C723F799406BF25CC8EBF24D1CBBF75
:1058F0004A61963FCB64F83E179FD23F3A91E8BE8B
:105900004F1F813F6B290340FC1D1A3F224F923CE1
:105910007022CEBF6D8F9E3F8FFF2E3F01DD47BFB0
:105920003DEE073F9D9B0840CE6EB53EC4426D3EA6
:1059300087DCA43FC6FC5CBC0DABAABF7F6C0EBF6E
:10594000CE6E413F446F69BF5793AF3F53797B3E63
:105950000265F33D16F6C43EDAAB8FBD0F0C14BFE3
:105960002349F03E255CA63F1041D13F4AEB33BFAF
:1059700022A84E3F848383BF0CB2A53FF59C743CA4
:1059800034F45F3EBF49DB3F240B05C00741E73DD0
:1059900023128BBFBC76C7BF0A2D233F9624CFBEF0
:1059A0009D80CEBE0A30AC3D10E6DEBE100810BFB2
:1059B000ACC8603FE78C50BF284884BEB091FC3E25
:1059C0005B7D4DBF5C7608BC7EA8203F51161E3E15
:1059D000C32A25401233A7BFE602833F931D473FEA
:1059E0006C7955BF8C2F16BFD97A863D1A364ABCC2
:1059F0005CAB9DBDC77FC7BF07EFD93FAC1EF0BEF4
:105A00009BC7C13DF8FA923EC95A6B3F4698023F88
:105A1000A0547B3E3544B3BFCE35783F4CFECB3FE0
:105A2000AA0DB8BFA661C4BF8E0199BDFAD3A63D29
:105A300094DE57BF3F8C10BF5E12E7BCA1319FBF01
:105A400072A83B3F280A743D34B9183E0B45CC3F41
:105A5000DBF946BF7A6FC63F4E0A873F59A72ABE79
:105A60000C04A13E81B4B53F289AA73ECA88F33EF4
:105A70007C29CC3E700895BDD84AA83F7E707A3FFD
:105A80003B6EDC3F3F19D3BE8EAC103FE0663D3F1E
:105A9000DB6B613E0F0AA83F1B10213F85D28DBFF3
:105AA00051DDE4BEADDA39BF6345B53ECFBB01BFC2
:105AB000CAA306C0BB282ABF349DB93F33DCA8BEA9
:105AC00079EB2C40AE45D1BF984C09BFCE160C3FA8
