:020000040C00EE
:1000000000080020010200088F0300089F03000879
:10001000AF030008BF030008CF0300080000000082
:10002000000000000000000000000000DF030008E6
:10003000EF03000800000000FF0300080F040008A1
:100040001F0400082F0400083F0400084F040008A4
:100050005F0400086F0400087F0400088F04000894
:100060009F040008000000000000000000000000E5
:10007000AF04000800000000BF040008CF0400081F
:10008000DF040008EF040008FF0400080F05000863
:100090001F0500082F0500083F0500084F05000850
:1000A0005F0500086F0500087F0500088F05000840
:1000B0009F050008AF050008BF050008CF05000830
:1000C000DF050008EF050008FF0500080F0600081F
:1000D0001F0600082F0600083F0600084F0600080C
:1000E0005F0600086F0600087F0600088F060008FC
:1000F0009F060008AF060008BF060008CF060008EC
:10010000DF060008ED060008FB06000809070008E6
:1001100017070008250700083307000841070008F3
:100120004F0700085D0700086B0700087907000803
:100130008707000895070008A3070008B107000813
:10014000BF070008CD070008DB070008E907000823
:10015000F707000805080008130800082108000830
:10016000000000000000000000000000000000008F
:100170002F0800083D0800084B080008590800082F
:10018000670800087508000883080008910800083F
:100190009F080008AD080008BB080008C90800084F
:1001A000D7080008E5080008F3080008010900085E
:1001B0000F0900081D0900082B090008390900086B
:1001C000470900085509000863090008710900087B
:1001D0007F0900088D0900089B0900080000000045
:1001E000A9090008B7090008C5090008D3090008D3
:1001F000E109000800000000EF090008000000000D
:10020000DFF80CD0034880470348804700F006B869
:1002100000080020B90B0008C50200081E481F494D
:100220001F4A002A00F01280042A80F002804FF05A
:1002300004024FEA920203680B60013A00F0068064
:1002400000F1040001F10401FFF7F5BF154816495C
:10025000002900F01180042980F002804FF0040191
:100260004FEA91014FF000020260013900F0048072
:1002700000F10400FFF7F8BF0C480D4908600D4875
:1002800080470D488047DFF834D04FF000004FF032
:100290000001DFF82CF00000D018000CA0080020AE
:1002A0000801000000080020940000000000000881
:1002B00008ED00E0550C0008FD15000800080020BE
:1002C000C902000800BF704780B582B000AF40F699
:1002D000A000C2F2000040F62011C2F2000140F678
:1002E0000C02C2F200024FF0200301F0A3F84FF01D
:1002F00000037B6018E07B684FEA830240F60C0342
:10030000C2F20003D31840F68C00C2F20000194676
:1003100040F68C02C2F200024FF0010300F0A4FF8D
:100320007B6803F101037B607B681F2BE3D940F6F8
:10033000A013C2F2000393ED007A40F68C03C2F2E0
:100340000003D3ED007A77EE677AF0EEE77AC7ED37
:10035000007A97ED007ADFED0C7AB4EEE77AF1EEF1
:1003600010FA06DD40F69003C2F200034FF0FA02E5
:100370001A7040F69003C2F200031B785BB213F1CF
:10038000060F00D1FEE7FEE7BD378635FEE7DFF852
:10039000700600B581B0804701B000BDFEE7DFF810
:1003A000640600B581B0804701B000BDFEE7DFF80C
:1003B000580600B581B0804701B000BDFEE7DFF808
:1003C0004C0600B581B0804701B000BDFEE7DFF804
:1003D000400600B581B0804701B000BDFEE7DFF800
:1003E000340600B581B0804701B000BDFEE7DFF8FC
:1003F000280600B581B0804701B000BDFEE7DFF8F8
:100400001C0600B581B0804701B000BDFEE7DFF8F3
:10041000100600B581B0804701B000BDFEE7DFF8EF
:10042000040600B581B0804701B000BDFEE7DFF8EB
:10043000F80500B581B0804701B000BDFEE7DFF8E8
:10044000EC0500B581B0804701B000BDFEE7DFF8E4
:10045000E00500B581B0804701B000BDFEE7DFF8E0
:10046000D40500B581B0804701B000BDFEE7DFF8DC
:10047000C80500B581B0804701B000BDFEE7DFF8D8
:10048000BC0500B581B0804701B000BDFEE7DFF8D4
:10049000B00500B581B0804701B000BDFEE7DFF8D0
:1004A000A40500B581B0804701B000BDFEE7DFF8CC
:1004B000980500B581B0804701B000BDFEE7DFF8C8
:1004C0008C0500B581B0804701B000BDFEE7DFF8C4
:1004D000800500B581B0804701B000BDFEE7DFF8C0
:1004E000740500B581B0804701B000BDFEE7DFF8BC
:1004F000680500B581B0804701B000BDFEE7DFF8B8
:100500005C0500B581B0804701B000BDFEE7DFF8B3
:10051000500500B581B0804701B000BDFEE7DFF8AF
:10052000440500B581B0804701B000BDFEE7DFF8AB
:10053000380500B581B0804701B000BDFEE7DFF8A7
:100540002C0500B581B0804701B000BDFEE7DFF8A3
:10055000200500B581B0804701B000BDFEE7DFF89F
:10056000140500B581B0804701B000BDFEE7DFF89B
:10057000080500B581B0804701B000BDFEE7DFF897
:10058000FC0400B581B0804701B000BDFEE7DFF894
:10059000F00400B581B0804701B000BDFEE7DFF890
:1005A000E40400B581B0804701B000BDFEE7DFF88C
:1005B000D80400B581B0804701B000BDFEE7DFF888
:1005C000CC0400B581B0804701B000BDFEE7DFF884
:1005D000C00400B581B0804701B000BDFEE7DFF880
:1005E000B40400B581B0804701B000BDFEE7DFF87C
:1005F000A80400B581B0804701B000BDFEE7DFF878
:100600009C0400B581B0804701B000BDFEE7DFF873
:10061000900400B581B0804701B000BDFEE7DFF86F
:10062000840400B581B0804701B000BDFEE7DFF86B
:10063000780400B581B0804701B000BDFEE7DFF867
:100640006C0400B581B0804701B000BDFEE7DFF863
:10065000600400B581B0804701B000BDFEE7DFF85F
:10066000540400B581B0804701B000BDFEE7DFF85B
:10067000480400B581B0804701B000BDFEE7DFF857
:100680003C0400B581B0804701B000BDFEE7DFF853
:10069000300400B581B0804701B000BDFEE7DFF84F
:1006A000240400B581B0804701B000BDFEE7DFF84B
:1006B000180400B581B0804701B000BDFEE7DFF847
:1006C0000C0400B581B0804701B000BDFEE7DFF843
:1006D000000400B581B0804701B000BDFEE7FD48D1
:1006E00000B581B0804701B000BDFEE7FA4800B513
:1006F00081B0804701B000BDFEE7F84800B581B089
:10070000804701B000BDFEE7F54800B581B08047E5
:1007100001B000BDFEE7F34800B581B0804701B0ED
:1007200000BDFEE7F04800B581B0804701B000BDD4
:10073000FEE7EE4800B581B0804701B000BDFEE79E
:10074000EB4800B581B0804701B000BDFEE7E94845
:1007500000B581B0804701B000BDFEE7E64800B5B6
:1007600081B0804701B000BDFEE7E44800B581B02C
:10077000804701B000BDFEE7E14800B581B0804789
:1007800001B000BDFEE7DF4800B581B0804701B091
:1007900000BDFEE7DC4800B581B0804701B000BD78
:1007A000FEE7DA4800B581B0804701B000BDFEE742
:1007B000D74800B581B0804701B000BDFEE7D548FD
:1007C00000B581B0804701B000BDFEE7D24800B55A
:1007D00081B0804701B000BDFEE7D04800B581B0D0
:1007E000804701B000BDFEE7CD4800B581B080472D
:1007F00001B000BDFEE7CB4800B581B0804701B035
:1008000000BDFEE7C84800B581B0804701B000BD1B
:10081000FEE7C64800B581B0804701B000BDFEE7E5
:10082000C34800B581B0804701B000BDFEE7C148B4
:1008300000B581B0804701B000BDFEE7BE4800B5FD
:1008400081B0804701B000BDFEE7BC4800B581B073
:10085000804701B000BDFEE7B94800B581B08047D0
:1008600001B000BDFEE7B74800B581B0804701B0D8
:1008700000BDFEE7B44800B581B0804701B000BDBF
:10088000FEE7B24800B581B0804701B000BDFEE789
:10089000AF4800B581B0804701B000BDFEE7AD486C
:1008A00000B581B0804701B000BDFEE7AA4800B5A1
:1008B00081B0804701B000BDFEE7A84800B581B017
:1008C000804701B000BDFEE7A54800B581B0804774
:1008D00001B000BDFEE7A34800B581B0804701B07C
:1008E00000BDFEE7A04800B581B0804701B000BD63
:1008F000FEE79E4800B581B0804701B000BDFEE72D
:100900009B4800B581B0804701B000BDFEE7994823
:1009100000B581B0804701B000BDFEE7964800B544
:1009200081B0804701B000BDFEE7944800B581B0BA
:10093000804701B000BDFEE7914800B581B0804717
:1009400001B000BDFEE78F4800B581B0804701B01F
:1009500000BDFEE78C4800B581B0804701B000BD06
:10096000FEE78A4800B581B0804701B000BDFEE7D0
:10097000874800B581B0804701B000BDFEE78548DB
:1009800000B581B0804701B000BDFEE7824800B5E8
:1009900081B0804701B000BDFEE7804800B581B05E
:1009A000804701B000BDFEE77D4800B581B08047BB
:1009B00001B000BDFEE77B4800B581B0804701B0C3
:1009C00000BDFEE7784800B581B0804701B000BDAA
:1009D000FEE7764800B581B0804701B000BDFEE774
:1009E000734800B581B0804701B000BDFEE7714893
:1009F00000B581B0804701B000BD4FF001007047E5
:100A00008D0300089D030008AD030008BD03000826
:100A1000CD030008DD030008ED030008FD03000816
:100A20000D0400081D0400082D0400083D04000802
:100A30004D0400085D0400086D0400087D040008F2
:100A40008D0400089D040008AD040008BD040008E2
:100A5000CD040008DD040008ED040008FD040008D2
:100A60000D0500081D0500082D0500083D050008BE
:100A70004D0500085D0500086D0500087D050008AE
:100A80008D0500089D050008AD050008BD0500089E
:100A9000CD050008DD050008ED050008FD0500088E
:100AA0000D0600081D0600082D0600083D0600087A
:100AB0004D0600085D0600086D0600087D0600086A
:100AC0008D0600089D060008AD060008BD0600085A
:100AD000CD060008DD060008EB060008F906000850
:100AE000070700081507000823070008310700085A
:100AF0003F0700084D0700085B070008690700086A
:100B0000770700088507000893070008A107000879
:100B1000AF070008BD070008CB070008D907000889
:100B2000E7070008F5070008030800081108000897
:100B30001F0800082D0800083B08000849080008A5
:100B400057080008650800087308000881080008B5
:100B50008F0800089D080008AB080008B9080008C5
:100B6000C7080008D5080008E3080008F1080008D5
:100B7000FF0800080D0900081B09000829090008E2
:100B800037090008450900085309000861090008F1
:100B90006F0900087D0900088B0900089909000801
:100BA000A7090008B5090008C3090008D109000811
:100BB000DF090008ED09000880B582B000AF4FF4EE
:100BC0006D43CEF200034FF46D42CEF20002D2F834
:100BD000882042F47002C3F888204FF46D43CEF2AF
:100BE00000034FF46D42CEF20002526922F0080277
:100BF0005A614FF40043C5F200034FF40042C5F2BE
:100C00000002526822F001025A604FF48053C5F688
:100C1000000303F5805303F114031B687B607B68BA
:100C200023F00F037B607B6843F003037B604FF48A
:100C30008053C5F600037A6803F5805303F114036B
:100C40001A6000F0ABF800F005F807F10807BD46A0
:100C500080BD00BF80B485B000AF4FF48C43C5F2B7
:100C60000003DB68B3F5803F40F0898044F21073E5
:100C7000C5F200031B6803F00403002B00F088801A
:100C800044F21073C5F200039B6803F070634FEAEF
:100C9000136303F10103FB6044F21073C5F2000318
:100CA0009B6803F4FE434FEA132303F10103BB6087
:100CB00044F21073C5F200039B6803F4FE034FEA8D
:100CC000134303F101037B6044F21073C5F2000388
:100CD000DB6803F00103002B28D04FF45853C0F217
:100CE0006E13FA68B3FBF2F3BA6802FB03F33B60DE
:100CF0003A687B68B2FBF3F240F6A413C2F2000339
:100D00001A6040F6A413C2F200031A684FF48C4331
:100D1000C5F20003DB68DBB203F10103B2FBF3F2BF
:100D200040F6A413C2F200031A6031E04FF4D85326
:100D3000C0F2B703FA68B3FBF2F3BA6802FB03F33D
:100D40003B603A687B68B2FBF3F240F6A413C2F250
:100D500000031A6040F6A413C2F200031A684FF4AD
:100D60008C43C5F20003DB68DBB203F10103B2FB85
:100D7000F3F240F6A413C2F200031A6008E040F652
:100D8000A413C2F200034FF45852C0F26E121A605C
:100D900007F11407BD4680BC704700BF80B582B024
:100DA00000AFFFF72AFE0346002B00F0558244F205
:100DB0001073C5F200035A684FF00203C0F201033A
:100DC0001340002B0DD044F21073C5F2000344F21F
:100DD0001072C5F20002526822F4803222F0020240
:100DE0005A604FF48E43C5F200035B6803F0300392
:100DF000002B72D04FF48E43C5F200034FF48E42A5
:100E0000C5F20002526822F0F0025A604FF48E439D
:100E1000C5F200034FF48E42C5F20002526842F45C
:100E200000325A6044F21073C5F2000344F21072AB
:100E3000C5F20002D26822F00102DA6044F21073B7
:100E4000C5F2000344F21072C5F20002526822F4A7
:100E500000325A604EF21003CEF2000344F6A33281
:100E6000C0F24C025A604EF21003CEF200034FF073
:100E700000029A604EF21003CEF200034FF005021A
:100E80001A6044F21073C5F200031B6803F4607328
:100E9000B3F5607F08D04EF21003CEF200039A68DB
:100EA00040F2F3139A42ECD84EF21003CEF2000354
:100EB0004EF21002CEF20002126822F001021A6015
:100EC00044F21073C5F200031B6803F46073B3F5BA
:100ED000607F02D04FF00003C0E144F21073C5F20E
:100EE00000031B6803F00403002B40F0B5814FF4AE
:100EF0008C43C5F20003DB6803F48033002B0BD076
:100F00004FF48C43C5F200034FF48C42C5F200024B
:100F1000D26822F48032DA604FF46053C1F69C4309
:100F20007B607A6849F68173C1F25E63A3FB0213AA
:100F30004FEA535303F1FF333B6044F21073C5F2A1
:100F4000000344F21072C5F20002526842F001023E
:100F50005A6044F21073C5F2000344F21072C5F2F5
:100F60000002526842F010025A6044F21072C5F258
:100F700000023B684FEA034144F60173C0F20013DC
:100F80000B43936044F21073C5F2000344F21072F5
:100F9000C5F20002526842F040025A6044F21073F7
:100FA000C5F2000344F21072C5F20002526822F04A
:100FB00010025A6044F21073C5F2000344F210723A
:100FC000C5F20002526842F480225A604EF21003C9
:100FD000CEF2000344F6A332C0F24C025A604EF245
:100FE0001003CEF200034FF000029A604EF210039D
:100FF000CEF200034FF005021A6000BF44F21073F6
:10100000C5F200031B6803F00403002B08D14EF265
:101010001003CEF200039A6840F2F3139A42EDD81F
:101020004EF21003CEF200034EF21002CEF2000296
:10103000126822F001021A6044F21073C5F2000334
:101040001B6803F00403002B4ED044F21073C5F26A
:10105000000344F21072C5F20002526822F001024D
:101060005A604FF48C43C5F200034FF000021A613E
:101070004FF48C43C5F200034FF000025A614FF465
:101080008C43C5F200034FF000021A624FF48C4308
:10109000C5F200034FF48C42C5F20002D26842F45C
:1010A0008032DA6044F21073C5F2000344F2107229
:1010B000C5F20002526822F040025A604EF210035C
:1010C000CEF2000340F245525A604EF21003CEF2C7
:1010D00000034FF000029A604EF21003CEF20003BC
:1010E0004FF005021A6002E04FF00003B6E04EF246
:1010F0001003CEF200039B68632BF8D84EF2100366
:10110000CEF200034EF21002CEF20002126822F07C
:1011100001021A604FF46053C1F69C437B607B6808
:101120004FEA132245F2C743C0F21E13A3FB02137A
:101130004FEA932303F1FF333B6044F21072C5F290
:1011400000023B684FEA034144F60173C0F200130A
:101150000B4393604EF21003CEF2000340F61B42A5
:101160005A604EF21003CEF200034FF000029A6074
:101170004EF21003CEF200034FF005021A6000BFDA
:101180004EF21003CEF200039B68632BF8D84EF2A8
:101190001003CEF200034EF21002CEF200021268EB
:1011A00022F001021A604FF46053C1F69C437B6049
:1011B0007B684FEAD3124EF22F33C0F2BE03A3FB7B
:1011C00002134FEAD32303F1FF333B6044F2107262
:1011D000C5F200023B684FEA034144F60173C0F2D6
:1011E00000130B4393604EF21003CEF2000341F262
:1011F00023325A604EF21003CEF200034FF0000289
:101200009A604EF21003CEF200034FF005021A600E
:1012100000BF4EF21003CEF200039B68632BF8D898
:101220004EF21003CEF200034EF21002CEF2000294
:10123000126822F001021A6044F21073C5F2000332
:1012400044F60172C0F203129A6044F26013C5F2D0
:1012500000034FF00502DA604FF00103184607F172
:101260000807BD4680BD00BF2DE9F0075FEA930A7D
:1012700000F0A880D0ED014AD1ED016A90ED025A4C
:1012800091ED027AD0ED035AD1ED037A90ED004A48
:1012900091ED006A0AF1FF3434EE060A74EEA60AF4
:1012A00035EE071A75EEA71A06460D46A14604F05C
:1012B00001071036103582ED000AC2ED010A82EDF9
:1012C000021AC2ED031A02F11004B9F1000F74D032
:1012D0003FB3B0462F4696ED012AD5ED012A96ED93
:1012E000023AD5ED023A96ED035AD5ED035AD8ED00
:1012F000004A97ED007A72EE226A34EE874A33EEA6
:10130000236A75EE257A1036103584ED004AC4ED57
:10131000016A84ED026AC4ED037A1034B9F101095F
:101320004BD096ED000AD5ED000A96ED011AD5EDE9
:10133000011A96ED022AD5ED022A96ED033AD5ED73
:10134000033A30EE205A71EE215A72EE224A33EE01
:10135000237A84ED005AC4ED015AC4ED024A84EDAB
:10136000037A96ED044A95ED046A96ED050AD5EDEB
:10137000056AD6ED060A95ED061AD6ED071AD5EDE3
:10138000077A34EE062A70EE262A30EE813A71EEA4
:10139000A73A2F4604F1100884ED042AC4ED052A6B
:1013A00084ED063AC4ED073A10372034B9F102094A
:1013B00006F1200605F12005B3D14FEA0A14001901
:1013C0000919121913F0030331D090ED005AD1ED31
:1013D000005A5C1E75EE254A2346E2EC014A04F0F1
:1013E000010423B36CB10430043190ED007A91ED27
:1013F000004A37EE046A013B04460F46A2EC016A3C
:1014000015D090ED010AD1ED016A70EE260A14465E
:10141000E4EC010A90ED021AD1ED021A71EE217A84
:101420000830C2ED017A0831221D023BE9D1BDE846
:10143000F00770472DE9F0035FEA930800F0A580FC
:10144000D1ED007A90ED007A27EE270AD0ED025A0E
:10145000D1ED020A90ED015AD1ED016A90ED036AD7
:1014600082ED000A91ED031A08F1FF3565EE261AA8
:1014700025EEA02A66EE012A0646AC4605F00107D5
:101480001036C2ED011A82ED022AC2ED032A01F1E3
:10149000100502F11004BCF1000F71D037B3B14652
:1014A000D5ED004AD9ED007A27EEA40A96ED023A6E
:1014B000D6ED013A96ED034A95ED027AD5ED015A43
:1014C00084ED000AD5ED030A23EEA55A63EE076A00
:1014D00024EE206A103684ED015AC4ED026A84EDD0
:1014E000036A10351034BCF1010C49D095ED001A97
:1014F000D6ED001A21EE812AD6ED022A95ED023AA8
:10150000D6ED013A95ED014AD6ED034A84ED002A65
:10151000D5ED037A23EE840A22EE837A64EEA75A8D
:1015200084ED010A84ED027AC4ED035AD6ED040A73
:1015300095ED045A20EE851AD6ED061A95ED062A89
:10154000D6ED052AD5ED056A96ED076A84ED041AF5
:1015500095ED073A62EEA63A21EE824A66EE034A1C
:101560003746C4ED053A84ED064AC4ED074A103704
:1015700020352034BCF1020CB14606F12006B5D16D
:101580004FEA081400190919121913F0030331D096
:1015900090ED000AD1ED007A5C1E20EE277A2346FA
:1015A000A2EC017A04F0010423B36CB104300431DD
:1015B000D0ED005AD1ED000A25EEA05A013B0446B9
:1015C0000F46A2EC015A15D090ED011AD1ED011A87
:1015D00021EE212A1446A4EC012AD0ED022AD1EDF5
:1015E000026A22EEA66A083082ED016A0831221DE5
:1015F000023BE9D1BDE8F003704700BFF8B5204FCA
:10160000204C381B871017D07A1E2368012502F062
:1016100001069847AF420FD02EB154F8041F02259F
:101620008847AF4208D0606880470235A268261D0F
:1016300090470834AF42F6D1134F144C00F028F90C
:101640003B1B9F1018D07D1E216805F00106012567
:101650008847AF4211D02EB154F8040F02258047BD
:10166000AF420BD0626890470235A368261D9847A9
:101670000834AF42F6D1F8BDF8BDF8BDF8BD00BFE3
:10168000B4180008B4180008B4180008B41800080A
:1016900080B485B000AFF860B9607A604FF0FF3376
:1016A000184607F11407BD4680BC704780B485B06A
:1016B00000AFF860B9607A604FF0FF33184607F169
:1016C0001407BD4680BC704780B485B000AFF86099
:1016D000B9607A604FF00003184607F11407BD4661
:1016E00080BC704780B485B000AFF860B9607A60A4
:1016F0004FF0FF33184607F11407BD4680BC704712
:1017000080B400AF4FF0FF331846BD4680BC704731
:1017100080B483B000AF786039603B68002B02D0A2
:101720004FF0FF3301E06FF00103184607F10C079B
:10173000BD4680BC704700BF80B483B000AF786006
:1017400039607A683B689A4202D14FF0FF3301E07A
:101750006FF00103184607F10C07BD4680BC7047C7
:1017600080B483B000AF78604FF0FF33184607F1C4
:101770000C07BD4680BC704780B487B000AF78606E
:101780004FF25863C0F200037B6140F60403C2F2DB
:1017900000031B68002B14D140F60403C2F20003BF
:1017A00040F6A812C2F200021A6040F60403C2F228
:1017B00000031A687B69D21840F60803C2F20003DE
:1017C0001A6040F60403C2F200031B683B6140F656
:1017D0000403C2F200031B681A467B68D31803F1A6
:1017E000070323F00703FB6040F60803C2F200037F
:1017F0001B68FA689A4202D34FF0000306E040F6F5
:101800000403C2F20003FA681A603B69184607F144
:101810001C07BD4680BC704780B483B000AF7860C1
:101820004FF0FF33184607F10C07BD4680BC7047E8
:1018300080B483B000AF78604FF0FF33184607F1F3
:101840000C07BD4680BC704780B483B000AF7860A1
:1018500039604FF0FF33184607F10C07BD4680BCD6
:10186000704700BF80B400AF4FF0FF331846BD464D
:1018700080BC704780B400AF4FF0FF331846BD46C0
:1018800080BC704780B483B000AF7860FEE700BFD3
:1018900080B400AFBD4680BC704700BF80B483B049
:1018A00000AF78604FF0FF33184607F10C07BD46D4
:0418B00080BC704741
:1018B4004CE9FF7F0100000060E9FF7F01000000A8
:1018D0002379DDBEDE31D5BF1D57003E534A933E0E
:1018E00093BF92BFEB6F983F8836983F5A251ABD39
:1018F000DD92A73E9AD4323E89303FBE69CD393F52
:10190000EA9B16BF51B90B405DAB0BBED254E93D0B
:10191000DC8B883F1ED1723D50E3C3BDDB1455BF45
:1019200004BD963E0208ABBFF9DD363FE2D0CF3FA3
:10193000361831BFACA55B3F1E83A03F55FFCBBF20
:101940008671B8BFBB36123FCDBDCCBEABA3303F16
:10195000D3E3DF3FD4C7073E4F84A63E13374BBFC8
:10196000AB3DA13E33FB06BF07A96E3FB913953FC0
:101970003FEC02C09FF524BF3EDBDE3FB639F93EA7
:101980000640863FA289BE3FCB9FA23F7A95EDBF1E
:10199000B7980840D4C9B73F53D46ABFEF938DBFFF
:1019A00092814F3FB8D3323F419CCDBE7066A23F7B
:1019B0008E9A48BF88625A3EB7B3493FF38C653F61
:1019C0003F673FBEF0AF813FC3657E3EDF27743D7A
:0819D000F8ACBD40000E270732
:0400000508000201EC
:00000001FF
