:020000040C00EE
:1000000000040020010200088B0300089B03000885
:10001000AB030008BB030008CB030008000000008E
:10002000000000000000000000000000DB030008EA
:10003000EB03000800000000FB0300080B040008AD
:100040001B0400082B0400083B0400084B040008B4
:100050005B0400086B0400087B0400088B040008A4
:100060009B040008000000000000000000000000E9
:10007000AB04000800000000BB040008CB0400082B
:10008000DB040008EB040008FB0400080B05000873
:100090001B0500082B0500083B0500084B05000860
:1000A0005B0500086B0500087B0500088B05000850
:1000B0009B050008AB050008BB050008CB05000840
:1000C000DB050008EB050008FB0500080B0600082F
:1000D0001B0600082B0600083B0600084B0600081C
:1000E0005B0600086B0600087B0600088B0600080C
:1000F0009B060008AB060008BB060008CB060008FC
:10010000DB060008E9060008F706000805070008F6
:1001100013070008210700082F0700083D07000803
:100120004B07000859070008670700087507000813
:1001300083070008910700089F070008AD07000823
:10014000BB070008C9070008D7070008E507000833
:10015000F3070008010800080F0800081D08000840
:10016000000000000000000000000000000000008F
:100170002B0800083908000847080008550800083F
:1001800063080008710800087F0800088D0800084F
:100190009B080008A9080008B7080008C50800085F
:1001A000D3080008E1080008EF080008FD0800086F
:1001B0000B0900081909000827090008350900087B
:1001C00043090008510900085F0900086D0900088B
:1001D0007B09000889090008970900080000000051
:1001E000A5090008B3090008C1090008CF090008E3
:1001F000DD09000800000000EB0900080000000015
:10020000DFF80CD0034880470348804700F006B869
:1002100000040020B50B0008C50200081E481F4955
:100220001F4A002A00F01280042A80F002804FF05A
:1002300004024FEA920203680B60013A00F0068064
:1002400000F1040001F10401FFF7F5BF154816495C
:10025000002900F01180042980F002804FF0040191
:100260004FEA91014FF000020260013900F0048072
:1002700000F10400FFF7F8BF0C480D4908600D4875
:1002800080470D488047DFF834D04FF000004FF032
:100290000001DFF82CF00000A0A4020C20140020C4
:1002A0004424000000040020141000000000000896
:1002B00008ED00E0510C00086D3400080004002037
:1002C000C902000800BF704780B588B000AF4FF08A
:1002D0000003FB7743F22043C2F200031B6899B28C
:1002E00041F20043C2F200031B68DAB243F2244336
:1002F000C2F200031B68DBB207F1080001F022FC28
:100300000346FB7707F10803184641F22041C2F289
:10031000000101F0F1FB43F22043C2F200031B682D
:1003200041F22040C2F2000040F20041C2F200015E
:100330001A4601F09FFD43F22043C2F200031A68FF
:1003400007F1040340F20040C2F2000011461A46D1
:1003500041F20443C2F2000301F04EFC41F20443B7
:10036000C2F200031A6843F22843C2F200031B687A
:100370009A4202D04FF0FA03FB7797F91F30002B17
:1003800000D0FEE7FEE700BFFEE7DFF8700600B52D
:1003900081B0804701B000BDFEE7DFF8640600B51C
:1003A00081B0804701B000BDFEE7DFF8580600B518
:1003B00081B0804701B000BDFEE7DFF84C0600B514
:1003C00081B0804701B000BDFEE7DFF8400600B510
:1003D00081B0804701B000BDFEE7DFF8340600B50C
:1003E00081B0804701B000BDFEE7DFF8280600B508
:1003F00081B0804701B000BDFEE7DFF81C0600B504
:1004000081B0804701B000BDFEE7DFF8100600B5FF
:1004100081B0804701B000BDFEE7DFF8040600B5FB
:1004200081B0804701B000BDFEE7DFF8F80500B5F8
:1004300081B0804701B000BDFEE7DFF8EC0500B5F4
:1004400081B0804701B000BDFEE7DFF8E00500B5F0
:1004500081B0804701B000BDFEE7DFF8D40500B5EC
:1004600081B0804701B000BDFEE7DFF8C80500B5E8
:1004700081B0804701B000BDFEE7DFF8BC0500B5E4
:1004800081B0804701B000BDFEE7DFF8B00500B5E0
:1004900081B0804701B000BDFEE7DFF8A40500B5DC
:1004A00081B0804701B000BDFEE7DFF8980500B5D8
:1004B00081B0804701B000BDFEE7DFF88C0500B5D4
:1004C00081B0804701B000BDFEE7DFF8800500B5D0
:1004D00081B0804701B000BDFEE7DFF8740500B5CC
:1004E00081B0804701B000BDFEE7DFF8680500B5C8
:1004F00081B0804701B000BDFEE7DFF85C0500B5C4
:1005000081B0804701B000BDFEE7DFF8500500B5BF
:1005100081B0804701B000BDFEE7DFF8440500B5BB
:1005200081B0804701B000BDFEE7DFF8380500B5B7
:1005300081B0804701B000BDFEE7DFF82C0500B5B3
:1005400081B0804701B000BDFEE7DFF8200500B5AF
:1005500081B0804701B000BDFEE7DFF8140500B5AB
:1005600081B0804701B000BDFEE7DFF8080500B5A7
:1005700081B0804701B000BDFEE7DFF8FC0400B5A4
:1005800081B0804701B000BDFEE7DFF8F00400B5A0
:1005900081B0804701B000BDFEE7DFF8E40400B59C
:1005A00081B0804701B000BDFEE7DFF8D80400B598
:1005B00081B0804701B000BDFEE7DFF8CC0400B594
:1005C00081B0804701B000BDFEE7DFF8C00400B590
:1005D00081B0804701B000BDFEE7DFF8B40400B58C
:1005E00081B0804701B000BDFEE7DFF8A80400B588
:1005F00081B0804701B000BDFEE7DFF89C0400B584
:1006000081B0804701B000BDFEE7DFF8900400B57F
:1006100081B0804701B000BDFEE7DFF8840400B57B
:1006200081B0804701B000BDFEE7DFF8780400B577
:1006300081B0804701B000BDFEE7DFF86C0400B573
:1006400081B0804701B000BDFEE7DFF8600400B56F
:1006500081B0804701B000BDFEE7DFF8540400B56B
:1006600081B0804701B000BDFEE7DFF8480400B567
:1006700081B0804701B000BDFEE7DFF83C0400B563
:1006800081B0804701B000BDFEE7DFF8300400B55F
:1006900081B0804701B000BDFEE7DFF8240400B55B
:1006A00081B0804701B000BDFEE7DFF8180400B557
:1006B00081B0804701B000BDFEE7DFF80C0400B553
:1006C00081B0804701B000BDFEE7DFF8000400B54F
:1006D00081B0804701B000BDFEE7FD4800B581B0A4
:1006E000804701B000BDFEE7FA4800B581B0804701
:1006F00001B000BDFEE7F84800B581B0804701B009
:1007000000BDFEE7F54800B581B0804701B000BDEF
:10071000FEE7F34800B581B0804701B000BDFEE7B9
:10072000F04800B581B0804701B000BDFEE7EE485B
:1007300000B581B0804701B000BDFEE7EB4800B5D1
:1007400081B0804701B000BDFEE7E94800B581B047
:10075000804701B000BDFEE7E64800B581B08047A4
:1007600001B000BDFEE7E44800B581B0804701B0AC
:1007700000BDFEE7E14800B581B0804701B000BD93
:10078000FEE7DF4800B581B0804701B000BDFEE75D
:10079000DC4800B581B0804701B000BDFEE7DA4813
:1007A00000B581B0804701B000BDFEE7D74800B575
:1007B00081B0804701B000BDFEE7D54800B581B0EB
:1007C000804701B000BDFEE7D24800B581B0804748
:1007D00001B000BDFEE7D04800B581B0804701B050
:1007E00000BDFEE7CD4800B581B0804701B000BD37
:1007F000FEE7CB4800B581B0804701B000BDFEE701
:10080000C84800B581B0804701B000BDFEE7C648CA
:1008100000B581B0804701B000BDFEE7C34800B518
:1008200081B0804701B000BDFEE7C14800B581B08E
:10083000804701B000BDFEE7BE4800B581B08047EB
:1008400001B000BDFEE7BC4800B581B0804701B0F3
:1008500000BDFEE7B94800B581B0804701B000BDDA
:10086000FEE7B74800B581B0804701B000BDFEE7A4
:10087000B44800B581B0804701B000BDFEE7B24882
:1008800000B581B0804701B000BDFEE7AF4800B5BC
:1008900081B0804701B000BDFEE7AD4800B581B032
:1008A000804701B000BDFEE7AA4800B581B080478F
:1008B00001B000BDFEE7A84800B581B0804701B097
:1008C00000BDFEE7A54800B581B0804701B000BD7E
:1008D000FEE7A34800B581B0804701B000BDFEE748
:1008E000A04800B581B0804701B000BDFEE79E483A
:1008F00000B581B0804701B000BDFEE79B4800B560
:1009000081B0804701B000BDFEE7994800B581B0D5
:10091000804701B000BDFEE7964800B581B0804732
:1009200001B000BDFEE7944800B581B0804701B03A
:1009300000BDFEE7914800B581B0804701B000BD21
:10094000FEE78F4800B581B0804701B000BDFEE7EB
:100950008C4800B581B0804701B000BDFEE78A48F1
:1009600000B581B0804701B000BDFEE7874800B503
:1009700081B0804701B000BDFEE7854800B581B079
:10098000804701B000BDFEE7824800B581B08047D6
:1009900001B000BDFEE7804800B581B0804701B0DE
:1009A00000BDFEE77D4800B581B0804701B000BDC5
:1009B000FEE77B4800B581B0804701B000BDFEE78F
:1009C000784800B581B0804701B000BDFEE77648A9
:1009D00000B581B0804701B000BDFEE7734800B5A7
:1009E00081B0804701B000BDFEE7714800B581B01D
:1009F000804701B000BD4FF0010070478903000837
:100A000099030008A9030008B9030008C9030008F6
:100A1000D9030008E9030008F903000809040008E5
:100A200019040008290400083904000849040008D2
:100A300059040008690400087904000889040008C2
:100A400099040008A9040008B9040008C9040008B2
:100A5000D9040008E9040008F904000809050008A1
:100A6000190500082905000839050008490500088E
:100A7000590500086905000879050008890500087E
:100A800099050008A9050008B9050008C90500086E
:100A9000D9050008E9050008F9050008090600085D
:100AA000190600082906000839060008490600084A
:100AB000590600086906000879060008890600083A
:100AC00099060008A9060008B9060008C90600082A
:100AD000D9060008E7060008F50600080307000825
:100AE000110700081F0700082D0700083B07000832
:100AF0004907000857070008650700087307000842
:100B0000810700088F0700089D070008AB07000851
:100B1000B9070008C7070008D5070008E307000861
:100B2000F1070008FF0700080D0800081B0800086F
:100B3000290800083708000845080008530800087D
:100B4000610800086F0800087D0800088B0800088D
:100B500099080008A7080008B5080008C30800089D
:100B6000D1080008DF080008ED080008FB080008AD
:100B700009090008170900082509000833090008B9
:100B8000410900084F0900085D0900086B090008C9
:100B9000790900088709000895090008A3090008D9
:100BA000B1090008BF090008CD090008DB090008E9
:100BB000E909000880B582B000AF4FF46D43CEF272
:100BC00000034FF46D42CEF20002D2F8882042F4C6
:100BD0007002C3F888204FF46D43CEF200034FF447
:100BE0006D42CEF20002526922F008025A614FF4BF
:100BF0000043C5F200034FF40042C5F20002526800
:100C000022F001025A604FF48053C5F6000303F549
:100C1000805303F114031B687B607B6823F00F0390
:100C20007B607B6843F003037B604FF48053C5F621
:100C300000037A6803F5805303F114031A6000F08F
:100C4000ABF800F005F807F10807BD4680BD00BF0E
:100C500080B485B000AF4FF48C43C5F20003DB686D
:100C6000B3F5803F40F0898044F21073C5F2000371
:100C70001B6803F00403002B00F0888044F210731B
:100C8000C5F200039B6803F070634FEA136303F13E
:100C90000103FB6044F21073C5F200039B6803F488
:100CA000FE434FEA132303F10103BB6044F21073C8
:100CB000C5F200039B6803F4FE034FEA134303F1FC
:100CC00001037B6044F21073C5F20003DB6803F09C
:100CD0000103002B28D04FF45853C0F26E13FA686A
:100CE000B3FBF2F3BA6802FB03F33B603A687B683C
:100CF000B2FBF3F243F22C43C2F200031A6043F258
:100D00002C43C2F200031A684FF48C43C5F200036F
:100D1000DB68DBB203F10103B2FBF3F243F22C43D5
:100D2000C2F200031A6031E04FF4D853C0F2B703A7
:100D3000FA68B3FBF2F3BA6802FB03F33B603A686C
:100D40007B68B2FBF3F243F22C43C2F200031A6059
:100D500043F22C43C2F200031A684FF48C43C5F2ED
:100D60000003DB68DBB203F10103B2FBF3F243F2F1
:100D70002C43C2F200031A6008E043F22C43C2F293
:100D800000034FF45852C0F26E121A6007F11407B4
:100D9000BD4680BC704700BF80B582B000AFFFF792
:100DA0002AFE0346002B00F0558244F21073C5F270
:100DB00000035A684FF00203C0F201031340002BF6
:100DC0000DD044F21073C5F2000344F21072C5F264
:100DD0000002526822F4803222F002025A604FF47C
:100DE0008E43C5F200035B6803F03003002B72D022
:100DF0004FF48E43C5F200034FF48E42C5F2000259
:100E0000526822F0F0025A604FF48E43C5F200039C
:100E10004FF48E42C5F20002526842F400325A602A
:100E200044F21073C5F2000344F21072C5F20002DE
:100E3000D26822F00102DA6044F21073C5F20003B6
:100E400044F21072C5F20002526822F400325A6075
:100E50004EF21003CEF2000344F6A332C0F24C026D
:100E60005A604EF21003CEF200034FF000029A6077
:100E70004EF21003CEF200034FF005021A6044F266
:100E80001073C5F200031B6803F46073B3F5607F51
:100E900008D04EF21003CEF200039A6840F2F3132A
:100EA0009A42ECD84EF21003CEF200034EF210023A
:100EB000CEF20002126822F001021A6044F21073AE
:100EC000C5F200031B6803F46073B3F5607F02D0C2
:100ED0004FF00003C0E144F21073C5F200031B6839
:100EE00003F00403002B40F0B5814FF48C43C5F2AE
:100EF0000003DB6803F48033002B0BD04FF48C43EA
:100F0000C5F200034FF48C42C5F20002D26822F40D
:100F10008032DA604FF46053C1F69C437B607A689C
:100F200049F68173C1F25E63A3FB02134FEA535388
:100F300003F1FF333B6044F21073C5F2000344F247
:100F40001072C5F20002526842F001025A6044F287
:100F50001073C5F2000344F21072C5F20002526829
:100F600042F010025A6044F21072C5F200023B686F
:100F70004FEA034144F60173C0F200130B43936040
:100F800044F21073C5F2000344F21072C5F200027D
:100F9000526842F040025A6044F21073C5F20003F6
:100FA00044F21072C5F20002526822F010025A6038
:100FB00044F21073C5F2000344F21072C5F200024D
:100FC000526842F480225A604EF21003CEF20003BF
:100FD00044F6A332C0F24C025A604EF21003CEF235
:100FE00000034FF000029A604EF21003CEF20003AD
:100FF0004FF005021A6000BF44F21073C5F20003FF
:101000001B6803F00403002B08D14EF21003CEF24C
:1010100000039A6840F2F3139A42EDD84EF210039F
:10102000CEF200034EF21002CEF20002126822F05D
:1010300001021A6044F21073C5F200031B6803F04A
:101040000403002B4ED044F21073C5F2000344F2A7
:101050001072C5F20002526822F001025A604FF489
:101060008C43C5F200034FF000021A614FF48C4329
:10107000C5F200034FF000025A614FF48C43C5F2F1
:1010800000034FF000021A624FF48C43C5F20003D4
:101090004FF48C42C5F20002D26842F48032DA602A
:1010A00044F21073C5F2000344F21072C5F200025C
:1010B000526822F040025A604EF21003CEF2000352
:1010C00040F245525A604EF21003CEF200034FF048
:1010D00000029A604EF21003CEF200034FF00502B8
:1010E0001A6002E04FF00003B6E04EF21003CEF2B9
:1010F00000039B68632BF8D84EF21003CEF2000376
:101100004EF21002CEF20002126822F001021A60C2
:101110004FF46053C1F69C437B607B684FEA132217
:1011200045F2C743C0F21E13A3FB02134FEA9323F9
:1011300003F1FF333B6044F21072C5F200023B68DA
:101140004FEA034144F60173C0F200130B4393606E
:101150004EF21003CEF2000340F61B425A604EF2EC
:101160001003CEF200034FF000029A604EF210031B
:10117000CEF200034FF005021A6000BF4EF21003DA
:10118000CEF200039B68632BF8D84EF21003CEF228
:1011900000034EF21002CEF20002126822F00102A9
:1011A0001A604FF46053C1F69C437B607B684FEA42
:1011B000D3124EF22F33C0F2BE03A3FB02134FEA49
:1011C000D32303F1FF333B6044F21072C5F20002F7
:1011D0003B684FEA034144F60173C0F200130B432E
:1011E00093604EF21003CEF2000341F223325A60B4
:1011F0004EF21003CEF200034FF000029A604EF25E
:101200001003CEF200034FF005021A6000BF4EF249
:101210001003CEF200039B68632BF8D84EF2100344
:10122000CEF200034EF21002CEF20002126822F05B
:1012300001021A6044F21073C5F2000344F6017211
:10124000C0F203129A6044F26013C5F200034FF03B
:101250000502DA604FF00103184607F10807BD46A2
:1012600080BD00BF2DE9F00F2DED068B8EB08A46B4
:101270000C904FEA91010C9C029304300B9001EB0F
:101280004103CF0004EB011604EBC30301910432C8
:1012900002990B9C09920C9ADDF804B03D1D01EBFC
:1012A000410C311D3E1903965019099E029DCDF83F
:1012B00010B01A1D0B9BDDF80CB003974FEA051810
:1012C0004FEAC5094FEACC0C35463446D3ED006AE7
:1012D00091ED007AD2ED007A90ED006A53ED012A8B
:1012E00012ED014A10ED013A51ED013A36EE275A5E
:1012F00036EE871A73EE044A72EEA30A31EE052A1F
:1013000030EEA40A12EE107A54ED011AD4ED005A10
:1013100072EEE33A03ED010A36EE676A43F8087BA2
:1013200070EEE40A31EE451A33EE443A36EEC74A1F
:1013300033EE860AD5ED006A21EE255A60EEA55AF5
:1013400033EEC62A74EE432A73EE043A51EE215A64
:1013500015ED013AD6ED007A20EE266A56ED014AE7
:1013600000EEA15A12EE836A22EEA64A62EE276AC6
:1013700015EE907A00EE034A53EEA46A23EEA77AA4
:1013800000ED015A02EE247A40F8087B16EE107A3E
:1013900001ED014A41F8087B16EE907A5B4502EDBB
:1013A000017A44444D44664442F8087B8ED102A839
:1013B00090E88108019982008CB293B2042C0D94BC
:1013C000079340F2B0800A944FEA9B06079808966C
:1013D000741E0C99079D069400EB4002089C079828
:1013E000DDF82480DDF82C9001EBC603D200EE007E
:1013F000010125010433039602950591049201939E
:10140000C446464600250299019A56ED01AA96ED7A
:1014100000AA5CED019A9CED009A58ED018A98EDC6
:10142000008A09EB01004B4651182C4653ED011A76
:1014300093ED000A52ED010A92ED001A50ED013AC7
:10144000D0ED004A11ED015AD1ED005A70EE647AE8
:1014500031EEE32A70EEC52A31EE656A31EEA33A29
:1014600030EE244A70EE853A71EE254A77EEE21AA4
:1014700032EE061A33EE630A32EE462A72EEA72ADD
:1014800074EE640A60EE095A20EE895A21EE8A6AE7
:1014900061EE0A6A22EE887A62EE087A00EE295A34
:1014A00050EEA95A01EE2A6A51EEAA6A02EE287A93
:1014B00052EEA87A33EE233A5C4474EE243AA24505
:1014C00003ED013AC3ED003A02ED015AC2ED005AB4
:1014D0003B4400ED016AC0ED006A3A4401ED017A37
:1014E000C1ED007A38443944A0D801980699039C8C
:1014F000059B049A013508308D4226449C44904453
:1015000009F1080901907FF67EAF079F0A9BDDF87D
:1015100020B0BC009A08A0B2042A0A92079002D90F
:101520004FEACB0750E70C990B9F0C4694ED001A3D
:10153000D7ED004AD7ED011A97ED020AD7ED030A5D
:1015400097ED042AD7ED052AD7ED066A31EE204A39
:1015500031EE606A34EE825A74EEC27A31EEE27A8B
:1015600030EE661A31EEA23A70EE265A0D9C0B9FB1
:10157000631E74EE031A35EE250A74EE434A75EEC7
:10158000650A36EE012A77EEC73A76EE412A77EE03
:10159000276A2031184603F001023B4641ED081A44
:1015A000203387ED000AC7ED014AC7ED020A87ED37
:1015B000032AC7ED043AC7ED052AC7ED066A2031B4
:1015C000002800F0CE80002A44D011ED085AD3ED57
:1015D000005A93ED013A93ED021A93ED036AD3EDAD
:1015E000047A93ED057AD3ED061A35EE064A35EE08
:1015F000460A73EE074A71EE213A75EEA70A35EEF8
:10160000E75A33EE476A71EE616A34EE242A70EECF
:10161000A32A34EE641A70EEE35A30EE263A35EE21
:10162000467A70EE661A76EE057A01ED082AC3ED69
:10163000002A83ED011AC3ED025A83ED033A83EDCC
:10164000047AC3ED051AC3ED067A20312033013840
:1016500000F0878011ED080AD3ED000A93ED012A0E
:10166000D3ED023A93ED035AD3ED044AD3ED052AA4
:10167000D3ED066A30EE456A70EEE41A73EEA65AB0
:1016800032EE627A73EEE67A30EE054A30EEA41A54
:1016900032EE223A71EE250A34EE030A34EE432A82
:1016A00031EE655A76EE274A71EEC73A76EE672A32
:1016B00077EE216A01ED080AC3ED000A83ED012AE5
:1016C00083ED025AC3ED034AC3ED043AC3ED052A84
:1016D000C3ED066A0C4694ED001AD3ED081A93ED9B
:1016E000093A93ED0A0A93ED0B6AD3ED0C5A93ED88
:1016F0000D7AD3ED0E0A31EE064A31EEA55A73EE9D
:10170000074A70EE203A70EE606A31EE461A71EECA
:10171000E57A73EE471A34EE242A75EE232A34EE66
:10172000640A35EE636A31EE263A77EEE15A31EE1D
:10173000667A71EEA70A203101ED082A2031C3ED47
:10174000082A83ED090A83ED0A6A83ED0B3AC3ED9B
:101750000C5A83ED0D7AC3ED0E0A403302387FF444
:1017600079AF0EB0BDEC068BBDE8F00F704700BF3F
:101770002DE9F00F2DED088B8EB08A460B900B9C57
:1017800002934FEA9101043004EB01150C900432EE
:10179000CF00019101EB4103099202990B9ADDF808
:1017A00004B0281D0C9DCDF810B03E1D01EB410C7E
:1017B00091197E1904EBC3030396029C099EDDF880
:1017C0000CB003971A1D9DED1EBA0C9B4FEA04182E
:1017D0004FEAC4094FEACC0C3546344693ED004A33
:1017E000D0ED006A91ED006AD2ED007A53ED012A46
:1017F00012ED017A50ED013A11ED013A36EE275A19
:1018000034EE261A73EE074A72EEA30A31EE052A69
:1018100030EEA40A12EE107A54ED011AD4ED005AFB
:1018200072EEE33A03ED010A33EE473A43F8087BE0
:1018300034EE667A70EEE40A36EE674A31EE451A07
:10184000D5ED006A33EEC40A21EE255A60EEA55AA2
:1018500077EE032A33EE842A41EE215A77EE433A9B
:1018600015ED013AD6ED007A20EE264A56ED014AF2
:1018700010EEA15A02EE834A22EEA66A62EE276AB1
:1018800015EE907A10EE036A43EEA46A23EEA77A6F
:1018900001ED015A12EE247A41F8087B14EE107A19
:1018A00000ED016A40F8087B16EE907A5B4502ED88
:1018B000017A44444D44664442F8087B8ED102A824
:1018C00090E881080199820088B293B204280D90B3
:1018D000079340F2B0800A904FEA9B050895079E57
:1018E0000B990898DDF82480DDF8309001EBC503F2
:1018F000441EF50006EB46020898079E0694310147
:10190000D2000433040103950591049201930294DB
:10191000C446464600250299019A56ED01AA96ED65
:1019200000AA5CED019A9CED009A58ED018A98EDB1
:10193000008A09EB01004B4651182C4653ED011A61
:1019400093ED000A52ED010A92ED001A50ED013AB2
:10195000D0ED004A11ED015AD1ED005A70EEC57A72
:1019600031EEE32A70EE642A31EE656A31EEA33A75
:1019700030EE244A70EE853A71EE254A72EEA71ACF
:1019800032EE461A33EE630A32EE062A72EEE72A88
:1019900074EE640A60EE095A20EE895A21EE8A6AD2
:1019A00061EE0A6A22EE887A62EE087A10EE295A0F
:1019B00040EEA95A11EE2A6A41EEAA6A12EE287A7E
:1019C00042EEA87A33EE233A5C4474EE243AA24500
:1019D00003ED013AC3ED003A02ED015AC2ED005A9F
:1019E0003B4400ED016AC0ED006A3A4401ED017A22
:1019F000C1ED007A38443944A0D801980699039C77
:101A0000059B049A013508308D4226449C4490443D
:101A100009F1080901907FF67EAF079C0A9FDDF867
:101A200020B0A300BF089AB2042F0A97079202D9E8
:101A30004FEACB0750E70B980C99DDF834A0203023
:101A400050ED084A91ED001AD1ED011A91ED020A0C
:101A5000D1ED030A91ED042AD1ED052AD1ED066AF4
:101A600034EEA04A31EE025A71EEE27A34EEE06AC8
:101A700031EE427A71EEA24A30EE661A70EE265AC4
:101A800034EE243A75EE253A35EE650A76EE410AD3
:101A900037EE272A76EE012A74EE641A37EE676A6B
:101AA00023EE8B1A23EE0B7A21EE8B4A60EE0B4A63
:101AB00020EE8B5A62EE0B5A62EE8B6A66EE0B7A60
:101AC00000ED087A81ED001A81ED014AC1ED024A6C
:101AD00081ED035AC1ED045AC1ED056AC1ED067AE4
:101AE00020302031BAF1010AAAD10EB0BDEC088B2A
:101AF000BDE8F00F704700BF70B58378012B82B04E
:101B000004460D460AD0084662682188A389FFF77B
:101B1000A9FBE07801280CD002B070BD06690188ED
:101B20004268838900962846FFF722FEE078012864
:101B3000F2D12188E289A368284602B0BDE870404E
:101B400000F0CABA8270264A0180B1F5807F4260F7
:101B5000C37039D008D9B1F5806F1FD0B1F5805F5F
:101B600011D0FF2040B27047102922D04029F8D16F
:101B70001C494FF040134FF07252C3608160026104
:101B8000002040B2704718494FF001134FF06652E1
:101B9000C36081600261002040B2704713494FF07A
:101BA00004134FF06A52C36081600261002040B2AA
:101BB00070470F494FF001234FF07652C3608160A8
:101BC0000261002040B270470A494FF010134FF0F5
:101BD0006E52C36081600261002040B2704700BF56
:101BE0000C9D01080A9D02088C9C0208929C020828
:101BF0008A9E0208AA9C02082DE9F00701F1FF382D
:101C000084465FEA9809FCEC017A00F03081DCED53
:101C1000006AF4EEE76AF1EE10FA9CED017AC8BFB3
:101C2000F0EE667AF4EEC77AD4BF002601269CED6A
:101C3000020AF1EE10FA48BFF0EE477AF4EEC07AED
:101C400048BF0226DCED030AF1EE10FA48BFF0EEC1
:101C5000407A09F1FF34F4EEE07A48BF03262746C4
:101C6000F1EE10FA04F0010A48BFF0EE607A48BFC6
:101C7000042600F114050824002F00F09F80BAF11B
:101C8000000F30D095ED001AB4EEE71AF1EE10FA1D
:101C9000D5ED011AC8BFF0EE417AF4EEE17A95ED88
:101CA000022AC8BF0526F1EE10FA48BFF0EE617AAD
:101CB000F4EEC27AD5ED032A48BF0626F1EE10FAFB
:101CC00048BFF0EE427AF4EEE27A48BF0726F1EE22
:101CD00010FA48BFF0EE627A48BF08260C24013F94
:101CE00000F124056AD095ED003AB4EEE73AF1EE42
:101CF00010FAD5ED013AC8BFF0EE437AA4F1030023
:101D0000F4EEE37AC8BF064695ED024AF1EE10FA0A
:101D100048BFF0EE637AA4F10200F4EEC47AD5ED88
:101D2000034A48BF0646F1EE10FA48BFF0EE447A87
:101D300004F1FF30F4EEE47A95ED045A48BF06460C
:101D4000F1EE10FA48BFF0EE647AB4EEE75A48BFFD
:101D50002646D5ED055AF1EE10FAC8BFF0EE457AE9
:101D600004F10100F4EEE57AC8BF064695ED066A77
:101D7000F1EE10FA48BFF0EE657A04F10200F4EEDD
:101D8000C67A48BF0646D5ED076AF1EE10FA48BF9D
:101D9000F0EE467A04F10300F4EEE67A04F104046E
:101DA00048BF0646F1EE10FA48BFF0EE667A48BF2B
:101DB00026460434023F05F1200594D10CEB091CA2
:101DC00018F0030550D06046B0EC017AB4EEE77A23
:101DD000F1EE10FAC5EB0101C8BFF0EE477ACCBFB7
:101DE0000F463746012405F1FF3CAC420CEA040CD7
:101DF000B0EE670A3E46F0EE670A2FD0BCF1000F46
:101E00000FD0B0EC010AB4EEE70AF1EE10FAD8BF39
:101E1000B0EE670AF0EE400A1CDC0134AC423E46EC
:101E20001CD0B0EC011AB4EEE01AF1EE10FAF0ECAE
:101E3000011AC8BFF0EE410AF4EEE01AC8BF0E194D
:101E4000F1EE10FAC8BFF0EE610A04F10104B0EE41
:101E5000600A00DD0E190134AC42E2D182ED000AC5
:101E60001E60BDE8F0077047B0EE670AF6E74E4621
:101E7000A6E700BF2DE9F0475FEA920982B08046ED
:101E80006FD04FF0000A01F1100701F10C054E462A
:101E90000446D4ED017A94ED007A27EEA70A07EE06
:101EA000070AB5EEC00AF1EE10FA40F3BD80F1EE7C
:101EB000C00AF4EE600AF1EE10FA40F0D58047ED6A
:101EC000040A94ED031AD4ED021A21EE012A01EE60
:101ED000A12AB5EEC02AF1EE10FA40F3AE80F1EE81
:101EE000C22AF4EE622AF1EE10FA40F0B28045ED1B
:101EF000022A94ED053AD4ED043A23EE034A03EEA8
:101F0000A34AB5EEC04AF1EE10FA40F39380F1EE29
:101F1000C44AF4EE644AF1EE10FA40F0BB8045ED9D
:101F2000014A94ED075AD4ED065A25EE056A05EEEE
:101F3000A56A2034B5EEC06AF1EE10FA77DDF1EE55
:101F4000C66AF4EE666AF1EE10FA40F09880C5EDCC
:101F5000006A10371035013E9BD108EB491801EBA0
:101F6000091112F003065CD0D8ED017A98ED007AE1
:101F700027EEA70A07EE070A731EB5EEC00A002770
:101F80000D1DF1EE10FA03F0010208F108045DDD09
:101F9000F1EEC00AF4EE600AF1EE10FA40F0938020
:101FA00045ED010A013E3CD042B194ED011AD4ED59
:101FB000001A21EE012A01EEA12A20E094ED013A57
:101FC000D4ED003A23EE034A03EEA34A0834B5EEFB
:101FD000C04A0435F1EE10FA35DDF1EEC44AF4EEF4
:101FE000644AF1EE10FA60D145ED014A94ED015AD0
:101FF000D4ED005A25EE052A05EEA52A013EB5EEE0
:10200000C02A08340435F1EE10FA19DDF1EEC22AC7
:10201000F4EE622AF1EE10FA4ED145ED012A013EAE
:10202000CCD102B0BDE8F08747F810AC49E7C5F85D
:1020300000A08EE745F804AC73E745F808AC58E714
:1020400045F8047CEBE745F8047CCFE745F8047CD1
:10205000A8E712EE100A0191009200F02DFA009A02
:10206000019902EE900A42E710EE100A01910092E7
:1020700000F022FA009A019900EE900A1FE716EE8E
:10208000100A0191009200F017FA009A019906EEE9
:10209000900A5CE714EE100A0191009200F00CFA2D
:1020A000009A019904EE900A39E714EE100A00F044
:1020B00003FA04EE900A97E712EE100A00F0FCF91A
:1020C00002EE900AA9E710EE100A019200F0F4F96E
:1020D000019A00EE900A63E72DE9F00F86B04908F7
:1020E0000391039C0021A51E520004F101090592F1
:1020F00004950A460C46DDF80CC0661C02EB0C0485
:10210000E200F700C61985183468D5F8008004325B
:10211000C6F800802C60841804370231C519226883
:1021200089B2CE00D5ED007A371D2A6000EB060C8F
:102130001A8801EB0906F60000EB060A4FEAC20B0B
:102140000BF10408CDF804A000EB0B0ADDF814B085
:10215000043609EB02055B44DDF810B0ED0086198A
:102160000296461904355945C4ED007A0744804467
:1021700005440C4623D88A42BDD99CED000A9AED4D
:10218000007A8CED007A8AED000AD7F800C0D8F802
:1021900000A0C7F800A0C8F800C0DDF80480D6F899
:1021A00000B0D8F80070DDF808C0C8F800B037609B
:1021B000DCF800602F68CCF800702E609BE706B05A
:1021C000BDE8F00F704700BF2DE9F00F8AB0490855
:1021D00006910493069B8C1E5E1C09940896099E2A
:1021E0005200CD004FF0000C0792B207034600EBFF
:1021F0000504614600F19680CDF814C051E0A94273
:102200001AD950F83150D3F810901D6140F8319030
:10221000596950F80A505D6140F80A10A36950F8F6
:102220003C10DDF80CA0A16140F83C30E56950F8A5
:102230000A30E36140F80A5050F837109468916012
:1022400040F83740BBF8001050F80850D768DDF868
:1022500020C0D560CB001D1D40F8087001EB0C03B9
:10226000DDF81480DC000434414516D950F8317093
:10227000D2F810B0176140F831B04759D2F8149035
:10228000576140F8059050F83370B569B76140F870
:102290003350F7690359F361075102F1100306F156
:1022A0001004DDF818809F68DDF820904144CE00CE
:1022B00050F831509D6040F83170049FD968043661
:1022C00002913988855901EB090CDD604FEACC0594
:1022D00005F10409059DCDF80C90023501950235F4
:1022E0000595029DDDF81C90855101EB0807049EC1
:1022F000019D4FEAC70B0BF1040806EB090B099E81
:102300004FEAC10AB542D94403F110020AF1040AA6
:1023100004F11006CDF810907FF671AF0AB0BDE859
:10232000F00F704721688368816004354519236088
:102330002B68DDF810B0C268BBF80010C3602A60DB
:10234000079DAB44099DCDF810B04FF0020CAC4591
:10235000E4D8614519D9CF00C51906692B683A1D23
:10236000089F036182182E60CB1945691768DE004B
:102370008319476115601A68A569A261371DC619DE
:102380001D60E2693368E361326000F110031034CC
:10239000CDF814C085E700BF2DE9F00F490884B0DF
:1023A0008C1E52000027039401F1010CA407019236
:1023B000CDF808C0024600EB8106B84656D400911D
:1023C000894631E064450CD9D2F808C050F8241091
:1023D000916040F824C0F26850F82A40F46040F858
:1023E0002A20B8F8008050F829606968DDF808A054
:1023F0006E60B84508EB0A0240F829100DD9AE68A6
:1024000050F82840AC6040F82860DBF80C1050F819
:102410002260CBF80C6040F822100099DDF80090A3
:1024200005F108020BF1080688441C8850F82810B2
:10243000D2F804B05160029940F828B004EB010AC8
:10244000019903EB0108039B019907F1020C9C45DC
:1024500002F10805A1440CF1020706F1080B08EB94
:102460000103AFD904B0BDE8F00F70474468376886
:10247000B3F8008047603460039C019A0227A742AA
:102480001344EFD8B84511D900EB8805DDF808A052
:102490002A68D0F80890826008EB0A0400EB8404F4
:1024A000C5F80090F5682268F260256000F1080226
:1024B000083600918946B7E770B5244C8AB00546C6
:1024C00000F048F894F900300133064608D0284659
:1024D00000F0ACF820B12846002100F099FF10B9B7
:1024E00030460AB070BD1A4A0121284600260091E4
:1024F0000192089600F02AFA2478CDE90401CDE98A
:1025000002017CB900220023CDE90623684600F0D1
:102510008BF888B10898A0B9DDE9060100F07CFCD1
:102520000646DDE70020002102460B4600F08CFB4A
:10253000022CCDE90601E9D100F092FF21230360CE
:10254000E8E700F08DFF08990160E5E730340020EE
:102550008CA4020820F00042B2F1FF4FF8B5044607
:10256000034646D2002A42D0002852DBC415B2F5F9
:10257000000F09D210F4000553D15B000135190298
:10258000FBD5C5F10100241823F07F417F3C21F4E5
:102590000006E20746F4000048BF400043004FF049
:1025A0008072002760109A423C462CDD5B004FF49D
:1025B00000021825A61851089E4205F1FF3502DCDD
:1025C000B4189B1BBF185B0062189A4202DC9B1A6E
:1025D00054187F185B004A08013DEBD113B107F096
:1025E00001017F187C1004F17C5303EBC05420469A
:1025F000F8BD014600F06EFD0146204600F062FC89
:1026000004462046F8BD4FF0007403F17F4317469F
:10261000CCE7014600F054FC014600F00FFE0446F2
:10262000E5E70120AFE700BF0020704708B90220AE
:102630007047B0F1004FFAD0A0F500026FF00143EF
:102640009A4201D80420704700F1FF419942F9D91C
:102650004FF6FE73421EC0F27F039A4201D8032058
:10266000704700F100414A1E9A42F8D9B0F1FF4F7D
:1026700005D010F5000F14BF002001207047012085
:10268000704700BF81F0004102E000BF83F00043CB
:1026900030B54FEA41044FEA430594EA050F08BFFD
:1026A00090EA020F1FBF54EA000C55EA020C7FEAC1
:1026B000645C7FEA655C00F0E2804FEA5454D4EB3E
:1026C0005555B8BF6D420CDD2C4480EA020281EA08
:1026D000030382EA000083EA010180EA020281EA40
:1026E0000303362D88BF30BD11F0004F4FEA013192
:1026F0004FF4801C4CEA113102D0404261EB4101A1
:1027000013F0004F4FEA03334CEA133302D0524226
:1027100063EB430394EA050F00F0A780A4F10104E2
:10272000D5F1200E0DDB02FA0EFC22FA05F280181C
:1027300041F1000103FA0EF2801843FA05F3594102
:102740000EE0A5F120050EF1200E012A03FA0EFC81
:1027500028BF4CF0020C43FA05F3C01851EBE371AB
:1027600001F0004507D54FF0000EDCF1000C7EEBC8
:1027700000006EEB0101B1F5801F1BD3B1F5001F06
:102780000CD349085FEA30004FEA3C0C04F1010425
:102790004FEA445212F5800F80F09A80BCF1004F4E
:1027A00008BF5FEA500C50F1000041EB045141EAD0
:1027B000050130BD5FEA4C0C404141EB010111F4D1
:1027C000801FA4F10104E9D191F0000F04BF01467C
:1027D0000020B1FA81F308BF2033A3F10B03B3F15A
:1027E00020020CDA0C3208DD02F1140CC2F10C02EA
:1027F00001FA0CF021FA02F10CE002F11402D8BF48
:10280000C2F1200C01FA02F120FA0CFCDCBF41EA13
:102810000C019040E41AA2BF01EB0451294330BDE2
:102820006FEA04041F3C1CDA0C340EDC04F11404BF
:10283000C4F1200220FA04F001FA02F340EA030096
:1028400021FA04F345EA030130BDC4F10C04C4F1DC
:10285000200220FA02F001FA04F340EA03002946BC
:1028600030BD21FA04F0294630BD94F0000F83F406
:10287000801306BF81F480110134013D4EE77FEAE9
:10288000645C18BF7FEA655C29D094EA050F08BF35
:1028900090EA020F05D054EA000C04BF1946104616
:1028A00030BD91EA030F1EBF0021002030BD5FEA5A
:1028B000545C05D14000494128BF41F0004130BD82
:1028C00014F580043CBF01F5801130BD01F00045D6
:1028D00045F0FE4141F470014FF0000030BD7FEA49
:1028E000645C1ABF194610467FEA655C1CBF0B4644
:1028F000024650EA013406BF52EA033591EA030F5B
:1029000041F4002130BD00BF90F0000F04BF002152
:10291000704730B54FF4806404F132044FF0000585
:102920004FF0000150E700BF90F0000F04BF0021FE
:10293000704730B54FF4806404F1320410F0004564
:1029400048BF40424FF000013EE700BF42004FEA5F
:10295000E2014FEA31014FEA02701FBF12F07F43DC
:1029600093F07F4F81F06051704792F0000F14BFD9
:1029700093F07F4F704730B54FF4607401F000451D
:1029800021F0004120E700BF50EA010208BF704774
:1029900030B54FF000050AE050EA010208BF704769
:1029A00030B511F0004502D5404261EB41014FF4D2
:1029B000806404F132045FEA915C3FF4DCAE4FF0D6
:1029C00003025FEADC0C18BF03325FEADC0C18BFBD
:1029D000033202EBDC02C2F1200300FA03FC20FA0E
:1029E00002F001FA03FE40EA0E0021FA02F114445B
:1029F000C1E600BF70B54FF0FF0C4CF4E06C1CEA70
:102A000011541DBF1CEA135594EA0C0F95EA0C0FE4
:102A100000F0DEF82C4481EA030621EA4C5123EA57
:102A20004C5350EA013518BF52EA033541F4801186
:102A300043F4801338D0A0FB02CE4FF00005E1FB39
:102A400002E506F00042E0FB03E54FF00006E1FB83
:102A500003569CF0000F18BF4EF0010EA4F1FF04C6
:102A6000B6F5007F64F5407404D25FEA4E0E6D4106
:102A700046EB060642EAC62141EA55514FEAC52017
:102A800040EA5E504FEACE2EB4F1FD0C88BFBCF593
:102A9000E06F1ED8BEF1004F08BF5FEA500E50F144
:102AA000000041EB045170BD06F0004646EA01010A
:102AB00040EA020081EA0301B4EB5C04C2BFD4EB3C
:102AC0000C0541EA045170BD41F480114FF0000E35
:102AD000013C00F3AB8014F1360FDEBF002001F0A3
:102AE000004170BDC4F10004203C35DA0C341BDC1D
:102AF00004F11404C4F1200500FA05F320FA04F0EF
:102B000001FA05F240EA020001F0004221F0004122
:102B100010EBD37021FA04F642EB06015EEA430E95
:102B200008BF20EAD37070BDC4F10C04C4F12005C5
:102B300000FA04F320FA05F001FA04F240EA020078
:102B400001F0004110EBD37041F100015EEA430E49
:102B500008BF20EAD37070BDC4F1200500FA05F269
:102B60004EEA020E20FA04F301FA05F243EA0203E8
:102B700021FA04F001F0004121FA04F220EA0200F7
:102B800000EBD3705EEA430E08BF20EAD37070BD3D
:102B900094F0000F0FD101F00046400041EB01011D
:102BA00011F4801F08BF013CF7D041EA060195F0FF
:102BB000000F18BF704703F00046520043EB0303B9
:102BC00013F4801F08BF013DF7D043EA06037047A6
:102BD00094EA0C0F0CEA135518BF95EA0C0F0CD0B1
:102BE00050EA410618BF52EA4306D1D181EA0301F7
:102BF00001F000414FF0000070BD50EA410606BFF1
:102C00001046194652EA430619D094EA0C0F02D135
:102C100050EA013613D195EA0C0F05D152EA03367A
:102C20001CBF104619460AD181EA030101F0004198
:102C300041F0FE4141F470014FF0000070BD41F0E1
:102C4000FE4141F4780170BD70B54FF0FF0C4CF4BB
:102C5000E06C1CEA11541DBF1CEA135594EA0C0FDA
:102C600095EA0C0F00F0A7F8A4EB050481EA030E27
:102C700052EA03354FEA013100F088804FEA03330E
:102C80004FF0805545EA131343EA12634FEA0222DC
:102C900045EA111545EA10654FEA00260EF000419D
:102CA0009D4208BF964244F1FD0404F5407402D2EF
:102CB0005B084FEA3202B61A65EB03055B084FEA80
:102CC00032024FF480104FF4002CB6EB020E75EB7D
:102CD000030E22BFB61A754640EA0C005B084FEAA5
:102CE0003202B6EB020E75EB030E22BFB61A754622
:102CF00040EA5C005B084FEA3202B6EB020E75EB6D
:102D0000030E22BFB61A754640EA9C005B084FEAE4
:102D10003202B6EB020E75EB030E22BFB61A7546F1
:102D200040EADC0055EA060E18D04FEA051545EAE0
:102D300016754FEA06164FEAC30343EA52734FEA89
:102D4000C2025FEA1C1CC0D111F4801F0BD141EA02
:102D500000014FF000004FF0004CB6E711F4801F67
:102D600004BF01430020B4F1FD0C88BFBCF5E06F47
:102D70003FF6AFAEB5EB030C04BFB6EB020C5FEA57
:102D8000500C50F1000041EB045170BD0EF0004EAC
:102D90004EEA113114EB5C04C2BFD4EB0C0541EADE
:102DA000045170BD41F480114FF0000E013C90E6DB
:102DB00045EA060E8DE60CEA135594EA0C0F08BF9F
:102DC00095EA0C0F3FF43BAF94EA0C0F0AD150EA9E
:102DD00001347FF434AF95EA0C0F7FF425AF104631
:102DE00019462CE795EA0C0F06D152EA03353FF459
:102DF000FDAE1046194622E750EA410618BF52EAD6
:102E000043067FF4C5AE50EA41047FF40DAF52EAA9
:102E100043057FF4EBAE12E74FEA4102B2F1E04323
:102E200024BFB3F5001CDCF1FE5C0DD901F0004CB1
:102E30004FEAC0024CEA5070B2F1004F40EB830001
:102E400008BF20F00100704711F0804F21D113F12D
:102E50003872BCBF01F00040704741F480114FEA66
:102E60005252C2F11802C2F1200C10FA0CF320FAEF
:102E700002F018BF40F001004FEAC1234FEAD3230C
:102E800003FA0CFC40EA0C0023FA02F34FEA430376
:102E9000CCE77FEA625307D150EA01331EBF4FF0FF
:102EA000FE4040F44000704701F0004040F0FE401A
:102EB00040F40000704700BF80F0004002E000BF17
:102EC00081F0004142001FBF5FEA410392EA030F15
:102ED0007FEA226C7FEA236C6AD04FEA1262D2EB5F
:102EE0001363C1BFD218414048404140B8BF5B4264
:102EF000192B88BF704710F0004F40F4000020F0FD
:102F00007F4018BF404211F0004F41F4000121F012
:102F10007F4118BF494292EA030F3FD0A2F101025C
:102F200041FA03FC10EB0C00C3F1200301FA03F19A
:102F300000F0004302D5494260EB4000B0F5000FBD
:102F400013D3B0F1807F06D340084FEA310102F17C
:102F50000102FE2A51D2B1F1004F40EBC25008BF2E
:102F600020F0010040EA03007047490040EB0000F8
:102F700010F4000FA2F10102EDD1B0FA80FCACF127
:102F8000080CB2EB0C0200FA0CF0AABF00EBC25026
:102F900052421843BCBFD0401843704792F0000F14
:102FA00081F4000106BF80F400000132013BB5E767
:102FB0004FEA41037FEA226C18BF7FEA236C21D0DD
:102FC00092EA030F04D092F0000F08BF0846704742
:102FD00090EA010F1CBF0020704712F07F4F04D110
:102FE000400028BF40F00040704712F100723CBF23
:102FF00000F50000704700F0004343F0FE4040F44D
:10300000000070477FEA226216BF08467FEA23630A
:103010000146420206BF5FEA412390EA010F40F4F5
:10302000800070474FF0000304E000BF10F0004341
:1030300048BF40425FEA000C08BF704743F0964328
:1030400001464FF000001CE050EA010208BF704743
:103050004FF000030AE000BF50EA010208BF7047CA
:1030600011F0004302D5404261EB41015FEA010CDF
:1030700002BF84460146002043F0B64308BFA3F1D7
:103080008053A3F50003BCFA8CF2083AA3EBC253B9
:1030900010DB01FA02FC634400FA02FCC2F12002D8
:1030A000BCF1004F20FA02F243EB020008BF20F00F
:1030B0000100704702F1200201FA02FCC2F1200275
:1030C00050EA4C0021FA02F243EB020008BF20EA6A
:1030D000DC7070474FF0FF0C1CEAD0521EBF1CEA98
:1030E000D15392EA0C0F93EA0C0F6FD01A4480EA86
:1030F000010C400218BF5FEA41211ED04FF000636F
:1031000043EA501043EA5111A0FB01310CF000409A
:10311000B1F5000F3EBF490041EAD3715B0040EAC0
:10312000010062F17F02FD2A1DD8B3F1004F40EB90
:10313000C25008BF20F00100704790F0000F0CF063
:10314000004C08BF49024CEA502040EA51207F3A27
:10315000C2BFD2F1FF0340EAC250704740F4000002
:103160004FF00003013A5DDC12F1190FDCBF00F0F3
:1031700000407047C2F10002410021FA02F1C2F1A1
:10318000200200FA02FC5FEA310040F1000053EA3D
:103190004C0308BF20EADC70704792F0000F00F08B
:1031A000004C02BF400010F4000F013AF9D040EA91
:1031B0000C0093F0000F01F0004C02BF490011F425
:1031C000000F013BF9D041EA0C018FE70CEAD15323
:1031D00092EA0C0F18BF93EA0C0F0AD030F0004CA3
:1031E00018BF31F0004CD8D180EA010000F0004057
:1031F000704790F0000F17BF90F0004F084691F015
:10320000000F91F0004F14D092EA0C0F01D142024E
:103210000FD193EA0C0F03D14B0218BF084608D117
:1032200080EA010000F0004040F0FE4040F4000061
:10323000704740F0FE4040F4400070474FF0FF0CF4
:103240001CEAD0521EBF1CEAD15392EA0C0F93EA3B
:103250000C0F69D0A2EB030280EA010C49024FEA8D
:10326000402037D04FF0805343EA111143EA101346
:103270000CF000408B4238BF5B0042F17D024FF4FE
:10328000000C8B4224BF5B1A40EA0C00B3EB510FD9
:1032900024BFA3EB510340EA5C00B3EB910F24BFC2
:1032A000A3EB910340EA9C00B3EBD10F24BFA3EB47
:1032B000D10340EADC001B0118BF5FEA1C1CE0D10F
:1032C000FD2A3FF650AF8B4240EBC25008BF20F0C2
:1032D000010070470CF0004C4CEA50207F32C2BF16
:1032E000D2F1FF0340EAC250704740F400004FF0B3
:1032F0000003013A37E792F0000F00F0004C02BFE4
:10330000400010F4000F013AF9D040EA0C0093F0AD
:10331000000F01F0004C02BF490011F4000F013B07
:10332000F9D041EA0C0195E70CEAD15392EA0C0F6F
:1033300008D142027FF47DAF93EA0C0F7FF470AFA7
:10334000084676E793EA0C0F04D14B023FF44CAFEA
:1033500008466EE730F0004C18BF31F0004CCAD17F
:1033600030F000427FF45CAF31F000437FF43CAFBB
:103370005FE700BF4FF0FF3C06E000BF4FF0010CDD
:1033800002E000BF4FF0010C4DF804CD4FEA4002BF
:103390004FEA41037FEA226C18BF7FEA236C11D009
:1033A00001B052EA530C18BF90EA010F58BFB2EBBC
:1033B000030088BFC81738BF6FEAE17018BF40F03C
:1033C000010070477FEA226C02D15FEA402C05D1F0
:1033D0007FEA236CE4D15FEA412CE1D05DF8040B75
:1033E000704700BF844608466146FFE70FB5FFF708
:1033F000C9FF002848BF10F1000F0FBD4DF808EDC0
:10340000FFF7F4FF0CBF012000205DF808FB00BFB0
:103410004DF808EDFFF7EAFF34BF012000205DF80A
:1034200008FB00BF4DF808EDFFF7E0FF94BF012057
:1034300000205DF808FB00BF4DF808EDFFF7D2FF54
:1034400094BF012000205DF808FB00BF4DF808ED97
:10345000FFF7C8FF34BF012000205DF808FB00BF64
:1034600043F66003C2F2000318687047F8B5204FB6
:10347000204C381B871017D07A1E2368012502F0D4
:1034800001069847AF420FD02EB154F8041F022511
:103490008847AF4208D0606880470235A268261D81
:1034A00090470834AF42F6D1134F144C00F028F97E
:1034B0003B1B9F1018D07D1E216805F001060125D9
:1034C0008847AF4211D02EB154F8040F022580472F
:1034D000AF420BD0626890470235A368261D98471B
:1034E0000834AF42F6D1F8BDF8BDF8BDF8BD00BF55
:1034F0002437000824370008243700082437000840
:1035000080B485B000AFF860B9607A604FF0FF33E7
:10351000184607F11407BD4680BC704780B485B0DB
:1035200000AFF860B9607A604FF0FF33184607F1DA
:103530001407BD4680BC704780B485B000AFF8600A
:10354000B9607A604FF00003184607F11407BD46D2
:1035500080BC704780B485B000AFF860B9607A6015
:103560004FF0FF33184607F11407BD4680BC704783
:1035700080B400AF4FF0FF331846BD4680BC7047A3
:1035800080B483B000AF786039603B68002B02D014
:103590004FF0FF3301E06FF00103184607F10C070D
:1035A000BD4680BC704700BF80B483B000AF786078
:1035B00039607A683B689A4202D14FF0FF3301E0EC
:1035C0006FF00103184607F10C07BD4680BC704739
:1035D00080B483B000AF78604FF0FF33184607F136
:1035E0000C07BD4680BC704780B487B000AF7860E0
:1035F0004CF29873C0F200037B6141F20C43C2F2BB
:1036000000031B68002B14D141F20C43C2F20003EB
:1036100043F66802C2F200021A6041F20C43C2F2A1
:1036200000031A687B69D21841F21043C2F200030A
:103630001A6041F20C43C2F200031B683B6141F285
:103640000C43C2F200031B681A467B68D31803F1CF
:10365000070323F00703FB6041F21043C2F20003AB
:103660001B68FA689A4202D34FF0000306E041F269
:103670000C43C2F20003FA681A603B69184607F16E
:103680001C07BD4680BC704780B483B000AF786033
:103690004FF0FF33184607F10C07BD4680BC70475A
:1036A00080B483B000AF78604FF0FF33184607F165
:1036B0000C07BD4680BC704780B483B000AF786013
:1036C00039604FF0FF33184607F10C07BD4680BC48
:1036D000704700BF80B400AF4FF0FF331846BD46BF
:1036E00080BC704780B400AF4FF0FF331846BD4632
:1036F00080BC704780B483B000AF7860FEE700BF45
:1037000080B400AFBD4680BC704700BF80B483B0BA
:1037100000AF78604FF0FF33184607F10C07BD4645
:0437200080BC7047B2
:10372400DCCAFF7F01000000F0CAFF7F0100000037
:10373400000000000000803FD40FC93AECFF7F3F37
:10374400C70F493BB1FF7F3FC1CB963B4EFF7F3F45
:10375400890FC93BC4FE7F3F3053FB3B13FE7F3FC1
:1037640059CB163C39FD7F3F02ED2F3C39FC7F3F9E
:10377400900E493C11FB7F3F0030623CC1F97F3F12
:103784004B517B3C4AF87F3F38398A3CACF67F3F4B
:10379400B6C9963CE6F47F3F1C5AA33CF8F27F3F3F
:1037A40069EAAF3CE3F07F3F9B7ABC3CA7EE7F3FE6
:1037B400B00AC93C43EC7F3FA69AD53CB8E97F3FA9
:1037C4007B2AE23C05E77F3F2DBAEE3C2BE47F3FAA
:1037D400B949FB3C29E17F3F90EC033D00DE7F3F8C
:1037E4002F340A3DAFDA7F3FB87B103D37D77F3F98
:1037F4002CC3163D98D37F3F880A1D3DD1CF7F3F10
:10380400CC51233DE2CB7F3FF698293DCCC77F3F87
:1038140007E02F3D8FC37F3FFC26363D2ABF7F3F05
:10382400D56D3C3D9EBA7F3F91B4423DEAB57F3FA2
:103834002FFB483D0FB17F3FAF414F3D0DAC7F3F64
:103844000E88553DE3A67F3F4CCE5B3D91A17F3F63
:103854006814623D189C7F3F625A683D78967F3FAA
:1038640038A06E3DB1907F3FE9E5743DC28A7F3F49
:10387400742B7B3DAB847F3F6CB8803D6D7E7F3F76
:103884000ADB833D08787F3F94FD863D7B717F3F53
:103894000A208A3DC76A7F3F6A428D3DEC637F3FC1
:1038A400B464903DE95C7F3FE786933DBF557F3F1D
:1038B40005A9963D6D4E7F3F0ACB993DF4467F3F67
:1038C400F9EC9C3D543F7F3FCF0EA03D8D377F3FA9
:1038D4008C30A33D9D2F7F3F3052A63D87277F3FED
:1038E400BA73A93D491F7F3F2B95AC3DE4167F3F3A
:1038F40080B6AF3D580E7F3FBBD7B23DA4057F3F96
:10390400DAF8B53DC9FC7E3FDD19B93DC7F37E3F0A
:10391400C33ABC3D9DEA7E3F8D5BBF3D4CE17E3F9B
:10392400397CC23DD4D77E3FC69CC53D34CE7E3F54
:1039340036BDC83D6DC47E3F86DDCB3D7FBA7E3F3C
:10394400B7FDCE3D69B07E3FC81DD23D2DA67E3F5A
:10395400B93DD53DC99B7E3F895DD83D3D917E3FB4
:10396400377DDB3D8B867E3FC49CDE3DB17B7E3F55
:103974002EBCE13DB0707E3F76DBE43D88657E3F42
:103984009AFAE73D385A7E3F9A19EB3DC14E7E3F85
:103994007638EE3D23437E3F2E57F13D5E377E3F22
:1039A400C075F43D722B7E3F2C94F73D5E1F7E3F25
:1039B40073B2FA3D24137E3F92D0FD3DC2067E3F92
:1039C4004577003E38FA7D3F2E06023E88ED7D3F66
:1039D4000295033EB1E07D3FC223053EB2D37D3F55
:1039E4006EB2063E8CC67D3F0541083E40B97D3F20
:1039F40086CF093ECCAB7D3FF35D0B3E309E7D3FD1
:103A04004AEC0C3E6E907D3F8B7A0E3E85827D3F64
:103A1400B708103E74747D3FCC96113E3D667D3FE1
:103A2400CA24133EDE577D3FB2B2143E59497D3F4E
:103A34008340163EAC3A7D3F3DCE173ED82B7D3FAA
:103A4400E05B193EDD1C7D3F6BE91A3EBC0D7D3FFA
:103A5400DE761C3E73FE7C3F38041E3E03EF7C3F43
:103A64007B911F3E6CDF7C3FA51E213EAECF7C3F89
:103A7400B6AB223EC9BF7C3FAD38243EBDAF7C3FD0
:103A84008CC5253E8A9F7C3F5152273E318F7C3F17
:103A9400FCDE283EB07E7C3F8D6B2A3E086E7C3F68
:103AA40004F82B3E3A5D7C3F61842D3E444C7C3FC0
:103AB400A2102F3E283B7C3FC99C303EE5297C3F29
:103AC400D428323E7A187C3FC4B4333EE9067C3FA6
:103AD4009840353E31F57B3F50CC363E53E37B3F37
:103AE400EC57383E4DD17B3F6CE3393E20BF7B3FE2
:103AF400CF6E3B3ECDAC7B3F15FA3C3E539A7B3FA9
:103B04003E853E3EB2877B3F4910403EEA747B3F90
:103B1400379B413EFC617B3F0726433EE74E7B3F9C
:103B2400B9B0443EAB3B7B3F4D3B463E48287B3FD0
:103B3400C2C5473EBE147B3F1850493E0E017B3F31
:103B44004FDA4A3E37ED7A3F67644C3E3AD97A3FC2
:103B540060EE4D3E16C57A3F38784F3ECBB07A3F83
:103B6400F101513E599C7A3F898B523EC1877A3F7D
:103B74000115543E02737A3F589E553E1C5E7A3FAF
:103B84008F27573E10497A3FA4B0583EDD337A3F21
:103B940097395A3E841E7A3F6AC25B3E04097A3FD3
:103BA4001A4B5D3E5EF3793FA8D35E3E91DD793FCB
:103BB400135C603E9DC7793F5CE4613E83B1793F0D
:103BC400836C633E439B793F86F4643EDC84793F97
:103BD400667C663E4E6E793F2204683E9A57793F72
:103BE400BA8B693EC040793F2F136B3EBF29793FA2
:103BF4007F9A6C3E9812793FAB216E3E4AFB783F28
:103C0400B2A86F3ED6E3783F942F713E3BCC783F09
:103C140051B6723E7BB4783FE83C743E939C783F47
:103C24005AC3753E8684783FA649773E526C783FE6
:103C3400CCCF783EF853783FCB557A3E773B783FEC
:103C4400A4DB7B3ED122783F56617D3E040A783F57
:103C5400E1E67E3E10F1773F2236803EF7D7773F8C
:103C6400C0F8803EB7BE773F4ABB813E51A5773F3F
:103C7400C07D823EC58B773F2240833E1372773FDF
:103C84007002843E3A58773FAAC4843E3C3E773F54
:103C9400CE86853E1724773FDF48863ECC09773FA2
:103CA400DA0A873E5BEF763FC1CC873EC4D4763FC9
:103CB400938E883E07BA763F5050893E249F763FC4
:103CC400F8118A3E1B84763F8AD38A3EEC68763F9D
:103CD40007958B3E974D763F6E568C3E1B32763F52
:103CE400C0178D3E7A16763FFCD88D3EB3FA753FE9
:103CF400229A8E3EC6DE753F325B8F3EB3C2753F5D
:103D04002C1C903E7BA6753F10DD903E1C8A753FAF
:103D1400DD9D913E976D753F945E923EED50753FEB
:103D2400351F933E1D34753FBFDF933E2717753F04
:103D340031A0943E0BFA743F8D60953EC9DC743F0C
:103D4400D220963E62BF743F00E1963ED5A1743FF7
:103D540017A1973E2284743F1661983E4966743FCA
:103D6400FE20993E4B48743FCEE0993E272A743F8B
:103D740086A09A3EDD0B743F27609B3E6EED733F39
:103D8400AF1F9C3ED9CE733F20DF9C3E1FB0733FD4
:103D9400789E9D3E3F91733FB85D9E3E3972733F5E
:103DA400DF1C9F3E0E53733FEEDB9F3EBE33733FDB
:103DB400E59AA03E4714733FC259A13EACF4723F4A
:103DC4008718A23EEBD4723F33D7A23E04B5723FAC
:103DD400C595A33EF894723F3F54A43EC774723F06
:103DE4009F12A53E7054723FE5D0A53EF433723F56
:103DF400128FA63E5213723F254DA73E8CF2713F9F
:103E04001F0BA83E9FD1713FFEC8A83E8EB0713FE4
:103E1400C486A93E578F713F6F44AA3EFB6D713F24
:103E24000102AB3E7A4C713F77BFAB3ED42A713F5F
:103E3400D47CAC3E0809713F153AAD3E17E7703F9C
:103E44003CF7AD3E02C5703F49B4AE3EC6A2703FDA
:103E54003A71AF3E6680703F102EB03EE15D703F18
:103E6400CBEAB03E373B703F6BA7B13E6718703F5B
:103E7400EF63B23E73F56F3F5820B33E5AD26F3FA3
:103E8400A5DCB33E1BAF6F3FD698B43EB88B6F3FF3
:103E9400EC54B53E30686F3FE610B63E83446F3F46
:103EA400C3CCB63EB0206F3F8488B73EBAFC6E3FA9
:103EB4002A44B83E9ED86E3FB2FFB83E5DB46E3F12
:103EC4001EBBB93EF88F6E3F6E76BA3E6D6B6E3F89
:103ED400A031BB3EBE466E3FB6ECBB3EEB216E3F0F
:103EE400AFA7BC3EF2FC6D3F8B62BD3ED5D76D3FA4
:103EF4004A1DBE3E93B26D3FEBD7BE3E2D8D6D3F46
:103F04006F92BF3EA1676D3FD54CC03EF2416D3FFD
:103F14001E07C13E1D1C6D3F48C1C13E24F66C3FC7
:103F2400557BC23E07D06C3F4435C33EC5A96C3FA8
:103F340015EFC33E5E836C3FC8A8C43ED45C6C3F9F
:103F44005C62C53E24366C3FD21BC63E500F6C3FAC
:103F540029D5C63E58E86B3F628EC73E3BC16B3FD6
:103F64007C47C83EFB996B3F7700C93E95726B3F17
:103F740053B9C93E0C4B6B3F1072CA3E5E236B3F74
:103F8400AE2ACB3E8CFB6A3F2CE3CB3E95D36A3FF3
:103F94008B9BCC3E7BAB6A3FCA53CD3E3C836A3F8E
:103FA400EA0BCE3ED95A6A3FEAC3CE3E52326A3F4A
:103FB400CA7BCF3EA7096A3F8A33D03ED7E0693F28
:103FC4002AEBD03EE4B7693FAAA2D13ECC8E693F2A
:103FD400095AD23E9165693F4811D33E323C693F4C
:103FE40067C8D33EAE12693F647FD43E07E9683F99
:103FF4004136D53E3CBF683FFDECD53E4C95683F0D
:1040040099A3D63E396B683F135AD73E0341683FA4
:104014006B10D83EA816683FA3C6D83E2AEC673F6B
:10402400B97CD93E87C1673FAD32DA3EC196673F5E
:1040340080E8DA3ED86B673F319EDB3ECA40673F7B
:10404400C153DC3E9915673F2E09DD3E45EA663FC4
:1040540079BEDD3ECCBE663FA273DE3E3093663F42
:10406400A928DF3E7167663F8DDDDF3E8E3B663FEC
:104074004F92E03E880F663FEE46E13E5EE3653FC9
:104084006AFBE13E10B7653FC4AFE23EA08A653FDC
:10409400FA63E33E0B5E653F0E18E43E5431653F20
:1040A400FECBE43E7904653FCB7FE53E7BD7643F9E
:1040B4007533E63E59AA643FFBE6E63E147D643F51
:1040C4005D9AE73EAC4F643F9C4DE83E2122643F3D
:1040D400B700E93E73F4633FAEB3E93EA1C6633F64
:1040E4008166EA3EAC98633F3019EB3E956A633FC4
:1040F400BBCBEB3E5A3C633F217EEC3EFC0D633F61
:104104006330ED3E7BDF623F80E2ED3ED7B0623F3D
:104114007994EE3E1082623F4C46EF3E2653623F56
:10412400FBF7EF3E1A24623F85A9F03EEAF4613FB3
:10413400EA5AF13E98C5613F290CF23E2296613F4E
:1041440043BDF23E8A66613F386EF33ED036613F2E
:10415400071FF43EF206613FB1CFF43EF2D6603F52
:104164003580F53ECFA6603F9330F63E8976603FBA
:10417400CBE0F63E2146603FDC90F73E9615603F6B
:10418400C840F83EE9E45F3F8EF0F83E19B45F3F63
:104194002DA0F93E27835F3FA54FFA3E12525F3FA1
:1041A400F7FEFA3EDB205F3F22AEFB3E81EF5E3F2F
:1041B400275DFC3E05BE5E3F040CFD3E678C5E3F02
:1041C400BBBAFD3EA65A5E3F4A69FE3EC3285E3F27
:1041D400B217FF3EBEF65D3FF3C5FF3E97C45D3F99
:1041E400063A003F4D925D3FFF90003FE15F5D3F27
:1041F400E4E7003F532D5D3FB53E013FA3FA5C3F2A
:104204007395013FD1C75C3F1CEC013FDD945C3FDB
:10421400B142023FC7615C3F3299023F8E2E5C3F40
:104224009FEF023F34FB5B3FF845033FB8C75B3F5A
:104234003D9C033F1A945B3F6DF2033F5A605B3F22
:104244008948043F792C5B3F919E043F75F85A3F9F
:1042540084F4043F50C45A3F624A053F09905A3FD0
:104264002CA0053FA05B5A3FE2F5053F16275A3FB5
:10427400824B063F6AF2593F0EA1063F9CBD593F4F
:1042840086F6063FAD88593FE84B073F9C53593F9C
:1042940036A1073F6A1E593F6FF6073F17E9583F9B
:1042A400924B083FA1B3583FA1A0083F0B7E583F53
:1042B4009BF5083F5348583F7F4A093F7912583FBE
:1042C4004E9F093F7FDC573F09F4093F63A6573FE0
:1042D400AD480A3F2670573F3D9D0A3FC739573FB7
:1042E400B7F10A3F4803573F1C460B3FA7CC563F44
:1042F4006B9A0B3FE595563FA5EE0B3F025F563F89
:10430400C9420C3FFE27563FD7960C3FD9F0553F84
:10431400D0EA0C3F93B9553FB33E0D3F2C82553F35
:1043240081920D3FA44A553F38E60D3FFB12553F9D
:10433400DA390E3F31DB543F658D0E3F47A3543FBE
:10434400DBE00E3F3B6B543F3B340F3F0F33543F96
:1043540084870F3FC3FA533FB8DA0F3F55C2533F28
:10436400D52D103FC789533FDC80103F1851533F70
:10437400CDD3103F4918533FA726113F59DF523F71
:104384006B79113F49A6523F19CC113F186D523F2A
:10439400B01E123FC633523F3071123F54FA513FA0
:1043A4009AC3123FC2C0513FEE15133F1087513FCD
:1043B4002A68133F3D4D513F50BA133F4A13513FB2
:1043C4005F0C143F37D9503F585E143F039F503F52
:1043D40039B0143FAF64503F0402153F3B2A503FAD
:1043E400B753153FA8EF4F3F54A5153FF4B44F3FC3
:1043F400D9F6153F1F7A4F3F4748163F2B3F4F3F93
:104404009F99163F17044F3FDFEA163FE4C84E3F1B
:10441400073C173F908D4E3F188D173F1C524E3F5F
:1044240012DE173F89164E3FF52E183FD5DA4D3F61
:10443400C07F183F029F4D3F73D0183F10634D3F1C
:104444000F21193FFD264D3F9471193FCBEA4C3F94
:1044540000C2193F79AE4C3F55121A3F08724C3FC7
:1044640093621A3F78354C3FB8B21A3FC7F84B3FB6
:10447400C6021B3FF8BB4B3FBB521B3F097F4B3F60
:1044840099A21B3FFA414B3F5FF21B3FCC044B3FC9
:104494000C421C3F7FC74A3FA2911C3F138A4A3FEC
:1044A4001FE11C3F874C4A3F84301D3FDC0E4A3FCE
:1044B400D17F1D3F12D1493F06CF1D3F2993493F6C
:1044C400221E1E3F2155493F266D1E3FFA16493FC5
:1044D40012BC1E3FB3D8483FE50A1F3F4E9A483FDF
:1044E4009F591F3FCA5B483F41A81F3F271D483FB4
:1044F400CBF61F3F65DE473F3B45203F849F473F48
:104504009393203F8560473FD2E1203F6721473F97
:10451400F92F213F2AE2463F067E213FCEA2463FA5
:10452400FBCB213F5463463FD719223FBB23463F71
:104534009967223F03E4453F43B5223F2DA4453FFD
:10454400D302233F3964453F4B50233F2624453F44
:10455400A99D233FF5E3443FEEEA233FA5A3443F4F
:104564001A38243F3763443F2C85243FAB22443F11
:1045740025D2243F00E2433F041F253F38A1433F97
:10458400CB6B253F5160433F77B8253F4C1F433FDA
:104594000A05263F29DE423F8451263FE89C423FDC
:1045A400E39D263F895B423F2AEA263F0B1A423F9E
:1045B4005636273F70D8413F6882273FB796413F20
:1045C40061CE273FE154413F401A283FEC12413F5E
:1045D4000566283FDAD0403FB0B1283FA98E403F5E
:1045E40041FD283F5C4C403FB848293FF009403F1B
:1045F4001594293F67C73F3F57DF293FC0843F3F9A
:10460400802A2A3FFC413F3F8E752A3F1BFF3E3FD5
:1046140082C02A3F1BBC3E3F5B0B2B3FFF783E3FD3
:104624001B562B3FC5353E3FBFA02B3F6EF23D3F8F
:104634004AEB2B3FF9AE3D3FB9352C3F676B3D3F0D
:104644000F802C3FB8273D3F49CA2C3FECE33C3F49
:1046540069142D3F03A03C3F6F5E2D3FFC5B3C3F44
:1046640059A82D3FD9173C3F29F22D3F98D33B3F02
:10467400DE3B2E3F3B8F3B3F78852E3FC14A3B3F7D
:10468400F7CE2E3F29063B3F5B182F3F75C13A3FBB
:10469400A5612F3FA47C3A3FD3AA2F3FB7373A3FB7
:1046A400E6F32F3FACF2393FDE3C303F85AD393F76
:1046B400BB85303F4268393F7CCE303FE122393FF1
:1046C4002217313F65DD383FAD5F313FCB97383F2F
:1046D4001DA8313F1652383F71F0313F430C383F2B
:1046E400AA38323F55C6373FC780323F4A80373FEA
:1046F400C9C8323F233A373FAF10333FDFF3363F69
:104704007A58333F7FAD363F29A0333F0467363FA5
:10471400BCE7333F6C20363F342F343FB8D9353FA4
:104724008F76343FE792353FCFBD343FFB4B353F67
:10473400F304353FF304353FFB4B353FCFBD343FE6
:10474400E792353F8F76343FB8D9353F342F343F25
:104754006C20363FBCE7333F0467363F29A0333F24
:104764007FAD363F7A58333FDFF3363FAF10333FE8
:10477400233A373FC9C8323F4A80373FC780323F68
:1047840055C6373FAA38323F430C383F71F0313FAA
:104794001652383F1DA8313FCB97383FAD5F313FAC
:1047A40065DD383F2217313FE122393F7CCE303F6F
:1047B4004268393FBB85303F85AD393FDE3C303FF1
:1047C400ACF2393FE6F32F3FB7373A3FD3AA2F3F36
:1047D400A47C3A3FA5612F3F75C13A3F5B182F3F38
:1047E40029063B3FF7CE2E3FC14A3B3F78852E3FFB
:1047F4003B8F3B3FDE3B2E3F98D33B3F29F22D3F7F
:10480400D9173C3F59A82D3FFC5B3C3F6F5E2D3FC1
:1048140003A03C3F69142D3FECE33C3F49CA2C3FC5
:10482400B8273D3F0F802C3F676B3D3FB9352C3F88
:10483400F9AE3D3F4AEB2B3F6EF23D3FBFA02B3F0D
:10484400C5353E3F1B562B3FFF783E3F5B0B2B3F4E
:104854001BBC3E3F82C02A3F1BFF3E3F8E752A3F52
:10486400FC413F3F802A2A3FC0843F3F57DF293F16
:1048740067C73F3F1594293FF009403FB848293F97
:104884005C4C403F41FD283FA98E403FB0B1283FDA
:10489400DAD0403F0566283FEC12413F401A283FDA
:1048A400E154413F61CE273FB796413F6882273F9D
:1048B40070D8413F5636273F0B1A423F2AEA263F1B
:1048C400895B423FE39D263FE89C423F8451263F5B
:1048D40029DE423F0A05263F4C1F433F77B8253F58
:1048E4005160433FCB6B253F38A1433F041F253F15
:1048F40000E2433F25D2243FAB22443F2C85243F92
:104904003763443F1A38243FA5A3443FEEEA233FCC
:10491400F5E3443FA99D233F2624453F4B50233FC5
:104924003964453FD302233F2DA4453F43B5223F7D
:1049340003E4453F9967223FBB23463FD719223FF3
:104944005463463FFBCB213FCEA2463F067E213F28
:104954002AE2463FF92F213F6721473FD2E1203F1A
:104964008560473F9393203F849F473F3B45203FCB
:1049740065DE473FCBF61F3F271D483F41A81F3F39
:10498400CA5B483F9F591F3F4E9A483FE50A1F3F65
:10499400B3D8483F12BC1E3FFA16493F266D1E3F4E
:1049A4002155493F221E1E3F2993493F06CF1D3FF3
:1049B40012D1493FD17F1D3FDC0E4A3F84301D3F59
:1049C400874C4A3F1FE11C3F138A4A3FA2911C3F78
:1049D4007FC74A3F0C421C3FCC044B3F5FF21B3F56
:1049E400FA414B3F99A21B3F097F4B3FBB521B3FF0
:1049F400F8BB4B3FC6021B3FC7F84B3FB8B21A3F48
:104A040078354C3F93621A3F08724C3F55121A3F57
:104A140079AE4C3F00C2193FCBEA4C3F9471193F29
:104A2400FD264D3F0F21193F10634D3F73D0183FB2
:104A3400029F4D3FC07F183FD5DA4D3FF52E183FFA
:104A440089164E3F12DE173F1C524E3F188D173FFA
:104A5400908D4E3F073C173FE4C84E3FDFEA163FB8
:104A640017044F3F9F99163F2B3F4F3F4748163F30
:104A74001F7A4F3FD9F6153FF4B44F3F54A5153F65
:104A8400A8EF4F3FB753153F3B2A503F0402153F51
:104A9400AF64503F39B0143F039F503F585E143FFA
:104AA40037D9503F5F0C143F4A13513F50BA133F5C
:104AB4003D4D513F2A68133F1087513FEE15133F78
:104AC400C2C0513F9AC3123F54FA513F3071123F52
:104AD400C633523FB01E123F186D523F19CC113FDE
:104AE40049A6523F6B79113F59DF523FA726113F28
:104AF4004918533FCDD3103F1851533FDC80103F2A
:104B0400C789533FD52D103F55C2533FB8DA0F3FE5
:104B1400C3FA533F84870F3F0F33543F3B340F3F57
:104B24003B6B543FDBE00E3F47A3543F658D0E3F84
:104B340031DB543FDA390E3FFB12553F38E60D3F67
:104B4400A44A553F81920D3F2C82553FB33E0D3F01
:104B540093B9553FD0EA0C3FD9F0553FD7960C3F57
:104B6400FE27563FC9420C3F025F563FA5EE0B3F5E
:104B7400E595563F6B9A0B3FA7CC563F1C460B3F1F
:104B84004803573FB7F10A3FC739573F3D9D0A3F96
:104B94002670573FAD480A3F63A6573F09F4093FC3
:104BA4007FDC573F4E9F093F7912583F7F4A093FA8
:104BB4005348583F9BF5083F0B7E583FA1A0083F40
:104BC400A1B3583F924B083F17E9583F6FF6073F90
:104BD4006A1E593F36A1073F9C53593FE84B073F94
:104BE400AD88593F86F6063F9CBD593F0EA1063F4E
:104BF4006AF2593F824B063F16275A3FE2F5053FBA
:104C0400A05B5A3F2CA0053F09905A3F624A053FDA
:104C140050C45A3F84F4043F75F85A3F919E043FB0
:104C2400792C5B3F8948043F5A605B3F6DF2033F38
:104C34001A945B3F3D9C033FB8C75B3FF845033F75
:104C440034FB5B3F9FEF023F8E2E5C3F3299023F65
:104C5400C7615C3FB142023FDD945C3F1CEC013F05
:104C6400D1C75C3F7395013FA3FA5C3FB53E013F5A
:104C7400532D5D3FE4E7003FE15F5D3FFF90003F60
:104C84004D925D3F063A003F97C45D3FF3C5FF3E3A
:104C9400BEF65D3FB217FF3EC3285E3F4A69FE3E43
:104CA400A65A5E3FBBBAFD3E678C5E3F040CFD3ED8
:104CB40005BE5E3F275DFC3E81EF5E3F22AEFB3EBC
:104CC400DB205F3FF7FEFA3E12525F3FA54FFA3EEC
:104CD40027835F3F2DA0F93E19B45F3F8EF0F83E65
:104CE400E9E45F3FC840F83E9615603FDC90F73E2C
:104CF4002146603FCBE0F63E8976603F9330F63E36
:104D0400CFA6603F3580F53EF2D6603FB1CFF43E8A
:104D1400F206613F071FF43ED036613F386EF33E22
:104D24008A66613F43BDF23E2296613F290CF23E02
:104D340098C5613FEA5AF13EEAF4613F85A9F03E25
:104D44001A24623FFBF7EF3E2653623F4C46EF3E88
:104D54001082623F7994EE3ED7B0623F80E2ED3E2E
:104D64007BDF623F6330ED3EFC0D633F217EEC3E12
:104D74005A3C633FBBCBEB3E956A633F3019EB3E35
:104D8400AC98633F8166EA3EA1C6633FAEB3E93E99
:104D940073F4633FB700E93E2122643F9C4DE83E33
:104DA400AC4F643F5D9AE73E147D643FFBE6E63E0C
:104DB40059AA643F7533E63E7BD7643FCB7FE53E1B
:104DC4007904653FFECBE43E5431653F0E18E43E62
:104DD4000B5E653FFA63E33EA08A653FC4AFE23EE3
:104DE40010B7653F6AFBE13E5EE3653FEE46E13E98
:104DF400880F663F4F92E03E8E3B663F8DDDDF3E7F
:104E04007167663FA928DF3E3093663FA273DE3E9A
:104E1400CCBE663F79BEDD3E45EA663F2E09DD3EE7
:104E24009915673FC153DC3ECA40673F319EDB3E64
:104E3400D86B673F80E8DA3EC196673FAD32DA3E11
:104E440087C1673FB97CD93E2AEC673FA3C6D83EE9
:104E5400A816683F6B10D83E0341683F135AD73EEB
:104E6400396B683F99A3D63E4C95683FFDECD53E1F
:104E74003CBF683F4136D53E07E9683F647FD43E76
:104E8400AE12693F67C8D33E323C693F4811D33EF6
:104E94009165693F095AD23ECC8E693FAAA2D13EA0
:104EA400E4B7693F2AEBD03ED7E0693F8A33D03E6E
:104EB400A7096A3FCA7BCF3E52326A3FEAC3CE3E5D
:104EC400D95A6A3FEA0BCE3E3C836A3FCA53CD3E71
:104ED4007BAB6A3F8B9BCC3E95D36A3F2CE3CB3EA6
:104EE4008CFB6A3FAE2ACB3E5E236B3F1072CA3EF8
:104EF4000C4B6B3F53B9C93E95726B3F7700C93E6B
:104F0400FB996B3F7C47C83E3BC16B3F628EC73EFB
:104F140058E86B3F29D5C63E500F6C3FD21BC63EA6
:104F240024366C3F5C62C53ED45C6C3FC8A8C43E6A
:104F34005E836C3F15EFC33EC5A96C3F4435C33E49
:104F440007D06C3F557BC23E24F66C3F48C1C13E3E
:104F54001D1C6D3F1E07C13EF2416D3FD54CC03E46
:104F6400A1676D3F6F92BF3E2D8D6D3FEBD7BE3E67
:104F740093B26D3F4A1DBE3ED5D76D3F8B62BD3E99
:104F8400F2FC6D3FAFA7BC3EEB216E3FB6ECBB3EDF
:104F9400BE466E3FA031BB3E6D6B6E3F6E76BA3E31
:104FA400F88F6E3F1EBBB93E5DB46E3FB2FFB83E94
:104FB4009ED86E3F2A44B83EBAFC6E3F8488B73E02
:104FC400B0206F3FC3CCB63E83446F3FE610B63E7D
:104FD40030686F3FEC54B53EB88B6F3FD698B43E03
:104FE4001BAF6F3FA5DCB33E5AD26F3F5820B33E90
:104FF40073F56F3FEF63B23E6718703F6BA7B13E26
:10500400373B703FCBEAB03EE15D703F102EB03EBF
:105014006680703F3A71AF3EC6A2703F49B4AE3E5F
:1050240002C5703F3CF7AD3E17E7703F153AAD3E01
:105034000809713FD47CAC3ED42A713F77BFAB3EA4
:105044007A4C713F0102AB3EFB6D713F6F44AA3E47
:10505400578F713FC486A93E8EB0713FFEC8A83EEB
:105064009FD1713F1F0BA83E8CF2713F254DA73E87
:105074005213723F128FA63EF433723FE5D0A53E21
:105084007054723F9F12A53EC774723F3F54A43EB2
:10509400F894723FC595A33E04B5723F33D7A23E40
:1050A400EBD4723F8718A23EACF4723FC259A13EC2
:1050B4004714733FE59AA03EBE33733FEEDB9F3E39
:1050C4000E53733FDF1C9F3E3972733FB85D9E3EA3
:1050D4003F91733F789E9D3E1FB0733F20DF9C3EFF
:1050E400D9CE733FAF1F9C3E6EED733F27609B3E4E
:1050F400DD0B743F86A09A3E272A743FCEE0993E8A
:105104004B48743FFE20993E4966743F1661983EB1
:105114002284743F17A1973ED5A1743F00E1963EC7
:1051240062BF743FD220963EC9DC743F8D60953EC9
:105134000BFA743F31A0943E2717753FBFDF933EAF
:105144001D34753F351F933EED50753F945E923E7E
:10515400976D753FDD9D913E1C8A753F10DD903E35
:105164007BA6753F2C1C903EB3C2753F325B8F3ECD
:10517400C6DE753F229A8E3EB3FA753FFCD88D3E4B
:105184007A16763FC0178D3E1B32763F6E568C3EA4
:10519400974D763F07958B3EEC68763F8AD38A3EDF
:1051A4001B84763FF8118A3E249F763F5050893EF7
:1051B40007BA763F938E883EC4D4763FC1CC873EEF
:1051C4005BEF763FDA0A873ECC09773FDF48863EBD
:1051D4001724773FCE86853E3C3E773FAAC4843E63
:1051E4003A58773F7002843E1372773F2240833EE1
:1051F400C58B773FC07D823E51A5773F4ABB813E38
:10520400B7BE773FC0F8803EF7D7773F2236803E5F
:1052140010F1773FE1E67E3E040A783F56617D3E19
:10522400D122783FA4DB7B3E773B783FCB557A3E57
:10523400F853783FCCCF783E526C783FA649773EFE
:105244008684783F5AC3753E939C783FE83C743E0D
:105254007BB4783F51B6723E3BCC783F942F713E7D
:10526400D6E3783FB2A86F3E4AFB783FAB216E3E4F
:105274009812793F7F9A6C3EBF29793F2F136B3E7A
:10528400C040793FBA8B693E9A57793F2204683E01
:105294004E6E793F667C663EDC84793F86F4643EDC
:1052A400439B793F836C633E83B1793F5CE4613E09
:1052B4009DC7793F135C603E91DD793FA8D35E3E84
:1052C4005EF3793F1A4B5D3E04097A3F6AC25B3E46
:1052D400841E7A3F97395A3EDD337A3FA4B0583E54
:1052E40010497A3F8F27573E1C5E7A3F589E553EA1
:1052F40002737A3F0115543EC1877A3F898B523E2F
:10530400599C7A3FF101513ECBB07A3F38784F3EF9
:1053140016C57A3F60EE4D3E3AD97A3F67644C3EFB
:1053240037ED7A3F4FDA4A3E0E017B3F1850493E33
:10533400BE147B3FC2C5473E48287B3F4D3B463E9B
:10534400AB3B7B3FB9B0443EE74E7B3F0726433E31
:10535400FC617B3F379B413EEA747B3F4910403EF2
:10536400B2877B3F3E853E3E539A7B3F15FA3C3ED7
:10537400CDAC7B3FCF6E3B3E20BF7B3F6CE3393EE1
:105384004DD17B3FEC57383E53E37B3F50CC363E08
:1053940031F57B3F9840353EE9067C3FC4B4333E4B
:1053A4007A187C3FD428323EE5297C3FC99C303EA4
:1053B400283B7C3FA2102F3E444C7C3F61842D3E11
:1053C4003A5D7C3F04F82B3E086E7C3F8D6B2A3E91
:1053D400B07E7C3FFCDE283E318F7C3F5152273E1D
:1053E4008A9F7C3F8CC5253EBDAF7C3FAD38243EB3
:1053F400C9BF7C3FB6AB223EAECF7C3FA51E213E4B
:105404006CDF7C3F7B911F3E03EF7C3F38041E3EE4
:1054140073FE7C3FDE761C3EBC0D7D3F6BE91A3E7D
:10542400DD1C7D3FE05B193ED82B7D3F3DCE173E12
:10543400AC3A7D3F8340163E59497D3FB2B2143E9B
:10544400DE577D3FCA24133E3D667D3FCC96113E18
:1054540074747D3FB708103E85827D3F8B7A0E3E83
:105464006E907D3F4AEC0C3E309E7D3FF35D0B3EDB
:10547400CCAB7D3F86CF093E40B97D3F0541083E18
:105484008CC67D3F6EB2063EB2D37D3FC223053E3D
:10549400B1E07D3F0295033E88ED7D3F2E06023E3E
:1054A40038FA7D3F4577003EC2067E3F92D0FD3DEF
:1054B40024137E3F73B2FA3D5E1F7E3F2C94F73D6A
:1054C400722B7E3FC075F43D5E377E3F2E57F13D13
:1054D40023437E3F7638EE3DC14E7E3F9A19EB3D25
:1054E400385A7E3F9AFAE73D88657E3F76DBE43D95
:1054F400B0707E3F2EBCE13DB17B7E3FC49CDE3D5F
:105504008B867E3F377DDB3D3D917E3F895DD83D77
:10551400C99B7E3FB93DD53D2DA67E3FC81DD23DDA
:1055240069B07E3FB7FDCE3D7FBA7E3F86DDCB3D81
:105534006DC47E3F36BDC83D34CE7E3FC69CC53D5E
:10554400D4D77E3F397CC23D4CE17E3F8D5BBF3D6D
:105554009DEA7E3FC33ABC3DC7F37E3FDD19B93DAA
:10556400C9FC7E3FDAF8B53DA4057F3FBBD7B23D09
:10557400580E7F3F80B6AF3DE4167F3F2B95AC3D80
:10558400491F7F3FBA73A93D87277F3F3052A63D0D
:105594009D2F7F3F8C30A33D8D377F3FCF0EA03DA5
:1055A400543F7F3FF9EC9C3DF4467F3F0ACB993D45
:1055B4006D4E7F3F05A9963DBF557F3FE786933DDE
:1055C400E95C7F3FB464903DEC637F3F6A428D3D6C
:1055D400C76A7F3F0A208A3D7B717F3F94FD863DE9
:1055E40008787F3F0ADB833D6D7E7F3F6CB8803D4A
:1055F400AB847F3F742B7B3DC28A7F3FE9E5743DDA
:10560400B1907F3F38A06E3D78967F3F625A683DE7
:10561400189C7F3F6814623D91A17F3F4CCE5B3D57
:10562400E3A67F3F0E88553D0DAC7F3FAF414F3D14
:105634000FB17F3F2FFB483DEAB57F3F91B4423D18
:105644009EBA7F3FD56D3C3D2ABF7F3FFC26363D49
:105654008FC37F3F07E02F3DCCC77F3FF698293D9E
:10566400E2CB7F3FCC51233DD1CF7F3F880A1D3D04
:1056740098D37F3F2CC3163D37D77F3FB87B103D6F
:10568400AFDA7F3F2F340A3D00DE7F3F90EC033DCD
:1056940029E17F3FB949FB3C2BE47F3F2DBAEE3C27
:1056A40005E77F3F7B2AE23CB8E97F3FA69AD53CD9
:1056B40043EC7F3FB00AC93CA7EE7F3F9B7ABC3CDA
:1056C400E3F07F3F69EAAF3CF8F27F3F1C5AA33C0A
:1056D400E6F47F3FB6C9963CACF67F3F38398A3C46
:1056E4004AF87F3F4B517B3CC1F97F3F0030623C1D
:1056F40011FB7F3F900E493C39FC7F3F02ED2F3C6C
:1057040039FD7F3F59CB163C13FE7F3F3053FB3BA3
:10571400C4FE7F3F890FC93B4EFF7F3FC1CB963B01
:10572400B1FF7F3FC70F493BECFF7F3FD40FC93A1E
:105734000000803F00000000ECFF7F3FD40FC9BA97
:10574400B1FF7F3FC70F49BB4EFF7F3FC1CB96BB25
:10575400C4FE7F3F890FC9BB13FE7F3F3053FBBBA1
:1057640039FD7F3F59CB16BC39FC7F3F02ED2FBC7E
:1057740011FB7F3F900E49BCC1F97F3F003062BCF2
:105784004AF87F3F4B517BBCACF67F3F38398ABC2B
:10579400E6F47F3FB6C996BCF8F27F3F1C5AA3BC1F
:1057A400E3F07F3F69EAAFBCA7EE7F3F9B7ABCBCC6
:1057B40043EC7F3FB00AC9BCB8E97F3FA69AD5BC89
:1057C40005E77F3F7B2AE2BC2BE47F3F2DBAEEBC8A
:1057D40029E17F3FB949FBBC00DE7F3F90EC03BD6C
:1057E400AFDA7F3F2F340ABD37D77F3FB87B10BD78
:1057F40098D37F3F2CC316BDD1CF7F3F880A1DBDF0
:10580400E2CB7F3FCC5123BDCCC77F3FF69829BD67
:105814008FC37F3F07E02FBD2ABF7F3FFC2636BDE5
:105824009EBA7F3FD56D3CBDEAB57F3F91B442BD82
:105834000FB17F3F2FFB48BD0DAC7F3FAF414FBD44
:10584400E3A67F3F0E8855BD91A17F3F4CCE5BBD43
:10585400189C7F3F681462BD78967F3F625A68BD8A
:10586400B1907F3F38A06EBDC28A7F3FE9E574BD29
:10587400AB847F3F742B7BBD6D7E7F3F6CB880BD56
:1058840008787F3F0ADB83BD7B717F3F94FD86BD33
:10589400C76A7F3F0A208ABDEC637F3F6A428DBDA1
:1058A400E95C7F3FB46490BDBF557F3FE78693BDFD
:1058B4006D4E7F3F05A996BDF4467F3F0ACB99BD47
:1058C400543F7F3FF9EC9CBD8D377F3FCF0EA0BD89
:1058D4009D2F7F3F8C30A3BD87277F3F3052A6BDCD
:1058E400491F7F3FBA73A9BDE4167F3F2B95ACBD1A
:1058F400580E7F3F80B6AFBDA4057F3FBBD7B2BD76
:10590400C9FC7E3FDAF8B5BDC7F37E3FDD19B9BDEA
:105914009DEA7E3FC33ABCBD4CE17E3F8D5BBFBD7B
:10592400D4D77E3F397CC2BD34CE7E3FC69CC5BD34
:105934006DC47E3F36BDC8BD7FBA7E3F86DDCBBD1C
:1059440069B07E3FB7FDCEBD2DA67E3FC81DD2BD3A
:10595400C99B7E3FB93DD5BD3D917E3F895DD8BD94
:105964008B867E3F377DDBBDB17B7E3FC49CDEBD35
:10597400B0707E3F2EBCE1BD88657E3F76DBE4BD22
:10598400385A7E3F9AFAE7BDC14E7E3F9A19EBBD65
:1059940023437E3F7638EEBD5E377E3F2E57F1BD02
:1059A400722B7E3FC075F4BD5E1F7E3F2C94F7BD05
:1059B40024137E3F73B2FABDC2067E3F92D0FDBD72
:1059C40038FA7D3F457700BE88ED7D3F2E0602BE46
:1059D400B1E07D3F029503BEB2D37D3FC22305BE35
:1059E4008CC67D3F6EB206BE40B97D3F054108BE00
:1059F400CCAB7D3F86CF09BE309E7D3FF35D0BBEB1
:105A04006E907D3F4AEC0CBE85827D3F8B7A0EBE44
:105A140074747D3FB70810BE3D667D3FCC9611BEC1
:105A2400DE577D3FCA2413BE59497D3FB2B214BE2E
:105A3400AC3A7D3F834016BED82B7D3F3DCE17BE8A
:105A4400DD1C7D3FE05B19BEBC0D7D3F6BE91ABEDA
:105A540073FE7C3FDE761CBE03EF7C3F38041EBE23
:105A64006CDF7C3F7B911FBEAECF7C3FA51E21BE69
:105A7400C9BF7C3FB6AB22BEBDAF7C3FAD3824BEB0
:105A84008A9F7C3F8CC525BE318F7C3F515227BEF7
:105A9400B07E7C3FFCDE28BE086E7C3F8D6B2ABE48
:105AA4003A5D7C3F04F82BBE444C7C3F61842DBEA0
:105AB400283B7C3FA2102FBEE5297C3FC99C30BE09
:105AC4007A187C3FD42832BEE9067C3FC4B433BE86
