:020000041000EA
:101000005009002019100010F1120010F312001006
:1010100000000080000000800348854603488047A8
:101020000348804706E000005009002035130010F7
:10103000C910001018481949194A002A0AD0042A70
:1010400000D20422920803680B60013A02D00430F7
:101050000431F8E713481449002909D0042900D2C3
:101060000421890800220260013901D00430FAE726
:101070000E480F490F4A920803680B60013A02D0EC
:1010800004300431F8E70C4880470C4885460020BE
:1010900000210B4A97460000886D00104010002088
:1010A000440E000050090020E8060000506C0010BB
:1010B0000C000020380100004113001050090020EE
:1010C000CD10001001207047C046704790B59BB00E
:1010D00002AF774B7B65774B3B65774B1A68131CE8
:1010E0009B009B185B005A339A00744BD218391C32
:1010F0004031734B02200090081C022100F0A0FE3A
:101100006D4B5A68131C9B009B185B001933FF330F
:101110009A006A4BD218391C30316A4B0220009079
:10112000081C022100F08CFE634B9A68131C9B0084
:101130009B185B00D733FF339A00604BD218391CE1
:101140002031614B02200090081C022100F086FF34
:10115000594BDA68131C9B009B185B00A522920078
:101160009B189A00554BD218391C1031574B02204E
:101170000090081C022100F071FF4F4B1A69131CEC
:101180009B009B185B00524A9B189A004B4BD2184D
:10119000391C504B02200090081C022100F05EFF19
:1011A0000023FB6560E0FB6DDB017A6DD2184A4BD2
:1011B000101C191C202200F087FD474847490323D3
:1011C0005A42454B2024009401F04AF8391C403122
:1011D000414A434B081C111C1A1C202300F040FEFE
:1011E000391C30313E4A3E4B081C111C1A1C20236E
:1011F00000F036FE391C2031394A394B081C111CCD
:101200001A1C202300F03AFF391C1031344A344BA9
:10121000081C111C1A1C202300F030FF391C304A16
:101220002F4B081C111C1A1C202300F027FFFB6DFC
:10123000DB013A6DD3182A4A101C191C202200F039
:10124000BBFDFB6DDB013A6DD118FB6DDB013A6D27
:10125000D3188222D205081C111C1A1C202300F06E
:10126000C5FFFB6D0133FB65FB6D092B9BDD1D4944
:10127000104AA0235B00081C111C1A1C00F0A4F8E3
:10128000021C194B1A60184B1B68181C174901F0F7
:10129000B7FC031C002B03D006235B42BB6501E0B7
:1012A0000023BB65BB6D002B00D0FEE7FEE7C04608
:1012B0004015002050090020401A00205C5C0010FE
:1012C000500E0020900E0020D00E0020F00E0020C6
:1012D00052030000100F0020300F0020FFFFFF7F9F
:1012E000B00F002040100020301000200000C44249
:1012F000FEE7FEE7FEE7FEE7FEE7FEE7FEE7FEE7C6
:10130000FEE7FEE7FEE7FEE7FEE7FEE7FEE7FEE7B5
:10131000FEE7FEE7FEE7FEE7FEE7FEE7FEE7FEE7A5
:10132000FEE7FEE7FEE7FEE7FEE7FEE7FEE7FEE795
:10133000FEE7FEE780B500AFFFF7C4FEBD4680BD07
:1013400080B586B000AF1C4B1B683B613A69FF2338
:101350001B0213401B0AFB603A69FF231340BB606A
:10136000FB68002B1FD0BB68002B06D11348F9681F
:1013700001F0A6FB031C7B6117E0FB681A02BB6847
:10138000D3187B607B68FA221006191C01F098FBC9
:10139000031C3B603B68FA22920053437B617B69EC
:1013A0005B0A7B6101E0054B7B61054B7A691A6042
:1013B000BD4606B080BDC046000301400048E801BC
:1013C000341000200000000090B58BB000AFF86032
:1013D000B9607A6000237B6200233B6100233B629B
:1013E0005FE03B6A9B00FA68D318FB61FB691B68EE
:1013F000BB61BA69484B9A4201D1002381E03B6A44
:101400009B00BA68D318FB61FB691B68BB61BA69B2
:10141000414B9A4201D1002373E03B6A9B00FA687A
:10142000D3181A683B6A9B00F968CB181B68101C1C
:10143000191C02F035F8031C786A191C01F068FCCD
:10144000031C7B623B6A9B00FA68D3181A683B6AEC
:101450009B00B968CB181B68101C191C02F050F9CE
:10146000031C1C1C3B6A9B00FA68D3181A683B6A71
:101470009B00B968CB181B68101C191C02F040F9BE
:10148000031C201C191C02F00BF8031C1A1C3B69DE
:10149000101C191C01F03CFC031C3B613B6A01332E
:1014A0003B623A6A7B689A429BD33B1C1033FB61D8
:1014B000FB691B68BB61BA69174B9A4201D10023D3
:1014C0001FE03B69786A191C01F0F8FD031C181C29
:1014D00004F0F6F9031C0C1C181C211C00F07CFF06
:1014E000031C0C1C181C211C0A4B094A03F054FB5A
:1014F000031C0C1C181C211C04F036FA031C7B6115
:101500007B69181CBD460BB090BDC046C046C046A6
:1015100000000000000024400000C07FC046C0461C
:1015200080B586B000AFF860B9607A6000237B6157
:1015300012E07B695B00FA68D3187A695200F96897
:101540008A18128811B27A68081C1041021C92B2E3
:101550001A807B6901337B617A69BB689A42E8D360
:10156000BD4606B080BDC046F0B5474680B486B0E3
:1015700000AFF860B9607A6000237B6158E07B6956
:101580009B00BA68D4187B699B00FA68D3181B6863
:10159000181C9321C90501F083FF031C181C02F0DD
:1015A00089FA031C23607B699B00BA68D2189046B5
:1015B0007B699B00BA68D3181B68181C04F014F9E7
:1015C000051C0E1C7B699B00FA68D3181B68181C4D
:1015D000002101F029FB031C002B02D01B4C1A4BED
:1015E00001E01B4B1B4C281C311C1A1C231C02F055
:1015F00029FB031C0C1C181C211C04F0C1F8031C43
:10160000424613607B699B00FA68D3181B68181C5C
:10161000FE21890501F0EEFA031C002B05D07B6941
:101620009B00BA68D3180C4A1A607B6901337B614E
:101630007A697B689A42A2D3BD4606B004BC904644
:10164000F0BDC046C046C046000000000000E03FBC
:10165000000000000000E0BFFFFF0F00C046C046D2
:1016600080B588B000AFF860B9607A6000237B6114
:101670000023BB610023FB611BE0FB695B00FA6890
:10168000D3181B881AB2FB695B00B968CB181B889A
:101690001BB2D31A3B613B69DA179B1853407B613D
:1016A0007A69BB699A4201D97B69BB61FB690133E5
:1016B000FB61FA697B689A42DFD3BB69181CBD469F
:1016C00008B080BD80B588B000AFF860B9607A60BE
:1016D00000237B610023BB610023FB6119E0FB69F0
:1016E0009B00FA68D3181A68FB699B00B968CB188D
:1016F0001B68D31A3B613B69DA179B1853407B6127
:101700007A69BB699A4201D97B69BB61FB69013384
:10171000FB61FA697B689A42E1D3BB69181CBD463C
:1017200008B080BD80B586B000AFF860B9607A605F
:1017300000237B6110E07B699B00FA68D3187A690B
:101740009200F9688A1811687A68081C1041021C16
:101750001A607B6901337B617A69BB689A42EAD37C
:10176000BD4606B080BDC04680B586B000AFF8600B
:10177000B9607A6000237B6110E0FA687B69D31856
:10178000F9687A698A18127851B27A68081C10418F
:10179000021CD2B21A707B6901337B617A69BB6823
:1017A0009A42EAD3BD4606B080BDC04680B584B03B
:1017B00000AF78600123FB600023BB607B68012BD6
:1017C00007D100230AE0FB685B00FB60BB680133C4
:1017D000BB60FA687B689A42F5D3BB68181CBD46AB
:1017E00004B080BDB0B586B000AFF860B9607A6073
:1017F00000237B611AE07B699B00FA68D4187B693F
:101800009B00FA68D3181D687B68181C00F016F856
:10181000031C181C02F0C2F9031C281C191C01F03F
:101820003FFE031C23607B6901337B617A69BB68DF
:101830009A42E0D3BD4606B0B0BDC04680B584B084
:1018400000AF78600123BB600023FB6005E0BB684C
:101850005B00BB60FB680133FB60FA687B689A42FF
:10186000F5D3BB68181CBD4604B080BD0000000065
:10187000F0B5474680B486B000AFF860B9607A60D2
:1018800000237B615BE07B695B00BA68D4187B69ED
:101890009B00FA68D3181B68181C8D21C90501F03C
:1018A000FFFD031C181C02F005F9031C9BB22380EA
:1018B0007B695B00BA68D21890467B695B00BA68A6
:1018C000D3181B881BB2181C03F08EFF051C0E1CBE
:1018D0007B699B00FA68D3181B68181C002101F073
:1018E000A3F9031C002B02D01A4C194B01E01A4B30
:1018F0001A4C281C311C1A1C231C02F0A3F9031CCF
:101900000C1C181C211C03F03BFF031C9BB242461D
:1019100013807B699B00FA68D3181B68181C802110
:10192000C90501F067F9031C002B05D07B695B003A
:10193000BA68D3180A4A1A807B6901337B617A69D5
:101940007B689A429FD3BD4606B004BC9046F0BD6A
:10195000000000000000E03F000000000000E0BFC9
:10196000FF7F0000C046C046F0B5474680B486B051
:1019700000AFF860B9607A6000237B6158E07B6952
:101980009B00BA68D4187B699B00FA68D3181B685F
:10199000181C9D21C90501F083FD031C181C02F0D1
:1019A00089F8031C23607B699B00BA68D2189046B3
:1019B0007B699B00BA68D3181B68181C03F014FFDE
:1019C000051C0E1C7B699B00FA68D3181B68181C49
:1019D000002101F029F9031C002B02D01B4C1A4BEB
:1019E00001E01B4B1B4C281C311C1A1C231C02F051
:1019F00029F9031C0C1C181C211C03F0C1FE031C3C
:101A0000424613607B699B00FA68D3181B68181C58
:101A10008021C90501F0EEF8031C002B05D07B697D
:101A20009B00BA68D3180C4A1A607B6901337B614A
:101A30007A697B689A42A2D3BD4606B004BC904640
:101A4000F0BDC046C046C046000000000000E03FB8
:101A5000000000000000E0BFFFFFFF7FC046C0465F
:101A6000F0B5474680B486B000AFF860B9607A60E0
:101A700000237B6158E07B699B00BA68D4187B69BE
:101A80009B00FA68D3181B68181C9C21C90501F03B
:101A900007FD031C181C02F00DF8031C23607B6972
:101AA0009B00BA68D21890467B699B00BA68D3182D
:101AB0001B68181C03F098FE051C0E1C7B699B001C
:101AC000FA68D3181B68181C002101F0ADF8031C3C
:101AD000002B02D01B4C1A4B01E01B4B1B4C281C4B
:101AE000311C1A1C231C02F0ADF8031C0C1C181C22
:101AF000211C03F045FE031C424613607B699B00DA
:101B0000FA68D3181B68181C8121C90501F072F806
:101B1000031C002B05D07B699B00BA68D3180C4AC4
:101B20001A607B6901337B617A697B689A42A2D330
:101B3000BD4606B004BC9046F0BDC046C046C04697
:101B4000000000000000E03F000000000000E0BFD7
:101B5000FFFFFF7FC046C046F0B5474680B486B061
:101B600000AFF860B9607A6000237B6158E07B6960
:101B70009B00BA68D4187B699B00FA68D3181B686D
:101B8000181C9B21C90501F08BFC031C181C01F0DB
:101B900091FF031C23607B699B00BA68D2189046B2
:101BA0007B699B00BA68D3181B68181C03F01CFEE5
:101BB000051C0E1C7B699B00FA68D3181B68181C57
:101BC000002101F031F8031C002B02D01B4C1A4BF2
:101BD00001E01B4B1B4C281C311C1A1C231C02F05F
:101BE00031F8031C0C1C181C211C03F0C9FD031C3C
:101BF000424613607B699B00FA68D3181B68181C67
:101C00008221C90500F0F6FF031C002B05D07B697B
:101C10009B00BA68D3180C4A1A607B6901337B6158
:101C20007A697B689A42A2D3BD4606B004BC90464E
:101C3000F0BDC046C046C046000000000000E03FC6
:101C4000000000000000E0BFFFFFFF7FC046C0466D
:101C500080B584B000AF786039600023FB6029E074
:101C6000FB689B007A68D3181B68181CFE21890545
:101C700000F0DAFF031C002B07D0FB689B007A689A
:101C8000D318FE2292051A6011E0FB689B007A6867
:101C9000D3181B68181C0B4900F0B2FF031C002B63
:101CA00005D0FB689B007A68D318064A1A60FB6867
:101CB0000133FB60FA683B689A42D1D3BD4604B059
:101CC00080BDC046000080BFF8B546464F46C0B450
:101CD0000C1C161E63D0511E364B9E270122051C7C
:101CE0000A4001CDF9059846914601F0D9FB002143
:101CF000071C00F099FF002855D1BF200006391CB1
:101D000001F006F800F0C6FFCA170F1C414651400B
:101D1000C317BB4200D0081C013E01C4002E3ED0B8
:101D20004846002812D02CE0FC218805391C00F020
:101D3000EFFF00F0AFFF4746CB175F40C2178A4264
:101D400000D0381C013E01C4002E28D09E21C905B8
:101D500001CD01F0A5FB0021071C00F065FF002864
:101D600024D0FC239805391C00F0D2FF00F092FF2C
:101D70004246CF177A40C3178B4200D0101C01C4D3
:101D8000013E9E27F90501CD01F08AFB0021071CC9
:101D900000F04AFF0028C7D1BF221006C6E70CBCDE
:101DA00090469946F8BDFC239805A8E7BF20000699
:101DB000D9E7C046FFFFFF7FF8B546464F46C0B49F
:101DC0000C1C161E38D0571E0123051C3B4001CDAC
:101DD000994601F08FFEC021890501F061FBB846EC
:101DE00001C4002F28D0484600280BD001CD01F0B7
:101DF00081FEC022910501F053FB023E01C4B046B2
:101E0000002E19D02F1C01CFC02601F073FEB105A2
:101E100001F046FB261C01C6686801F06BFEC0237A
:101E2000990501F03DFB0221606048428044424632
:101E30003D1D341D002AE5D10CBC90469946F8BDE5
:101E400038B51D1C04AB041C187821702073A260E7
:101E5000281C4A01002103F06DFE656038BDC046B4
:101E6000F0B55F46564644464D46F0B48468A3B08C
:101E70001F9220931C94037B42685D1C0995007897
:101E80008B461F2620219246F71A4A1B1F3BD84635
:101E90001D901B9712931E92D3461C9C1C9D236879
:101EA0001C9E1C991C9C68681C9DB768CA6813938B
:101EB000236914351490584615970B920C931C9572
:101EC0008768016942698469C369209D066808972B
:101ED000039194460A940193002D00D1B4E0139A23
:101EE000149BD4171598DD1718940B990C9CC717E1
:101EF00019951F98209D1A97CA175F46E3172197D7
:101F0000C3460E92B0460F930295089F66468246DE
:101F100018E0AA40099D1B9F031CA940F8400143FB
:101F2000029C50460430AB40039D8246013C04387D
:101F300002C0029447460A950196002C62D0039392
:101F4000161CC8465A4604329346043A08CA139AE5
:101F5000D9171693181C9946189B0D9100F078FE1E
:101F6000041C4046C3170D1C0893191C149A199B96
:101F7000179000F06DFE159A24184D411A9BF91721
:101F8000381C00F065FE021C0B1C12196B411092EC
:101F9000119303980B9A0E9B002100F059FE0B9AA7
:101FA0000491CF170E9BF117301C059700F050FEDF
:101FB000049C059D24184D410F9B1099119A0A9875
:101FC000641855410C9A002100F042FE019AC8178E
:101FD00006910790D117101C0F9B0C9A00F038FE49
:101FE000069A079B8018594100196941129D021CED
:101FF000002D8EDA099C1E9B0F1CDA40A7403A4345
:10200000251C88E7219E1699B34658460361426114
:102010000D9C179F089D0A9A019B01601D994460C1
:102020008760C5608261C3611F9820260139B3446F
:102030001D918046002900D02FE723B03CBC90467C
:102040009946A246AB46F0BD089FF017F9170891D4
:1020500016960D901797039B311CD6E738B51D1CBB
:1020600004AB041C1878216043B2A260281C0A014A
:102070002373002103F05EFD656038BDF0B55F4657
:10208000444656464D46F0B495B012921393037BE6
:102090001F22D41A10948B46109B109945688668AD
:1020A000202700682039FA1A0D950E960F9002919C
:1020B0001192D8460E9E0E9C70680E9B25680E9954
:1020C000DA680E9C04900D980E9E8F680395069218
:1020D000256901688368C268139C143605970795C3
:1020E0000E968A4647689C460092002C00D17BE001
:1020F000039E0499F017059ACB170890069D079840
:10210000D4170993129A139BEE170A94C1173C1C1B
:102110000B960C91564601939246C1466746A346DC
:1021200010E02C1C044152460198043292460138BA
:10213000043A251C10C20190B3460097002839D0FC
:10214000271C46464D460435A946043D01CD039A59
:10215000089BC117804600F07BFD049A041C0D1CEF
:10216000099BF117301C00F073FD5B4624184D41AC
:10217000059AD91758460A9B00F06AFD069A24185A
:102180004D410B9BF917381C00F062FD009A241892
:102190004D410C9BD117101C079A00F059FD2418D3
:1021A0004D4102980028BCDA1199109B8D40DC400B
:1021B0002C43B8E7371CC2460D9C0F99A560009DC3
:1021C0005646129B26606760E560013910340D9415
:1021D0000F919846002900D06CE715B03CBC9046A2
:1021E0009946A246AB46F0BD1D1CE5E7F0B54E464C
:1021F00057464546E0B48946141C1E1E2BD05F1E70
:10220000051C01233B4001CD9A4601F049F9B8462F
:1022100001C4002F1FD05046002808D001CD4946E8
:1022200001F03EF9023E01C4B046002E13D02F1C2F
:1022300001CF494601F034F9261C01C668684946B9
:1022400001F02EF902214A429044434660603D1D50
:10225000341D002BEBD11CBC90469946A246F0BD24
:10226000F8B55F4656464D464446F0B401320C1C64
:102270001D1CD6B20A9F130653D5002F4BD0BB4668
:102280000127CA177B4271B24E429B449246B14627
:102290000122061C5946114004CE8846D317201C43
:1022A000514600F0D5FC484601415F4602C5002F6B
:1022B00031D04346002B10D004CE201CD3175146FA
:1022C00000F0C6FC4A46114102C50A9902208B461D
:1022D0004742BB445B46002B1DD0311C04310439FE
:1022E00004C9201CD317514600F0B2FC4A461141E4
:1022F0002F1C02C77268201CD317514600F0A8FC9F
:10230000484601410223696059428B445A460836C7
:102310003D1D002AE1D13CBC90469946A246AB4601
:10232000F8BD002FF7D0CB179946031C043398460D
:10233000043B01CB2749013F01223A408A464B46E4
:102340009346C117221C00F083FC76B20B1CB340ED
:102350001A1CC817574632417840914200D0031CDE
:102360000A9F08C5013F002FD5D05946002916D134
:10237000414604318846043901C9221C4B46C11725
:1023800000F066FC0B1CB3401A1C324193465046C9
:10239000CA174240594500D0131C08C5013F4246A8
:1023A00004329046043A01CA4B46221CC11700F081
:1023B0004FFC0B1CB340181C30418346CA175046D3
:1023C0004240594500D0131C013F08C5002FCFD112
:1023D000A1E7C046FFFFFF7FF0B5474680B48AB053
:1023E000041C0D1C00F07CF8394A0023061CD05652
:1023F0000F1C9046431C0DD0201C291C00F010F926
:10240000002807D0201C291C2C4B2B4A00F0C8FBAD
:10241000002805D1301C391C0AB004BC9046F0BD20
:10242000002647462B4908963E7801910294039571
:1024300004940595002E29D1214822490690079140
:10244000201C291C1D4B1C4A00F09AFB00280ED0B2
:1024500002230093022E23D0684600F019F90028C9
:102460001ED0089F002F20D1069E079FD2E701248F
:102470000094022E0FD0684600F00AF900280AD016
:10248000154800F009F906900791EAE70E4A0F4B4C
:1024900006920793D4E703F047FB21250560EFE799
:1024A00003F042FB22210160DBE703F03DFB089EC5
:1024B0000660D9E7C046C0460000000000000000EA
:1024C000000000E0FFFFEFC7000000000000F0FF89
:1024D000541A0020346B00103C6B0010C046C046FC
:1024E000F0B54F464646C0B4041C021C484883B0B1
:1024F0000D1C0B1E83421EDC4B005E0832435BD07A
:10250000201C00295FDB374B354A291C02F044FBB5
:10251000404A36270D1C0B1C041C794293420EDDE9
:10252000201C291C221C2B1C01F08CFB03B00CBCB2
:1025300090469946F0BD374A00219342F0DC364878
:102540001A1512185118CA0F1B031B0B8818904636
:10255000994603F049F9314B061C40461B1A1B05EE
:102560004D461D430F1C201C291C00F09DF81E4ADF
:102570001E4B041C0D1C301C391C02F00DFB1C4AA8
:102580001C4B00900191301C391C02F005FB1A4ACB
:102590001A4B061C0F1C201C291C02F0FDFA021C01
:1025A0000B1C301C391C01F04DFB021C0B1C00984D
:1025B000019901F047FBB9E7114A124B1248134940
:1025C00001F0F0FEB2E7221C2B1C291C02F056FD84
:1025D0000B4A0C4B01F0E6FEA8E7C046C046C046D9
:1025E000000000000000504300609F501344D33FA0
:1025F000362BF111F3FE593D0EE526157BCBDB3F63
:10260000000000000000000000000000000050C3B7
:10261000FFFF0F00FFFFEF7F01FCFFFFFF03000044
:102620000B1C011C30B519430222002901D1101CDA
:1026300030BD80242506AB421ED0114A11499C189A
:1026400004228C42F3D9104D5C198C42EFD90F490A
:1026500003228B42EBD9802215060C495C19032218
:102660008C42E4D9084A934203D0054D0022AB4284
:10267000DDD142424241DAE70028D8D0EBE7C0463C
:102680000000F0FFFFFFDF7F0000F07FFFFF0F0083
:102690000020704700000000024901487047C04612
:1026A000000000000000F87FF0B54E465746454652
:1026B000E0B4C14E88B0021C0B1C041CB34258DCB1
:1026C0005D0069080C4300D1EDE0002B00DAB2E1B7
:1026D000101C191C994B984A02F05EFA021CB7486C
:1026E00036240B1C6742814247DC0B15B44E0903AC
:1026F000B4480C0B9D19A046031C8026EF194344D7
:102700007503B1491D40694028150C43C719211CA8
:10271000101C8B4A8B4B02F0B1FC42460232130371
:10272000B946061C0F1C1D0B022D30DC864A874B58
:1027300000F026FA002800D1BCE04E46002E00D161
:1027400082E1484603F050F8814A824B041C0D1C7C
:1027500002F022FA804A814B061C0F1C201C291C07
:1027600002F01AFA021C0B1C301C391C01F06AFA28
:1027700007E0924800278142B7DD101C191C01F0C8
:1027800061FA08B01CBC90469946A246F0BD744A56
:10279000744B01F057FA021C0B1C301C391C01F061
:1027A00001FE02900391484603F01EF80490059143
:1027B00002980399021C0B1C02F0EEF9021C0B1C80
:1027C0000090019102F0E8F9674A684B7F4C0D1CBC
:1027D000A246041C02F0E0F9654A664B01F032FAA9
:1027E000221C2B1C02F0D8F9634A644B01F02AFA30
:1027F000221C2B1C02F0D0F9614A624B01F022FA34
:10280000009A019B02F0C8F95F4A604B0090019169
:10281000201C291C02F0C0F95D4A5E4B01F012FA3F
:10282000221C2B1C02F0B8F95B4A5C4B01F00AFA3F
:10283000221C2B1C02F0B0F9021C0B1C0098019901
:1028400001F000FA0D1C6249C244041C40460A1AF9
:1028500053461A43002A54DD514A524B301C391C4E
:1028600002F09AF9321C3B1C02F096F9009001919B
:102870004846002800D0ADE0221C2B1C009801998E
:1028800001F0E0F9029A039B02F086F9021C0B1C8E
:102890000098019902F0F2FB021C0B1C301C391C41
:1028A00002F0ECFB6DE7284A284B3F483F4901F016
:1028B00079FD66E7321C3B1C301C391C02F06CF9B8
:1028C0003B4A3C4B041C0D1C301C391C02F064F9C3
:1028D000021C0B1C3248334902F0D0FB021C0B1CBB
:1028E000201C291C02F058F94A46041C0D1C002A21
:1028F00000D0ACE0301C391C221C2B1C02F0BEFBAB
:102900003FE74946002900D1C3E0114A114B049822
:10291000059902F041F9221C009001912B1C301CFA
:10292000391C02F0ABFB029A039B02F035F9041C40
:102930000D1C0498059997E000000000000050432A
:10294000000000000000F03F000000000000000058
:102950000000E0FE422EE63F763C7935EF39EA3D55
:10296000000000000000004044523EDF12F1C23F70
:10297000DE03CB966446C73F599322942449D23F45
:10298000935555555555E53F9FC678D0099AC33F95
:10299000AF788E1DC571CC3F04FA97999999D93FAC
:1029A000000000000000E03F00000000000050C3F5
:1029B000555555555555D53FFFFF0F00FFFFEF7F8C
:1029C00001FCFFFF645F09000000F03F86EBF9FFA8
:1029D00051B80600354B344A0498059902F0DCF8EA
:1029E000221C06900791009801992B1C01F02AF9EE
:1029F000029A039B02F0D0F82D4A2E4B041C0D1CAA
:102A00000498059902F0C8F8021C0B1C201C291C14
:102A100001F018F9021C0B1C0098019902F02EFB22
:102A2000321C3B1C02F02AFB021C0B1C0698079967
:102A300002F024FBA5E6101C191C02F01FFB1E4A25
:102A40001E4B01F0AFFC9CE61B481C4999E648462A
:102A500002F0CAFE154B144A0290039102F09CF852
:102A60000090019102980399114A124B02F094F8D8
:102A7000021C0B1C201C291C02F000FB321C3B1CFE
:102A800002F0FCFA021C0B1C0098019902F0F6FA05
:102A900077E6221C2B1C301C391C02F0EFFA029A3C
:102AA000039B02F079F8F7E60000E0FE422EE63FD5
:102AB000763C7935EF39EA3D000000000000000067
:102AC000002934D00123002210B488422CD30124E1
:102AD0002407A14204D2814202D209011B01F8E776
:102AE000E400A14204D2814202D249005B00F8E72F
:102AF000884201D3401A1A434C08A04202D3001B5B
:102B00005C0822438C08A04202D3001B9C0822438D
:102B1000CC08A04202D3001BDC082243002803D0CB
:102B20001B0901D00909E3E7101C10BC70470028FD
:102B300001D00020C04307B4024802A1401802900F
:102B400003BDC046190000000029F0D003B5FFF70F
:102B5000B9FF0EBC4243891A1847C0467047C046A9
:102B60008446101C62468C46191C634600E0C04631
:102B70001FB501F0A5FF002801D40021C8421FBDE8
:102B800010B501F0EBFE4042013010BD10B501F070
:102B900097FF002801DB002010BD012010BDC046BA
:102BA00010B501F08DFF002801DD002010BD0120CF
:102BB00010BDC04610B501F00FFF002801DC002059
:102BC00010BD012010BDC04610B501F005FF002862
:102BD00001DA002010BD012010BDC0468446081C4B
:102BE0006146FFE71FB500F013FC002801D4002167
:102BF000C8421FBD10B500F09BFB4042013010BD24
:102C000010B500F005FC002801DB002010BD0120FC
:102C100010BDC04610B500F0FBFB002801DD002010
:102C200010BD012010BDC04610B500F0A9FB002862
:102C300001DC002010BD012010BDC04610B500F021
:102C40009FFB002801DA002010BD012010BDC04606
:102C50009C460304F0B51B0C17043F0C150C1E1CFE
:102C6000041C000C7E436B4347434543FB18300C68
:102C70001818874202D980277B02ED18070CED193E
:102C800067467C434A433604330CA11800044919B3
:102C9000C018F0BD10B50021041CFFF7B1FF0028DB
:102CA00007D1201C00F010F8021C0B1C101C191C72
:102CB00010BD80231B06E01800F006F800234242F6
:102CC0008B41F3E70000000070B502F0F9FD0D4BF9
:102CD0000B4A0D1C041C01F05FFF02F005FF061CEF
:102CE00002F0BCFD084A094B01F056FF021C0B1C08
:102CF000201C291C02F0C2F902F0F6FE311C70BD46
:102D0000000000000000F03D000000000000F04165
:102D1000F8B5430242004F024C00C00F9B09120E4F
:102D2000061C9C46240EC90FBF09884257D0151BAC
:102D3000002D00DC7EE0002C41D1002F64D0013D4D
:102D4000002D00D0ABE0DB1B141C061C590144D540
:102D50009A019509281C02F0A9FE05388540844295
:102D600000DD79E0001B1F242B1C411C221ACB40E4
:102D700095401F1C2B1C5D1EAB413B4301250024CD
:102D80000F201840042800D004338021CF040122F2
:102D90001F401640002F05D0FF2D5AD0B34C2340C2
:102DA0002C1C0135EDB2DA08012D3BDD53025A0A25
:102DB000E4B2E4052243F607101C3043F8BDFF2AB5
:102DC0002BD08021CC04274301231B2D49DD6746EE
:102DD000FB1A141C061C5901BAD4651CD0E7151B3C
:102DE000002D4FDD002C13D0FF2A5AD08024E1049F
:102DF0000F4301231B2D00DCB0E06344141C590178
:102E000055D4651C061CBBE7551C141C061CB7E7F3
:102E1000002F7CD1551C141CB2E7802763467D002F
:102E2000FF24ADE7002AC3D0002C28D08020C103A6
:102E30000A43BBE7002D47D1501CC3B2012B00DC75
:102E400096E06446E51B680158D53D1B0E1C141C1A
:102E500080E7FF240022ACE7844B241A2B40651C3A
:102E60008EE73E1C2021EE404D1BAF403B1C5F1EF9
:102E7000BB4133436746FB1A141C061CABE75702E1
:102E80007A0A96E7002D7FD1541CE1B2012953DD67
:102E9000FF2C00D19BE0FB185B08951C70E7FF2A14
:102EA00092D1061C802063464500FF2468E7671C1A
:102EB000FF2F3CD06D4A01261E4013405B08334370
:102EC000A51C061C3C1C5BE76842002A25D0FF2C91
:102ED00070D08022D6041D1C3543AC4601261B2829
:102EE00009DC62462025C2402B1A60469840061C29
:102EF000701E86411643BB1B0E1C27E7141C002DB9
:102F000000D027E700260125042300244AE7013DDD
:102F1000002D08D1FB18141C71E7002B50D1651C43
:102F20003B1C0E1C2CE7FF2A00D062E7B9E7802388
:102F30005D00FF24042335E7002A7CD1002B00D15B
:102F4000A1E0002F00D1AFE0FB18590100D4B0E0A0
:102F5000464E022533400124061C11E73C1C202369
:102F6000EC405D1BAF403B1C5F1EBB41234344E76D
:102F7000002A12D16546002D41D1002FC2D03B1C42
:102F80000E1C01250024FBE66D42002A23D1002BF4
:102F900066D1651C3B1C061CF2E66246002A38D14D
:102FA000002F07D1802200265500314BFF24F9E67F
:102FB000FF2C93D13B1C80270E1C7D00FF24DFE6F5
:102FC00001380028F4D16646BB1B0E1CBEE68027E4
:102FD0007D000423E6E6FF2C5CD08022D1040B4365
:102FE0009C4601231B2D08DC20216246EA406346F3
:102FF0004D1BAB40591E8B411343DB19FFE6002FDD
:1030000038D0EB1B5A014BD57B1B0E1C012500242D
:10301000B6E6002F00D100E78020D308C403234286
:1030200004D0FF08274201D13B1C0E1C8021DB008D
:103030004D00FF24A4E6002B20D0002F00D1ECE6A9
:103040008022DE08D503311C2E4203D0F908294224
:1030500000D0311C061C8020CB004500FF248FE6E9
:10306000013D002D14D1FB18C9E6C046FFFFFFFB50
:10307000FCFFFF0363460125002481E680246500F0
:103080003B1CFF247CE63B1C061C0125002477E644
:10309000FF2CA6D13B1C8027061C7D00FF246FE679
:1030A000002B00D12EE769E66346061C01250024AB
:1030B00066E6061C0125002462E6C046F0B55F46C0
:1030C00056464D464446F0B44502440083B00E1CBB
:1030D0006D0A240EC70F002C07D1002D00D091E0FF
:1030E000042101228846924609E0FF2C55D0802316
:1030F000180400210543ED007F3C88468A46331CB6
:1031000058007602D90F760A000E8B464CD1012268
:103110009446002E00D081E05B467B4062464146EB
:1031200001930A430F2A50D9201A6901814675017B
:10313000A94200D3B3E00122534299441B24002644
:103140000127621E381C10404B007600002900DA6F
:10315000A9E09D4200D8A6E0013C002C00DCABE0D9
:1031600000280CD0191C76005B00002901DB9D4271
:1031700001D85B1B3E43013C002C00DC9CE0590065
:103180007200002B01DB8D4201D8491B3A43013C00
:103190004B0056000029EADAEBE7002D2DD108207C
:1031A000022180468A46AAE7FF2820D08022130405
:1031B00000211E438C465B467B4062464146F6003A
:1031C0007F3801930A430F2AAED8564992008A5895
:1031D0009746019BFF260025F0052843DE07304374
:1031E00003B03CBC90469946A246AB46F0BD331CAA
:1031F0005A1E934102339C468EE70C2203239046CD
:103200009A467CE7281C02F051FC7622441F534268
:10321000A5401C1A00208046824670E7301C02F050
:1032200045FC7623411F8E405A420021101A8C46DD
:1032300072E700233C4DFF26CEE75F46351C019721
:103240006346022BC5D0032B63D0012B43D04946E4
:103250007F31002935DD0F272F40042F00D00435A2
:103260002B0103D5314A494615408031FE29B0DC97
:10327000A801450ACEB2019BAEE700260025ABE7C8
:103280008020C1030D4211D00E420FD10E437302B4
:103290005D0AFF265B469FE701975346D1E7491B2E
:1032A0001A2401264CE75B1B3E4355E70D436A0297
:1032B000550A3B1CFF268FE71D1C6B1E9D413543A5
:1032C000C5E77E2467424A46B91A1B2908DD019BDF
:1032D0000026002580E7019D00262B4000257BE786
:1032E0004E469E36281CB5402B1C5D1EAB41C84087
:1032F00003430F251D40042D00D004335A0103D58C
:10330000019B0126002567E79C01650A019B0026B9
:1033100062E78027FC0325436E02750A019BFF26A6
:103320005AE7C046406B0010FFFF7F00FFFFFFF72A
:103330004302420070B55C0AC60F130E48024A00F1
:10334000450A120EC90FFF2B05D0FF2A08D0012015
:1033500093420BD070BD0120002CFBD1FF2AF6D187
:103360000120002DF6D101209342F3D1AC42F1D1DE
:103370008E4203D0002BEDD1002CEBD10020E9E7E9
:10338000F0B5430242004F00C60F48025C0A450AEE
:10339000130EC90F3A0EFF2B26D0FF2A29D0002B7F
:1033A0000CD1604260418446002A0AD0002816D120
:1033B0008E4221D0002E14D1012014E0002AF7D132
:1033C00094466F426F416046002805D1002FEFD030
:1033D0000120002E07D004E00020002F03D1002997
:1033E000EAD101214842F0BD002CD6D00222504241
:1033F000F9E7002DD3D0F9E79342DBDC04DBAC42E4
:10340000D8D80020AC42EED2002EEAD00120EAE764
:10341000F0B5430242004F00C60F48025C0A450A5D
:10342000130EC90F3A0EFF2B26D0FF2A28D0002BEF
:103430000FD0002A14D194466F426F416046002895
:1034400014D00020002F03D100290DD101214842C2
:10345000F0BD604260418446002AEDD00028F3D1DF
:103460008E4211D0002EF1D10120F1E7002FF7D0CC
:103470000120002EECD0E9E70220002CE8D1D4E7AF
:103480000220002DE4D1D2E79342EBDC04DBAC4216
:10349000E8D80020AC42DBD2002ED7D00120D7E7FD
:1034A000F0B55F4656464D464446F0B445024600E8
:1034B00083B00F1C6D0A360EC40F002E06D1002DEE
:1034C00070D1042101228846924609E0FF2E43D0A4
:1034D0008023180400210543ED007F3E88468A467C
:1034E000381C43007F02C10F7F0A1B0E8B463AD166
:1034F0000121002F62D158466040424601900A43A4
:103500000F2A3FD92C04F018260C3B041A0C311C4E
:1035100051433F0C2D0C7E436A438146080C3618FC
:103520002C1CB3187C439A4200D99AE009041D046C
:10353000080C2E18B5011B0C691E8D41B20EE71840
:103540001543BC0125432B014BD501202840012107
:103550006D088944054344E0002D1ED10820022156
:1035600080468A46BCE7FF2B12D080221004074316
:103570005846002160404246FF007F3B01900A43CD
:103580000F2ABFD890005B4A844662441068874681
:10359000391C4A1E91410231ADE70C2203239046AB
:1035A0009A469DE7281C02F081FA7622461F534274
:1035B000B5401E1A00208046824691E7381C02F072
:1035C00075FA7621431F4A429F400021131A92E761
:1035D0000194514602292CD0032900D180E0012911
:1035E00048D04E467F36002E51DD0F242C40042C4F
:1035F00000D004352A0103D53F494E460D408036A0
:10360000FE2E3DDD019B01241C40FF210025C80545
:10361000E2072843104303B03CBC90469946A246BB
:10362000AB46F0BD0024354DFF21F0E7514602299D
:10363000D2D1019D01242C40FF210025E7E75E4601
:103640003D1C0196C6E73D1CC4E78026F3031D42DE
:103650000BD01F4209D11F437A02550A5C46FF2155
:10366000D5E780225702E41960E71D436F027D0A07
:10367000FF21CCE7019B00251940CCB20021C6E711
:103680000198AD0101246D0AF1B20440BFE77E2626
:1036900073424A469F1A1B2F05DD019D01242C40D1
:1036A00000210025B3E749469E312C1C8D402E1C7D
:1036B000FC40751EAE4126430F203040042800D048
:1036C0000436700105D5019F01243C4001210025ED
:1036D0009DE7019AB30101245D0A1440002196E799
:1036E0008022D00305436C020199650A01240C4035
:1036F000FF218CE7806B0010FFFFFFF7FFFF7F00CB
:10370000F8B5430245004F024C00C20F98098446A9
:103710002D0E200EC90FBF09FF2854D0012671407D
:103720008A423BD02C1A002C00DC89E0002825D1ED
:10373000002F4BD16E1C2C1C6346151C0F221A4007
:10374000042A00D004338027F904012219402A40BA
:10375000002906D0FF2E00D181E0B14D341C2B4052
:103760000136F6B2DD08012E62DD6B025D0AE4B2BD
:10377000E4052543281CD2071043F8BDFF2D51D086
:103780008021CB041F4301261B2C70DD67462C1CB7
:10379000BB1B151C580122D4661CCFE72E1A002E25
:1037A00076DD002832D0FF2D3CD08024E1040F4389
:1037B00001231B2E00DCD1E063442C1C58017AD479
:1037C000661C151CBAE7002FAAD1A7E7013C002C04
:1037D0006DD163462C1CDB1B151C5801DCD59A01EE
:1037E0009609301C02F062F905388640844239DCC3
:1037F000001B1F231A1A331C311C441C9340E14048
:103800005E1EB3410B430126002497E7002F00D131
:1038100090E7013E002E03D164463B192C1CCDE7F6
:10382000FF2DC5D1151C802263465600FF2485E775
:10383000002D9CD0002C28D08020C7033D4394E766
:10384000002C45D16B1CD8B2012800DC90E0644606
:10385000E61B730157D53E1B2C1C0D1CC1E7FF2432
:10386000002585E76E4B241A3340661C66E7381C3A
:103870002021E0400C1BA7403E1C771EBE410643A2
:1038800067462C1CBB1B151C84E769024D0A6FE7B9
:10389000002E79D16C1CE0B201284BDDFF2C00D149
:1038A00098E061467F18AE1C7B08151C46E7FF2D8B
:1038B00000D068E7B6E7671CFF2F36D058480121D3
:1038C000194003405B08A61C0B433C1C151C35E744
:1038D0006642002D1ED0FF286FD080256246EB0483
:1038E0001A43944601251B2E09DC62462023F24030
:1038F00064469E1BB440251C6C1EA54115437B1BD2
:10390000041C0D1C69E7002E0CD1002201260423A3
:10391000002426E76446002C55D1461C3B1C041CA1
:103920000D1C0BE72C1C151C5BE780235E00FF249D
:10393000042316E7002D00D08DE06546002D00D150
:10394000ADE0002F00D181E07B195C0100D47EE066
:10395000334F151C3B4002260124EFE6381C202380
:10396000F0409E1BB7403B1C5F1EBB41034323E757
:10397000002D15D16546002D47D1002FC5D03B1C29
:103980000D1C01260024D9E67642002D26D165467D
:10399000002D00D07DE0461C3B1C041C151CCDE610
:1039A0006546002D40D1002F07D1802100224E0016
:1039B0001C4BFF24D5E6FF2894D180203B1C0D1C16
:1039C0004600FF24BAE6013E002EF4D13B1B0D1C3D
:1039D000041C02E780256E000423C2E6FF2852D0B3
:1039E00080246146E30419438C4601231B2E09DC25
:1039F00020216446F44065468E1BB5402B1C591EA1
:103A00008B412343DB19041CD8E6002F1ED0EB1B8F
:103A100058014BD57B1B01260D1C00248EE6C046A9
:103A2000FFFFFFFBFCFFFF03002F00D1FAE6802021
:103A3000EB08C403234237D0FF08274234D13B1C94
:103A40000D1C8022DB005600FF2477E66346151C20
:103A50000126002472E66446002C14D0002F00D109
:103A6000E0E68023E608D803311C064203D0F908BB
:103A7000014200D0311C151C8022CB005600FF24CF
:103A80005CE6FF28B1D180203B1C151C4600FF24BA
:103A900054E6013E002EF4D17B19041C8EE63B1C3B
:103AA000151C0126002449E6151CCAE7002B00D18D
:103AB0002BE7CCE743024200590A130EC20F002045
:103AC0007E2B0DDD9D2B0CDC802000040143952B0B
:103AD0000ADC9620C31AD9404842002A00D1081CAB
:103AE000704703495018FBE7963B9940F4E7C046FE
:103AF000FFFFFF7F70B5041E3CD0C50F00D04442CD
:103B0000201C01F0D3FF9E21261C0B1A962B0ADCE9
:103B10000838844061024C0ADBB2DB051C43ED0728
:103B2000201C284370BD992B0ADD0522141A311C74
:103B3000E140041C1B34A6400A1C711E8E41164332
:103B400005281BDC144C0F2234401640042E00D0F4
:103B50000434620105D59F231B1AFF2B0CD00E489D
:103B600004405E1CF1B2E40801290ADD6402640A23
:103B7000DBB2D2E7002500230024CEE7411F8E40B0
:103B8000E0E7002CF4D0002B03D08022D0030443C4
:103B9000ECE76602740AC0E7FFFFFFFB10B5041EE6
:103BA00034D001F083FF9E231B1A962B07DC0838C4
:103BB00084406402610ADBB2D805084310BD992B2A
:103BC0000ADD021C1B32211C91400A1C511E8A4135
:103BD0000521091ACC40144305281ADC184A0F2184
:103BE00022400C40042C00D00432510105D59F2402
:103BF000231AFF2B21D012480240591CCCB2D20804
:103C0000012C09DD5002410ADBB2D5E70023002177
:103C1000D2E7421F9440E1E7002A0BD0002B06D0E8
:103C20008021CC0322435202510ADBB2C4E7500286
:103C3000410AC1E7DBB20021BEE7FF230021BBE759
:103C4000FFFFFFFBF8B55F4656464D464446F0B4CD
:103C50000C03460F640A3443A3465E001C03DB0FCB
:103C60009C46630A98464D00530F44461C436D0D15
:103C7000C90F760DD2000F1CC000A1469246AB1BA7
:103C8000614500D1A4E0002B00DCF5E0002E0CD152
:103C9000261C164300D1C2E0013B002B00D046E1B8
:103CA0005C464B46821AE71A21E0D24EB54200D15B
:103CB000CDE080244A4627043A439146382B00DD64
:103CC0000FE11F2B00DD50E12026F61A4C4652462C
:103CD0005746B440B740DA4022433E1C4C46771E5C
:103CE000BE41DC403243261C5B46821A9F1B904239
:103CF00080414642BB1B141C2E1C0F1C180200D412
:103D0000AEE05D02690A88464246002A00D1D9E049
:103D1000404601F0CBFE051C083D1F2D00DDDAE01A
:103D20002822131A201C4146D840A940031C0B43EB
:103D3000AC40AE4200DD90E0AE1B711C1F2900DDDF
:103D400000E11F20851B1A1C201CAA40C840AC4063
:103D50001043661EB4410443CB40012200260F20CD
:103D60002040042864D0201DA042A4416542802147
:103D70005B1901240D041D402740002D07D09D4EE6
:103D8000B24200D19AE09C49161C0B4001325C07FC
:103D9000C00852050443DB08550D012D62DD1B03ED
:103DA00076051B0B760D00200021090D201C0A054D
:103DB000924C1343760575081C402C436300FF07A3
:103DC000590839433CBC90469946A246AB46F8BDDB
:103DD000002B00DC91E0002E31D0864EB54200D1A0
:103DE000A9E080244E4622041643B146382B00DD5C
:103DF00018E11F2B00DD73E12026F61A4A46B24077
:103E0000904652464446DA4022435446B440261C6B
:103E1000741EA6414C463243DC401218F6E0041CE6
:103E20000F206A1C5B462E1C0F1C204004289AD1D0
:103E300080252D0401211D400F40201C9DE71443C7
:103E400000D0DDE06A1C5B46041C2E1C87E7802145
:103E50005B46041C0A012E1C81E7761B664D2B4035
:103E6000721C7CE7211C194300D167E2002E41D06F
:103E700080200203134392E7002B00D088E0691CE6
:103E80004E05740D012C00DC1AE15B46161C4C46F5
:103E9000821A191B90429B415B42C91A88460B0249
:103EA00000D49EE0371ABA4592415E46A41B5342A5
:103EB000E11A88463C1C2E1C674625E7161C002389
:103EC000002470E7201C01F0F1FD2030051C083DA6
:103ED0001F2D00DC24E7031C283B9C40231C0024EE
:103EE00027E74A4653461A430026002A00D1FBE63C
:103EF0000122F9E61D032B0B55E7002B00D004E14E
:103F00006E1C7405630D012B00DCAAE039498E425A
:103F100000D130E11118814280414B4642425B445E
:103F20009B18DC0749080C435B08AA1C17E7314FB4
:103F3000BD4200D0C2E6041C80205B460F1C02017B
:103F40002E1C0CE7301C1F381A1CC240151C2029DF
:103F500000D182E03F218E1BB3401C43631E9C4175
:103F60002C43012200230026F9E61C1C203C4F466E
:103F7000E7403E1C202B72D04022D41A4B46A3406F
:103F80001A1C57463A43531E9A4132430026ABE669
:103F90005F42002D50D0174DAE4200D155E1802434
:103FA0005A4621040A439346382F00DDDAE01F2FDA
:103FB00000DD78E12021CC1B051C5A46A240FD40C3
:103FC000A04015435B46421E90412843FB405746A4
:103FD0003C1AA24592414846C11A55424B1B6746BE
:103FE0008CE6081C104330D1002701220023042056
:103FF0000026CCE6FF070000FFFF7FFFFFFF0F80DA
:10400000013B002B24D153461A184C468242804172
:104010005C444342E3182E1C141C18023ED4721C4C
:104020000F1C9CE64A4653461A430024002A00D13E
:10403000F3E601221218E9E75B46034300D083E070
:10404000231C721C5446674689E6141C2E1C5BE632
:10405000CD4EB54200D0C9E66DE700237DE70022D2
:104060008FE75E460643002D00D0F4E0002E00D11D
:104070004CE14B46134300D17EE115184E46854274
:1040800080415E444242B3181E0200D482E1BF4F19
:104090002C1C3B4002220F1C012660E6BA4D701C0E
:1040A000A8424BD0B94F0125254062083B402C1C4B
:1040B000DF0714433C43B21C5B08061C0F1C4EE692
:1040C0005E460643002D2CD1002E00D07DE04E46EA
:1040D000141C164388D04B466746012200263EE654
:1040E0001E1C203E4C46F440261C202B00D1D8E05C
:1040F0004022D41A4B46A3401A1C54462243531E56
:104100009A4132430024121880E75B42002D37D1D8
:104110005C46044300D0D7E0721C4B4654460F1C4B
:104120001DE6002E6ED14B46141C134300D1DCE07B
:1041300080254B4667462A01934E10E68021061CD7
:104140000A010023042022E6013F002F79D1171A2B
:104150005B46BA45AD414946CA1A68423C1C131A2F
:104160006746CBE55F46074300230020002F00D1C0
:104170002DE701202BE780252A010023042006E6F5
:10418000814DAE4200D1D3E080245D462204154328
:10419000AB46382B00DDB0E01F2B00DDDBE0202537
:1041A000ED1A021C5C46AC40DA40A840451EA8410E
:1041B000224302435846D840031C554654195445DF
:1041C00092414B4450421B1827E74A465646324319
:1041D00000D185E0851B5B464C46A8429241191BE5
:1041E00056428B1B1E0200D4ADE057463D1A5B467B
:1041F000AA458941E41A4A42A31A67462C1C0122A7
:104200000026ACE54D46161C154344D05C46802183
:10421000C0086207E3080D0310432B4200D181E080
:104220004C46E10829427DD1F70866073E430B1C46
:104230006746700FDB008022F40003431201524EE8
:104240008DE5514DAE4200D0AEE680204B4654463F
:104250006746020183E5002E5ED04C4614431AD017
:10426000C7088025584643072C03C0081F43204237
:1042700008D04E46F308234204D15246D5087707AA
:10428000181C2F43C300FC00780F0F1C8021034330
:104290000A013D4E63E5802632015B46041C3A4E1E
:1042A0005DE5002229E7391C20395C46CC40221C00
:1042B000202F67D04023DF1B5D46BD402843431EAF
:1042C00098411043002382E6013B002B2CD150443F
:1042D0005C469042AD414C446A42A318041C9CE6E3
:1042E0005B46041C0122002639E5802404210027B6
:1042F0002201274B4842244E49E55D4605430023F1
:104300000022002D00D158E7012256E7141C4B462D
:104310000F1C0122002622E5141C80224B461201AC
:10432000194E1CE5061C84E7174A964200D030E778
:104330000F1C80214B4654460A0110E57405660D9A
:10434000002300242FE5181C284300D14CE62C1C28
:104350000122002603E51C1C203C5D46E5402C1C88
:10436000202B1CD04022D31A5A469A400243501E9A
:1043700082412243002320E75B46041C0F1C0122DC
:104380000026ECE4002599E7FF070000FFFF7FFF10
:10439000FFFF7F002C1C0F1C01220026DFE40022FF
:1043A000E4E7C046F0B54D4644465F465646F0B495
:1043B0001D1C4B00141C0E035B0DCA0F87B0071C9D
:1043C000360B98469146002B1DD1321C024300D17A
:1043D00081E1002E00D104E2301C01F067FB2728A8
:1043E00000DDF8E12821031C083B0A1A391C9E4015
:1043F000D1400E439F40C14B0021181A0022804635
:104400008A4600920FE0BE48834231D080214B03A0
:104410001E43BC487A0FF600002100231643FF001C
:1044200080448A460093291C201C251C4A000C034A
:10443000CB0F240B520D9B4625D1211C014300D1EB
:1044400050E1002C00D1C2E1201C01F02FFB2728F5
:1044500000DDB6E1031C2822083B291C121A9C40EF
:10446000D1400C439D40A54B1A1A0020029019E040
:10447000321C3A4300D029E108270223BA4600261D
:1044800000270093CFE79E48824200D113E18021AC
:104490004B031C439B49680FE40000230443ED00D9
:1044A0005218029348465B46434002985146019396
:1044B00001430F2900D8DFE043469A1A0492A6422E
:1044C00000D86EE171087B08F6073343FA07894686
:1044D00098460292280E240204432D022704390C28
:1044E000AB46250C00914846291CFEF7E9FA009FCF
:1044F000061C4743291C4846FEF726FB4346080492
:104500001A0C1043874207D90019013E844203D890
:10451000874201D9013E0019C11B8A46081C291C8B
:10452000FEF7CEFA009B071C4343291C50469946D0
:10453000FEF70AFB424610040B04010C0B4399459D
:1045400004D91B19013F9C4200D864E136043E4364
:104550005F464A46390C89469B1A59463204170C65
:104560000A0449467943120C03928C460399300C95
:104570007A4341434F4678438C44170C6744B94211
:1045800002D9802149024018390C120440183F0416
:10459000110C7F18834200D227E100D141E102993A
:1045A0001B1ACF1BB942804141425A1A9046A2427F
:1045B00000D15FE1101C291CFEF782FA009B0290DB
:1045C0004343291C40469A46FEF7BEFA380C0904BC
:1045D00001438A450AD9029A0919013A02928C428A
:1045E00004D88A4502D9013A029209195346C81AD9
:1045F000291C0590FEF764FA009A291C4243804664
:1046000005989246FEF7A0FA3F040D043A0C2A439F
:10461000924509D901214B4212199844944203D87A
:10462000924501D998441219029D43462F041F4315
:104630005046111A3804030C4D465D430398AC46AE
:10464000039D3A0C584355434B465A43AC44030C24
:1046500063449D4202D980256D0252191D0C00044D
:1046600052191B04050C5B19914200D2E6E000D1FF
:104670003DE1012217435AE0890023488C466044FB
:1046800001688F46019B1E4A00260027002000215A
:10469000381C0F0D3C051D4D3443120525401543B4
:1046A0006E00DB077108194307B03CBC9046994681
:1046B000A246AB46F0BD211C03202943029000D046
:1046C000F0E60223002400250293EBE60C200321F0
:1046D00082460091A7E604270123BA460026002758
:1046E0000093A0E60121002400250291DAE60127CB
:1046F0000023074E7F42024AC8E7C0460DFCFFFF79
:10470000FF07000001FCFFFFC06B0010FFFF0F80E0
:10471000FFFF0F002F1C5A46029D261C0192022DFE
:10472000B0D0032D00D101E1012D00D19CE0049B0C
:1047300082481A18002A00DC8CE00F243C40042C2C
:1047400005D03B1DBB42BF417D4276191F1CF101C4
:1047500005D57B4A04998020C40016400A19794B7C
:104760009A4200DD8EE77507FF08760251052F4358
:10477000360B4A0D019B89E700220026002785E7BA
:10478000802001030E4216D00C4214D10C432603A4
:10479000360B5B462F1C6C4A78E74C460194009D13
:1047A000BDE7A64243D00498B846013800270490DC
:1047B000B14602978EE60E4333031E0B624A4B4608
:1047C00064E7041C283CA5402C1C00254BE601F0A6
:1047D0006DF920303BE6061C283EB7403E1C002702
:1047E00009E601F063F92030F9E5029A013E111C57
:1047F00059445945924152421219D3189C4204D24D
:1048000098426BD816D01B1ACBE6A342FBD18B453E
:10481000F6D9231AC5E6994500D897E6013F1B193A
:1048200094E6029ABA42E0D302990023B9E6AF4275
:10483000B9D947E68F4251D80023B2E60919013FA2
:1048400058468C4219D9914200D012E7984200D0C4
:104850000FE76CE73D4C049D631B382B1CDD019B6F
:1048600000220026002711E7019B00222B40002692
:1048700000270BE701277F4259E78A4203D800D07F
:10488000F7E69842E2D25D4668005845AD416D4278
:104890002C19013F0919D6E71F2B34DC049C2C4A44
:1048A000381CA518311CAF40D840A9403C1C01431E
:1048B000671EBC410F1C2743DE400F233B40042BE7
:1048C00005D03A1DBA42BF417D427619171C32020B
:1048D00011D5019B012200260027D7E659445945EE
:1048E000924152421219D318013E1B1A59E6002B6D
:1048F000A4D10020AAE77007FF08710207430E0B3E
:10490000019B0022C2E61349049C301C0A1BD040C4
:10491000051C202B08D0104BE1188E4037437B1E1E
:104920009F412F430026C8E70026F7E780221003A7
:10493000064331030E0B019B034AA7E6FF03000069
:10494000FFFFFFFEFE070000FF07000002FCFFFF65
:104950001E040000E2FBFFFF3E040000F0B5944699
:1049600047461A03061C580080B4170B420D19481D
:104970000D034C00DB0F2D0B640DC90F98468442CC
:1049800008D0144882420DD00120944212D004BCB9
:104990009046F0BD2B1C33430120002BF7D10D486E
:1049A0008242F1D163463B430120002BEFD101202D
:1049B0009442ECD1BD42EAD16645E8D1414506D0EA
:1049C000002CE4D1281C3043451EA841DFE700201D
:1049D000DDE7C046FF070000F0B557464E464546A6
:1049E000E0B4041C4E000803C90F8A46171C590086
:1049F0001A03050B700D160B4A0D3049DB0F9C4650
:104A0000884232D02D498A4235D000280FD1291C46
:104A100021434B424B419846002A0BD0002B1AD120
:104A2000E2452CD05546002D18D1012018E0002A6F
:104A3000F6D19046311C39434B424B414146002947
:104A400006D1002BECD056460120002E08D005E000
:104A50000020002B04D16746002FE6D101235842E5
:104A60001CBC90469946A246F0BD2B1C2343C9D0DE
:104A700002214842F4E7331C3B43C6D0F8E790429A
:104A800005DC09DA5246002AE8D00120E8E754465E
:104A9000002CE3D10120E3E7B542C3D807D00020C2
:104AA000B542DDD250460028D8D00120D8E7BC421C
:104AB000B8D80020BC42F5D3D2E7C046FF070000BB
:104AC000F0B544465F4656464D46F0B49446061C43
:104AD0001A035800170B420D2E480D034C00DB0F34
:104AE0002D0B640DC90F9846844233D02948824269
:104AF00036D0002C19D0002A20D1934663463B4380
:104B0000584258415B468246002B1DD0514600203A
:104B1000002904D14246002A14D1012460423CBC41
:104B200090469946A246AB46F0BD2B1C33435842F3
:104B300043419B46002AE1D0002BEBD1414515D0E3
:104B40000029EAD10120EAE70028F7D00120002956
:104B5000E5D0E2E72B1C33430220002BDFD1C5E771
:104B600063463B430220002BD9D1C2E79442E7DCE5
:104B700005DBBD42E4D806D00020BD42CFD20029DB
:104B8000CBD00120CBE76645DAD800206645F6D3C6
:104B9000C5E7C046FF070000F0B5564644465F46ED
:104BA0004D46F0B44F001D1C0B03141C1A0B7B0D5B
:104BB00087B0061C92469846CF0F002B21D10243A6
:104BC00000D149E15346002B00D1E4E1504600F00A
:104BD0006DFF031E272B00DDD8E1083B51469940AD
:104BE00028228846111A321CCA4041460A4392467E
:104BF0009E40D84B0022181A00218046914603910E
:104C000011E0D54883423ED0802153464A031A43DF
:104C1000D000710F0843D14A824600230020F600DD
:104C2000904499460390291C201C251C4A000C0323
:104C3000CB0F240B520D9B4631D1211C014300D1D7
:104C400012E1002C00D19DE1201C00F02FFF27284D
:104C500000DD91E1031C2822083B291C121A9C400C
:104C6000D1400C439D40BB4B59461A1A7940002055
:104C70004B46019103430F2B26D89900B84B8C4625
:104C8000634419688F46111C314300D0DFE00826C9
:104C900000200221B146824600260391C3E7AE48B8
:104CA000824200D1C9E080214B031C43AB49680F0D
:104CB000E4000443ED0052180020594679404B4669
:104CC000019103430F2BD8D94244330429040492A1
:104CD0001A0C0F0C101C7843360C331C80462D0C1C
:104CE0007B43301C6843111C69439C464346834602
:104CF000180C08186044844500D91FE1010C434694
:104D0000039119040B0C0004C0182104240C059015
:104D1000101C6243090C02924843321C66434A430A
:104D2000029BB146060C9046B4461A1C62444244AB
:104D3000904502D9802673029944160CB046C144AE
:104D400000044B46060C1204029393195646320493
:104D5000100C021C6A439C46031C7B439146320C98
:104D6000574398461B0C9A46D144B94455434F4586
:104D700002D980277E02AD194B461F0C4646ED191D
:104D80001F0433041E0C031C4B4360435143544324
:104D90001A0C8018B046401847449A46814202D9FE
:104DA00080214E02A419039B1A1C62445A44624596
:104DB00089414E425146B34603040E049C46029973
:104DC000330C6344CE18B046C246DA44D219BA4214
:104DD000BF4151467B426F18F9189946DA459B410D
:104DE0005E42029BB3469845B64176425B461E43FF
:104DF000000C49459B41AF42AD4136186F425842C5
:104E0000384336180598341956020643CB0D640210
:104E1000701E8641D20D164349021C430E43E00129
:104E20002FD50127049D374073083E1CE00701354C
:104E30001E4304950643640823E0231C2B430320F0
:104E4000002B00D039E700240025022035E70C2292
:104E5000032391460393E6E6042600230120B1468E
:104E60009A4600260390DEE600240025012024E770
:104E700003985446022844D0032800D1EAE00128D0
:104E800060D0049A37495018002800DC95E00F27BD
:104E90003740042F05D0311DB142B6417542641927
:104EA0000E1CE10105D53048049A8023DF00044040
:104EB000D0192E49884224DC019B6507F60864025C
:104EC000420501272E43240B520D1F4000200021D4
:104ED000090D0D052543264C12052C401443630093
:104EE000301C5E08FF07311C394307B03CBC9046BC
:104EF0009946A246AB46F0BD5A462E1C01920228A6
:104F0000BAD1019E01273740134A00240026DDE76D
:104F1000544601970398ADE701260027154C7642C9
:104F20000D4AD3E72E1CA5E78022130351461942F0
:104F300035D10B431D032C0B074AC7E780214B02D9
:104F40009B44DBE6019B00221840C7B200240026E8
:104F5000BCE7C0460DFCFFFFFF07000001FCFFFFA0
:104F6000006C0010FF030000FFFFFFFEFE070000C3
:104F7000FFFF0F80FFFF0F00041C283CA5402C1CE6
:104F8000002570E600F092FD203060E6283B9E4050
:104F9000B24600262DE600F089FD203019E61C42BD
:104FA00006D11C432603340B5F462E1C2E4A8DE788
:104FB0000B431803040B2C4A88E72C4F049D7B1BE2
:104FC000382B06DD019E01273740002200240026F1
:104FD0007CE71F2B21DC049A254F351CD119201C9E
:104FE0008E40DD408840321C2843561EB241061CCC
:104FF0001643DC400F233340042B05D0371DB74246
:10500000B641714264183E1C250217D5019B012749
:105010001F4001220024002658E71648049A211C4C
:10502000871AF9400D1C202B12D0134BD018844046
:105030002643721E96412E430024DBE7019A650742
:10504000F6086002012717402E43040B00223DE7BB
:105050000024EDE780210F033C430198240301273E
:10506000240B0740004A31E7FF07000002FCFFFF66
:105070001E040000E2FBFFFF3E040000F0B55746AF
:105080004E464546E0B4071C0D034E00680ACC0F9F
:10509000790F08438446111C18035A00FD00400A8A
:1050A000DF0F4B0F1843CA4BC900760D520D8A46CD
:1050B0009A4200D1E0E001235F40B946BC4200D1F2
:1050C000A8E0B71A002F00DC10E1002A12D15246E6
:1050D000024300D1D4E0013F002F00D060E15146EF
:1050E0006F1ABD42AD4162466B42101A3D1CC31A95
:1050F000371C24E0B64A964200D1E3E080210B043D
:105100001843382F00DD23E11F2F00DD66E1202149
:10511000C91B021C53468A40FB401A4353468B402E
:10512000191C4B1E9941031C0A43FB40AA1A6746EF
:105130009542AD41F81A6B42C31A151C371C1A026E
:1051400000D4C7E05E02710A88464246002A00D1B8
:10515000F0E0404600F0AAFC021C083A1F2A00DDDD
:10516000F1E02823181A2E1C4146C6409140331CFA
:105170000B439540974200DDA9E0D01B411C1F293D
:1051800000DD12E11F273A1A2E1C181CCE40904059
:10519000954030436A1E9541CB40054301210027CD
:1051A0000F262E40042E00D172E02E1DAE42AD41DE
:1051B000684280221B180125100418402C4000284A
:1051C00007D0834FB94200D1B0E0824A0F1C134090
:1051D0000131F20849055E073243DB08480D01281A
:1051E00000DC79E01B0378051E0B470D0020002131
:1051F000090D7D050B05784F1E43101C37406A08CA
:1052000017437E007108E40721431CBC9046994671
:10521000A246F0BDB31A002B00DCA6E0002A3ED067
:105220006B4A96424ED080210F043843382B00DC65
:1052300018E15346184300270022002800D001221D
:105240005219AA42AD4167446B42FB18151C371C2A
:105250001E023FD55E487E1C864200D17BE15D493F
:1052600001222A400B406808151CD90705430D434D
:105270005B08B91C371C93E7014300D11BE71CE70F
:10528000711C371C0F2663462E40042E00D08CE77D
:10529000802201261004344018402E1C8FE752460D
:1052A0000243EDD0013B002B09D157467919A942A1
:1052B0009241554260444319371C0D1CC8E74449CC
:1052C0008E42B3D1802063460101371C68E7BF1AC4
:1052D000404A1340791C63E7151C1D4300D121E2AD
:1052E000002F3ED0802631030B437BE7002F00D0F8
:1052F00086E0721C51054B0D012B00DCF0E0574697
:10530000EA1B95429B416746391A5B42C91A884697
:105310000B0200D49DE05446651BAA459241C01B78
:105320005742C31B9846371C4C460EE70F1C0026FD
:1053300000225BE7281C00F0B9FB2030021C083A71
:105340001F2A00DC0DE7283885402B1C002511E7BB
:105350005746384300230022002800D1E6E6012208
:10536000E4E61D032E0B002740E7002B00D0D9E018
:10537000771C79054A0D012A00DC95E0144B9F4209
:1053800000D1FEE051464919A942AD4162466B4247
:105390008018C2184908D5070D435308B11CFFE611
:1053A0000B498E4200D0ACE68CE7061C1F3E1F1C4A
:1053B000F7403E1C202973D03F22101A83401D4322
:1053C0006B1E9D413543012100230027E8E6C046BE
:1053D000FF070000FFFF7FFFFFFF0F803B1C203B0C
:1053E000011CD9400B1C202F5CD04022D71BB84099
:1053F000021C50460243511E8A411A43002395E67F
:105400007F42002E40D0CA4CA24200D11FE1802131
:1054100066460B041E43B446382F00DDA9E01F2F5B
:1054200000DD3DE12023DE1B291C6446B440F94029
:10543000B5406B1E9D41214363460D43FB405746DB
:105440007D1BC01AAA459B415F42C31B4C46171CDB
:1054500075E60D1C154320D10024012100230426EC
:105460000027B6E61F2B4ADC2021C91A071C52462A
:105470008F40DA403A4357468F40391C4F1EB9419E
:10548000D8400A43071CDBE664462C4369D1511C13
:10549000031C5546171C4C4682E6151C371C54E667
:1054A00000238CE70022A4E767462F43002E00D09C
:1054B000D4E0002F00D126E15346034300D1E4E0BD
:1054C00051464F19AF42AD4160446E4283191E02EE
:1054D00000D44EE197483D1C0340022101275FE6BE
:1054E00061462943002E29D1002976D15146014336
:1054F000B2D0031C55464C460121002750E61F1C24
:10550000203F011CF9400F1C202B00D1C6E0402297
:10551000D31A9840021C50460243531E9A413A4304
:1055200000278DE65B42002E30D167462F4300D026
:10553000C8E0511C031C5546171C31E6002965D1F3
:105540005746074300D1C8E0031C802055464C460F
:105550000101774F24E68023371C1901042600231C
:1055600037E6013F002F6ED154466146651B401A55
:1055700068E767463D430023002D00D15FE7012522
:105580005DE7802631010023042622E668498A422D
:1055900000D1C1E08027664639040E43B446382B5B
:1055A00000DDA2E01F2B00DDD0E02021C91A2E1C57
:1055B00067468F408D40DE403E43291C67464D1EA6
:1055C000A941DF40351C0D433E1C554455459B41C8
:1055D00030185E428319171C3AE65646064354D0EB
:1055E0005746EA1B63469542B641191A7342CB1AD5
:1055F0001E0200D4A2E07D1B6446AA45BF41001BE9
:105600007A42831A4C4601210027C9E556460643D3
:105610003FD0624680215707ED08D3080A033D4377
:10562000134208D0C608164205D15546EC08450776
:105630002543331C4C46680FDB0080260343ED00F6
:1056400031013B4FACE53A498A4200D0E4E680267E
:10565000031C55464C463101171CA1E5002F4CD0C8
:105660005346034315D062468026ED085107D30800
:1056700037030D433B42DED0C2083A42DBD15546E8
:10568000E9084507131C0D43D5E7634601210027B0
:1056900086E5802739016346254F81E500223AE7F8
:1056A0003C1C203C6646E640331C202F5FD0402443
:1056B000E71B6646BE40311C0D43691E8D411D43EC
:1056C0000023BCE6013B002B22D155445545BF4188
:1056D0007B426044C318171CBAE5802104220024D1
:1056E0000901154B5642124F73E563461D430026D0
:1056F000002D00D169E7012567E78022031C55468C
:1057000011010B4F4CE5031C55460121002747E5CD
:1057100007498A4200D042E78021031C554609010F
:10572000171C3DE57F057F0D002600225EE5C04683
:10573000FF070000FFFF7FFFFFFF7F001D1C1543D9
:1057400000D189E6151C0121002729E51F1C203FF7
:105750006146F940202B10D04026F31A67469F403F
:105760003B1C1D436B1E9D410D4300262DE7002170
:10577000A2E73D1C0121002712E50023F1E7C04606
:10578000134A0B0330B5051C48001C0BC90F430D11
:105790000020934211DD0F4883420FDC802250032A
:1057A0000D4A0443D01A1F280BDD0C4DEB1ADC40C8
:1057B000221C5042002900D1101C30BD084C081991
:1057C000FBE7C54007482A1C1D18AC402243F0E700
:1057D000FE0300001D040000330400001304000059
:1057E000FFFFFF7FEDFBFFFFF8B5041E2DD0C50FB7
:1057F00000D04442201C00F059F916490A1A0A2820
:1058000016DD0B388440570526037A0D360B00272A
:1058100000200021381C0F0D3B050F4C33431C406A
:105820001605344361004A08ED07111C2943F8BDF1
:105830000B26011C301A1531231CC4408B40520525
:1058400021031F1C0E0B520DE2E70025002200264B
:105850000027DDE71E040000FFFF0F8070B5041E67
:1058600026D000F023F914490A1A0A2813DD0B3850
:10587000844056052403720D250B002600200021CC
:10588000301C0E0D33050D4C2B4311051C400C43F1
:105890006500690870BD0B23051C181A1535211CFD
:1058A000C440A940520525030E1C2D0B520DE5E7FF
:1058B000002200250026E1E71E040000FFFF0F8004
:1058C000410070B50E0E731C4202C50FD8B2540AC7
:1058D000012815DD6307E024A000120B3418002016
:1058E0000021181C0B0D1E051C4B324361054C0892
:1058F000134023435A005608ED07311C294370BD5D
:10590000002E16D1002C1ED0201C00F0CFF80A2843
:105910001DDC0B22111A021C231C1532CB409440B3
:105920001E1C231C34030E4E220B301A41054C0D55
:10593000D5E7002C03D06307120B0A4CCFE7094CC4
:1059400000220023CBE7002400220023C7E7011C2C
:105950000B398C40261C0023E4E7C046FFFF0F8074
:1059600089030000FF070000F0B5041C4800400D4B
:105970000A03CD0F411C630F520A4F051A43E6007C
:105980007B0D012B3BDD42494318FE2B2CDC002B09
:105990004EDDA401770FD200611E8C413D4E2243A3
:1059A00080193A430F261640042E47D18027FC0465
:1059B00014401DD0FF2838D0374B1A40031C01304B
:1059C000C6B2D208012E17DC002A06D0002B29D03F
:1059D0008027FC03224351024A0ADBB2DB051A434B
:1059E000ED07101C2843F0BD802148000422FF234E
:1059F000C6B2D208012EE7DD51024A0AEDE70028BF
:105A000006D132430120002A15D104220023EFE7FA
:105A10001643E9D08024A004D20080260243FF234D
:105A20007000BFE75002420AD8E7FF230022D5E703
:105A3000173305DA012005220023D9E70432B5E740
:105A40008023164F19040A433C1A1F2C0DDC1449FD
:105A5000331C4718BE40301C461EB041BA40E340DC
:105A600002431A43012000239CE70E4B171C191A0E
:105A7000CF403B1C202C09D00B4C001982403243F4
:105A8000561EB2411A43012000238BE70022F6E79D
:105A900080FCFFFF81FCFFFFFFFFFFFB9E03000078
:105AA00082FCFFFF7E030000A2FCFFFF1C210123FC
:105AB0001B04984201D3000C10391B0A984201D3F1
:105AC000000A08391B09984201D30009043902A2CF
:105AD000105C40187047C046040302020101010136
:105AE000000000000000000038B50E4B0C4A041CFA
:105AF0000D1CFDF769F8002804D1201C291CFFF7B4
:105B00003FFE38BD074B064A201C291CFFF7B6FA9A
:105B1000FFF736FE802319064018F2E7C046C0465C
:105B2000000000000000E041014B18687047C046CB
:105B3000801E0020F0B5830700D181E0541E002AAA
:105B40007DD0CDB2031C0326E70711D5431C057099
:105B5000334211D01D700133941E33420CD0621EAB
:105B6000002C6CD01D700133141C334204D0013C56
:105B70001D7001333342F2D1032C49D9FF220A4070
:105B800017023A4315042A430F2C5CD9261C103EF9
:105B9000370901373D015E19103DEF061A605A6062
:105BA0009A60DA601033FD0F9E4213D0002D06D0AC
:105BB0001A605A609A60DA6010339E420AD01A6006
:105BC0005A609A60DA601A615A619A61DA61203328
:105BD0009E42F4D10F231C40351C331C032C17D9D3
:105BE000261FB7080137BE00AB19043E770704C56E
:105BF000FE0F9D420AD0002E02D004C59D4205D062
:105C00002F1C04C76A603D1D9D42F9D10322144038
:105C1000002C14D01C19DD43C9B266190127197074
:105C200001333E40A3420AD0002E03D01970013345
:105C3000A34204D0197059700233A342FAD1F0BDC7
:0C5C4000031C141C98E71D1CCAE7C0469A
:105C4C00CCB3FF7F01000000E0B3FF7F0100000038
:105C5C008241EC1FFD7C27C08241EC1F00000040FC
:105C6C00000000E08241EC1F523F9CC03153781F72
:105C7C000E853B3FDB26C2E0DA7CEE1F4D0623C0CF
:105C8C00DA7CEE1F00000040000000E0DA7CEE1F22
:105C9C00CD399BC0F129771FF217413F1EB5BCE0EF
:105CAC00B1B4F01F9E961EC0B1B4F01F00000040AE
:105CBC00000000E0B1B4F01F35559AC004E4751F24
:105CCC005E82463F026AB7E07DE9F21F052D1AC0DD
:105CDC007DE9F21F00000040000000E07DE9F21FAA
:105CEC00629199C02781741F79C54B3F7C44B2E007
:105CFC00B51BF51F97C815C0B51BF51F000000405C
:105D0C00000000E0B51BF51F34EE98C00F01731FA7
:105D1C005EE2503F8743ADE0CC4BF71F696811C082
:105D2C00CC4BF71F00000040000000E0CC4BF71FED
:105D3C00916B98C07063711F23DA553F2466A8E0FD
:105D4C00377AF91F920B0DC0377AF91F000000400B
:105D5C00000000E0377AF91F670998C0F2A76F1F9F
:105D6C00D6AD5A3F5CABA3E06BA7FB1F29B108C0B3
:105D7C006BA7FB1F00000040000000E06BA7FB1F9F
:105D8C00A9C797C03DCE6D1F7D5E5F3F3F129FE060
:105D9C00DDD3FD1F465804C0DDD3FD1F00000040BD
:105DAC00000000E0DDD3FD1F54A697C0EFD56B1F9C
:105DBC0016ED633FE1999AE000000020000000C05E
:105DCC000000002000000040000000E00000002067
:105DDC0069A597C0A1BE691F975A683F5F4196E0BD
:105DEC00492C02206EA7FBBF492C0220000000406A
:105DFC00000000E0492C0220F2C497C0E887671F1E
:105E0C00F2A76C3FD80792E02C590420A84DF7BF9D
:105E1C002C59042000000040000000E02C59042004
:105E2C00FF0498C04F31651F0FD6703F75EC8DE0A5
:105E3C001E870620C5F1F2BF1E8706200000004019
:105E4C00000000E01E870620A86598C05EBA621F9D
:105E5C00D1E5743F62EE89E093B60820DA92EEBF8A
:105E6C0093B6082000000040000000E093B6082024
:105E7C000BE798C09522601F15D8783FD20C86E0AE
:105E8C0002E80A20FD2FEABF02E80A2000000040C9
:105E9C00000000E002E80A204E8999C06E695D1F7F
:105EAC00B0AD7C3FFD4682E0DF1B0D2042C8E5BF54
:105EBC00DF1B0D2000000040000000E0DF1B0D2068
:105ECC009E4C9AC05C8E5A1F7367803F1F9C7EE06D
:105EDC00A2520F20BC5AE1BFA2520F20000000407A
:105EEC00000000E0A2520F2030319BC0CC90571F15
:105EFC002806843F7B0B7BE0C18C11207EE6DCBF47
:105F0C00C18C112000000040000000E0C18C112069
:105F1C003F379CC02570541F948A873F599477E073
:105F2C00B5CA1320976AD8BFB5CA13200000004029
:105F3C00000000E0B5CA13200E5F9DC0C52B511F99
:105F4C0074F58A3F053674E01065B21F246216C1E1
:105F5C0087AC391FBB1F8D3F2FB071E01065B21F8E
:105F6C000266FDC1AE5B631EDCE4533DD99584E251
:105F7C000422BB1F828805C1D0B5411F04A38B3FEF
:105F8C00CB1D73E00422BB1FD258F9C1E84E5F1E33
:105F9C001D9B6B3D56B16EE2A0D3C31F2FA9F4C05D
:105FAC0026D0491F523D8A3FE27374E0A0D3C31F31
:105FBC0083EAF5C101B95A1EDE99823D3E6859E269
:105FCC00967BCC1FA2BFE3C068FE511F67F0883FD1
:105FDC00B7B075E0967BCC1F1F1CF3C1FE97551E06
:105FEC00D8E3983D63B944E2991BD51F74C7D2C05E
:105FFC0052435A1FE6BD873FAAD276E0991BD51FA4
:10600C00ACEEF0C1F5E94F1EC47BAE3D89A330E286
:10601C005CB5DD1F64BCC1C079A1621F4CA7863F73
:10602C0044D877E05CB5DD1F2263EFC118AD491E83
:10603C006164C33D5B251DE2944AE61F5F9AB0C0C4
:10604C00481B6B1FECAD853F37C078E0944AE61FC8
:10605C00697AEEC1B5DF421E7CA0D73D693D0AE2EC
:10606C00F3DCEE1F7E5D9FC0F7B2731FE7D2843F57
:10607C00698979E0F3DCEE1F5635EEC13E803B1E9C
:10608C00F732EB3D20EAF7E12F6EF71F11028EC0BD
:10609C008C6A7C1F2917843FF4327AE02F6EF71F2D
:1060AC00A294EEC1488D331ECB1EFE3DC429E6E101
:1060BC00000000209B847CC0D543851F657B833FFB
:1060CC002BBC7AE000000020EE98EFC191052B1E4E
:1060DC001267103E6FFAD4E11D940820D6E16AC015
:1060EC0067408E1F1700833F9E247BE01D94082081
:1060FC00BE42F1C104E8211E010F223E0C5AC4E13C
:10610C00402C1120B51659C09E61971F7BA5823F6C
:10611C00146C7BE0402C11207892F3C1B233181E22
:10612C00F219333E5846B4E125CA1920602047C005
:10613C009CA8A01F966B823F92927BE025CA1920E7
:10614C006788F6C1D8E70D1E5D8B433EE3BCA4E126
:10615C008A6F222035FC34C04F16AA1F3552823F5D
:10616C0055987BE08A6F2220BB24FAC1DA03031E08
:10617C00DB66533E0EBB95E1321E2B20C0A722C01E
:10618C006DABB31FEE58823FCE7D7BE0321E2B20D1
:10619C009167FEC13D87F71D23B0623E0E3E87E13D
:1061AC00E0D73320BD2010C07E68BD1F257F823F05
:1061BC00A0437BE0E0D73320F15003C2A871EB1D64
:1061CC00066B713EF44279E15D9E3C200965FDBF92
:1061DC00E14DC71F13C4823F9DEA7AE05D9E3C20CF
:1061EC00DAE008C2DBC2DE1D6B9B7F3EACC66BE106
:1061FC0073734520A472EABFD05BD11FC626833FC0
:10620C00BC737AE07373452046170FC2A77AD11D71
:10621C004C458D3E03C65EE1F1584E20A447D7BFD6
:10622C006992DB1F2AA6833F1AE079E0F1584E20D1
:10623C0030F415C2EC98C31DB06C9A3EAC3D52E1E3
:10624C0035D8ED1EF2E446C49DD6021D59F6D23D5A
:10625C00317A0EE235D8ED1E4AB69FC7E3149B1A6D
:10626C00D303C93565CB1DE8954D0C1F3C4A0FC4B3
:10627C0066B31A1D7E3FCE3D11D711E2954D0C1F12
:10628C00C9B195C7160A8F1A19CA1D36222ADDE71D
:10629C0099B72A1FEE74D7C3E0D1321DF407CA3D5B
:1062AC0035AD14E299B72A1F69D48DC7FE5B811AEC
:1062BC00FAF16F36E7019EE71B1B491FF9549FC388
:1062CC00B03D4B1D0F53C63DCFF916E21B1B491FAA
:1062DC006F2988C72D03721ABA84BF36C35860E77A
:1062EC00067D671F2FDA66C38E02641D3823C33DFB
:1062FC0005BB18E2067D671F6CBC84C770F8601A7A
:10630C005F8C0C37973324E757E2851F59F42DC364
:10631C002F2C7D1DE579C03DF5EF19E257E2851F65
:10632C00359983C7EA344E1AB61357370996E9E6FE
:10633C001F50A41F4793F4C237C6961D9F57BE3DEE
:10634C00AF981AE21F50A41FCFCB84C729B2391AB9
:10635C004D269F378082B0E682CBC21FE6A6BAC21A
:10636C0023DCB01D05BCBC3D2DB61AE282CBC21F8E
:10637C00626088C73B6A231A6ED0E4372AFA78E643
:10638C00B459E11F551F80C23279CB1DD7A5BB3D37
:10639C004B4A1AE2B459E11F21638EC7CB570B1A33
:1063AC000E1F2838FEFC42E600000020F9EC44C227
:1063BC004EA8E61D0713BB3DB25719E200000020A2
:1063CC003CE096C73776F119C41F6938C9890EE6C7
:1063DC00C3C31E20950009C2F673021EC900BB3D43
:1063EC00C6E117E2C3C31E20C9E3A1C7AAC1D519D0
:1063FC00AFE0A7383F9EDBE570AA3D20614BCCC1D6
:10640C0023E61E1EA36BBB3D95EC15E270AA3D2046
:10641C00B179AFC73037B8196870E4380B37AAE5D3
:10642C008EB95C201FBF8EC135083C1E8B4FBC3D06
:10643C00BC7C13E28EB95C209EADBFC7CDD498193D
:10644C00E9DD1E39E54F7AE5B8F67B202B4E50C1BD
:10645C00DDE2591EF1A7BD3D539710E2B8F67B2043
:10646C00EA8AD2C78C99771978385739A9E34BE562
:10647C00A3679B2090EB10C1097E781EE16FBF3D96
:10648C00D7410DE2A3679B20911CE8C79185541955
:10649C00908F8D396EEC1EE51612BB20128BD0C07E
:1064AC00D5E0971E0EA2C13D118209E21612BB2047
:1064BC00256D00C8219A2F19C9F2C1399E63F3E4E6
:1064CC00F3FBDA2038218FC08111B81EEC38C43DA3
:1064DC00055E05E2F3FBDA20C9861BC8A7D90819AB
:1064EC00CC71F4390F42C9E4332BFB2050A34CC0C0
:1064FC006915D91EC22EC73DE0DB00E2332BFB2011
:10650C002F7339C8B147E018361C253A1980A0E41E
:10651C00E8A51B216C0709C005F1FA1EB97DCA3D1F
:10652C00E001FCE1E8A51B21983B5AC8F0E8B5183E
:10653C008C01543AAC1579E4B11F731D745240CDE3
:10654C00D1681518CFFC7037E812C0E6B11F731D67
:10655C0044F0D7D796653C143F0B7D21EA2F28F0E9
:10656C00C6C3B91D4BFFC9CCC5063C1808A562377C
:10657C005E88BDE6C6C3B91DE6A3DED7A94B2814B9
:10658C00584232222235C6EF38CD001EA27152CCB1
:10659C00E01B6318E9B155370070B9E638CD001E21
:1065AC00BDF5E9D7E08A111425D2E2228CEA64EF1A
:1065BC003844481ED18AD9CB86C08A18431E4A3724
:1065CC00F9D4B3E63844481EF60CFAD7D91AF813A6
:1065DC00E8C18E231F7604EF4E31901EC12A5FCB8B
:1065EC00720EB31816E33F3720C4ACE64E31901E42
:1065FC00FA110FD85DF4DB13A01B3624ADFAA4EE10
:10660C00569DD81EF82FE3CAB220DC18CEF73637C9
:10661C00C24BA4E6569DD81E632E29D88E11BD13ED
:10662C00CAEBD824E39746EE8391211FA17765CA64
:10663C009B13061971522F375D7B9AE68391211FAC
:10664C00F58C48D8186E9B1318417725446AE9EDF0
:10665C0060176B1F9BDDE5C9C6043119DFE72837CE
:10666C0062638FE660176B1F92596DD869077713B9
:10667C002F2C11263E8B8DEDCB38B51F8B3C64C96E
:10668C00F9125D1903AC2337011583E6CB38B51F1E
:10669C0023C197D8E6DC4F1364BFA626401133ED17
:1066AC0000000020F76DE0C8165E8A1909921F37AA
:1066BC00EAA175E60000002085F1C7D82CF025135F
:1066CC007B0E3827D40FDAEC8F774B205F4A5AC8F1
:1066DC000007B9198E8C1C371F1C67E68F774B206F
:1066EC006319FED84D45F9126C2EC527C69782EC5E
:1066FC0063AA972067A9D1C7762FE919CA8D1A37D3
:10670C00C99557E663AA972018683AD912E3C912BB
:10671C0025354E2848B72CECC2A3E420FC6146C7B3
:10672C00ECF91A1ABB8719370B2147E6C2A3E420F0
:10673C007E0D7DD938D397125E39D328217AD8EBC8
:10674C004D6F3221864AB8C65C894E1A496C19378E
:10675C00DFCF35E64D6F3221BF39C6D9B722631270
:10676C0062525429D3E985EB001981211B3927C6C4
:10677C001201841A632D1A37FCB323E60019812108
:10678C00191D16DAFAE12B12EA97D129CB0D35EB4C
:10679C0037ADD021BE0393C56784BB1A1CBD1B3714
:1067AC00BADE10E637ADD021A4E76CDA1E25F21163
:1067BC00F3214B2A8AEBE5EAAB3821229C80FBC4FF
:1067CC008636F51AC20D1E37FE60FDE5AB38212268
:1067DC0009C9CADA2104B6119E08C12AD18698EAE1
:1067EC0073C872224B8660C4213A311BEE112137DB
:1067FC00274BE9E573C8722240F02FDB139B77110E
:10680C001564332BCAE14CEA0C6AC52214ECC1C3E3
:10681C0022B16F1B97BC243704ADD4E50C6AC5229A
:10682C00458B9CDB310A37116D4CA22B2FFD02EAF4
:10683C0027F116172B21C9E19AF6BC0B3818133225
:10684C00B2054EEB27F11617D5DE361E9AF6BC0BA9
:10685C00C8E7ECCDB2054EEBE2D0F017461D46E092
:10686C0073D9580CF33FB2316C8F8BEBE2D0F0172D
:10687C00BAE2B91F73D9580C0DC04DCE6C8F8BEB8F
:10688C00A3DDD2187991B2DE19EEFC0C0A244F313B
:10689C0009A2C9EBA3DDD218876E4D2119EEFC0CB1
:1068AC00F6DBB0CE09A2C9EB9D62BD1953E90DDD33
:1068BC007E82A90D5CBEE930CC3008EC9D62BD191E
:1068CC00AD16F2227E82A90DA44116CFCC3008EC75
:1068DC005FADB01A7E8B57DBC9E65E0E5B0982306A
:1068EC00D82D47EC5FADB01A8274A824C9E65E0EB1
:1068FC00A5F67DCFD82D47ECDF0DAD1BA3D98ED9D6
:10690C00756D1D0F260018301B8A86ECDF0DAD1B34
:10691C005D267126756D1D0FDAFFE7CF1B8A86EC9D
:10692C0089D6B21C4330B3D7636BE50F999EAB2F5E
:10693C004135C6EC89D6B21CBDCF4C28636BE50F34
:10694C00676154D04135C6EC525CC21DA0E6C3D57C
:10695C00F137B71065E13C2FA81D06ED525CC21D46
:10696C0060193C2AF137B7109B1EC3D0A81D06ED49
:10697C00C0F6DB1E9B4EC0D30C2D931121C6CB2E23
:10698C004B3046EDC0F6DB1E65B13F2C0C2D931140
:10699C00DF3934D14B3046ED0000002098B4A7D13C
:1069AC0046A77912684B582EBA5886ED0000002085
:1069BC00684B582E46A7791298B4A7D1BA5886EDD1
:1069CC00EED42E215F5F79CFE8056B13EE70E22DCC
:1069DC000981C6EDEED42E21A1A08630E8056B13FB
:1069EC00128F1DD20981C6ED2AD56822FC8F34CDB9
:1069FC0006AB6714A1376A2DC09106EE2AD5682222
:106A0C000470CB3206AB67145FC895D2C09106EE0A
:106A1C002663AE23A681D8CA91FB6F15BEA1EF2CBD
:106A2C00D27146EE2663AE235A7E273591FB6F1545
:106A3C00425E10D3D27146EE35E4FF24996964C8E6
:106A4C00675F8416F9B2722C910686EE35E4FF244A
:106A5C0067969B37675F8416074D8DD3910686EE3C
:106A6C009DC05D26FF76D7C56741A5179370F32BA4
:106A7C00A333C5EE9DC05D260189283A6741A51751
:106A8C006D8F0CD4A333C5EEA663C827C9D230C30F
:106A9C00840FD31884E1712BFCDA03EFA663C827AB
:106AAC00372DCF3C840FD3187C1E8ED4FCDA03EF29
:106ABC00AE3B4029949F6FC0D33A0E1A970EEE2A24
:106ACC00DADC41EFAE3B40296C60903FD33A0E1AB2
